{
  "address": "0x48E15835eBb97b7E13bC2F8FF7Bd772F6d224a28",
  "abi": [
    {
      "inputs": [
        {
          "internalType": "address",
          "name": "_usdtToken",
          "type": "address"
        }
      ],
      "stateMutability": "nonpayable",
      "type": "constructor"
    },
    {
      "anonymous": false,
      "inputs": [
        {
          "indexed": false,
          "internalType": "uint8",
          "name": "version",
          "type": "uint8"
        }
      ],
      "name": "Initialized",
      "type": "event"
    },
    {
      "anonymous": false,
      "inputs": [
        {
          "indexed": true,
          "internalType": "address",
          "name": "previousOwner",
          "type": "address"
        },
        {
          "indexed": true,
          "internalType": "address",
          "name": "newOwner",
          "type": "address"
        }
      ],
      "name": "OwnershipTransferred",
      "type": "event"
    },
    {
      "inputs": [],
      "name": "AP_TOKEN",
      "outputs": [
        {
          "internalType": "address",
          "name": "",
          "type": "address"
        }
      ],
      "stateMutability": "view",
      "type": "function"
    },
    {
      "inputs": [],
      "name": "LISTED_LYNKNFT",
      "outputs": [
        {
          "internalType": "address",
          "name": "",
          "type": "address"
        }
      ],
      "stateMutability": "view",
      "type": "function"
    },
    {
      "inputs": [],
      "name": "LYNKNFT",
      "outputs": [
        {
          "internalType": "address",
          "name": "",
          "type": "address"
        }
      ],
      "stateMutability": "view",
      "type": "function"
    },
    {
      "inputs": [],
      "name": "LYNK_TOKEN",
      "outputs": [
        {
          "internalType": "address",
          "name": "",
          "type": "address"
        }
      ],
      "stateMutability": "view",
      "type": "function"
    },
    {
      "inputs": [],
      "name": "MARKET",
      "outputs": [
        {
          "internalType": "address",
          "name": "",
          "type": "address"
        }
      ],
      "stateMutability": "view",
      "type": "function"
    },
    {
      "inputs": [],
      "name": "STAKING",
      "outputs": [
        {
          "internalType": "address",
          "name": "",
          "type": "address"
        }
      ],
      "stateMutability": "view",
      "type": "function"
    },
    {
      "inputs": [],
      "name": "STAKING_LYNKNFT",
      "outputs": [
        {
          "internalType": "address",
          "name": "",
          "type": "address"
        }
      ],
      "stateMutability": "view",
      "type": "function"
    },
    {
      "inputs": [],
      "name": "TEAM_ADDR",
      "outputs": [
        {
          "internalType": "address",
          "name": "",
          "type": "address"
        }
      ],
      "stateMutability": "view",
      "type": "function"
    },
    {
      "inputs": [],
      "name": "USDT_TOKEN",
      "outputs": [
        {
          "internalType": "address",
          "name": "",
          "type": "address"
        }
      ],
      "stateMutability": "view",
      "type": "function"
    },
    {
      "inputs": [],
      "name": "USER_INFO",
      "outputs": [
        {
          "internalType": "address",
          "name": "",
          "type": "address"
        }
      ],
      "stateMutability": "view",
      "type": "function"
    },
    {
      "inputs": [
        {
          "internalType": "address[]",
          "name": "_addresses",
          "type": "address[]"
        }
      ],
      "name": "__DBContract_init",
      "outputs": [],
      "stateMutability": "nonpayable",
      "type": "function"
    },
    {
      "inputs": [],
      "name": "acceptTokenLength",
      "outputs": [
        {
          "internalType": "uint256",
          "name": "",
          "type": "uint256"
        }
      ],
      "stateMutability": "view",
      "type": "function"
    },
    {
      "inputs": [
        {
          "internalType": "uint256",
          "name": "",
          "type": "uint256"
        }
      ],
      "name": "acceptTokens",
      "outputs": [
        {
          "internalType": "address",
          "name": "",
          "type": "address"
        }
      ],
      "stateMutability": "view",
      "type": "function"
    },
    {
      "inputs": [
        {
          "internalType": "uint256",
          "name": "",
          "type": "uint256"
        }
      ],
      "name": "achievementRewardAmounts",
      "outputs": [
        {
          "internalType": "uint256",
          "name": "",
          "type": "uint256"
        }
      ],
      "stateMutability": "view",
      "type": "function"
    },
    {
      "inputs": [],
      "name": "achievementRewardAmountsNum",
      "outputs": [
        {
          "internalType": "uint256",
          "name": "",
          "type": "uint256"
        }
      ],
      "stateMutability": "view",
      "type": "function"
    },
    {
      "inputs": [],
      "name": "achievementRewardDurationThreshold",
      "outputs": [
        {
          "internalType": "uint256",
          "name": "",
          "type": "uint256"
        }
      ],
      "stateMutability": "view",
      "type": "function"
    },
    {
      "inputs": [],
      "name": "achievementRewardLevelThreshold",
      "outputs": [
        {
          "internalType": "uint256",
          "name": "",
          "type": "uint256"
        }
      ],
      "stateMutability": "view",
      "type": "function"
    },
    {
      "inputs": [
        {
          "internalType": "uint256",
          "name": "",
          "type": "uint256"
        },
        {
          "internalType": "uint256",
          "name": "",
          "type": "uint256"
        }
      ],
      "name": "attributeLevelThreshold",
      "outputs": [
        {
          "internalType": "uint256",
          "name": "",
          "type": "uint256"
        }
      ],
      "stateMutability": "view",
      "type": "function"
    },
    {
      "inputs": [],
      "name": "attributeLevelThresholdNum",
      "outputs": [
        {
          "internalType": "uint256",
          "name": "",
          "type": "uint256"
        }
      ],
      "stateMutability": "view",
      "type": "function"
    },
    {
      "inputs": [
        {
          "internalType": "uint256",
          "name": "index",
          "type": "uint256"
        }
      ],
      "name": "attributeLevelThresholdNumByIndex",
      "outputs": [
        {
          "internalType": "uint256",
          "name": "",
          "type": "uint256"
        }
      ],
      "stateMutability": "view",
      "type": "function"
    },
    {
      "inputs": [],
      "name": "baseTokenURI",
      "outputs": [
        {
          "internalType": "string",
          "name": "",
          "type": "string"
        }
      ],
      "stateMutability": "view",
      "type": "function"
    },
    {
      "inputs": [
        {
          "internalType": "enum ILYNKNFT.Attribute",
          "name": "_attr",
          "type": "uint8"
        },
        {
          "internalType": "uint256",
          "name": "_point",
          "type": "uint256"
        }
      ],
      "name": "calcLevel",
      "outputs": [
        {
          "internalType": "uint256",
          "name": "level",
          "type": "uint256"
        },
        {
          "internalType": "uint256",
          "name": "overflow",
          "type": "uint256"
        }
      ],
      "stateMutability": "view",
      "type": "function"
    },
    {
      "inputs": [
        {
          "internalType": "uint256",
          "name": "_tokenId",
          "type": "uint256"
        }
      ],
      "name": "calcTokenLevel",
      "outputs": [
        {
          "internalType": "uint256",
          "name": "level",
          "type": "uint256"
        }
      ],
      "stateMutability": "view",
      "type": "function"
    },
    {
      "inputs": [],
      "name": "commonMintEnable",
      "outputs": [
        {
          "internalType": "bool",
          "name": "",
          "type": "bool"
        }
      ],
      "stateMutability": "view",
      "type": "function"
    },
    {
      "inputs": [
        {
          "internalType": "enum IUser.Level",
          "name": "_level",
          "type": "uint8"
        },
        {
          "internalType": "uint256",
          "name": "_invitationLevel",
          "type": "uint256"
        }
      ],
      "name": "communityRewardRate",
      "outputs": [
        {
          "internalType": "uint256",
          "name": "",
          "type": "uint256"
        }
      ],
      "stateMutability": "view",
      "type": "function"
    },
    {
      "inputs": [
        {
          "internalType": "uint256",
          "name": "",
          "type": "uint256"
        },
        {
          "internalType": "uint256",
          "name": "",
          "type": "uint256"
        }
      ],
      "name": "communityRewardRates",
      "outputs": [
        {
          "internalType": "uint256",
          "name": "",
          "type": "uint256"
        }
      ],
      "stateMutability": "view",
      "type": "function"
    },
    {
      "inputs": [
        {
          "internalType": "enum IUser.Level",
          "name": "_level",
          "type": "uint8"
        }
      ],
      "name": "communityRewardRatesNumByLevel",
      "outputs": [
        {
          "internalType": "uint256",
          "name": "",
          "type": "uint256"
        }
      ],
      "stateMutability": "view",
      "type": "function"
    },
    {
      "inputs": [
        {
          "internalType": "uint256",
          "name": "",
          "type": "uint256"
        }
      ],
      "name": "contributionRewardAmounts",
      "outputs": [
        {
          "internalType": "uint256",
          "name": "",
          "type": "uint256"
        }
      ],
      "stateMutability": "view",
      "type": "function"
    },
    {
      "inputs": [],
      "name": "contributionRewardAmountsNum",
      "outputs": [
        {
          "internalType": "uint256",
          "name": "",
          "type": "uint256"
        }
      ],
      "stateMutability": "view",
      "type": "function"
    },
    {
      "inputs": [],
      "name": "contributionRewardThreshold",
      "outputs": [
        {
          "internalType": "uint256",
          "name": "",
          "type": "uint256"
        }
      ],
      "stateMutability": "view",
      "type": "function"
    },
    {
      "inputs": [
        {
          "internalType": "uint256",
          "name": "",
          "type": "uint256"
        }
      ],
      "name": "directRequirements",
      "outputs": [
        {
          "internalType": "uint256",
          "name": "",
          "type": "uint256"
        }
      ],
      "stateMutability": "view",
      "type": "function"
    },
    {
      "inputs": [],
      "name": "directRequirementsNum",
      "outputs": [
        {
          "internalType": "uint256",
          "name": "",
          "type": "uint256"
        }
      ],
      "stateMutability": "view",
      "type": "function"
    },
    {
      "inputs": [],
      "name": "duration",
      "outputs": [
        {
          "internalType": "uint256",
          "name": "",
          "type": "uint256"
        }
      ],
      "stateMutability": "view",
      "type": "function"
    },
    {
      "inputs": [],
      "name": "earlyBirdInitCA",
      "outputs": [
        {
          "internalType": "uint256",
          "name": "",
          "type": "uint256"
        }
      ],
      "stateMutability": "view",
      "type": "function"
    },
    {
      "inputs": [],
      "name": "earlyBirdMintEnable",
      "outputs": [
        {
          "internalType": "bool",
          "name": "",
          "type": "bool"
        }
      ],
      "stateMutability": "view",
      "type": "function"
    },
    {
      "inputs": [],
      "name": "earlyBirdMintEndId",
      "outputs": [
        {
          "internalType": "uint256",
          "name": "",
          "type": "uint256"
        }
      ],
      "stateMutability": "view",
      "type": "function"
    },
    {
      "inputs": [],
      "name": "earlyBirdMintIdRange",
      "outputs": [
        {
          "internalType": "uint256",
          "name": "",
          "type": "uint256"
        },
        {
          "internalType": "uint256",
          "name": "",
          "type": "uint256"
        }
      ],
      "stateMutability": "view",
      "type": "function"
    },
    {
      "inputs": [],
      "name": "earlyBirdMintPayment",
      "outputs": [
        {
          "internalType": "address",
          "name": "",
          "type": "address"
        }
      ],
      "stateMutability": "view",
      "type": "function"
    },
    {
      "inputs": [],
      "name": "earlyBirdMintPrice",
      "outputs": [
        {
          "internalType": "address",
          "name": "",
          "type": "address"
        },
        {
          "internalType": "uint256",
          "name": "",
          "type": "uint256"
        }
      ],
      "stateMutability": "view",
      "type": "function"
    },
    {
      "inputs": [],
      "name": "earlyBirdMintPriceInPayment",
      "outputs": [
        {
          "internalType": "uint256",
          "name": "",
          "type": "uint256"
        }
      ],
      "stateMutability": "view",
      "type": "function"
    },
    {
      "inputs": [],
      "name": "earlyBirdMintStartId",
      "outputs": [
        {
          "internalType": "uint256",
          "name": "",
          "type": "uint256"
        }
      ],
      "stateMutability": "view",
      "type": "function"
    },
    {
      "inputs": [
        {
          "internalType": "address",
          "name": "",
          "type": "address"
        }
      ],
      "name": "earlyBirdMintWlOf",
      "outputs": [
        {
          "internalType": "bool",
          "name": "",
          "type": "bool"
        }
      ],
      "stateMutability": "view",
      "type": "function"
    },
    {
      "inputs": [
        {
          "internalType": "uint256",
          "name": "_nftId",
          "type": "uint256"
        }
      ],
      "name": "hasAchievementReward",
      "outputs": [
        {
          "internalType": "bool",
          "name": "",
          "type": "bool"
        }
      ],
      "stateMutability": "view",
      "type": "function"
    },
    {
      "inputs": [
        {
          "internalType": "address",
          "name": "_token",
          "type": "address"
        }
      ],
      "name": "isAcceptToken",
      "outputs": [
        {
          "internalType": "bool",
          "name": "",
          "type": "bool"
        }
      ],
      "stateMutability": "view",
      "type": "function"
    },
    {
      "inputs": [],
      "name": "maxInvitationLevel",
      "outputs": [
        {
          "internalType": "uint256",
          "name": "",
          "type": "uint256"
        }
      ],
      "stateMutability": "view",
      "type": "function"
    },
    {
      "inputs": [],
      "name": "maxMintPerDayPerAddress",
      "outputs": [
        {
          "internalType": "uint256",
          "name": "",
          "type": "uint256"
        }
      ],
      "stateMutability": "view",
      "type": "function"
    },
    {
      "inputs": [
        {
          "internalType": "uint256",
          "name": "_tokenId",
          "type": "uint256"
        }
      ],
      "name": "maxVAAddPerDayByTokenId",
      "outputs": [
        {
          "internalType": "uint256",
          "name": "",
          "type": "uint256"
        }
      ],
      "stateMutability": "view",
      "type": "function"
    },
    {
      "inputs": [],
      "name": "maxVAAddPerDayPerToken",
      "outputs": [
        {
          "internalType": "uint256",
          "name": "",
          "type": "uint256"
        }
      ],
      "stateMutability": "view",
      "type": "function"
    },
    {
      "inputs": [
        {
          "internalType": "uint256",
          "name": "",
          "type": "uint256"
        }
      ],
      "name": "maxVAAddPerDayPerTokens",
      "outputs": [
        {
          "internalType": "uint256",
          "name": "",
          "type": "uint256"
        }
      ],
      "stateMutability": "view",
      "type": "function"
    },
    {
      "inputs": [],
      "name": "maxVAAddPerDayPerTokensNum",
      "outputs": [
        {
          "internalType": "uint256",
          "name": "",
          "type": "uint256"
        }
      ],
      "stateMutability": "view",
      "type": "function"
    },
    {
      "inputs": [
        {
          "internalType": "uint256",
          "name": "",
          "type": "uint256"
        }
      ],
      "name": "mintPrices",
      "outputs": [
        {
          "internalType": "uint256",
          "name": "",
          "type": "uint256"
        }
      ],
      "stateMutability": "view",
      "type": "function"
    },
    {
      "inputs": [],
      "name": "mintPricesNum",
      "outputs": [
        {
          "internalType": "uint256",
          "name": "",
          "type": "uint256"
        }
      ],
      "stateMutability": "view",
      "type": "function"
    },
    {
      "inputs": [],
      "name": "operator",
      "outputs": [
        {
          "internalType": "address",
          "name": "",
          "type": "address"
        }
      ],
      "stateMutability": "view",
      "type": "function"
    },
    {
      "inputs": [],
      "name": "owner",
      "outputs": [
        {
          "internalType": "address",
          "name": "",
          "type": "address"
        }
      ],
      "stateMutability": "view",
      "type": "function"
    },
    {
      "inputs": [
        {
          "internalType": "uint256",
          "name": "_index",
          "type": "uint256"
        }
      ],
      "name": "packageByIndex",
      "outputs": [
        {
          "internalType": "uint256[]",
          "name": "",
          "type": "uint256[]"
        }
      ],
      "stateMutability": "view",
      "type": "function"
    },
    {
      "inputs": [],
      "name": "packageLength",
      "outputs": [
        {
          "internalType": "uint256",
          "name": "",
          "type": "uint256"
        }
      ],
      "stateMutability": "view",
      "type": "function"
    },
    {
      "inputs": [
        {
          "internalType": "uint256",
          "name": "",
          "type": "uint256"
        }
      ],
      "name": "performanceRequirements",
      "outputs": [
        {
          "internalType": "uint256",
          "name": "",
          "type": "uint256"
        }
      ],
      "stateMutability": "view",
      "type": "function"
    },
    {
      "inputs": [],
      "name": "performanceRequirementsNum",
      "outputs": [
        {
          "internalType": "uint256",
          "name": "",
          "type": "uint256"
        }
      ],
      "stateMutability": "view",
      "type": "function"
    },
    {
      "inputs": [],
      "name": "performanceThreshold",
      "outputs": [
        {
          "internalType": "uint256",
          "name": "",
          "type": "uint256"
        }
      ],
      "stateMutability": "view",
      "type": "function"
    },
    {
      "inputs": [
        {
          "internalType": "uint256",
          "name": "_index",
          "type": "uint256"
        }
      ],
      "name": "removeAcceptToken",
      "outputs": [],
      "stateMutability": "nonpayable",
      "type": "function"
    },
    {
      "inputs": [],
      "name": "renounceOwnership",
      "outputs": [],
      "stateMutability": "nonpayable",
      "type": "function"
    },
    {
      "inputs": [],
      "name": "rootAddress",
      "outputs": [
        {
          "internalType": "address",
          "name": "",
          "type": "address"
        }
      ],
      "stateMutability": "view",
      "type": "function"
    },
    {
      "inputs": [],
      "name": "sellingLevelLimit",
      "outputs": [
        {
          "internalType": "uint256",
          "name": "",
          "type": "uint256"
        }
      ],
      "stateMutability": "view",
      "type": "function"
    },
    {
      "inputs": [
        {
          "internalType": "uint256",
          "name": "",
          "type": "uint256"
        },
        {
          "internalType": "uint256",
          "name": "",
          "type": "uint256"
        }
      ],
      "name": "sellingPackages",
      "outputs": [
        {
          "internalType": "uint256",
          "name": "",
          "type": "uint256"
        }
      ],
      "stateMutability": "view",
      "type": "function"
    },
    {
      "inputs": [
        {
          "internalType": "address",
          "name": "_acceptToken",
          "type": "address"
        }
      ],
      "name": "setAcceptToken",
      "outputs": [],
      "stateMutability": "nonpayable",
      "type": "function"
    },
    {
      "inputs": [
        {
          "internalType": "uint256[]",
          "name": "_amounts",
          "type": "uint256[]"
        }
      ],
      "name": "setAchievementRewardAmounts",
      "outputs": [],
      "stateMutability": "nonpayable",
      "type": "function"
    },
    {
      "inputs": [
        {
          "internalType": "uint256",
          "name": "_achievementRewardDurationThreshold",
          "type": "uint256"
        }
      ],
      "name": "setAchievementRewardDurationThreshold",
      "outputs": [],
      "stateMutability": "nonpayable",
      "type": "function"
    },
    {
      "inputs": [
        {
          "internalType": "uint256",
          "name": "_achievementRewardLevelThreshold",
          "type": "uint256"
        }
      ],
      "name": "setAchievementRewardLevelThreshold",
      "outputs": [],
      "stateMutability": "nonpayable",
      "type": "function"
    },
    {
      "inputs": [
        {
          "internalType": "address[]",
          "name": "_addresses",
          "type": "address[]"
        }
      ],
      "name": "setAddresses",
      "outputs": [],
      "stateMutability": "nonpayable",
      "type": "function"
    },
    {
      "inputs": [
        {
          "internalType": "enum ILYNKNFT.Attribute",
          "name": "_attr",
          "type": "uint8"
        },
        {
          "internalType": "uint256[]",
          "name": "_thresholds",
          "type": "uint256[]"
        }
      ],
      "name": "setAttributeLevelThreshold",
      "outputs": [],
      "stateMutability": "nonpayable",
      "type": "function"
    },
    {
      "inputs": [
        {
          "internalType": "string",
          "name": "_baseTokenURI",
          "type": "string"
        }
      ],
      "name": "setBaseTokenURI",
      "outputs": [],
      "stateMutability": "nonpayable",
      "type": "function"
    },
    {
      "inputs": [
        {
          "internalType": "enum IUser.Level",
          "name": "_level",
          "type": "uint8"
        },
        {
          "internalType": "uint256[]",
          "name": "_rates",
          "type": "uint256[]"
        }
      ],
      "name": "setCommunityRewardRates",
      "outputs": [],
      "stateMutability": "nonpayable",
      "type": "function"
    },
    {
      "inputs": [
        {
          "internalType": "uint256[]",
          "name": "_amounts",
          "type": "uint256[]"
        }
      ],
      "name": "setContributionRewardAmounts",
      "outputs": [],
      "stateMutability": "nonpayable",
      "type": "function"
    },
    {
      "inputs": [
        {
          "internalType": "uint256",
          "name": "_contributionRewardThreshold",
          "type": "uint256"
        }
      ],
      "name": "setContributionRewardThreshold",
      "outputs": [],
      "stateMutability": "nonpayable",
      "type": "function"
    },
    {
      "inputs": [
        {
          "internalType": "uint256[]",
          "name": "_requirements",
          "type": "uint256[]"
        }
      ],
      "name": "setDirectRequirements",
      "outputs": [],
      "stateMutability": "nonpayable",
      "type": "function"
    },
    {
      "inputs": [
        {
          "internalType": "uint256",
          "name": "_duration",
          "type": "uint256"
        }
      ],
      "name": "setDuration",
      "outputs": [],
      "stateMutability": "nonpayable",
      "type": "function"
    },
    {
      "inputs": [
        {
          "internalType": "uint256",
          "name": "_earlyBirdInitCA",
          "type": "uint256"
        }
      ],
      "name": "setEarlyBirdInitCA",
      "outputs": [],
      "stateMutability": "nonpayable",
      "type": "function"
    },
    {
      "inputs": [
        {
          "internalType": "uint256",
          "name": "_earlyBirdMintStartId",
          "type": "uint256"
        },
        {
          "internalType": "uint256",
          "name": "_earlyBirdMintEndId",
          "type": "uint256"
        }
      ],
      "name": "setEarlyBirdMintIdRange",
      "outputs": [],
      "stateMutability": "nonpayable",
      "type": "function"
    },
    {
      "inputs": [
        {
          "internalType": "address",
          "name": "_earlyBirdMintPayment",
          "type": "address"
        },
        {
          "internalType": "uint256",
          "name": "_earlyBirdMintPriceInPayment",
          "type": "uint256"
        }
      ],
      "name": "setEarlyBirdMintPrice",
      "outputs": [],
      "stateMutability": "nonpayable",
      "type": "function"
    },
    {
      "inputs": [
        {
          "internalType": "uint256",
          "name": "_maxMintPerDayPerAddress",
          "type": "uint256"
        }
      ],
      "name": "setMaxMintPerDayPerAddress",
      "outputs": [],
      "stateMutability": "nonpayable",
      "type": "function"
    },
    {
      "inputs": [
        {
          "internalType": "uint256",
          "name": "_maxVAAddPerDayPerToken",
          "type": "uint256"
        }
      ],
      "name": "setMaxVAAddPerDayPerToken",
      "outputs": [],
      "stateMutability": "nonpayable",
      "type": "function"
    },
    {
      "inputs": [
        {
          "internalType": "uint256[]",
          "name": "_maxVAAddPerDayPerTokens",
          "type": "uint256[]"
        }
      ],
      "name": "setMaxVAAddPerDayPerTokens",
      "outputs": [],
      "stateMutability": "nonpayable",
      "type": "function"
    },
    {
      "inputs": [
        {
          "internalType": "uint256[]",
          "name": "_mintPrices",
          "type": "uint256[]"
        }
      ],
      "name": "setMintPrices",
      "outputs": [],
      "stateMutability": "nonpayable",
      "type": "function"
    },
    {
      "inputs": [
        {
          "internalType": "address",
          "name": "_operator",
          "type": "address"
        }
      ],
      "name": "setOperator",
      "outputs": [],
      "stateMutability": "nonpayable",
      "type": "function"
    },
    {
      "inputs": [
        {
          "internalType": "uint256[]",
          "name": "_requirements",
          "type": "uint256[]"
        }
      ],
      "name": "setPerformanceRequirements",
      "outputs": [],
      "stateMutability": "nonpayable",
      "type": "function"
    },
    {
      "inputs": [
        {
          "internalType": "uint256",
          "name": "_performanceThreshold",
          "type": "uint256"
        }
      ],
      "name": "setPerformanceThreshold",
      "outputs": [],
      "stateMutability": "nonpayable",
      "type": "function"
    },
    {
      "inputs": [
        {
          "internalType": "address",
          "name": "_rootAddress",
          "type": "address"
        }
      ],
      "name": "setRootAddress",
      "outputs": [],
      "stateMutability": "nonpayable",
      "type": "function"
    },
    {
      "inputs": [
        {
          "internalType": "uint256",
          "name": "_sellingLevelLimit",
          "type": "uint256"
        }
      ],
      "name": "setSellingLevelLimit",
      "outputs": [],
      "stateMutability": "nonpayable",
      "type": "function"
    },
    {
      "inputs": [
        {
          "internalType": "uint256[][]",
          "name": "_packages",
          "type": "uint256[][]"
        }
      ],
      "name": "setSellingPackage",
      "outputs": [],
      "stateMutability": "nonpayable",
      "type": "function"
    },
    {
      "inputs": [
        {
          "internalType": "uint256[]",
          "name": "_rates",
          "type": "uint256[]"
        }
      ],
      "name": "setSocialRewardRates",
      "outputs": [],
      "stateMutability": "nonpayable",
      "type": "function"
    },
    {
      "inputs": [
        {
          "internalType": "bool",
          "name": "_earlyBirdMintEnable",
          "type": "bool"
        },
        {
          "internalType": "bool",
          "name": "_commonMintEnable",
          "type": "bool"
        }
      ],
      "name": "setSwitch",
      "outputs": [],
      "stateMutability": "nonpayable",
      "type": "function"
    },
    {
      "inputs": [
        {
          "internalType": "uint256",
          "name": "_tradingFee",
          "type": "uint256"
        }
      ],
      "name": "setTradingFee",
      "outputs": [],
      "stateMutability": "nonpayable",
      "type": "function"
    },
    {
      "inputs": [
        {
          "internalType": "uint256",
          "name": "_wlNum",
          "type": "uint256"
        }
      ],
      "name": "setWlNum",
      "outputs": [],
      "stateMutability": "nonpayable",
      "type": "function"
    },
    {
      "inputs": [
        {
          "internalType": "address[]",
          "name": "_wls",
          "type": "address[]"
        }
      ],
      "name": "setWls",
      "outputs": [],
      "stateMutability": "nonpayable",
      "type": "function"
    },
    {
      "inputs": [
        {
          "internalType": "uint256",
          "name": "",
          "type": "uint256"
        }
      ],
      "name": "socialRewardRates",
      "outputs": [
        {
          "internalType": "uint256",
          "name": "",
          "type": "uint256"
        }
      ],
      "stateMutability": "view",
      "type": "function"
    },
    {
      "inputs": [],
      "name": "socialRewardRatesNum",
      "outputs": [
        {
          "internalType": "uint256",
          "name": "",
          "type": "uint256"
        }
      ],
      "stateMutability": "view",
      "type": "function"
    },
    {
      "inputs": [],
      "name": "tradingFee",
      "outputs": [
        {
          "internalType": "uint256",
          "name": "",
          "type": "uint256"
        }
      ],
      "stateMutability": "view",
      "type": "function"
    },
    {
      "inputs": [
        {
          "internalType": "address",
          "name": "newOwner",
          "type": "address"
        }
      ],
      "name": "transferOwnership",
      "outputs": [],
      "stateMutability": "nonpayable",
      "type": "function"
    },
    {
      "inputs": [],
      "name": "wlNum",
      "outputs": [
        {
          "internalType": "uint256",
          "name": "",
          "type": "uint256"
        }
      ],
      "stateMutability": "view",
      "type": "function"
    }
  ],
  "transactionHash": "0x039533b97e7807686a2707a999eb66c8ce20a6de602859b3a87e6e64721a3d29",
  "args": [
    "0x38B7CA6eD821bEf464Aa1BF080bf563efc0DEc1a"
  ],
  "numDeployments": 5,
  "solcInputHash": "f0ca49e637045362b64656e758dfb09e",
  "bytecode": "0x60a06040523480156200001157600080fd5b5060405162002f5b38038062002f5b833981016040819052620000349162000046565b6001600160a01b031660805262000078565b6000602082840312156200005957600080fd5b81516001600160a01b03811681146200007157600080fd5b9392505050565b608051612ec76200009460003960006108610152612ec76000f3fe608060405234801561001057600080fd5b50600436106105815760003560e01c80638136673f116102e5578063be1888111161018d578063d42ecfc0116100f4578063f046bded116100ad578063f6be71d111610087578063f6be71d114610c26578063fa1785fe14610c39578063fce3b86e14610c4c578063fd02f81f14610c5f57600080fd5b8063f046bded14610bf8578063f2fde38b14610c00578063f46f16c214610c1357600080fd5b8063d42ecfc014610b8a578063d547cfb714610b9d578063dfada98814610bb2578063e707379014610bc5578063ea0d146514610bd8578063ec214bbf14610be557600080fd5b8063c96928f711610146578063c96928f714610b21578063cd0a174a14610b34578063d09586ac14610b54578063d2110a0914610b5c578063d3f0f70d14610b64578063d3f42b7c14610b7757600080fd5b8063be18881114610ac1578063bf57840314610acc578063c2e30dd014610ad5578063c6c0891614610ae8578063c7650dd814610afb578063c8aca9d014610b0e57600080fd5b8063a5c158e31161024c578063b0d54bcf11610205578063b3a8f2a9116101df578063b3a8f2a914610a75578063b3ab15fb14610a88578063b589e51e14610a9b578063b957172114610aae57600080fd5b8063b0d54bcf14610a27578063b2cd99af14610a3a578063b35e1a0a14610a6257600080fd5b8063a5c158e3146109c9578063aaa2b8c8146109dc578063ab2c8653146109ef578063af4574c6146109f8578063af718c5514610a0b578063afe97ec114610a1e57600080fd5b806397610f301161029e57806397610f301461096157806399bcfdd3146109745780639ba544ed146109875780639d51193e1461099a5780639e77de27146109a3578063a4c15a13146109b657600080fd5b80638136673f146108fb5780638cd6ab811461090e5780638da5cb5b146109175780638edcde7d14610928578063950144331461093b578063965794561461094e57600080fd5b806354c1498d1161044857806366227eb9116103af57806377b2fb8e116103685780637a58a3f1116103425780637a58a3f11461088c5780637af0cac31461089f5780637af35899146108d55780637bbbdc2e146108e857600080fd5b806377b2fb8e1461085357806377b330c91461085c5780637811dddd1461088357600080fd5b806366227eb9146107ed578063663d2c4e146107ff5780636b81ffdb146108125780636fda065214610825578063705064fd14610838578063715018a61461084b57600080fd5b80635f7d59c4116104015780635f7d59c4146107a4578063600a2f82146107ad5780636187b33e146107b65780636241c200146107c957806362e6d38a146107d157806364db03b8146107e457600080fd5b806354c1498d1461072c57806356c15c391461074f57806356f4335214610762578063570ca7351461076b5780635b487d9c1461077e5780635ce58dd41461079157600080fd5b80633b87436b116104ec5780634b89f9f7116104a55780634b89f9f7146106cf5780634c09df04146106e25780634d678f29146106f55780634eb66e8314610708578063530009641461071157806354af93201461071957600080fd5b80633b87436b146106715780633d902c8014610684578063405a0aa81461069757806341d0992b146106a057806341e33d38146106b357806343e573b1146106bc57600080fd5b80632eed8a591161053e5780632eed8a591461060557806330176e13146106285780633256e7d41461063b578063331163ce146106435780633323ff8a1461064b57806334456ae11461065e57600080fd5b80630b00fd54146105865780630fb5a6b4146105b65780631451952b146105cd5780631b56c29c146105e25780631edd6e87146105f55780631faee868146105fd575b600080fd5b606d54610599906001600160a01b031681565b6040516001600160a01b0390911681526020015b60405180910390f35b6105bf60835481565b6040519081526020016105ad565b6105e06105db36600461286f565b610c67565b005b6105996105f0366004612891565b610d23565b6074546105bf565b6082546105bf565b61061861061336600461286f565b610d4d565b60405190151581526020016105ad565b6105e06106363660046128aa565b610db5565b607a546105bf565b606f546105bf565b6105e0610659366004612891565b610df0565b6105e061066c36600461291c565b610e1f565b606554610599906001600160a01b031681565b6105e061069236600461298b565b610ec5565b6105bf60885481565b6105e06106ae36600461298b565b610f07565b6105bf608a5481565b6105e06106ca36600461286f565b610f73565b6105e06106dd3660046129dc565b611045565b6105bf6106f0366004612891565b611225565b6105bf610703366004612a3e565b611246565b6105bf607d5481565b6078546105bf565b6105e061072736600461298b565b6112c7565b61061861073a36600461286f565b608d6020526000908152604090205460ff1681565b606b54610599906001600160a01b031681565b6105bf60765481565b606e54610599906001600160a01b031681565b606a54610599906001600160a01b031681565b6105e061079f36600461298b565b611329565b6105bf60735481565b6105bf60705481565b6105bf6107c4366004612891565b61141c565b6079546105bf565b6105bf6107df366004612891565b61142c565b6105bf60865481565b608b5461061890610100900460ff1681565b606954610599906001600160a01b031681565b6105e0610820366004612891565b611480565b6105bf610833366004612891565b6114af565b6105e0610846366004612891565b6114e7565b6105e06115d5565b6105bf607b5481565b6105997f000000000000000000000000000000000000000000000000000000000000000081565b6105bf60805481565b6105bf61089a366004612891565b6115e9565b6108b6608954608a546001600160a01b0390911691565b604080516001600160a01b0390931683526020830191909152016105ad565b6105e06108e336600461298b565b6115f9565b6105e06108f636600461298b565b611665565b6105bf610909366004612a5a565b611781565b6105bf60875481565b6033546001600160a01b0316610599565b6105bf610936366004612891565b6117be565b6105e0610949366004612a8a565b6117c9565b6105e061095c36600461298b565b611817565b606754610599906001600160a01b031681565b6105bf610982366004612891565b6118b3565b6105e0610995366004612891565b6118c3565b6105bf607f5481565b6105e06109b136600461298b565b6118f2565b6105e06109c4366004612a5a565b611954565b6105e06109d7366004612891565b6119d8565b607754610599906001600160a01b031681565b6105bf608c5481565b6105bf610a06366004612891565b611a07565b6105bf610a19366004612a5a565b611a17565b6105bf60755481565b6105e0610a35366004612891565b611a27565b610a4d610a48366004612ac3565b611aa7565b604080519283526020830191909152016105ad565b6105e0610a70366004612891565b611ac0565b6105e0610a83366004612891565b611aef565b6105e0610a9636600461286f565b611b1e565b6105e0610aa936600461298b565b611b48565b6105e0610abc36600461298b565b611baa565b608754608854610a4d565b6105bf60855481565b606654610599906001600160a01b031681565b6105e0610af6366004612891565b611be2565b6105e0610b0936600461298b565b611c11565b6105bf610b1c366004612a5a565b611cee565b6105e0610b2f366004612891565b611d0a565b610b47610b42366004612891565b611d39565b6040516105ad9190612adf565b6084546105bf565b607c546105bf565b610618610b72366004612891565b611e00565b6105bf610b85366004612891565b611e16565b6105e0610b98366004612891565b611e26565b610ba5611e55565b6040516105ad9190612b23565b608954610599906001600160a01b031681565b6105e0610bd3366004612b78565b611ee3565b608b546106189060ff1681565b6105bf610bf3366004612b96565b611f6c565b6072546105bf565b6105e0610c0e36600461286f565b611f9b565b606c54610599906001600160a01b031681565b6105e0610c34366004612891565b612011565b606854610599906001600160a01b031681565b6105bf610c5a366004612891565b612040565b6081546105bf565b606e546001600160a01b03163314610c9a5760405162461bcd60e51b8152600401610c9190612bb1565b60405180910390fd5b6001600160a01b038116610d015760405162461bcd60e51b815260206004820152602860248201527f4442436f6e74726163743a20726f6f742063616e6e6f74206265207a65726f2060448201526730b2323932b9b99760c11b6064820152608401610c91565b607780546001600160a01b0319166001600160a01b0392909216919091179055565b60748181548110610d3357600080fd5b6000918252602090912001546001600160a01b0316905081565b607454600090815b81811015610dab5760748181548110610d7057610d70612bf7565b6000918252602090912001546001600160a01b0385811691161415610d99575060019392505050565b80610da381612c23565b915050610d55565b5060009392505050565b606e546001600160a01b03163314610ddf5760405162461bcd60e51b8152600401610c9190612bb1565b610deb60718383612727565b505050565b606e546001600160a01b03163314610e1a5760405162461bcd60e51b8152600401610c9190612bb1565b608655565b606e546001600160a01b03163314610e495760405162461bcd60e51b8152600401610c9190612bb1565b6001600160a01b038216610e9f5760405162461bcd60e51b815260206004820181905260248201527f4442436f6e74726163743a207061796d656e742063616e6e6f7420626520302e6044820152606401610c91565b608980546001600160a01b0319166001600160a01b039390931692909217909155608a55565b606e546001600160a01b03163314610eef5760405162461bcd60e51b8152600401610c9190612bb1565b610efb608460006127ab565b610deb608483836127c9565b606e546001600160a01b03163314610f315760405162461bcd60e51b8152600401610c9190612bb1565b610f3d60056001612c54565b8114610f5b5760405162461bcd60e51b8152600401610c9190612c6c565b610f67607c60006127ab565b610deb607c83836127c9565b606e546001600160a01b03163314610f9d5760405162461bcd60e51b8152600401610c9190612bb1565b60745460005b81811015610ff45760748181548110610fbe57610fbe612bf7565b6000918252602090912001546001600160a01b0384811691161415610fe257505050565b80610fec81612c23565b915050610fa3565b5050607480546001810182556000919091527f19a0b39aa25ac793b5f6e9a0534364cc0b3fd1ea9b651e79c7f50a59d48ef8130180546001600160a01b0319166001600160a01b0383161790555b50565b606e546001600160a01b0316331461106f5760405162461bcd60e51b8152600401610c9190612bb1565b60725483600381111561108457611084612c3e565b11156110a25760405162461bcd60e51b8152600401610c9190612c6c565b60005b8181101561114f57801561113d5782826110c0600184612ca3565b8181106110cf576110cf612bf7565b905060200201358383838181106110e8576110e8612bf7565b90506020020135101561113d5760405162461bcd60e51b815260206004820152601f60248201527f4442436f6e74726163743a20696e76616c6964207468726573686f6c64732e006044820152606401610c91565b8061114781612c23565b9150506110a5565b5082600381111561116257611162612c3e565b60725414156111ae57607280546001810182556000919091526111a8907fdffbd64cc7c1a7eb27984335d9416d51137a03d3fabec7141025c62663253fe10183836127c9565b50505050565b60728360038111156111c2576111c2612c3e565b815481106111d2576111d2612bf7565b9060005260206000200160006111e891906127ab565b818160728560038111156111fe576111fe612c3e565b8154811061120e5761120e612bf7565b9060005260206000200191906111a89291906127c9565b6084818154811061123557600080fd5b600091825260209091200154905081565b600081607e600085600581111561125f5761125f612c3e565b815260208101919091526040016000205411156112bd57607e600084600581111561128c5761128c612c3e565b815260200190815260200160002082815481106112ab576112ab612bf7565b906000526020600020015490506112c1565b5060005b92915050565b606e546001600160a01b031633146112f15760405162461bcd60e51b8152600401610c9190612bb1565b600581146113115760405162461bcd60e51b8152600401610c9190612c6c565b61131d607960006127ab565b610deb607983836127c9565b606e546001600160a01b031633146113535760405162461bcd60e51b8152600401610c9190612bb1565b61135f60056001612c54565b811461137d5760405162461bcd60e51b8152600401610c9190612c6c565b611389607a60006127ab565b60005b8181101561140f57670de0b6b3a76400008383838181106113af576113af612bf7565b9050602002013511156113fd5760405162461bcd60e51b8152602060048201526016602482015275222121b7b73a3930b1ba1d103a37b7903630b933b29760511b6044820152606401610c91565b8061140781612c23565b91505061138c565b50610deb607a83836127c9565b606f818154811061123557600080fd5b60008061143883612050565b60845490915061144a90600190612ca3565b81111561145a5750600092915050565b6084818154811061146d5761146d612bf7565b9060005260206000200154915050919050565b606e546001600160a01b031633146114aa5760405162461bcd60e51b8152600401610c9190612bb1565b607b55565b60725460009082106114c25760006112c1565b607282815481106114d5576114d5612bf7565b60009182526020909120015492915050565b606e546001600160a01b031633146115115760405162461bcd60e51b8152600401610c9190612bb1565b60745461151f600182612ca3565b82101561159e576074611533600183612ca3565b8154811061154357611543612bf7565b600091825260209091200154607480546001600160a01b03909216918490811061156f5761156f612bf7565b9060005260206000200160006101000a8154816001600160a01b0302191690836001600160a01b031602179055505b60748054806115af576115af612cba565b600082815260209020810160001990810180546001600160a01b03191690550190555050565b6115dd61221a565b6115e76000612274565b565b607a818154811061123557600080fd5b606e546001600160a01b031633146116235760405162461bcd60e51b8152600401610c9190612bb1565b61162f60056001612c54565b811461164d5760405162461bcd60e51b8152600401610c9190612c6c565b611659608160006127ab565b610deb608183836127c9565b600054610100900460ff16158080156116855750600054600160ff909116105b8061169f5750303b15801561169f575060005460ff166001145b6117025760405162461bcd60e51b815260206004820152602e60248201527f496e697469616c697a61626c653a20636f6e747261637420697320616c72656160448201526d191e481a5b9a5d1a585b1a5e995960921b6064820152608401610c91565b6000805460ff191660011790558015611725576000805461ff0019166101001790555b61172f8383611bd4565b6117376122c6565b8015610deb576000805461ff0019169055604051600181527f7f26b83ff96e1f2b6a682f133852f6798a09c465da95921460cefb38474024989060200160405180910390a1505050565b6072828154811061179157600080fd5b9060005260206000200181815481106117a957600080fd5b90600052602060002001600091509150505481565b60006112c182612050565b606e546001600160a01b031633146117f35760405162461bcd60e51b8152600401610c9190612bb1565b608b805461ffff191692151561ff0019169290921761010091151591909102179055565b606e546001600160a01b031633146118415760405162461bcd60e51b8152600401610c9190612bb1565b60005b81811015610deb576001608d600085858581811061186457611864612bf7565b9050602002016020810190611879919061286f565b6001600160a01b031681526020810191909152604001600020805460ff1916911515919091179055806118ab81612c23565b915050611844565b6078818154811061123557600080fd5b606e546001600160a01b031633146118ed5760405162461bcd60e51b8152600401610c9190612bb1565b607f55565b606e546001600160a01b0316331461191c5760405162461bcd60e51b8152600401610c9190612bb1565b6005811461193c5760405162461bcd60e51b8152600401610c9190612c6c565b611948607860006127ab565b610deb607883836127c9565b606e546001600160a01b0316331461197e5760405162461bcd60e51b8152600401610c9190612bb1565b8181116119cd5760405162461bcd60e51b815260206004820152601d60248201527f4442436f6e74726163743a20696e76616c69642069642072616e67652e0000006044820152606401610c91565b608791909155608855565b606e546001600160a01b03163314611a025760405162461bcd60e51b8152600401610c9190612bb1565b607555565b6081818154811061123557600080fd5b6082828154811061179157600080fd5b606e546001600160a01b03163314611a515760405162461bcd60e51b8152600401610c9190612bb1565b670de0b6b3a7640000811115611aa25760405162461bcd60e51b8152602060048201526016602482015275222121b7b73a3930b1ba1d103a37b7903630b933b29760511b6044820152606401610c91565b607655565b600080611ab484846122f5565b915091505b9250929050565b606e546001600160a01b03163314611aea5760405162461bcd60e51b8152600401610c9190612bb1565b608555565b606e546001600160a01b03163314611b195760405162461bcd60e51b8152600401610c9190612bb1565b607055565b611b2661221a565b606e80546001600160a01b0319166001600160a01b0392909216919091179055565b606e546001600160a01b03163314611b725760405162461bcd60e51b8152600401610c9190612bb1565b60038114611b925760405162461bcd60e51b8152600401610c9190612c6c565b611b9e606f60006127ab565b610deb606f83836127c9565b606e546001600160a01b03163314611bd45760405162461bcd60e51b8152600401610c9190612bb1565b611bde828261240c565b5050565b606e546001600160a01b03163314611c0c5760405162461bcd60e51b8152600401610c9190612bb1565b607355565b606e546001600160a01b03163314611c3b5760405162461bcd60e51b8152600401610c9190612bb1565b611c4760826000612803565b60005b81811015610deb57828282818110611c6457611c64612bf7565b9050602002810190611c769190612cd0565b9050600314611c975760405162461bcd60e51b8152600401610c9190612c6c565b6082838383818110611cab57611cab612bf7565b9050602002810190611cbd9190612cd0565b825460018101845560009384526020909320611cdb930191906127c9565b5080611ce681612c23565b915050611c4a565b607e60205281600052604060002081815481106117a957600080fd5b606e546001600160a01b03163314611d345760405162461bcd60e51b8152600401610c9190612bb1565b608c55565b6082546060908210611d8d5760405162461bcd60e51b815260206004820181905260248201527f4442436f6e74726163743a20696e646578206f7574206f6620626f756e64732e6044820152606401610c91565b60828281548110611da057611da0612bf7565b90600052602060002001805480602002602001604051908101604052809291908181526020018280548015611df457602002820191906000526020600020905b815481526020019060010190808311611de0575b50505050509050919050565b6000607f54611e0e83612050565b101592915050565b6079818154811061123557600080fd5b606e546001600160a01b03163314611e505760405162461bcd60e51b8152600401610c9190612bb1565b608055565b60718054611e6290612d1a565b80601f0160208091040260200160405190810160405280929190818152602001828054611e8e90612d1a565b8015611edb5780601f10611eb057610100808354040283529160200191611edb565b820191906000526020600020905b815481529060010190602001808311611ebe57829003601f168201915b505050505081565b606e546001600160a01b03163314611f0d5760405162461bcd60e51b8152600401610c9190612bb1565b6000836005811115611f2157611f21612c3e565b6000818152607e60205260408120919250611f3c91906127ab565b607d54821115611f4c57607d8290555b6000818152607e60205260409020611f659084846127c9565b5050505050565b6000607e6000836005811115611f8457611f84612c3e565b815260208101919091526040016000205492915050565b611fa361221a565b6001600160a01b0381166120085760405162461bcd60e51b815260206004820152602660248201527f4f776e61626c653a206e6577206f776e657220697320746865207a65726f206160448201526564647265737360d01b6064820152608401610c91565b61104281612274565b606e546001600160a01b0316331461203b5760405162461bcd60e51b8152600401610c9190612bb1565b608355565b607c818154811061123557600080fd5b606954604051634f558e7960e01b8152600481018390526000916001600160a01b031690634f558e799060240160206040518083038186803b15801561209557600080fd5b505afa1580156120a9573d6000803e3d6000fd5b505050506040513d601f19601f820116820180604052508101906120cd9190612d55565b6121195760405162461bcd60e51b815260206004820152601d60248201527f4442436f6e74726163743a20696e76616c696420746f6b656e2049442e0000006044820152606401610c91565b60695460405163373bf3af60e21b8152600481018490526000916001600160a01b03169063dcefcebc9060240160006040518083038186803b15801561215e57600080fd5b505afa158015612172573d6000803e3d6000fd5b505050506040513d6000823e601f3d908101601f1916820160405261219a9190810190612d88565b905060005b6121ab60036001612c54565b8110156122135760006121e88260038111156121c9576121c9612c3e565b8484815181106121db576121db612bf7565b60200260200101516122f5565b5090508115806121f757508381105b15612200578093505b508061220b81612c23565b91505061219f565b5050919050565b6033546001600160a01b031633146115e75760405162461bcd60e51b815260206004820181905260248201527f4f776e61626c653a2063616c6c6572206973206e6f7420746865206f776e65726044820152606401610c91565b603380546001600160a01b038381166001600160a01b0319831681179093556040519116919082907f8be0079c531659141344cd1fd0a4f28419497f9722a3daafe3b4186f6b6457e090600090a35050565b600054610100900460ff166122ed5760405162461bcd60e51b8152600401610c9190612e46565b6115e76126f7565b60008181607285600381111561230d5761230d612c3e565b8154811061231d5761231d612bf7565b600091825260208220015491505b8181101561240357607286600381111561234757612347612c3e565b8154811061235757612357612bf7565b90600052602060002001818154811061237257612372612bf7565b906000526020600020015485106123ec5761238e816001612c54565b935060728660038111156123a4576123a4612c3e565b815481106123b4576123b4612bf7565b9060005260206000200181815481106123cf576123cf612bf7565b9060005260206000200154856123e59190612ca3565b92506123f1565b612403565b806123fb81612c23565b91505061232b565b50509250929050565b6009811461246b5760405162461bcd60e51b815260206004820152602660248201527f4442436f6e74726163743a20616464726573736573206c656e677468206d697360448201526536b0ba31b41760d11b6064820152608401610c91565b8181600081811061247e5761247e612bf7565b9050602002016020810190612493919061286f565b606580546001600160a01b0319166001600160a01b0392909216919091179055818160018181106124c6576124c6612bf7565b90506020020160208101906124db919061286f565b606680546001600160a01b0319166001600160a01b03929092169190911790558181600281811061250e5761250e612bf7565b9050602002016020810190612523919061286f565b606780546001600160a01b0319166001600160a01b03929092169190911790558181600381811061255657612556612bf7565b905060200201602081019061256b919061286f565b606980546001600160a01b0319166001600160a01b03929092169190911790558181600481811061259e5761259e612bf7565b90506020020160208101906125b3919061286f565b606a80546001600160a01b0319166001600160a01b0392909216919091179055818160058181106125e6576125e6612bf7565b90506020020160208101906125fb919061286f565b606b80546001600160a01b0319166001600160a01b03929092169190911790558181600681811061262e5761262e612bf7565b9050602002016020810190612643919061286f565b606c80546001600160a01b0319166001600160a01b03929092169190911790558181600781811061267657612676612bf7565b905060200201602081019061268b919061286f565b606880546001600160a01b0319166001600160a01b0392909216919091179055818160088181106126be576126be612bf7565b90506020020160208101906126d3919061286f565b606d80546001600160a01b0319166001600160a01b03929092169190911790555050565b600054610100900460ff1661271e5760405162461bcd60e51b8152600401610c9190612e46565b6115e733612274565b82805461273390612d1a565b90600052602060002090601f016020900481019282612755576000855561279b565b82601f1061276e5782800160ff1982351617855561279b565b8280016001018555821561279b579182015b8281111561279b578235825591602001919060010190612780565b506127a7929150612821565b5090565b50805460008255906000526020600020908101906110429190612821565b82805482825590600052602060002090810192821561279b579160200282018281111561279b578235825591602001919060010190612780565b50805460008255906000526020600020908101906110429190612836565b5b808211156127a75760008155600101612822565b808211156127a757600061284a82826127ab565b50600101612836565b80356001600160a01b038116811461286a57600080fd5b919050565b60006020828403121561288157600080fd5b61288a82612853565b9392505050565b6000602082840312156128a357600080fd5b5035919050565b600080602083850312156128bd57600080fd5b823567ffffffffffffffff808211156128d557600080fd5b818501915085601f8301126128e957600080fd5b8135818111156128f857600080fd5b86602082850101111561290a57600080fd5b60209290920196919550909350505050565b6000806040838503121561292f57600080fd5b61293883612853565b946020939093013593505050565b60008083601f84011261295857600080fd5b50813567ffffffffffffffff81111561297057600080fd5b6020830191508360208260051b8501011115611ab957600080fd5b6000806020838503121561299e57600080fd5b823567ffffffffffffffff8111156129b557600080fd5b6129c185828601612946565b90969095509350505050565b80356004811061286a57600080fd5b6000806000604084860312156129f157600080fd5b6129fa846129cd565b9250602084013567ffffffffffffffff811115612a1657600080fd5b612a2286828701612946565b9497909650939450505050565b80356006811061286a57600080fd5b60008060408385031215612a5157600080fd5b61293883612a2f565b60008060408385031215612a6d57600080fd5b50508035926020909101359150565b801515811461104257600080fd5b60008060408385031215612a9d57600080fd5b8235612aa881612a7c565b91506020830135612ab881612a7c565b809150509250929050565b60008060408385031215612ad657600080fd5b612938836129cd565b6020808252825182820181905260009190848201906040850190845b81811015612b1757835183529284019291840191600101612afb565b50909695505050505050565b600060208083528351808285015260005b81811015612b5057858101830151858201604001528201612b34565b81811115612b62576000604083870101525b50601f01601f1916929092016040019392505050565b600080600060408486031215612b8d57600080fd5b6129fa84612a2f565b600060208284031215612ba857600080fd5b61288a82612a2f565b60208082526026908201527f4442436f6e74726163743a2063616c6c6572206973206e6f7420746865206f7060408201526532b930ba37b960d11b606082015260800190565b634e487b7160e01b600052603260045260246000fd5b634e487b7160e01b600052601160045260246000fd5b6000600019821415612c3757612c37612c0d565b5060010190565b634e487b7160e01b600052602160045260246000fd5b60008219821115612c6757612c67612c0d565b500190565b6020808252601c908201527f4442436f6e74726163743a206c656e677468206d69736d617463682e00000000604082015260600190565b600082821015612cb557612cb5612c0d565b500390565b634e487b7160e01b600052603160045260246000fd5b6000808335601e19843603018112612ce757600080fd5b83018035915067ffffffffffffffff821115612d0257600080fd5b6020019150600581901b3603821315611ab957600080fd5b600181811c90821680612d2e57607f821691505b60208210811415612d4f57634e487b7160e01b600052602260045260246000fd5b50919050565b600060208284031215612d6757600080fd5b815161288a81612a7c565b634e487b7160e01b600052604160045260246000fd5b60006020808385031215612d9b57600080fd5b825167ffffffffffffffff80821115612db357600080fd5b818501915085601f830112612dc757600080fd5b815181811115612dd957612dd9612d72565b8060051b604051601f19603f83011681018181108582111715612dfe57612dfe612d72565b604052918252848201925083810185019188831115612e1c57600080fd5b938501935b82851015612e3a57845184529385019392850192612e21565b98975050505050505050565b6020808252602b908201527f496e697469616c697a61626c653a20636f6e7472616374206973206e6f74206960408201526a6e697469616c697a696e6760a81b60608201526080019056fea264697066735822122058962f1beea25ed634297c524b35c3c218b66bf5b791890ea3a363e5b02b048064736f6c63430008090033",
  "devdoc": {
    "kind": "dev",
    "methods": {
      "owner()": {
        "details": "Returns the address of the current owner."
      },
      "renounceOwnership()": {
        "details": "Leaves the contract without owner. It will not be possible to call `onlyOwner` functions anymore. Can only be called by the current owner. NOTE: Renouncing ownership will leave the contract without an owner, thereby removing any functionality that is only available to the owner."
      },
      "transferOwnership(address)": {
        "details": "Transfers ownership of the contract to a new account (`newOwner`). Can only be called by the current owner."
      }
    },
    "version": 1
  },
  "userdoc": {
    "kind": "user",
    "methods": {
      "setAttributeLevelThreshold(uint8,uint256[])": {
        "notice": "CA: [100, 500, 1000 ... ]"
      }
    },
    "version": 1
  },
  "storageLayout": {
    "storage": [
      {
        "astId": 138,
        "contract": "contracts/DBContract.sol:DBContract",
        "label": "_initialized",
        "offset": 0,
        "slot": "0",
        "type": "t_uint8"
      },
      {
        "astId": 141,
        "contract": "contracts/DBContract.sol:DBContract",
        "label": "_initializing",
        "offset": 1,
        "slot": "0",
        "type": "t_bool"
      },
      {
        "astId": 3230,
        "contract": "contracts/DBContract.sol:DBContract",
        "label": "__gap",
        "offset": 0,
        "slot": "1",
        "type": "t_array(t_uint256)50_storage"
      },
      {
        "astId": 10,
        "contract": "contracts/DBContract.sol:DBContract",
        "label": "_owner",
        "offset": 0,
        "slot": "51",
        "type": "t_address"
      },
      {
        "astId": 130,
        "contract": "contracts/DBContract.sol:DBContract",
        "label": "__gap",
        "offset": 0,
        "slot": "52",
        "type": "t_array(t_uint256)49_storage"
      },
      {
        "astId": 6827,
        "contract": "contracts/DBContract.sol:DBContract",
        "label": "LYNK_TOKEN",
        "offset": 0,
        "slot": "101",
        "type": "t_address"
      },
      {
        "astId": 6829,
        "contract": "contracts/DBContract.sol:DBContract",
        "label": "AP_TOKEN",
        "offset": 0,
        "slot": "102",
        "type": "t_address"
      },
      {
        "astId": 6831,
        "contract": "contracts/DBContract.sol:DBContract",
        "label": "STAKING",
        "offset": 0,
        "slot": "103",
        "type": "t_address"
      },
      {
        "astId": 6833,
        "contract": "contracts/DBContract.sol:DBContract",
        "label": "USER_INFO",
        "offset": 0,
        "slot": "104",
        "type": "t_address"
      },
      {
        "astId": 6835,
        "contract": "contracts/DBContract.sol:DBContract",
        "label": "LYNKNFT",
        "offset": 0,
        "slot": "105",
        "type": "t_address"
      },
      {
        "astId": 6837,
        "contract": "contracts/DBContract.sol:DBContract",
        "label": "STAKING_LYNKNFT",
        "offset": 0,
        "slot": "106",
        "type": "t_address"
      },
      {
        "astId": 6839,
        "contract": "contracts/DBContract.sol:DBContract",
        "label": "LISTED_LYNKNFT",
        "offset": 0,
        "slot": "107",
        "type": "t_address"
      },
      {
        "astId": 6841,
        "contract": "contracts/DBContract.sol:DBContract",
        "label": "MARKET",
        "offset": 0,
        "slot": "108",
        "type": "t_address"
      },
      {
        "astId": 6843,
        "contract": "contracts/DBContract.sol:DBContract",
        "label": "TEAM_ADDR",
        "offset": 0,
        "slot": "109",
        "type": "t_address"
      },
      {
        "astId": 6845,
        "contract": "contracts/DBContract.sol:DBContract",
        "label": "operator",
        "offset": 0,
        "slot": "110",
        "type": "t_address"
      },
      {
        "astId": 6848,
        "contract": "contracts/DBContract.sol:DBContract",
        "label": "mintPrices",
        "offset": 0,
        "slot": "111",
        "type": "t_array(t_uint256)dyn_storage"
      },
      {
        "astId": 6850,
        "contract": "contracts/DBContract.sol:DBContract",
        "label": "maxMintPerDayPerAddress",
        "offset": 0,
        "slot": "112",
        "type": "t_uint256"
      },
      {
        "astId": 6852,
        "contract": "contracts/DBContract.sol:DBContract",
        "label": "baseTokenURI",
        "offset": 0,
        "slot": "113",
        "type": "t_string_storage"
      },
      {
        "astId": 6856,
        "contract": "contracts/DBContract.sol:DBContract",
        "label": "attributeLevelThreshold",
        "offset": 0,
        "slot": "114",
        "type": "t_array(t_array(t_uint256)dyn_storage)dyn_storage"
      },
      {
        "astId": 6858,
        "contract": "contracts/DBContract.sol:DBContract",
        "label": "maxVAAddPerDayPerToken",
        "offset": 0,
        "slot": "115",
        "type": "t_uint256"
      },
      {
        "astId": 6861,
        "contract": "contracts/DBContract.sol:DBContract",
        "label": "acceptTokens",
        "offset": 0,
        "slot": "116",
        "type": "t_array(t_address)dyn_storage"
      },
      {
        "astId": 6863,
        "contract": "contracts/DBContract.sol:DBContract",
        "label": "sellingLevelLimit",
        "offset": 0,
        "slot": "117",
        "type": "t_uint256"
      },
      {
        "astId": 6865,
        "contract": "contracts/DBContract.sol:DBContract",
        "label": "tradingFee",
        "offset": 0,
        "slot": "118",
        "type": "t_uint256"
      },
      {
        "astId": 6867,
        "contract": "contracts/DBContract.sol:DBContract",
        "label": "rootAddress",
        "offset": 0,
        "slot": "119",
        "type": "t_address"
      },
      {
        "astId": 6870,
        "contract": "contracts/DBContract.sol:DBContract",
        "label": "directRequirements",
        "offset": 0,
        "slot": "120",
        "type": "t_array(t_uint256)dyn_storage"
      },
      {
        "astId": 6873,
        "contract": "contracts/DBContract.sol:DBContract",
        "label": "performanceRequirements",
        "offset": 0,
        "slot": "121",
        "type": "t_array(t_uint256)dyn_storage"
      },
      {
        "astId": 6876,
        "contract": "contracts/DBContract.sol:DBContract",
        "label": "socialRewardRates",
        "offset": 0,
        "slot": "122",
        "type": "t_array(t_uint256)dyn_storage"
      },
      {
        "astId": 6878,
        "contract": "contracts/DBContract.sol:DBContract",
        "label": "contributionRewardThreshold",
        "offset": 0,
        "slot": "123",
        "type": "t_uint256"
      },
      {
        "astId": 6881,
        "contract": "contracts/DBContract.sol:DBContract",
        "label": "contributionRewardAmounts",
        "offset": 0,
        "slot": "124",
        "type": "t_array(t_uint256)dyn_storage"
      },
      {
        "astId": 6883,
        "contract": "contracts/DBContract.sol:DBContract",
        "label": "maxInvitationLevel",
        "offset": 0,
        "slot": "125",
        "type": "t_uint256"
      },
      {
        "astId": 6888,
        "contract": "contracts/DBContract.sol:DBContract",
        "label": "communityRewardRates",
        "offset": 0,
        "slot": "126",
        "type": "t_mapping(t_uint256,t_array(t_uint256)dyn_storage)"
      },
      {
        "astId": 6890,
        "contract": "contracts/DBContract.sol:DBContract",
        "label": "achievementRewardLevelThreshold",
        "offset": 0,
        "slot": "127",
        "type": "t_uint256"
      },
      {
        "astId": 6892,
        "contract": "contracts/DBContract.sol:DBContract",
        "label": "achievementRewardDurationThreshold",
        "offset": 0,
        "slot": "128",
        "type": "t_uint256"
      },
      {
        "astId": 6895,
        "contract": "contracts/DBContract.sol:DBContract",
        "label": "achievementRewardAmounts",
        "offset": 0,
        "slot": "129",
        "type": "t_array(t_uint256)dyn_storage"
      },
      {
        "astId": 6899,
        "contract": "contracts/DBContract.sol:DBContract",
        "label": "sellingPackages",
        "offset": 0,
        "slot": "130",
        "type": "t_array(t_array(t_uint256)dyn_storage)dyn_storage"
      },
      {
        "astId": 6901,
        "contract": "contracts/DBContract.sol:DBContract",
        "label": "duration",
        "offset": 0,
        "slot": "131",
        "type": "t_uint256"
      },
      {
        "astId": 6904,
        "contract": "contracts/DBContract.sol:DBContract",
        "label": "maxVAAddPerDayPerTokens",
        "offset": 0,
        "slot": "132",
        "type": "t_array(t_uint256)dyn_storage"
      },
      {
        "astId": 6906,
        "contract": "contracts/DBContract.sol:DBContract",
        "label": "performanceThreshold",
        "offset": 0,
        "slot": "133",
        "type": "t_uint256"
      },
      {
        "astId": 6908,
        "contract": "contracts/DBContract.sol:DBContract",
        "label": "earlyBirdInitCA",
        "offset": 0,
        "slot": "134",
        "type": "t_uint256"
      },
      {
        "astId": 6910,
        "contract": "contracts/DBContract.sol:DBContract",
        "label": "earlyBirdMintStartId",
        "offset": 0,
        "slot": "135",
        "type": "t_uint256"
      },
      {
        "astId": 6912,
        "contract": "contracts/DBContract.sol:DBContract",
        "label": "earlyBirdMintEndId",
        "offset": 0,
        "slot": "136",
        "type": "t_uint256"
      },
      {
        "astId": 6914,
        "contract": "contracts/DBContract.sol:DBContract",
        "label": "earlyBirdMintPayment",
        "offset": 0,
        "slot": "137",
        "type": "t_address"
      },
      {
        "astId": 6916,
        "contract": "contracts/DBContract.sol:DBContract",
        "label": "earlyBirdMintPriceInPayment",
        "offset": 0,
        "slot": "138",
        "type": "t_uint256"
      },
      {
        "astId": 6918,
        "contract": "contracts/DBContract.sol:DBContract",
        "label": "earlyBirdMintEnable",
        "offset": 0,
        "slot": "139",
        "type": "t_bool"
      },
      {
        "astId": 6920,
        "contract": "contracts/DBContract.sol:DBContract",
        "label": "commonMintEnable",
        "offset": 1,
        "slot": "139",
        "type": "t_bool"
      },
      {
        "astId": 6922,
        "contract": "contracts/DBContract.sol:DBContract",
        "label": "wlNum",
        "offset": 0,
        "slot": "140",
        "type": "t_uint256"
      },
      {
        "astId": 6926,
        "contract": "contracts/DBContract.sol:DBContract",
        "label": "earlyBirdMintWlOf",
        "offset": 0,
        "slot": "141",
        "type": "t_mapping(t_address,t_bool)"
      }
    ],
    "types": {
      "t_address": {
        "encoding": "inplace",
        "label": "address",
        "numberOfBytes": "20"
      },
      "t_array(t_address)dyn_storage": {
        "base": "t_address",
        "encoding": "dynamic_array",
        "label": "address[]",
        "numberOfBytes": "32"
      },
      "t_array(t_array(t_uint256)dyn_storage)dyn_storage": {
        "base": "t_array(t_uint256)dyn_storage",
        "encoding": "dynamic_array",
        "label": "uint256[][]",
        "numberOfBytes": "32"
      },
      "t_array(t_uint256)49_storage": {
        "base": "t_uint256",
        "encoding": "inplace",
        "label": "uint256[49]",
        "numberOfBytes": "1568"
      },
      "t_array(t_uint256)50_storage": {
        "base": "t_uint256",
        "encoding": "inplace",
        "label": "uint256[50]",
        "numberOfBytes": "1600"
      },
      "t_array(t_uint256)dyn_storage": {
        "base": "t_uint256",
        "encoding": "dynamic_array",
        "label": "uint256[]",
        "numberOfBytes": "32"
      },
      "t_bool": {
        "encoding": "inplace",
        "label": "bool",
        "numberOfBytes": "1"
      },
      "t_mapping(t_address,t_bool)": {
        "encoding": "mapping",
        "key": "t_address",
        "label": "mapping(address => bool)",
        "numberOfBytes": "32",
        "value": "t_bool"
      },
      "t_mapping(t_uint256,t_array(t_uint256)dyn_storage)": {
        "encoding": "mapping",
        "key": "t_uint256",
        "label": "mapping(uint256 => uint256[])",
        "numberOfBytes": "32",
        "value": "t_array(t_uint256)dyn_storage"
      },
      "t_string_storage": {
        "encoding": "bytes",
        "label": "string",
        "numberOfBytes": "32"
      },
      "t_uint256": {
        "encoding": "inplace",
        "label": "uint256",
        "numberOfBytes": "32"
      },
      "t_uint8": {
        "encoding": "inplace",
        "label": "uint8",
        "numberOfBytes": "1"
      }
    }
  }
}