{
  "address": "0xAbCB04723AA75B4B5C3671df4F60EA31C462Ff81",
  "abi": [
    {
      "inputs": [
        {
          "internalType": "address",
          "name": "_usdtToken",
          "type": "address"
        }
      ],
      "stateMutability": "nonpayable",
      "type": "constructor"
    },
    {
      "anonymous": false,
      "inputs": [
        {
          "indexed": false,
          "internalType": "uint8",
          "name": "version",
          "type": "uint8"
        }
      ],
      "name": "Initialized",
      "type": "event"
    },
    {
      "anonymous": false,
      "inputs": [
        {
          "indexed": true,
          "internalType": "address",
          "name": "previousOwner",
          "type": "address"
        },
        {
          "indexed": true,
          "internalType": "address",
          "name": "newOwner",
          "type": "address"
        }
      ],
      "name": "OwnershipTransferred",
      "type": "event"
    },
    {
      "inputs": [],
      "name": "AP_TOKEN",
      "outputs": [
        {
          "internalType": "address",
          "name": "",
          "type": "address"
        }
      ],
      "stateMutability": "view",
      "type": "function"
    },
    {
      "inputs": [],
      "name": "LISTED_LYNKNFT",
      "outputs": [
        {
          "internalType": "address",
          "name": "",
          "type": "address"
        }
      ],
      "stateMutability": "view",
      "type": "function"
    },
    {
      "inputs": [],
      "name": "LYNKNFT",
      "outputs": [
        {
          "internalType": "address",
          "name": "",
          "type": "address"
        }
      ],
      "stateMutability": "view",
      "type": "function"
    },
    {
      "inputs": [],
      "name": "LYNK_TOKEN",
      "outputs": [
        {
          "internalType": "address",
          "name": "",
          "type": "address"
        }
      ],
      "stateMutability": "view",
      "type": "function"
    },
    {
      "inputs": [],
      "name": "MARKET",
      "outputs": [
        {
          "internalType": "address",
          "name": "",
          "type": "address"
        }
      ],
      "stateMutability": "view",
      "type": "function"
    },
    {
      "inputs": [],
      "name": "STAKING",
      "outputs": [
        {
          "internalType": "address",
          "name": "",
          "type": "address"
        }
      ],
      "stateMutability": "view",
      "type": "function"
    },
    {
      "inputs": [],
      "name": "STAKING_LYNKNFT",
      "outputs": [
        {
          "internalType": "address",
          "name": "",
          "type": "address"
        }
      ],
      "stateMutability": "view",
      "type": "function"
    },
    {
      "inputs": [],
      "name": "TEAM_ADDR",
      "outputs": [
        {
          "internalType": "address",
          "name": "",
          "type": "address"
        }
      ],
      "stateMutability": "view",
      "type": "function"
    },
    {
      "inputs": [],
      "name": "USDT_TOKEN",
      "outputs": [
        {
          "internalType": "address",
          "name": "",
          "type": "address"
        }
      ],
      "stateMutability": "view",
      "type": "function"
    },
    {
      "inputs": [],
      "name": "USER_INFO",
      "outputs": [
        {
          "internalType": "address",
          "name": "",
          "type": "address"
        }
      ],
      "stateMutability": "view",
      "type": "function"
    },
    {
      "inputs": [
        {
          "internalType": "address[]",
          "name": "_addresses",
          "type": "address[]"
        }
      ],
      "name": "__DBContract_init",
      "outputs": [],
      "stateMutability": "nonpayable",
      "type": "function"
    },
    {
      "inputs": [],
      "name": "acceptTokenLength",
      "outputs": [
        {
          "internalType": "uint256",
          "name": "",
          "type": "uint256"
        }
      ],
      "stateMutability": "view",
      "type": "function"
    },
    {
      "inputs": [
        {
          "internalType": "uint256",
          "name": "",
          "type": "uint256"
        }
      ],
      "name": "acceptTokens",
      "outputs": [
        {
          "internalType": "address",
          "name": "",
          "type": "address"
        }
      ],
      "stateMutability": "view",
      "type": "function"
    },
    {
      "inputs": [
        {
          "internalType": "uint256",
          "name": "",
          "type": "uint256"
        }
      ],
      "name": "achievementRewardAmounts",
      "outputs": [
        {
          "internalType": "uint256",
          "name": "",
          "type": "uint256"
        }
      ],
      "stateMutability": "view",
      "type": "function"
    },
    {
      "inputs": [],
      "name": "achievementRewardAmountsNum",
      "outputs": [
        {
          "internalType": "uint256",
          "name": "",
          "type": "uint256"
        }
      ],
      "stateMutability": "view",
      "type": "function"
    },
    {
      "inputs": [],
      "name": "achievementRewardDurationThreshold",
      "outputs": [
        {
          "internalType": "uint256",
          "name": "",
          "type": "uint256"
        }
      ],
      "stateMutability": "view",
      "type": "function"
    },
    {
      "inputs": [],
      "name": "achievementRewardLevelThreshold",
      "outputs": [
        {
          "internalType": "uint256",
          "name": "",
          "type": "uint256"
        }
      ],
      "stateMutability": "view",
      "type": "function"
    },
    {
      "inputs": [
        {
          "internalType": "uint256",
          "name": "",
          "type": "uint256"
        },
        {
          "internalType": "uint256",
          "name": "",
          "type": "uint256"
        }
      ],
      "name": "attributeLevelThreshold",
      "outputs": [
        {
          "internalType": "uint256",
          "name": "",
          "type": "uint256"
        }
      ],
      "stateMutability": "view",
      "type": "function"
    },
    {
      "inputs": [],
      "name": "attributeLevelThresholdNum",
      "outputs": [
        {
          "internalType": "uint256",
          "name": "",
          "type": "uint256"
        }
      ],
      "stateMutability": "view",
      "type": "function"
    },
    {
      "inputs": [
        {
          "internalType": "uint256",
          "name": "index",
          "type": "uint256"
        }
      ],
      "name": "attributeLevelThresholdNumByIndex",
      "outputs": [
        {
          "internalType": "uint256",
          "name": "",
          "type": "uint256"
        }
      ],
      "stateMutability": "view",
      "type": "function"
    },
    {
      "inputs": [],
      "name": "baseTokenURI",
      "outputs": [
        {
          "internalType": "string",
          "name": "",
          "type": "string"
        }
      ],
      "stateMutability": "view",
      "type": "function"
    },
    {
      "inputs": [
        {
          "internalType": "enum ILYNKNFT.Attribute",
          "name": "_attr",
          "type": "uint8"
        },
        {
          "internalType": "uint256",
          "name": "_point",
          "type": "uint256"
        }
      ],
      "name": "calcLevel",
      "outputs": [
        {
          "internalType": "uint256",
          "name": "level",
          "type": "uint256"
        },
        {
          "internalType": "uint256",
          "name": "overflow",
          "type": "uint256"
        }
      ],
      "stateMutability": "view",
      "type": "function"
    },
    {
      "inputs": [
        {
          "internalType": "uint256",
          "name": "_tokenId",
          "type": "uint256"
        }
      ],
      "name": "calcTokenLevel",
      "outputs": [
        {
          "internalType": "uint256",
          "name": "level",
          "type": "uint256"
        }
      ],
      "stateMutability": "view",
      "type": "function"
    },
    {
      "inputs": [
        {
          "internalType": "enum IUser.Level",
          "name": "_level",
          "type": "uint8"
        },
        {
          "internalType": "uint256",
          "name": "_invitationLevel",
          "type": "uint256"
        }
      ],
      "name": "communityRewardRate",
      "outputs": [
        {
          "internalType": "uint256",
          "name": "",
          "type": "uint256"
        }
      ],
      "stateMutability": "view",
      "type": "function"
    },
    {
      "inputs": [
        {
          "internalType": "uint256",
          "name": "",
          "type": "uint256"
        },
        {
          "internalType": "uint256",
          "name": "",
          "type": "uint256"
        }
      ],
      "name": "communityRewardRates",
      "outputs": [
        {
          "internalType": "uint256",
          "name": "",
          "type": "uint256"
        }
      ],
      "stateMutability": "view",
      "type": "function"
    },
    {
      "inputs": [
        {
          "internalType": "enum IUser.Level",
          "name": "_level",
          "type": "uint8"
        }
      ],
      "name": "communityRewardRatesNumByLevel",
      "outputs": [
        {
          "internalType": "uint256",
          "name": "",
          "type": "uint256"
        }
      ],
      "stateMutability": "view",
      "type": "function"
    },
    {
      "inputs": [
        {
          "internalType": "uint256",
          "name": "",
          "type": "uint256"
        }
      ],
      "name": "contributionRewardAmounts",
      "outputs": [
        {
          "internalType": "uint256",
          "name": "",
          "type": "uint256"
        }
      ],
      "stateMutability": "view",
      "type": "function"
    },
    {
      "inputs": [],
      "name": "contributionRewardAmountsNum",
      "outputs": [
        {
          "internalType": "uint256",
          "name": "",
          "type": "uint256"
        }
      ],
      "stateMutability": "view",
      "type": "function"
    },
    {
      "inputs": [],
      "name": "contributionRewardThreshold",
      "outputs": [
        {
          "internalType": "uint256",
          "name": "",
          "type": "uint256"
        }
      ],
      "stateMutability": "view",
      "type": "function"
    },
    {
      "inputs": [
        {
          "internalType": "uint256",
          "name": "",
          "type": "uint256"
        }
      ],
      "name": "directRequirements",
      "outputs": [
        {
          "internalType": "uint256",
          "name": "",
          "type": "uint256"
        }
      ],
      "stateMutability": "view",
      "type": "function"
    },
    {
      "inputs": [],
      "name": "directRequirementsNum",
      "outputs": [
        {
          "internalType": "uint256",
          "name": "",
          "type": "uint256"
        }
      ],
      "stateMutability": "view",
      "type": "function"
    },
    {
      "inputs": [
        {
          "internalType": "uint256",
          "name": "_nftId",
          "type": "uint256"
        }
      ],
      "name": "hasAchievementReward",
      "outputs": [
        {
          "internalType": "bool",
          "name": "",
          "type": "bool"
        }
      ],
      "stateMutability": "view",
      "type": "function"
    },
    {
      "inputs": [
        {
          "internalType": "address",
          "name": "_token",
          "type": "address"
        }
      ],
      "name": "isAcceptToken",
      "outputs": [
        {
          "internalType": "bool",
          "name": "",
          "type": "bool"
        }
      ],
      "stateMutability": "view",
      "type": "function"
    },
    {
      "inputs": [],
      "name": "maxInvitationLevel",
      "outputs": [
        {
          "internalType": "uint256",
          "name": "",
          "type": "uint256"
        }
      ],
      "stateMutability": "view",
      "type": "function"
    },
    {
      "inputs": [],
      "name": "maxMintPerDayPerAddress",
      "outputs": [
        {
          "internalType": "uint256",
          "name": "",
          "type": "uint256"
        }
      ],
      "stateMutability": "view",
      "type": "function"
    },
    {
      "inputs": [],
      "name": "maxVAAddPerDayPerToken",
      "outputs": [
        {
          "internalType": "uint256",
          "name": "",
          "type": "uint256"
        }
      ],
      "stateMutability": "view",
      "type": "function"
    },
    {
      "inputs": [
        {
          "internalType": "uint256",
          "name": "",
          "type": "uint256"
        }
      ],
      "name": "mintPrices",
      "outputs": [
        {
          "internalType": "uint256",
          "name": "",
          "type": "uint256"
        }
      ],
      "stateMutability": "view",
      "type": "function"
    },
    {
      "inputs": [],
      "name": "mintPricesNum",
      "outputs": [
        {
          "internalType": "uint256",
          "name": "",
          "type": "uint256"
        }
      ],
      "stateMutability": "view",
      "type": "function"
    },
    {
      "inputs": [],
      "name": "operator",
      "outputs": [
        {
          "internalType": "address",
          "name": "",
          "type": "address"
        }
      ],
      "stateMutability": "view",
      "type": "function"
    },
    {
      "inputs": [],
      "name": "owner",
      "outputs": [
        {
          "internalType": "address",
          "name": "",
          "type": "address"
        }
      ],
      "stateMutability": "view",
      "type": "function"
    },
    {
      "inputs": [
        {
          "internalType": "uint256",
          "name": "_index",
          "type": "uint256"
        }
      ],
      "name": "packageByIndex",
      "outputs": [
        {
          "internalType": "uint256[]",
          "name": "",
          "type": "uint256[]"
        }
      ],
      "stateMutability": "view",
      "type": "function"
    },
    {
      "inputs": [],
      "name": "packageLength",
      "outputs": [
        {
          "internalType": "uint256",
          "name": "",
          "type": "uint256"
        }
      ],
      "stateMutability": "view",
      "type": "function"
    },
    {
      "inputs": [
        {
          "internalType": "uint256",
          "name": "",
          "type": "uint256"
        }
      ],
      "name": "performanceRequirements",
      "outputs": [
        {
          "internalType": "uint256",
          "name": "",
          "type": "uint256"
        }
      ],
      "stateMutability": "view",
      "type": "function"
    },
    {
      "inputs": [],
      "name": "performanceRequirementsNum",
      "outputs": [
        {
          "internalType": "uint256",
          "name": "",
          "type": "uint256"
        }
      ],
      "stateMutability": "view",
      "type": "function"
    },
    {
      "inputs": [
        {
          "internalType": "uint256",
          "name": "_index",
          "type": "uint256"
        }
      ],
      "name": "removeAcceptToken",
      "outputs": [],
      "stateMutability": "nonpayable",
      "type": "function"
    },
    {
      "inputs": [],
      "name": "renounceOwnership",
      "outputs": [],
      "stateMutability": "nonpayable",
      "type": "function"
    },
    {
      "inputs": [],
      "name": "rootAddress",
      "outputs": [
        {
          "internalType": "address",
          "name": "",
          "type": "address"
        }
      ],
      "stateMutability": "view",
      "type": "function"
    },
    {
      "inputs": [],
      "name": "sellingLevelLimit",
      "outputs": [
        {
          "internalType": "uint256",
          "name": "",
          "type": "uint256"
        }
      ],
      "stateMutability": "view",
      "type": "function"
    },
    {
      "inputs": [
        {
          "internalType": "uint256",
          "name": "",
          "type": "uint256"
        },
        {
          "internalType": "uint256",
          "name": "",
          "type": "uint256"
        }
      ],
      "name": "sellingPackages",
      "outputs": [
        {
          "internalType": "uint256",
          "name": "",
          "type": "uint256"
        }
      ],
      "stateMutability": "view",
      "type": "function"
    },
    {
      "inputs": [
        {
          "internalType": "address",
          "name": "_acceptToken",
          "type": "address"
        }
      ],
      "name": "setAcceptToken",
      "outputs": [],
      "stateMutability": "nonpayable",
      "type": "function"
    },
    {
      "inputs": [
        {
          "internalType": "uint256[]",
          "name": "_amounts",
          "type": "uint256[]"
        }
      ],
      "name": "setAchievementRewardAmounts",
      "outputs": [],
      "stateMutability": "nonpayable",
      "type": "function"
    },
    {
      "inputs": [
        {
          "internalType": "uint256",
          "name": "_achievementRewardDurationThreshold",
          "type": "uint256"
        }
      ],
      "name": "setAchievementRewardDurationThreshold",
      "outputs": [],
      "stateMutability": "nonpayable",
      "type": "function"
    },
    {
      "inputs": [
        {
          "internalType": "uint256",
          "name": "_achievementRewardLevelThreshold",
          "type": "uint256"
        }
      ],
      "name": "setAchievementRewardLevelThreshold",
      "outputs": [],
      "stateMutability": "nonpayable",
      "type": "function"
    },
    {
      "inputs": [
        {
          "internalType": "address[]",
          "name": "_addresses",
          "type": "address[]"
        }
      ],
      "name": "setAddresses",
      "outputs": [],
      "stateMutability": "nonpayable",
      "type": "function"
    },
    {
      "inputs": [
        {
          "internalType": "enum ILYNKNFT.Attribute",
          "name": "_attr",
          "type": "uint8"
        },
        {
          "internalType": "uint256[]",
          "name": "_thresholds",
          "type": "uint256[]"
        }
      ],
      "name": "setAttributeLevelThreshold",
      "outputs": [],
      "stateMutability": "nonpayable",
      "type": "function"
    },
    {
      "inputs": [
        {
          "internalType": "string",
          "name": "_baseTokenURI",
          "type": "string"
        }
      ],
      "name": "setBaseTokenURI",
      "outputs": [],
      "stateMutability": "nonpayable",
      "type": "function"
    },
    {
      "inputs": [
        {
          "internalType": "enum IUser.Level",
          "name": "_level",
          "type": "uint8"
        },
        {
          "internalType": "uint256[]",
          "name": "_rates",
          "type": "uint256[]"
        }
      ],
      "name": "setCommunityRewardRates",
      "outputs": [],
      "stateMutability": "nonpayable",
      "type": "function"
    },
    {
      "inputs": [
        {
          "internalType": "uint256[]",
          "name": "_amounts",
          "type": "uint256[]"
        }
      ],
      "name": "setContributionRewardAmounts",
      "outputs": [],
      "stateMutability": "nonpayable",
      "type": "function"
    },
    {
      "inputs": [
        {
          "internalType": "uint256",
          "name": "_contributionRewardThreshold",
          "type": "uint256"
        }
      ],
      "name": "setContributionRewardThreshold",
      "outputs": [],
      "stateMutability": "nonpayable",
      "type": "function"
    },
    {
      "inputs": [
        {
          "internalType": "uint256[]",
          "name": "_requirements",
          "type": "uint256[]"
        }
      ],
      "name": "setDirectRequirements",
      "outputs": [],
      "stateMutability": "nonpayable",
      "type": "function"
    },
    {
      "inputs": [
        {
          "internalType": "uint256",
          "name": "_maxMintPerDayPerAddress",
          "type": "uint256"
        }
      ],
      "name": "setMaxMintPerDayPerAddress",
      "outputs": [],
      "stateMutability": "nonpayable",
      "type": "function"
    },
    {
      "inputs": [
        {
          "internalType": "uint256",
          "name": "_maxVAAddPerDayPerToken",
          "type": "uint256"
        }
      ],
      "name": "setMaxVAAddPerDayPerToken",
      "outputs": [],
      "stateMutability": "nonpayable",
      "type": "function"
    },
    {
      "inputs": [
        {
          "internalType": "uint256[]",
          "name": "_mintPrices",
          "type": "uint256[]"
        }
      ],
      "name": "setMintPrices",
      "outputs": [],
      "stateMutability": "nonpayable",
      "type": "function"
    },
    {
      "inputs": [
        {
          "internalType": "address",
          "name": "_operator",
          "type": "address"
        }
      ],
      "name": "setOperator",
      "outputs": [],
      "stateMutability": "nonpayable",
      "type": "function"
    },
    {
      "inputs": [
        {
          "internalType": "uint256[]",
          "name": "_requirements",
          "type": "uint256[]"
        }
      ],
      "name": "setPerformanceRequirements",
      "outputs": [],
      "stateMutability": "nonpayable",
      "type": "function"
    },
    {
      "inputs": [
        {
          "internalType": "address",
          "name": "_rootAddress",
          "type": "address"
        }
      ],
      "name": "setRootAddress",
      "outputs": [],
      "stateMutability": "nonpayable",
      "type": "function"
    },
    {
      "inputs": [
        {
          "internalType": "uint256",
          "name": "_sellingLevelLimit",
          "type": "uint256"
        }
      ],
      "name": "setSellingLevelLimit",
      "outputs": [],
      "stateMutability": "nonpayable",
      "type": "function"
    },
    {
      "inputs": [
        {
          "internalType": "uint256[][]",
          "name": "_packages",
          "type": "uint256[][]"
        }
      ],
      "name": "setSellingPackage",
      "outputs": [],
      "stateMutability": "nonpayable",
      "type": "function"
    },
    {
      "inputs": [
        {
          "internalType": "uint256[]",
          "name": "_rates",
          "type": "uint256[]"
        }
      ],
      "name": "setSocialRewardRates",
      "outputs": [],
      "stateMutability": "nonpayable",
      "type": "function"
    },
    {
      "inputs": [
        {
          "internalType": "uint256",
          "name": "_tradingFee",
          "type": "uint256"
        }
      ],
      "name": "setTradingFee",
      "outputs": [],
      "stateMutability": "nonpayable",
      "type": "function"
    },
    {
      "inputs": [
        {
          "internalType": "uint256",
          "name": "",
          "type": "uint256"
        }
      ],
      "name": "socialRewardRates",
      "outputs": [
        {
          "internalType": "uint256",
          "name": "",
          "type": "uint256"
        }
      ],
      "stateMutability": "view",
      "type": "function"
    },
    {
      "inputs": [],
      "name": "socialRewardRatesNum",
      "outputs": [
        {
          "internalType": "uint256",
          "name": "",
          "type": "uint256"
        }
      ],
      "stateMutability": "view",
      "type": "function"
    },
    {
      "inputs": [],
      "name": "tradingFee",
      "outputs": [
        {
          "internalType": "uint256",
          "name": "",
          "type": "uint256"
        }
      ],
      "stateMutability": "view",
      "type": "function"
    },
    {
      "inputs": [
        {
          "internalType": "address",
          "name": "newOwner",
          "type": "address"
        }
      ],
      "name": "transferOwnership",
      "outputs": [],
      "stateMutability": "nonpayable",
      "type": "function"
    }
  ],
  "transactionHash": "0x57d729dcdd5e10bd96ff2ee1b4ed44c836bc176d3fa9bd81b4974939be641864",
  "args": [
    "0x38B7CA6eD821bEf464Aa1BF080bf563efc0DEc1a"
  ],
  "numDeployments": 1,
  "solcInputHash": "a363fdfb76e9fd2d5b1cc718891ba595",
  "bytecode": "0x60a06040523480156200001157600080fd5b506040516200288938038062002889833981016040819052620000349162000046565b6001600160a01b031660805262000078565b6000602082840312156200005957600080fd5b81516001600160a01b03811681146200007157600080fd5b9392505050565b6080516127f562000094600039600061066201526127f56000f3fe608060405234801561001057600080fd5b506004361061043e5760003560e01c80638136673f11610236578063b95717211161013b578063d42ecfc0116100c3578063f2fde38b11610087578063f2fde38b1461091e578063f46f16c214610931578063fa1785fe14610944578063fce3b86e14610957578063fd02f81f1461096a57600080fd5b8063d42ecfc0146108c8578063d547cfb7146108db578063e7073790146108f0578063ec214bbf14610903578063f046bded1461091657600080fd5b8063c8aca9d01161010a578063c8aca9d014610867578063cd0a174a1461087a578063d2110a091461089a578063d3f0f70d146108a2578063d3f42b7c146108b557600080fd5b8063b95717211461081b578063c2e30dd01461082e578063c6c0891614610841578063c7650dd81461085457600080fd5b8063aaa2b8c8116101be578063b0d54bcf1161018d578063b0d54bcf146107a7578063b2cd99af146107ba578063b3a8f2a9146107e2578063b3ab15fb146107f5578063b589e51e1461080857600080fd5b8063aaa2b8c814610765578063af4574c614610778578063af718c551461078b578063afe97ec11461079e57600080fd5b806399bcfdd31161020557806399bcfdd3146107105780639ba544ed146107235780639d51193e146107365780639e77de271461073f578063a5c158e31461075257600080fd5b80638136673f146106c65780638da5cb5b146106d95780638edcde7d146106ea57806397610f30146106fd57600080fd5b806356f43352116103475780636b81ffdb116102cf57806377b330c91161029357806377b330c91461065d5780637811dddd146106845780637a58a3f11461068d5780637af35899146106a05780637bbbdc2e146106b357600080fd5b80636b81ffdb146106135780636fda065214610626578063705064fd14610639578063715018a61461064c57806377b2fb8e1461065457600080fd5b80635f7d59c4116103165780635f7d59c4146105d3578063600a2f82146105dc5780636187b33e146105e55780636241c200146105f8578063663d2c4e1461060057600080fd5b806356f4335214610591578063570ca7351461059a5780635b487d9c146105ad5780635ce58dd4146105c057600080fd5b80633b87436b116103ca5780634d678f29116103995780634d678f29146105475780634eb66e831461055a578063530009641461056357806354af93201461056b57806356c15c391461057e57600080fd5b80633b87436b146104fb57806341d0992b1461050e57806343e573b1146105215780634b89f9f71461053457600080fd5b80631faee868116104115780631faee868146104ad5780632eed8a59146104b557806330176e13146104d85780633256e7d4146104eb578063331163ce146104f357600080fd5b80630b00fd54146104435780631451952b146104735780631b56c29c146104885780631edd6e871461049b575b600080fd5b606d54610456906001600160a01b031681565b6040516001600160a01b0390911681526020015b60405180910390f35b6104866104813660046121e8565b610972565b005b610456610496366004612218565b610a2e565b6074545b60405190815260200161046a565b60825461049f565b6104c86104c33660046121e8565b610a58565b604051901515815260200161046a565b6104866104e6366004612231565b610ac0565b607a5461049f565b606f5461049f565b606554610456906001600160a01b031681565b61048661051c3660046122e8565b610afb565b61048661052f3660046121e8565b610b67565b61048661054236600461233e565b610c39565b61049f6105553660046123a0565b610e19565b61049f607d5481565b60785461049f565b6104866105793660046122e8565b610e9a565b606b54610456906001600160a01b031681565b61049f60765481565b606e54610456906001600160a01b031681565b606a54610456906001600160a01b031681565b6104866105ce3660046122e8565b610efc565b61049f60735481565b61049f60705481565b61049f6105f3366004612218565b610fef565b60795461049f565b606954610456906001600160a01b031681565b610486610621366004612218565b611010565b61049f610634366004612218565b61103f565b610486610647366004612218565b611077565b610486611165565b61049f607b5481565b6104567f000000000000000000000000000000000000000000000000000000000000000081565b61049f60805481565b61049f61069b366004612218565b611179565b6104866106ae3660046122e8565b611189565b6104866106c13660046122e8565b6111f5565b61049f6106d43660046123ca565b611311565b6033546001600160a01b0316610456565b61049f6106f8366004612218565b61134e565b606754610456906001600160a01b031681565b61049f61071e366004612218565b611359565b610486610731366004612218565b611369565b61049f607f5481565b61048661074d3660046122e8565b611398565b610486610760366004612218565b6113fa565b607754610456906001600160a01b031681565b61049f610786366004612218565b611429565b61049f6107993660046123ca565b611439565b61049f60755481565b6104866107b5366004612218565b611449565b6107cd6107c83660046123ec565b6114c9565b6040805192835260208301919091520161046a565b6104866107f0366004612218565b6114e2565b6104866108033660046121e8565b611511565b6104866108163660046122e8565b61153b565b6104866108293660046122e8565b61159d565b606654610456906001600160a01b031681565b61048661084f366004612218565b6115d5565b6104866108623660046122e8565b611604565b61049f6108753660046123ca565b6116e1565b61088d610888366004612218565b6116fd565b60405161046a9190612408565b607c5461049f565b6104c86108b0366004612218565b6117c4565b61049f6108c3366004612218565b6117da565b6104866108d6366004612218565b6117ea565b6108e3611819565b60405161046a919061244c565b6104866108fe3660046124a1565b6118a7565b61049f6109113660046124bf565b611930565b60725461049f565b61048661092c3660046121e8565b61195f565b606c54610456906001600160a01b031681565b606854610456906001600160a01b031681565b61049f610965366004612218565b6119d5565b60815461049f565b606e546001600160a01b031633146109a55760405162461bcd60e51b815260040161099c906124da565b60405180910390fd5b6001600160a01b038116610a0c5760405162461bcd60e51b815260206004820152602860248201527f4442436f6e74726163743a20726f6f742063616e6e6f74206265207a65726f2060448201526730b2323932b9b99760c11b606482015260840161099c565b607780546001600160a01b0319166001600160a01b0392909216919091179055565b60748181548110610a3e57600080fd5b6000918252602090912001546001600160a01b0316905081565b607454600090815b81811015610ab65760748181548110610a7b57610a7b612520565b6000918252602090912001546001600160a01b0385811691161415610aa4575060019392505050565b80610aae8161254c565b915050610a60565b5060009392505050565b606e546001600160a01b03163314610aea5760405162461bcd60e51b815260040161099c906124da565b610af6607183836120bc565b505050565b606e546001600160a01b03163314610b255760405162461bcd60e51b815260040161099c906124da565b610b316005600161257d565b8114610b4f5760405162461bcd60e51b815260040161099c90612595565b610b5b607c6000612140565b610af6607c838361215e565b606e546001600160a01b03163314610b915760405162461bcd60e51b815260040161099c906124da565b60745460005b81811015610be85760748181548110610bb257610bb2612520565b6000918252602090912001546001600160a01b0384811691161415610bd657505050565b80610be08161254c565b915050610b97565b5050607480546001810182556000919091527f19a0b39aa25ac793b5f6e9a0534364cc0b3fd1ea9b651e79c7f50a59d48ef8130180546001600160a01b0319166001600160a01b0383161790555b50565b606e546001600160a01b03163314610c635760405162461bcd60e51b815260040161099c906124da565b607254836003811115610c7857610c78612567565b1115610c965760405162461bcd60e51b815260040161099c90612595565b60005b81811015610d43578015610d31578282610cb46001846125cc565b818110610cc357610cc3612520565b90506020020135838383818110610cdc57610cdc612520565b905060200201351015610d315760405162461bcd60e51b815260206004820152601f60248201527f4442436f6e74726163743a20696e76616c6964207468726573686f6c64732e00604482015260640161099c565b80610d3b8161254c565b915050610c99565b50826003811115610d5657610d56612567565b6072541415610da25760728054600181018255600091909152610d9c907fdffbd64cc7c1a7eb27984335d9416d51137a03d3fabec7141025c62663253fe101838361215e565b50505050565b6072836003811115610db657610db6612567565b81548110610dc657610dc6612520565b906000526020600020016000610ddc9190612140565b81816072856003811115610df257610df2612567565b81548110610e0257610e02612520565b906000526020600020019190610d9c92919061215e565b600081607e6000856005811115610e3257610e32612567565b81526020810191909152604001600020541115610e9057607e6000846005811115610e5f57610e5f612567565b81526020019081526020016000208281548110610e7e57610e7e612520565b90600052602060002001549050610e94565b5060005b92915050565b606e546001600160a01b03163314610ec45760405162461bcd60e51b815260040161099c906124da565b60058114610ee45760405162461bcd60e51b815260040161099c90612595565b610ef060796000612140565b610af66079838361215e565b606e546001600160a01b03163314610f265760405162461bcd60e51b815260040161099c906124da565b610f326005600161257d565b8114610f505760405162461bcd60e51b815260040161099c90612595565b610f5c607a6000612140565b60005b81811015610fe257670de0b6b3a7640000838383818110610f8257610f82612520565b905060200201351115610fd05760405162461bcd60e51b8152602060048201526016602482015275222121b7b73a3930b1ba1d103a37b7903630b933b29760511b604482015260640161099c565b80610fda8161254c565b915050610f5f565b50610af6607a838361215e565b606f8181548110610fff57600080fd5b600091825260209091200154905081565b606e546001600160a01b0316331461103a5760405162461bcd60e51b815260040161099c906124da565b607b55565b6072546000908210611052576000610e94565b6072828154811061106557611065612520565b60009182526020909120015492915050565b606e546001600160a01b031633146110a15760405162461bcd60e51b815260040161099c906124da565b6074546110af6001826125cc565b82101561112e5760746110c36001836125cc565b815481106110d3576110d3612520565b600091825260209091200154607480546001600160a01b0390921691849081106110ff576110ff612520565b9060005260206000200160006101000a8154816001600160a01b0302191690836001600160a01b031602179055505b607480548061113f5761113f6125e3565b600082815260209020810160001990810180546001600160a01b03191690550190555050565b61116d6119e5565b6111776000611a3f565b565b607a8181548110610fff57600080fd5b606e546001600160a01b031633146111b35760405162461bcd60e51b815260040161099c906124da565b6111bf6005600161257d565b81146111dd5760405162461bcd60e51b815260040161099c90612595565b6111e960816000612140565b610af66081838361215e565b600054610100900460ff16158080156112155750600054600160ff909116105b8061122f5750303b15801561122f575060005460ff166001145b6112925760405162461bcd60e51b815260206004820152602e60248201527f496e697469616c697a61626c653a20636f6e747261637420697320616c72656160448201526d191e481a5b9a5d1a585b1a5e995960921b606482015260840161099c565b6000805460ff1916600117905580156112b5576000805461ff0019166101001790555b6112bf83836115c7565b6112c7611a91565b8015610af6576000805461ff0019169055604051600181527f7f26b83ff96e1f2b6a682f133852f6798a09c465da95921460cefb38474024989060200160405180910390a1505050565b6072828154811061132157600080fd5b90600052602060002001818154811061133957600080fd5b90600052602060002001600091509150505481565b6000610e9482611ac0565b60788181548110610fff57600080fd5b606e546001600160a01b031633146113935760405162461bcd60e51b815260040161099c906124da565b607f55565b606e546001600160a01b031633146113c25760405162461bcd60e51b815260040161099c906124da565b600581146113e25760405162461bcd60e51b815260040161099c90612595565b6113ee60786000612140565b610af66078838361215e565b606e546001600160a01b031633146114245760405162461bcd60e51b815260040161099c906124da565b607555565b60818181548110610fff57600080fd5b6082828154811061132157600080fd5b606e546001600160a01b031633146114735760405162461bcd60e51b815260040161099c906124da565b670de0b6b3a76400008111156114c45760405162461bcd60e51b8152602060048201526016602482015275222121b7b73a3930b1ba1d103a37b7903630b933b29760511b604482015260640161099c565b607655565b6000806114d68484611c8a565b915091505b9250929050565b606e546001600160a01b0316331461150c5760405162461bcd60e51b815260040161099c906124da565b607055565b6115196119e5565b606e80546001600160a01b0319166001600160a01b0392909216919091179055565b606e546001600160a01b031633146115655760405162461bcd60e51b815260040161099c906124da565b600381146115855760405162461bcd60e51b815260040161099c90612595565b611591606f6000612140565b610af6606f838361215e565b606e546001600160a01b031633146115c75760405162461bcd60e51b815260040161099c906124da565b6115d18282611da1565b5050565b606e546001600160a01b031633146115ff5760405162461bcd60e51b815260040161099c906124da565b607355565b606e546001600160a01b0316331461162e5760405162461bcd60e51b815260040161099c906124da565b61163a60826000612198565b60005b81811015610af65782828281811061165757611657612520565b905060200281019061166991906125f9565b905060031461168a5760405162461bcd60e51b815260040161099c90612595565b608283838381811061169e5761169e612520565b90506020028101906116b091906125f9565b8254600181018455600093845260209093206116ce9301919061215e565b50806116d98161254c565b91505061163d565b607e602052816000526040600020818154811061133957600080fd5b60825460609082106117515760405162461bcd60e51b815260206004820181905260248201527f4442436f6e74726163743a20696e646578206f7574206f6620626f756e64732e604482015260640161099c565b6082828154811061176457611764612520565b906000526020600020018054806020026020016040519081016040528092919081815260200182805480156117b857602002820191906000526020600020905b8154815260200190600101908083116117a4575b50505050509050919050565b6000607f546117d283611ac0565b101592915050565b60798181548110610fff57600080fd5b606e546001600160a01b031633146118145760405162461bcd60e51b815260040161099c906124da565b608055565b6071805461182690612643565b80601f016020809104026020016040519081016040528092919081815260200182805461185290612643565b801561189f5780601f106118745761010080835404028352916020019161189f565b820191906000526020600020905b81548152906001019060200180831161188257829003601f168201915b505050505081565b606e546001600160a01b031633146118d15760405162461bcd60e51b815260040161099c906124da565b60008360058111156118e5576118e5612567565b6000818152607e602052604081209192506119009190612140565b607d5482111561191057607d8290555b6000818152607e6020526040902061192990848461215e565b5050505050565b6000607e600083600581111561194857611948612567565b815260208101919091526040016000205492915050565b6119676119e5565b6001600160a01b0381166119cc5760405162461bcd60e51b815260206004820152602660248201527f4f776e61626c653a206e6577206f776e657220697320746865207a65726f206160448201526564647265737360d01b606482015260840161099c565b610c3681611a3f565b607c8181548110610fff57600080fd5b6033546001600160a01b031633146111775760405162461bcd60e51b815260206004820181905260248201527f4f776e61626c653a2063616c6c6572206973206e6f7420746865206f776e6572604482015260640161099c565b603380546001600160a01b038381166001600160a01b0319831681179093556040519116919082907f8be0079c531659141344cd1fd0a4f28419497f9722a3daafe3b4186f6b6457e090600090a35050565b600054610100900460ff16611ab85760405162461bcd60e51b815260040161099c9061267e565b61117761208c565b606954604051634f558e7960e01b8152600481018390526000916001600160a01b031690634f558e799060240160206040518083038186803b158015611b0557600080fd5b505afa158015611b19573d6000803e3d6000fd5b505050506040513d601f19601f82011682018060405250810190611b3d91906126c9565b611b895760405162461bcd60e51b815260206004820152601d60248201527f4442436f6e74726163743a20696e76616c696420746f6b656e2049442e000000604482015260640161099c565b60695460405163373bf3af60e21b8152600481018490526000916001600160a01b03169063dcefcebc9060240160006040518083038186803b158015611bce57600080fd5b505afa158015611be2573d6000803e3d6000fd5b505050506040513d6000823e601f3d908101601f19168201604052611c0a9190810190612701565b905060005b611c1b6003600161257d565b811015611c83576000611c58826003811115611c3957611c39612567565b848481518110611c4b57611c4b612520565b6020026020010151611c8a565b509050811580611c6757508381105b15611c70578093505b5080611c7b8161254c565b915050611c0f565b5050919050565b600081816072856003811115611ca257611ca2612567565b81548110611cb257611cb2612520565b600091825260208220015491505b81811015611d98576072866003811115611cdc57611cdc612567565b81548110611cec57611cec612520565b906000526020600020018181548110611d0757611d07612520565b90600052602060002001548510611d8157611d2381600161257d565b93506072866003811115611d3957611d39612567565b81548110611d4957611d49612520565b906000526020600020018181548110611d6457611d64612520565b906000526020600020015485611d7a91906125cc565b9250611d86565b611d98565b80611d908161254c565b915050611cc0565b50509250929050565b60098114611e005760405162461bcd60e51b815260206004820152602660248201527f4442436f6e74726163743a20616464726573736573206c656e677468206d697360448201526536b0ba31b41760d11b606482015260840161099c565b81816000818110611e1357611e13612520565b9050602002016020810190611e2891906121e8565b606580546001600160a01b0319166001600160a01b039290921691909117905581816001818110611e5b57611e5b612520565b9050602002016020810190611e7091906121e8565b606680546001600160a01b0319166001600160a01b039290921691909117905581816002818110611ea357611ea3612520565b9050602002016020810190611eb891906121e8565b606780546001600160a01b0319166001600160a01b039290921691909117905581816003818110611eeb57611eeb612520565b9050602002016020810190611f0091906121e8565b606980546001600160a01b0319166001600160a01b039290921691909117905581816004818110611f3357611f33612520565b9050602002016020810190611f4891906121e8565b606a80546001600160a01b0319166001600160a01b039290921691909117905581816005818110611f7b57611f7b612520565b9050602002016020810190611f9091906121e8565b606b80546001600160a01b0319166001600160a01b039290921691909117905581816006818110611fc357611fc3612520565b9050602002016020810190611fd891906121e8565b606c80546001600160a01b0319166001600160a01b03929092169190911790558181600781811061200b5761200b612520565b905060200201602081019061202091906121e8565b606880546001600160a01b0319166001600160a01b03929092169190911790558181600881811061205357612053612520565b905060200201602081019061206891906121e8565b606d80546001600160a01b0319166001600160a01b03929092169190911790555050565b600054610100900460ff166120b35760405162461bcd60e51b815260040161099c9061267e565b61117733611a3f565b8280546120c890612643565b90600052602060002090601f0160209004810192826120ea5760008555612130565b82601f106121035782800160ff19823516178555612130565b82800160010185558215612130579182015b82811115612130578235825591602001919060010190612115565b5061213c9291506121b6565b5090565b5080546000825590600052602060002090810190610c3691906121b6565b8280548282559060005260206000209081019282156121305791602002820182811115612130578235825591602001919060010190612115565b5080546000825590600052602060002090810190610c3691906121cb565b5b8082111561213c57600081556001016121b7565b8082111561213c5760006121df8282612140565b506001016121cb565b6000602082840312156121fa57600080fd5b81356001600160a01b038116811461221157600080fd5b9392505050565b60006020828403121561222a57600080fd5b5035919050565b6000806020838503121561224457600080fd5b823567ffffffffffffffff8082111561225c57600080fd5b818501915085601f83011261227057600080fd5b81358181111561227f57600080fd5b86602082850101111561229157600080fd5b60209290920196919550909350505050565b60008083601f8401126122b557600080fd5b50813567ffffffffffffffff8111156122cd57600080fd5b6020830191508360208260051b85010111156114db57600080fd5b600080602083850312156122fb57600080fd5b823567ffffffffffffffff81111561231257600080fd5b61231e858286016122a3565b90969095509350505050565b80356004811061233957600080fd5b919050565b60008060006040848603121561235357600080fd5b61235c8461232a565b9250602084013567ffffffffffffffff81111561237857600080fd5b612384868287016122a3565b9497909650939450505050565b80356006811061233957600080fd5b600080604083850312156123b357600080fd5b6123bc83612391565b946020939093013593505050565b600080604083850312156123dd57600080fd5b50508035926020909101359150565b600080604083850312156123ff57600080fd5b6123bc8361232a565b6020808252825182820181905260009190848201906040850190845b8181101561244057835183529284019291840191600101612424565b50909695505050505050565b600060208083528351808285015260005b818110156124795785810183015185820160400152820161245d565b8181111561248b576000604083870101525b50601f01601f1916929092016040019392505050565b6000806000604084860312156124b657600080fd5b61235c84612391565b6000602082840312156124d157600080fd5b61221182612391565b60208082526026908201527f4442436f6e74726163743a2063616c6c6572206973206e6f7420746865206f7060408201526532b930ba37b960d11b606082015260800190565b634e487b7160e01b600052603260045260246000fd5b634e487b7160e01b600052601160045260246000fd5b600060001982141561256057612560612536565b5060010190565b634e487b7160e01b600052602160045260246000fd5b6000821982111561259057612590612536565b500190565b6020808252601c908201527f4442436f6e74726163743a206c656e677468206d69736d617463682e00000000604082015260600190565b6000828210156125de576125de612536565b500390565b634e487b7160e01b600052603160045260246000fd5b6000808335601e1984360301811261261057600080fd5b83018035915067ffffffffffffffff82111561262b57600080fd5b6020019150600581901b36038213156114db57600080fd5b600181811c9082168061265757607f821691505b6020821081141561267857634e487b7160e01b600052602260045260246000fd5b50919050565b6020808252602b908201527f496e697469616c697a61626c653a20636f6e7472616374206973206e6f74206960408201526a6e697469616c697a696e6760a81b606082015260800190565b6000602082840312156126db57600080fd5b8151801515811461221157600080fd5b634e487b7160e01b600052604160045260246000fd5b6000602080838503121561271457600080fd5b825167ffffffffffffffff8082111561272c57600080fd5b818501915085601f83011261274057600080fd5b815181811115612752576127526126eb565b8060051b604051601f19603f83011681018181108582111715612777576127776126eb565b60405291825284820192508381018501918883111561279557600080fd5b938501935b828510156127b35784518452938501939285019261279a565b9897505050505050505056fea2646970667358221220e2cbf26034332f14cf66adb8ecbbaf733b1fb7b15db6cc0261fddf5ab7ca374f64736f6c63430008090033",
  "devdoc": {
    "kind": "dev",
    "methods": {
      "owner()": {
        "details": "Returns the address of the current owner."
      },
      "renounceOwnership()": {
        "details": "Leaves the contract without owner. It will not be possible to call `onlyOwner` functions anymore. Can only be called by the current owner. NOTE: Renouncing ownership will leave the contract without an owner, thereby removing any functionality that is only available to the owner."
      },
      "transferOwnership(address)": {
        "details": "Transfers ownership of the contract to a new account (`newOwner`). Can only be called by the current owner."
      }
    },
    "version": 1
  },
  "userdoc": {
    "kind": "user",
    "methods": {
      "setAttributeLevelThreshold(uint8,uint256[])": {
        "notice": "CA: [100, 500, 1000 ... ]"
      }
    },
    "version": 1
  },
  "storageLayout": {
    "storage": [
      {
        "astId": 138,
        "contract": "contracts/DBContract.sol:DBContract",
        "label": "_initialized",
        "offset": 0,
        "slot": "0",
        "type": "t_uint8"
      },
      {
        "astId": 141,
        "contract": "contracts/DBContract.sol:DBContract",
        "label": "_initializing",
        "offset": 1,
        "slot": "0",
        "type": "t_bool"
      },
      {
        "astId": 3230,
        "contract": "contracts/DBContract.sol:DBContract",
        "label": "__gap",
        "offset": 0,
        "slot": "1",
        "type": "t_array(t_uint256)50_storage"
      },
      {
        "astId": 10,
        "contract": "contracts/DBContract.sol:DBContract",
        "label": "_owner",
        "offset": 0,
        "slot": "51",
        "type": "t_address"
      },
      {
        "astId": 130,
        "contract": "contracts/DBContract.sol:DBContract",
        "label": "__gap",
        "offset": 0,
        "slot": "52",
        "type": "t_array(t_uint256)49_storage"
      },
      {
        "astId": 6827,
        "contract": "contracts/DBContract.sol:DBContract",
        "label": "LYNK_TOKEN",
        "offset": 0,
        "slot": "101",
        "type": "t_address"
      },
      {
        "astId": 6829,
        "contract": "contracts/DBContract.sol:DBContract",
        "label": "AP_TOKEN",
        "offset": 0,
        "slot": "102",
        "type": "t_address"
      },
      {
        "astId": 6831,
        "contract": "contracts/DBContract.sol:DBContract",
        "label": "STAKING",
        "offset": 0,
        "slot": "103",
        "type": "t_address"
      },
      {
        "astId": 6833,
        "contract": "contracts/DBContract.sol:DBContract",
        "label": "USER_INFO",
        "offset": 0,
        "slot": "104",
        "type": "t_address"
      },
      {
        "astId": 6835,
        "contract": "contracts/DBContract.sol:DBContract",
        "label": "LYNKNFT",
        "offset": 0,
        "slot": "105",
        "type": "t_address"
      },
      {
        "astId": 6837,
        "contract": "contracts/DBContract.sol:DBContract",
        "label": "STAKING_LYNKNFT",
        "offset": 0,
        "slot": "106",
        "type": "t_address"
      },
      {
        "astId": 6839,
        "contract": "contracts/DBContract.sol:DBContract",
        "label": "LISTED_LYNKNFT",
        "offset": 0,
        "slot": "107",
        "type": "t_address"
      },
      {
        "astId": 6841,
        "contract": "contracts/DBContract.sol:DBContract",
        "label": "MARKET",
        "offset": 0,
        "slot": "108",
        "type": "t_address"
      },
      {
        "astId": 6843,
        "contract": "contracts/DBContract.sol:DBContract",
        "label": "TEAM_ADDR",
        "offset": 0,
        "slot": "109",
        "type": "t_address"
      },
      {
        "astId": 6845,
        "contract": "contracts/DBContract.sol:DBContract",
        "label": "operator",
        "offset": 0,
        "slot": "110",
        "type": "t_address"
      },
      {
        "astId": 6848,
        "contract": "contracts/DBContract.sol:DBContract",
        "label": "mintPrices",
        "offset": 0,
        "slot": "111",
        "type": "t_array(t_uint256)dyn_storage"
      },
      {
        "astId": 6850,
        "contract": "contracts/DBContract.sol:DBContract",
        "label": "maxMintPerDayPerAddress",
        "offset": 0,
        "slot": "112",
        "type": "t_uint256"
      },
      {
        "astId": 6852,
        "contract": "contracts/DBContract.sol:DBContract",
        "label": "baseTokenURI",
        "offset": 0,
        "slot": "113",
        "type": "t_string_storage"
      },
      {
        "astId": 6856,
        "contract": "contracts/DBContract.sol:DBContract",
        "label": "attributeLevelThreshold",
        "offset": 0,
        "slot": "114",
        "type": "t_array(t_array(t_uint256)dyn_storage)dyn_storage"
      },
      {
        "astId": 6858,
        "contract": "contracts/DBContract.sol:DBContract",
        "label": "maxVAAddPerDayPerToken",
        "offset": 0,
        "slot": "115",
        "type": "t_uint256"
      },
      {
        "astId": 6861,
        "contract": "contracts/DBContract.sol:DBContract",
        "label": "acceptTokens",
        "offset": 0,
        "slot": "116",
        "type": "t_array(t_address)dyn_storage"
      },
      {
        "astId": 6863,
        "contract": "contracts/DBContract.sol:DBContract",
        "label": "sellingLevelLimit",
        "offset": 0,
        "slot": "117",
        "type": "t_uint256"
      },
      {
        "astId": 6865,
        "contract": "contracts/DBContract.sol:DBContract",
        "label": "tradingFee",
        "offset": 0,
        "slot": "118",
        "type": "t_uint256"
      },
      {
        "astId": 6867,
        "contract": "contracts/DBContract.sol:DBContract",
        "label": "rootAddress",
        "offset": 0,
        "slot": "119",
        "type": "t_address"
      },
      {
        "astId": 6870,
        "contract": "contracts/DBContract.sol:DBContract",
        "label": "directRequirements",
        "offset": 0,
        "slot": "120",
        "type": "t_array(t_uint256)dyn_storage"
      },
      {
        "astId": 6873,
        "contract": "contracts/DBContract.sol:DBContract",
        "label": "performanceRequirements",
        "offset": 0,
        "slot": "121",
        "type": "t_array(t_uint256)dyn_storage"
      },
      {
        "astId": 6876,
        "contract": "contracts/DBContract.sol:DBContract",
        "label": "socialRewardRates",
        "offset": 0,
        "slot": "122",
        "type": "t_array(t_uint256)dyn_storage"
      },
      {
        "astId": 6878,
        "contract": "contracts/DBContract.sol:DBContract",
        "label": "contributionRewardThreshold",
        "offset": 0,
        "slot": "123",
        "type": "t_uint256"
      },
      {
        "astId": 6881,
        "contract": "contracts/DBContract.sol:DBContract",
        "label": "contributionRewardAmounts",
        "offset": 0,
        "slot": "124",
        "type": "t_array(t_uint256)dyn_storage"
      },
      {
        "astId": 6883,
        "contract": "contracts/DBContract.sol:DBContract",
        "label": "maxInvitationLevel",
        "offset": 0,
        "slot": "125",
        "type": "t_uint256"
      },
      {
        "astId": 6888,
        "contract": "contracts/DBContract.sol:DBContract",
        "label": "communityRewardRates",
        "offset": 0,
        "slot": "126",
        "type": "t_mapping(t_uint256,t_array(t_uint256)dyn_storage)"
      },
      {
        "astId": 6890,
        "contract": "contracts/DBContract.sol:DBContract",
        "label": "achievementRewardLevelThreshold",
        "offset": 0,
        "slot": "127",
        "type": "t_uint256"
      },
      {
        "astId": 6892,
        "contract": "contracts/DBContract.sol:DBContract",
        "label": "achievementRewardDurationThreshold",
        "offset": 0,
        "slot": "128",
        "type": "t_uint256"
      },
      {
        "astId": 6895,
        "contract": "contracts/DBContract.sol:DBContract",
        "label": "achievementRewardAmounts",
        "offset": 0,
        "slot": "129",
        "type": "t_array(t_uint256)dyn_storage"
      },
      {
        "astId": 6899,
        "contract": "contracts/DBContract.sol:DBContract",
        "label": "sellingPackages",
        "offset": 0,
        "slot": "130",
        "type": "t_array(t_array(t_uint256)dyn_storage)dyn_storage"
      }
    ],
    "types": {
      "t_address": {
        "encoding": "inplace",
        "label": "address",
        "numberOfBytes": "20"
      },
      "t_array(t_address)dyn_storage": {
        "base": "t_address",
        "encoding": "dynamic_array",
        "label": "address[]",
        "numberOfBytes": "32"
      },
      "t_array(t_array(t_uint256)dyn_storage)dyn_storage": {
        "base": "t_array(t_uint256)dyn_storage",
        "encoding": "dynamic_array",
        "label": "uint256[][]",
        "numberOfBytes": "32"
      },
      "t_array(t_uint256)49_storage": {
        "base": "t_uint256",
        "encoding": "inplace",
        "label": "uint256[49]",
        "numberOfBytes": "1568"
      },
      "t_array(t_uint256)50_storage": {
        "base": "t_uint256",
        "encoding": "inplace",
        "label": "uint256[50]",
        "numberOfBytes": "1600"
      },
      "t_array(t_uint256)dyn_storage": {
        "base": "t_uint256",
        "encoding": "dynamic_array",
        "label": "uint256[]",
        "numberOfBytes": "32"
      },
      "t_bool": {
        "encoding": "inplace",
        "label": "bool",
        "numberOfBytes": "1"
      },
      "t_mapping(t_uint256,t_array(t_uint256)dyn_storage)": {
        "encoding": "mapping",
        "key": "t_uint256",
        "label": "mapping(uint256 => uint256[])",
        "numberOfBytes": "32",
        "value": "t_array(t_uint256)dyn_storage"
      },
      "t_string_storage": {
        "encoding": "bytes",
        "label": "string",
        "numberOfBytes": "32"
      },
      "t_uint256": {
        "encoding": "inplace",
        "label": "uint256",
        "numberOfBytes": "32"
      },
      "t_uint8": {
        "encoding": "inplace",
        "label": "uint8",
        "numberOfBytes": "1"
      }
    }
  }
}