{
  "address": "0xaAA83c1D66f4fB1cEE03773bbaEE715a089228B9",
  "abi": [
    {
      "inputs": [
        {
          "internalType": "address",
          "name": "_usdtToken",
          "type": "address"
        }
      ],
      "stateMutability": "nonpayable",
      "type": "constructor"
    },
    {
      "anonymous": false,
      "inputs": [
        {
          "indexed": false,
          "internalType": "uint8",
          "name": "version",
          "type": "uint8"
        }
      ],
      "name": "Initialized",
      "type": "event"
    },
    {
      "anonymous": false,
      "inputs": [
        {
          "indexed": true,
          "internalType": "address",
          "name": "previousOwner",
          "type": "address"
        },
        {
          "indexed": true,
          "internalType": "address",
          "name": "newOwner",
          "type": "address"
        }
      ],
      "name": "OwnershipTransferred",
      "type": "event"
    },
    {
      "inputs": [],
      "name": "AP_TOKEN",
      "outputs": [
        {
          "internalType": "address",
          "name": "",
          "type": "address"
        }
      ],
      "stateMutability": "view",
      "type": "function"
    },
    {
      "inputs": [],
      "name": "LISTED_LYNKNFT",
      "outputs": [
        {
          "internalType": "address",
          "name": "",
          "type": "address"
        }
      ],
      "stateMutability": "view",
      "type": "function"
    },
    {
      "inputs": [],
      "name": "LYNKNFT",
      "outputs": [
        {
          "internalType": "address",
          "name": "",
          "type": "address"
        }
      ],
      "stateMutability": "view",
      "type": "function"
    },
    {
      "inputs": [],
      "name": "LYNK_TOKEN",
      "outputs": [
        {
          "internalType": "address",
          "name": "",
          "type": "address"
        }
      ],
      "stateMutability": "view",
      "type": "function"
    },
    {
      "inputs": [],
      "name": "MARKET",
      "outputs": [
        {
          "internalType": "address",
          "name": "",
          "type": "address"
        }
      ],
      "stateMutability": "view",
      "type": "function"
    },
    {
      "inputs": [],
      "name": "STAKING",
      "outputs": [
        {
          "internalType": "address",
          "name": "",
          "type": "address"
        }
      ],
      "stateMutability": "view",
      "type": "function"
    },
    {
      "inputs": [],
      "name": "STAKING_LYNKNFT",
      "outputs": [
        {
          "internalType": "address",
          "name": "",
          "type": "address"
        }
      ],
      "stateMutability": "view",
      "type": "function"
    },
    {
      "inputs": [],
      "name": "TEAM_ADDR",
      "outputs": [
        {
          "internalType": "address",
          "name": "",
          "type": "address"
        }
      ],
      "stateMutability": "view",
      "type": "function"
    },
    {
      "inputs": [],
      "name": "USDT_TOKEN",
      "outputs": [
        {
          "internalType": "address",
          "name": "",
          "type": "address"
        }
      ],
      "stateMutability": "view",
      "type": "function"
    },
    {
      "inputs": [],
      "name": "USER_INFO",
      "outputs": [
        {
          "internalType": "address",
          "name": "",
          "type": "address"
        }
      ],
      "stateMutability": "view",
      "type": "function"
    },
    {
      "inputs": [
        {
          "internalType": "address[]",
          "name": "_addresses",
          "type": "address[]"
        }
      ],
      "name": "__DBContract_init",
      "outputs": [],
      "stateMutability": "nonpayable",
      "type": "function"
    },
    {
      "inputs": [],
      "name": "acceptTokenLength",
      "outputs": [
        {
          "internalType": "uint256",
          "name": "",
          "type": "uint256"
        }
      ],
      "stateMutability": "view",
      "type": "function"
    },
    {
      "inputs": [
        {
          "internalType": "uint256",
          "name": "",
          "type": "uint256"
        }
      ],
      "name": "acceptTokens",
      "outputs": [
        {
          "internalType": "address",
          "name": "",
          "type": "address"
        }
      ],
      "stateMutability": "view",
      "type": "function"
    },
    {
      "inputs": [
        {
          "internalType": "uint256",
          "name": "",
          "type": "uint256"
        }
      ],
      "name": "achievementRewardAmounts",
      "outputs": [
        {
          "internalType": "uint256",
          "name": "",
          "type": "uint256"
        }
      ],
      "stateMutability": "view",
      "type": "function"
    },
    {
      "inputs": [],
      "name": "achievementRewardAmountsNum",
      "outputs": [
        {
          "internalType": "uint256",
          "name": "",
          "type": "uint256"
        }
      ],
      "stateMutability": "view",
      "type": "function"
    },
    {
      "inputs": [],
      "name": "achievementRewardDurationThreshold",
      "outputs": [
        {
          "internalType": "uint256",
          "name": "",
          "type": "uint256"
        }
      ],
      "stateMutability": "view",
      "type": "function"
    },
    {
      "inputs": [],
      "name": "achievementRewardLevelThreshold",
      "outputs": [
        {
          "internalType": "uint256",
          "name": "",
          "type": "uint256"
        }
      ],
      "stateMutability": "view",
      "type": "function"
    },
    {
      "inputs": [
        {
          "internalType": "uint256",
          "name": "",
          "type": "uint256"
        },
        {
          "internalType": "uint256",
          "name": "",
          "type": "uint256"
        }
      ],
      "name": "attributeLevelThreshold",
      "outputs": [
        {
          "internalType": "uint256",
          "name": "",
          "type": "uint256"
        }
      ],
      "stateMutability": "view",
      "type": "function"
    },
    {
      "inputs": [],
      "name": "attributeLevelThresholdNum",
      "outputs": [
        {
          "internalType": "uint256",
          "name": "",
          "type": "uint256"
        }
      ],
      "stateMutability": "view",
      "type": "function"
    },
    {
      "inputs": [
        {
          "internalType": "uint256",
          "name": "index",
          "type": "uint256"
        }
      ],
      "name": "attributeLevelThresholdNumByIndex",
      "outputs": [
        {
          "internalType": "uint256",
          "name": "",
          "type": "uint256"
        }
      ],
      "stateMutability": "view",
      "type": "function"
    },
    {
      "inputs": [],
      "name": "baseTokenURI",
      "outputs": [
        {
          "internalType": "string",
          "name": "",
          "type": "string"
        }
      ],
      "stateMutability": "view",
      "type": "function"
    },
    {
      "inputs": [
        {
          "internalType": "enum ILYNKNFT.Attribute",
          "name": "_attr",
          "type": "uint8"
        },
        {
          "internalType": "uint256",
          "name": "_point",
          "type": "uint256"
        }
      ],
      "name": "calcLevel",
      "outputs": [
        {
          "internalType": "uint256",
          "name": "level",
          "type": "uint256"
        },
        {
          "internalType": "uint256",
          "name": "overflow",
          "type": "uint256"
        }
      ],
      "stateMutability": "view",
      "type": "function"
    },
    {
      "inputs": [
        {
          "internalType": "uint256",
          "name": "_tokenId",
          "type": "uint256"
        }
      ],
      "name": "calcTokenLevel",
      "outputs": [
        {
          "internalType": "uint256",
          "name": "level",
          "type": "uint256"
        }
      ],
      "stateMutability": "view",
      "type": "function"
    },
    {
      "inputs": [],
      "name": "commonMintEnable",
      "outputs": [
        {
          "internalType": "bool",
          "name": "",
          "type": "bool"
        }
      ],
      "stateMutability": "view",
      "type": "function"
    },
    {
      "inputs": [
        {
          "internalType": "enum IUser.Level",
          "name": "_level",
          "type": "uint8"
        },
        {
          "internalType": "uint256",
          "name": "_invitationLevel",
          "type": "uint256"
        }
      ],
      "name": "communityRewardRate",
      "outputs": [
        {
          "internalType": "uint256",
          "name": "",
          "type": "uint256"
        }
      ],
      "stateMutability": "view",
      "type": "function"
    },
    {
      "inputs": [
        {
          "internalType": "uint256",
          "name": "",
          "type": "uint256"
        },
        {
          "internalType": "uint256",
          "name": "",
          "type": "uint256"
        }
      ],
      "name": "communityRewardRates",
      "outputs": [
        {
          "internalType": "uint256",
          "name": "",
          "type": "uint256"
        }
      ],
      "stateMutability": "view",
      "type": "function"
    },
    {
      "inputs": [
        {
          "internalType": "enum IUser.Level",
          "name": "_level",
          "type": "uint8"
        }
      ],
      "name": "communityRewardRatesNumByLevel",
      "outputs": [
        {
          "internalType": "uint256",
          "name": "",
          "type": "uint256"
        }
      ],
      "stateMutability": "view",
      "type": "function"
    },
    {
      "inputs": [
        {
          "internalType": "uint256",
          "name": "",
          "type": "uint256"
        }
      ],
      "name": "contributionRewardAmounts",
      "outputs": [
        {
          "internalType": "uint256",
          "name": "",
          "type": "uint256"
        }
      ],
      "stateMutability": "view",
      "type": "function"
    },
    {
      "inputs": [],
      "name": "contributionRewardAmountsNum",
      "outputs": [
        {
          "internalType": "uint256",
          "name": "",
          "type": "uint256"
        }
      ],
      "stateMutability": "view",
      "type": "function"
    },
    {
      "inputs": [],
      "name": "contributionRewardThreshold",
      "outputs": [
        {
          "internalType": "uint256",
          "name": "",
          "type": "uint256"
        }
      ],
      "stateMutability": "view",
      "type": "function"
    },
    {
      "inputs": [
        {
          "internalType": "uint256",
          "name": "",
          "type": "uint256"
        }
      ],
      "name": "directRequirements",
      "outputs": [
        {
          "internalType": "uint256",
          "name": "",
          "type": "uint256"
        }
      ],
      "stateMutability": "view",
      "type": "function"
    },
    {
      "inputs": [],
      "name": "directRequirementsNum",
      "outputs": [
        {
          "internalType": "uint256",
          "name": "",
          "type": "uint256"
        }
      ],
      "stateMutability": "view",
      "type": "function"
    },
    {
      "inputs": [],
      "name": "duration",
      "outputs": [
        {
          "internalType": "uint256",
          "name": "",
          "type": "uint256"
        }
      ],
      "stateMutability": "view",
      "type": "function"
    },
    {
      "inputs": [],
      "name": "earlyBirdInitCA",
      "outputs": [
        {
          "internalType": "uint256",
          "name": "",
          "type": "uint256"
        }
      ],
      "stateMutability": "view",
      "type": "function"
    },
    {
      "inputs": [],
      "name": "earlyBirdMintEnable",
      "outputs": [
        {
          "internalType": "bool",
          "name": "",
          "type": "bool"
        }
      ],
      "stateMutability": "view",
      "type": "function"
    },
    {
      "inputs": [],
      "name": "earlyBirdMintEndId",
      "outputs": [
        {
          "internalType": "uint256",
          "name": "",
          "type": "uint256"
        }
      ],
      "stateMutability": "view",
      "type": "function"
    },
    {
      "inputs": [],
      "name": "earlyBirdMintIdRange",
      "outputs": [
        {
          "internalType": "uint256",
          "name": "",
          "type": "uint256"
        },
        {
          "internalType": "uint256",
          "name": "",
          "type": "uint256"
        }
      ],
      "stateMutability": "view",
      "type": "function"
    },
    {
      "inputs": [],
      "name": "earlyBirdMintPayment",
      "outputs": [
        {
          "internalType": "address",
          "name": "",
          "type": "address"
        }
      ],
      "stateMutability": "view",
      "type": "function"
    },
    {
      "inputs": [],
      "name": "earlyBirdMintPrice",
      "outputs": [
        {
          "internalType": "address",
          "name": "",
          "type": "address"
        },
        {
          "internalType": "uint256",
          "name": "",
          "type": "uint256"
        }
      ],
      "stateMutability": "view",
      "type": "function"
    },
    {
      "inputs": [],
      "name": "earlyBirdMintPriceInPayment",
      "outputs": [
        {
          "internalType": "uint256",
          "name": "",
          "type": "uint256"
        }
      ],
      "stateMutability": "view",
      "type": "function"
    },
    {
      "inputs": [],
      "name": "earlyBirdMintStartId",
      "outputs": [
        {
          "internalType": "uint256",
          "name": "",
          "type": "uint256"
        }
      ],
      "stateMutability": "view",
      "type": "function"
    },
    {
      "inputs": [
        {
          "internalType": "uint256",
          "name": "_nftId",
          "type": "uint256"
        }
      ],
      "name": "hasAchievementReward",
      "outputs": [
        {
          "internalType": "bool",
          "name": "",
          "type": "bool"
        }
      ],
      "stateMutability": "view",
      "type": "function"
    },
    {
      "inputs": [
        {
          "internalType": "address",
          "name": "_token",
          "type": "address"
        }
      ],
      "name": "isAcceptToken",
      "outputs": [
        {
          "internalType": "bool",
          "name": "",
          "type": "bool"
        }
      ],
      "stateMutability": "view",
      "type": "function"
    },
    {
      "inputs": [],
      "name": "maxInvitationLevel",
      "outputs": [
        {
          "internalType": "uint256",
          "name": "",
          "type": "uint256"
        }
      ],
      "stateMutability": "view",
      "type": "function"
    },
    {
      "inputs": [],
      "name": "maxMintPerDayPerAddress",
      "outputs": [
        {
          "internalType": "uint256",
          "name": "",
          "type": "uint256"
        }
      ],
      "stateMutability": "view",
      "type": "function"
    },
    {
      "inputs": [
        {
          "internalType": "uint256",
          "name": "_tokenId",
          "type": "uint256"
        }
      ],
      "name": "maxVAAddPerDayByTokenId",
      "outputs": [
        {
          "internalType": "uint256",
          "name": "",
          "type": "uint256"
        }
      ],
      "stateMutability": "view",
      "type": "function"
    },
    {
      "inputs": [],
      "name": "maxVAAddPerDayPerToken",
      "outputs": [
        {
          "internalType": "uint256",
          "name": "",
          "type": "uint256"
        }
      ],
      "stateMutability": "view",
      "type": "function"
    },
    {
      "inputs": [
        {
          "internalType": "uint256",
          "name": "",
          "type": "uint256"
        }
      ],
      "name": "maxVAAddPerDayPerTokens",
      "outputs": [
        {
          "internalType": "uint256",
          "name": "",
          "type": "uint256"
        }
      ],
      "stateMutability": "view",
      "type": "function"
    },
    {
      "inputs": [],
      "name": "maxVAAddPerDayPerTokensNum",
      "outputs": [
        {
          "internalType": "uint256",
          "name": "",
          "type": "uint256"
        }
      ],
      "stateMutability": "view",
      "type": "function"
    },
    {
      "inputs": [
        {
          "internalType": "uint256",
          "name": "",
          "type": "uint256"
        }
      ],
      "name": "mintPrices",
      "outputs": [
        {
          "internalType": "uint256",
          "name": "",
          "type": "uint256"
        }
      ],
      "stateMutability": "view",
      "type": "function"
    },
    {
      "inputs": [],
      "name": "mintPricesNum",
      "outputs": [
        {
          "internalType": "uint256",
          "name": "",
          "type": "uint256"
        }
      ],
      "stateMutability": "view",
      "type": "function"
    },
    {
      "inputs": [],
      "name": "operator",
      "outputs": [
        {
          "internalType": "address",
          "name": "",
          "type": "address"
        }
      ],
      "stateMutability": "view",
      "type": "function"
    },
    {
      "inputs": [],
      "name": "owner",
      "outputs": [
        {
          "internalType": "address",
          "name": "",
          "type": "address"
        }
      ],
      "stateMutability": "view",
      "type": "function"
    },
    {
      "inputs": [
        {
          "internalType": "uint256",
          "name": "_index",
          "type": "uint256"
        }
      ],
      "name": "packageByIndex",
      "outputs": [
        {
          "internalType": "uint256[]",
          "name": "",
          "type": "uint256[]"
        }
      ],
      "stateMutability": "view",
      "type": "function"
    },
    {
      "inputs": [],
      "name": "packageLength",
      "outputs": [
        {
          "internalType": "uint256",
          "name": "",
          "type": "uint256"
        }
      ],
      "stateMutability": "view",
      "type": "function"
    },
    {
      "inputs": [
        {
          "internalType": "uint256",
          "name": "",
          "type": "uint256"
        }
      ],
      "name": "performanceRequirements",
      "outputs": [
        {
          "internalType": "uint256",
          "name": "",
          "type": "uint256"
        }
      ],
      "stateMutability": "view",
      "type": "function"
    },
    {
      "inputs": [],
      "name": "performanceRequirementsNum",
      "outputs": [
        {
          "internalType": "uint256",
          "name": "",
          "type": "uint256"
        }
      ],
      "stateMutability": "view",
      "type": "function"
    },
    {
      "inputs": [],
      "name": "performanceThreshold",
      "outputs": [
        {
          "internalType": "uint256",
          "name": "",
          "type": "uint256"
        }
      ],
      "stateMutability": "view",
      "type": "function"
    },
    {
      "inputs": [
        {
          "internalType": "uint256",
          "name": "_index",
          "type": "uint256"
        }
      ],
      "name": "removeAcceptToken",
      "outputs": [],
      "stateMutability": "nonpayable",
      "type": "function"
    },
    {
      "inputs": [],
      "name": "renounceOwnership",
      "outputs": [],
      "stateMutability": "nonpayable",
      "type": "function"
    },
    {
      "inputs": [],
      "name": "rootAddress",
      "outputs": [
        {
          "internalType": "address",
          "name": "",
          "type": "address"
        }
      ],
      "stateMutability": "view",
      "type": "function"
    },
    {
      "inputs": [],
      "name": "sellingLevelLimit",
      "outputs": [
        {
          "internalType": "uint256",
          "name": "",
          "type": "uint256"
        }
      ],
      "stateMutability": "view",
      "type": "function"
    },
    {
      "inputs": [
        {
          "internalType": "uint256",
          "name": "",
          "type": "uint256"
        },
        {
          "internalType": "uint256",
          "name": "",
          "type": "uint256"
        }
      ],
      "name": "sellingPackages",
      "outputs": [
        {
          "internalType": "uint256",
          "name": "",
          "type": "uint256"
        }
      ],
      "stateMutability": "view",
      "type": "function"
    },
    {
      "inputs": [
        {
          "internalType": "address",
          "name": "_acceptToken",
          "type": "address"
        }
      ],
      "name": "setAcceptToken",
      "outputs": [],
      "stateMutability": "nonpayable",
      "type": "function"
    },
    {
      "inputs": [
        {
          "internalType": "uint256[]",
          "name": "_amounts",
          "type": "uint256[]"
        }
      ],
      "name": "setAchievementRewardAmounts",
      "outputs": [],
      "stateMutability": "nonpayable",
      "type": "function"
    },
    {
      "inputs": [
        {
          "internalType": "uint256",
          "name": "_achievementRewardDurationThreshold",
          "type": "uint256"
        }
      ],
      "name": "setAchievementRewardDurationThreshold",
      "outputs": [],
      "stateMutability": "nonpayable",
      "type": "function"
    },
    {
      "inputs": [
        {
          "internalType": "uint256",
          "name": "_achievementRewardLevelThreshold",
          "type": "uint256"
        }
      ],
      "name": "setAchievementRewardLevelThreshold",
      "outputs": [],
      "stateMutability": "nonpayable",
      "type": "function"
    },
    {
      "inputs": [
        {
          "internalType": "address[]",
          "name": "_addresses",
          "type": "address[]"
        }
      ],
      "name": "setAddresses",
      "outputs": [],
      "stateMutability": "nonpayable",
      "type": "function"
    },
    {
      "inputs": [
        {
          "internalType": "enum ILYNKNFT.Attribute",
          "name": "_attr",
          "type": "uint8"
        },
        {
          "internalType": "uint256[]",
          "name": "_thresholds",
          "type": "uint256[]"
        }
      ],
      "name": "setAttributeLevelThreshold",
      "outputs": [],
      "stateMutability": "nonpayable",
      "type": "function"
    },
    {
      "inputs": [
        {
          "internalType": "string",
          "name": "_baseTokenURI",
          "type": "string"
        }
      ],
      "name": "setBaseTokenURI",
      "outputs": [],
      "stateMutability": "nonpayable",
      "type": "function"
    },
    {
      "inputs": [
        {
          "internalType": "enum IUser.Level",
          "name": "_level",
          "type": "uint8"
        },
        {
          "internalType": "uint256[]",
          "name": "_rates",
          "type": "uint256[]"
        }
      ],
      "name": "setCommunityRewardRates",
      "outputs": [],
      "stateMutability": "nonpayable",
      "type": "function"
    },
    {
      "inputs": [
        {
          "internalType": "uint256[]",
          "name": "_amounts",
          "type": "uint256[]"
        }
      ],
      "name": "setContributionRewardAmounts",
      "outputs": [],
      "stateMutability": "nonpayable",
      "type": "function"
    },
    {
      "inputs": [
        {
          "internalType": "uint256",
          "name": "_contributionRewardThreshold",
          "type": "uint256"
        }
      ],
      "name": "setContributionRewardThreshold",
      "outputs": [],
      "stateMutability": "nonpayable",
      "type": "function"
    },
    {
      "inputs": [
        {
          "internalType": "uint256[]",
          "name": "_requirements",
          "type": "uint256[]"
        }
      ],
      "name": "setDirectRequirements",
      "outputs": [],
      "stateMutability": "nonpayable",
      "type": "function"
    },
    {
      "inputs": [
        {
          "internalType": "uint256",
          "name": "_duration",
          "type": "uint256"
        }
      ],
      "name": "setDuration",
      "outputs": [],
      "stateMutability": "nonpayable",
      "type": "function"
    },
    {
      "inputs": [
        {
          "internalType": "uint256",
          "name": "_earlyBirdInitCA",
          "type": "uint256"
        }
      ],
      "name": "setEarlyBirdInitCA",
      "outputs": [],
      "stateMutability": "nonpayable",
      "type": "function"
    },
    {
      "inputs": [
        {
          "internalType": "uint256",
          "name": "_earlyBirdMintStartId",
          "type": "uint256"
        },
        {
          "internalType": "uint256",
          "name": "_earlyBirdMintEndId",
          "type": "uint256"
        }
      ],
      "name": "setEarlyBirdMintIdRange",
      "outputs": [],
      "stateMutability": "nonpayable",
      "type": "function"
    },
    {
      "inputs": [
        {
          "internalType": "address",
          "name": "_earlyBirdMintPayment",
          "type": "address"
        },
        {
          "internalType": "uint256",
          "name": "_earlyBirdMintPriceInPayment",
          "type": "uint256"
        }
      ],
      "name": "setEarlyBirdMintPrice",
      "outputs": [],
      "stateMutability": "nonpayable",
      "type": "function"
    },
    {
      "inputs": [
        {
          "internalType": "uint256",
          "name": "_maxMintPerDayPerAddress",
          "type": "uint256"
        }
      ],
      "name": "setMaxMintPerDayPerAddress",
      "outputs": [],
      "stateMutability": "nonpayable",
      "type": "function"
    },
    {
      "inputs": [
        {
          "internalType": "uint256",
          "name": "_maxVAAddPerDayPerToken",
          "type": "uint256"
        }
      ],
      "name": "setMaxVAAddPerDayPerToken",
      "outputs": [],
      "stateMutability": "nonpayable",
      "type": "function"
    },
    {
      "inputs": [
        {
          "internalType": "uint256[]",
          "name": "_maxVAAddPerDayPerTokens",
          "type": "uint256[]"
        }
      ],
      "name": "setMaxVAAddPerDayPerTokens",
      "outputs": [],
      "stateMutability": "nonpayable",
      "type": "function"
    },
    {
      "inputs": [
        {
          "internalType": "uint256[]",
          "name": "_mintPrices",
          "type": "uint256[]"
        }
      ],
      "name": "setMintPrices",
      "outputs": [],
      "stateMutability": "nonpayable",
      "type": "function"
    },
    {
      "inputs": [
        {
          "internalType": "address",
          "name": "_operator",
          "type": "address"
        }
      ],
      "name": "setOperator",
      "outputs": [],
      "stateMutability": "nonpayable",
      "type": "function"
    },
    {
      "inputs": [
        {
          "internalType": "uint256[]",
          "name": "_requirements",
          "type": "uint256[]"
        }
      ],
      "name": "setPerformanceRequirements",
      "outputs": [],
      "stateMutability": "nonpayable",
      "type": "function"
    },
    {
      "inputs": [
        {
          "internalType": "uint256",
          "name": "_performanceThreshold",
          "type": "uint256"
        }
      ],
      "name": "setPerformanceThreshold",
      "outputs": [],
      "stateMutability": "nonpayable",
      "type": "function"
    },
    {
      "inputs": [
        {
          "internalType": "address",
          "name": "_rootAddress",
          "type": "address"
        }
      ],
      "name": "setRootAddress",
      "outputs": [],
      "stateMutability": "nonpayable",
      "type": "function"
    },
    {
      "inputs": [
        {
          "internalType": "uint256",
          "name": "_sellingLevelLimit",
          "type": "uint256"
        }
      ],
      "name": "setSellingLevelLimit",
      "outputs": [],
      "stateMutability": "nonpayable",
      "type": "function"
    },
    {
      "inputs": [
        {
          "internalType": "uint256[][]",
          "name": "_packages",
          "type": "uint256[][]"
        }
      ],
      "name": "setSellingPackage",
      "outputs": [],
      "stateMutability": "nonpayable",
      "type": "function"
    },
    {
      "inputs": [
        {
          "internalType": "uint256[]",
          "name": "_rates",
          "type": "uint256[]"
        }
      ],
      "name": "setSocialRewardRates",
      "outputs": [],
      "stateMutability": "nonpayable",
      "type": "function"
    },
    {
      "inputs": [
        {
          "internalType": "bool",
          "name": "_earlyBirdMintEnable",
          "type": "bool"
        },
        {
          "internalType": "bool",
          "name": "_commonMintEnable",
          "type": "bool"
        }
      ],
      "name": "setSwitch",
      "outputs": [],
      "stateMutability": "nonpayable",
      "type": "function"
    },
    {
      "inputs": [
        {
          "internalType": "uint256",
          "name": "_tradingFee",
          "type": "uint256"
        }
      ],
      "name": "setTradingFee",
      "outputs": [],
      "stateMutability": "nonpayable",
      "type": "function"
    },
    {
      "inputs": [
        {
          "internalType": "uint256",
          "name": "",
          "type": "uint256"
        }
      ],
      "name": "socialRewardRates",
      "outputs": [
        {
          "internalType": "uint256",
          "name": "",
          "type": "uint256"
        }
      ],
      "stateMutability": "view",
      "type": "function"
    },
    {
      "inputs": [],
      "name": "socialRewardRatesNum",
      "outputs": [
        {
          "internalType": "uint256",
          "name": "",
          "type": "uint256"
        }
      ],
      "stateMutability": "view",
      "type": "function"
    },
    {
      "inputs": [],
      "name": "tradingFee",
      "outputs": [
        {
          "internalType": "uint256",
          "name": "",
          "type": "uint256"
        }
      ],
      "stateMutability": "view",
      "type": "function"
    },
    {
      "inputs": [
        {
          "internalType": "address",
          "name": "newOwner",
          "type": "address"
        }
      ],
      "name": "transferOwnership",
      "outputs": [],
      "stateMutability": "nonpayable",
      "type": "function"
    }
  ],
  "transactionHash": "0xb2c9faed3110d263c75f8a2cd64696bb6dbd632fa95b738c8fe7b47c22427528",
  "args": [
    "0x38B7CA6eD821bEf464Aa1BF080bf563efc0DEc1a"
  ],
  "numDeployments": 4,
  "solcInputHash": "f736bd853bb0bf3d5a4aace8f5649bc8",
  "bytecode": "0x60a06040523480156200001157600080fd5b5060405162002de238038062002de2833981016040819052620000349162000046565b6001600160a01b031660805262000078565b6000602082840312156200005957600080fd5b81516001600160a01b03811681146200007157600080fd5b9392505050565b608051612d4e6200009460003960006107e20152612d4e6000f3fe608060405234801561001057600080fd5b50600436106105255760003560e01c80637bbbdc2e116102af578063be18881111610172578063d547cfb7116100d9578063f2fde38b11610092578063f2fde38b14610b52578063f46f16c214610b65578063f6be71d114610b78578063fa1785fe14610b8b578063fce3b86e14610b9e578063fd02f81f14610bb157600080fd5b8063d547cfb714610aef578063dfada98814610b04578063e707379014610b17578063ea0d146514610b2a578063ec214bbf14610b37578063f046bded14610b4a57600080fd5b8063cd0a174a1161012b578063cd0a174a14610a86578063d09586ac14610aa6578063d2110a0914610aae578063d3f0f70d14610ab6578063d3f42b7c14610ac9578063d42ecfc014610adc57600080fd5b8063be18881114610a26578063bf57840314610a31578063c2e30dd014610a3a578063c6c0891614610a4d578063c7650dd814610a60578063c8aca9d014610a7357600080fd5b8063a5c158e311610216578063b2cd99af116101cf578063b2cd99af1461099f578063b35e1a0a146109c7578063b3a8f2a9146109da578063b3ab15fb146109ed578063b589e51e14610a00578063b957172114610a1357600080fd5b8063a5c158e314610937578063aaa2b8c81461094a578063af4574c61461095d578063af718c5514610970578063afe97ec114610983578063b0d54bcf1461098c57600080fd5b806397610f301161026857806397610f30146108cf57806399bcfdd3146108e25780639ba544ed146108f55780639d51193e146109085780639e77de2714610911578063a4c15a131461092457600080fd5b80637bbbdc2e146108695780638136673f1461087c5780638cd6ab811461088f5780638da5cb5b146108985780638edcde7d146108a957806395014433146108bc57600080fd5b806354af9320116103f757806366227eb91161035e57806377b2fb8e1161031757806377b2fb8e146107d457806377b330c9146107dd5780637811dddd146108045780637a58a3f11461080d5780637af0cac3146108205780637af358991461085657600080fd5b806366227eb91461076e578063663d2c4e146107805780636b81ffdb146107935780636fda0652146107a6578063705064fd146107b9578063715018a6146107cc57600080fd5b80635f7d59c4116103b05780635f7d59c414610725578063600a2f821461072e5780636187b33e146107375780636241c2001461074a57806362e6d38a1461075257806364db03b81461076557600080fd5b806354af9320146106bd57806356c15c39146106d057806356f43352146106e3578063570ca735146106ec5780635b487d9c146106ff5780635ce58dd41461071257600080fd5b806334456ae11161049b57806343e573b11161045457806343e573b1146106605780634b89f9f7146106735780634c09df04146106865780634d678f29146106995780634eb66e83146106ac57806353000964146106b557600080fd5b806334456ae1146106025780633b87436b146106155780633d902c8014610628578063405a0aa81461063b57806341d0992b1461064457806341e33d381461065757600080fd5b80631faee868116104ed5780631faee868146105a15780632eed8a59146105a957806330176e13146105cc5780633256e7d4146105df578063331163ce146105e75780633323ff8a146105ef57600080fd5b80630b00fd541461052a5780630fb5a6b41461055a5780631451952b146105715780631b56c29c146105865780631edd6e8714610599575b600080fd5b606d5461053d906001600160a01b031681565b6040516001600160a01b0390911681526020015b60405180910390f35b61056360835481565b604051908152602001610551565b61058461057f3660046126f6565b610bb9565b005b61053d610594366004612718565b610c75565b607454610563565b608254610563565b6105bc6105b73660046126f6565b610c9f565b6040519015158152602001610551565b6105846105da366004612731565b610d07565b607a54610563565b606f54610563565b6105846105fd366004612718565b610d42565b6105846106103660046127a3565b610d71565b60655461053d906001600160a01b031681565b610584610636366004612812565b610e17565b61056360885481565b610584610652366004612812565b610e59565b610563608a5481565b61058461066e3660046126f6565b610ec5565b610584610681366004612863565b610f97565b610563610694366004612718565b611177565b6105636106a73660046128c5565b611198565b610563607d5481565b607854610563565b6105846106cb366004612812565b611219565b606b5461053d906001600160a01b031681565b61056360765481565b606e5461053d906001600160a01b031681565b606a5461053d906001600160a01b031681565b610584610720366004612812565b61127b565b61056360735481565b61056360705481565b610563610745366004612718565b61136e565b607954610563565b610563610760366004612718565b61137e565b61056360865481565b608b546105bc90610100900460ff1681565b60695461053d906001600160a01b031681565b6105846107a1366004612718565b6113d2565b6105636107b4366004612718565b611401565b6105846107c7366004612718565b611439565b610584611527565b610563607b5481565b61053d7f000000000000000000000000000000000000000000000000000000000000000081565b61056360805481565b61056361081b366004612718565b61153b565b610837608954608a546001600160a01b0390911691565b604080516001600160a01b039093168352602083019190915201610551565b610584610864366004612812565b61154b565b610584610877366004612812565b6115b7565b61056361088a3660046128e1565b6116d3565b61056360875481565b6033546001600160a01b031661053d565b6105636108b7366004612718565b611710565b6105846108ca366004612911565b61171b565b60675461053d906001600160a01b031681565b6105636108f0366004612718565b611769565b610584610903366004612718565b611779565b610563607f5481565b61058461091f366004612812565b6117a8565b6105846109323660046128e1565b61180a565b610584610945366004612718565b61188e565b60775461053d906001600160a01b031681565b61056361096b366004612718565b6118bd565b61056361097e3660046128e1565b6118cd565b61056360755481565b61058461099a366004612718565b6118dd565b6109b26109ad36600461294a565b61195d565b60408051928352602083019190915201610551565b6105846109d5366004612718565b611976565b6105846109e8366004612718565b6119a5565b6105846109fb3660046126f6565b6119d4565b610584610a0e366004612812565b6119fe565b610584610a21366004612812565b611a60565b6087546088546109b2565b61056360855481565b60665461053d906001600160a01b031681565b610584610a5b366004612718565b611a98565b610584610a6e366004612812565b611ac7565b610563610a813660046128e1565b611ba4565b610a99610a94366004612718565b611bc0565b6040516105519190612966565b608454610563565b607c54610563565b6105bc610ac4366004612718565b611c87565b610563610ad7366004612718565b611c9d565b610584610aea366004612718565b611cad565b610af7611cdc565b60405161055191906129aa565b60895461053d906001600160a01b031681565b610584610b253660046129ff565b611d6a565b608b546105bc9060ff1681565b610563610b45366004612a1d565b611df3565b607254610563565b610584610b603660046126f6565b611e22565b606c5461053d906001600160a01b031681565b610584610b86366004612718565b611e98565b60685461053d906001600160a01b031681565b610563610bac366004612718565b611ec7565b608154610563565b606e546001600160a01b03163314610bec5760405162461bcd60e51b8152600401610be390612a38565b60405180910390fd5b6001600160a01b038116610c535760405162461bcd60e51b815260206004820152602860248201527f4442436f6e74726163743a20726f6f742063616e6e6f74206265207a65726f2060448201526730b2323932b9b99760c11b6064820152608401610be3565b607780546001600160a01b0319166001600160a01b0392909216919091179055565b60748181548110610c8557600080fd5b6000918252602090912001546001600160a01b0316905081565b607454600090815b81811015610cfd5760748181548110610cc257610cc2612a7e565b6000918252602090912001546001600160a01b0385811691161415610ceb575060019392505050565b80610cf581612aaa565b915050610ca7565b5060009392505050565b606e546001600160a01b03163314610d315760405162461bcd60e51b8152600401610be390612a38565b610d3d607183836125ae565b505050565b606e546001600160a01b03163314610d6c5760405162461bcd60e51b8152600401610be390612a38565b608655565b606e546001600160a01b03163314610d9b5760405162461bcd60e51b8152600401610be390612a38565b6001600160a01b038216610df15760405162461bcd60e51b815260206004820181905260248201527f4442436f6e74726163743a207061796d656e742063616e6e6f7420626520302e6044820152606401610be3565b608980546001600160a01b0319166001600160a01b039390931692909217909155608a55565b606e546001600160a01b03163314610e415760405162461bcd60e51b8152600401610be390612a38565b610e4d60846000612632565b610d3d60848383612650565b606e546001600160a01b03163314610e835760405162461bcd60e51b8152600401610be390612a38565b610e8f60056001612adb565b8114610ead5760405162461bcd60e51b8152600401610be390612af3565b610eb9607c6000612632565b610d3d607c8383612650565b606e546001600160a01b03163314610eef5760405162461bcd60e51b8152600401610be390612a38565b60745460005b81811015610f465760748181548110610f1057610f10612a7e565b6000918252602090912001546001600160a01b0384811691161415610f3457505050565b80610f3e81612aaa565b915050610ef5565b5050607480546001810182556000919091527f19a0b39aa25ac793b5f6e9a0534364cc0b3fd1ea9b651e79c7f50a59d48ef8130180546001600160a01b0319166001600160a01b0383161790555b50565b606e546001600160a01b03163314610fc15760405162461bcd60e51b8152600401610be390612a38565b607254836003811115610fd657610fd6612ac5565b1115610ff45760405162461bcd60e51b8152600401610be390612af3565b60005b818110156110a157801561108f578282611012600184612b2a565b81811061102157611021612a7e565b9050602002013583838381811061103a5761103a612a7e565b90506020020135101561108f5760405162461bcd60e51b815260206004820152601f60248201527f4442436f6e74726163743a20696e76616c6964207468726573686f6c64732e006044820152606401610be3565b8061109981612aaa565b915050610ff7565b508260038111156110b4576110b4612ac5565b607254141561110057607280546001810182556000919091526110fa907fdffbd64cc7c1a7eb27984335d9416d51137a03d3fabec7141025c62663253fe1018383612650565b50505050565b607283600381111561111457611114612ac5565b8154811061112457611124612a7e565b90600052602060002001600061113a9190612632565b8181607285600381111561115057611150612ac5565b8154811061116057611160612a7e565b9060005260206000200191906110fa929190612650565b6084818154811061118757600080fd5b600091825260209091200154905081565b600081607e60008560058111156111b1576111b1612ac5565b8152602081019190915260400160002054111561120f57607e60008460058111156111de576111de612ac5565b815260200190815260200160002082815481106111fd576111fd612a7e565b90600052602060002001549050611213565b5060005b92915050565b606e546001600160a01b031633146112435760405162461bcd60e51b8152600401610be390612a38565b600581146112635760405162461bcd60e51b8152600401610be390612af3565b61126f60796000612632565b610d3d60798383612650565b606e546001600160a01b031633146112a55760405162461bcd60e51b8152600401610be390612a38565b6112b160056001612adb565b81146112cf5760405162461bcd60e51b8152600401610be390612af3565b6112db607a6000612632565b60005b8181101561136157670de0b6b3a764000083838381811061130157611301612a7e565b90506020020135111561134f5760405162461bcd60e51b8152602060048201526016602482015275222121b7b73a3930b1ba1d103a37b7903630b933b29760511b6044820152606401610be3565b8061135981612aaa565b9150506112de565b50610d3d607a8383612650565b606f818154811061118757600080fd5b60008061138a83611ed7565b60845490915061139c90600190612b2a565b8111156113ac5750600092915050565b608481815481106113bf576113bf612a7e565b9060005260206000200154915050919050565b606e546001600160a01b031633146113fc5760405162461bcd60e51b8152600401610be390612a38565b607b55565b6072546000908210611414576000611213565b6072828154811061142757611427612a7e565b60009182526020909120015492915050565b606e546001600160a01b031633146114635760405162461bcd60e51b8152600401610be390612a38565b607454611471600182612b2a565b8210156114f0576074611485600183612b2a565b8154811061149557611495612a7e565b600091825260209091200154607480546001600160a01b0390921691849081106114c1576114c1612a7e565b9060005260206000200160006101000a8154816001600160a01b0302191690836001600160a01b031602179055505b607480548061150157611501612b41565b600082815260209020810160001990810180546001600160a01b03191690550190555050565b61152f6120a1565b61153960006120fb565b565b607a818154811061118757600080fd5b606e546001600160a01b031633146115755760405162461bcd60e51b8152600401610be390612a38565b61158160056001612adb565b811461159f5760405162461bcd60e51b8152600401610be390612af3565b6115ab60816000612632565b610d3d60818383612650565b600054610100900460ff16158080156115d75750600054600160ff909116105b806115f15750303b1580156115f1575060005460ff166001145b6116545760405162461bcd60e51b815260206004820152602e60248201527f496e697469616c697a61626c653a20636f6e747261637420697320616c72656160448201526d191e481a5b9a5d1a585b1a5e995960921b6064820152608401610be3565b6000805460ff191660011790558015611677576000805461ff0019166101001790555b6116818383611a8a565b61168961214d565b8015610d3d576000805461ff0019169055604051600181527f7f26b83ff96e1f2b6a682f133852f6798a09c465da95921460cefb38474024989060200160405180910390a1505050565b607282815481106116e357600080fd5b9060005260206000200181815481106116fb57600080fd5b90600052602060002001600091509150505481565b600061121382611ed7565b606e546001600160a01b031633146117455760405162461bcd60e51b8152600401610be390612a38565b608b805461ffff191692151561ff0019169290921761010091151591909102179055565b6078818154811061118757600080fd5b606e546001600160a01b031633146117a35760405162461bcd60e51b8152600401610be390612a38565b607f55565b606e546001600160a01b031633146117d25760405162461bcd60e51b8152600401610be390612a38565b600581146117f25760405162461bcd60e51b8152600401610be390612af3565b6117fe60786000612632565b610d3d60788383612650565b606e546001600160a01b031633146118345760405162461bcd60e51b8152600401610be390612a38565b8181116118835760405162461bcd60e51b815260206004820152601d60248201527f4442436f6e74726163743a20696e76616c69642069642072616e67652e0000006044820152606401610be3565b608791909155608855565b606e546001600160a01b031633146118b85760405162461bcd60e51b8152600401610be390612a38565b607555565b6081818154811061118757600080fd5b608282815481106116e357600080fd5b606e546001600160a01b031633146119075760405162461bcd60e51b8152600401610be390612a38565b670de0b6b3a76400008111156119585760405162461bcd60e51b8152602060048201526016602482015275222121b7b73a3930b1ba1d103a37b7903630b933b29760511b6044820152606401610be3565b607655565b60008061196a848461217c565b915091505b9250929050565b606e546001600160a01b031633146119a05760405162461bcd60e51b8152600401610be390612a38565b608555565b606e546001600160a01b031633146119cf5760405162461bcd60e51b8152600401610be390612a38565b607055565b6119dc6120a1565b606e80546001600160a01b0319166001600160a01b0392909216919091179055565b606e546001600160a01b03163314611a285760405162461bcd60e51b8152600401610be390612a38565b60038114611a485760405162461bcd60e51b8152600401610be390612af3565b611a54606f6000612632565b610d3d606f8383612650565b606e546001600160a01b03163314611a8a5760405162461bcd60e51b8152600401610be390612a38565b611a948282612293565b5050565b606e546001600160a01b03163314611ac25760405162461bcd60e51b8152600401610be390612a38565b607355565b606e546001600160a01b03163314611af15760405162461bcd60e51b8152600401610be390612a38565b611afd6082600061268a565b60005b81811015610d3d57828282818110611b1a57611b1a612a7e565b9050602002810190611b2c9190612b57565b9050600314611b4d5760405162461bcd60e51b8152600401610be390612af3565b6082838383818110611b6157611b61612a7e565b9050602002810190611b739190612b57565b825460018101845560009384526020909320611b9193019190612650565b5080611b9c81612aaa565b915050611b00565b607e60205281600052604060002081815481106116fb57600080fd5b6082546060908210611c145760405162461bcd60e51b815260206004820181905260248201527f4442436f6e74726163743a20696e646578206f7574206f6620626f756e64732e6044820152606401610be3565b60828281548110611c2757611c27612a7e565b90600052602060002001805480602002602001604051908101604052809291908181526020018280548015611c7b57602002820191906000526020600020905b815481526020019060010190808311611c67575b50505050509050919050565b6000607f54611c9583611ed7565b101592915050565b6079818154811061118757600080fd5b606e546001600160a01b03163314611cd75760405162461bcd60e51b8152600401610be390612a38565b608055565b60718054611ce990612ba1565b80601f0160208091040260200160405190810160405280929190818152602001828054611d1590612ba1565b8015611d625780601f10611d3757610100808354040283529160200191611d62565b820191906000526020600020905b815481529060010190602001808311611d4557829003601f168201915b505050505081565b606e546001600160a01b03163314611d945760405162461bcd60e51b8152600401610be390612a38565b6000836005811115611da857611da8612ac5565b6000818152607e60205260408120919250611dc39190612632565b607d54821115611dd357607d8290555b6000818152607e60205260409020611dec908484612650565b5050505050565b6000607e6000836005811115611e0b57611e0b612ac5565b815260208101919091526040016000205492915050565b611e2a6120a1565b6001600160a01b038116611e8f5760405162461bcd60e51b815260206004820152602660248201527f4f776e61626c653a206e6577206f776e657220697320746865207a65726f206160448201526564647265737360d01b6064820152608401610be3565b610f94816120fb565b606e546001600160a01b03163314611ec25760405162461bcd60e51b8152600401610be390612a38565b608355565b607c818154811061118757600080fd5b606954604051634f558e7960e01b8152600481018390526000916001600160a01b031690634f558e799060240160206040518083038186803b158015611f1c57600080fd5b505afa158015611f30573d6000803e3d6000fd5b505050506040513d601f19601f82011682018060405250810190611f549190612bdc565b611fa05760405162461bcd60e51b815260206004820152601d60248201527f4442436f6e74726163743a20696e76616c696420746f6b656e2049442e0000006044820152606401610be3565b60695460405163373bf3af60e21b8152600481018490526000916001600160a01b03169063dcefcebc9060240160006040518083038186803b158015611fe557600080fd5b505afa158015611ff9573d6000803e3d6000fd5b505050506040513d6000823e601f3d908101601f191682016040526120219190810190612c0f565b905060005b61203260036001612adb565b81101561209a57600061206f82600381111561205057612050612ac5565b84848151811061206257612062612a7e565b602002602001015161217c565b50905081158061207e57508381105b15612087578093505b508061209281612aaa565b915050612026565b5050919050565b6033546001600160a01b031633146115395760405162461bcd60e51b815260206004820181905260248201527f4f776e61626c653a2063616c6c6572206973206e6f7420746865206f776e65726044820152606401610be3565b603380546001600160a01b038381166001600160a01b0319831681179093556040519116919082907f8be0079c531659141344cd1fd0a4f28419497f9722a3daafe3b4186f6b6457e090600090a35050565b600054610100900460ff166121745760405162461bcd60e51b8152600401610be390612ccd565b61153961257e565b60008181607285600381111561219457612194612ac5565b815481106121a4576121a4612a7e565b600091825260208220015491505b8181101561228a5760728660038111156121ce576121ce612ac5565b815481106121de576121de612a7e565b9060005260206000200181815481106121f9576121f9612a7e565b9060005260206000200154851061227357612215816001612adb565b9350607286600381111561222b5761222b612ac5565b8154811061223b5761223b612a7e565b90600052602060002001818154811061225657612256612a7e565b90600052602060002001548561226c9190612b2a565b9250612278565b61228a565b8061228281612aaa565b9150506121b2565b50509250929050565b600981146122f25760405162461bcd60e51b815260206004820152602660248201527f4442436f6e74726163743a20616464726573736573206c656e677468206d697360448201526536b0ba31b41760d11b6064820152608401610be3565b8181600081811061230557612305612a7e565b905060200201602081019061231a91906126f6565b606580546001600160a01b0319166001600160a01b03929092169190911790558181600181811061234d5761234d612a7e565b905060200201602081019061236291906126f6565b606680546001600160a01b0319166001600160a01b03929092169190911790558181600281811061239557612395612a7e565b90506020020160208101906123aa91906126f6565b606780546001600160a01b0319166001600160a01b0392909216919091179055818160038181106123dd576123dd612a7e565b90506020020160208101906123f291906126f6565b606980546001600160a01b0319166001600160a01b03929092169190911790558181600481811061242557612425612a7e565b905060200201602081019061243a91906126f6565b606a80546001600160a01b0319166001600160a01b03929092169190911790558181600581811061246d5761246d612a7e565b905060200201602081019061248291906126f6565b606b80546001600160a01b0319166001600160a01b0392909216919091179055818160068181106124b5576124b5612a7e565b90506020020160208101906124ca91906126f6565b606c80546001600160a01b0319166001600160a01b0392909216919091179055818160078181106124fd576124fd612a7e565b905060200201602081019061251291906126f6565b606880546001600160a01b0319166001600160a01b03929092169190911790558181600881811061254557612545612a7e565b905060200201602081019061255a91906126f6565b606d80546001600160a01b0319166001600160a01b03929092169190911790555050565b600054610100900460ff166125a55760405162461bcd60e51b8152600401610be390612ccd565b611539336120fb565b8280546125ba90612ba1565b90600052602060002090601f0160209004810192826125dc5760008555612622565b82601f106125f55782800160ff19823516178555612622565b82800160010185558215612622579182015b82811115612622578235825591602001919060010190612607565b5061262e9291506126a8565b5090565b5080546000825590600052602060002090810190610f9491906126a8565b8280548282559060005260206000209081019282156126225791602002820182811115612622578235825591602001919060010190612607565b5080546000825590600052602060002090810190610f9491906126bd565b5b8082111561262e57600081556001016126a9565b8082111561262e5760006126d18282612632565b506001016126bd565b80356001600160a01b03811681146126f157600080fd5b919050565b60006020828403121561270857600080fd5b612711826126da565b9392505050565b60006020828403121561272a57600080fd5b5035919050565b6000806020838503121561274457600080fd5b823567ffffffffffffffff8082111561275c57600080fd5b818501915085601f83011261277057600080fd5b81358181111561277f57600080fd5b86602082850101111561279157600080fd5b60209290920196919550909350505050565b600080604083850312156127b657600080fd5b6127bf836126da565b946020939093013593505050565b60008083601f8401126127df57600080fd5b50813567ffffffffffffffff8111156127f757600080fd5b6020830191508360208260051b850101111561196f57600080fd5b6000806020838503121561282557600080fd5b823567ffffffffffffffff81111561283c57600080fd5b612848858286016127cd565b90969095509350505050565b8035600481106126f157600080fd5b60008060006040848603121561287857600080fd5b61288184612854565b9250602084013567ffffffffffffffff81111561289d57600080fd5b6128a9868287016127cd565b9497909650939450505050565b8035600681106126f157600080fd5b600080604083850312156128d857600080fd5b6127bf836128b6565b600080604083850312156128f457600080fd5b50508035926020909101359150565b8015158114610f9457600080fd5b6000806040838503121561292457600080fd5b823561292f81612903565b9150602083013561293f81612903565b809150509250929050565b6000806040838503121561295d57600080fd5b6127bf83612854565b6020808252825182820181905260009190848201906040850190845b8181101561299e57835183529284019291840191600101612982565b50909695505050505050565b600060208083528351808285015260005b818110156129d7578581018301518582016040015282016129bb565b818111156129e9576000604083870101525b50601f01601f1916929092016040019392505050565b600080600060408486031215612a1457600080fd5b612881846128b6565b600060208284031215612a2f57600080fd5b612711826128b6565b60208082526026908201527f4442436f6e74726163743a2063616c6c6572206973206e6f7420746865206f7060408201526532b930ba37b960d11b606082015260800190565b634e487b7160e01b600052603260045260246000fd5b634e487b7160e01b600052601160045260246000fd5b6000600019821415612abe57612abe612a94565b5060010190565b634e487b7160e01b600052602160045260246000fd5b60008219821115612aee57612aee612a94565b500190565b6020808252601c908201527f4442436f6e74726163743a206c656e677468206d69736d617463682e00000000604082015260600190565b600082821015612b3c57612b3c612a94565b500390565b634e487b7160e01b600052603160045260246000fd5b6000808335601e19843603018112612b6e57600080fd5b83018035915067ffffffffffffffff821115612b8957600080fd5b6020019150600581901b360382131561196f57600080fd5b600181811c90821680612bb557607f821691505b60208210811415612bd657634e487b7160e01b600052602260045260246000fd5b50919050565b600060208284031215612bee57600080fd5b815161271181612903565b634e487b7160e01b600052604160045260246000fd5b60006020808385031215612c2257600080fd5b825167ffffffffffffffff80821115612c3a57600080fd5b818501915085601f830112612c4e57600080fd5b815181811115612c6057612c60612bf9565b8060051b604051601f19603f83011681018181108582111715612c8557612c85612bf9565b604052918252848201925083810185019188831115612ca357600080fd5b938501935b82851015612cc157845184529385019392850192612ca8565b98975050505050505050565b6020808252602b908201527f496e697469616c697a61626c653a20636f6e7472616374206973206e6f74206960408201526a6e697469616c697a696e6760a81b60608201526080019056fea2646970667358221220fb27bdf277443b368be6c774446e715706cab3a32ca510878b07a1d64a99c64864736f6c63430008090033",
  "devdoc": {
    "kind": "dev",
    "methods": {
      "owner()": {
        "details": "Returns the address of the current owner."
      },
      "renounceOwnership()": {
        "details": "Leaves the contract without owner. It will not be possible to call `onlyOwner` functions anymore. Can only be called by the current owner. NOTE: Renouncing ownership will leave the contract without an owner, thereby removing any functionality that is only available to the owner."
      },
      "transferOwnership(address)": {
        "details": "Transfers ownership of the contract to a new account (`newOwner`). Can only be called by the current owner."
      }
    },
    "version": 1
  },
  "userdoc": {
    "kind": "user",
    "methods": {
      "setAttributeLevelThreshold(uint8,uint256[])": {
        "notice": "CA: [100, 500, 1000 ... ]"
      }
    },
    "version": 1
  },
  "storageLayout": {
    "storage": [
      {
        "astId": 138,
        "contract": "contracts/DBContract.sol:DBContract",
        "label": "_initialized",
        "offset": 0,
        "slot": "0",
        "type": "t_uint8"
      },
      {
        "astId": 141,
        "contract": "contracts/DBContract.sol:DBContract",
        "label": "_initializing",
        "offset": 1,
        "slot": "0",
        "type": "t_bool"
      },
      {
        "astId": 3230,
        "contract": "contracts/DBContract.sol:DBContract",
        "label": "__gap",
        "offset": 0,
        "slot": "1",
        "type": "t_array(t_uint256)50_storage"
      },
      {
        "astId": 10,
        "contract": "contracts/DBContract.sol:DBContract",
        "label": "_owner",
        "offset": 0,
        "slot": "51",
        "type": "t_address"
      },
      {
        "astId": 130,
        "contract": "contracts/DBContract.sol:DBContract",
        "label": "__gap",
        "offset": 0,
        "slot": "52",
        "type": "t_array(t_uint256)49_storage"
      },
      {
        "astId": 4136,
        "contract": "contracts/DBContract.sol:DBContract",
        "label": "LYNK_TOKEN",
        "offset": 0,
        "slot": "101",
        "type": "t_address"
      },
      {
        "astId": 4138,
        "contract": "contracts/DBContract.sol:DBContract",
        "label": "AP_TOKEN",
        "offset": 0,
        "slot": "102",
        "type": "t_address"
      },
      {
        "astId": 4140,
        "contract": "contracts/DBContract.sol:DBContract",
        "label": "STAKING",
        "offset": 0,
        "slot": "103",
        "type": "t_address"
      },
      {
        "astId": 4142,
        "contract": "contracts/DBContract.sol:DBContract",
        "label": "USER_INFO",
        "offset": 0,
        "slot": "104",
        "type": "t_address"
      },
      {
        "astId": 4144,
        "contract": "contracts/DBContract.sol:DBContract",
        "label": "LYNKNFT",
        "offset": 0,
        "slot": "105",
        "type": "t_address"
      },
      {
        "astId": 4146,
        "contract": "contracts/DBContract.sol:DBContract",
        "label": "STAKING_LYNKNFT",
        "offset": 0,
        "slot": "106",
        "type": "t_address"
      },
      {
        "astId": 4148,
        "contract": "contracts/DBContract.sol:DBContract",
        "label": "LISTED_LYNKNFT",
        "offset": 0,
        "slot": "107",
        "type": "t_address"
      },
      {
        "astId": 4150,
        "contract": "contracts/DBContract.sol:DBContract",
        "label": "MARKET",
        "offset": 0,
        "slot": "108",
        "type": "t_address"
      },
      {
        "astId": 4152,
        "contract": "contracts/DBContract.sol:DBContract",
        "label": "TEAM_ADDR",
        "offset": 0,
        "slot": "109",
        "type": "t_address"
      },
      {
        "astId": 4154,
        "contract": "contracts/DBContract.sol:DBContract",
        "label": "operator",
        "offset": 0,
        "slot": "110",
        "type": "t_address"
      },
      {
        "astId": 4157,
        "contract": "contracts/DBContract.sol:DBContract",
        "label": "mintPrices",
        "offset": 0,
        "slot": "111",
        "type": "t_array(t_uint256)dyn_storage"
      },
      {
        "astId": 4159,
        "contract": "contracts/DBContract.sol:DBContract",
        "label": "maxMintPerDayPerAddress",
        "offset": 0,
        "slot": "112",
        "type": "t_uint256"
      },
      {
        "astId": 4161,
        "contract": "contracts/DBContract.sol:DBContract",
        "label": "baseTokenURI",
        "offset": 0,
        "slot": "113",
        "type": "t_string_storage"
      },
      {
        "astId": 4165,
        "contract": "contracts/DBContract.sol:DBContract",
        "label": "attributeLevelThreshold",
        "offset": 0,
        "slot": "114",
        "type": "t_array(t_array(t_uint256)dyn_storage)dyn_storage"
      },
      {
        "astId": 4167,
        "contract": "contracts/DBContract.sol:DBContract",
        "label": "maxVAAddPerDayPerToken",
        "offset": 0,
        "slot": "115",
        "type": "t_uint256"
      },
      {
        "astId": 4170,
        "contract": "contracts/DBContract.sol:DBContract",
        "label": "acceptTokens",
        "offset": 0,
        "slot": "116",
        "type": "t_array(t_address)dyn_storage"
      },
      {
        "astId": 4172,
        "contract": "contracts/DBContract.sol:DBContract",
        "label": "sellingLevelLimit",
        "offset": 0,
        "slot": "117",
        "type": "t_uint256"
      },
      {
        "astId": 4174,
        "contract": "contracts/DBContract.sol:DBContract",
        "label": "tradingFee",
        "offset": 0,
        "slot": "118",
        "type": "t_uint256"
      },
      {
        "astId": 4176,
        "contract": "contracts/DBContract.sol:DBContract",
        "label": "rootAddress",
        "offset": 0,
        "slot": "119",
        "type": "t_address"
      },
      {
        "astId": 4179,
        "contract": "contracts/DBContract.sol:DBContract",
        "label": "directRequirements",
        "offset": 0,
        "slot": "120",
        "type": "t_array(t_uint256)dyn_storage"
      },
      {
        "astId": 4182,
        "contract": "contracts/DBContract.sol:DBContract",
        "label": "performanceRequirements",
        "offset": 0,
        "slot": "121",
        "type": "t_array(t_uint256)dyn_storage"
      },
      {
        "astId": 4185,
        "contract": "contracts/DBContract.sol:DBContract",
        "label": "socialRewardRates",
        "offset": 0,
        "slot": "122",
        "type": "t_array(t_uint256)dyn_storage"
      },
      {
        "astId": 4187,
        "contract": "contracts/DBContract.sol:DBContract",
        "label": "contributionRewardThreshold",
        "offset": 0,
        "slot": "123",
        "type": "t_uint256"
      },
      {
        "astId": 4190,
        "contract": "contracts/DBContract.sol:DBContract",
        "label": "contributionRewardAmounts",
        "offset": 0,
        "slot": "124",
        "type": "t_array(t_uint256)dyn_storage"
      },
      {
        "astId": 4192,
        "contract": "contracts/DBContract.sol:DBContract",
        "label": "maxInvitationLevel",
        "offset": 0,
        "slot": "125",
        "type": "t_uint256"
      },
      {
        "astId": 4197,
        "contract": "contracts/DBContract.sol:DBContract",
        "label": "communityRewardRates",
        "offset": 0,
        "slot": "126",
        "type": "t_mapping(t_uint256,t_array(t_uint256)dyn_storage)"
      },
      {
        "astId": 4199,
        "contract": "contracts/DBContract.sol:DBContract",
        "label": "achievementRewardLevelThreshold",
        "offset": 0,
        "slot": "127",
        "type": "t_uint256"
      },
      {
        "astId": 4201,
        "contract": "contracts/DBContract.sol:DBContract",
        "label": "achievementRewardDurationThreshold",
        "offset": 0,
        "slot": "128",
        "type": "t_uint256"
      },
      {
        "astId": 4204,
        "contract": "contracts/DBContract.sol:DBContract",
        "label": "achievementRewardAmounts",
        "offset": 0,
        "slot": "129",
        "type": "t_array(t_uint256)dyn_storage"
      },
      {
        "astId": 4208,
        "contract": "contracts/DBContract.sol:DBContract",
        "label": "sellingPackages",
        "offset": 0,
        "slot": "130",
        "type": "t_array(t_array(t_uint256)dyn_storage)dyn_storage"
      },
      {
        "astId": 4210,
        "contract": "contracts/DBContract.sol:DBContract",
        "label": "duration",
        "offset": 0,
        "slot": "131",
        "type": "t_uint256"
      },
      {
        "astId": 4213,
        "contract": "contracts/DBContract.sol:DBContract",
        "label": "maxVAAddPerDayPerTokens",
        "offset": 0,
        "slot": "132",
        "type": "t_array(t_uint256)dyn_storage"
      },
      {
        "astId": 4215,
        "contract": "contracts/DBContract.sol:DBContract",
        "label": "performanceThreshold",
        "offset": 0,
        "slot": "133",
        "type": "t_uint256"
      },
      {
        "astId": 4217,
        "contract": "contracts/DBContract.sol:DBContract",
        "label": "earlyBirdInitCA",
        "offset": 0,
        "slot": "134",
        "type": "t_uint256"
      },
      {
        "astId": 4219,
        "contract": "contracts/DBContract.sol:DBContract",
        "label": "earlyBirdMintStartId",
        "offset": 0,
        "slot": "135",
        "type": "t_uint256"
      },
      {
        "astId": 4221,
        "contract": "contracts/DBContract.sol:DBContract",
        "label": "earlyBirdMintEndId",
        "offset": 0,
        "slot": "136",
        "type": "t_uint256"
      },
      {
        "astId": 4223,
        "contract": "contracts/DBContract.sol:DBContract",
        "label": "earlyBirdMintPayment",
        "offset": 0,
        "slot": "137",
        "type": "t_address"
      },
      {
        "astId": 4225,
        "contract": "contracts/DBContract.sol:DBContract",
        "label": "earlyBirdMintPriceInPayment",
        "offset": 0,
        "slot": "138",
        "type": "t_uint256"
      },
      {
        "astId": 4227,
        "contract": "contracts/DBContract.sol:DBContract",
        "label": "earlyBirdMintEnable",
        "offset": 0,
        "slot": "139",
        "type": "t_bool"
      },
      {
        "astId": 4229,
        "contract": "contracts/DBContract.sol:DBContract",
        "label": "commonMintEnable",
        "offset": 1,
        "slot": "139",
        "type": "t_bool"
      }
    ],
    "types": {
      "t_address": {
        "encoding": "inplace",
        "label": "address",
        "numberOfBytes": "20"
      },
      "t_array(t_address)dyn_storage": {
        "base": "t_address",
        "encoding": "dynamic_array",
        "label": "address[]",
        "numberOfBytes": "32"
      },
      "t_array(t_array(t_uint256)dyn_storage)dyn_storage": {
        "base": "t_array(t_uint256)dyn_storage",
        "encoding": "dynamic_array",
        "label": "uint256[][]",
        "numberOfBytes": "32"
      },
      "t_array(t_uint256)49_storage": {
        "base": "t_uint256",
        "encoding": "inplace",
        "label": "uint256[49]",
        "numberOfBytes": "1568"
      },
      "t_array(t_uint256)50_storage": {
        "base": "t_uint256",
        "encoding": "inplace",
        "label": "uint256[50]",
        "numberOfBytes": "1600"
      },
      "t_array(t_uint256)dyn_storage": {
        "base": "t_uint256",
        "encoding": "dynamic_array",
        "label": "uint256[]",
        "numberOfBytes": "32"
      },
      "t_bool": {
        "encoding": "inplace",
        "label": "bool",
        "numberOfBytes": "1"
      },
      "t_mapping(t_uint256,t_array(t_uint256)dyn_storage)": {
        "encoding": "mapping",
        "key": "t_uint256",
        "label": "mapping(uint256 => uint256[])",
        "numberOfBytes": "32",
        "value": "t_array(t_uint256)dyn_storage"
      },
      "t_string_storage": {
        "encoding": "bytes",
        "label": "string",
        "numberOfBytes": "32"
      },
      "t_uint256": {
        "encoding": "inplace",
        "label": "uint256",
        "numberOfBytes": "32"
      },
      "t_uint8": {
        "encoding": "inplace",
        "label": "uint8",
        "numberOfBytes": "1"
      }
    }
  }
}