{
  "address": "0xB941bf264cc4e13743bbb6576A7d4df346F25351",
  "abi": [
    {
      "inputs": [
        {
          "internalType": "address",
          "name": "_usdtToken",
          "type": "address"
        }
      ],
      "stateMutability": "nonpayable",
      "type": "constructor"
    },
    {
      "anonymous": false,
      "inputs": [
        {
          "indexed": false,
          "internalType": "uint8",
          "name": "version",
          "type": "uint8"
        }
      ],
      "name": "Initialized",
      "type": "event"
    },
    {
      "anonymous": false,
      "inputs": [
        {
          "indexed": true,
          "internalType": "address",
          "name": "previousOwner",
          "type": "address"
        },
        {
          "indexed": true,
          "internalType": "address",
          "name": "newOwner",
          "type": "address"
        }
      ],
      "name": "OwnershipTransferred",
      "type": "event"
    },
    {
      "inputs": [],
      "name": "AP_TOKEN",
      "outputs": [
        {
          "internalType": "address",
          "name": "",
          "type": "address"
        }
      ],
      "stateMutability": "view",
      "type": "function"
    },
    {
      "inputs": [],
      "name": "LISTED_LYNKNFT",
      "outputs": [
        {
          "internalType": "address",
          "name": "",
          "type": "address"
        }
      ],
      "stateMutability": "view",
      "type": "function"
    },
    {
      "inputs": [],
      "name": "LYNKNFT",
      "outputs": [
        {
          "internalType": "address",
          "name": "",
          "type": "address"
        }
      ],
      "stateMutability": "view",
      "type": "function"
    },
    {
      "inputs": [],
      "name": "LYNK_TOKEN",
      "outputs": [
        {
          "internalType": "address",
          "name": "",
          "type": "address"
        }
      ],
      "stateMutability": "view",
      "type": "function"
    },
    {
      "inputs": [],
      "name": "MARKET",
      "outputs": [
        {
          "internalType": "address",
          "name": "",
          "type": "address"
        }
      ],
      "stateMutability": "view",
      "type": "function"
    },
    {
      "inputs": [],
      "name": "STAKING",
      "outputs": [
        {
          "internalType": "address",
          "name": "",
          "type": "address"
        }
      ],
      "stateMutability": "view",
      "type": "function"
    },
    {
      "inputs": [],
      "name": "STAKING_LYNKNFT",
      "outputs": [
        {
          "internalType": "address",
          "name": "",
          "type": "address"
        }
      ],
      "stateMutability": "view",
      "type": "function"
    },
    {
      "inputs": [],
      "name": "TEAM_ADDR",
      "outputs": [
        {
          "internalType": "address",
          "name": "",
          "type": "address"
        }
      ],
      "stateMutability": "view",
      "type": "function"
    },
    {
      "inputs": [],
      "name": "USDT_TOKEN",
      "outputs": [
        {
          "internalType": "address",
          "name": "",
          "type": "address"
        }
      ],
      "stateMutability": "view",
      "type": "function"
    },
    {
      "inputs": [],
      "name": "USER_INFO",
      "outputs": [
        {
          "internalType": "address",
          "name": "",
          "type": "address"
        }
      ],
      "stateMutability": "view",
      "type": "function"
    },
    {
      "inputs": [
        {
          "internalType": "address[]",
          "name": "_addresses",
          "type": "address[]"
        }
      ],
      "name": "__DBContract_init",
      "outputs": [],
      "stateMutability": "nonpayable",
      "type": "function"
    },
    {
      "inputs": [],
      "name": "acceptTokenLength",
      "outputs": [
        {
          "internalType": "uint256",
          "name": "",
          "type": "uint256"
        }
      ],
      "stateMutability": "view",
      "type": "function"
    },
    {
      "inputs": [
        {
          "internalType": "uint256",
          "name": "",
          "type": "uint256"
        }
      ],
      "name": "acceptTokens",
      "outputs": [
        {
          "internalType": "address",
          "name": "",
          "type": "address"
        }
      ],
      "stateMutability": "view",
      "type": "function"
    },
    {
      "inputs": [
        {
          "internalType": "uint256",
          "name": "",
          "type": "uint256"
        }
      ],
      "name": "achievementRewardAmounts",
      "outputs": [
        {
          "internalType": "uint256",
          "name": "",
          "type": "uint256"
        }
      ],
      "stateMutability": "view",
      "type": "function"
    },
    {
      "inputs": [],
      "name": "achievementRewardAmountsNum",
      "outputs": [
        {
          "internalType": "uint256",
          "name": "",
          "type": "uint256"
        }
      ],
      "stateMutability": "view",
      "type": "function"
    },
    {
      "inputs": [],
      "name": "achievementRewardDurationThreshold",
      "outputs": [
        {
          "internalType": "uint256",
          "name": "",
          "type": "uint256"
        }
      ],
      "stateMutability": "view",
      "type": "function"
    },
    {
      "inputs": [],
      "name": "achievementRewardLevelThreshold",
      "outputs": [
        {
          "internalType": "uint256",
          "name": "",
          "type": "uint256"
        }
      ],
      "stateMutability": "view",
      "type": "function"
    },
    {
      "inputs": [
        {
          "internalType": "uint256",
          "name": "",
          "type": "uint256"
        },
        {
          "internalType": "uint256",
          "name": "",
          "type": "uint256"
        }
      ],
      "name": "attributeLevelThreshold",
      "outputs": [
        {
          "internalType": "uint256",
          "name": "",
          "type": "uint256"
        }
      ],
      "stateMutability": "view",
      "type": "function"
    },
    {
      "inputs": [],
      "name": "attributeLevelThresholdNum",
      "outputs": [
        {
          "internalType": "uint256",
          "name": "",
          "type": "uint256"
        }
      ],
      "stateMutability": "view",
      "type": "function"
    },
    {
      "inputs": [
        {
          "internalType": "uint256",
          "name": "index",
          "type": "uint256"
        }
      ],
      "name": "attributeLevelThresholdNumByIndex",
      "outputs": [
        {
          "internalType": "uint256",
          "name": "",
          "type": "uint256"
        }
      ],
      "stateMutability": "view",
      "type": "function"
    },
    {
      "inputs": [],
      "name": "baseTokenURI",
      "outputs": [
        {
          "internalType": "string",
          "name": "",
          "type": "string"
        }
      ],
      "stateMutability": "view",
      "type": "function"
    },
    {
      "inputs": [
        {
          "internalType": "enum ILYNKNFT.Attribute",
          "name": "_attr",
          "type": "uint8"
        },
        {
          "internalType": "uint256",
          "name": "_point",
          "type": "uint256"
        }
      ],
      "name": "calcLevel",
      "outputs": [
        {
          "internalType": "uint256",
          "name": "level",
          "type": "uint256"
        },
        {
          "internalType": "uint256",
          "name": "overflow",
          "type": "uint256"
        }
      ],
      "stateMutability": "view",
      "type": "function"
    },
    {
      "inputs": [
        {
          "internalType": "uint256",
          "name": "_tokenId",
          "type": "uint256"
        }
      ],
      "name": "calcTokenLevel",
      "outputs": [
        {
          "internalType": "uint256",
          "name": "level",
          "type": "uint256"
        }
      ],
      "stateMutability": "view",
      "type": "function"
    },
    {
      "inputs": [
        {
          "internalType": "enum IUser.Level",
          "name": "_level",
          "type": "uint8"
        },
        {
          "internalType": "uint256",
          "name": "_invitationLevel",
          "type": "uint256"
        }
      ],
      "name": "communityRewardRate",
      "outputs": [
        {
          "internalType": "uint256",
          "name": "",
          "type": "uint256"
        }
      ],
      "stateMutability": "view",
      "type": "function"
    },
    {
      "inputs": [
        {
          "internalType": "uint256",
          "name": "",
          "type": "uint256"
        },
        {
          "internalType": "uint256",
          "name": "",
          "type": "uint256"
        }
      ],
      "name": "communityRewardRates",
      "outputs": [
        {
          "internalType": "uint256",
          "name": "",
          "type": "uint256"
        }
      ],
      "stateMutability": "view",
      "type": "function"
    },
    {
      "inputs": [
        {
          "internalType": "enum IUser.Level",
          "name": "_level",
          "type": "uint8"
        }
      ],
      "name": "communityRewardRatesNumByLevel",
      "outputs": [
        {
          "internalType": "uint256",
          "name": "",
          "type": "uint256"
        }
      ],
      "stateMutability": "view",
      "type": "function"
    },
    {
      "inputs": [
        {
          "internalType": "uint256",
          "name": "",
          "type": "uint256"
        }
      ],
      "name": "contributionRewardAmounts",
      "outputs": [
        {
          "internalType": "uint256",
          "name": "",
          "type": "uint256"
        }
      ],
      "stateMutability": "view",
      "type": "function"
    },
    {
      "inputs": [],
      "name": "contributionRewardAmountsNum",
      "outputs": [
        {
          "internalType": "uint256",
          "name": "",
          "type": "uint256"
        }
      ],
      "stateMutability": "view",
      "type": "function"
    },
    {
      "inputs": [],
      "name": "contributionRewardThreshold",
      "outputs": [
        {
          "internalType": "uint256",
          "name": "",
          "type": "uint256"
        }
      ],
      "stateMutability": "view",
      "type": "function"
    },
    {
      "inputs": [
        {
          "internalType": "uint256",
          "name": "",
          "type": "uint256"
        }
      ],
      "name": "directRequirements",
      "outputs": [
        {
          "internalType": "uint256",
          "name": "",
          "type": "uint256"
        }
      ],
      "stateMutability": "view",
      "type": "function"
    },
    {
      "inputs": [],
      "name": "directRequirementsNum",
      "outputs": [
        {
          "internalType": "uint256",
          "name": "",
          "type": "uint256"
        }
      ],
      "stateMutability": "view",
      "type": "function"
    },
    {
      "inputs": [],
      "name": "duration",
      "outputs": [
        {
          "internalType": "uint256",
          "name": "",
          "type": "uint256"
        }
      ],
      "stateMutability": "view",
      "type": "function"
    },
    {
      "inputs": [
        {
          "internalType": "uint256",
          "name": "_nftId",
          "type": "uint256"
        }
      ],
      "name": "hasAchievementReward",
      "outputs": [
        {
          "internalType": "bool",
          "name": "",
          "type": "bool"
        }
      ],
      "stateMutability": "view",
      "type": "function"
    },
    {
      "inputs": [
        {
          "internalType": "address",
          "name": "_token",
          "type": "address"
        }
      ],
      "name": "isAcceptToken",
      "outputs": [
        {
          "internalType": "bool",
          "name": "",
          "type": "bool"
        }
      ],
      "stateMutability": "view",
      "type": "function"
    },
    {
      "inputs": [],
      "name": "maxInvitationLevel",
      "outputs": [
        {
          "internalType": "uint256",
          "name": "",
          "type": "uint256"
        }
      ],
      "stateMutability": "view",
      "type": "function"
    },
    {
      "inputs": [],
      "name": "maxMintPerDayPerAddress",
      "outputs": [
        {
          "internalType": "uint256",
          "name": "",
          "type": "uint256"
        }
      ],
      "stateMutability": "view",
      "type": "function"
    },
    {
      "inputs": [
        {
          "internalType": "uint256",
          "name": "_tokenId",
          "type": "uint256"
        }
      ],
      "name": "maxVAAddPerDayByTokenId",
      "outputs": [
        {
          "internalType": "uint256",
          "name": "",
          "type": "uint256"
        }
      ],
      "stateMutability": "view",
      "type": "function"
    },
    {
      "inputs": [],
      "name": "maxVAAddPerDayPerToken",
      "outputs": [
        {
          "internalType": "uint256",
          "name": "",
          "type": "uint256"
        }
      ],
      "stateMutability": "view",
      "type": "function"
    },
    {
      "inputs": [
        {
          "internalType": "uint256",
          "name": "",
          "type": "uint256"
        }
      ],
      "name": "maxVAAddPerDayPerTokens",
      "outputs": [
        {
          "internalType": "uint256",
          "name": "",
          "type": "uint256"
        }
      ],
      "stateMutability": "view",
      "type": "function"
    },
    {
      "inputs": [],
      "name": "maxVAAddPerDayPerTokensNum",
      "outputs": [
        {
          "internalType": "uint256",
          "name": "",
          "type": "uint256"
        }
      ],
      "stateMutability": "view",
      "type": "function"
    },
    {
      "inputs": [
        {
          "internalType": "uint256",
          "name": "",
          "type": "uint256"
        }
      ],
      "name": "mintPrices",
      "outputs": [
        {
          "internalType": "uint256",
          "name": "",
          "type": "uint256"
        }
      ],
      "stateMutability": "view",
      "type": "function"
    },
    {
      "inputs": [],
      "name": "mintPricesNum",
      "outputs": [
        {
          "internalType": "uint256",
          "name": "",
          "type": "uint256"
        }
      ],
      "stateMutability": "view",
      "type": "function"
    },
    {
      "inputs": [],
      "name": "operator",
      "outputs": [
        {
          "internalType": "address",
          "name": "",
          "type": "address"
        }
      ],
      "stateMutability": "view",
      "type": "function"
    },
    {
      "inputs": [],
      "name": "owner",
      "outputs": [
        {
          "internalType": "address",
          "name": "",
          "type": "address"
        }
      ],
      "stateMutability": "view",
      "type": "function"
    },
    {
      "inputs": [
        {
          "internalType": "uint256",
          "name": "_index",
          "type": "uint256"
        }
      ],
      "name": "packageByIndex",
      "outputs": [
        {
          "internalType": "uint256[]",
          "name": "",
          "type": "uint256[]"
        }
      ],
      "stateMutability": "view",
      "type": "function"
    },
    {
      "inputs": [],
      "name": "packageLength",
      "outputs": [
        {
          "internalType": "uint256",
          "name": "",
          "type": "uint256"
        }
      ],
      "stateMutability": "view",
      "type": "function"
    },
    {
      "inputs": [
        {
          "internalType": "uint256",
          "name": "",
          "type": "uint256"
        }
      ],
      "name": "performanceRequirements",
      "outputs": [
        {
          "internalType": "uint256",
          "name": "",
          "type": "uint256"
        }
      ],
      "stateMutability": "view",
      "type": "function"
    },
    {
      "inputs": [],
      "name": "performanceRequirementsNum",
      "outputs": [
        {
          "internalType": "uint256",
          "name": "",
          "type": "uint256"
        }
      ],
      "stateMutability": "view",
      "type": "function"
    },
    {
      "inputs": [],
      "name": "performanceThreshold",
      "outputs": [
        {
          "internalType": "uint256",
          "name": "",
          "type": "uint256"
        }
      ],
      "stateMutability": "view",
      "type": "function"
    },
    {
      "inputs": [
        {
          "internalType": "uint256",
          "name": "_index",
          "type": "uint256"
        }
      ],
      "name": "removeAcceptToken",
      "outputs": [],
      "stateMutability": "nonpayable",
      "type": "function"
    },
    {
      "inputs": [],
      "name": "renounceOwnership",
      "outputs": [],
      "stateMutability": "nonpayable",
      "type": "function"
    },
    {
      "inputs": [],
      "name": "rootAddress",
      "outputs": [
        {
          "internalType": "address",
          "name": "",
          "type": "address"
        }
      ],
      "stateMutability": "view",
      "type": "function"
    },
    {
      "inputs": [],
      "name": "sellingLevelLimit",
      "outputs": [
        {
          "internalType": "uint256",
          "name": "",
          "type": "uint256"
        }
      ],
      "stateMutability": "view",
      "type": "function"
    },
    {
      "inputs": [
        {
          "internalType": "uint256",
          "name": "",
          "type": "uint256"
        },
        {
          "internalType": "uint256",
          "name": "",
          "type": "uint256"
        }
      ],
      "name": "sellingPackages",
      "outputs": [
        {
          "internalType": "uint256",
          "name": "",
          "type": "uint256"
        }
      ],
      "stateMutability": "view",
      "type": "function"
    },
    {
      "inputs": [
        {
          "internalType": "address",
          "name": "_acceptToken",
          "type": "address"
        }
      ],
      "name": "setAcceptToken",
      "outputs": [],
      "stateMutability": "nonpayable",
      "type": "function"
    },
    {
      "inputs": [
        {
          "internalType": "uint256[]",
          "name": "_amounts",
          "type": "uint256[]"
        }
      ],
      "name": "setAchievementRewardAmounts",
      "outputs": [],
      "stateMutability": "nonpayable",
      "type": "function"
    },
    {
      "inputs": [
        {
          "internalType": "uint256",
          "name": "_achievementRewardDurationThreshold",
          "type": "uint256"
        }
      ],
      "name": "setAchievementRewardDurationThreshold",
      "outputs": [],
      "stateMutability": "nonpayable",
      "type": "function"
    },
    {
      "inputs": [
        {
          "internalType": "uint256",
          "name": "_achievementRewardLevelThreshold",
          "type": "uint256"
        }
      ],
      "name": "setAchievementRewardLevelThreshold",
      "outputs": [],
      "stateMutability": "nonpayable",
      "type": "function"
    },
    {
      "inputs": [
        {
          "internalType": "address[]",
          "name": "_addresses",
          "type": "address[]"
        }
      ],
      "name": "setAddresses",
      "outputs": [],
      "stateMutability": "nonpayable",
      "type": "function"
    },
    {
      "inputs": [
        {
          "internalType": "enum ILYNKNFT.Attribute",
          "name": "_attr",
          "type": "uint8"
        },
        {
          "internalType": "uint256[]",
          "name": "_thresholds",
          "type": "uint256[]"
        }
      ],
      "name": "setAttributeLevelThreshold",
      "outputs": [],
      "stateMutability": "nonpayable",
      "type": "function"
    },
    {
      "inputs": [
        {
          "internalType": "string",
          "name": "_baseTokenURI",
          "type": "string"
        }
      ],
      "name": "setBaseTokenURI",
      "outputs": [],
      "stateMutability": "nonpayable",
      "type": "function"
    },
    {
      "inputs": [
        {
          "internalType": "enum IUser.Level",
          "name": "_level",
          "type": "uint8"
        },
        {
          "internalType": "uint256[]",
          "name": "_rates",
          "type": "uint256[]"
        }
      ],
      "name": "setCommunityRewardRates",
      "outputs": [],
      "stateMutability": "nonpayable",
      "type": "function"
    },
    {
      "inputs": [
        {
          "internalType": "uint256[]",
          "name": "_amounts",
          "type": "uint256[]"
        }
      ],
      "name": "setContributionRewardAmounts",
      "outputs": [],
      "stateMutability": "nonpayable",
      "type": "function"
    },
    {
      "inputs": [
        {
          "internalType": "uint256",
          "name": "_contributionRewardThreshold",
          "type": "uint256"
        }
      ],
      "name": "setContributionRewardThreshold",
      "outputs": [],
      "stateMutability": "nonpayable",
      "type": "function"
    },
    {
      "inputs": [
        {
          "internalType": "uint256[]",
          "name": "_requirements",
          "type": "uint256[]"
        }
      ],
      "name": "setDirectRequirements",
      "outputs": [],
      "stateMutability": "nonpayable",
      "type": "function"
    },
    {
      "inputs": [
        {
          "internalType": "uint256",
          "name": "_duration",
          "type": "uint256"
        }
      ],
      "name": "setDuration",
      "outputs": [],
      "stateMutability": "nonpayable",
      "type": "function"
    },
    {
      "inputs": [
        {
          "internalType": "uint256",
          "name": "_maxMintPerDayPerAddress",
          "type": "uint256"
        }
      ],
      "name": "setMaxMintPerDayPerAddress",
      "outputs": [],
      "stateMutability": "nonpayable",
      "type": "function"
    },
    {
      "inputs": [
        {
          "internalType": "uint256",
          "name": "_maxVAAddPerDayPerToken",
          "type": "uint256"
        }
      ],
      "name": "setMaxVAAddPerDayPerToken",
      "outputs": [],
      "stateMutability": "nonpayable",
      "type": "function"
    },
    {
      "inputs": [
        {
          "internalType": "uint256[]",
          "name": "_maxVAAddPerDayPerTokens",
          "type": "uint256[]"
        }
      ],
      "name": "setMaxVAAddPerDayPerTokens",
      "outputs": [],
      "stateMutability": "nonpayable",
      "type": "function"
    },
    {
      "inputs": [
        {
          "internalType": "uint256[]",
          "name": "_mintPrices",
          "type": "uint256[]"
        }
      ],
      "name": "setMintPrices",
      "outputs": [],
      "stateMutability": "nonpayable",
      "type": "function"
    },
    {
      "inputs": [
        {
          "internalType": "address",
          "name": "_operator",
          "type": "address"
        }
      ],
      "name": "setOperator",
      "outputs": [],
      "stateMutability": "nonpayable",
      "type": "function"
    },
    {
      "inputs": [
        {
          "internalType": "uint256[]",
          "name": "_requirements",
          "type": "uint256[]"
        }
      ],
      "name": "setPerformanceRequirements",
      "outputs": [],
      "stateMutability": "nonpayable",
      "type": "function"
    },
    {
      "inputs": [
        {
          "internalType": "uint256",
          "name": "_performanceThreshold",
          "type": "uint256"
        }
      ],
      "name": "setPerformanceThreshold",
      "outputs": [],
      "stateMutability": "nonpayable",
      "type": "function"
    },
    {
      "inputs": [
        {
          "internalType": "address",
          "name": "_rootAddress",
          "type": "address"
        }
      ],
      "name": "setRootAddress",
      "outputs": [],
      "stateMutability": "nonpayable",
      "type": "function"
    },
    {
      "inputs": [
        {
          "internalType": "uint256",
          "name": "_sellingLevelLimit",
          "type": "uint256"
        }
      ],
      "name": "setSellingLevelLimit",
      "outputs": [],
      "stateMutability": "nonpayable",
      "type": "function"
    },
    {
      "inputs": [
        {
          "internalType": "uint256[][]",
          "name": "_packages",
          "type": "uint256[][]"
        }
      ],
      "name": "setSellingPackage",
      "outputs": [],
      "stateMutability": "nonpayable",
      "type": "function"
    },
    {
      "inputs": [
        {
          "internalType": "uint256[]",
          "name": "_rates",
          "type": "uint256[]"
        }
      ],
      "name": "setSocialRewardRates",
      "outputs": [],
      "stateMutability": "nonpayable",
      "type": "function"
    },
    {
      "inputs": [
        {
          "internalType": "uint256",
          "name": "_tradingFee",
          "type": "uint256"
        }
      ],
      "name": "setTradingFee",
      "outputs": [],
      "stateMutability": "nonpayable",
      "type": "function"
    },
    {
      "inputs": [
        {
          "internalType": "uint256",
          "name": "",
          "type": "uint256"
        }
      ],
      "name": "socialRewardRates",
      "outputs": [
        {
          "internalType": "uint256",
          "name": "",
          "type": "uint256"
        }
      ],
      "stateMutability": "view",
      "type": "function"
    },
    {
      "inputs": [],
      "name": "socialRewardRatesNum",
      "outputs": [
        {
          "internalType": "uint256",
          "name": "",
          "type": "uint256"
        }
      ],
      "stateMutability": "view",
      "type": "function"
    },
    {
      "inputs": [],
      "name": "tradingFee",
      "outputs": [
        {
          "internalType": "uint256",
          "name": "",
          "type": "uint256"
        }
      ],
      "stateMutability": "view",
      "type": "function"
    },
    {
      "inputs": [
        {
          "internalType": "address",
          "name": "newOwner",
          "type": "address"
        }
      ],
      "name": "transferOwnership",
      "outputs": [],
      "stateMutability": "nonpayable",
      "type": "function"
    }
  ],
  "transactionHash": "0xa982e2026de5c7b8b7a3955b202681493d5dee1ad21095e1431a88b272a9a316",
  "args": [
    "0x38B7CA6eD821bEf464Aa1BF080bf563efc0DEc1a"
  ],
  "numDeployments": 3,
  "solcInputHash": "f3a08f843da2b41b923efe565bcaf649",
  "bytecode": "0x60a06040523480156200001157600080fd5b5060405162002a6238038062002a62833981016040819052620000349162000046565b6001600160a01b031660805262000078565b6000602082840312156200005957600080fd5b81516001600160a01b03811681146200007157600080fd5b9392505050565b6080516129ce62000094600039600061070001526129ce6000f3fe608060405234801561001057600080fd5b50600436106104965760003560e01c80638136673f11610262578063bf57840311610151578063d42ecfc0116100ce578063f2fde38b11610092578063f2fde38b146109e0578063f46f16c2146109f3578063f6be71d114610a06578063fa1785fe14610a19578063fce3b86e14610a2c578063fd02f81f14610a3f57600080fd5b8063d42ecfc01461098a578063d547cfb71461099d578063e7073790146109b2578063ec214bbf146109c5578063f046bded146109d857600080fd5b8063cd0a174a11610115578063cd0a174a14610934578063d09586ac14610954578063d2110a091461095c578063d3f0f70d14610964578063d3f42b7c1461097757600080fd5b8063bf578403146108df578063c2e30dd0146108e8578063c6c08916146108fb578063c7650dd81461090e578063c8aca9d01461092157600080fd5b8063af4574c6116101df578063b35e1a0a116101a3578063b35e1a0a14610880578063b3a8f2a914610893578063b3ab15fb146108a6578063b589e51e146108b9578063b9571721146108cc57600080fd5b8063af4574c614610816578063af718c5514610829578063afe97ec11461083c578063b0d54bcf14610845578063b2cd99af1461085857600080fd5b80639ba544ed116102265780639ba544ed146107c15780639d51193e146107d45780639e77de27146107dd578063a5c158e3146107f0578063aaa2b8c81461080357600080fd5b80638136673f146107645780638da5cb5b146107775780638edcde7d1461078857806397610f301461079b57806399bcfdd3146107ae57600080fd5b806356c15c3911610389578063663d2c4e1161030657806377b2fb8e116102ca57806377b2fb8e146106f257806377b330c9146106fb5780637811dddd146107225780637a58a3f11461072b5780637af358991461073e5780637bbbdc2e1461075157600080fd5b8063663d2c4e1461069e5780636b81ffdb146106b15780636fda0652146106c4578063705064fd146106d7578063715018a6146106ea57600080fd5b80635f7d59c41161034d5780635f7d59c41461065e578063600a2f82146106675780636187b33e146106705780636241c2001461068357806362e6d38a1461068b57600080fd5b806356c15c391461060957806356f433521461061c578063570ca735146106255780635b487d9c146106385780635ce58dd41461064b57600080fd5b80633b87436b116104175780634c09df04116103db5780634c09df04146105bf5780634d678f29146105d25780634eb66e83146105e557806353000964146105ee57806354af9320146105f657600080fd5b80633b87436b146105605780633d902c801461057357806341d0992b1461058657806343e573b1146105995780634b89f9f7146105ac57600080fd5b80631faee8681161045e5780631faee868146105125780632eed8a591461051a57806330176e131461053d5780633256e7d414610550578063331163ce1461055857600080fd5b80630b00fd541461049b5780630fb5a6b4146104cb5780631451952b146104e25780631b56c29c146104f75780631edd6e871461050a575b600080fd5b606d546104ae906001600160a01b031681565b6040516001600160a01b0390911681526020015b60405180910390f35b6104d460835481565b6040519081526020016104c2565b6104f56104f03660046123c1565b610a47565b005b6104ae6105053660046123f1565b610b03565b6074546104d4565b6082546104d4565b61052d6105283660046123c1565b610b2d565b60405190151581526020016104c2565b6104f561054b36600461240a565b610b95565b607a546104d4565b606f546104d4565b6065546104ae906001600160a01b031681565b6104f56105813660046124c1565b610bd0565b6104f56105943660046124c1565b610c12565b6104f56105a73660046123c1565b610c7e565b6104f56105ba366004612517565b610d50565b6104d46105cd3660046123f1565b610f30565b6104d46105e0366004612579565b610f51565b6104d4607d5481565b6078546104d4565b6104f56106043660046124c1565b610fd2565b606b546104ae906001600160a01b031681565b6104d460765481565b606e546104ae906001600160a01b031681565b606a546104ae906001600160a01b031681565b6104f56106593660046124c1565b611034565b6104d460735481565b6104d460705481565b6104d461067e3660046123f1565b611127565b6079546104d4565b6104d46106993660046123f1565b611137565b6069546104ae906001600160a01b031681565b6104f56106bf3660046123f1565b61118b565b6104d46106d23660046123f1565b6111ba565b6104f56106e53660046123f1565b6111f2565b6104f56112e0565b6104d4607b5481565b6104ae7f000000000000000000000000000000000000000000000000000000000000000081565b6104d460805481565b6104d46107393660046123f1565b6112f4565b6104f561074c3660046124c1565b611304565b6104f561075f3660046124c1565b611370565b6104d46107723660046125a3565b61148c565b6033546001600160a01b03166104ae565b6104d46107963660046123f1565b6114c9565b6067546104ae906001600160a01b031681565b6104d46107bc3660046123f1565b6114d4565b6104f56107cf3660046123f1565b6114e4565b6104d4607f5481565b6104f56107eb3660046124c1565b611513565b6104f56107fe3660046123f1565b611575565b6077546104ae906001600160a01b031681565b6104d46108243660046123f1565b6115a4565b6104d46108373660046125a3565b6115b4565b6104d460755481565b6104f56108533660046123f1565b6115c4565b61086b6108663660046125c5565b611644565b604080519283526020830191909152016104c2565b6104f561088e3660046123f1565b61165d565b6104f56108a13660046123f1565b61168c565b6104f56108b43660046123c1565b6116bb565b6104f56108c73660046124c1565b6116e5565b6104f56108da3660046124c1565b611747565b6104d460855481565b6066546104ae906001600160a01b031681565b6104f56109093660046123f1565b61177f565b6104f561091c3660046124c1565b6117ae565b6104d461092f3660046125a3565b61188b565b6109476109423660046123f1565b6118a7565b6040516104c291906125e1565b6084546104d4565b607c546104d4565b61052d6109723660046123f1565b61196e565b6104d46109853660046123f1565b611984565b6104f56109983660046123f1565b611994565b6109a56119c3565b6040516104c29190612625565b6104f56109c036600461267a565b611a51565b6104d46109d3366004612698565b611ada565b6072546104d4565b6104f56109ee3660046123c1565b611b09565b606c546104ae906001600160a01b031681565b6104f5610a143660046123f1565b611b7f565b6068546104ae906001600160a01b031681565b6104d4610a3a3660046123f1565b611bae565b6081546104d4565b606e546001600160a01b03163314610a7a5760405162461bcd60e51b8152600401610a71906126b3565b60405180910390fd5b6001600160a01b038116610ae15760405162461bcd60e51b815260206004820152602860248201527f4442436f6e74726163743a20726f6f742063616e6e6f74206265207a65726f2060448201526730b2323932b9b99760c11b6064820152608401610a71565b607780546001600160a01b0319166001600160a01b0392909216919091179055565b60748181548110610b1357600080fd5b6000918252602090912001546001600160a01b0316905081565b607454600090815b81811015610b8b5760748181548110610b5057610b506126f9565b6000918252602090912001546001600160a01b0385811691161415610b79575060019392505050565b80610b8381612725565b915050610b35565b5060009392505050565b606e546001600160a01b03163314610bbf5760405162461bcd60e51b8152600401610a71906126b3565b610bcb60718383612295565b505050565b606e546001600160a01b03163314610bfa5760405162461bcd60e51b8152600401610a71906126b3565b610c0660846000612319565b610bcb60848383612337565b606e546001600160a01b03163314610c3c5760405162461bcd60e51b8152600401610a71906126b3565b610c4860056001612756565b8114610c665760405162461bcd60e51b8152600401610a719061276e565b610c72607c6000612319565b610bcb607c8383612337565b606e546001600160a01b03163314610ca85760405162461bcd60e51b8152600401610a71906126b3565b60745460005b81811015610cff5760748181548110610cc957610cc96126f9565b6000918252602090912001546001600160a01b0384811691161415610ced57505050565b80610cf781612725565b915050610cae565b5050607480546001810182556000919091527f19a0b39aa25ac793b5f6e9a0534364cc0b3fd1ea9b651e79c7f50a59d48ef8130180546001600160a01b0319166001600160a01b0383161790555b50565b606e546001600160a01b03163314610d7a5760405162461bcd60e51b8152600401610a71906126b3565b607254836003811115610d8f57610d8f612740565b1115610dad5760405162461bcd60e51b8152600401610a719061276e565b60005b81811015610e5a578015610e48578282610dcb6001846127a5565b818110610dda57610dda6126f9565b90506020020135838383818110610df357610df36126f9565b905060200201351015610e485760405162461bcd60e51b815260206004820152601f60248201527f4442436f6e74726163743a20696e76616c6964207468726573686f6c64732e006044820152606401610a71565b80610e5281612725565b915050610db0565b50826003811115610e6d57610e6d612740565b6072541415610eb95760728054600181018255600091909152610eb3907fdffbd64cc7c1a7eb27984335d9416d51137a03d3fabec7141025c62663253fe1018383612337565b50505050565b6072836003811115610ecd57610ecd612740565b81548110610edd57610edd6126f9565b906000526020600020016000610ef39190612319565b81816072856003811115610f0957610f09612740565b81548110610f1957610f196126f9565b906000526020600020019190610eb3929190612337565b60848181548110610f4057600080fd5b600091825260209091200154905081565b600081607e6000856005811115610f6a57610f6a612740565b81526020810191909152604001600020541115610fc857607e6000846005811115610f9757610f97612740565b81526020019081526020016000208281548110610fb657610fb66126f9565b90600052602060002001549050610fcc565b5060005b92915050565b606e546001600160a01b03163314610ffc5760405162461bcd60e51b8152600401610a71906126b3565b6005811461101c5760405162461bcd60e51b8152600401610a719061276e565b61102860796000612319565b610bcb60798383612337565b606e546001600160a01b0316331461105e5760405162461bcd60e51b8152600401610a71906126b3565b61106a60056001612756565b81146110885760405162461bcd60e51b8152600401610a719061276e565b611094607a6000612319565b60005b8181101561111a57670de0b6b3a76400008383838181106110ba576110ba6126f9565b9050602002013511156111085760405162461bcd60e51b8152602060048201526016602482015275222121b7b73a3930b1ba1d103a37b7903630b933b29760511b6044820152606401610a71565b8061111281612725565b915050611097565b50610bcb607a8383612337565b606f8181548110610f4057600080fd5b60008061114383611bbe565b608454909150611155906001906127a5565b8111156111655750600092915050565b60848181548110611178576111786126f9565b9060005260206000200154915050919050565b606e546001600160a01b031633146111b55760405162461bcd60e51b8152600401610a71906126b3565b607b55565b60725460009082106111cd576000610fcc565b607282815481106111e0576111e06126f9565b60009182526020909120015492915050565b606e546001600160a01b0316331461121c5760405162461bcd60e51b8152600401610a71906126b3565b60745461122a6001826127a5565b8210156112a957607461123e6001836127a5565b8154811061124e5761124e6126f9565b600091825260209091200154607480546001600160a01b03909216918490811061127a5761127a6126f9565b9060005260206000200160006101000a8154816001600160a01b0302191690836001600160a01b031602179055505b60748054806112ba576112ba6127bc565b600082815260209020810160001990810180546001600160a01b03191690550190555050565b6112e8611d88565b6112f26000611de2565b565b607a8181548110610f4057600080fd5b606e546001600160a01b0316331461132e5760405162461bcd60e51b8152600401610a71906126b3565b61133a60056001612756565b81146113585760405162461bcd60e51b8152600401610a719061276e565b61136460816000612319565b610bcb60818383612337565b600054610100900460ff16158080156113905750600054600160ff909116105b806113aa5750303b1580156113aa575060005460ff166001145b61140d5760405162461bcd60e51b815260206004820152602e60248201527f496e697469616c697a61626c653a20636f6e747261637420697320616c72656160448201526d191e481a5b9a5d1a585b1a5e995960921b6064820152608401610a71565b6000805460ff191660011790558015611430576000805461ff0019166101001790555b61143a8383611771565b611442611e34565b8015610bcb576000805461ff0019169055604051600181527f7f26b83ff96e1f2b6a682f133852f6798a09c465da95921460cefb38474024989060200160405180910390a1505050565b6072828154811061149c57600080fd5b9060005260206000200181815481106114b457600080fd5b90600052602060002001600091509150505481565b6000610fcc82611bbe565b60788181548110610f4057600080fd5b606e546001600160a01b0316331461150e5760405162461bcd60e51b8152600401610a71906126b3565b607f55565b606e546001600160a01b0316331461153d5760405162461bcd60e51b8152600401610a71906126b3565b6005811461155d5760405162461bcd60e51b8152600401610a719061276e565b61156960786000612319565b610bcb60788383612337565b606e546001600160a01b0316331461159f5760405162461bcd60e51b8152600401610a71906126b3565b607555565b60818181548110610f4057600080fd5b6082828154811061149c57600080fd5b606e546001600160a01b031633146115ee5760405162461bcd60e51b8152600401610a71906126b3565b670de0b6b3a764000081111561163f5760405162461bcd60e51b8152602060048201526016602482015275222121b7b73a3930b1ba1d103a37b7903630b933b29760511b6044820152606401610a71565b607655565b6000806116518484611e63565b915091505b9250929050565b606e546001600160a01b031633146116875760405162461bcd60e51b8152600401610a71906126b3565b608555565b606e546001600160a01b031633146116b65760405162461bcd60e51b8152600401610a71906126b3565b607055565b6116c3611d88565b606e80546001600160a01b0319166001600160a01b0392909216919091179055565b606e546001600160a01b0316331461170f5760405162461bcd60e51b8152600401610a71906126b3565b6003811461172f5760405162461bcd60e51b8152600401610a719061276e565b61173b606f6000612319565b610bcb606f8383612337565b606e546001600160a01b031633146117715760405162461bcd60e51b8152600401610a71906126b3565b61177b8282611f7a565b5050565b606e546001600160a01b031633146117a95760405162461bcd60e51b8152600401610a71906126b3565b607355565b606e546001600160a01b031633146117d85760405162461bcd60e51b8152600401610a71906126b3565b6117e460826000612371565b60005b81811015610bcb57828282818110611801576118016126f9565b905060200281019061181391906127d2565b90506003146118345760405162461bcd60e51b8152600401610a719061276e565b6082838383818110611848576118486126f9565b905060200281019061185a91906127d2565b82546001810184556000938452602090932061187893019190612337565b508061188381612725565b9150506117e7565b607e60205281600052604060002081815481106114b457600080fd5b60825460609082106118fb5760405162461bcd60e51b815260206004820181905260248201527f4442436f6e74726163743a20696e646578206f7574206f6620626f756e64732e6044820152606401610a71565b6082828154811061190e5761190e6126f9565b9060005260206000200180548060200260200160405190810160405280929190818152602001828054801561196257602002820191906000526020600020905b81548152602001906001019080831161194e575b50505050509050919050565b6000607f5461197c83611bbe565b101592915050565b60798181548110610f4057600080fd5b606e546001600160a01b031633146119be5760405162461bcd60e51b8152600401610a71906126b3565b608055565b607180546119d09061281c565b80601f01602080910402602001604051908101604052809291908181526020018280546119fc9061281c565b8015611a495780601f10611a1e57610100808354040283529160200191611a49565b820191906000526020600020905b815481529060010190602001808311611a2c57829003601f168201915b505050505081565b606e546001600160a01b03163314611a7b5760405162461bcd60e51b8152600401610a71906126b3565b6000836005811115611a8f57611a8f612740565b6000818152607e60205260408120919250611aaa9190612319565b607d54821115611aba57607d8290555b6000818152607e60205260409020611ad3908484612337565b5050505050565b6000607e6000836005811115611af257611af2612740565b815260208101919091526040016000205492915050565b611b11611d88565b6001600160a01b038116611b765760405162461bcd60e51b815260206004820152602660248201527f4f776e61626c653a206e6577206f776e657220697320746865207a65726f206160448201526564647265737360d01b6064820152608401610a71565b610d4d81611de2565b606e546001600160a01b03163314611ba95760405162461bcd60e51b8152600401610a71906126b3565b608355565b607c8181548110610f4057600080fd5b606954604051634f558e7960e01b8152600481018390526000916001600160a01b031690634f558e799060240160206040518083038186803b158015611c0357600080fd5b505afa158015611c17573d6000803e3d6000fd5b505050506040513d601f19601f82011682018060405250810190611c3b9190612857565b611c875760405162461bcd60e51b815260206004820152601d60248201527f4442436f6e74726163743a20696e76616c696420746f6b656e2049442e0000006044820152606401610a71565b60695460405163373bf3af60e21b8152600481018490526000916001600160a01b03169063dcefcebc9060240160006040518083038186803b158015611ccc57600080fd5b505afa158015611ce0573d6000803e3d6000fd5b505050506040513d6000823e601f3d908101601f19168201604052611d08919081019061288f565b905060005b611d1960036001612756565b811015611d81576000611d56826003811115611d3757611d37612740565b848481518110611d4957611d496126f9565b6020026020010151611e63565b509050811580611d6557508381105b15611d6e578093505b5080611d7981612725565b915050611d0d565b5050919050565b6033546001600160a01b031633146112f25760405162461bcd60e51b815260206004820181905260248201527f4f776e61626c653a2063616c6c6572206973206e6f7420746865206f776e65726044820152606401610a71565b603380546001600160a01b038381166001600160a01b0319831681179093556040519116919082907f8be0079c531659141344cd1fd0a4f28419497f9722a3daafe3b4186f6b6457e090600090a35050565b600054610100900460ff16611e5b5760405162461bcd60e51b8152600401610a719061294d565b6112f2612265565b600081816072856003811115611e7b57611e7b612740565b81548110611e8b57611e8b6126f9565b600091825260208220015491505b81811015611f71576072866003811115611eb557611eb5612740565b81548110611ec557611ec56126f9565b906000526020600020018181548110611ee057611ee06126f9565b90600052602060002001548510611f5a57611efc816001612756565b93506072866003811115611f1257611f12612740565b81548110611f2257611f226126f9565b906000526020600020018181548110611f3d57611f3d6126f9565b906000526020600020015485611f5391906127a5565b9250611f5f565b611f71565b80611f6981612725565b915050611e99565b50509250929050565b60098114611fd95760405162461bcd60e51b815260206004820152602660248201527f4442436f6e74726163743a20616464726573736573206c656e677468206d697360448201526536b0ba31b41760d11b6064820152608401610a71565b81816000818110611fec57611fec6126f9565b905060200201602081019061200191906123c1565b606580546001600160a01b0319166001600160a01b039290921691909117905581816001818110612034576120346126f9565b905060200201602081019061204991906123c1565b606680546001600160a01b0319166001600160a01b03929092169190911790558181600281811061207c5761207c6126f9565b905060200201602081019061209191906123c1565b606780546001600160a01b0319166001600160a01b0392909216919091179055818160038181106120c4576120c46126f9565b90506020020160208101906120d991906123c1565b606980546001600160a01b0319166001600160a01b03929092169190911790558181600481811061210c5761210c6126f9565b905060200201602081019061212191906123c1565b606a80546001600160a01b0319166001600160a01b039290921691909117905581816005818110612154576121546126f9565b905060200201602081019061216991906123c1565b606b80546001600160a01b0319166001600160a01b03929092169190911790558181600681811061219c5761219c6126f9565b90506020020160208101906121b191906123c1565b606c80546001600160a01b0319166001600160a01b0392909216919091179055818160078181106121e4576121e46126f9565b90506020020160208101906121f991906123c1565b606880546001600160a01b0319166001600160a01b03929092169190911790558181600881811061222c5761222c6126f9565b905060200201602081019061224191906123c1565b606d80546001600160a01b0319166001600160a01b03929092169190911790555050565b600054610100900460ff1661228c5760405162461bcd60e51b8152600401610a719061294d565b6112f233611de2565b8280546122a19061281c565b90600052602060002090601f0160209004810192826122c35760008555612309565b82601f106122dc5782800160ff19823516178555612309565b82800160010185558215612309579182015b828111156123095782358255916020019190600101906122ee565b5061231592915061238f565b5090565b5080546000825590600052602060002090810190610d4d919061238f565b82805482825590600052602060002090810192821561230957916020028201828111156123095782358255916020019190600101906122ee565b5080546000825590600052602060002090810190610d4d91906123a4565b5b808211156123155760008155600101612390565b808211156123155760006123b88282612319565b506001016123a4565b6000602082840312156123d357600080fd5b81356001600160a01b03811681146123ea57600080fd5b9392505050565b60006020828403121561240357600080fd5b5035919050565b6000806020838503121561241d57600080fd5b823567ffffffffffffffff8082111561243557600080fd5b818501915085601f83011261244957600080fd5b81358181111561245857600080fd5b86602082850101111561246a57600080fd5b60209290920196919550909350505050565b60008083601f84011261248e57600080fd5b50813567ffffffffffffffff8111156124a657600080fd5b6020830191508360208260051b850101111561165657600080fd5b600080602083850312156124d457600080fd5b823567ffffffffffffffff8111156124eb57600080fd5b6124f78582860161247c565b90969095509350505050565b80356004811061251257600080fd5b919050565b60008060006040848603121561252c57600080fd5b61253584612503565b9250602084013567ffffffffffffffff81111561255157600080fd5b61255d8682870161247c565b9497909650939450505050565b80356006811061251257600080fd5b6000806040838503121561258c57600080fd5b6125958361256a565b946020939093013593505050565b600080604083850312156125b657600080fd5b50508035926020909101359150565b600080604083850312156125d857600080fd5b61259583612503565b6020808252825182820181905260009190848201906040850190845b81811015612619578351835292840192918401916001016125fd565b50909695505050505050565b600060208083528351808285015260005b8181101561265257858101830151858201604001528201612636565b81811115612664576000604083870101525b50601f01601f1916929092016040019392505050565b60008060006040848603121561268f57600080fd5b6125358461256a565b6000602082840312156126aa57600080fd5b6123ea8261256a565b60208082526026908201527f4442436f6e74726163743a2063616c6c6572206973206e6f7420746865206f7060408201526532b930ba37b960d11b606082015260800190565b634e487b7160e01b600052603260045260246000fd5b634e487b7160e01b600052601160045260246000fd5b60006000198214156127395761273961270f565b5060010190565b634e487b7160e01b600052602160045260246000fd5b600082198211156127695761276961270f565b500190565b6020808252601c908201527f4442436f6e74726163743a206c656e677468206d69736d617463682e00000000604082015260600190565b6000828210156127b7576127b761270f565b500390565b634e487b7160e01b600052603160045260246000fd5b6000808335601e198436030181126127e957600080fd5b83018035915067ffffffffffffffff82111561280457600080fd5b6020019150600581901b360382131561165657600080fd5b600181811c9082168061283057607f821691505b6020821081141561285157634e487b7160e01b600052602260045260246000fd5b50919050565b60006020828403121561286957600080fd5b815180151581146123ea57600080fd5b634e487b7160e01b600052604160045260246000fd5b600060208083850312156128a257600080fd5b825167ffffffffffffffff808211156128ba57600080fd5b818501915085601f8301126128ce57600080fd5b8151818111156128e0576128e0612879565b8060051b604051601f19603f8301168101818110858211171561290557612905612879565b60405291825284820192508381018501918883111561292357600080fd5b938501935b8285101561294157845184529385019392850192612928565b98975050505050505050565b6020808252602b908201527f496e697469616c697a61626c653a20636f6e7472616374206973206e6f74206960408201526a6e697469616c697a696e6760a81b60608201526080019056fea26469706673582212209359f8655b622f7bbfea65146990addecc6008efd08d24b5c2a9b17b5727babf64736f6c63430008090033",
  "devdoc": {
    "kind": "dev",
    "methods": {
      "owner()": {
        "details": "Returns the address of the current owner."
      },
      "renounceOwnership()": {
        "details": "Leaves the contract without owner. It will not be possible to call `onlyOwner` functions anymore. Can only be called by the current owner. NOTE: Renouncing ownership will leave the contract without an owner, thereby removing any functionality that is only available to the owner."
      },
      "transferOwnership(address)": {
        "details": "Transfers ownership of the contract to a new account (`newOwner`). Can only be called by the current owner."
      }
    },
    "version": 1
  },
  "userdoc": {
    "kind": "user",
    "methods": {
      "setAttributeLevelThreshold(uint8,uint256[])": {
        "notice": "CA: [100, 500, 1000 ... ]"
      }
    },
    "version": 1
  },
  "storageLayout": {
    "storage": [
      {
        "astId": 138,
        "contract": "contracts/DBContract.sol:DBContract",
        "label": "_initialized",
        "offset": 0,
        "slot": "0",
        "type": "t_uint8"
      },
      {
        "astId": 141,
        "contract": "contracts/DBContract.sol:DBContract",
        "label": "_initializing",
        "offset": 1,
        "slot": "0",
        "type": "t_bool"
      },
      {
        "astId": 3230,
        "contract": "contracts/DBContract.sol:DBContract",
        "label": "__gap",
        "offset": 0,
        "slot": "1",
        "type": "t_array(t_uint256)50_storage"
      },
      {
        "astId": 10,
        "contract": "contracts/DBContract.sol:DBContract",
        "label": "_owner",
        "offset": 0,
        "slot": "51",
        "type": "t_address"
      },
      {
        "astId": 130,
        "contract": "contracts/DBContract.sol:DBContract",
        "label": "__gap",
        "offset": 0,
        "slot": "52",
        "type": "t_array(t_uint256)49_storage"
      },
      {
        "astId": 4136,
        "contract": "contracts/DBContract.sol:DBContract",
        "label": "LYNK_TOKEN",
        "offset": 0,
        "slot": "101",
        "type": "t_address"
      },
      {
        "astId": 4138,
        "contract": "contracts/DBContract.sol:DBContract",
        "label": "AP_TOKEN",
        "offset": 0,
        "slot": "102",
        "type": "t_address"
      },
      {
        "astId": 4140,
        "contract": "contracts/DBContract.sol:DBContract",
        "label": "STAKING",
        "offset": 0,
        "slot": "103",
        "type": "t_address"
      },
      {
        "astId": 4142,
        "contract": "contracts/DBContract.sol:DBContract",
        "label": "USER_INFO",
        "offset": 0,
        "slot": "104",
        "type": "t_address"
      },
      {
        "astId": 4144,
        "contract": "contracts/DBContract.sol:DBContract",
        "label": "LYNKNFT",
        "offset": 0,
        "slot": "105",
        "type": "t_address"
      },
      {
        "astId": 4146,
        "contract": "contracts/DBContract.sol:DBContract",
        "label": "STAKING_LYNKNFT",
        "offset": 0,
        "slot": "106",
        "type": "t_address"
      },
      {
        "astId": 4148,
        "contract": "contracts/DBContract.sol:DBContract",
        "label": "LISTED_LYNKNFT",
        "offset": 0,
        "slot": "107",
        "type": "t_address"
      },
      {
        "astId": 4150,
        "contract": "contracts/DBContract.sol:DBContract",
        "label": "MARKET",
        "offset": 0,
        "slot": "108",
        "type": "t_address"
      },
      {
        "astId": 4152,
        "contract": "contracts/DBContract.sol:DBContract",
        "label": "TEAM_ADDR",
        "offset": 0,
        "slot": "109",
        "type": "t_address"
      },
      {
        "astId": 4154,
        "contract": "contracts/DBContract.sol:DBContract",
        "label": "operator",
        "offset": 0,
        "slot": "110",
        "type": "t_address"
      },
      {
        "astId": 4157,
        "contract": "contracts/DBContract.sol:DBContract",
        "label": "mintPrices",
        "offset": 0,
        "slot": "111",
        "type": "t_array(t_uint256)dyn_storage"
      },
      {
        "astId": 4159,
        "contract": "contracts/DBContract.sol:DBContract",
        "label": "maxMintPerDayPerAddress",
        "offset": 0,
        "slot": "112",
        "type": "t_uint256"
      },
      {
        "astId": 4161,
        "contract": "contracts/DBContract.sol:DBContract",
        "label": "baseTokenURI",
        "offset": 0,
        "slot": "113",
        "type": "t_string_storage"
      },
      {
        "astId": 4165,
        "contract": "contracts/DBContract.sol:DBContract",
        "label": "attributeLevelThreshold",
        "offset": 0,
        "slot": "114",
        "type": "t_array(t_array(t_uint256)dyn_storage)dyn_storage"
      },
      {
        "astId": 4167,
        "contract": "contracts/DBContract.sol:DBContract",
        "label": "maxVAAddPerDayPerToken",
        "offset": 0,
        "slot": "115",
        "type": "t_uint256"
      },
      {
        "astId": 4170,
        "contract": "contracts/DBContract.sol:DBContract",
        "label": "acceptTokens",
        "offset": 0,
        "slot": "116",
        "type": "t_array(t_address)dyn_storage"
      },
      {
        "astId": 4172,
        "contract": "contracts/DBContract.sol:DBContract",
        "label": "sellingLevelLimit",
        "offset": 0,
        "slot": "117",
        "type": "t_uint256"
      },
      {
        "astId": 4174,
        "contract": "contracts/DBContract.sol:DBContract",
        "label": "tradingFee",
        "offset": 0,
        "slot": "118",
        "type": "t_uint256"
      },
      {
        "astId": 4176,
        "contract": "contracts/DBContract.sol:DBContract",
        "label": "rootAddress",
        "offset": 0,
        "slot": "119",
        "type": "t_address"
      },
      {
        "astId": 4179,
        "contract": "contracts/DBContract.sol:DBContract",
        "label": "directRequirements",
        "offset": 0,
        "slot": "120",
        "type": "t_array(t_uint256)dyn_storage"
      },
      {
        "astId": 4182,
        "contract": "contracts/DBContract.sol:DBContract",
        "label": "performanceRequirements",
        "offset": 0,
        "slot": "121",
        "type": "t_array(t_uint256)dyn_storage"
      },
      {
        "astId": 4185,
        "contract": "contracts/DBContract.sol:DBContract",
        "label": "socialRewardRates",
        "offset": 0,
        "slot": "122",
        "type": "t_array(t_uint256)dyn_storage"
      },
      {
        "astId": 4187,
        "contract": "contracts/DBContract.sol:DBContract",
        "label": "contributionRewardThreshold",
        "offset": 0,
        "slot": "123",
        "type": "t_uint256"
      },
      {
        "astId": 4190,
        "contract": "contracts/DBContract.sol:DBContract",
        "label": "contributionRewardAmounts",
        "offset": 0,
        "slot": "124",
        "type": "t_array(t_uint256)dyn_storage"
      },
      {
        "astId": 4192,
        "contract": "contracts/DBContract.sol:DBContract",
        "label": "maxInvitationLevel",
        "offset": 0,
        "slot": "125",
        "type": "t_uint256"
      },
      {
        "astId": 4197,
        "contract": "contracts/DBContract.sol:DBContract",
        "label": "communityRewardRates",
        "offset": 0,
        "slot": "126",
        "type": "t_mapping(t_uint256,t_array(t_uint256)dyn_storage)"
      },
      {
        "astId": 4199,
        "contract": "contracts/DBContract.sol:DBContract",
        "label": "achievementRewardLevelThreshold",
        "offset": 0,
        "slot": "127",
        "type": "t_uint256"
      },
      {
        "astId": 4201,
        "contract": "contracts/DBContract.sol:DBContract",
        "label": "achievementRewardDurationThreshold",
        "offset": 0,
        "slot": "128",
        "type": "t_uint256"
      },
      {
        "astId": 4204,
        "contract": "contracts/DBContract.sol:DBContract",
        "label": "achievementRewardAmounts",
        "offset": 0,
        "slot": "129",
        "type": "t_array(t_uint256)dyn_storage"
      },
      {
        "astId": 4208,
        "contract": "contracts/DBContract.sol:DBContract",
        "label": "sellingPackages",
        "offset": 0,
        "slot": "130",
        "type": "t_array(t_array(t_uint256)dyn_storage)dyn_storage"
      },
      {
        "astId": 4210,
        "contract": "contracts/DBContract.sol:DBContract",
        "label": "duration",
        "offset": 0,
        "slot": "131",
        "type": "t_uint256"
      },
      {
        "astId": 4213,
        "contract": "contracts/DBContract.sol:DBContract",
        "label": "maxVAAddPerDayPerTokens",
        "offset": 0,
        "slot": "132",
        "type": "t_array(t_uint256)dyn_storage"
      },
      {
        "astId": 4215,
        "contract": "contracts/DBContract.sol:DBContract",
        "label": "performanceThreshold",
        "offset": 0,
        "slot": "133",
        "type": "t_uint256"
      }
    ],
    "types": {
      "t_address": {
        "encoding": "inplace",
        "label": "address",
        "numberOfBytes": "20"
      },
      "t_array(t_address)dyn_storage": {
        "base": "t_address",
        "encoding": "dynamic_array",
        "label": "address[]",
        "numberOfBytes": "32"
      },
      "t_array(t_array(t_uint256)dyn_storage)dyn_storage": {
        "base": "t_array(t_uint256)dyn_storage",
        "encoding": "dynamic_array",
        "label": "uint256[][]",
        "numberOfBytes": "32"
      },
      "t_array(t_uint256)49_storage": {
        "base": "t_uint256",
        "encoding": "inplace",
        "label": "uint256[49]",
        "numberOfBytes": "1568"
      },
      "t_array(t_uint256)50_storage": {
        "base": "t_uint256",
        "encoding": "inplace",
        "label": "uint256[50]",
        "numberOfBytes": "1600"
      },
      "t_array(t_uint256)dyn_storage": {
        "base": "t_uint256",
        "encoding": "dynamic_array",
        "label": "uint256[]",
        "numberOfBytes": "32"
      },
      "t_bool": {
        "encoding": "inplace",
        "label": "bool",
        "numberOfBytes": "1"
      },
      "t_mapping(t_uint256,t_array(t_uint256)dyn_storage)": {
        "encoding": "mapping",
        "key": "t_uint256",
        "label": "mapping(uint256 => uint256[])",
        "numberOfBytes": "32",
        "value": "t_array(t_uint256)dyn_storage"
      },
      "t_string_storage": {
        "encoding": "bytes",
        "label": "string",
        "numberOfBytes": "32"
      },
      "t_uint256": {
        "encoding": "inplace",
        "label": "uint256",
        "numberOfBytes": "32"
      },
      "t_uint8": {
        "encoding": "inplace",
        "label": "uint8",
        "numberOfBytes": "1"
      }
    }
  }
}