{
  "address": "0x79D10C42c53d6261356cCb763A41D775225C165F",
  "abi": [
    {
      "inputs": [
        {
          "internalType": "address",
          "name": "dbAddress",
          "type": "address"
        }
      ],
      "stateMutability": "nonpayable",
      "type": "constructor"
    },
    {
      "anonymous": false,
      "inputs": [
        {
          "indexed": true,
          "internalType": "address",
          "name": "owner",
          "type": "address"
        },
        {
          "indexed": true,
          "internalType": "address",
          "name": "approved",
          "type": "address"
        },
        {
          "indexed": true,
          "internalType": "uint256",
          "name": "tokenId",
          "type": "uint256"
        }
      ],
      "name": "Approval",
      "type": "event"
    },
    {
      "anonymous": false,
      "inputs": [
        {
          "indexed": true,
          "internalType": "address",
          "name": "owner",
          "type": "address"
        },
        {
          "indexed": true,
          "internalType": "address",
          "name": "operator",
          "type": "address"
        },
        {
          "indexed": false,
          "internalType": "bool",
          "name": "approved",
          "type": "bool"
        }
      ],
      "name": "ApprovalForAll",
      "type": "event"
    },
    {
      "anonymous": false,
      "inputs": [
        {
          "indexed": false,
          "internalType": "uint8",
          "name": "version",
          "type": "uint8"
        }
      ],
      "name": "Initialized",
      "type": "event"
    },
    {
      "anonymous": false,
      "inputs": [
        {
          "indexed": true,
          "internalType": "uint256",
          "name": "tokenId",
          "type": "uint256"
        },
        {
          "indexed": false,
          "internalType": "uint256[]",
          "name": "nftInfo",
          "type": "uint256[]"
        },
        {
          "indexed": false,
          "internalType": "string",
          "name": "name",
          "type": "string"
        },
        {
          "indexed": false,
          "internalType": "address",
          "name": "payment",
          "type": "address"
        },
        {
          "indexed": false,
          "internalType": "uint256",
          "name": "amount",
          "type": "uint256"
        }
      ],
      "name": "Mint",
      "type": "event"
    },
    {
      "anonymous": false,
      "inputs": [
        {
          "indexed": true,
          "internalType": "address",
          "name": "from",
          "type": "address"
        },
        {
          "indexed": true,
          "internalType": "address",
          "name": "to",
          "type": "address"
        },
        {
          "indexed": true,
          "internalType": "uint256",
          "name": "tokenId",
          "type": "uint256"
        }
      ],
      "name": "Transfer",
      "type": "event"
    },
    {
      "anonymous": false,
      "inputs": [
        {
          "indexed": true,
          "internalType": "uint256",
          "name": "tokenId",
          "type": "uint256"
        },
        {
          "indexed": false,
          "internalType": "enum ILYNKNFT.Attribute",
          "name": "attr",
          "type": "uint8"
        },
        {
          "indexed": false,
          "internalType": "uint256",
          "name": "point",
          "type": "uint256"
        }
      ],
      "name": "Upgrade",
      "type": "event"
    },
    {
      "inputs": [],
      "name": "BLACK_HOLE",
      "outputs": [
        {
          "internalType": "address",
          "name": "",
          "type": "address"
        }
      ],
      "stateMutability": "view",
      "type": "function"
    },
    {
      "inputs": [],
      "name": "DB_CONTRACT",
      "outputs": [
        {
          "internalType": "address",
          "name": "",
          "type": "address"
        }
      ],
      "stateMutability": "view",
      "type": "function"
    },
    {
      "inputs": [],
      "name": "__LYNKNFT_init",
      "outputs": [],
      "stateMutability": "nonpayable",
      "type": "function"
    },
    {
      "inputs": [
        {
          "internalType": "uint256",
          "name": "",
          "type": "uint256"
        }
      ],
      "name": "addedVAInfoOf",
      "outputs": [
        {
          "internalType": "uint128",
          "name": "lastAddedTime",
          "type": "uint128"
        },
        {
          "internalType": "uint128",
          "name": "addedInDuration",
          "type": "uint128"
        }
      ],
      "stateMutability": "view",
      "type": "function"
    },
    {
      "inputs": [
        {
          "internalType": "address",
          "name": "to",
          "type": "address"
        },
        {
          "internalType": "uint256",
          "name": "tokenId",
          "type": "uint256"
        }
      ],
      "name": "approve",
      "outputs": [],
      "stateMutability": "nonpayable",
      "type": "function"
    },
    {
      "inputs": [
        {
          "internalType": "address",
          "name": "owner",
          "type": "address"
        }
      ],
      "name": "balanceOf",
      "outputs": [
        {
          "internalType": "uint256",
          "name": "",
          "type": "uint256"
        }
      ],
      "stateMutability": "view",
      "type": "function"
    },
    {
      "inputs": [
        {
          "internalType": "string",
          "name": "_name",
          "type": "string"
        }
      ],
      "name": "earlyBirdMint",
      "outputs": [],
      "stateMutability": "nonpayable",
      "type": "function"
    },
    {
      "inputs": [
        {
          "internalType": "string",
          "name": "_name",
          "type": "string"
        },
        {
          "internalType": "uint256",
          "name": "_amount",
          "type": "uint256"
        },
        {
          "internalType": "uint256",
          "name": "deadline",
          "type": "uint256"
        },
        {
          "internalType": "uint8",
          "name": "v",
          "type": "uint8"
        },
        {
          "internalType": "bytes32",
          "name": "r",
          "type": "bytes32"
        },
        {
          "internalType": "bytes32",
          "name": "s",
          "type": "bytes32"
        }
      ],
      "name": "earlyBirdMintWIthPermit",
      "outputs": [],
      "stateMutability": "nonpayable",
      "type": "function"
    },
    {
      "inputs": [],
      "name": "earlyBirdNextId",
      "outputs": [
        {
          "internalType": "uint256",
          "name": "",
          "type": "uint256"
        }
      ],
      "stateMutability": "view",
      "type": "function"
    },
    {
      "inputs": [
        {
          "internalType": "uint256",
          "name": "tokenId",
          "type": "uint256"
        }
      ],
      "name": "exists",
      "outputs": [
        {
          "internalType": "bool",
          "name": "",
          "type": "bool"
        }
      ],
      "stateMutability": "view",
      "type": "function"
    },
    {
      "inputs": [
        {
          "internalType": "uint256",
          "name": "tokenId",
          "type": "uint256"
        }
      ],
      "name": "getApproved",
      "outputs": [
        {
          "internalType": "address",
          "name": "",
          "type": "address"
        }
      ],
      "stateMutability": "view",
      "type": "function"
    },
    {
      "inputs": [
        {
          "internalType": "address",
          "name": "owner",
          "type": "address"
        },
        {
          "internalType": "address",
          "name": "operator",
          "type": "address"
        }
      ],
      "name": "isApprovedForAll",
      "outputs": [
        {
          "internalType": "bool",
          "name": "",
          "type": "bool"
        }
      ],
      "stateMutability": "view",
      "type": "function"
    },
    {
      "inputs": [
        {
          "internalType": "uint256",
          "name": "_tokenId",
          "type": "uint256"
        },
        {
          "internalType": "address",
          "name": "_payment",
          "type": "address"
        },
        {
          "internalType": "string",
          "name": "_name",
          "type": "string"
        }
      ],
      "name": "mint",
      "outputs": [],
      "stateMutability": "nonpayable",
      "type": "function"
    },
    {
      "inputs": [
        {
          "internalType": "address",
          "name": "",
          "type": "address"
        }
      ],
      "name": "mintInfoOf",
      "outputs": [
        {
          "internalType": "uint128",
          "name": "lastMintTime",
          "type": "uint128"
        },
        {
          "internalType": "uint128",
          "name": "mintNumInDuration",
          "type": "uint128"
        }
      ],
      "stateMutability": "view",
      "type": "function"
    },
    {
      "inputs": [
        {
          "internalType": "uint256",
          "name": "_tokenId",
          "type": "uint256"
        },
        {
          "internalType": "address",
          "name": "_payment",
          "type": "address"
        },
        {
          "internalType": "string",
          "name": "_name",
          "type": "string"
        },
        {
          "internalType": "uint256",
          "name": "_amount",
          "type": "uint256"
        },
        {
          "internalType": "uint256",
          "name": "deadline",
          "type": "uint256"
        },
        {
          "internalType": "uint8",
          "name": "v",
          "type": "uint8"
        },
        {
          "internalType": "bytes32",
          "name": "r",
          "type": "bytes32"
        },
        {
          "internalType": "bytes32",
          "name": "s",
          "type": "bytes32"
        }
      ],
      "name": "mintWithPermit",
      "outputs": [],
      "stateMutability": "nonpayable",
      "type": "function"
    },
    {
      "inputs": [],
      "name": "name",
      "outputs": [
        {
          "internalType": "string",
          "name": "",
          "type": "string"
        }
      ],
      "stateMutability": "view",
      "type": "function"
    },
    {
      "inputs": [
        {
          "internalType": "string",
          "name": "",
          "type": "string"
        }
      ],
      "name": "nameUsed",
      "outputs": [
        {
          "internalType": "bool",
          "name": "",
          "type": "bool"
        }
      ],
      "stateMutability": "view",
      "type": "function"
    },
    {
      "inputs": [
        {
          "internalType": "uint256",
          "name": "",
          "type": "uint256"
        },
        {
          "internalType": "uint256",
          "name": "",
          "type": "uint256"
        }
      ],
      "name": "nftInfo",
      "outputs": [
        {
          "internalType": "uint256",
          "name": "",
          "type": "uint256"
        }
      ],
      "stateMutability": "view",
      "type": "function"
    },
    {
      "inputs": [
        {
          "internalType": "uint256",
          "name": "_tokenId",
          "type": "uint256"
        }
      ],
      "name": "nftInfoOf",
      "outputs": [
        {
          "internalType": "uint256[]",
          "name": "_nftInfo",
          "type": "uint256[]"
        }
      ],
      "stateMutability": "view",
      "type": "function"
    },
    {
      "inputs": [
        {
          "internalType": "uint256",
          "name": "tokenId",
          "type": "uint256"
        }
      ],
      "name": "ownerOf",
      "outputs": [
        {
          "internalType": "address",
          "name": "",
          "type": "address"
        }
      ],
      "stateMutability": "view",
      "type": "function"
    },
    {
      "inputs": [
        {
          "internalType": "address",
          "name": "from",
          "type": "address"
        },
        {
          "internalType": "address",
          "name": "to",
          "type": "address"
        },
        {
          "internalType": "uint256",
          "name": "tokenId",
          "type": "uint256"
        }
      ],
      "name": "safeTransferFrom",
      "outputs": [],
      "stateMutability": "nonpayable",
      "type": "function"
    },
    {
      "inputs": [
        {
          "internalType": "address",
          "name": "from",
          "type": "address"
        },
        {
          "internalType": "address",
          "name": "to",
          "type": "address"
        },
        {
          "internalType": "uint256",
          "name": "tokenId",
          "type": "uint256"
        },
        {
          "internalType": "bytes",
          "name": "data",
          "type": "bytes"
        }
      ],
      "name": "safeTransferFrom",
      "outputs": [],
      "stateMutability": "nonpayable",
      "type": "function"
    },
    {
      "inputs": [
        {
          "internalType": "address",
          "name": "operator",
          "type": "address"
        },
        {
          "internalType": "bool",
          "name": "approved",
          "type": "bool"
        }
      ],
      "name": "setApprovalForAll",
      "outputs": [],
      "stateMutability": "nonpayable",
      "type": "function"
    },
    {
      "inputs": [
        {
          "internalType": "bytes4",
          "name": "interfaceId",
          "type": "bytes4"
        }
      ],
      "name": "supportsInterface",
      "outputs": [
        {
          "internalType": "bool",
          "name": "",
          "type": "bool"
        }
      ],
      "stateMutability": "view",
      "type": "function"
    },
    {
      "inputs": [],
      "name": "symbol",
      "outputs": [
        {
          "internalType": "string",
          "name": "",
          "type": "string"
        }
      ],
      "stateMutability": "view",
      "type": "function"
    },
    {
      "inputs": [
        {
          "internalType": "uint256",
          "name": "index",
          "type": "uint256"
        }
      ],
      "name": "tokenByIndex",
      "outputs": [
        {
          "internalType": "uint256",
          "name": "",
          "type": "uint256"
        }
      ],
      "stateMutability": "view",
      "type": "function"
    },
    {
      "inputs": [
        {
          "internalType": "address",
          "name": "owner",
          "type": "address"
        },
        {
          "internalType": "uint256",
          "name": "index",
          "type": "uint256"
        }
      ],
      "name": "tokenOfOwnerByIndex",
      "outputs": [
        {
          "internalType": "uint256",
          "name": "",
          "type": "uint256"
        }
      ],
      "stateMutability": "view",
      "type": "function"
    },
    {
      "inputs": [
        {
          "internalType": "uint256",
          "name": "tokenId",
          "type": "uint256"
        }
      ],
      "name": "tokenURI",
      "outputs": [
        {
          "internalType": "string",
          "name": "",
          "type": "string"
        }
      ],
      "stateMutability": "view",
      "type": "function"
    },
    {
      "inputs": [],
      "name": "totalSupply",
      "outputs": [
        {
          "internalType": "uint256",
          "name": "",
          "type": "uint256"
        }
      ],
      "stateMutability": "view",
      "type": "function"
    },
    {
      "inputs": [
        {
          "internalType": "address",
          "name": "from",
          "type": "address"
        },
        {
          "internalType": "address",
          "name": "to",
          "type": "address"
        },
        {
          "internalType": "uint256",
          "name": "tokenId",
          "type": "uint256"
        }
      ],
      "name": "transferFrom",
      "outputs": [],
      "stateMutability": "nonpayable",
      "type": "function"
    },
    {
      "inputs": [
        {
          "internalType": "enum ILYNKNFT.Attribute",
          "name": "_attr",
          "type": "uint8"
        },
        {
          "internalType": "uint256",
          "name": "_tokenId",
          "type": "uint256"
        },
        {
          "internalType": "uint256",
          "name": "_point",
          "type": "uint256"
        },
        {
          "internalType": "address",
          "name": "_payment",
          "type": "address"
        }
      ],
      "name": "upgrade",
      "outputs": [],
      "stateMutability": "nonpayable",
      "type": "function"
    },
    {
      "inputs": [
        {
          "internalType": "enum ILYNKNFT.Attribute",
          "name": "_attr",
          "type": "uint8"
        },
        {
          "internalType": "uint256",
          "name": "_tokenId",
          "type": "uint256"
        },
        {
          "internalType": "uint256",
          "name": "_point",
          "type": "uint256"
        },
        {
          "internalType": "address",
          "name": "_payment",
          "type": "address"
        },
        {
          "internalType": "uint256",
          "name": "_amount",
          "type": "uint256"
        },
        {
          "internalType": "uint256",
          "name": "deadline",
          "type": "uint256"
        },
        {
          "internalType": "uint8",
          "name": "v",
          "type": "uint8"
        },
        {
          "internalType": "bytes32",
          "name": "r",
          "type": "bytes32"
        },
        {
          "internalType": "bytes32",
          "name": "s",
          "type": "bytes32"
        }
      ],
      "name": "upgradeWithPermit",
      "outputs": [],
      "stateMutability": "nonpayable",
      "type": "function"
    }
  ],
  "transactionHash": "0x744db7a21927712a493e095383db9cbf7649c7ac812340e261f4d87470e22ba8",
  "args": [
    "0x4023A2776c1CE7d174Ee3BDfa639C74faD47393F"
  ],
  "numDeployments": 6,
  "solcInputHash": "f736bd853bb0bf3d5a4aace8f5649bc8",
  "bytecode": "0x60a06040523480156200001157600080fd5b5060405162004b4138038062004b41833981016040819052620000349162000046565b6001600160a01b031660805262000078565b6000602082840312156200005957600080fd5b81516001600160a01b03811681146200007157600080fd5b9392505050565b6080516149f062000151600039600081816103bd01528181610805015281816111bf0152818161134601528181611430015281816114f1015281816116100152818161191001528181611aa801528181611b8101528181611de801528181611eaf015281816120b3015281816122900152818161233b01528181612469015281816125410152818161269e0152818161277c015281816128ce01528181612ab601528181612de301528181612e8701528181613104015281816131af0152818161330a015281816133c9015261342101526149f06000f3fe608060405234801561001057600080fd5b50600436106101f05760003560e01c806370a082311161010f578063c87b56dd116100a2578063dcefcebc11610071578063dcefcebc146104a0578063dfa2eec0146104c0578063e67e402c146104d3578063e985e9c5146104e657600080fd5b8063c87b56dd14610454578063cabaa17714610467578063cb97200e1461047a578063d49cf8e31461048d57600080fd5b8063b6fc133a116100de578063b6fc133a146103f2578063b77c055514610426578063b88d4fde1461042e578063b990e3581461044157600080fd5b806370a082311461039d57806395d89b41146103b05780639ccea0cd146103b8578063a22cb465146103df57600080fd5b80633f8336e3116101875780634f6ccce7116101565780634f6ccce71461036557806355eda4e8146103785780636108b358146103815780636352211e1461038a57600080fd5b80633f8336e3146102d857806342842e0e1461032c578063435a2bdc1461033f5780634f558e791461035257600080fd5b80630b9b6e8b116101c35780630b9b6e8b1461027257806318160ddd146102a057806323b872dd146102b25780632f745c59146102c557600080fd5b806301ffc9a7146101f557806306fdde031461021d578063081812fc14610232578063095ea7b31461025d575b600080fd5b610208610203366004613cec565b610522565b60405190151581526020015b60405180910390f35b61022561054d565b6040516102149190613d61565b610245610240366004613d74565b6105df565b6040516001600160a01b039091168152602001610214565b61027061026b366004613da2565b610606565b005b610208610280366004613e7b565b805160208183018101805160cc8252928201919093012091525460ff1681565b6099545b604051908152602001610214565b6102706102c0366004613ec4565b610721565b6102a46102d3366004613da2565b610752565b61030c6102e6366004613d74565b60cd602052600090815260409020546001600160801b0380821691600160801b90041682565b604080516001600160801b03938416815292909116602083015201610214565b61027061033a366004613ec4565b6107e8565b61027061034d366004613f5d565b610803565b610208610360366004613d74565b610910565b6102a4610373366004613d74565b61092f565b61024561dead81565b6102a460ce5481565b610245610398366004613d74565b6109c2565b6102a46103ab366004613fda565b610a22565b610225610aa8565b6102457f000000000000000000000000000000000000000000000000000000000000000081565b6102706103ed366004614005565b610ab7565b61030c610400366004613fda565b60cb602052600090815260409020546001600160801b0380821691600160801b90041682565b610270610ac6565b61027061043c36600461403e565b610c2f565b61027061044f3660046140be565b610c67565b610225610462366004613d74565b610c71565b610270610475366004614100565b610cd8565b6102706104883660046141ae565b610d59565b61027061049b366004614232565b610dcf565b6104b36104ae366004613d74565b610ddb565b604051610214919061427a565b6102a46104ce3660046142be565b610e3d565b6102706104e13660046142e0565b610e6e565b6102086104f436600461433c565b6001600160a01b039182166000908152606a6020908152604080832093909416825291909152205460ff1690565b60006001600160e01b0319821663780e9d6360e01b1480610547575061054782610e7a565b92915050565b60606065805461055c9061436a565b80601f01602080910402602001604051908101604052809291908181526020018280546105889061436a565b80156105d55780601f106105aa576101008083540402835291602001916105d5565b820191906000526020600020905b8154815290600101906020018083116105b857829003601f168201915b5050505050905090565b60006105ea82610eca565b506000908152606960205260409020546001600160a01b031690565b6000610611826109c2565b9050806001600160a01b0316836001600160a01b031614156106845760405162461bcd60e51b815260206004820152602160248201527f4552433732313a20617070726f76616c20746f2063757272656e74206f776e656044820152603960f91b60648201526084015b60405180910390fd5b336001600160a01b03821614806106a057506106a081336104f4565b6107125760405162461bcd60e51b815260206004820152603e60248201527f4552433732313a20617070726f76652063616c6c6572206973206e6f7420746f60448201527f6b656e206f776e6572206e6f7220617070726f76656420666f7220616c6c0000606482015260840161067b565b61071c8383610f29565b505050565b61072b3382610f97565b6107475760405162461bcd60e51b815260040161067b906143a5565b61071c838383611016565b600061075d83610a22565b82106107bf5760405162461bcd60e51b815260206004820152602b60248201527f455243373231456e756d657261626c653a206f776e657220696e646578206f7560448201526a74206f6620626f756e647360a81b606482015260840161067b565b506001600160a01b03919091166000908152609760209081526040808320938352929052205490565b61071c83838360405180602001604052806000815250610c2f565b7f00000000000000000000000000000000000000000000000000000000000000006001600160a01b031663dfada9886040518163ffffffff1660e01b815260040160206040518083038186803b15801561085c57600080fd5b505afa158015610870573d6000803e3d6000fd5b505050506040513d601f19601f8201168201806040525081019061089491906143f3565b6001600160a01b031663d505accf333088888888886040518863ffffffff1660e01b81526004016108cb9796959493929190614410565b600060405180830381600087803b1580156108e557600080fd5b505af11580156108f9573d6000803e3d6000fd5b5050505061090787876111bd565b50505050505050565b6000818152606760205260408120546001600160a01b03161515610547565b600061093a60995490565b821061099d5760405162461bcd60e51b815260206004820152602c60248201527f455243373231456e756d657261626c653a20676c6f62616c20696e646578206f60448201526b7574206f6620626f756e647360a01b606482015260840161067b565b609982815481106109b0576109b0614451565b90600052602060002001549050919050565b6000818152606760205260408120546001600160a01b0316806105475760405162461bcd60e51b8152602060048201526018602482015277115490cdcc8c4e881a5b9d985b1a59081d1bdad95b88125160421b604482015260640161067b565b60006001600160a01b038216610a8c5760405162461bcd60e51b815260206004820152602960248201527f4552433732313a2061646472657373207a65726f206973206e6f7420612076616044820152683634b21037bbb732b960b91b606482015260840161067b565b506001600160a01b031660009081526068602052604090205490565b60606066805461055c9061436a565b610ac23383836117a0565b5050565b600054610100900460ff1615808015610ae65750600054600160ff909116105b80610b005750303b158015610b00575060005460ff166001145b610b635760405162461bcd60e51b815260206004820152602e60248201527f496e697469616c697a61626c653a20636f6e747261637420697320616c72656160448201526d191e481a5b9a5d1a585b1a5e995960921b606482015260840161067b565b6000805460ff191660011790558015610b86576000805461ff0019166101001790555b610b8e61186f565b610b96611877565b610bde6040518060400160405280600781526020016613165392d3919560ca1b8152506040518060400160405280600781526020016613165392d3919560ca1b8152506118a0565b610be66118d1565b8015610c2c576000805461ff0019169055604051600181527f7f26b83ff96e1f2b6a682f133852f6798a09c465da95921460cefb38474024989060200160405180910390a15b50565b610c393383610f97565b610c555760405162461bcd60e51b815260040161067b906143a5565b610c61848484846118d9565b50505050565b610ac282826111bd565b6060610c7c82610eca565b6000610c8661190c565b90506000815111610ca65760405180602001604052806000815250610cd1565b80610cb0846119a8565b604051602001610cc1929190614467565b6040516020818303038152906040525b9392505050565b60405163d505accf60e01b81526001600160a01b0389169063d505accf90610d1090339030908a908a908a908a908a90600401614410565b600060405180830381600087803b158015610d2a57600080fd5b505af1158015610d3e573d6000803e3d6000fd5b50505050610d4e89898989611aa6565b505050505050505050565b60405163d505accf60e01b81526001600160a01b0387169063d505accf90610d9190339030908a908a908a908a908a90600401614410565b600060405180830381600087803b158015610dab57600080fd5b505af1158015610dbf573d6000803e3d6000fd5b50505050610d4e898989896120b1565b610c61848484846120b1565b600081815260ca6020908152604091829020805483518184028101840190945280845260609392830182828015610e3157602002820191906000526020600020905b815481526020019060010190808311610e1d575b50505050509050919050565b60ca6020528160005260406000208181548110610e5957600080fd5b90600052602060002001600091509150505481565b610c6184848484611aa6565b60006001600160e01b031982166380ac58cd60e01b1480610eab57506001600160e01b03198216635b5e139f60e01b145b8061054757506301ffc9a760e01b6001600160e01b0319831614610547565b6000818152606760205260409020546001600160a01b0316610c2c5760405162461bcd60e51b8152602060048201526018602482015277115490cdcc8c4e881a5b9d985b1a59081d1bdad95b88125160421b604482015260640161067b565b600081815260696020526040902080546001600160a01b0319166001600160a01b0384169081179091558190610f5e826109c2565b6001600160a01b03167f8c5be1e5ebec7d5bd14f71427d1e84f3dd0314c0f7b2291e5b200ac8c7c3b92560405160405180910390a45050565b600080610fa3836109c2565b9050806001600160a01b0316846001600160a01b03161480610fea57506001600160a01b038082166000908152606a602090815260408083209388168352929052205460ff165b8061100e5750836001600160a01b0316611003846105df565b6001600160a01b0316145b949350505050565b826001600160a01b0316611029826109c2565b6001600160a01b03161461108d5760405162461bcd60e51b815260206004820152602560248201527f4552433732313a207472616e736665722066726f6d20696e636f72726563742060448201526437bbb732b960d91b606482015260840161067b565b6001600160a01b0382166110ef5760405162461bcd60e51b8152602060048201526024808201527f4552433732313a207472616e7366657220746f20746865207a65726f206164646044820152637265737360e01b606482015260840161067b565b6110fa838383612bda565b611105600082610f29565b6001600160a01b038316600090815260686020526040812080546001929061112e9084906144ac565b90915550506001600160a01b038216600090815260686020526040812080546001929061115c9084906144c3565b909155505060008181526067602052604080822080546001600160a01b0319166001600160a01b0386811691821790925591518493918716917fddf252ad1be2c89b69c2b068fc378daa952ba7f163c4a11628f55a4df523b3ef91a4505050565b7f00000000000000000000000000000000000000000000000000000000000000006001600160a01b031663ea0d14656040518163ffffffff1660e01b815260040160206040518083038186803b15801561121657600080fd5b505afa15801561122a573d6000803e3d6000fd5b505050506040513d601f19601f8201168201806040525081019061124e91906144db565b6112965760405162461bcd60e51b8152602060048201526019602482015278262ca725a7232a1d1031b0b73737ba1036b4b73a103cb2ba1760391b604482015260640161067b565b60cc82826040516112a89291906144f8565b9081526040519081900360200190205460ff16156113085760405162461bcd60e51b815260206004820152601e60248201527f4c594e4b4e46543a206e616d6520616c726561647920696e20757365642e0000604482015260640161067b565b600160cc838360405161131c9291906144f8565b908152602001604051809103902060006101000a81548160ff0219169083151502179055506000807f00000000000000000000000000000000000000000000000000000000000000006001600160a01b031663be1888116040518163ffffffff1660e01b8152600401604080518083038186803b15801561139c57600080fd5b505afa1580156113b0573d6000803e3d6000fd5b505050506040513d601f19601f820116820180604052508101906113d49190614508565b60ce549193509150828110156113e75750815b81811061142b5760405162461bcd60e51b8152602060048201526012602482015271262ca725a7232a1d1039b7b6321037baba1760711b604482015260640161067b565b6000807f00000000000000000000000000000000000000000000000000000000000000006001600160a01b0316637af0cac36040518163ffffffff1660e01b8152600401604080518083038186803b15801561148657600080fd5b505afa15801561149a573d6000803e3d6000fd5b505050506040513d601f19601f820116820180604052508101906114be919061452c565b915091506114d3826114cd3390565b83612c92565b6114de8360016144c3565b60ce8190555060405180608001604052807f00000000000000000000000000000000000000000000000000000000000000006001600160a01b03166364db03b86040518163ffffffff1660e01b815260040160206040518083038186803b15801561154857600080fd5b505afa15801561155c573d6000803e3d6000fd5b505050506040513d601f19601f82011682018060405250810190611580919061455a565b8152600060208083018290526040808401839052606090930182905286825260ca9052206115af916004613c03565b506115ba3384612f3f565b827f43332af98367d01c3bc9be42717917c42e1bd0084f4cdad927e9b4c06471d35160ca600086815260200190815260200160002089898686604051611604959493929190614573565b60405180910390a260007f00000000000000000000000000000000000000000000000000000000000000006001600160a01b031663fa1785fe6040518163ffffffff1660e01b815260040160206040518083038186803b15801561166757600080fd5b505afa15801561167b573d6000803e3d6000fd5b505050506040513d601f19601f8201168201806040525081019061169f91906143f3565b90506001600160a01b03811663f3c95c60336040516001600160e01b031960e084901b1681526001600160a01b03909116600482015260240160206040518083038186803b1580156116f057600080fd5b505afa158015611704573d6000803e3d6000fd5b505050506040513d601f19601f8201168201806040525081019061172891906144db565b611796576001600160a01b0381166396fd3854336040516001600160e01b031960e084901b1681526001600160a01b039091166004820152602401600060405180830381600087803b15801561177d57600080fd5b505af1158015611791573d6000803e3d6000fd5b505050505b5050505050505050565b816001600160a01b0316836001600160a01b031614156118025760405162461bcd60e51b815260206004820152601960248201527f4552433732313a20617070726f766520746f2063616c6c657200000000000000604482015260640161067b565b6001600160a01b038381166000818152606a6020908152604080832094871680845294825291829020805460ff191686151590811790915591519182527f17307eab39ab6107e8899845ad3d59bd9653f200f220920489ca2b5937696c31910160405180910390a3505050565b610c2c612f59565b600054610100900460ff1661189e5760405162461bcd60e51b815260040161067b906145fa565b565b600054610100900460ff166118c75760405162461bcd60e51b815260040161067b906145fa565b610ac28282612f9b565b61189e611877565b6118e4848484611016565b6118f084848484612fe9565b610c615760405162461bcd60e51b815260040161067b90614645565b60607f00000000000000000000000000000000000000000000000000000000000000006001600160a01b031663d547cfb76040518163ffffffff1660e01b815260040160006040518083038186803b15801561196757600080fd5b505afa15801561197b573d6000803e3d6000fd5b505050506040513d6000823e601f3d908101601f191682016040526119a39190810190614697565b905090565b6060816119cc5750506040805180820190915260018152600360fc1b602082015290565b8160005b81156119f657806119e08161470e565b91506119ef9050600a8361473f565b91506119d0565b60008167ffffffffffffffff811115611a1157611a11613dce565b6040519080825280601f01601f191660200182016040528015611a3b576020820181803683370190505b5090505b841561100e57611a506001836144ac565b9150611a5d600a86614753565b611a689060306144c3565b60f81b818381518110611a7d57611a7d614451565b60200101906001600160f81b031916908160001a905350611a9f600a8661473f565b9450611a3f565b7f00000000000000000000000000000000000000000000000000000000000000006001600160a01b03166366227eb96040518163ffffffff1660e01b815260040160206040518083038186803b158015611aff57600080fd5b505afa158015611b13573d6000803e3d6000fd5b505050506040513d601f19601f82011682018060405250810190611b3791906144db565b611b7f5760405162461bcd60e51b8152602060048201526019602482015278262ca725a7232a1d1031b0b73737ba1036b4b73a103cb2ba1760391b604482015260640161067b565b7f00000000000000000000000000000000000000000000000000000000000000006001600160a01b031663fa1785fe6040518163ffffffff1660e01b815260040160206040518083038186803b158015611bd857600080fd5b505afa158015611bec573d6000803e3d6000fd5b505050506040513d601f19601f82011682018060405250810190611c1091906143f3565b6001600160a01b031663f3c95c60336040516001600160e01b031960e084901b1681526001600160a01b03909116600482015260240160206040518083038186803b158015611c5e57600080fd5b505afa158015611c72573d6000803e3d6000fd5b505050506040513d601f19601f82011682018060405250810190611c9691906144db565b611ce25760405162461bcd60e51b815260206004820152601a60248201527f4c594e4b4e46543a206e6f7420612076616c696420757365722e000000000000604482015260640161067b565b60cc8282604051611cf49291906144f8565b9081526040519081900360200190205460ff1615611d545760405162461bcd60e51b815260206004820152601e60248201527f4c594e4b4e46543a206e616d6520616c726561647920696e20757365642e0000604482015260640161067b565b600160cc8383604051611d689291906144f8565b908152604051908190036020019020805491151560ff19909216919091179055600060cb81611d943390565b6001600160a01b03908116825260208083019390935260409182016000208251808401845290546001600160801b038082168352600160801b909104168185015282516303ed69ad60e21b815292519094507f000000000000000000000000000000000000000000000000000000000000000090911692630fb5a6b49260048082019391829003018186803b158015611e2c57600080fd5b505afa158015611e40573d6000803e3d6000fd5b505050506040513d601f19601f82011682018060405250810190611e64919061455a565b8151611e79906001600160801b0316426144ac565b10611ead576000602082810182905233825260cb90526040902080546001600160801b031916426001600160801b03161790555b7f00000000000000000000000000000000000000000000000000000000000000006001600160a01b031663600a2f826040518163ffffffff1660e01b815260040160206040518083038186803b158015611f0657600080fd5b505afa158015611f1a573d6000803e3d6000fd5b505050506040513d601f19601f82011682018060405250810190611f3e919061455a565b81602001516001600160801b031610611fa55760405162461bcd60e51b815260206004820152602360248201527f4c594e4b4e46543a2063616e6e6f74206d696e74206d6f726520696e2061206460448201526230bc9760e91b606482015260840161067b565b6020810151611fb5906001614767565b33600090815260cb6020526040812080546001600160801b03938416600160801b02931692909217909155611fea86866130f6565b9050611ff685336114cd565b60008061200233613502565b91509150604051806080016040528060008152602001838152602001828152602001600081525060ca60008a815260200190815260200160002090600461204a929190613c03565b506120553389612f3f565b877f43332af98367d01c3bc9be42717917c42e1bd0084f4cdad927e9b4c06471d35160ca60008b815260200190815260200160002088888b8860405161209f959493929190614573565b60405180910390a25050505050505050565b7f00000000000000000000000000000000000000000000000000000000000000006001600160a01b031663fa1785fe6040518163ffffffff1660e01b815260040160206040518083038186803b15801561210a57600080fd5b505afa15801561211e573d6000803e3d6000fd5b505050506040513d601f19601f8201168201806040525081019061214291906143f3565b6001600160a01b031663f3c95c60336040516001600160e01b031960e084901b1681526001600160a01b03909116600482015260240160206040518083038186803b15801561219057600080fd5b505afa1580156121a4573d6000803e3d6000fd5b505050506040513d601f19601f820116820180604052508101906121c891906144db565b6122145760405162461bcd60e51b815260206004820152601a60248201527f4c594e4b4e46543a206e6f7420612076616c696420757365722e000000000000604482015260640161067b565b3233148015612233575033612228846109c2565b6001600160a01b0316145b6122785760405162461bcd60e51b8152602060048201526016602482015275262ca725a7232a1d103737ba103a34329037bbb732b960511b604482015260640161067b565b83600381111561228a5761228a614789565b612400577f00000000000000000000000000000000000000000000000000000000000000006001600160a01b03166377b330c96040518163ffffffff1660e01b815260040160206040518083038186803b1580156122e757600080fd5b505afa1580156122fb573d6000803e3d6000fd5b505050506040513d601f19601f8201168201806040525081019061231f91906143f3565b6001600160a01b0316816001600160a01b031614806123df57507f00000000000000000000000000000000000000000000000000000000000000006001600160a01b0316633b87436b6040518163ffffffff1660e01b815260040160206040518083038186803b15801561239257600080fd5b505afa1580156123a6573d6000803e3d6000fd5b505050506040513d601f19601f820116820180604052508101906123ca91906143f3565b6001600160a01b0316816001600160a01b0316145b6123fb5760405162461bcd60e51b815260040161067b9061479f565b61298d565b83600381111561241257612412614789565b6001141561267857600083815260cd60209081526040918290208251808401845290546001600160801b038082168352600160801b909104168183015282516303ed69ad60e21b8152925190926001600160a01b037f00000000000000000000000000000000000000000000000000000000000000001692630fb5a6b492600480840193829003018186803b1580156124aa57600080fd5b505afa1580156124be573d6000803e3d6000fd5b505050506040513d601f19601f820116820180604052508101906124e2919061455a565b81516124f7906001600160801b0316426144ac565b1061252b576000602082810182905285825260cd90526040902080546001600160801b0319166001600160801b0342161790555b60405163317369c560e11b8152600481018590527f00000000000000000000000000000000000000000000000000000000000000006001600160a01b0316906362e6d38a9060240160206040518083038186803b15801561258b57600080fd5b505afa15801561259f573d6000803e3d6000fd5b505050506040513d601f19601f820116820180604052508101906125c3919061455a565b8382602001516001600160801b03166125dc91906144c3565b11156126395760405162461bcd60e51b815260206004820152602660248201527f4c594e4b4e46543a2063616e6e6f742075706772616465206d6f726520696e2060448201526530903230bc9760d11b606482015260840161067b565b8281602001516126499190614767565b600085815260cd6020526040902080546001600160801b03928316600160801b029216919091179055506128cc565b6000600185600381111561268e5761268e614789565b61269891906144ac565b905060007f00000000000000000000000000000000000000000000000000000000000000006001600160a01b031663b2cd99af8360038111156126dd576126dd614789565b600088815260ca602052604090208054869081106126fd576126fd614451565b90600052602060002001546040518363ffffffff1660e01b81526004016127259291906147d6565b604080518083038186803b15801561273c57600080fd5b505afa158015612750573d6000803e3d6000fd5b505050506040513d601f19601f820116820180604052508101906127749190614508565b5090506000807f00000000000000000000000000000000000000000000000000000000000000006001600160a01b031663b2cd99af8960ca60008b81526020019081526020016000208b60038111156127cf576127cf614789565b815481106127df576127df614451565b9060005260206000200154896127f591906144c3565b6040518363ffffffff1660e01b81526004016128129291906147d6565b604080518083038186803b15801561282957600080fd5b505afa15801561283d573d6000803e3d6000fd5b505050506040513d601f19601f820116820180604052508101906128619190614508565b915091508183118061287b5750818314801561287b575080155b6128c75760405162461bcd60e51b815260206004820152601860248201527f4c594e4b4e46543a206c6576656c206f766572666c6f772e0000000000000000604482015260640161067b565b505050505b7f00000000000000000000000000000000000000000000000000000000000000006001600160a01b031663c2e30dd06040518163ffffffff1660e01b815260040160206040518083038186803b15801561292557600080fd5b505afa158015612939573d6000803e3d6000fd5b505050506040513d601f19601f8201168201806040525081019061295d91906143f3565b6001600160a01b0316816001600160a01b03161461298d5760405162461bcd60e51b815260040161067b9061479f565b6000816001600160a01b031663313ce5676040518163ffffffff1660e01b815260040160206040518083038186803b1580156129c857600080fd5b505afa1580156129dc573d6000803e3d6000fd5b505050506040513d601f19601f82011682018060405250810190612a009190614802565b60ff1690506000612a1282600a614903565b612a1c908561490f565b9050612a2883336114cd565b600085815260ca602052604090208490876003811115612a4a57612a4a614789565b81548110612a5a57612a5a614451565b906000526020600020016000828254612a7391906144c3565b92505081905550847f6a4348800167e375a04ba455a3563b96544c3d4a8662a4ca79307485fb6dbfc18786604051612aac9291906147d6565b60405180910390a27f00000000000000000000000000000000000000000000000000000000000000006001600160a01b031663fa1785fe6040518163ffffffff1660e01b815260040160206040518083038186803b158015612b0d57600080fd5b505afa158015612b21573d6000803e3d6000fd5b505050506040513d601f19601f82011682018060405250810190612b4591906143f3565b6001600160a01b031663562afdf533886003811115612b6657612b66614789565b15612b72576000612b74565b865b6040516001600160e01b031960e085901b1681526001600160a01b0390921660048301526024820152604401600060405180830381600087803b158015612bba57600080fd5b505af1158015612bce573d6000803e3d6000fd5b50505050505050505050565b6001600160a01b038316612c3557612c3081609980546000838152609a60205260408120829055600182018355919091527f72a152ddfb8e864297c917af52ea6c1c68aead0fee1a62673fcc7e0c94979d000155565b612c58565b816001600160a01b0316836001600160a01b031614612c5857612c588382613599565b6001600160a01b038216612c6f5761071c81613636565b826001600160a01b0316826001600160a01b03161461071c5761071c82826136e5565b6001600160a01b038316612cfb57803414612cef5760405162461bcd60e51b815260206004820152601c60248201527f62617365436f6e74726163743a20696e76616c69642076616c75652e00000000604482015260640161067b565b61071c61dead82613729565b604051636eb1769f60e11b81526001600160a01b03838116600483015230602483015282919085169063dd62ed3e9060440160206040518083038186803b158015612d4557600080fd5b505afa158015612d59573d6000803e3d6000fd5b505050506040513d601f19601f82011682018060405250810190612d7d919061455a565b1015612dd75760405162461bcd60e51b8152602060048201526024808201527f62617365436f6e74726163743a20696e73756666696369656e7420616c6c6f77604482015263616e636560e01b606482015260840161067b565b826001600160a01b03167f00000000000000000000000000000000000000000000000000000000000000006001600160a01b03166377b330c96040518163ffffffff1660e01b815260040160206040518083038186803b158015612e3a57600080fd5b505afa158015612e4e573d6000803e3d6000fd5b505050506040513d601f19601f82011682018060405250810190612e7291906143f3565b6001600160a01b03161415612f285761071c827f00000000000000000000000000000000000000000000000000000000000000006001600160a01b0316630b00fd546040518163ffffffff1660e01b815260040160206040518083038186803b158015612ede57600080fd5b505afa158015612ef2573d6000803e3d6000fd5b505050506040513d601f19601f82011682018060405250810190612f1691906143f3565b6001600160a01b038616919084613842565b61071c6001600160a01b0384168361dead84613842565b610ac282826040518060200160405280600081525061389c565b60c954604080516020810192909252429082015244606082015260009060800160408051601f19818403018152919052805160209091012060c9819055919050565b600054610100900460ff16612fc25760405162461bcd60e51b815260040161067b906145fa565b8151612fd5906065906020850190613c4e565b50805161071c906066906020840190613c4e565b60006001600160a01b0384163b156130eb57604051630a85bd0160e11b81526001600160a01b0385169063150b7a029061302d90339089908890889060040161492e565b602060405180830381600087803b15801561304757600080fd5b505af1925050508015613077575060408051601f3d908101601f191682019092526130749181019061496b565b60015b6130d1573d8080156130a5576040519150601f19603f3d011682016040523d82523d6000602084013e6130aa565b606091505b5080516130c95760405162461bcd60e51b815260040161067b90614645565b805181602001fd5b6001600160e01b031916630a85bd0160e11b14905061100e565b506001949350505050565b6000816001600160a01b03167f00000000000000000000000000000000000000000000000000000000000000006001600160a01b0316633b87436b6040518163ffffffff1660e01b815260040160206040518083038186803b15801561315b57600080fd5b505afa15801561316f573d6000803e3d6000fd5b505050506040513d601f19601f8201168201806040525081019061319391906143f3565b6001600160a01b031614806132495750816001600160a01b03167f00000000000000000000000000000000000000000000000000000000000000006001600160a01b03166377b330c96040518163ffffffff1660e01b815260040160206040518083038186803b15801561320657600080fd5b505afa15801561321a573d6000803e3d6000fd5b505050506040513d601f19601f8201168201806040525081019061323e91906143f3565b6001600160a01b0316145b6132655760405162461bcd60e51b815260040161067b9061479f565b6000826001600160a01b031663313ce5676040518163ffffffff1660e01b815260040160206040518083038186803b1580156132a057600080fd5b505afa1580156132b4573d6000803e3d6000fd5b505050506040513d601f19601f820116820180604052508101906132d89190614802565b60ff169050600062030d40851061339e576132f482600a614903565b6040516330c3d99f60e11b8152600260048201527f00000000000000000000000000000000000000000000000000000000000000006001600160a01b031690636187b33e906024015b60206040518083038186803b15801561335557600080fd5b505afa158015613369573d6000803e3d6000fd5b505050506040513d601f19601f8201168201806040525081019061338d919061455a565b613397919061490f565b90506134b0565b620186a08510613400576133b382600a614903565b6040516330c3d99f60e11b8152600160048201527f00000000000000000000000000000000000000000000000000000000000000006001600160a01b031690636187b33e9060240161333d565b61340b82600a614903565b6040516330c3d99f60e11b8152600060048201527f00000000000000000000000000000000000000000000000000000000000000006001600160a01b031690636187b33e9060240160206040518083038186803b15801561346b57600080fd5b505afa15801561347f573d6000803e3d6000fd5b505050506040513d601f19601f820116820180604052508101906134a3919061455a565b6134ad919061490f565b90505b620493e0851061100e5760405162461bcd60e51b815260206004820152601c60248201527f4c594e4b4e46543a20746f6b656e20696420746f6f206c617267652e00000000604482015260640161067b565b600080600061350f612f59565b9050808460405160200161353f92919091825260601b6bffffffffffffffffffffffff1916602082015260340190565b60408051601f1981840301815291905280516020909101209050613567600560ff8316614753565b6135729060016144c3565b9250613586600360ff608084901c16614753565b6135919060016144c3565b915050915091565b600060016135a684610a22565b6135b091906144ac565b600083815260986020526040902054909150808214613603576001600160a01b03841660009081526097602090815260408083208584528252808320548484528184208190558352609890915290208190555b5060009182526098602090815260408084208490556001600160a01b039094168352609781528383209183525290812055565b609954600090613648906001906144ac565b6000838152609a60205260408120546099805493945090928490811061367057613670614451565b90600052602060002001549050806099838154811061369157613691614451565b6000918252602080832090910192909255828152609a909152604080822084905585825281205560998054806136c9576136c9614988565b6001900381819060005260206000200160009055905550505050565b60006136f083610a22565b6001600160a01b039093166000908152609760209081526040808320868452825280832085905593825260989052919091209190915550565b804710156137795760405162461bcd60e51b815260206004820152601d60248201527f416464726573733a20696e73756666696369656e742062616c616e6365000000604482015260640161067b565b6000826001600160a01b03168260405160006040518083038185875af1925050503d80600081146137c6576040519150601f19603f3d011682016040523d82523d6000602084013e6137cb565b606091505b505090508061071c5760405162461bcd60e51b815260206004820152603a60248201527f416464726573733a20756e61626c6520746f2073656e642076616c75652c207260448201527f6563697069656e74206d61792068617665207265766572746564000000000000606482015260840161067b565b604080516001600160a01b0385811660248301528416604482015260648082018490528251808303909101815260849091019091526020810180516001600160e01b03166323b872dd60e01b179052610c619085906138cf565b6138a683836139a1565b6138b36000848484612fe9565b61071c5760405162461bcd60e51b815260040161067b90614645565b6000613924826040518060400160405280602081526020017f5361666545524332303a206c6f772d6c6576656c2063616c6c206661696c6564815250856001600160a01b0316613aef9092919063ffffffff16565b80519091501561071c578080602001905181019061394291906144db565b61071c5760405162461bcd60e51b815260206004820152602a60248201527f5361666545524332303a204552433230206f7065726174696f6e20646964206e6044820152691bdd081cdd58d8d9595960b21b606482015260840161067b565b6001600160a01b0382166139f75760405162461bcd60e51b815260206004820181905260248201527f4552433732313a206d696e7420746f20746865207a65726f2061646472657373604482015260640161067b565b6000818152606760205260409020546001600160a01b031615613a5c5760405162461bcd60e51b815260206004820152601c60248201527f4552433732313a20746f6b656e20616c7265616479206d696e74656400000000604482015260640161067b565b613a6860008383612bda565b6001600160a01b0382166000908152606860205260408120805460019290613a919084906144c3565b909155505060008181526067602052604080822080546001600160a01b0319166001600160a01b03861690811790915590518392907fddf252ad1be2c89b69c2b068fc378daa952ba7f163c4a11628f55a4df523b3ef908290a45050565b606061100e8484600085856001600160a01b0385163b613b515760405162461bcd60e51b815260206004820152601d60248201527f416464726573733a2063616c6c20746f206e6f6e2d636f6e7472616374000000604482015260640161067b565b600080866001600160a01b03168587604051613b6d919061499e565b60006040518083038185875af1925050503d8060008114613baa576040519150601f19603f3d011682016040523d82523d6000602084013e613baf565b606091505b5091509150613bbf828286613bca565b979650505050505050565b60608315613bd9575081610cd1565b825115613be95782518084602001fd5b8160405162461bcd60e51b815260040161067b9190613d61565b828054828255906000526020600020908101928215613c3e579160200282015b82811115613c3e578251825591602001919060010190613c23565b50613c4a929150613cc1565b5090565b828054613c5a9061436a565b90600052602060002090601f016020900481019282613c7c5760008555613c3e565b82601f10613c9557805160ff1916838001178555613c3e565b82800160010185558215613c3e5791820182811115613c3e578251825591602001919060010190613c23565b5b80821115613c4a5760008155600101613cc2565b6001600160e01b031981168114610c2c57600080fd5b600060208284031215613cfe57600080fd5b8135610cd181613cd6565b60005b83811015613d24578181015183820152602001613d0c565b83811115610c615750506000910152565b60008151808452613d4d816020860160208601613d09565b601f01601f19169290920160200192915050565b602081526000610cd16020830184613d35565b600060208284031215613d8657600080fd5b5035919050565b6001600160a01b0381168114610c2c57600080fd5b60008060408385031215613db557600080fd5b8235613dc081613d8d565b946020939093013593505050565b634e487b7160e01b600052604160045260246000fd5b604051601f8201601f1916810167ffffffffffffffff81118282101715613e0d57613e0d613dce565b604052919050565b600067ffffffffffffffff821115613e2f57613e2f613dce565b50601f01601f191660200190565b6000613e50613e4b84613e15565b613de4565b9050828152838383011115613e6457600080fd5b828260208301376000602084830101529392505050565b600060208284031215613e8d57600080fd5b813567ffffffffffffffff811115613ea457600080fd5b8201601f81018413613eb557600080fd5b61100e84823560208401613e3d565b600080600060608486031215613ed957600080fd5b8335613ee481613d8d565b92506020840135613ef481613d8d565b929592945050506040919091013590565b60008083601f840112613f1757600080fd5b50813567ffffffffffffffff811115613f2f57600080fd5b602083019150836020828501011115613f4757600080fd5b9250929050565b60ff81168114610c2c57600080fd5b600080600080600080600060c0888a031215613f7857600080fd5b873567ffffffffffffffff811115613f8f57600080fd5b613f9b8a828b01613f05565b90985096505060208801359450604088013593506060880135613fbd81613f4e565b969995985093969295946080840135945060a09093013592915050565b600060208284031215613fec57600080fd5b8135610cd181613d8d565b8015158114610c2c57600080fd5b6000806040838503121561401857600080fd5b823561402381613d8d565b9150602083013561403381613ff7565b809150509250929050565b6000806000806080858703121561405457600080fd5b843561405f81613d8d565b9350602085013561406f81613d8d565b925060408501359150606085013567ffffffffffffffff81111561409257600080fd5b8501601f810187136140a357600080fd5b6140b287823560208401613e3d565b91505092959194509250565b600080602083850312156140d157600080fd5b823567ffffffffffffffff8111156140e857600080fd5b6140f485828601613f05565b90969095509350505050565b60008060008060008060008060006101008a8c03121561411f57600080fd5b8935985060208a013561413181613d8d565b975060408a013567ffffffffffffffff81111561414d57600080fd5b6141598c828d01613f05565b90985096505060608a0135945060808a0135935060a08a013561417b81613f4e565b8093505060c08a0135915060e08a013590509295985092959850929598565b8035600481106141a957600080fd5b919050565b60008060008060008060008060006101208a8c0312156141cd57600080fd5b6141d68a61419a565b985060208a0135975060408a0135965060608a01356141f481613d8d565b955060808a0135945060a08a0135935060c08a013561421281613f4e565b8093505060e08a013591506101008a013590509295985092959850929598565b6000806000806080858703121561424857600080fd5b6142518561419a565b93506020850135925060408501359150606085013561426f81613d8d565b939692955090935050565b6020808252825182820181905260009190848201906040850190845b818110156142b257835183529284019291840191600101614296565b50909695505050505050565b600080604083850312156142d157600080fd5b50508035926020909101359150565b600080600080606085870312156142f657600080fd5b84359350602085013561430881613d8d565b9250604085013567ffffffffffffffff81111561432457600080fd5b61433087828801613f05565b95989497509550505050565b6000806040838503121561434f57600080fd5b823561435a81613d8d565b9150602083013561403381613d8d565b600181811c9082168061437e57607f821691505b6020821081141561439f57634e487b7160e01b600052602260045260246000fd5b50919050565b6020808252602e908201527f4552433732313a2063616c6c6572206973206e6f7420746f6b656e206f776e6560408201526d1c881b9bdc88185c1c1c9bdd995960921b606082015260800190565b60006020828403121561440557600080fd5b8151610cd181613d8d565b6001600160a01b0397881681529590961660208601526040850193909352606084019190915260ff16608083015260a082015260c081019190915260e00190565b634e487b7160e01b600052603260045260246000fd5b60008351614479818460208801613d09565b83519083019061448d818360208801613d09565b01949350505050565b634e487b7160e01b600052601160045260246000fd5b6000828210156144be576144be614496565b500390565b600082198211156144d6576144d6614496565b500190565b6000602082840312156144ed57600080fd5b8151610cd181613ff7565b8183823760009101908152919050565b6000806040838503121561451b57600080fd5b505080516020909101519092909150565b6000806040838503121561453f57600080fd5b825161454a81613d8d565b6020939093015192949293505050565b60006020828403121561456c57600080fd5b5051919050565b6000608082016080835280885480835260a08501915089600052602092508260002060005b828110156145b457815484529284019260019182019101614598565b5050508381038285015286815286888383013760008782018301526001600160a01b0386166040850152601f19601f880116010190508260608301529695505050505050565b6020808252602b908201527f496e697469616c697a61626c653a20636f6e7472616374206973206e6f74206960408201526a6e697469616c697a696e6760a81b606082015260800190565b60208082526032908201527f4552433732313a207472616e7366657220746f206e6f6e20455243373231526560408201527131b2b4bb32b91034b6b83632b6b2b73a32b960711b606082015260800190565b6000602082840312156146a957600080fd5b815167ffffffffffffffff8111156146c057600080fd5b8201601f810184136146d157600080fd5b80516146df613e4b82613e15565b8181528560208385010111156146f457600080fd5b614705826020830160208601613d09565b95945050505050565b600060001982141561472257614722614496565b5060010190565b634e487b7160e01b600052601260045260246000fd5b60008261474e5761474e614729565b500490565b60008261476257614762614729565b500690565b60006001600160801b0380831681851680830382111561448d5761448d614496565b634e487b7160e01b600052602160045260246000fd5b6020808252601d908201527f4c594e4b4e46543a20756e737570706f72746564207061796d656e742e000000604082015260600190565b60408101600484106147f857634e487b7160e01b600052602160045260246000fd5b9281526020015290565b60006020828403121561481457600080fd5b8151610cd181613f4e565b600181815b8085111561485a57816000190482111561484057614840614496565b8085161561484d57918102915b93841c9390800290614824565b509250929050565b60008261487157506001610547565b8161487e57506000610547565b8160018114614894576002811461489e576148ba565b6001915050610547565b60ff8411156148af576148af614496565b50506001821b610547565b5060208310610133831016604e8410600b84101617156148dd575081810a610547565b6148e7838361481f565b80600019048211156148fb576148fb614496565b029392505050565b6000610cd18383614862565b600081600019048311821515161561492957614929614496565b500290565b6001600160a01b038581168252841660208201526040810183905260806060820181905260009061496190830184613d35565b9695505050505050565b60006020828403121561497d57600080fd5b8151610cd181613cd6565b634e487b7160e01b600052603160045260246000fd5b600082516149b0818460208701613d09565b919091019291505056fea2646970667358221220378a58b4b8e97fd05aa6ba7690871c4b835082c79292a6fa82d7f0c0a9dd821f64736f6c63430008090033",
  "devdoc": {
    "kind": "dev",
    "methods": {
      "approve(address,uint256)": {
        "details": "See {IERC721-approve}."
      },
      "balanceOf(address)": {
        "details": "See {IERC721-balanceOf}."
      },
      "getApproved(uint256)": {
        "details": "See {IERC721-getApproved}."
      },
      "isApprovedForAll(address,address)": {
        "details": "See {IERC721-isApprovedForAll}."
      },
      "name()": {
        "details": "See {IERC721Metadata-name}."
      },
      "ownerOf(uint256)": {
        "details": "See {IERC721-ownerOf}."
      },
      "safeTransferFrom(address,address,uint256)": {
        "details": "See {IERC721-safeTransferFrom}."
      },
      "safeTransferFrom(address,address,uint256,bytes)": {
        "details": "See {IERC721-safeTransferFrom}."
      },
      "setApprovalForAll(address,bool)": {
        "details": "See {IERC721-setApprovalForAll}."
      },
      "supportsInterface(bytes4)": {
        "details": "See {IERC165-supportsInterface}."
      },
      "symbol()": {
        "details": "See {IERC721Metadata-symbol}."
      },
      "tokenByIndex(uint256)": {
        "details": "See {IERC721Enumerable-tokenByIndex}."
      },
      "tokenOfOwnerByIndex(address,uint256)": {
        "details": "See {IERC721Enumerable-tokenOfOwnerByIndex}."
      },
      "tokenURI(uint256)": {
        "details": "See {IERC721Metadata-tokenURI}."
      },
      "totalSupply()": {
        "details": "See {IERC721Enumerable-totalSupply}."
      },
      "transferFrom(address,address,uint256)": {
        "details": "See {IERC721-transferFrom}."
      }
    },
    "version": 1
  },
  "userdoc": {
    "kind": "user",
    "methods": {},
    "version": 1
  },
  "storageLayout": {
    "storage": [
      {
        "astId": 138,
        "contract": "contracts/token/LYNKNFT.sol:LYNKNFT",
        "label": "_initialized",
        "offset": 0,
        "slot": "0",
        "type": "t_uint8"
      },
      {
        "astId": 141,
        "contract": "contracts/token/LYNKNFT.sol:LYNKNFT",
        "label": "_initializing",
        "offset": 1,
        "slot": "0",
        "type": "t_bool"
      },
      {
        "astId": 3230,
        "contract": "contracts/token/LYNKNFT.sol:LYNKNFT",
        "label": "__gap",
        "offset": 0,
        "slot": "1",
        "type": "t_array(t_uint256)50_storage"
      },
      {
        "astId": 4112,
        "contract": "contracts/token/LYNKNFT.sol:LYNKNFT",
        "label": "__gap",
        "offset": 0,
        "slot": "51",
        "type": "t_array(t_uint256)50_storage"
      },
      {
        "astId": 1533,
        "contract": "contracts/token/LYNKNFT.sol:LYNKNFT",
        "label": "_name",
        "offset": 0,
        "slot": "101",
        "type": "t_string_storage"
      },
      {
        "astId": 1535,
        "contract": "contracts/token/LYNKNFT.sol:LYNKNFT",
        "label": "_symbol",
        "offset": 0,
        "slot": "102",
        "type": "t_string_storage"
      },
      {
        "astId": 1539,
        "contract": "contracts/token/LYNKNFT.sol:LYNKNFT",
        "label": "_owners",
        "offset": 0,
        "slot": "103",
        "type": "t_mapping(t_uint256,t_address)"
      },
      {
        "astId": 1543,
        "contract": "contracts/token/LYNKNFT.sol:LYNKNFT",
        "label": "_balances",
        "offset": 0,
        "slot": "104",
        "type": "t_mapping(t_address,t_uint256)"
      },
      {
        "astId": 1547,
        "contract": "contracts/token/LYNKNFT.sol:LYNKNFT",
        "label": "_tokenApprovals",
        "offset": 0,
        "slot": "105",
        "type": "t_mapping(t_uint256,t_address)"
      },
      {
        "astId": 1553,
        "contract": "contracts/token/LYNKNFT.sol:LYNKNFT",
        "label": "_operatorApprovals",
        "offset": 0,
        "slot": "106",
        "type": "t_mapping(t_address,t_mapping(t_address,t_bool))"
      },
      {
        "astId": 2395,
        "contract": "contracts/token/LYNKNFT.sol:LYNKNFT",
        "label": "__gap",
        "offset": 0,
        "slot": "107",
        "type": "t_array(t_uint256)44_storage"
      },
      {
        "astId": 2560,
        "contract": "contracts/token/LYNKNFT.sol:LYNKNFT",
        "label": "_ownedTokens",
        "offset": 0,
        "slot": "151",
        "type": "t_mapping(t_address,t_mapping(t_uint256,t_uint256))"
      },
      {
        "astId": 2564,
        "contract": "contracts/token/LYNKNFT.sol:LYNKNFT",
        "label": "_ownedTokensIndex",
        "offset": 0,
        "slot": "152",
        "type": "t_mapping(t_uint256,t_uint256)"
      },
      {
        "astId": 2567,
        "contract": "contracts/token/LYNKNFT.sol:LYNKNFT",
        "label": "_allTokens",
        "offset": 0,
        "slot": "153",
        "type": "t_array(t_uint256)dyn_storage"
      },
      {
        "astId": 2571,
        "contract": "contracts/token/LYNKNFT.sol:LYNKNFT",
        "label": "_allTokensIndex",
        "offset": 0,
        "slot": "154",
        "type": "t_mapping(t_uint256,t_uint256)"
      },
      {
        "astId": 2887,
        "contract": "contracts/token/LYNKNFT.sol:LYNKNFT",
        "label": "__gap",
        "offset": 0,
        "slot": "155",
        "type": "t_array(t_uint256)46_storage"
      },
      {
        "astId": 8302,
        "contract": "contracts/token/LYNKNFT.sol:LYNKNFT",
        "label": "randomSeed",
        "offset": 0,
        "slot": "201",
        "type": "t_uint256"
      },
      {
        "astId": 8307,
        "contract": "contracts/token/LYNKNFT.sol:LYNKNFT",
        "label": "nftInfo",
        "offset": 0,
        "slot": "202",
        "type": "t_mapping(t_uint256,t_array(t_uint256)dyn_storage)"
      },
      {
        "astId": 8312,
        "contract": "contracts/token/LYNKNFT.sol:LYNKNFT",
        "label": "mintInfoOf",
        "offset": 0,
        "slot": "203",
        "type": "t_mapping(t_address,t_struct(MintInfo)8350_storage)"
      },
      {
        "astId": 8316,
        "contract": "contracts/token/LYNKNFT.sol:LYNKNFT",
        "label": "nameUsed",
        "offset": 0,
        "slot": "204",
        "type": "t_mapping(t_string_memory_ptr,t_bool)"
      },
      {
        "astId": 8321,
        "contract": "contracts/token/LYNKNFT.sol:LYNKNFT",
        "label": "addedVAInfoOf",
        "offset": 0,
        "slot": "205",
        "type": "t_mapping(t_uint256,t_struct(AttributeAddedInfo)8355_storage)"
      },
      {
        "astId": 8323,
        "contract": "contracts/token/LYNKNFT.sol:LYNKNFT",
        "label": "earlyBirdNextId",
        "offset": 0,
        "slot": "206",
        "type": "t_uint256"
      }
    ],
    "types": {
      "t_address": {
        "encoding": "inplace",
        "label": "address",
        "numberOfBytes": "20"
      },
      "t_array(t_uint256)44_storage": {
        "base": "t_uint256",
        "encoding": "inplace",
        "label": "uint256[44]",
        "numberOfBytes": "1408"
      },
      "t_array(t_uint256)46_storage": {
        "base": "t_uint256",
        "encoding": "inplace",
        "label": "uint256[46]",
        "numberOfBytes": "1472"
      },
      "t_array(t_uint256)50_storage": {
        "base": "t_uint256",
        "encoding": "inplace",
        "label": "uint256[50]",
        "numberOfBytes": "1600"
      },
      "t_array(t_uint256)dyn_storage": {
        "base": "t_uint256",
        "encoding": "dynamic_array",
        "label": "uint256[]",
        "numberOfBytes": "32"
      },
      "t_bool": {
        "encoding": "inplace",
        "label": "bool",
        "numberOfBytes": "1"
      },
      "t_mapping(t_address,t_bool)": {
        "encoding": "mapping",
        "key": "t_address",
        "label": "mapping(address => bool)",
        "numberOfBytes": "32",
        "value": "t_bool"
      },
      "t_mapping(t_address,t_mapping(t_address,t_bool))": {
        "encoding": "mapping",
        "key": "t_address",
        "label": "mapping(address => mapping(address => bool))",
        "numberOfBytes": "32",
        "value": "t_mapping(t_address,t_bool)"
      },
      "t_mapping(t_address,t_mapping(t_uint256,t_uint256))": {
        "encoding": "mapping",
        "key": "t_address",
        "label": "mapping(address => mapping(uint256 => uint256))",
        "numberOfBytes": "32",
        "value": "t_mapping(t_uint256,t_uint256)"
      },
      "t_mapping(t_address,t_struct(MintInfo)8350_storage)": {
        "encoding": "mapping",
        "key": "t_address",
        "label": "mapping(address => struct LYNKNFT.MintInfo)",
        "numberOfBytes": "32",
        "value": "t_struct(MintInfo)8350_storage"
      },
      "t_mapping(t_address,t_uint256)": {
        "encoding": "mapping",
        "key": "t_address",
        "label": "mapping(address => uint256)",
        "numberOfBytes": "32",
        "value": "t_uint256"
      },
      "t_mapping(t_string_memory_ptr,t_bool)": {
        "encoding": "mapping",
        "key": "t_string_memory_ptr",
        "label": "mapping(string => bool)",
        "numberOfBytes": "32",
        "value": "t_bool"
      },
      "t_mapping(t_uint256,t_address)": {
        "encoding": "mapping",
        "key": "t_uint256",
        "label": "mapping(uint256 => address)",
        "numberOfBytes": "32",
        "value": "t_address"
      },
      "t_mapping(t_uint256,t_array(t_uint256)dyn_storage)": {
        "encoding": "mapping",
        "key": "t_uint256",
        "label": "mapping(uint256 => uint256[])",
        "numberOfBytes": "32",
        "value": "t_array(t_uint256)dyn_storage"
      },
      "t_mapping(t_uint256,t_struct(AttributeAddedInfo)8355_storage)": {
        "encoding": "mapping",
        "key": "t_uint256",
        "label": "mapping(uint256 => struct LYNKNFT.AttributeAddedInfo)",
        "numberOfBytes": "32",
        "value": "t_struct(AttributeAddedInfo)8355_storage"
      },
      "t_mapping(t_uint256,t_uint256)": {
        "encoding": "mapping",
        "key": "t_uint256",
        "label": "mapping(uint256 => uint256)",
        "numberOfBytes": "32",
        "value": "t_uint256"
      },
      "t_string_memory_ptr": {
        "encoding": "bytes",
        "label": "string",
        "numberOfBytes": "32"
      },
      "t_string_storage": {
        "encoding": "bytes",
        "label": "string",
        "numberOfBytes": "32"
      },
      "t_struct(AttributeAddedInfo)8355_storage": {
        "encoding": "inplace",
        "label": "struct LYNKNFT.AttributeAddedInfo",
        "members": [
          {
            "astId": 8352,
            "contract": "contracts/token/LYNKNFT.sol:LYNKNFT",
            "label": "lastAddedTime",
            "offset": 0,
            "slot": "0",
            "type": "t_uint128"
          },
          {
            "astId": 8354,
            "contract": "contracts/token/LYNKNFT.sol:LYNKNFT",
            "label": "addedInDuration",
            "offset": 16,
            "slot": "0",
            "type": "t_uint128"
          }
        ],
        "numberOfBytes": "32"
      },
      "t_struct(MintInfo)8350_storage": {
        "encoding": "inplace",
        "label": "struct LYNKNFT.MintInfo",
        "members": [
          {
            "astId": 8347,
            "contract": "contracts/token/LYNKNFT.sol:LYNKNFT",
            "label": "lastMintTime",
            "offset": 0,
            "slot": "0",
            "type": "t_uint128"
          },
          {
            "astId": 8349,
            "contract": "contracts/token/LYNKNFT.sol:LYNKNFT",
            "label": "mintNumInDuration",
            "offset": 16,
            "slot": "0",
            "type": "t_uint128"
          }
        ],
        "numberOfBytes": "32"
      },
      "t_uint128": {
        "encoding": "inplace",
        "label": "uint128",
        "numberOfBytes": "16"
      },
      "t_uint256": {
        "encoding": "inplace",
        "label": "uint256",
        "numberOfBytes": "32"
      },
      "t_uint8": {
        "encoding": "inplace",
        "label": "uint8",
        "numberOfBytes": "1"
      }
    }
  }
}