{
  "address": "0x95Ba0549828755155809BB49CDC5EcB96cB6F9B7",
  "abi": [
    {
      "inputs": [
        {
          "internalType": "address",
          "name": "dbAddress",
          "type": "address"
        }
      ],
      "stateMutability": "nonpayable",
      "type": "constructor"
    },
    {
      "anonymous": false,
      "inputs": [
        {
          "indexed": true,
          "internalType": "address",
          "name": "owner",
          "type": "address"
        },
        {
          "indexed": true,
          "internalType": "address",
          "name": "approved",
          "type": "address"
        },
        {
          "indexed": true,
          "internalType": "uint256",
          "name": "tokenId",
          "type": "uint256"
        }
      ],
      "name": "Approval",
      "type": "event"
    },
    {
      "anonymous": false,
      "inputs": [
        {
          "indexed": true,
          "internalType": "address",
          "name": "owner",
          "type": "address"
        },
        {
          "indexed": true,
          "internalType": "address",
          "name": "operator",
          "type": "address"
        },
        {
          "indexed": false,
          "internalType": "bool",
          "name": "approved",
          "type": "bool"
        }
      ],
      "name": "ApprovalForAll",
      "type": "event"
    },
    {
      "anonymous": false,
      "inputs": [
        {
          "indexed": false,
          "internalType": "uint8",
          "name": "version",
          "type": "uint8"
        }
      ],
      "name": "Initialized",
      "type": "event"
    },
    {
      "anonymous": false,
      "inputs": [
        {
          "indexed": true,
          "internalType": "uint256",
          "name": "tokenId",
          "type": "uint256"
        },
        {
          "indexed": false,
          "internalType": "uint256[]",
          "name": "nftInfo",
          "type": "uint256[]"
        },
        {
          "indexed": false,
          "internalType": "string",
          "name": "name",
          "type": "string"
        }
      ],
      "name": "Mint",
      "type": "event"
    },
    {
      "anonymous": false,
      "inputs": [
        {
          "indexed": true,
          "internalType": "address",
          "name": "from",
          "type": "address"
        },
        {
          "indexed": true,
          "internalType": "address",
          "name": "to",
          "type": "address"
        },
        {
          "indexed": true,
          "internalType": "uint256",
          "name": "tokenId",
          "type": "uint256"
        }
      ],
      "name": "Transfer",
      "type": "event"
    },
    {
      "anonymous": false,
      "inputs": [
        {
          "indexed": true,
          "internalType": "uint256",
          "name": "tokenId",
          "type": "uint256"
        },
        {
          "indexed": false,
          "internalType": "enum ILYNKNFT.Attribute",
          "name": "attr",
          "type": "uint8"
        },
        {
          "indexed": false,
          "internalType": "uint256",
          "name": "point",
          "type": "uint256"
        }
      ],
      "name": "Upgrade",
      "type": "event"
    },
    {
      "inputs": [],
      "name": "BLACK_HOLE",
      "outputs": [
        {
          "internalType": "address",
          "name": "",
          "type": "address"
        }
      ],
      "stateMutability": "view",
      "type": "function"
    },
    {
      "inputs": [],
      "name": "DB_CONTRACT",
      "outputs": [
        {
          "internalType": "address",
          "name": "",
          "type": "address"
        }
      ],
      "stateMutability": "view",
      "type": "function"
    },
    {
      "inputs": [],
      "name": "__LYNKNFT_init",
      "outputs": [],
      "stateMutability": "nonpayable",
      "type": "function"
    },
    {
      "inputs": [
        {
          "internalType": "uint256",
          "name": "",
          "type": "uint256"
        }
      ],
      "name": "addedVAInfoOf",
      "outputs": [
        {
          "internalType": "uint128",
          "name": "lastAddedTime",
          "type": "uint128"
        },
        {
          "internalType": "uint128",
          "name": "addedInDuration",
          "type": "uint128"
        }
      ],
      "stateMutability": "view",
      "type": "function"
    },
    {
      "inputs": [
        {
          "internalType": "address",
          "name": "to",
          "type": "address"
        },
        {
          "internalType": "uint256",
          "name": "tokenId",
          "type": "uint256"
        }
      ],
      "name": "approve",
      "outputs": [],
      "stateMutability": "nonpayable",
      "type": "function"
    },
    {
      "inputs": [
        {
          "internalType": "address",
          "name": "owner",
          "type": "address"
        }
      ],
      "name": "balanceOf",
      "outputs": [
        {
          "internalType": "uint256",
          "name": "",
          "type": "uint256"
        }
      ],
      "stateMutability": "view",
      "type": "function"
    },
    {
      "inputs": [
        {
          "internalType": "uint256",
          "name": "tokenId",
          "type": "uint256"
        }
      ],
      "name": "exists",
      "outputs": [
        {
          "internalType": "bool",
          "name": "",
          "type": "bool"
        }
      ],
      "stateMutability": "view",
      "type": "function"
    },
    {
      "inputs": [
        {
          "internalType": "uint256",
          "name": "tokenId",
          "type": "uint256"
        }
      ],
      "name": "getApproved",
      "outputs": [
        {
          "internalType": "address",
          "name": "",
          "type": "address"
        }
      ],
      "stateMutability": "view",
      "type": "function"
    },
    {
      "inputs": [
        {
          "internalType": "address",
          "name": "owner",
          "type": "address"
        },
        {
          "internalType": "address",
          "name": "operator",
          "type": "address"
        }
      ],
      "name": "isApprovedForAll",
      "outputs": [
        {
          "internalType": "bool",
          "name": "",
          "type": "bool"
        }
      ],
      "stateMutability": "view",
      "type": "function"
    },
    {
      "inputs": [
        {
          "internalType": "uint256",
          "name": "_tokenId",
          "type": "uint256"
        },
        {
          "internalType": "address",
          "name": "_payment",
          "type": "address"
        },
        {
          "internalType": "string",
          "name": "_name",
          "type": "string"
        }
      ],
      "name": "mint",
      "outputs": [],
      "stateMutability": "nonpayable",
      "type": "function"
    },
    {
      "inputs": [
        {
          "internalType": "address",
          "name": "",
          "type": "address"
        }
      ],
      "name": "mintInfoOf",
      "outputs": [
        {
          "internalType": "uint128",
          "name": "lastMintTime",
          "type": "uint128"
        },
        {
          "internalType": "uint128",
          "name": "mintNumInDuration",
          "type": "uint128"
        }
      ],
      "stateMutability": "view",
      "type": "function"
    },
    {
      "inputs": [
        {
          "internalType": "uint256",
          "name": "_tokenId",
          "type": "uint256"
        },
        {
          "internalType": "address",
          "name": "_payment",
          "type": "address"
        },
        {
          "internalType": "string",
          "name": "_name",
          "type": "string"
        },
        {
          "internalType": "uint256",
          "name": "_amount",
          "type": "uint256"
        },
        {
          "internalType": "uint256",
          "name": "deadline",
          "type": "uint256"
        },
        {
          "internalType": "uint8",
          "name": "v",
          "type": "uint8"
        },
        {
          "internalType": "bytes32",
          "name": "r",
          "type": "bytes32"
        },
        {
          "internalType": "bytes32",
          "name": "s",
          "type": "bytes32"
        }
      ],
      "name": "mintWithPermit",
      "outputs": [],
      "stateMutability": "nonpayable",
      "type": "function"
    },
    {
      "inputs": [],
      "name": "name",
      "outputs": [
        {
          "internalType": "string",
          "name": "",
          "type": "string"
        }
      ],
      "stateMutability": "view",
      "type": "function"
    },
    {
      "inputs": [
        {
          "internalType": "string",
          "name": "",
          "type": "string"
        }
      ],
      "name": "nameUsed",
      "outputs": [
        {
          "internalType": "bool",
          "name": "",
          "type": "bool"
        }
      ],
      "stateMutability": "view",
      "type": "function"
    },
    {
      "inputs": [
        {
          "internalType": "uint256",
          "name": "",
          "type": "uint256"
        },
        {
          "internalType": "uint256",
          "name": "",
          "type": "uint256"
        }
      ],
      "name": "nftInfo",
      "outputs": [
        {
          "internalType": "uint256",
          "name": "",
          "type": "uint256"
        }
      ],
      "stateMutability": "view",
      "type": "function"
    },
    {
      "inputs": [
        {
          "internalType": "uint256",
          "name": "_tokenId",
          "type": "uint256"
        }
      ],
      "name": "nftInfoOf",
      "outputs": [
        {
          "internalType": "uint256[]",
          "name": "_nftInfo",
          "type": "uint256[]"
        }
      ],
      "stateMutability": "view",
      "type": "function"
    },
    {
      "inputs": [
        {
          "internalType": "uint256",
          "name": "tokenId",
          "type": "uint256"
        }
      ],
      "name": "ownerOf",
      "outputs": [
        {
          "internalType": "address",
          "name": "",
          "type": "address"
        }
      ],
      "stateMutability": "view",
      "type": "function"
    },
    {
      "inputs": [
        {
          "internalType": "address",
          "name": "from",
          "type": "address"
        },
        {
          "internalType": "address",
          "name": "to",
          "type": "address"
        },
        {
          "internalType": "uint256",
          "name": "tokenId",
          "type": "uint256"
        }
      ],
      "name": "safeTransferFrom",
      "outputs": [],
      "stateMutability": "nonpayable",
      "type": "function"
    },
    {
      "inputs": [
        {
          "internalType": "address",
          "name": "from",
          "type": "address"
        },
        {
          "internalType": "address",
          "name": "to",
          "type": "address"
        },
        {
          "internalType": "uint256",
          "name": "tokenId",
          "type": "uint256"
        },
        {
          "internalType": "bytes",
          "name": "data",
          "type": "bytes"
        }
      ],
      "name": "safeTransferFrom",
      "outputs": [],
      "stateMutability": "nonpayable",
      "type": "function"
    },
    {
      "inputs": [
        {
          "internalType": "address",
          "name": "operator",
          "type": "address"
        },
        {
          "internalType": "bool",
          "name": "approved",
          "type": "bool"
        }
      ],
      "name": "setApprovalForAll",
      "outputs": [],
      "stateMutability": "nonpayable",
      "type": "function"
    },
    {
      "inputs": [
        {
          "internalType": "bytes4",
          "name": "interfaceId",
          "type": "bytes4"
        }
      ],
      "name": "supportsInterface",
      "outputs": [
        {
          "internalType": "bool",
          "name": "",
          "type": "bool"
        }
      ],
      "stateMutability": "view",
      "type": "function"
    },
    {
      "inputs": [],
      "name": "symbol",
      "outputs": [
        {
          "internalType": "string",
          "name": "",
          "type": "string"
        }
      ],
      "stateMutability": "view",
      "type": "function"
    },
    {
      "inputs": [
        {
          "internalType": "uint256",
          "name": "index",
          "type": "uint256"
        }
      ],
      "name": "tokenByIndex",
      "outputs": [
        {
          "internalType": "uint256",
          "name": "",
          "type": "uint256"
        }
      ],
      "stateMutability": "view",
      "type": "function"
    },
    {
      "inputs": [
        {
          "internalType": "address",
          "name": "owner",
          "type": "address"
        },
        {
          "internalType": "uint256",
          "name": "index",
          "type": "uint256"
        }
      ],
      "name": "tokenOfOwnerByIndex",
      "outputs": [
        {
          "internalType": "uint256",
          "name": "",
          "type": "uint256"
        }
      ],
      "stateMutability": "view",
      "type": "function"
    },
    {
      "inputs": [
        {
          "internalType": "uint256",
          "name": "tokenId",
          "type": "uint256"
        }
      ],
      "name": "tokenURI",
      "outputs": [
        {
          "internalType": "string",
          "name": "",
          "type": "string"
        }
      ],
      "stateMutability": "view",
      "type": "function"
    },
    {
      "inputs": [],
      "name": "totalSupply",
      "outputs": [
        {
          "internalType": "uint256",
          "name": "",
          "type": "uint256"
        }
      ],
      "stateMutability": "view",
      "type": "function"
    },
    {
      "inputs": [
        {
          "internalType": "address",
          "name": "from",
          "type": "address"
        },
        {
          "internalType": "address",
          "name": "to",
          "type": "address"
        },
        {
          "internalType": "uint256",
          "name": "tokenId",
          "type": "uint256"
        }
      ],
      "name": "transferFrom",
      "outputs": [],
      "stateMutability": "nonpayable",
      "type": "function"
    },
    {
      "inputs": [
        {
          "internalType": "enum ILYNKNFT.Attribute",
          "name": "_attr",
          "type": "uint8"
        },
        {
          "internalType": "uint256",
          "name": "_tokenId",
          "type": "uint256"
        },
        {
          "internalType": "uint256",
          "name": "_point",
          "type": "uint256"
        },
        {
          "internalType": "address",
          "name": "_payment",
          "type": "address"
        }
      ],
      "name": "upgrade",
      "outputs": [],
      "stateMutability": "nonpayable",
      "type": "function"
    },
    {
      "inputs": [
        {
          "internalType": "enum ILYNKNFT.Attribute",
          "name": "_attr",
          "type": "uint8"
        },
        {
          "internalType": "uint256",
          "name": "_tokenId",
          "type": "uint256"
        },
        {
          "internalType": "uint256",
          "name": "_point",
          "type": "uint256"
        },
        {
          "internalType": "address",
          "name": "_payment",
          "type": "address"
        },
        {
          "internalType": "uint256",
          "name": "_amount",
          "type": "uint256"
        },
        {
          "internalType": "uint256",
          "name": "deadline",
          "type": "uint256"
        },
        {
          "internalType": "uint8",
          "name": "v",
          "type": "uint8"
        },
        {
          "internalType": "bytes32",
          "name": "r",
          "type": "bytes32"
        },
        {
          "internalType": "bytes32",
          "name": "s",
          "type": "bytes32"
        }
      ],
      "name": "upgradeWithPermit",
      "outputs": [],
      "stateMutability": "nonpayable",
      "type": "function"
    }
  ],
  "transactionHash": "0x01a72bcc18eb987f53bf876582a6974fe8072c335b7acb1a1de75c84a0048cd6",
  "args": [
    "0x4023A2776c1CE7d174Ee3BDfa639C74faD47393F"
  ],
  "numDeployments": 4,
  "solcInputHash": "f3a08f843da2b41b923efe565bcaf649",
  "bytecode": "0x60a06040523480156200001157600080fd5b50604051620041ea380380620041ea833981016040819052620000349162000046565b6001600160a01b031660805262000078565b6000602082840312156200005957600080fd5b81516001600160a01b03811681146200007157600080fd5b9392505050565b6080516140ca6200012060003960008181610380015281816111c60152818161135e015281816115c50152818161168c0152818161188e01528181611a6b01528181611b1601528181611c4401528181611d1c01528181611e7901528181611f57015281816120a90152818161229101528181612618015281816126c30152818161281e015281816128dd0152818161293501528181612b670152612c0b01526140ca6000f3fe608060405234801561001057600080fd5b50600436106101cf5760003560e01c806370a0823111610104578063c87b56dd116100a2578063dcefcebc11610071578063dcefcebc14610450578063dfa2eec014610470578063e67e402c14610483578063e985e9c51461049657600080fd5b8063c87b56dd14610404578063cabaa17714610417578063cb97200e1461042a578063d49cf8e31461043d57600080fd5b8063a22cb465116100de578063a22cb465146103a2578063b6fc133a146103b5578063b77c0555146103e9578063b88d4fde146103f157600080fd5b806370a082311461036057806395d89b41146103735780639ccea0cd1461037b57600080fd5b80632f745c59116101715780634f558e791161014b5780634f558e791461031e5780634f6ccce71461033157806355eda4e8146103445780636352211e1461034d57600080fd5b80632f745c59146102a45780633f8336e3146102b757806342842e0e1461030b57600080fd5b8063095ea7b3116101ad578063095ea7b31461023c5780630b9b6e8b1461025157806318160ddd1461027f57806323b872dd1461029157600080fd5b806301ffc9a7146101d457806306fdde03146101fc578063081812fc14610211575b600080fd5b6101e76101e23660046134c7565b6104d2565b60405190151581526020015b60405180910390f35b6102046104fd565b6040516101f3919061353c565b61022461021f36600461354f565b61058f565b6040516001600160a01b0390911681526020016101f3565b61024f61024a36600461357d565b6105b6565b005b6101e761025f366004613656565b805160208183018101805160cc8252928201919093012091525460ff1681565b6099545b6040519081526020016101f3565b61024f61029f36600461369f565b6106d1565b6102836102b236600461357d565b610702565b6102eb6102c536600461354f565b60cd602052600090815260409020546001600160801b0380821691600160801b90041682565b604080516001600160801b039384168152929091166020830152016101f3565b61024f61031936600461369f565b610798565b6101e761032c36600461354f565b6107b3565b61028361033f36600461354f565b6107d2565b61022461dead81565b61022461035b36600461354f565b610865565b61028361036e3660046136e0565b6108c5565b61020461094b565b6102247f000000000000000000000000000000000000000000000000000000000000000081565b61024f6103b036600461370b565b61095a565b6102eb6103c33660046136e0565b60cb602052600090815260409020546001600160801b0380821691600160801b90041682565b61024f610969565b61024f6103ff366004613744565b610ad2565b61020461041236600461354f565b610b0a565b61024f61042536600461381c565b610b71565b61024f6104383660046138ca565b610bf2565b61024f61044b36600461394e565b610c68565b61046361045e36600461354f565b610c74565b6040516101f39190613996565b61028361047e3660046139da565b610cd6565b61024f6104913660046139fc565b610d07565b6101e76104a4366004613a58565b6001600160a01b039182166000908152606a6020908152604080832093909416825291909152205460ff1690565b60006001600160e01b0319821663780e9d6360e01b14806104f757506104f782610d13565b92915050565b60606065805461050c90613a86565b80601f016020809104026020016040519081016040528092919081815260200182805461053890613a86565b80156105855780601f1061055a57610100808354040283529160200191610585565b820191906000526020600020905b81548152906001019060200180831161056857829003601f168201915b5050505050905090565b600061059a82610d63565b506000908152606960205260409020546001600160a01b031690565b60006105c182610865565b9050806001600160a01b0316836001600160a01b031614156106345760405162461bcd60e51b815260206004820152602160248201527f4552433732313a20617070726f76616c20746f2063757272656e74206f776e656044820152603960f91b60648201526084015b60405180910390fd5b336001600160a01b0382161480610650575061065081336104a4565b6106c25760405162461bcd60e51b815260206004820152603e60248201527f4552433732313a20617070726f76652063616c6c6572206973206e6f7420746f60448201527f6b656e206f776e6572206e6f7220617070726f76656420666f7220616c6c0000606482015260840161062b565b6106cc8383610dc2565b505050565b6106db3382610e30565b6106f75760405162461bcd60e51b815260040161062b90613ac1565b6106cc838383610eaf565b600061070d836108c5565b821061076f5760405162461bcd60e51b815260206004820152602b60248201527f455243373231456e756d657261626c653a206f776e657220696e646578206f7560448201526a74206f6620626f756e647360a81b606482015260840161062b565b506001600160a01b03919091166000908152609760209081526040808320938352929052205490565b6106cc83838360405180602001604052806000815250610ad2565b6000818152606760205260408120546001600160a01b031615156104f7565b60006107dd60995490565b82106108405760405162461bcd60e51b815260206004820152602c60248201527f455243373231456e756d657261626c653a20676c6f62616c20696e646578206f60448201526b7574206f6620626f756e647360a01b606482015260840161062b565b6099828154811061085357610853613b0f565b90600052602060002001549050919050565b6000818152606760205260408120546001600160a01b0316806104f75760405162461bcd60e51b8152602060048201526018602482015277115490cdcc8c4e881a5b9d985b1a59081d1bdad95b88125160421b604482015260640161062b565b60006001600160a01b03821661092f5760405162461bcd60e51b815260206004820152602960248201527f4552433732313a2061646472657373207a65726f206973206e6f7420612076616044820152683634b21037bbb732b960b91b606482015260840161062b565b506001600160a01b031660009081526068602052604090205490565b60606066805461050c90613a86565b610965338383611056565b5050565b600054610100900460ff16158080156109895750600054600160ff909116105b806109a35750303b1580156109a3575060005460ff166001145b610a065760405162461bcd60e51b815260206004820152602e60248201527f496e697469616c697a61626c653a20636f6e747261637420697320616c72656160448201526d191e481a5b9a5d1a585b1a5e995960921b606482015260840161062b565b6000805460ff191660011790558015610a29576000805461ff0019166101001790555b610a31611125565b610a3961112d565b610a816040518060400160405280600781526020016613165392d3919560ca1b8152506040518060400160405280600781526020016613165392d3919560ca1b815250611156565b610a89611187565b8015610acf576000805461ff0019169055604051600181527f7f26b83ff96e1f2b6a682f133852f6798a09c465da95921460cefb38474024989060200160405180910390a15b50565b610adc3383610e30565b610af85760405162461bcd60e51b815260040161062b90613ac1565b610b048484848461118f565b50505050565b6060610b1582610d63565b6000610b1f6111c2565b90506000815111610b3f5760405180602001604052806000815250610b6a565b80610b498461125e565b604051602001610b5a929190613b25565b6040516020818303038152906040525b9392505050565b60405163d505accf60e01b81526001600160a01b0389169063d505accf90610ba990339030908a908a908a908a908a90600401613b54565b600060405180830381600087803b158015610bc357600080fd5b505af1158015610bd7573d6000803e3d6000fd5b50505050610be78989898961135c565b505050505050505050565b60405163d505accf60e01b81526001600160a01b0387169063d505accf90610c2a90339030908a908a908a908a908a90600401613b54565b600060405180830381600087803b158015610c4457600080fd5b505af1158015610c58573d6000803e3d6000fd5b50505050610be78989898961188c565b610b048484848461188c565b600081815260ca6020908152604091829020805483518184028101840190945280845260609392830182828015610cca57602002820191906000526020600020905b815481526020019060010190808311610cb6575b50505050509050919050565b60ca6020528160005260406000208181548110610cf257600080fd5b90600052602060002001600091509150505481565b610b048484848461135c565b60006001600160e01b031982166380ac58cd60e01b1480610d4457506001600160e01b03198216635b5e139f60e01b145b806104f757506301ffc9a760e01b6001600160e01b03198316146104f7565b6000818152606760205260409020546001600160a01b0316610acf5760405162461bcd60e51b8152602060048201526018602482015277115490cdcc8c4e881a5b9d985b1a59081d1bdad95b88125160421b604482015260640161062b565b600081815260696020526040902080546001600160a01b0319166001600160a01b0384169081179091558190610df782610865565b6001600160a01b03167f8c5be1e5ebec7d5bd14f71427d1e84f3dd0314c0f7b2291e5b200ac8c7c3b92560405160405180910390a45050565b600080610e3c83610865565b9050806001600160a01b0316846001600160a01b03161480610e8357506001600160a01b038082166000908152606a602090815260408083209388168352929052205460ff165b80610ea75750836001600160a01b0316610e9c8461058f565b6001600160a01b0316145b949350505050565b826001600160a01b0316610ec282610865565b6001600160a01b031614610f265760405162461bcd60e51b815260206004820152602560248201527f4552433732313a207472616e736665722066726f6d20696e636f72726563742060448201526437bbb732b960d91b606482015260840161062b565b6001600160a01b038216610f885760405162461bcd60e51b8152602060048201526024808201527f4552433732313a207472616e7366657220746f20746865207a65726f206164646044820152637265737360e01b606482015260840161062b565b610f938383836123b5565b610f9e600082610dc2565b6001600160a01b0383166000908152606860205260408120805460019290610fc7908490613bab565b90915550506001600160a01b0382166000908152606860205260408120805460019290610ff5908490613bc2565b909155505060008181526067602052604080822080546001600160a01b0319166001600160a01b0386811691821790925591518493918716917fddf252ad1be2c89b69c2b068fc378daa952ba7f163c4a11628f55a4df523b3ef91a4505050565b816001600160a01b0316836001600160a01b031614156110b85760405162461bcd60e51b815260206004820152601960248201527f4552433732313a20617070726f766520746f2063616c6c657200000000000000604482015260640161062b565b6001600160a01b038381166000818152606a6020908152604080832094871680845294825291829020805460ff191686151590811790915591519182527f17307eab39ab6107e8899845ad3d59bd9653f200f220920489ca2b5937696c31910160405180910390a3505050565b610acf61246d565b600054610100900460ff166111545760405162461bcd60e51b815260040161062b90613bda565b565b600054610100900460ff1661117d5760405162461bcd60e51b815260040161062b90613bda565b61096582826124af565b61115461112d565b61119a848484610eaf565b6111a6848484846124fd565b610b045760405162461bcd60e51b815260040161062b90613c25565b60607f00000000000000000000000000000000000000000000000000000000000000006001600160a01b031663d547cfb76040518163ffffffff1660e01b815260040160006040518083038186803b15801561121d57600080fd5b505afa158015611231573d6000803e3d6000fd5b505050506040513d6000823e601f3d908101601f191682016040526112599190810190613c77565b905090565b6060816112825750506040805180820190915260018152600360fc1b602082015290565b8160005b81156112ac578061129681613cee565b91506112a59050600a83613d1f565b9150611286565b60008167ffffffffffffffff8111156112c7576112c76135a9565b6040519080825280601f01601f1916602001820160405280156112f1576020820181803683370190505b5090505b8415610ea757611306600183613bab565b9150611313600a86613d33565b61131e906030613bc2565b60f81b81838151811061133357611333613b0f565b60200101906001600160f81b031916908160001a905350611355600a86613d1f565b94506112f5565b7f00000000000000000000000000000000000000000000000000000000000000006001600160a01b031663fa1785fe6040518163ffffffff1660e01b815260040160206040518083038186803b1580156113b557600080fd5b505afa1580156113c9573d6000803e3d6000fd5b505050506040513d601f19601f820116820180604052508101906113ed9190613d47565b6001600160a01b031663f3c95c60336040516001600160e01b031960e084901b1681526001600160a01b03909116600482015260240160206040518083038186803b15801561143b57600080fd5b505afa15801561144f573d6000803e3d6000fd5b505050506040513d601f19601f820116820180604052508101906114739190613d64565b6114bf5760405162461bcd60e51b815260206004820152601a60248201527f4c594e4b4e46543a206e6f7420612076616c696420757365722e000000000000604482015260640161062b565b60cc82826040516114d1929190613d81565b9081526040519081900360200190205460ff16156115315760405162461bcd60e51b815260206004820152601e60248201527f4c594e4b4e46543a206e616d6520616c726561647920696e20757365642e0000604482015260640161062b565b600160cc8383604051611545929190613d81565b908152604051908190036020019020805491151560ff19909216919091179055600060cb816115713390565b6001600160a01b03908116825260208083019390935260409182016000208251808401845290546001600160801b038082168352600160801b909104168185015282516303ed69ad60e21b815292519094507f000000000000000000000000000000000000000000000000000000000000000090911692630fb5a6b49260048082019391829003018186803b15801561160957600080fd5b505afa15801561161d573d6000803e3d6000fd5b505050506040513d601f19601f820116820180604052508101906116419190613d91565b8151611656906001600160801b031642613bab565b1061168a576000602082810182905233825260cb90526040902080546001600160801b031916426001600160801b03161790555b7f00000000000000000000000000000000000000000000000000000000000000006001600160a01b031663600a2f826040518163ffffffff1660e01b815260040160206040518083038186803b1580156116e357600080fd5b505afa1580156116f7573d6000803e3d6000fd5b505050506040513d601f19601f8201168201806040525081019061171b9190613d91565b81602001516001600160801b0316106117825760405162461bcd60e51b815260206004820152602360248201527f4c594e4b4e46543a2063616e6e6f74206d696e74206d6f726520696e2061206460448201526230bc9760e91b606482015260840161062b565b6020810151611792906001613daa565b33600090815260cb6020526040812080546001600160801b03938416600160801b029316929092179091556117c7868661260a565b90506117d585335b83612a16565b6000806117e133612cc3565b91509150604051806080016040528060008152602001838152602001828152602001600081525060ca60008a81526020019081526020016000209060046118299291906133de565b506118343389612d5a565b877f3194b9eda49080890eb6e8c1fa3c547b1a1e80d82e86fea3c9fc5d66eacc2ef760ca60008b8152602001908152602001600020888860405161187a93929190613dcc565b60405180910390a25050505050505050565b7f00000000000000000000000000000000000000000000000000000000000000006001600160a01b031663fa1785fe6040518163ffffffff1660e01b815260040160206040518083038186803b1580156118e557600080fd5b505afa1580156118f9573d6000803e3d6000fd5b505050506040513d601f19601f8201168201806040525081019061191d9190613d47565b6001600160a01b031663f3c95c60336040516001600160e01b031960e084901b1681526001600160a01b03909116600482015260240160206040518083038186803b15801561196b57600080fd5b505afa15801561197f573d6000803e3d6000fd5b505050506040513d601f19601f820116820180604052508101906119a39190613d64565b6119ef5760405162461bcd60e51b815260206004820152601a60248201527f4c594e4b4e46543a206e6f7420612076616c696420757365722e000000000000604482015260640161062b565b3233148015611a0e575033611a0384610865565b6001600160a01b0316145b611a535760405162461bcd60e51b8152602060048201526016602482015275262ca725a7232a1d103737ba103a34329037bbb732b960511b604482015260640161062b565b836003811115611a6557611a65613e3f565b611bdb577f00000000000000000000000000000000000000000000000000000000000000006001600160a01b03166377b330c96040518163ffffffff1660e01b815260040160206040518083038186803b158015611ac257600080fd5b505afa158015611ad6573d6000803e3d6000fd5b505050506040513d601f19601f82011682018060405250810190611afa9190613d47565b6001600160a01b0316816001600160a01b03161480611bba57507f00000000000000000000000000000000000000000000000000000000000000006001600160a01b0316633b87436b6040518163ffffffff1660e01b815260040160206040518083038186803b158015611b6d57600080fd5b505afa158015611b81573d6000803e3d6000fd5b505050506040513d601f19601f82011682018060405250810190611ba59190613d47565b6001600160a01b0316816001600160a01b0316145b611bd65760405162461bcd60e51b815260040161062b90613e55565b612168565b836003811115611bed57611bed613e3f565b60011415611e5357600083815260cd60209081526040918290208251808401845290546001600160801b038082168352600160801b909104168183015282516303ed69ad60e21b8152925190926001600160a01b037f00000000000000000000000000000000000000000000000000000000000000001692630fb5a6b492600480840193829003018186803b158015611c8557600080fd5b505afa158015611c99573d6000803e3d6000fd5b505050506040513d601f19601f82011682018060405250810190611cbd9190613d91565b8151611cd2906001600160801b031642613bab565b10611d06576000602082810182905285825260cd90526040902080546001600160801b0319166001600160801b0342161790555b60405163317369c560e11b8152600481018590527f00000000000000000000000000000000000000000000000000000000000000006001600160a01b0316906362e6d38a9060240160206040518083038186803b158015611d6657600080fd5b505afa158015611d7a573d6000803e3d6000fd5b505050506040513d601f19601f82011682018060405250810190611d9e9190613d91565b8382602001516001600160801b0316611db79190613bc2565b1115611e145760405162461bcd60e51b815260206004820152602660248201527f4c594e4b4e46543a2063616e6e6f742075706772616465206d6f726520696e2060448201526530903230bc9760d11b606482015260840161062b565b828160200151611e249190613daa565b600085815260cd6020526040902080546001600160801b03928316600160801b029216919091179055506120a7565b60006001856003811115611e6957611e69613e3f565b611e739190613bab565b905060007f00000000000000000000000000000000000000000000000000000000000000006001600160a01b031663b2cd99af836003811115611eb857611eb8613e3f565b600088815260ca60205260409020805486908110611ed857611ed8613b0f565b90600052602060002001546040518363ffffffff1660e01b8152600401611f00929190613e8c565b604080518083038186803b158015611f1757600080fd5b505afa158015611f2b573d6000803e3d6000fd5b505050506040513d601f19601f82011682018060405250810190611f4f9190613eb8565b5090506000807f00000000000000000000000000000000000000000000000000000000000000006001600160a01b031663b2cd99af8960ca60008b81526020019081526020016000208b6003811115611faa57611faa613e3f565b81548110611fba57611fba613b0f565b906000526020600020015489611fd09190613bc2565b6040518363ffffffff1660e01b8152600401611fed929190613e8c565b604080518083038186803b15801561200457600080fd5b505afa158015612018573d6000803e3d6000fd5b505050506040513d601f19601f8201168201806040525081019061203c9190613eb8565b915091508183118061205657508183148015612056575080155b6120a25760405162461bcd60e51b815260206004820152601860248201527f4c594e4b4e46543a206c6576656c206f766572666c6f772e0000000000000000604482015260640161062b565b505050505b7f00000000000000000000000000000000000000000000000000000000000000006001600160a01b031663c2e30dd06040518163ffffffff1660e01b815260040160206040518083038186803b15801561210057600080fd5b505afa158015612114573d6000803e3d6000fd5b505050506040513d601f19601f820116820180604052508101906121389190613d47565b6001600160a01b0316816001600160a01b0316146121685760405162461bcd60e51b815260040161062b90613e55565b6000816001600160a01b031663313ce5676040518163ffffffff1660e01b815260040160206040518083038186803b1580156121a357600080fd5b505afa1580156121b7573d6000803e3d6000fd5b505050506040513d601f19601f820116820180604052508101906121db9190613edc565b60ff16905060006121ed82600a613fdd565b6121f79085613fe9565b905061220383336117cf565b600085815260ca60205260409020849087600381111561222557612225613e3f565b8154811061223557612235613b0f565b90600052602060002001600082825461224e9190613bc2565b92505081905550847f6a4348800167e375a04ba455a3563b96544c3d4a8662a4ca79307485fb6dbfc18786604051612287929190613e8c565b60405180910390a27f00000000000000000000000000000000000000000000000000000000000000006001600160a01b031663fa1785fe6040518163ffffffff1660e01b815260040160206040518083038186803b1580156122e857600080fd5b505afa1580156122fc573d6000803e3d6000fd5b505050506040513d601f19601f820116820180604052508101906123209190613d47565b6001600160a01b031663562afdf53388600381111561234157612341613e3f565b1561234d57600061234f565b865b6040516001600160e01b031960e085901b1681526001600160a01b0390921660048301526024820152604401600060405180830381600087803b15801561239557600080fd5b505af11580156123a9573d6000803e3d6000fd5b50505050505050505050565b6001600160a01b0383166124105761240b81609980546000838152609a60205260408120829055600182018355919091527f72a152ddfb8e864297c917af52ea6c1c68aead0fee1a62673fcc7e0c94979d000155565b612433565b816001600160a01b0316836001600160a01b031614612433576124338382612d74565b6001600160a01b03821661244a576106cc81612e11565b826001600160a01b0316826001600160a01b0316146106cc576106cc8282612ec0565b60c954604080516020810192909252429082015244606082015260009060800160408051601f19818403018152919052805160209091012060c9819055919050565b600054610100900460ff166124d65760405162461bcd60e51b815260040161062b90613bda565b81516124e9906065906020850190613429565b5080516106cc906066906020840190613429565b60006001600160a01b0384163b156125ff57604051630a85bd0160e11b81526001600160a01b0385169063150b7a0290612541903390899088908890600401614008565b602060405180830381600087803b15801561255b57600080fd5b505af192505050801561258b575060408051601f3d908101601f1916820190925261258891810190614045565b60015b6125e5573d8080156125b9576040519150601f19603f3d011682016040523d82523d6000602084013e6125be565b606091505b5080516125dd5760405162461bcd60e51b815260040161062b90613c25565b805181602001fd5b6001600160e01b031916630a85bd0160e11b149050610ea7565b506001949350505050565b6000816001600160a01b03167f00000000000000000000000000000000000000000000000000000000000000006001600160a01b0316633b87436b6040518163ffffffff1660e01b815260040160206040518083038186803b15801561266f57600080fd5b505afa158015612683573d6000803e3d6000fd5b505050506040513d601f19601f820116820180604052508101906126a79190613d47565b6001600160a01b0316148061275d5750816001600160a01b03167f00000000000000000000000000000000000000000000000000000000000000006001600160a01b03166377b330c96040518163ffffffff1660e01b815260040160206040518083038186803b15801561271a57600080fd5b505afa15801561272e573d6000803e3d6000fd5b505050506040513d601f19601f820116820180604052508101906127529190613d47565b6001600160a01b0316145b6127795760405162461bcd60e51b815260040161062b90613e55565b6000826001600160a01b031663313ce5676040518163ffffffff1660e01b815260040160206040518083038186803b1580156127b457600080fd5b505afa1580156127c8573d6000803e3d6000fd5b505050506040513d601f19601f820116820180604052508101906127ec9190613edc565b60ff169050600062030d4085106128b25761280882600a613fdd565b6040516330c3d99f60e11b8152600260048201527f00000000000000000000000000000000000000000000000000000000000000006001600160a01b031690636187b33e906024015b60206040518083038186803b15801561286957600080fd5b505afa15801561287d573d6000803e3d6000fd5b505050506040513d601f19601f820116820180604052508101906128a19190613d91565b6128ab9190613fe9565b90506129c4565b620186a08510612914576128c782600a613fdd565b6040516330c3d99f60e11b8152600160048201527f00000000000000000000000000000000000000000000000000000000000000006001600160a01b031690636187b33e90602401612851565b61291f82600a613fdd565b6040516330c3d99f60e11b8152600060048201527f00000000000000000000000000000000000000000000000000000000000000006001600160a01b031690636187b33e9060240160206040518083038186803b15801561297f57600080fd5b505afa158015612993573d6000803e3d6000fd5b505050506040513d601f19601f820116820180604052508101906129b79190613d91565b6129c19190613fe9565b90505b620493e08510610ea75760405162461bcd60e51b815260206004820152601c60248201527f4c594e4b4e46543a20746f6b656e20696420746f6f206c617267652e00000000604482015260640161062b565b6001600160a01b038316612a7f57803414612a735760405162461bcd60e51b815260206004820152601c60248201527f62617365436f6e74726163743a20696e76616c69642076616c75652e00000000604482015260640161062b565b6106cc61dead82612f04565b604051636eb1769f60e11b81526001600160a01b03838116600483015230602483015282919085169063dd62ed3e9060440160206040518083038186803b158015612ac957600080fd5b505afa158015612add573d6000803e3d6000fd5b505050506040513d601f19601f82011682018060405250810190612b019190613d91565b1015612b5b5760405162461bcd60e51b8152602060048201526024808201527f62617365436f6e74726163743a20696e73756666696369656e7420616c6c6f77604482015263616e636560e01b606482015260840161062b565b826001600160a01b03167f00000000000000000000000000000000000000000000000000000000000000006001600160a01b03166377b330c96040518163ffffffff1660e01b815260040160206040518083038186803b158015612bbe57600080fd5b505afa158015612bd2573d6000803e3d6000fd5b505050506040513d601f19601f82011682018060405250810190612bf69190613d47565b6001600160a01b03161415612cac576106cc827f00000000000000000000000000000000000000000000000000000000000000006001600160a01b0316630b00fd546040518163ffffffff1660e01b815260040160206040518083038186803b158015612c6257600080fd5b505afa158015612c76573d6000803e3d6000fd5b505050506040513d601f19601f82011682018060405250810190612c9a9190613d47565b6001600160a01b03861691908461301d565b6106cc6001600160a01b0384168361dead8461301d565b6000806000612cd061246d565b90508084604051602001612d0092919091825260601b6bffffffffffffffffffffffff1916602082015260340190565b60408051601f1981840301815291905280516020909101209050612d28600560ff8316613d33565b612d33906001613bc2565b9250612d47600360ff608084901c16613d33565b612d52906001613bc2565b915050915091565b610965828260405180602001604052806000815250613077565b60006001612d81846108c5565b612d8b9190613bab565b600083815260986020526040902054909150808214612dde576001600160a01b03841660009081526097602090815260408083208584528252808320548484528184208190558352609890915290208190555b5060009182526098602090815260408084208490556001600160a01b039094168352609781528383209183525290812055565b609954600090612e2390600190613bab565b6000838152609a602052604081205460998054939450909284908110612e4b57612e4b613b0f565b906000526020600020015490508060998381548110612e6c57612e6c613b0f565b6000918252602080832090910192909255828152609a90915260408082208490558582528120556099805480612ea457612ea4614062565b6001900381819060005260206000200160009055905550505050565b6000612ecb836108c5565b6001600160a01b039093166000908152609760209081526040808320868452825280832085905593825260989052919091209190915550565b80471015612f545760405162461bcd60e51b815260206004820152601d60248201527f416464726573733a20696e73756666696369656e742062616c616e6365000000604482015260640161062b565b6000826001600160a01b03168260405160006040518083038185875af1925050503d8060008114612fa1576040519150601f19603f3d011682016040523d82523d6000602084013e612fa6565b606091505b50509050806106cc5760405162461bcd60e51b815260206004820152603a60248201527f416464726573733a20756e61626c6520746f2073656e642076616c75652c207260448201527f6563697069656e74206d61792068617665207265766572746564000000000000606482015260840161062b565b604080516001600160a01b0385811660248301528416604482015260648082018490528251808303909101815260849091019091526020810180516001600160e01b03166323b872dd60e01b179052610b049085906130aa565b613081838361317c565b61308e60008484846124fd565b6106cc5760405162461bcd60e51b815260040161062b90613c25565b60006130ff826040518060400160405280602081526020017f5361666545524332303a206c6f772d6c6576656c2063616c6c206661696c6564815250856001600160a01b03166132ca9092919063ffffffff16565b8051909150156106cc578080602001905181019061311d9190613d64565b6106cc5760405162461bcd60e51b815260206004820152602a60248201527f5361666545524332303a204552433230206f7065726174696f6e20646964206e6044820152691bdd081cdd58d8d9595960b21b606482015260840161062b565b6001600160a01b0382166131d25760405162461bcd60e51b815260206004820181905260248201527f4552433732313a206d696e7420746f20746865207a65726f2061646472657373604482015260640161062b565b6000818152606760205260409020546001600160a01b0316156132375760405162461bcd60e51b815260206004820152601c60248201527f4552433732313a20746f6b656e20616c7265616479206d696e74656400000000604482015260640161062b565b613243600083836123b5565b6001600160a01b038216600090815260686020526040812080546001929061326c908490613bc2565b909155505060008181526067602052604080822080546001600160a01b0319166001600160a01b03861690811790915590518392907fddf252ad1be2c89b69c2b068fc378daa952ba7f163c4a11628f55a4df523b3ef908290a45050565b6060610ea78484600085856001600160a01b0385163b61332c5760405162461bcd60e51b815260206004820152601d60248201527f416464726573733a2063616c6c20746f206e6f6e2d636f6e7472616374000000604482015260640161062b565b600080866001600160a01b031685876040516133489190614078565b60006040518083038185875af1925050503d8060008114613385576040519150601f19603f3d011682016040523d82523d6000602084013e61338a565b606091505b509150915061339a8282866133a5565b979650505050505050565b606083156133b4575081610b6a565b8251156133c45782518084602001fd5b8160405162461bcd60e51b815260040161062b919061353c565b828054828255906000526020600020908101928215613419579160200282015b828111156134195782518255916020019190600101906133fe565b5061342592915061349c565b5090565b82805461343590613a86565b90600052602060002090601f0160209004810192826134575760008555613419565b82601f1061347057805160ff1916838001178555613419565b8280016001018555821561341957918201828111156134195782518255916020019190600101906133fe565b5b80821115613425576000815560010161349d565b6001600160e01b031981168114610acf57600080fd5b6000602082840312156134d957600080fd5b8135610b6a816134b1565b60005b838110156134ff5781810151838201526020016134e7565b83811115610b045750506000910152565b600081518084526135288160208601602086016134e4565b601f01601f19169290920160200192915050565b602081526000610b6a6020830184613510565b60006020828403121561356157600080fd5b5035919050565b6001600160a01b0381168114610acf57600080fd5b6000806040838503121561359057600080fd5b823561359b81613568565b946020939093013593505050565b634e487b7160e01b600052604160045260246000fd5b604051601f8201601f1916810167ffffffffffffffff811182821017156135e8576135e86135a9565b604052919050565b600067ffffffffffffffff82111561360a5761360a6135a9565b50601f01601f191660200190565b600061362b613626846135f0565b6135bf565b905082815283838301111561363f57600080fd5b828260208301376000602084830101529392505050565b60006020828403121561366857600080fd5b813567ffffffffffffffff81111561367f57600080fd5b8201601f8101841361369057600080fd5b610ea784823560208401613618565b6000806000606084860312156136b457600080fd5b83356136bf81613568565b925060208401356136cf81613568565b929592945050506040919091013590565b6000602082840312156136f257600080fd5b8135610b6a81613568565b8015158114610acf57600080fd5b6000806040838503121561371e57600080fd5b823561372981613568565b91506020830135613739816136fd565b809150509250929050565b6000806000806080858703121561375a57600080fd5b843561376581613568565b9350602085013561377581613568565b925060408501359150606085013567ffffffffffffffff81111561379857600080fd5b8501601f810187136137a957600080fd5b6137b887823560208401613618565b91505092959194509250565b60008083601f8401126137d657600080fd5b50813567ffffffffffffffff8111156137ee57600080fd5b60208301915083602082850101111561380657600080fd5b9250929050565b60ff81168114610acf57600080fd5b60008060008060008060008060006101008a8c03121561383b57600080fd5b8935985060208a013561384d81613568565b975060408a013567ffffffffffffffff81111561386957600080fd5b6138758c828d016137c4565b90985096505060608a0135945060808a0135935060a08a01356138978161380d565b8093505060c08a0135915060e08a013590509295985092959850929598565b8035600481106138c557600080fd5b919050565b60008060008060008060008060006101208a8c0312156138e957600080fd5b6138f28a6138b6565b985060208a0135975060408a0135965060608a013561391081613568565b955060808a0135945060a08a0135935060c08a013561392e8161380d565b8093505060e08a013591506101008a013590509295985092959850929598565b6000806000806080858703121561396457600080fd5b61396d856138b6565b93506020850135925060408501359150606085013561398b81613568565b939692955090935050565b6020808252825182820181905260009190848201906040850190845b818110156139ce578351835292840192918401916001016139b2565b50909695505050505050565b600080604083850312156139ed57600080fd5b50508035926020909101359150565b60008060008060608587031215613a1257600080fd5b843593506020850135613a2481613568565b9250604085013567ffffffffffffffff811115613a4057600080fd5b613a4c878288016137c4565b95989497509550505050565b60008060408385031215613a6b57600080fd5b8235613a7681613568565b9150602083013561373981613568565b600181811c90821680613a9a57607f821691505b60208210811415613abb57634e487b7160e01b600052602260045260246000fd5b50919050565b6020808252602e908201527f4552433732313a2063616c6c6572206973206e6f7420746f6b656e206f776e6560408201526d1c881b9bdc88185c1c1c9bdd995960921b606082015260800190565b634e487b7160e01b600052603260045260246000fd5b60008351613b378184602088016134e4565b835190830190613b4b8183602088016134e4565b01949350505050565b6001600160a01b0397881681529590961660208601526040850193909352606084019190915260ff16608083015260a082015260c081019190915260e00190565b634e487b7160e01b600052601160045260246000fd5b600082821015613bbd57613bbd613b95565b500390565b60008219821115613bd557613bd5613b95565b500190565b6020808252602b908201527f496e697469616c697a61626c653a20636f6e7472616374206973206e6f74206960408201526a6e697469616c697a696e6760a81b606082015260800190565b60208082526032908201527f4552433732313a207472616e7366657220746f206e6f6e20455243373231526560408201527131b2b4bb32b91034b6b83632b6b2b73a32b960711b606082015260800190565b600060208284031215613c8957600080fd5b815167ffffffffffffffff811115613ca057600080fd5b8201601f81018413613cb157600080fd5b8051613cbf613626826135f0565b818152856020838501011115613cd457600080fd5b613ce58260208301602086016134e4565b95945050505050565b6000600019821415613d0257613d02613b95565b5060010190565b634e487b7160e01b600052601260045260246000fd5b600082613d2e57613d2e613d09565b500490565b600082613d4257613d42613d09565b500690565b600060208284031215613d5957600080fd5b8151610b6a81613568565b600060208284031215613d7657600080fd5b8151610b6a816136fd565b8183823760009101908152919050565b600060208284031215613da357600080fd5b5051919050565b60006001600160801b03808316818516808303821115613b4b57613b4b613b95565b6000604082016040835280865480835260608501915087600052602092508260002060005b82811015613e0d57815484529284019260019182019101613df1565b505050838103828501528481528486838301376000818601830152601f909401601f1916909301909201949350505050565b634e487b7160e01b600052602160045260246000fd5b6020808252601d908201527f4c594e4b4e46543a20756e737570706f72746564207061796d656e742e000000604082015260600190565b6040810160048410613eae57634e487b7160e01b600052602160045260246000fd5b9281526020015290565b60008060408385031215613ecb57600080fd5b505080516020909101519092909150565b600060208284031215613eee57600080fd5b8151610b6a8161380d565b600181815b80851115613f34578160001904821115613f1a57613f1a613b95565b80851615613f2757918102915b93841c9390800290613efe565b509250929050565b600082613f4b575060016104f7565b81613f58575060006104f7565b8160018114613f6e5760028114613f7857613f94565b60019150506104f7565b60ff841115613f8957613f89613b95565b50506001821b6104f7565b5060208310610133831016604e8410600b8410161715613fb7575081810a6104f7565b613fc18383613ef9565b8060001904821115613fd557613fd5613b95565b029392505050565b6000610b6a8383613f3c565b600081600019048311821515161561400357614003613b95565b500290565b6001600160a01b038581168252841660208201526040810183905260806060820181905260009061403b90830184613510565b9695505050505050565b60006020828403121561405757600080fd5b8151610b6a816134b1565b634e487b7160e01b600052603160045260246000fd5b6000825161408a8184602087016134e4565b919091019291505056fea2646970667358221220101d12835e644dd53b274d753bf8126c088ab90856c5b0ca00b903977b6f264864736f6c63430008090033",
  "devdoc": {
    "kind": "dev",
    "methods": {
      "approve(address,uint256)": {
        "details": "See {IERC721-approve}."
      },
      "balanceOf(address)": {
        "details": "See {IERC721-balanceOf}."
      },
      "getApproved(uint256)": {
        "details": "See {IERC721-getApproved}."
      },
      "isApprovedForAll(address,address)": {
        "details": "See {IERC721-isApprovedForAll}."
      },
      "name()": {
        "details": "See {IERC721Metadata-name}."
      },
      "ownerOf(uint256)": {
        "details": "See {IERC721-ownerOf}."
      },
      "safeTransferFrom(address,address,uint256)": {
        "details": "See {IERC721-safeTransferFrom}."
      },
      "safeTransferFrom(address,address,uint256,bytes)": {
        "details": "See {IERC721-safeTransferFrom}."
      },
      "setApprovalForAll(address,bool)": {
        "details": "See {IERC721-setApprovalForAll}."
      },
      "supportsInterface(bytes4)": {
        "details": "See {IERC165-supportsInterface}."
      },
      "symbol()": {
        "details": "See {IERC721Metadata-symbol}."
      },
      "tokenByIndex(uint256)": {
        "details": "See {IERC721Enumerable-tokenByIndex}."
      },
      "tokenOfOwnerByIndex(address,uint256)": {
        "details": "See {IERC721Enumerable-tokenOfOwnerByIndex}."
      },
      "tokenURI(uint256)": {
        "details": "See {IERC721Metadata-tokenURI}."
      },
      "totalSupply()": {
        "details": "See {IERC721Enumerable-totalSupply}."
      },
      "transferFrom(address,address,uint256)": {
        "details": "See {IERC721-transferFrom}."
      }
    },
    "version": 1
  },
  "userdoc": {
    "kind": "user",
    "methods": {},
    "version": 1
  },
  "storageLayout": {
    "storage": [
      {
        "astId": 138,
        "contract": "contracts/token/LYNKNFT.sol:LYNKNFT",
        "label": "_initialized",
        "offset": 0,
        "slot": "0",
        "type": "t_uint8"
      },
      {
        "astId": 141,
        "contract": "contracts/token/LYNKNFT.sol:LYNKNFT",
        "label": "_initializing",
        "offset": 1,
        "slot": "0",
        "type": "t_bool"
      },
      {
        "astId": 3230,
        "contract": "contracts/token/LYNKNFT.sol:LYNKNFT",
        "label": "__gap",
        "offset": 0,
        "slot": "1",
        "type": "t_array(t_uint256)50_storage"
      },
      {
        "astId": 4112,
        "contract": "contracts/token/LYNKNFT.sol:LYNKNFT",
        "label": "__gap",
        "offset": 0,
        "slot": "51",
        "type": "t_array(t_uint256)50_storage"
      },
      {
        "astId": 1533,
        "contract": "contracts/token/LYNKNFT.sol:LYNKNFT",
        "label": "_name",
        "offset": 0,
        "slot": "101",
        "type": "t_string_storage"
      },
      {
        "astId": 1535,
        "contract": "contracts/token/LYNKNFT.sol:LYNKNFT",
        "label": "_symbol",
        "offset": 0,
        "slot": "102",
        "type": "t_string_storage"
      },
      {
        "astId": 1539,
        "contract": "contracts/token/LYNKNFT.sol:LYNKNFT",
        "label": "_owners",
        "offset": 0,
        "slot": "103",
        "type": "t_mapping(t_uint256,t_address)"
      },
      {
        "astId": 1543,
        "contract": "contracts/token/LYNKNFT.sol:LYNKNFT",
        "label": "_balances",
        "offset": 0,
        "slot": "104",
        "type": "t_mapping(t_address,t_uint256)"
      },
      {
        "astId": 1547,
        "contract": "contracts/token/LYNKNFT.sol:LYNKNFT",
        "label": "_tokenApprovals",
        "offset": 0,
        "slot": "105",
        "type": "t_mapping(t_uint256,t_address)"
      },
      {
        "astId": 1553,
        "contract": "contracts/token/LYNKNFT.sol:LYNKNFT",
        "label": "_operatorApprovals",
        "offset": 0,
        "slot": "106",
        "type": "t_mapping(t_address,t_mapping(t_address,t_bool))"
      },
      {
        "astId": 2395,
        "contract": "contracts/token/LYNKNFT.sol:LYNKNFT",
        "label": "__gap",
        "offset": 0,
        "slot": "107",
        "type": "t_array(t_uint256)44_storage"
      },
      {
        "astId": 2560,
        "contract": "contracts/token/LYNKNFT.sol:LYNKNFT",
        "label": "_ownedTokens",
        "offset": 0,
        "slot": "151",
        "type": "t_mapping(t_address,t_mapping(t_uint256,t_uint256))"
      },
      {
        "astId": 2564,
        "contract": "contracts/token/LYNKNFT.sol:LYNKNFT",
        "label": "_ownedTokensIndex",
        "offset": 0,
        "slot": "152",
        "type": "t_mapping(t_uint256,t_uint256)"
      },
      {
        "astId": 2567,
        "contract": "contracts/token/LYNKNFT.sol:LYNKNFT",
        "label": "_allTokens",
        "offset": 0,
        "slot": "153",
        "type": "t_array(t_uint256)dyn_storage"
      },
      {
        "astId": 2571,
        "contract": "contracts/token/LYNKNFT.sol:LYNKNFT",
        "label": "_allTokensIndex",
        "offset": 0,
        "slot": "154",
        "type": "t_mapping(t_uint256,t_uint256)"
      },
      {
        "astId": 2887,
        "contract": "contracts/token/LYNKNFT.sol:LYNKNFT",
        "label": "__gap",
        "offset": 0,
        "slot": "155",
        "type": "t_array(t_uint256)46_storage"
      },
      {
        "astId": 8044,
        "contract": "contracts/token/LYNKNFT.sol:LYNKNFT",
        "label": "randomSeed",
        "offset": 0,
        "slot": "201",
        "type": "t_uint256"
      },
      {
        "astId": 8049,
        "contract": "contracts/token/LYNKNFT.sol:LYNKNFT",
        "label": "nftInfo",
        "offset": 0,
        "slot": "202",
        "type": "t_mapping(t_uint256,t_array(t_uint256)dyn_storage)"
      },
      {
        "astId": 8054,
        "contract": "contracts/token/LYNKNFT.sol:LYNKNFT",
        "label": "mintInfoOf",
        "offset": 0,
        "slot": "203",
        "type": "t_mapping(t_address,t_struct(MintInfo)8086_storage)"
      },
      {
        "astId": 8058,
        "contract": "contracts/token/LYNKNFT.sol:LYNKNFT",
        "label": "nameUsed",
        "offset": 0,
        "slot": "204",
        "type": "t_mapping(t_string_memory_ptr,t_bool)"
      },
      {
        "astId": 8063,
        "contract": "contracts/token/LYNKNFT.sol:LYNKNFT",
        "label": "addedVAInfoOf",
        "offset": 0,
        "slot": "205",
        "type": "t_mapping(t_uint256,t_struct(AttributeAddedInfo)8091_storage)"
      }
    ],
    "types": {
      "t_address": {
        "encoding": "inplace",
        "label": "address",
        "numberOfBytes": "20"
      },
      "t_array(t_uint256)44_storage": {
        "base": "t_uint256",
        "encoding": "inplace",
        "label": "uint256[44]",
        "numberOfBytes": "1408"
      },
      "t_array(t_uint256)46_storage": {
        "base": "t_uint256",
        "encoding": "inplace",
        "label": "uint256[46]",
        "numberOfBytes": "1472"
      },
      "t_array(t_uint256)50_storage": {
        "base": "t_uint256",
        "encoding": "inplace",
        "label": "uint256[50]",
        "numberOfBytes": "1600"
      },
      "t_array(t_uint256)dyn_storage": {
        "base": "t_uint256",
        "encoding": "dynamic_array",
        "label": "uint256[]",
        "numberOfBytes": "32"
      },
      "t_bool": {
        "encoding": "inplace",
        "label": "bool",
        "numberOfBytes": "1"
      },
      "t_mapping(t_address,t_bool)": {
        "encoding": "mapping",
        "key": "t_address",
        "label": "mapping(address => bool)",
        "numberOfBytes": "32",
        "value": "t_bool"
      },
      "t_mapping(t_address,t_mapping(t_address,t_bool))": {
        "encoding": "mapping",
        "key": "t_address",
        "label": "mapping(address => mapping(address => bool))",
        "numberOfBytes": "32",
        "value": "t_mapping(t_address,t_bool)"
      },
      "t_mapping(t_address,t_mapping(t_uint256,t_uint256))": {
        "encoding": "mapping",
        "key": "t_address",
        "label": "mapping(address => mapping(uint256 => uint256))",
        "numberOfBytes": "32",
        "value": "t_mapping(t_uint256,t_uint256)"
      },
      "t_mapping(t_address,t_struct(MintInfo)8086_storage)": {
        "encoding": "mapping",
        "key": "t_address",
        "label": "mapping(address => struct LYNKNFT.MintInfo)",
        "numberOfBytes": "32",
        "value": "t_struct(MintInfo)8086_storage"
      },
      "t_mapping(t_address,t_uint256)": {
        "encoding": "mapping",
        "key": "t_address",
        "label": "mapping(address => uint256)",
        "numberOfBytes": "32",
        "value": "t_uint256"
      },
      "t_mapping(t_string_memory_ptr,t_bool)": {
        "encoding": "mapping",
        "key": "t_string_memory_ptr",
        "label": "mapping(string => bool)",
        "numberOfBytes": "32",
        "value": "t_bool"
      },
      "t_mapping(t_uint256,t_address)": {
        "encoding": "mapping",
        "key": "t_uint256",
        "label": "mapping(uint256 => address)",
        "numberOfBytes": "32",
        "value": "t_address"
      },
      "t_mapping(t_uint256,t_array(t_uint256)dyn_storage)": {
        "encoding": "mapping",
        "key": "t_uint256",
        "label": "mapping(uint256 => uint256[])",
        "numberOfBytes": "32",
        "value": "t_array(t_uint256)dyn_storage"
      },
      "t_mapping(t_uint256,t_struct(AttributeAddedInfo)8091_storage)": {
        "encoding": "mapping",
        "key": "t_uint256",
        "label": "mapping(uint256 => struct LYNKNFT.AttributeAddedInfo)",
        "numberOfBytes": "32",
        "value": "t_struct(AttributeAddedInfo)8091_storage"
      },
      "t_mapping(t_uint256,t_uint256)": {
        "encoding": "mapping",
        "key": "t_uint256",
        "label": "mapping(uint256 => uint256)",
        "numberOfBytes": "32",
        "value": "t_uint256"
      },
      "t_string_memory_ptr": {
        "encoding": "bytes",
        "label": "string",
        "numberOfBytes": "32"
      },
      "t_string_storage": {
        "encoding": "bytes",
        "label": "string",
        "numberOfBytes": "32"
      },
      "t_struct(AttributeAddedInfo)8091_storage": {
        "encoding": "inplace",
        "label": "struct LYNKNFT.AttributeAddedInfo",
        "members": [
          {
            "astId": 8088,
            "contract": "contracts/token/LYNKNFT.sol:LYNKNFT",
            "label": "lastAddedTime",
            "offset": 0,
            "slot": "0",
            "type": "t_uint128"
          },
          {
            "astId": 8090,
            "contract": "contracts/token/LYNKNFT.sol:LYNKNFT",
            "label": "addedInDuration",
            "offset": 16,
            "slot": "0",
            "type": "t_uint128"
          }
        ],
        "numberOfBytes": "32"
      },
      "t_struct(MintInfo)8086_storage": {
        "encoding": "inplace",
        "label": "struct LYNKNFT.MintInfo",
        "members": [
          {
            "astId": 8083,
            "contract": "contracts/token/LYNKNFT.sol:LYNKNFT",
            "label": "lastMintTime",
            "offset": 0,
            "slot": "0",
            "type": "t_uint128"
          },
          {
            "astId": 8085,
            "contract": "contracts/token/LYNKNFT.sol:LYNKNFT",
            "label": "mintNumInDuration",
            "offset": 16,
            "slot": "0",
            "type": "t_uint128"
          }
        ],
        "numberOfBytes": "32"
      },
      "t_uint128": {
        "encoding": "inplace",
        "label": "uint128",
        "numberOfBytes": "16"
      },
      "t_uint256": {
        "encoding": "inplace",
        "label": "uint256",
        "numberOfBytes": "32"
      },
      "t_uint8": {
        "encoding": "inplace",
        "label": "uint8",
        "numberOfBytes": "1"
      }
    }
  }
}