{
  "address": "0x12F03485bF9BBa580A82Ec20AA410Fa27Ba8c333",
  "abi": [
    {
      "inputs": [
        {
          "internalType": "address",
          "name": "dbAddress",
          "type": "address"
        }
      ],
      "stateMutability": "nonpayable",
      "type": "constructor"
    },
    {
      "anonymous": false,
      "inputs": [
        {
          "indexed": true,
          "internalType": "address",
          "name": "owner",
          "type": "address"
        },
        {
          "indexed": true,
          "internalType": "address",
          "name": "approved",
          "type": "address"
        },
        {
          "indexed": true,
          "internalType": "uint256",
          "name": "tokenId",
          "type": "uint256"
        }
      ],
      "name": "Approval",
      "type": "event"
    },
    {
      "anonymous": false,
      "inputs": [
        {
          "indexed": true,
          "internalType": "address",
          "name": "owner",
          "type": "address"
        },
        {
          "indexed": true,
          "internalType": "address",
          "name": "operator",
          "type": "address"
        },
        {
          "indexed": false,
          "internalType": "bool",
          "name": "approved",
          "type": "bool"
        }
      ],
      "name": "ApprovalForAll",
      "type": "event"
    },
    {
      "anonymous": false,
      "inputs": [
        {
          "indexed": false,
          "internalType": "uint8",
          "name": "version",
          "type": "uint8"
        }
      ],
      "name": "Initialized",
      "type": "event"
    },
    {
      "anonymous": false,
      "inputs": [
        {
          "indexed": true,
          "internalType": "uint256",
          "name": "tokenId",
          "type": "uint256"
        },
        {
          "indexed": false,
          "internalType": "uint256[]",
          "name": "nftInfo",
          "type": "uint256[]"
        },
        {
          "indexed": false,
          "internalType": "string",
          "name": "name",
          "type": "string"
        },
        {
          "indexed": false,
          "internalType": "address",
          "name": "payment",
          "type": "address"
        },
        {
          "indexed": false,
          "internalType": "uint256",
          "name": "amount",
          "type": "uint256"
        }
      ],
      "name": "Mint",
      "type": "event"
    },
    {
      "anonymous": false,
      "inputs": [
        {
          "indexed": true,
          "internalType": "address",
          "name": "from",
          "type": "address"
        },
        {
          "indexed": true,
          "internalType": "address",
          "name": "to",
          "type": "address"
        },
        {
          "indexed": true,
          "internalType": "uint256",
          "name": "tokenId",
          "type": "uint256"
        }
      ],
      "name": "Transfer",
      "type": "event"
    },
    {
      "anonymous": false,
      "inputs": [
        {
          "indexed": true,
          "internalType": "uint256",
          "name": "tokenId",
          "type": "uint256"
        },
        {
          "indexed": false,
          "internalType": "enum ILYNKNFT.Attribute",
          "name": "attr",
          "type": "uint8"
        },
        {
          "indexed": false,
          "internalType": "uint256",
          "name": "point",
          "type": "uint256"
        }
      ],
      "name": "Upgrade",
      "type": "event"
    },
    {
      "inputs": [],
      "name": "BLACK_HOLE",
      "outputs": [
        {
          "internalType": "address",
          "name": "",
          "type": "address"
        }
      ],
      "stateMutability": "view",
      "type": "function"
    },
    {
      "inputs": [],
      "name": "DB_CONTRACT",
      "outputs": [
        {
          "internalType": "address",
          "name": "",
          "type": "address"
        }
      ],
      "stateMutability": "view",
      "type": "function"
    },
    {
      "inputs": [],
      "name": "__LYNKNFT_init",
      "outputs": [],
      "stateMutability": "nonpayable",
      "type": "function"
    },
    {
      "inputs": [
        {
          "internalType": "uint256",
          "name": "",
          "type": "uint256"
        }
      ],
      "name": "addedVAInfoOf",
      "outputs": [
        {
          "internalType": "uint128",
          "name": "lastAddedTime",
          "type": "uint128"
        },
        {
          "internalType": "uint128",
          "name": "addedInDuration",
          "type": "uint128"
        }
      ],
      "stateMutability": "view",
      "type": "function"
    },
    {
      "inputs": [
        {
          "internalType": "address",
          "name": "to",
          "type": "address"
        },
        {
          "internalType": "uint256",
          "name": "tokenId",
          "type": "uint256"
        }
      ],
      "name": "approve",
      "outputs": [],
      "stateMutability": "nonpayable",
      "type": "function"
    },
    {
      "inputs": [
        {
          "internalType": "address",
          "name": "owner",
          "type": "address"
        }
      ],
      "name": "balanceOf",
      "outputs": [
        {
          "internalType": "uint256",
          "name": "",
          "type": "uint256"
        }
      ],
      "stateMutability": "view",
      "type": "function"
    },
    {
      "inputs": [],
      "name": "earlyBirdCounter",
      "outputs": [
        {
          "internalType": "uint256",
          "name": "",
          "type": "uint256"
        }
      ],
      "stateMutability": "view",
      "type": "function"
    },
    {
      "inputs": [
        {
          "internalType": "string",
          "name": "_name",
          "type": "string"
        }
      ],
      "name": "earlyBirdMint",
      "outputs": [],
      "stateMutability": "nonpayable",
      "type": "function"
    },
    {
      "inputs": [
        {
          "internalType": "string",
          "name": "_name",
          "type": "string"
        },
        {
          "internalType": "uint256",
          "name": "_amount",
          "type": "uint256"
        },
        {
          "internalType": "uint256",
          "name": "deadline",
          "type": "uint256"
        },
        {
          "internalType": "uint8",
          "name": "v",
          "type": "uint8"
        },
        {
          "internalType": "bytes32",
          "name": "r",
          "type": "bytes32"
        },
        {
          "internalType": "bytes32",
          "name": "s",
          "type": "bytes32"
        }
      ],
      "name": "earlyBirdMintWIthPermit",
      "outputs": [],
      "stateMutability": "nonpayable",
      "type": "function"
    },
    {
      "inputs": [
        {
          "internalType": "address",
          "name": "",
          "type": "address"
        }
      ],
      "name": "earlyBirdMintedOf",
      "outputs": [
        {
          "internalType": "bool",
          "name": "",
          "type": "bool"
        }
      ],
      "stateMutability": "view",
      "type": "function"
    },
    {
      "inputs": [],
      "name": "earlyBirdWlCounter",
      "outputs": [
        {
          "internalType": "uint256",
          "name": "",
          "type": "uint256"
        }
      ],
      "stateMutability": "view",
      "type": "function"
    },
    {
      "inputs": [],
      "name": "earlyMintInfo",
      "outputs": [
        {
          "internalType": "uint256",
          "name": "_totalNum",
          "type": "uint256"
        },
        {
          "internalType": "uint256",
          "name": "_remainNum",
          "type": "uint256"
        },
        {
          "internalType": "uint256",
          "name": "_nextId",
          "type": "uint256"
        }
      ],
      "stateMutability": "view",
      "type": "function"
    },
    {
      "inputs": [
        {
          "internalType": "uint256",
          "name": "tokenId",
          "type": "uint256"
        }
      ],
      "name": "exists",
      "outputs": [
        {
          "internalType": "bool",
          "name": "",
          "type": "bool"
        }
      ],
      "stateMutability": "view",
      "type": "function"
    },
    {
      "inputs": [
        {
          "internalType": "uint256",
          "name": "tokenId",
          "type": "uint256"
        }
      ],
      "name": "getApproved",
      "outputs": [
        {
          "internalType": "address",
          "name": "",
          "type": "address"
        }
      ],
      "stateMutability": "view",
      "type": "function"
    },
    {
      "inputs": [
        {
          "internalType": "address",
          "name": "owner",
          "type": "address"
        },
        {
          "internalType": "address",
          "name": "operator",
          "type": "address"
        }
      ],
      "name": "isApprovedForAll",
      "outputs": [
        {
          "internalType": "bool",
          "name": "",
          "type": "bool"
        }
      ],
      "stateMutability": "view",
      "type": "function"
    },
    {
      "inputs": [
        {
          "internalType": "uint256",
          "name": "_tokenId",
          "type": "uint256"
        },
        {
          "internalType": "address",
          "name": "_payment",
          "type": "address"
        },
        {
          "internalType": "string",
          "name": "_name",
          "type": "string"
        }
      ],
      "name": "mint",
      "outputs": [],
      "stateMutability": "nonpayable",
      "type": "function"
    },
    {
      "inputs": [
        {
          "internalType": "address",
          "name": "",
          "type": "address"
        }
      ],
      "name": "mintInfoOf",
      "outputs": [
        {
          "internalType": "uint128",
          "name": "lastMintTime",
          "type": "uint128"
        },
        {
          "internalType": "uint128",
          "name": "mintNumInDuration",
          "type": "uint128"
        }
      ],
      "stateMutability": "view",
      "type": "function"
    },
    {
      "inputs": [
        {
          "internalType": "uint256",
          "name": "_tokenId",
          "type": "uint256"
        },
        {
          "internalType": "address",
          "name": "_payment",
          "type": "address"
        },
        {
          "internalType": "string",
          "name": "_name",
          "type": "string"
        },
        {
          "internalType": "uint256",
          "name": "_amount",
          "type": "uint256"
        },
        {
          "internalType": "uint256",
          "name": "deadline",
          "type": "uint256"
        },
        {
          "internalType": "uint8",
          "name": "v",
          "type": "uint8"
        },
        {
          "internalType": "bytes32",
          "name": "r",
          "type": "bytes32"
        },
        {
          "internalType": "bytes32",
          "name": "s",
          "type": "bytes32"
        }
      ],
      "name": "mintWithPermit",
      "outputs": [],
      "stateMutability": "nonpayable",
      "type": "function"
    },
    {
      "inputs": [],
      "name": "name",
      "outputs": [
        {
          "internalType": "string",
          "name": "",
          "type": "string"
        }
      ],
      "stateMutability": "view",
      "type": "function"
    },
    {
      "inputs": [
        {
          "internalType": "string",
          "name": "",
          "type": "string"
        }
      ],
      "name": "nameUsed",
      "outputs": [
        {
          "internalType": "bool",
          "name": "",
          "type": "bool"
        }
      ],
      "stateMutability": "view",
      "type": "function"
    },
    {
      "inputs": [
        {
          "internalType": "uint256",
          "name": "",
          "type": "uint256"
        },
        {
          "internalType": "uint256",
          "name": "",
          "type": "uint256"
        }
      ],
      "name": "nftInfo",
      "outputs": [
        {
          "internalType": "uint256",
          "name": "",
          "type": "uint256"
        }
      ],
      "stateMutability": "view",
      "type": "function"
    },
    {
      "inputs": [
        {
          "internalType": "uint256",
          "name": "_tokenId",
          "type": "uint256"
        }
      ],
      "name": "nftInfoOf",
      "outputs": [
        {
          "internalType": "uint256[]",
          "name": "_nftInfo",
          "type": "uint256[]"
        }
      ],
      "stateMutability": "view",
      "type": "function"
    },
    {
      "inputs": [
        {
          "internalType": "uint256",
          "name": "tokenId",
          "type": "uint256"
        }
      ],
      "name": "ownerOf",
      "outputs": [
        {
          "internalType": "address",
          "name": "",
          "type": "address"
        }
      ],
      "stateMutability": "view",
      "type": "function"
    },
    {
      "inputs": [
        {
          "internalType": "address",
          "name": "_refAddress",
          "type": "address"
        },
        {
          "internalType": "string",
          "name": "_name",
          "type": "string"
        }
      ],
      "name": "refEarlyBirdMint",
      "outputs": [],
      "stateMutability": "nonpayable",
      "type": "function"
    },
    {
      "inputs": [
        {
          "internalType": "address",
          "name": "_refAddress",
          "type": "address"
        },
        {
          "internalType": "string",
          "name": "_name",
          "type": "string"
        },
        {
          "internalType": "uint256",
          "name": "_amount",
          "type": "uint256"
        },
        {
          "internalType": "uint256",
          "name": "deadline",
          "type": "uint256"
        },
        {
          "internalType": "uint8",
          "name": "v",
          "type": "uint8"
        },
        {
          "internalType": "bytes32",
          "name": "r",
          "type": "bytes32"
        },
        {
          "internalType": "bytes32",
          "name": "s",
          "type": "bytes32"
        }
      ],
      "name": "refEarlyBirdMintWIthPermit",
      "outputs": [],
      "stateMutability": "nonpayable",
      "type": "function"
    },
    {
      "inputs": [
        {
          "internalType": "address",
          "name": "from",
          "type": "address"
        },
        {
          "internalType": "address",
          "name": "to",
          "type": "address"
        },
        {
          "internalType": "uint256",
          "name": "tokenId",
          "type": "uint256"
        }
      ],
      "name": "safeTransferFrom",
      "outputs": [],
      "stateMutability": "nonpayable",
      "type": "function"
    },
    {
      "inputs": [
        {
          "internalType": "address",
          "name": "from",
          "type": "address"
        },
        {
          "internalType": "address",
          "name": "to",
          "type": "address"
        },
        {
          "internalType": "uint256",
          "name": "tokenId",
          "type": "uint256"
        },
        {
          "internalType": "bytes",
          "name": "data",
          "type": "bytes"
        }
      ],
      "name": "safeTransferFrom",
      "outputs": [],
      "stateMutability": "nonpayable",
      "type": "function"
    },
    {
      "inputs": [
        {
          "internalType": "address",
          "name": "operator",
          "type": "address"
        },
        {
          "internalType": "bool",
          "name": "approved",
          "type": "bool"
        }
      ],
      "name": "setApprovalForAll",
      "outputs": [],
      "stateMutability": "nonpayable",
      "type": "function"
    },
    {
      "inputs": [
        {
          "internalType": "bytes4",
          "name": "interfaceId",
          "type": "bytes4"
        }
      ],
      "name": "supportsInterface",
      "outputs": [
        {
          "internalType": "bool",
          "name": "",
          "type": "bool"
        }
      ],
      "stateMutability": "view",
      "type": "function"
    },
    {
      "inputs": [],
      "name": "symbol",
      "outputs": [
        {
          "internalType": "string",
          "name": "",
          "type": "string"
        }
      ],
      "stateMutability": "view",
      "type": "function"
    },
    {
      "inputs": [
        {
          "internalType": "uint256",
          "name": "index",
          "type": "uint256"
        }
      ],
      "name": "tokenByIndex",
      "outputs": [
        {
          "internalType": "uint256",
          "name": "",
          "type": "uint256"
        }
      ],
      "stateMutability": "view",
      "type": "function"
    },
    {
      "inputs": [
        {
          "internalType": "address",
          "name": "owner",
          "type": "address"
        },
        {
          "internalType": "uint256",
          "name": "index",
          "type": "uint256"
        }
      ],
      "name": "tokenOfOwnerByIndex",
      "outputs": [
        {
          "internalType": "uint256",
          "name": "",
          "type": "uint256"
        }
      ],
      "stateMutability": "view",
      "type": "function"
    },
    {
      "inputs": [
        {
          "internalType": "uint256",
          "name": "tokenId",
          "type": "uint256"
        }
      ],
      "name": "tokenURI",
      "outputs": [
        {
          "internalType": "string",
          "name": "",
          "type": "string"
        }
      ],
      "stateMutability": "view",
      "type": "function"
    },
    {
      "inputs": [],
      "name": "totalSupply",
      "outputs": [
        {
          "internalType": "uint256",
          "name": "",
          "type": "uint256"
        }
      ],
      "stateMutability": "view",
      "type": "function"
    },
    {
      "inputs": [
        {
          "internalType": "address",
          "name": "from",
          "type": "address"
        },
        {
          "internalType": "address",
          "name": "to",
          "type": "address"
        },
        {
          "internalType": "uint256",
          "name": "tokenId",
          "type": "uint256"
        }
      ],
      "name": "transferFrom",
      "outputs": [],
      "stateMutability": "nonpayable",
      "type": "function"
    },
    {
      "inputs": [
        {
          "internalType": "enum ILYNKNFT.Attribute",
          "name": "_attr",
          "type": "uint8"
        },
        {
          "internalType": "uint256",
          "name": "_tokenId",
          "type": "uint256"
        },
        {
          "internalType": "uint256",
          "name": "_point",
          "type": "uint256"
        },
        {
          "internalType": "address",
          "name": "_payment",
          "type": "address"
        }
      ],
      "name": "upgrade",
      "outputs": [],
      "stateMutability": "nonpayable",
      "type": "function"
    },
    {
      "inputs": [
        {
          "internalType": "enum ILYNKNFT.Attribute",
          "name": "_attr",
          "type": "uint8"
        },
        {
          "internalType": "uint256",
          "name": "_tokenId",
          "type": "uint256"
        },
        {
          "internalType": "uint256",
          "name": "_point",
          "type": "uint256"
        },
        {
          "internalType": "address",
          "name": "_payment",
          "type": "address"
        },
        {
          "internalType": "uint256",
          "name": "_amount",
          "type": "uint256"
        },
        {
          "internalType": "uint256",
          "name": "deadline",
          "type": "uint256"
        },
        {
          "internalType": "uint8",
          "name": "v",
          "type": "uint8"
        },
        {
          "internalType": "bytes32",
          "name": "r",
          "type": "bytes32"
        },
        {
          "internalType": "bytes32",
          "name": "s",
          "type": "bytes32"
        }
      ],
      "name": "upgradeWithPermit",
      "outputs": [],
      "stateMutability": "nonpayable",
      "type": "function"
    }
  ],
  "transactionHash": "0x005614055e10bdc22b4b335c2c585df09c692a692dd3953f2868e8f045a7704b",
  "args": [
    "0x4023A2776c1CE7d174Ee3BDfa639C74faD47393F"
  ],
  "numDeployments": 11,
  "solcInputHash": "29eb67be63866be7f3a2d408bfb79a43",
  "bytecode": "0x60a06040523480156200001157600080fd5b50604051620053d4380380620053d4833981016040819052620000349162000046565b6001600160a01b031660805262000078565b6000602082840312156200005957600080fd5b81516001600160a01b03811681146200007157600080fd5b9392505050565b60805161524b620001896000396000818161043d015281816108000152818161098601528181610a4101528181610b3e01528181610c9901528181610e4701528181610f09015281816111df0152818161129d01528181611881015281816119e501528181611c1601528181611d1801528181611dc80152818161205e015281816121f5015281816122ce01528181612535015281816125fc01528181612800015281816129dd01528181612a8801528181612bb601528181612c8e01528181612deb01528181612ec90152818161301b0152818161320301528181613530015281816135d401528181613851015281816138fc01528181613a5701528181613b160152613b6e015261524b6000f3fe608060405234801561001057600080fd5b50600436106102275760003560e01c806370a0823111610130578063b990e358116100b8578063dcefcebc1161007c578063dcefcebc14610529578063dfa2eec014610549578063e1621a071461055c578063e67e402c1461057f578063e985e9c51461059257600080fd5b8063b990e358146104ca578063c87b56dd146104dd578063cabaa177146104f0578063cb97200e14610503578063d49cf8e31461051657600080fd5b8063a22cb465116100ff578063a22cb4651461045f578063a70687ae14610472578063b6fc133a1461047b578063b77c0555146104af578063b88d4fde146104b757600080fd5b806370a082311461040a57806393dcda301461041d57806395d89b41146104305780639ccea0cd1461043857600080fd5b80633f8336e3116101b35780634f6ccce7116101825780634f6ccce7146103af57806355eda4e8146103c257806357e1f309146103cb5780636352211e146103ee5780636bc3d0a01461040157600080fd5b80633f8336e31461032257806342842e0e14610376578063435a2bdc146103895780634f558e791461039c57600080fd5b80630b9b6e8b116101fa5780630b9b6e8b146102a957806318160ddd146102d757806323b872dd146102e957806329a38c33146102fc5780632f745c591461030f57600080fd5b806301ffc9a71461022c57806306fdde0314610254578063081812fc14610269578063095ea7b314610294575b600080fd5b61023f61023a366004614439565b6105ce565b60405190151581526020015b60405180910390f35b61025c6105f9565b60405161024b91906144ae565b61027c6102773660046144c1565b61068b565b6040516001600160a01b03909116815260200161024b565b6102a76102a23660046144ef565b6106b2565b005b61023f6102b73660046145c6565b805160208183018101805160cc8252928201919093012091525460ff1681565b6099545b60405190815260200161024b565b6102a76102f736600461460e565b6107cd565b6102a761030a366004614697565b6107fe565b6102db61031d3660046144ef565b6108cb565b6103566103303660046144c1565b60cd602052600090815260409020546001600160801b0380821691600160801b90041682565b604080516001600160801b0393841681529290911660208301520161024b565b6102a761038436600461460e565b610961565b6102a76103973660046146fa565b61097c565b61023f6103aa3660046144c1565b610bdd565b6102db6103bd3660046144c1565b610bfc565b61027c61dead81565b6103d3610c8f565b6040805193845260208401929092529082015260600161024b565b61027c6103fc3660046144c1565b610d5f565b6102db60ce5481565b6102db610418366004614776565b610dbf565b6102a761042b366004614793565b610e45565b61025c611016565b61027c7f000000000000000000000000000000000000000000000000000000000000000081565b6102a761046d36600461482e565b611025565b6102db60cf5481565b610356610489366004614776565b60cb602052600090815260409020546001600160801b0380821691600160801b90041682565b6102a7611034565b6102a76104c5366004614867565b61119d565b6102a76104d83660046148e6565b6111d5565b61025c6104eb3660046144c1565b611333565b6102a76104fe366004614927565b61139a565b6102a76105113660046149d4565b61141b565b6102a7610524366004614a58565b611491565b61053c6105373660046144c1565b61149d565b60405161024b9190614aa0565b6102db610557366004614ae4565b6114ff565b61023f61056a366004614776565b60d06020526000908152604090205460ff1681565b6102a761058d366004614b06565b611530565b61023f6105a0366004614b61565b6001600160a01b039182166000908152606a6020908152604080832093909416825291909152205460ff1690565b60006001600160e01b0319821663780e9d6360e01b14806105f357506105f38261153c565b92915050565b60606065805461060890614b8f565b80601f016020809104026020016040519081016040528092919081815260200182805461063490614b8f565b80156106815780601f1061065657610100808354040283529160200191610681565b820191906000526020600020905b81548152906001019060200180831161066457829003601f168201915b5050505050905090565b60006106968261158c565b506000908152606960205260409020546001600160a01b031690565b60006106bd82610d5f565b9050806001600160a01b0316836001600160a01b031614156107305760405162461bcd60e51b815260206004820152602160248201527f4552433732313a20617070726f76616c20746f2063757272656e74206f776e656044820152603960f91b60648201526084015b60405180910390fd5b336001600160a01b038216148061074c575061074c81336105a0565b6107be5760405162461bcd60e51b815260206004820152603e60248201527f4552433732313a20617070726f76652063616c6c6572206973206e6f7420746f60448201527f6b656e206f776e6572206e6f7220617070726f76656420666f7220616c6c00006064820152608401610727565b6107c883836115eb565b505050565b6107d73382611659565b6107f35760405162461bcd60e51b815260040161072790614bca565b6107c88383836116d8565b7f00000000000000000000000000000000000000000000000000000000000000006001600160a01b031663aaa2b8c86040518163ffffffff1660e01b815260040160206040518083038186803b15801561085757600080fd5b505afa15801561086b573d6000803e3d6000fd5b505050506040513d601f19601f8201168201806040525081019061088f9190614c18565b6001600160a01b0316836001600160a01b031614156108c05760405162461bcd60e51b815260040161072790614c35565b6107c883838361187f565b60006108d683610dbf565b82106109385760405162461bcd60e51b815260206004820152602b60248201527f455243373231456e756d657261626c653a206f776e657220696e646578206f7560448201526a74206f6620626f756e647360a81b6064820152608401610727565b506001600160a01b03919091166000908152609760209081526040808320938352929052205490565b6107c88383836040518060200160405280600081525061119d565b6001600160a01b037f0000000000000000000000000000000000000000000000000000000000000000166354c1498d336040516001600160e01b031960e084901b1681526001600160a01b03909116600482015260240160206040518083038186803b1580156109eb57600080fd5b505afa1580156109ff573d6000803e3d6000fd5b505050506040513d601f19601f82011682018060405250810190610a239190614c6c565b610a3f5760405162461bcd60e51b815260040161072790614c35565b7f00000000000000000000000000000000000000000000000000000000000000006001600160a01b031663dfada9886040518163ffffffff1660e01b815260040160206040518083038186803b158015610a9857600080fd5b505afa158015610aac573d6000803e3d6000fd5b505050506040513d601f19601f82011682018060405250810190610ad09190614c18565b6001600160a01b031663d505accf333088888888886040518863ffffffff1660e01b8152600401610b079796959493929190614c89565b600060405180830381600087803b158015610b2157600080fd5b505af1158015610b35573d6000803e3d6000fd5b50505050610bd47f00000000000000000000000000000000000000000000000000000000000000006001600160a01b031663aaa2b8c86040518163ffffffff1660e01b815260040160206040518083038186803b158015610b9557600080fd5b505afa158015610ba9573d6000803e3d6000fd5b505050506040513d601f19601f82011682018060405250810190610bcd9190614c18565b888861187f565b50505050505050565b6000818152606760205260408120546001600160a01b031615156105f3565b6000610c0760995490565b8210610c6a5760405162461bcd60e51b815260206004820152602c60248201527f455243373231456e756d657261626c653a20676c6f62616c20696e646578206f60448201526b7574206f6620626f756e647360a01b6064820152608401610727565b60998281548110610c7d57610c7d614cca565b90600052602060002001549050919050565b60008060008060007f00000000000000000000000000000000000000000000000000000000000000006001600160a01b031663be1888116040518163ffffffff1660e01b8152600401604080518083038186803b158015610cef57600080fd5b505afa158015610d03573d6000803e3d6000fd5b505050506040513d601f19601f82011682018060405250810190610d279190614ce0565b9092509050610d368282614d1a565b945060ce5485610d469190614d1a565b935060ce5482610d569190614d31565b92505050909192565b6000818152606760205260408120546001600160a01b0316806105f35760405162461bcd60e51b8152602060048201526018602482015277115490cdcc8c4e881a5b9d985b1a59081d1bdad95b88125160421b6044820152606401610727565b60006001600160a01b038216610e295760405162461bcd60e51b815260206004820152602960248201527f4552433732313a2061646472657373207a65726f206973206e6f7420612076616044820152683634b21037bbb732b960b91b6064820152608401610727565b506001600160a01b031660009081526068602052604090205490565b7f00000000000000000000000000000000000000000000000000000000000000006001600160a01b031663aaa2b8c86040518163ffffffff1660e01b815260040160206040518083038186803b158015610e9e57600080fd5b505afa158015610eb2573d6000803e3d6000fd5b505050506040513d601f19601f82011682018060405250810190610ed69190614c18565b6001600160a01b0316886001600160a01b03161415610f075760405162461bcd60e51b815260040161072790614c35565b7f00000000000000000000000000000000000000000000000000000000000000006001600160a01b031663dfada9886040518163ffffffff1660e01b815260040160206040518083038186803b158015610f6057600080fd5b505afa158015610f74573d6000803e3d6000fd5b505050506040513d601f19601f82011682018060405250810190610f989190614c18565b6001600160a01b031663d505accf333088888888886040518863ffffffff1660e01b8152600401610fcf9796959493929190614c89565b600060405180830381600087803b158015610fe957600080fd5b505af1158015610ffd573d6000803e3d6000fd5b5050505061100c88888861187f565b5050505050505050565b60606066805461060890614b8f565b611030338383611eee565b5050565b600054610100900460ff16158080156110545750600054600160ff909116105b8061106e5750303b15801561106e575060005460ff166001145b6110d15760405162461bcd60e51b815260206004820152602e60248201527f496e697469616c697a61626c653a20636f6e747261637420697320616c72656160448201526d191e481a5b9a5d1a585b1a5e995960921b6064820152608401610727565b6000805460ff1916600117905580156110f4576000805461ff0019166101001790555b6110fc611fbd565b611104611fc5565b61114c6040518060400160405280600781526020016613165392d3919560ca1b8152506040518060400160405280600781526020016613165392d3919560ca1b815250611fee565b61115461201f565b801561119a576000805461ff0019169055604051600181527f7f26b83ff96e1f2b6a682f133852f6798a09c465da95921460cefb38474024989060200160405180910390a15b50565b6111a73383611659565b6111c35760405162461bcd60e51b815260040161072790614bca565b6111cf84848484612027565b50505050565b6001600160a01b037f0000000000000000000000000000000000000000000000000000000000000000166354c1498d336040516001600160e01b031960e084901b1681526001600160a01b03909116600482015260240160206040518083038186803b15801561124457600080fd5b505afa158015611258573d6000803e3d6000fd5b505050506040513d601f19601f8201168201806040525081019061127c9190614c6c565b6112985760405162461bcd60e51b815260040161072790614c35565b6110307f00000000000000000000000000000000000000000000000000000000000000006001600160a01b031663aaa2b8c86040518163ffffffff1660e01b815260040160206040518083038186803b1580156112f457600080fd5b505afa158015611308573d6000803e3d6000fd5b505050506040513d601f19601f8201168201806040525081019061132c9190614c18565b838361187f565b606061133e8261158c565b600061134861205a565b905060008151116113685760405180602001604052806000815250611393565b80611372846120f6565b604051602001611383929190614d49565b6040516020818303038152906040525b9392505050565b60405163d505accf60e01b81526001600160a01b0389169063d505accf906113d290339030908a908a908a908a908a90600401614c89565b600060405180830381600087803b1580156113ec57600080fd5b505af1158015611400573d6000803e3d6000fd5b50505050611410898989896121f3565b505050505050505050565b60405163d505accf60e01b81526001600160a01b0387169063d505accf9061145390339030908a908a908a908a908a90600401614c89565b600060405180830381600087803b15801561146d57600080fd5b505af1158015611481573d6000803e3d6000fd5b50505050611410898989896127fe565b6111cf848484846127fe565b600081815260ca60209081526040918290208054835181840281018401909452808452606093928301828280156114f357602002820191906000526020600020905b8154815260200190600101908083116114df575b50505050509050919050565b60ca602052816000526040600020818154811061151b57600080fd5b90600052602060002001600091509150505481565b6111cf848484846121f3565b60006001600160e01b031982166380ac58cd60e01b148061156d57506001600160e01b03198216635b5e139f60e01b145b806105f357506301ffc9a760e01b6001600160e01b03198316146105f3565b6000818152606760205260409020546001600160a01b031661119a5760405162461bcd60e51b8152602060048201526018602482015277115490cdcc8c4e881a5b9d985b1a59081d1bdad95b88125160421b6044820152606401610727565b600081815260696020526040902080546001600160a01b0319166001600160a01b038416908117909155819061162082610d5f565b6001600160a01b03167f8c5be1e5ebec7d5bd14f71427d1e84f3dd0314c0f7b2291e5b200ac8c7c3b92560405160405180910390a45050565b60008061166583610d5f565b9050806001600160a01b0316846001600160a01b031614806116ac57506001600160a01b038082166000908152606a602090815260408083209388168352929052205460ff165b806116d05750836001600160a01b03166116c58461068b565b6001600160a01b0316145b949350505050565b826001600160a01b03166116eb82610d5f565b6001600160a01b03161461174f5760405162461bcd60e51b815260206004820152602560248201527f4552433732313a207472616e736665722066726f6d20696e636f72726563742060448201526437bbb732b960d91b6064820152608401610727565b6001600160a01b0382166117b15760405162461bcd60e51b8152602060048201526024808201527f4552433732313a207472616e7366657220746f20746865207a65726f206164646044820152637265737360e01b6064820152608401610727565b6117bc838383613327565b6117c76000826115eb565b6001600160a01b03831660009081526068602052604081208054600192906117f0908490614d1a565b90915550506001600160a01b038216600090815260686020526040812080546001929061181e908490614d31565b909155505060008181526067602052604080822080546001600160a01b0319166001600160a01b0386811691821790925591518493918716917fddf252ad1be2c89b69c2b068fc378daa952ba7f163c4a11628f55a4df523b3ef91a4505050565b7f00000000000000000000000000000000000000000000000000000000000000006001600160a01b031663ea0d14656040518163ffffffff1660e01b815260040160206040518083038186803b1580156118d857600080fd5b505afa1580156118ec573d6000803e3d6000fd5b505050506040513d601f19601f820116820180604052508101906119109190614c6c565b6119585760405162461bcd60e51b8152602060048201526019602482015278262ca725a7232a1d1031b0b73737ba1036b4b73a103cb2ba1760391b6044820152606401610727565b33600090815260d0602052604090205460ff16156119b85760405162461bcd60e51b815260206004820152601860248201527f4c594e4b4e46543a20616c7265616479206d696e7465642e00000000000000006044820152606401610727565b33600090815260d060209081526040808320805460ff191660011790558051637d0bc2ff60e11b815290517f00000000000000000000000000000000000000000000000000000000000000006001600160a01b03169263fa1785fe9260048082019391829003018186803b158015611a2f57600080fd5b505afa158015611a43573d6000803e3d6000fd5b505050506040513d601f19601f82011682018060405250810190611a679190614c18565b90506001600160a01b03811663f3c95c60336040516001600160e01b031960e084901b1681526001600160a01b03909116600482015260240160206040518083038186803b158015611ab857600080fd5b505afa158015611acc573d6000803e3d6000fd5b505050506040513d601f19601f82011682018060405250810190611af09190614c6c565b611b66576001600160a01b0381166323b3f2a5336040516001600160e01b031960e084901b1681526001600160a01b0391821660048201529087166024820152604401600060405180830381600087803b158015611b4d57600080fd5b505af1158015611b61573d6000803e3d6000fd5b505050505b60cc8383604051611b78929190614d78565b9081526040519081900360200190205460ff1615611bd85760405162461bcd60e51b815260206004820152601e60248201527f4c594e4b4e46543a206e616d6520616c726561647920696e20757365642e00006044820152606401610727565b600160cc8484604051611bec929190614d78565b908152602001604051809103902060006101000a81548160ff0219169083151502179055506000807f00000000000000000000000000000000000000000000000000000000000000006001600160a01b031663be1888116040518163ffffffff1660e01b8152600401604080518083038186803b158015611c6c57600080fd5b505afa158015611c80573d6000803e3d6000fd5b505050506040513d601f19601f82011682018060405250810190611ca49190614ce0565b91509150600060ce5483611cb89190614d31565b9050818110611cfe5760405162461bcd60e51b8152602060048201526012602482015271262ca725a7232a1d1039b7b6321037baba1760711b6044820152606401610727565b60ce8054906000611d0e83614d88565b91905055506000807f00000000000000000000000000000000000000000000000000000000000000006001600160a01b0316637af0cac36040518163ffffffff1660e01b8152600401604080518083038186803b158015611d6e57600080fd5b505afa158015611d82573d6000803e3d6000fd5b505050506040513d601f19601f82011682018060405250810190611da69190614da3565b91509150611dbb82611db53390565b836133df565b60405180608001604052807f00000000000000000000000000000000000000000000000000000000000000006001600160a01b03166364db03b86040518163ffffffff1660e01b815260040160206040518083038186803b158015611e1f57600080fd5b505afa158015611e33573d6000803e3d6000fd5b505050506040513d601f19601f82011682018060405250810190611e579190614dd1565b8152600060208083018290526040808401839052606090930182905286825260ca905220611e86916004614350565b50611e91338461368c565b827f43332af98367d01c3bc9be42717917c42e1bd0084f4cdad927e9b4c06471d35160ca60008681526020019081526020016000208a8a8686604051611edb959493929190614dea565b60405180910390a2505050505050505050565b816001600160a01b0316836001600160a01b03161415611f505760405162461bcd60e51b815260206004820152601960248201527f4552433732313a20617070726f766520746f2063616c6c6572000000000000006044820152606401610727565b6001600160a01b038381166000818152606a6020908152604080832094871680845294825291829020805460ff191686151590811790915591519182527f17307eab39ab6107e8899845ad3d59bd9653f200f220920489ca2b5937696c31910160405180910390a3505050565b61119a6136a6565b600054610100900460ff16611fec5760405162461bcd60e51b815260040161072790614e71565b565b600054610100900460ff166120155760405162461bcd60e51b815260040161072790614e71565b61103082826136e8565b611fec611fc5565b6120328484846116d8565b61203e84848484613736565b6111cf5760405162461bcd60e51b815260040161072790614ebc565b60607f00000000000000000000000000000000000000000000000000000000000000006001600160a01b031663d547cfb76040518163ffffffff1660e01b815260040160006040518083038186803b1580156120b557600080fd5b505afa1580156120c9573d6000803e3d6000fd5b505050506040513d6000823e601f3d908101601f191682016040526120f19190810190614f0e565b905090565b60608161211a5750506040805180820190915260018152600360fc1b602082015290565b8160005b8115612144578061212e81614d88565b915061213d9050600a83614f9a565b915061211e565b6000816001600160401b0381111561215e5761215e61451b565b6040519080825280601f01601f191660200182016040528015612188576020820181803683370190505b5090505b84156116d05761219d600183614d1a565b91506121aa600a86614fae565b6121b5906030614d31565b60f81b8183815181106121ca576121ca614cca565b60200101906001600160f81b031916908160001a9053506121ec600a86614f9a565b945061218c565b7f00000000000000000000000000000000000000000000000000000000000000006001600160a01b03166366227eb96040518163ffffffff1660e01b815260040160206040518083038186803b15801561224c57600080fd5b505afa158015612260573d6000803e3d6000fd5b505050506040513d601f19601f820116820180604052508101906122849190614c6c565b6122cc5760405162461bcd60e51b8152602060048201526019602482015278262ca725a7232a1d1031b0b73737ba1036b4b73a103cb2ba1760391b6044820152606401610727565b7f00000000000000000000000000000000000000000000000000000000000000006001600160a01b031663fa1785fe6040518163ffffffff1660e01b815260040160206040518083038186803b15801561232557600080fd5b505afa158015612339573d6000803e3d6000fd5b505050506040513d601f19601f8201168201806040525081019061235d9190614c18565b6001600160a01b031663f3c95c60336040516001600160e01b031960e084901b1681526001600160a01b03909116600482015260240160206040518083038186803b1580156123ab57600080fd5b505afa1580156123bf573d6000803e3d6000fd5b505050506040513d601f19601f820116820180604052508101906123e39190614c6c565b61242f5760405162461bcd60e51b815260206004820152601a60248201527f4c594e4b4e46543a206e6f7420612076616c696420757365722e0000000000006044820152606401610727565b60cc8282604051612441929190614d78565b9081526040519081900360200190205460ff16156124a15760405162461bcd60e51b815260206004820152601e60248201527f4c594e4b4e46543a206e616d6520616c726561647920696e20757365642e00006044820152606401610727565b600160cc83836040516124b5929190614d78565b908152604051908190036020019020805491151560ff19909216919091179055600060cb816124e13390565b6001600160a01b03908116825260208083019390935260409182016000208251808401845290546001600160801b038082168352600160801b909104168185015282516303ed69ad60e21b815292519094507f000000000000000000000000000000000000000000000000000000000000000090911692630fb5a6b49260048082019391829003018186803b15801561257957600080fd5b505afa15801561258d573d6000803e3d6000fd5b505050506040513d601f19601f820116820180604052508101906125b19190614dd1565b81516125c6906001600160801b031642614d1a565b106125fa576000602082810182905233825260cb90526040902080546001600160801b031916426001600160801b03161790555b7f00000000000000000000000000000000000000000000000000000000000000006001600160a01b031663600a2f826040518163ffffffff1660e01b815260040160206040518083038186803b15801561265357600080fd5b505afa158015612667573d6000803e3d6000fd5b505050506040513d601f19601f8201168201806040525081019061268b9190614dd1565b81602001516001600160801b0316106126f25760405162461bcd60e51b815260206004820152602360248201527f4c594e4b4e46543a2063616e6e6f74206d696e74206d6f726520696e2061206460448201526230bc9760e91b6064820152608401610727565b6020810151612702906001614fc2565b33600090815260cb6020526040812080546001600160801b03938416600160801b029316929092179091556127378686613843565b90506127438533611db5565b60008061274f33613c4f565b91509150604051806080016040528060008152602001838152602001828152602001600081525060ca60008a8152602001908152602001600020906004612797929190614350565b506127a2338961368c565b877f43332af98367d01c3bc9be42717917c42e1bd0084f4cdad927e9b4c06471d35160ca60008b815260200190815260200160002088888b886040516127ec959493929190614dea565b60405180910390a25050505050505050565b7f00000000000000000000000000000000000000000000000000000000000000006001600160a01b031663fa1785fe6040518163ffffffff1660e01b815260040160206040518083038186803b15801561285757600080fd5b505afa15801561286b573d6000803e3d6000fd5b505050506040513d601f19601f8201168201806040525081019061288f9190614c18565b6001600160a01b031663f3c95c60336040516001600160e01b031960e084901b1681526001600160a01b03909116600482015260240160206040518083038186803b1580156128dd57600080fd5b505afa1580156128f1573d6000803e3d6000fd5b505050506040513d601f19601f820116820180604052508101906129159190614c6c565b6129615760405162461bcd60e51b815260206004820152601a60248201527f4c594e4b4e46543a206e6f7420612076616c696420757365722e0000000000006044820152606401610727565b323314801561298057503361297584610d5f565b6001600160a01b0316145b6129c55760405162461bcd60e51b8152602060048201526016602482015275262ca725a7232a1d103737ba103a34329037bbb732b960511b6044820152606401610727565b8360038111156129d7576129d7614fe4565b612b4d577f00000000000000000000000000000000000000000000000000000000000000006001600160a01b03166377b330c96040518163ffffffff1660e01b815260040160206040518083038186803b158015612a3457600080fd5b505afa158015612a48573d6000803e3d6000fd5b505050506040513d601f19601f82011682018060405250810190612a6c9190614c18565b6001600160a01b0316816001600160a01b03161480612b2c57507f00000000000000000000000000000000000000000000000000000000000000006001600160a01b0316633b87436b6040518163ffffffff1660e01b815260040160206040518083038186803b158015612adf57600080fd5b505afa158015612af3573d6000803e3d6000fd5b505050506040513d601f19601f82011682018060405250810190612b179190614c18565b6001600160a01b0316816001600160a01b0316145b612b485760405162461bcd60e51b815260040161072790614ffa565b6130da565b836003811115612b5f57612b5f614fe4565b60011415612dc557600083815260cd60209081526040918290208251808401845290546001600160801b038082168352600160801b909104168183015282516303ed69ad60e21b8152925190926001600160a01b037f00000000000000000000000000000000000000000000000000000000000000001692630fb5a6b492600480840193829003018186803b158015612bf757600080fd5b505afa158015612c0b573d6000803e3d6000fd5b505050506040513d601f19601f82011682018060405250810190612c2f9190614dd1565b8151612c44906001600160801b031642614d1a565b10612c78576000602082810182905285825260cd90526040902080546001600160801b0319166001600160801b0342161790555b60405163317369c560e11b8152600481018590527f00000000000000000000000000000000000000000000000000000000000000006001600160a01b0316906362e6d38a9060240160206040518083038186803b158015612cd857600080fd5b505afa158015612cec573d6000803e3d6000fd5b505050506040513d601f19601f82011682018060405250810190612d109190614dd1565b8382602001516001600160801b0316612d299190614d31565b1115612d865760405162461bcd60e51b815260206004820152602660248201527f4c594e4b4e46543a2063616e6e6f742075706772616465206d6f726520696e2060448201526530903230bc9760d11b6064820152608401610727565b828160200151612d969190614fc2565b600085815260cd6020526040902080546001600160801b03928316600160801b02921691909117905550613019565b60006001856003811115612ddb57612ddb614fe4565b612de59190614d1a565b905060007f00000000000000000000000000000000000000000000000000000000000000006001600160a01b031663b2cd99af836003811115612e2a57612e2a614fe4565b600088815260ca60205260409020805486908110612e4a57612e4a614cca565b90600052602060002001546040518363ffffffff1660e01b8152600401612e72929190615031565b604080518083038186803b158015612e8957600080fd5b505afa158015612e9d573d6000803e3d6000fd5b505050506040513d601f19601f82011682018060405250810190612ec19190614ce0565b5090506000807f00000000000000000000000000000000000000000000000000000000000000006001600160a01b031663b2cd99af8960ca60008b81526020019081526020016000208b6003811115612f1c57612f1c614fe4565b81548110612f2c57612f2c614cca565b906000526020600020015489612f429190614d31565b6040518363ffffffff1660e01b8152600401612f5f929190615031565b604080518083038186803b158015612f7657600080fd5b505afa158015612f8a573d6000803e3d6000fd5b505050506040513d601f19601f82011682018060405250810190612fae9190614ce0565b9150915081831180612fc857508183148015612fc8575080155b6130145760405162461bcd60e51b815260206004820152601860248201527f4c594e4b4e46543a206c6576656c206f766572666c6f772e00000000000000006044820152606401610727565b505050505b7f00000000000000000000000000000000000000000000000000000000000000006001600160a01b031663c2e30dd06040518163ffffffff1660e01b815260040160206040518083038186803b15801561307257600080fd5b505afa158015613086573d6000803e3d6000fd5b505050506040513d601f19601f820116820180604052508101906130aa9190614c18565b6001600160a01b0316816001600160a01b0316146130da5760405162461bcd60e51b815260040161072790614ffa565b6000816001600160a01b031663313ce5676040518163ffffffff1660e01b815260040160206040518083038186803b15801561311557600080fd5b505afa158015613129573d6000803e3d6000fd5b505050506040513d601f19601f8201168201806040525081019061314d919061505d565b60ff169050600061315f82600a61515e565b613169908561516a565b90506131758333611db5565b600085815260ca60205260409020849087600381111561319757613197614fe4565b815481106131a7576131a7614cca565b9060005260206000200160008282546131c09190614d31565b92505081905550847f6a4348800167e375a04ba455a3563b96544c3d4a8662a4ca79307485fb6dbfc187866040516131f9929190615031565b60405180910390a27f00000000000000000000000000000000000000000000000000000000000000006001600160a01b031663fa1785fe6040518163ffffffff1660e01b815260040160206040518083038186803b15801561325a57600080fd5b505afa15801561326e573d6000803e3d6000fd5b505050506040513d601f19601f820116820180604052508101906132929190614c18565b6001600160a01b031663562afdf5338860038111156132b3576132b3614fe4565b156132bf5760006132c1565b865b6040516001600160e01b031960e085901b1681526001600160a01b0390921660048301526024820152604401600060405180830381600087803b15801561330757600080fd5b505af115801561331b573d6000803e3d6000fd5b50505050505050505050565b6001600160a01b0383166133825761337d81609980546000838152609a60205260408120829055600182018355919091527f72a152ddfb8e864297c917af52ea6c1c68aead0fee1a62673fcc7e0c94979d000155565b6133a5565b816001600160a01b0316836001600160a01b0316146133a5576133a58382613ce6565b6001600160a01b0382166133bc576107c881613d83565b826001600160a01b0316826001600160a01b0316146107c8576107c88282613e32565b6001600160a01b0383166134485780341461343c5760405162461bcd60e51b815260206004820152601c60248201527f62617365436f6e74726163743a20696e76616c69642076616c75652e000000006044820152606401610727565b6107c861dead82613e76565b604051636eb1769f60e11b81526001600160a01b03838116600483015230602483015282919085169063dd62ed3e9060440160206040518083038186803b15801561349257600080fd5b505afa1580156134a6573d6000803e3d6000fd5b505050506040513d601f19601f820116820180604052508101906134ca9190614dd1565b10156135245760405162461bcd60e51b8152602060048201526024808201527f62617365436f6e74726163743a20696e73756666696369656e7420616c6c6f77604482015263616e636560e01b6064820152608401610727565b826001600160a01b03167f00000000000000000000000000000000000000000000000000000000000000006001600160a01b03166377b330c96040518163ffffffff1660e01b815260040160206040518083038186803b15801561358757600080fd5b505afa15801561359b573d6000803e3d6000fd5b505050506040513d601f19601f820116820180604052508101906135bf9190614c18565b6001600160a01b03161415613675576107c8827f00000000000000000000000000000000000000000000000000000000000000006001600160a01b0316630b00fd546040518163ffffffff1660e01b815260040160206040518083038186803b15801561362b57600080fd5b505afa15801561363f573d6000803e3d6000fd5b505050506040513d601f19601f820116820180604052508101906136639190614c18565b6001600160a01b038616919084613f8f565b6107c86001600160a01b0384168361dead84613f8f565b611030828260405180602001604052806000815250613fe9565b60c954604080516020810192909252429082015244606082015260009060800160408051601f19818403018152919052805160209091012060c9819055919050565b600054610100900460ff1661370f5760405162461bcd60e51b815260040161072790614e71565b815161372290606590602085019061439b565b5080516107c890606690602084019061439b565b60006001600160a01b0384163b1561383857604051630a85bd0160e11b81526001600160a01b0385169063150b7a029061377a903390899088908890600401615189565b602060405180830381600087803b15801561379457600080fd5b505af19250505080156137c4575060408051601f3d908101601f191682019092526137c1918101906151c6565b60015b61381e573d8080156137f2576040519150601f19603f3d011682016040523d82523d6000602084013e6137f7565b606091505b5080516138165760405162461bcd60e51b815260040161072790614ebc565b805181602001fd5b6001600160e01b031916630a85bd0160e11b1490506116d0565b506001949350505050565b6000816001600160a01b03167f00000000000000000000000000000000000000000000000000000000000000006001600160a01b0316633b87436b6040518163ffffffff1660e01b815260040160206040518083038186803b1580156138a857600080fd5b505afa1580156138bc573d6000803e3d6000fd5b505050506040513d601f19601f820116820180604052508101906138e09190614c18565b6001600160a01b031614806139965750816001600160a01b03167f00000000000000000000000000000000000000000000000000000000000000006001600160a01b03166377b330c96040518163ffffffff1660e01b815260040160206040518083038186803b15801561395357600080fd5b505afa158015613967573d6000803e3d6000fd5b505050506040513d601f19601f8201168201806040525081019061398b9190614c18565b6001600160a01b0316145b6139b25760405162461bcd60e51b815260040161072790614ffa565b6000826001600160a01b031663313ce5676040518163ffffffff1660e01b815260040160206040518083038186803b1580156139ed57600080fd5b505afa158015613a01573d6000803e3d6000fd5b505050506040513d601f19601f82011682018060405250810190613a25919061505d565b60ff169050600062030d408510613aeb57613a4182600a61515e565b6040516330c3d99f60e11b8152600260048201527f00000000000000000000000000000000000000000000000000000000000000006001600160a01b031690636187b33e906024015b60206040518083038186803b158015613aa257600080fd5b505afa158015613ab6573d6000803e3d6000fd5b505050506040513d601f19601f82011682018060405250810190613ada9190614dd1565b613ae4919061516a565b9050613bfd565b620186a08510613b4d57613b0082600a61515e565b6040516330c3d99f60e11b8152600160048201527f00000000000000000000000000000000000000000000000000000000000000006001600160a01b031690636187b33e90602401613a8a565b613b5882600a61515e565b6040516330c3d99f60e11b8152600060048201527f00000000000000000000000000000000000000000000000000000000000000006001600160a01b031690636187b33e9060240160206040518083038186803b158015613bb857600080fd5b505afa158015613bcc573d6000803e3d6000fd5b505050506040513d601f19601f82011682018060405250810190613bf09190614dd1565b613bfa919061516a565b90505b620493e085106116d05760405162461bcd60e51b815260206004820152601c60248201527f4c594e4b4e46543a20746f6b656e20696420746f6f206c617267652e000000006044820152606401610727565b6000806000613c5c6136a6565b90508084604051602001613c8c92919091825260601b6bffffffffffffffffffffffff1916602082015260340190565b60408051601f1981840301815291905280516020909101209050613cb4600560ff8316614fae565b613cbf906001614d31565b9250613cd3600360ff608084901c16614fae565b613cde906001614d31565b915050915091565b60006001613cf384610dbf565b613cfd9190614d1a565b600083815260986020526040902054909150808214613d50576001600160a01b03841660009081526097602090815260408083208584528252808320548484528184208190558352609890915290208190555b5060009182526098602090815260408084208490556001600160a01b039094168352609781528383209183525290812055565b609954600090613d9590600190614d1a565b6000838152609a602052604081205460998054939450909284908110613dbd57613dbd614cca565b906000526020600020015490508060998381548110613dde57613dde614cca565b6000918252602080832090910192909255828152609a90915260408082208490558582528120556099805480613e1657613e166151e3565b6001900381819060005260206000200160009055905550505050565b6000613e3d83610dbf565b6001600160a01b039093166000908152609760209081526040808320868452825280832085905593825260989052919091209190915550565b80471015613ec65760405162461bcd60e51b815260206004820152601d60248201527f416464726573733a20696e73756666696369656e742062616c616e63650000006044820152606401610727565b6000826001600160a01b03168260405160006040518083038185875af1925050503d8060008114613f13576040519150601f19603f3d011682016040523d82523d6000602084013e613f18565b606091505b50509050806107c85760405162461bcd60e51b815260206004820152603a60248201527f416464726573733a20756e61626c6520746f2073656e642076616c75652c207260448201527f6563697069656e74206d617920686176652072657665727465640000000000006064820152608401610727565b604080516001600160a01b0385811660248301528416604482015260648082018490528251808303909101815260849091019091526020810180516001600160e01b03166323b872dd60e01b1790526111cf90859061401c565b613ff383836140ee565b6140006000848484613736565b6107c85760405162461bcd60e51b815260040161072790614ebc565b6000614071826040518060400160405280602081526020017f5361666545524332303a206c6f772d6c6576656c2063616c6c206661696c6564815250856001600160a01b031661423c9092919063ffffffff16565b8051909150156107c8578080602001905181019061408f9190614c6c565b6107c85760405162461bcd60e51b815260206004820152602a60248201527f5361666545524332303a204552433230206f7065726174696f6e20646964206e6044820152691bdd081cdd58d8d9595960b21b6064820152608401610727565b6001600160a01b0382166141445760405162461bcd60e51b815260206004820181905260248201527f4552433732313a206d696e7420746f20746865207a65726f20616464726573736044820152606401610727565b6000818152606760205260409020546001600160a01b0316156141a95760405162461bcd60e51b815260206004820152601c60248201527f4552433732313a20746f6b656e20616c7265616479206d696e746564000000006044820152606401610727565b6141b560008383613327565b6001600160a01b03821660009081526068602052604081208054600192906141de908490614d31565b909155505060008181526067602052604080822080546001600160a01b0319166001600160a01b03861690811790915590518392907fddf252ad1be2c89b69c2b068fc378daa952ba7f163c4a11628f55a4df523b3ef908290a45050565b60606116d08484600085856001600160a01b0385163b61429e5760405162461bcd60e51b815260206004820152601d60248201527f416464726573733a2063616c6c20746f206e6f6e2d636f6e74726163740000006044820152606401610727565b600080866001600160a01b031685876040516142ba91906151f9565b60006040518083038185875af1925050503d80600081146142f7576040519150601f19603f3d011682016040523d82523d6000602084013e6142fc565b606091505b509150915061430c828286614317565b979650505050505050565b60608315614326575081611393565b8251156143365782518084602001fd5b8160405162461bcd60e51b815260040161072791906144ae565b82805482825590600052602060002090810192821561438b579160200282015b8281111561438b578251825591602001919060010190614370565b5061439792915061440e565b5090565b8280546143a790614b8f565b90600052602060002090601f0160209004810192826143c9576000855561438b565b82601f106143e257805160ff191683800117855561438b565b8280016001018555821561438b579182018281111561438b578251825591602001919060010190614370565b5b80821115614397576000815560010161440f565b6001600160e01b03198116811461119a57600080fd5b60006020828403121561444b57600080fd5b813561139381614423565b60005b83811015614471578181015183820152602001614459565b838111156111cf5750506000910152565b6000815180845261449a816020860160208601614456565b601f01601f19169290920160200192915050565b6020815260006113936020830184614482565b6000602082840312156144d357600080fd5b5035919050565b6001600160a01b038116811461119a57600080fd5b6000806040838503121561450257600080fd5b823561450d816144da565b946020939093013593505050565b634e487b7160e01b600052604160045260246000fd5b604051601f8201601f191681016001600160401b03811182821017156145595761455961451b565b604052919050565b60006001600160401b0382111561457a5761457a61451b565b50601f01601f191660200190565b600061459b61459684614561565b614531565b90508281528383830111156145af57600080fd5b828260208301376000602084830101529392505050565b6000602082840312156145d857600080fd5b81356001600160401b038111156145ee57600080fd5b8201601f810184136145ff57600080fd5b6116d084823560208401614588565b60008060006060848603121561462357600080fd5b833561462e816144da565b9250602084013561463e816144da565b929592945050506040919091013590565b60008083601f84011261466157600080fd5b5081356001600160401b0381111561467857600080fd5b60208301915083602082850101111561469057600080fd5b9250929050565b6000806000604084860312156146ac57600080fd5b83356146b7816144da565b925060208401356001600160401b038111156146d257600080fd5b6146de8682870161464f565b9497909650939450505050565b60ff8116811461119a57600080fd5b600080600080600080600060c0888a03121561471557600080fd5b87356001600160401b0381111561472b57600080fd5b6147378a828b0161464f565b90985096505060208801359450604088013593506060880135614759816146eb565b969995985093969295946080840135945060a09093013592915050565b60006020828403121561478857600080fd5b8135611393816144da565b60008060008060008060008060e0898b0312156147af57600080fd5b88356147ba816144da565b975060208901356001600160401b038111156147d557600080fd5b6147e18b828c0161464f565b90985096505060408901359450606089013593506080890135614803816146eb565b979a969950949793969295929450505060a08201359160c0013590565b801515811461119a57600080fd5b6000806040838503121561484157600080fd5b823561484c816144da565b9150602083013561485c81614820565b809150509250929050565b6000806000806080858703121561487d57600080fd5b8435614888816144da565b93506020850135614898816144da565b92506040850135915060608501356001600160401b038111156148ba57600080fd5b8501601f810187136148cb57600080fd5b6148da87823560208401614588565b91505092959194509250565b600080602083850312156148f957600080fd5b82356001600160401b0381111561490f57600080fd5b61491b8582860161464f565b90969095509350505050565b60008060008060008060008060006101008a8c03121561494657600080fd5b8935985060208a0135614958816144da565b975060408a01356001600160401b0381111561497357600080fd5b61497f8c828d0161464f565b90985096505060608a0135945060808a0135935060a08a01356149a1816146eb565b8093505060c08a0135915060e08a013590509295985092959850929598565b8035600481106149cf57600080fd5b919050565b60008060008060008060008060006101208a8c0312156149f357600080fd5b6149fc8a6149c0565b985060208a0135975060408a0135965060608a0135614a1a816144da565b955060808a0135945060a08a0135935060c08a0135614a38816146eb565b8093505060e08a013591506101008a013590509295985092959850929598565b60008060008060808587031215614a6e57600080fd5b614a77856149c0565b935060208501359250604085013591506060850135614a95816144da565b939692955090935050565b6020808252825182820181905260009190848201906040850190845b81811015614ad857835183529284019291840191600101614abc565b50909695505050505050565b60008060408385031215614af757600080fd5b50508035926020909101359150565b60008060008060608587031215614b1c57600080fd5b843593506020850135614b2e816144da565b925060408501356001600160401b03811115614b4957600080fd5b614b558782880161464f565b95989497509550505050565b60008060408385031215614b7457600080fd5b8235614b7f816144da565b9150602083013561485c816144da565b600181811c90821680614ba357607f821691505b60208210811415614bc457634e487b7160e01b600052602260045260246000fd5b50919050565b6020808252602e908201527f4552433732313a2063616c6c6572206973206e6f7420746f6b656e206f776e6560408201526d1c881b9bdc88185c1c1c9bdd995960921b606082015260800190565b600060208284031215614c2a57600080fd5b8151611393816144da565b60208082526017908201527f4c594e4b4e46543a206e6f7420696e2074686520776c2e000000000000000000604082015260600190565b600060208284031215614c7e57600080fd5b815161139381614820565b6001600160a01b0397881681529590961660208601526040850193909352606084019190915260ff16608083015260a082015260c081019190915260e00190565b634e487b7160e01b600052603260045260246000fd5b60008060408385031215614cf357600080fd5b505080516020909101519092909150565b634e487b7160e01b600052601160045260246000fd5b600082821015614d2c57614d2c614d04565b500390565b60008219821115614d4457614d44614d04565b500190565b60008351614d5b818460208801614456565b835190830190614d6f818360208801614456565b01949350505050565b8183823760009101908152919050565b6000600019821415614d9c57614d9c614d04565b5060010190565b60008060408385031215614db657600080fd5b8251614dc1816144da565b6020939093015192949293505050565b600060208284031215614de357600080fd5b5051919050565b6000608082016080835280885480835260a08501915089600052602092508260002060005b82811015614e2b57815484529284019260019182019101614e0f565b5050508381038285015286815286888383013760008782018301526001600160a01b0386166040850152601f19601f880116010190508260608301529695505050505050565b6020808252602b908201527f496e697469616c697a61626c653a20636f6e7472616374206973206e6f74206960408201526a6e697469616c697a696e6760a81b606082015260800190565b60208082526032908201527f4552433732313a207472616e7366657220746f206e6f6e20455243373231526560408201527131b2b4bb32b91034b6b83632b6b2b73a32b960711b606082015260800190565b600060208284031215614f2057600080fd5b81516001600160401b03811115614f3657600080fd5b8201601f81018413614f4757600080fd5b8051614f5561459682614561565b818152856020838501011115614f6a57600080fd5b614f7b826020830160208601614456565b95945050505050565b634e487b7160e01b600052601260045260246000fd5b600082614fa957614fa9614f84565b500490565b600082614fbd57614fbd614f84565b500690565b60006001600160801b03808316818516808303821115614d6f57614d6f614d04565b634e487b7160e01b600052602160045260246000fd5b6020808252601d908201527f4c594e4b4e46543a20756e737570706f72746564207061796d656e742e000000604082015260600190565b604081016004841061505357634e487b7160e01b600052602160045260246000fd5b9281526020015290565b60006020828403121561506f57600080fd5b8151611393816146eb565b600181815b808511156150b557816000190482111561509b5761509b614d04565b808516156150a857918102915b93841c939080029061507f565b509250929050565b6000826150cc575060016105f3565b816150d9575060006105f3565b81600181146150ef57600281146150f957615115565b60019150506105f3565b60ff84111561510a5761510a614d04565b50506001821b6105f3565b5060208310610133831016604e8410600b8410161715615138575081810a6105f3565b615142838361507a565b806000190482111561515657615156614d04565b029392505050565b600061139383836150bd565b600081600019048311821515161561518457615184614d04565b500290565b6001600160a01b03858116825284166020820152604081018390526080606082018190526000906151bc90830184614482565b9695505050505050565b6000602082840312156151d857600080fd5b815161139381614423565b634e487b7160e01b600052603160045260246000fd5b6000825161520b818460208701614456565b919091019291505056fea2646970667358221220665519713c4685f8051c6137823aa20ecd388518ce2aa3df3242144d0efe6f1a64736f6c63430008090033",
  "devdoc": {
    "kind": "dev",
    "methods": {
      "approve(address,uint256)": {
        "details": "See {IERC721-approve}."
      },
      "balanceOf(address)": {
        "details": "See {IERC721-balanceOf}."
      },
      "getApproved(uint256)": {
        "details": "See {IERC721-getApproved}."
      },
      "isApprovedForAll(address,address)": {
        "details": "See {IERC721-isApprovedForAll}."
      },
      "name()": {
        "details": "See {IERC721Metadata-name}."
      },
      "ownerOf(uint256)": {
        "details": "See {IERC721-ownerOf}."
      },
      "safeTransferFrom(address,address,uint256)": {
        "details": "See {IERC721-safeTransferFrom}."
      },
      "safeTransferFrom(address,address,uint256,bytes)": {
        "details": "See {IERC721-safeTransferFrom}."
      },
      "setApprovalForAll(address,bool)": {
        "details": "See {IERC721-setApprovalForAll}."
      },
      "supportsInterface(bytes4)": {
        "details": "See {IERC165-supportsInterface}."
      },
      "symbol()": {
        "details": "See {IERC721Metadata-symbol}."
      },
      "tokenByIndex(uint256)": {
        "details": "See {IERC721Enumerable-tokenByIndex}."
      },
      "tokenOfOwnerByIndex(address,uint256)": {
        "details": "See {IERC721Enumerable-tokenOfOwnerByIndex}."
      },
      "tokenURI(uint256)": {
        "details": "See {IERC721Metadata-tokenURI}."
      },
      "totalSupply()": {
        "details": "See {IERC721Enumerable-totalSupply}."
      },
      "transferFrom(address,address,uint256)": {
        "details": "See {IERC721-transferFrom}."
      }
    },
    "version": 1
  },
  "userdoc": {
    "kind": "user",
    "methods": {},
    "version": 1
  },
  "storageLayout": {
    "storage": [
      {
        "astId": 138,
        "contract": "contracts/token/LYNKNFT.sol:LYNKNFT",
        "label": "_initialized",
        "offset": 0,
        "slot": "0",
        "type": "t_uint8"
      },
      {
        "astId": 141,
        "contract": "contracts/token/LYNKNFT.sol:LYNKNFT",
        "label": "_initializing",
        "offset": 1,
        "slot": "0",
        "type": "t_bool"
      },
      {
        "astId": 3230,
        "contract": "contracts/token/LYNKNFT.sol:LYNKNFT",
        "label": "__gap",
        "offset": 0,
        "slot": "1",
        "type": "t_array(t_uint256)50_storage"
      },
      {
        "astId": 4112,
        "contract": "contracts/token/LYNKNFT.sol:LYNKNFT",
        "label": "__gap",
        "offset": 0,
        "slot": "51",
        "type": "t_array(t_uint256)50_storage"
      },
      {
        "astId": 1533,
        "contract": "contracts/token/LYNKNFT.sol:LYNKNFT",
        "label": "_name",
        "offset": 0,
        "slot": "101",
        "type": "t_string_storage"
      },
      {
        "astId": 1535,
        "contract": "contracts/token/LYNKNFT.sol:LYNKNFT",
        "label": "_symbol",
        "offset": 0,
        "slot": "102",
        "type": "t_string_storage"
      },
      {
        "astId": 1539,
        "contract": "contracts/token/LYNKNFT.sol:LYNKNFT",
        "label": "_owners",
        "offset": 0,
        "slot": "103",
        "type": "t_mapping(t_uint256,t_address)"
      },
      {
        "astId": 1543,
        "contract": "contracts/token/LYNKNFT.sol:LYNKNFT",
        "label": "_balances",
        "offset": 0,
        "slot": "104",
        "type": "t_mapping(t_address,t_uint256)"
      },
      {
        "astId": 1547,
        "contract": "contracts/token/LYNKNFT.sol:LYNKNFT",
        "label": "_tokenApprovals",
        "offset": 0,
        "slot": "105",
        "type": "t_mapping(t_uint256,t_address)"
      },
      {
        "astId": 1553,
        "contract": "contracts/token/LYNKNFT.sol:LYNKNFT",
        "label": "_operatorApprovals",
        "offset": 0,
        "slot": "106",
        "type": "t_mapping(t_address,t_mapping(t_address,t_bool))"
      },
      {
        "astId": 2395,
        "contract": "contracts/token/LYNKNFT.sol:LYNKNFT",
        "label": "__gap",
        "offset": 0,
        "slot": "107",
        "type": "t_array(t_uint256)44_storage"
      },
      {
        "astId": 2560,
        "contract": "contracts/token/LYNKNFT.sol:LYNKNFT",
        "label": "_ownedTokens",
        "offset": 0,
        "slot": "151",
        "type": "t_mapping(t_address,t_mapping(t_uint256,t_uint256))"
      },
      {
        "astId": 2564,
        "contract": "contracts/token/LYNKNFT.sol:LYNKNFT",
        "label": "_ownedTokensIndex",
        "offset": 0,
        "slot": "152",
        "type": "t_mapping(t_uint256,t_uint256)"
      },
      {
        "astId": 2567,
        "contract": "contracts/token/LYNKNFT.sol:LYNKNFT",
        "label": "_allTokens",
        "offset": 0,
        "slot": "153",
        "type": "t_array(t_uint256)dyn_storage"
      },
      {
        "astId": 2571,
        "contract": "contracts/token/LYNKNFT.sol:LYNKNFT",
        "label": "_allTokensIndex",
        "offset": 0,
        "slot": "154",
        "type": "t_mapping(t_uint256,t_uint256)"
      },
      {
        "astId": 2887,
        "contract": "contracts/token/LYNKNFT.sol:LYNKNFT",
        "label": "__gap",
        "offset": 0,
        "slot": "155",
        "type": "t_array(t_uint256)46_storage"
      },
      {
        "astId": 11732,
        "contract": "contracts/token/LYNKNFT.sol:LYNKNFT",
        "label": "randomSeed",
        "offset": 0,
        "slot": "201",
        "type": "t_uint256"
      },
      {
        "astId": 11737,
        "contract": "contracts/token/LYNKNFT.sol:LYNKNFT",
        "label": "nftInfo",
        "offset": 0,
        "slot": "202",
        "type": "t_mapping(t_uint256,t_array(t_uint256)dyn_storage)"
      },
      {
        "astId": 11742,
        "contract": "contracts/token/LYNKNFT.sol:LYNKNFT",
        "label": "mintInfoOf",
        "offset": 0,
        "slot": "203",
        "type": "t_mapping(t_address,t_struct(MintInfo)11786_storage)"
      },
      {
        "astId": 11746,
        "contract": "contracts/token/LYNKNFT.sol:LYNKNFT",
        "label": "nameUsed",
        "offset": 0,
        "slot": "204",
        "type": "t_mapping(t_string_memory_ptr,t_bool)"
      },
      {
        "astId": 11751,
        "contract": "contracts/token/LYNKNFT.sol:LYNKNFT",
        "label": "addedVAInfoOf",
        "offset": 0,
        "slot": "205",
        "type": "t_mapping(t_uint256,t_struct(AttributeAddedInfo)11791_storage)"
      },
      {
        "astId": 11753,
        "contract": "contracts/token/LYNKNFT.sol:LYNKNFT",
        "label": "earlyBirdCounter",
        "offset": 0,
        "slot": "206",
        "type": "t_uint256"
      },
      {
        "astId": 11755,
        "contract": "contracts/token/LYNKNFT.sol:LYNKNFT",
        "label": "earlyBirdWlCounter",
        "offset": 0,
        "slot": "207",
        "type": "t_uint256"
      },
      {
        "astId": 11759,
        "contract": "contracts/token/LYNKNFT.sol:LYNKNFT",
        "label": "earlyBirdMintedOf",
        "offset": 0,
        "slot": "208",
        "type": "t_mapping(t_address,t_bool)"
      }
    ],
    "types": {
      "t_address": {
        "encoding": "inplace",
        "label": "address",
        "numberOfBytes": "20"
      },
      "t_array(t_uint256)44_storage": {
        "base": "t_uint256",
        "encoding": "inplace",
        "label": "uint256[44]",
        "numberOfBytes": "1408"
      },
      "t_array(t_uint256)46_storage": {
        "base": "t_uint256",
        "encoding": "inplace",
        "label": "uint256[46]",
        "numberOfBytes": "1472"
      },
      "t_array(t_uint256)50_storage": {
        "base": "t_uint256",
        "encoding": "inplace",
        "label": "uint256[50]",
        "numberOfBytes": "1600"
      },
      "t_array(t_uint256)dyn_storage": {
        "base": "t_uint256",
        "encoding": "dynamic_array",
        "label": "uint256[]",
        "numberOfBytes": "32"
      },
      "t_bool": {
        "encoding": "inplace",
        "label": "bool",
        "numberOfBytes": "1"
      },
      "t_mapping(t_address,t_bool)": {
        "encoding": "mapping",
        "key": "t_address",
        "label": "mapping(address => bool)",
        "numberOfBytes": "32",
        "value": "t_bool"
      },
      "t_mapping(t_address,t_mapping(t_address,t_bool))": {
        "encoding": "mapping",
        "key": "t_address",
        "label": "mapping(address => mapping(address => bool))",
        "numberOfBytes": "32",
        "value": "t_mapping(t_address,t_bool)"
      },
      "t_mapping(t_address,t_mapping(t_uint256,t_uint256))": {
        "encoding": "mapping",
        "key": "t_address",
        "label": "mapping(address => mapping(uint256 => uint256))",
        "numberOfBytes": "32",
        "value": "t_mapping(t_uint256,t_uint256)"
      },
      "t_mapping(t_address,t_struct(MintInfo)11786_storage)": {
        "encoding": "mapping",
        "key": "t_address",
        "label": "mapping(address => struct LYNKNFT.MintInfo)",
        "numberOfBytes": "32",
        "value": "t_struct(MintInfo)11786_storage"
      },
      "t_mapping(t_address,t_uint256)": {
        "encoding": "mapping",
        "key": "t_address",
        "label": "mapping(address => uint256)",
        "numberOfBytes": "32",
        "value": "t_uint256"
      },
      "t_mapping(t_string_memory_ptr,t_bool)": {
        "encoding": "mapping",
        "key": "t_string_memory_ptr",
        "label": "mapping(string => bool)",
        "numberOfBytes": "32",
        "value": "t_bool"
      },
      "t_mapping(t_uint256,t_address)": {
        "encoding": "mapping",
        "key": "t_uint256",
        "label": "mapping(uint256 => address)",
        "numberOfBytes": "32",
        "value": "t_address"
      },
      "t_mapping(t_uint256,t_array(t_uint256)dyn_storage)": {
        "encoding": "mapping",
        "key": "t_uint256",
        "label": "mapping(uint256 => uint256[])",
        "numberOfBytes": "32",
        "value": "t_array(t_uint256)dyn_storage"
      },
      "t_mapping(t_uint256,t_struct(AttributeAddedInfo)11791_storage)": {
        "encoding": "mapping",
        "key": "t_uint256",
        "label": "mapping(uint256 => struct LYNKNFT.AttributeAddedInfo)",
        "numberOfBytes": "32",
        "value": "t_struct(AttributeAddedInfo)11791_storage"
      },
      "t_mapping(t_uint256,t_uint256)": {
        "encoding": "mapping",
        "key": "t_uint256",
        "label": "mapping(uint256 => uint256)",
        "numberOfBytes": "32",
        "value": "t_uint256"
      },
      "t_string_memory_ptr": {
        "encoding": "bytes",
        "label": "string",
        "numberOfBytes": "32"
      },
      "t_string_storage": {
        "encoding": "bytes",
        "label": "string",
        "numberOfBytes": "32"
      },
      "t_struct(AttributeAddedInfo)11791_storage": {
        "encoding": "inplace",
        "label": "struct LYNKNFT.AttributeAddedInfo",
        "members": [
          {
            "astId": 11788,
            "contract": "contracts/token/LYNKNFT.sol:LYNKNFT",
            "label": "lastAddedTime",
            "offset": 0,
            "slot": "0",
            "type": "t_uint128"
          },
          {
            "astId": 11790,
            "contract": "contracts/token/LYNKNFT.sol:LYNKNFT",
            "label": "addedInDuration",
            "offset": 16,
            "slot": "0",
            "type": "t_uint128"
          }
        ],
        "numberOfBytes": "32"
      },
      "t_struct(MintInfo)11786_storage": {
        "encoding": "inplace",
        "label": "struct LYNKNFT.MintInfo",
        "members": [
          {
            "astId": 11783,
            "contract": "contracts/token/LYNKNFT.sol:LYNKNFT",
            "label": "lastMintTime",
            "offset": 0,
            "slot": "0",
            "type": "t_uint128"
          },
          {
            "astId": 11785,
            "contract": "contracts/token/LYNKNFT.sol:LYNKNFT",
            "label": "mintNumInDuration",
            "offset": 16,
            "slot": "0",
            "type": "t_uint128"
          }
        ],
        "numberOfBytes": "32"
      },
      "t_uint128": {
        "encoding": "inplace",
        "label": "uint128",
        "numberOfBytes": "16"
      },
      "t_uint256": {
        "encoding": "inplace",
        "label": "uint256",
        "numberOfBytes": "32"
      },
      "t_uint8": {
        "encoding": "inplace",
        "label": "uint8",
        "numberOfBytes": "1"
      }
    }
  }
}