{
  "address": "0x556dC54b74812A40928994B7D2ed7A2192AcAc09",
  "abi": [
    {
      "inputs": [
        {
          "internalType": "address",
          "name": "dbAddress",
          "type": "address"
        }
      ],
      "stateMutability": "nonpayable",
      "type": "constructor"
    },
    {
      "anonymous": false,
      "inputs": [
        {
          "indexed": true,
          "internalType": "address",
          "name": "owner",
          "type": "address"
        },
        {
          "indexed": true,
          "internalType": "address",
          "name": "approved",
          "type": "address"
        },
        {
          "indexed": true,
          "internalType": "uint256",
          "name": "tokenId",
          "type": "uint256"
        }
      ],
      "name": "Approval",
      "type": "event"
    },
    {
      "anonymous": false,
      "inputs": [
        {
          "indexed": true,
          "internalType": "address",
          "name": "owner",
          "type": "address"
        },
        {
          "indexed": true,
          "internalType": "address",
          "name": "operator",
          "type": "address"
        },
        {
          "indexed": false,
          "internalType": "bool",
          "name": "approved",
          "type": "bool"
        }
      ],
      "name": "ApprovalForAll",
      "type": "event"
    },
    {
      "anonymous": false,
      "inputs": [
        {
          "indexed": false,
          "internalType": "uint8",
          "name": "version",
          "type": "uint8"
        }
      ],
      "name": "Initialized",
      "type": "event"
    },
    {
      "anonymous": false,
      "inputs": [
        {
          "indexed": true,
          "internalType": "uint256",
          "name": "tokenId",
          "type": "uint256"
        },
        {
          "indexed": false,
          "internalType": "uint256[]",
          "name": "nftInfo",
          "type": "uint256[]"
        },
        {
          "indexed": false,
          "internalType": "string",
          "name": "name",
          "type": "string"
        },
        {
          "indexed": false,
          "internalType": "address",
          "name": "payment",
          "type": "address"
        },
        {
          "indexed": false,
          "internalType": "uint256",
          "name": "amount",
          "type": "uint256"
        }
      ],
      "name": "Mint",
      "type": "event"
    },
    {
      "anonymous": false,
      "inputs": [
        {
          "indexed": true,
          "internalType": "address",
          "name": "from",
          "type": "address"
        },
        {
          "indexed": true,
          "internalType": "address",
          "name": "to",
          "type": "address"
        },
        {
          "indexed": true,
          "internalType": "uint256",
          "name": "tokenId",
          "type": "uint256"
        }
      ],
      "name": "Transfer",
      "type": "event"
    },
    {
      "anonymous": false,
      "inputs": [
        {
          "indexed": true,
          "internalType": "uint256",
          "name": "tokenId",
          "type": "uint256"
        },
        {
          "indexed": false,
          "internalType": "enum ILYNKNFT.Attribute",
          "name": "attr",
          "type": "uint8"
        },
        {
          "indexed": false,
          "internalType": "uint256",
          "name": "point",
          "type": "uint256"
        }
      ],
      "name": "Upgrade",
      "type": "event"
    },
    {
      "inputs": [],
      "name": "BLACK_HOLE",
      "outputs": [
        {
          "internalType": "address",
          "name": "",
          "type": "address"
        }
      ],
      "stateMutability": "view",
      "type": "function"
    },
    {
      "inputs": [],
      "name": "DB_CONTRACT",
      "outputs": [
        {
          "internalType": "address",
          "name": "",
          "type": "address"
        }
      ],
      "stateMutability": "view",
      "type": "function"
    },
    {
      "inputs": [],
      "name": "__LYNKNFT_init",
      "outputs": [],
      "stateMutability": "nonpayable",
      "type": "function"
    },
    {
      "inputs": [
        {
          "internalType": "uint256",
          "name": "",
          "type": "uint256"
        }
      ],
      "name": "addedVAInfoOf",
      "outputs": [
        {
          "internalType": "uint128",
          "name": "lastAddedTime",
          "type": "uint128"
        },
        {
          "internalType": "uint128",
          "name": "addedInDuration",
          "type": "uint128"
        }
      ],
      "stateMutability": "view",
      "type": "function"
    },
    {
      "inputs": [
        {
          "internalType": "address",
          "name": "to",
          "type": "address"
        },
        {
          "internalType": "uint256",
          "name": "tokenId",
          "type": "uint256"
        }
      ],
      "name": "approve",
      "outputs": [],
      "stateMutability": "nonpayable",
      "type": "function"
    },
    {
      "inputs": [
        {
          "internalType": "address",
          "name": "owner",
          "type": "address"
        }
      ],
      "name": "balanceOf",
      "outputs": [
        {
          "internalType": "uint256",
          "name": "",
          "type": "uint256"
        }
      ],
      "stateMutability": "view",
      "type": "function"
    },
    {
      "inputs": [
        {
          "internalType": "string",
          "name": "_name",
          "type": "string"
        }
      ],
      "name": "earlyBirdMint",
      "outputs": [],
      "stateMutability": "nonpayable",
      "type": "function"
    },
    {
      "inputs": [
        {
          "internalType": "string",
          "name": "_name",
          "type": "string"
        },
        {
          "internalType": "uint256",
          "name": "_amount",
          "type": "uint256"
        },
        {
          "internalType": "uint256",
          "name": "deadline",
          "type": "uint256"
        },
        {
          "internalType": "uint8",
          "name": "v",
          "type": "uint8"
        },
        {
          "internalType": "bytes32",
          "name": "r",
          "type": "bytes32"
        },
        {
          "internalType": "bytes32",
          "name": "s",
          "type": "bytes32"
        }
      ],
      "name": "earlyBirdMintWIthPermit",
      "outputs": [],
      "stateMutability": "nonpayable",
      "type": "function"
    },
    {
      "inputs": [],
      "name": "earlyBirdNextId",
      "outputs": [
        {
          "internalType": "uint256",
          "name": "",
          "type": "uint256"
        }
      ],
      "stateMutability": "view",
      "type": "function"
    },
    {
      "inputs": [],
      "name": "earlyMintable",
      "outputs": [
        {
          "internalType": "bool",
          "name": "",
          "type": "bool"
        }
      ],
      "stateMutability": "view",
      "type": "function"
    },
    {
      "inputs": [
        {
          "internalType": "uint256",
          "name": "tokenId",
          "type": "uint256"
        }
      ],
      "name": "exists",
      "outputs": [
        {
          "internalType": "bool",
          "name": "",
          "type": "bool"
        }
      ],
      "stateMutability": "view",
      "type": "function"
    },
    {
      "inputs": [
        {
          "internalType": "uint256",
          "name": "tokenId",
          "type": "uint256"
        }
      ],
      "name": "getApproved",
      "outputs": [
        {
          "internalType": "address",
          "name": "",
          "type": "address"
        }
      ],
      "stateMutability": "view",
      "type": "function"
    },
    {
      "inputs": [
        {
          "internalType": "address",
          "name": "owner",
          "type": "address"
        },
        {
          "internalType": "address",
          "name": "operator",
          "type": "address"
        }
      ],
      "name": "isApprovedForAll",
      "outputs": [
        {
          "internalType": "bool",
          "name": "",
          "type": "bool"
        }
      ],
      "stateMutability": "view",
      "type": "function"
    },
    {
      "inputs": [
        {
          "internalType": "uint256",
          "name": "_tokenId",
          "type": "uint256"
        },
        {
          "internalType": "address",
          "name": "_payment",
          "type": "address"
        },
        {
          "internalType": "string",
          "name": "_name",
          "type": "string"
        }
      ],
      "name": "mint",
      "outputs": [],
      "stateMutability": "nonpayable",
      "type": "function"
    },
    {
      "inputs": [
        {
          "internalType": "address",
          "name": "",
          "type": "address"
        }
      ],
      "name": "mintInfoOf",
      "outputs": [
        {
          "internalType": "uint128",
          "name": "lastMintTime",
          "type": "uint128"
        },
        {
          "internalType": "uint128",
          "name": "mintNumInDuration",
          "type": "uint128"
        }
      ],
      "stateMutability": "view",
      "type": "function"
    },
    {
      "inputs": [
        {
          "internalType": "uint256",
          "name": "_tokenId",
          "type": "uint256"
        },
        {
          "internalType": "address",
          "name": "_payment",
          "type": "address"
        },
        {
          "internalType": "string",
          "name": "_name",
          "type": "string"
        },
        {
          "internalType": "uint256",
          "name": "_amount",
          "type": "uint256"
        },
        {
          "internalType": "uint256",
          "name": "deadline",
          "type": "uint256"
        },
        {
          "internalType": "uint8",
          "name": "v",
          "type": "uint8"
        },
        {
          "internalType": "bytes32",
          "name": "r",
          "type": "bytes32"
        },
        {
          "internalType": "bytes32",
          "name": "s",
          "type": "bytes32"
        }
      ],
      "name": "mintWithPermit",
      "outputs": [],
      "stateMutability": "nonpayable",
      "type": "function"
    },
    {
      "inputs": [],
      "name": "name",
      "outputs": [
        {
          "internalType": "string",
          "name": "",
          "type": "string"
        }
      ],
      "stateMutability": "view",
      "type": "function"
    },
    {
      "inputs": [
        {
          "internalType": "string",
          "name": "",
          "type": "string"
        }
      ],
      "name": "nameUsed",
      "outputs": [
        {
          "internalType": "bool",
          "name": "",
          "type": "bool"
        }
      ],
      "stateMutability": "view",
      "type": "function"
    },
    {
      "inputs": [
        {
          "internalType": "uint256",
          "name": "",
          "type": "uint256"
        },
        {
          "internalType": "uint256",
          "name": "",
          "type": "uint256"
        }
      ],
      "name": "nftInfo",
      "outputs": [
        {
          "internalType": "uint256",
          "name": "",
          "type": "uint256"
        }
      ],
      "stateMutability": "view",
      "type": "function"
    },
    {
      "inputs": [
        {
          "internalType": "uint256",
          "name": "_tokenId",
          "type": "uint256"
        }
      ],
      "name": "nftInfoOf",
      "outputs": [
        {
          "internalType": "uint256[]",
          "name": "_nftInfo",
          "type": "uint256[]"
        }
      ],
      "stateMutability": "view",
      "type": "function"
    },
    {
      "inputs": [
        {
          "internalType": "uint256",
          "name": "tokenId",
          "type": "uint256"
        }
      ],
      "name": "ownerOf",
      "outputs": [
        {
          "internalType": "address",
          "name": "",
          "type": "address"
        }
      ],
      "stateMutability": "view",
      "type": "function"
    },
    {
      "inputs": [
        {
          "internalType": "address",
          "name": "from",
          "type": "address"
        },
        {
          "internalType": "address",
          "name": "to",
          "type": "address"
        },
        {
          "internalType": "uint256",
          "name": "tokenId",
          "type": "uint256"
        }
      ],
      "name": "safeTransferFrom",
      "outputs": [],
      "stateMutability": "nonpayable",
      "type": "function"
    },
    {
      "inputs": [
        {
          "internalType": "address",
          "name": "from",
          "type": "address"
        },
        {
          "internalType": "address",
          "name": "to",
          "type": "address"
        },
        {
          "internalType": "uint256",
          "name": "tokenId",
          "type": "uint256"
        },
        {
          "internalType": "bytes",
          "name": "data",
          "type": "bytes"
        }
      ],
      "name": "safeTransferFrom",
      "outputs": [],
      "stateMutability": "nonpayable",
      "type": "function"
    },
    {
      "inputs": [
        {
          "internalType": "address",
          "name": "operator",
          "type": "address"
        },
        {
          "internalType": "bool",
          "name": "approved",
          "type": "bool"
        }
      ],
      "name": "setApprovalForAll",
      "outputs": [],
      "stateMutability": "nonpayable",
      "type": "function"
    },
    {
      "inputs": [
        {
          "internalType": "bytes4",
          "name": "interfaceId",
          "type": "bytes4"
        }
      ],
      "name": "supportsInterface",
      "outputs": [
        {
          "internalType": "bool",
          "name": "",
          "type": "bool"
        }
      ],
      "stateMutability": "view",
      "type": "function"
    },
    {
      "inputs": [],
      "name": "symbol",
      "outputs": [
        {
          "internalType": "string",
          "name": "",
          "type": "string"
        }
      ],
      "stateMutability": "view",
      "type": "function"
    },
    {
      "inputs": [
        {
          "internalType": "uint256",
          "name": "index",
          "type": "uint256"
        }
      ],
      "name": "tokenByIndex",
      "outputs": [
        {
          "internalType": "uint256",
          "name": "",
          "type": "uint256"
        }
      ],
      "stateMutability": "view",
      "type": "function"
    },
    {
      "inputs": [
        {
          "internalType": "address",
          "name": "owner",
          "type": "address"
        },
        {
          "internalType": "uint256",
          "name": "index",
          "type": "uint256"
        }
      ],
      "name": "tokenOfOwnerByIndex",
      "outputs": [
        {
          "internalType": "uint256",
          "name": "",
          "type": "uint256"
        }
      ],
      "stateMutability": "view",
      "type": "function"
    },
    {
      "inputs": [
        {
          "internalType": "uint256",
          "name": "tokenId",
          "type": "uint256"
        }
      ],
      "name": "tokenURI",
      "outputs": [
        {
          "internalType": "string",
          "name": "",
          "type": "string"
        }
      ],
      "stateMutability": "view",
      "type": "function"
    },
    {
      "inputs": [],
      "name": "totalSupply",
      "outputs": [
        {
          "internalType": "uint256",
          "name": "",
          "type": "uint256"
        }
      ],
      "stateMutability": "view",
      "type": "function"
    },
    {
      "inputs": [
        {
          "internalType": "address",
          "name": "from",
          "type": "address"
        },
        {
          "internalType": "address",
          "name": "to",
          "type": "address"
        },
        {
          "internalType": "uint256",
          "name": "tokenId",
          "type": "uint256"
        }
      ],
      "name": "transferFrom",
      "outputs": [],
      "stateMutability": "nonpayable",
      "type": "function"
    },
    {
      "inputs": [
        {
          "internalType": "enum ILYNKNFT.Attribute",
          "name": "_attr",
          "type": "uint8"
        },
        {
          "internalType": "uint256",
          "name": "_tokenId",
          "type": "uint256"
        },
        {
          "internalType": "uint256",
          "name": "_point",
          "type": "uint256"
        },
        {
          "internalType": "address",
          "name": "_payment",
          "type": "address"
        }
      ],
      "name": "upgrade",
      "outputs": [],
      "stateMutability": "nonpayable",
      "type": "function"
    },
    {
      "inputs": [
        {
          "internalType": "enum ILYNKNFT.Attribute",
          "name": "_attr",
          "type": "uint8"
        },
        {
          "internalType": "uint256",
          "name": "_tokenId",
          "type": "uint256"
        },
        {
          "internalType": "uint256",
          "name": "_point",
          "type": "uint256"
        },
        {
          "internalType": "address",
          "name": "_payment",
          "type": "address"
        },
        {
          "internalType": "uint256",
          "name": "_amount",
          "type": "uint256"
        },
        {
          "internalType": "uint256",
          "name": "deadline",
          "type": "uint256"
        },
        {
          "internalType": "uint8",
          "name": "v",
          "type": "uint8"
        },
        {
          "internalType": "bytes32",
          "name": "r",
          "type": "bytes32"
        },
        {
          "internalType": "bytes32",
          "name": "s",
          "type": "bytes32"
        }
      ],
      "name": "upgradeWithPermit",
      "outputs": [],
      "stateMutability": "nonpayable",
      "type": "function"
    }
  ],
  "transactionHash": "0xb4d6fb338c3da559b7740cd89fc6115272c632eff195f8fbadb1e48411b5df65",
  "args": [
    "0x4023A2776c1CE7d174Ee3BDfa639C74faD47393F"
  ],
  "numDeployments": 7,
  "solcInputHash": "2c49051bce7c7ef39db0c4b64c35958f",
  "bytecode": "0x60a06040523480156200001157600080fd5b5060405162004c9238038062004c92833981016040819052620000349162000046565b6001600160a01b031660805262000078565b6000602082840312156200005957600080fd5b81516001600160a01b03811681146200007157600080fd5b9392505050565b608051614b336200015f600039600081816103c80152818161081801528181610c4601528181610cde015281816113070152818161148e01528181611578015281816116390152818161175801528181611a5801528181611beb01528181611cc401528181611f2b01528181611ff2015281816121f6015281816123d30152818161247e015281816125ac01528181612684015281816127e1015281816128bf01528181612a1101528181612bf901528181612f2601528181612fca01528181613247015281816132f20152818161344d0152818161350c01526135640152614b336000f3fe608060405234801561001057600080fd5b50600436106101fb5760003560e01c806370a082311161011a578063b990e358116100ad578063d49cf8e31161007c578063d49cf8e3146104a0578063dcefcebc146104b3578063dfa2eec0146104d3578063e67e402c146104e6578063e985e9c5146104f957600080fd5b8063b990e35814610454578063c87b56dd14610467578063cabaa1771461047a578063cb97200e1461048d57600080fd5b8063b6fc133a116100e9578063b6fc133a146103fd578063b77c055514610431578063b8457e7214610439578063b88d4fde1461044157600080fd5b806370a08231146103a857806395d89b41146103bb5780639ccea0cd146103c3578063a22cb465146103ea57600080fd5b80633f8336e3116101925780634f6ccce7116101615780634f6ccce71461037057806355eda4e8146103835780636108b3581461038c5780636352211e1461039557600080fd5b80633f8336e3146102e357806342842e0e14610337578063435a2bdc1461034a5780634f558e791461035d57600080fd5b80630b9b6e8b116101ce5780630b9b6e8b1461027d57806318160ddd146102ab57806323b872dd146102bd5780632f745c59146102d057600080fd5b806301ffc9a71461020057806306fdde0314610228578063081812fc1461023d578063095ea7b314610268575b600080fd5b61021361020e366004613e2f565b610535565b60405190151581526020015b60405180910390f35b610230610560565b60405161021f9190613ea4565b61025061024b366004613eb7565b6105f2565b6040516001600160a01b03909116815260200161021f565b61027b610276366004613ee5565b610619565b005b61021361028b366004613fbe565b805160208183018101805160cc8252928201919093012091525460ff1681565b6099545b60405190815260200161021f565b61027b6102cb366004614007565b610734565b6102af6102de366004613ee5565b610765565b6103176102f1366004613eb7565b60cd602052600090815260409020546001600160801b0380821691600160801b90041682565b604080516001600160801b0393841681529290911660208301520161021f565b61027b610345366004614007565b6107fb565b61027b6103583660046140a0565b610816565b61021361036b366004613eb7565b610923565b6102af61037e366004613eb7565b610942565b61025061dead81565b6102af60ce5481565b6102506103a3366004613eb7565b6109d5565b6102af6103b636600461411d565b610a35565b610230610abb565b6102507f000000000000000000000000000000000000000000000000000000000000000081565b61027b6103f8366004614148565b610aca565b61031761040b36600461411d565b60cb602052600090815260409020546001600160801b0380821691600160801b90041682565b61027b610ad9565b610213610c42565b61027b61044f366004614181565b610d77565b61027b610462366004614201565b610daf565b610230610475366004613eb7565b610db9565b61027b610488366004614243565b610e20565b61027b61049b3660046142f1565b610ea1565b61027b6104ae366004614375565b610f17565b6104c66104c1366004613eb7565b610f23565b60405161021f91906143bd565b6102af6104e1366004614401565b610f85565b61027b6104f4366004614423565b610fb6565b61021361050736600461447f565b6001600160a01b039182166000908152606a6020908152604080832093909416825291909152205460ff1690565b60006001600160e01b0319821663780e9d6360e01b148061055a575061055a82610fc2565b92915050565b60606065805461056f906144ad565b80601f016020809104026020016040519081016040528092919081815260200182805461059b906144ad565b80156105e85780601f106105bd576101008083540402835291602001916105e8565b820191906000526020600020905b8154815290600101906020018083116105cb57829003601f168201915b5050505050905090565b60006105fd82611012565b506000908152606960205260409020546001600160a01b031690565b6000610624826109d5565b9050806001600160a01b0316836001600160a01b031614156106975760405162461bcd60e51b815260206004820152602160248201527f4552433732313a20617070726f76616c20746f2063757272656e74206f776e656044820152603960f91b60648201526084015b60405180910390fd5b336001600160a01b03821614806106b357506106b38133610507565b6107255760405162461bcd60e51b815260206004820152603e60248201527f4552433732313a20617070726f76652063616c6c6572206973206e6f7420746f60448201527f6b656e206f776e6572206e6f7220617070726f76656420666f7220616c6c0000606482015260840161068e565b61072f8383611071565b505050565b61073e33826110df565b61075a5760405162461bcd60e51b815260040161068e906144e8565b61072f83838361115e565b600061077083610a35565b82106107d25760405162461bcd60e51b815260206004820152602b60248201527f455243373231456e756d657261626c653a206f776e657220696e646578206f7560448201526a74206f6620626f756e647360a81b606482015260840161068e565b506001600160a01b03919091166000908152609760209081526040808320938352929052205490565b61072f83838360405180602001604052806000815250610d77565b7f00000000000000000000000000000000000000000000000000000000000000006001600160a01b031663dfada9886040518163ffffffff1660e01b815260040160206040518083038186803b15801561086f57600080fd5b505afa158015610883573d6000803e3d6000fd5b505050506040513d601f19601f820116820180604052508101906108a79190614536565b6001600160a01b031663d505accf333088888888886040518863ffffffff1660e01b81526004016108de9796959493929190614553565b600060405180830381600087803b1580156108f857600080fd5b505af115801561090c573d6000803e3d6000fd5b5050505061091a8787611305565b50505050505050565b6000818152606760205260408120546001600160a01b0316151561055a565b600061094d60995490565b82106109b05760405162461bcd60e51b815260206004820152602c60248201527f455243373231456e756d657261626c653a20676c6f62616c20696e646578206f60448201526b7574206f6620626f756e647360a01b606482015260840161068e565b609982815481106109c3576109c3614594565b90600052602060002001549050919050565b6000818152606760205260408120546001600160a01b03168061055a5760405162461bcd60e51b8152602060048201526018602482015277115490cdcc8c4e881a5b9d985b1a59081d1bdad95b88125160421b604482015260640161068e565b60006001600160a01b038216610a9f5760405162461bcd60e51b815260206004820152602960248201527f4552433732313a2061646472657373207a65726f206973206e6f7420612076616044820152683634b21037bbb732b960b91b606482015260840161068e565b506001600160a01b031660009081526068602052604090205490565b60606066805461056f906144ad565b610ad53383836118e8565b5050565b600054610100900460ff1615808015610af95750600054600160ff909116105b80610b135750303b158015610b13575060005460ff166001145b610b765760405162461bcd60e51b815260206004820152602e60248201527f496e697469616c697a61626c653a20636f6e747261637420697320616c72656160448201526d191e481a5b9a5d1a585b1a5e995960921b606482015260840161068e565b6000805460ff191660011790558015610b99576000805461ff0019166101001790555b610ba16119b7565b610ba96119bf565b610bf16040518060400160405280600781526020016613165392d3919560ca1b8152506040518060400160405280600781526020016613165392d3919560ca1b8152506119e8565b610bf9611a19565b8015610c3f576000805461ff0019169055604051600181527f7f26b83ff96e1f2b6a682f133852f6798a09c465da95921460cefb38474024989060200160405180910390a15b50565b60007f00000000000000000000000000000000000000000000000000000000000000006001600160a01b031663ea0d14656040518163ffffffff1660e01b815260040160206040518083038186803b158015610c9d57600080fd5b505afa158015610cb1573d6000803e3d6000fd5b505050506040513d601f19601f82011682018060405250810190610cd591906145aa565b8015610d7257507f00000000000000000000000000000000000000000000000000000000000000006001600160a01b031663405a0aa86040518163ffffffff1660e01b815260040160206040518083038186803b158015610d3557600080fd5b505afa158015610d49573d6000803e3d6000fd5b505050506040513d601f19601f82011682018060405250810190610d6d91906145c7565b60ce54105b905090565b610d8133836110df565b610d9d5760405162461bcd60e51b815260040161068e906144e8565b610da984848484611a21565b50505050565b610ad58282611305565b6060610dc482611012565b6000610dce611a54565b90506000815111610dee5760405180602001604052806000815250610e19565b80610df884611aeb565b604051602001610e099291906145e0565b6040516020818303038152906040525b9392505050565b60405163d505accf60e01b81526001600160a01b0389169063d505accf90610e5890339030908a908a908a908a908a90600401614553565b600060405180830381600087803b158015610e7257600080fd5b505af1158015610e86573d6000803e3d6000fd5b50505050610e9689898989611be9565b505050505050505050565b60405163d505accf60e01b81526001600160a01b0387169063d505accf90610ed990339030908a908a908a908a908a90600401614553565b600060405180830381600087803b158015610ef357600080fd5b505af1158015610f07573d6000803e3d6000fd5b50505050610e96898989896121f4565b610da9848484846121f4565b600081815260ca6020908152604091829020805483518184028101840190945280845260609392830182828015610f7957602002820191906000526020600020905b815481526020019060010190808311610f65575b50505050509050919050565b60ca6020528160005260406000208181548110610fa157600080fd5b90600052602060002001600091509150505481565b610da984848484611be9565b60006001600160e01b031982166380ac58cd60e01b1480610ff357506001600160e01b03198216635b5e139f60e01b145b8061055a57506301ffc9a760e01b6001600160e01b031983161461055a565b6000818152606760205260409020546001600160a01b0316610c3f5760405162461bcd60e51b8152602060048201526018602482015277115490cdcc8c4e881a5b9d985b1a59081d1bdad95b88125160421b604482015260640161068e565b600081815260696020526040902080546001600160a01b0319166001600160a01b03841690811790915581906110a6826109d5565b6001600160a01b03167f8c5be1e5ebec7d5bd14f71427d1e84f3dd0314c0f7b2291e5b200ac8c7c3b92560405160405180910390a45050565b6000806110eb836109d5565b9050806001600160a01b0316846001600160a01b0316148061113257506001600160a01b038082166000908152606a602090815260408083209388168352929052205460ff165b806111565750836001600160a01b031661114b846105f2565b6001600160a01b0316145b949350505050565b826001600160a01b0316611171826109d5565b6001600160a01b0316146111d55760405162461bcd60e51b815260206004820152602560248201527f4552433732313a207472616e736665722066726f6d20696e636f72726563742060448201526437bbb732b960d91b606482015260840161068e565b6001600160a01b0382166112375760405162461bcd60e51b8152602060048201526024808201527f4552433732313a207472616e7366657220746f20746865207a65726f206164646044820152637265737360e01b606482015260840161068e565b611242838383612d1d565b61124d600082611071565b6001600160a01b0383166000908152606860205260408120805460019290611276908490614625565b90915550506001600160a01b03821660009081526068602052604081208054600192906112a490849061463c565b909155505060008181526067602052604080822080546001600160a01b0319166001600160a01b0386811691821790925591518493918716917fddf252ad1be2c89b69c2b068fc378daa952ba7f163c4a11628f55a4df523b3ef91a4505050565b7f00000000000000000000000000000000000000000000000000000000000000006001600160a01b031663ea0d14656040518163ffffffff1660e01b815260040160206040518083038186803b15801561135e57600080fd5b505afa158015611372573d6000803e3d6000fd5b505050506040513d601f19601f8201168201806040525081019061139691906145aa565b6113de5760405162461bcd60e51b8152602060048201526019602482015278262ca725a7232a1d1031b0b73737ba1036b4b73a103cb2ba1760391b604482015260640161068e565b60cc82826040516113f0929190614654565b9081526040519081900360200190205460ff16156114505760405162461bcd60e51b815260206004820152601e60248201527f4c594e4b4e46543a206e616d6520616c726561647920696e20757365642e0000604482015260640161068e565b600160cc8383604051611464929190614654565b908152602001604051809103902060006101000a81548160ff0219169083151502179055506000807f00000000000000000000000000000000000000000000000000000000000000006001600160a01b031663be1888116040518163ffffffff1660e01b8152600401604080518083038186803b1580156114e457600080fd5b505afa1580156114f8573d6000803e3d6000fd5b505050506040513d601f19601f8201168201806040525081019061151c9190614664565b60ce5491935091508281101561152f5750815b8181106115735760405162461bcd60e51b8152602060048201526012602482015271262ca725a7232a1d1039b7b6321037baba1760711b604482015260640161068e565b6000807f00000000000000000000000000000000000000000000000000000000000000006001600160a01b0316637af0cac36040518163ffffffff1660e01b8152600401604080518083038186803b1580156115ce57600080fd5b505afa1580156115e2573d6000803e3d6000fd5b505050506040513d601f19601f820116820180604052508101906116069190614688565b9150915061161b826116153390565b83612dd5565b61162683600161463c565b60ce8190555060405180608001604052807f00000000000000000000000000000000000000000000000000000000000000006001600160a01b03166364db03b86040518163ffffffff1660e01b815260040160206040518083038186803b15801561169057600080fd5b505afa1580156116a4573d6000803e3d6000fd5b505050506040513d601f19601f820116820180604052508101906116c891906145c7565b8152600060208083018290526040808401839052606090930182905286825260ca9052206116f7916004613d46565b506117023384613082565b827f43332af98367d01c3bc9be42717917c42e1bd0084f4cdad927e9b4c06471d35160ca60008681526020019081526020016000208989868660405161174c9594939291906146b6565b60405180910390a260007f00000000000000000000000000000000000000000000000000000000000000006001600160a01b031663fa1785fe6040518163ffffffff1660e01b815260040160206040518083038186803b1580156117af57600080fd5b505afa1580156117c3573d6000803e3d6000fd5b505050506040513d601f19601f820116820180604052508101906117e79190614536565b90506001600160a01b03811663f3c95c60336040516001600160e01b031960e084901b1681526001600160a01b03909116600482015260240160206040518083038186803b15801561183857600080fd5b505afa15801561184c573d6000803e3d6000fd5b505050506040513d601f19601f8201168201806040525081019061187091906145aa565b6118de576001600160a01b0381166396fd3854336040516001600160e01b031960e084901b1681526001600160a01b039091166004820152602401600060405180830381600087803b1580156118c557600080fd5b505af11580156118d9573d6000803e3d6000fd5b505050505b5050505050505050565b816001600160a01b0316836001600160a01b0316141561194a5760405162461bcd60e51b815260206004820152601960248201527f4552433732313a20617070726f766520746f2063616c6c657200000000000000604482015260640161068e565b6001600160a01b038381166000818152606a6020908152604080832094871680845294825291829020805460ff191686151590811790915591519182527f17307eab39ab6107e8899845ad3d59bd9653f200f220920489ca2b5937696c31910160405180910390a3505050565b610c3f61309c565b600054610100900460ff166119e65760405162461bcd60e51b815260040161068e9061473d565b565b600054610100900460ff16611a0f5760405162461bcd60e51b815260040161068e9061473d565b610ad582826130de565b6119e66119bf565b611a2c84848461115e565b611a388484848461312c565b610da95760405162461bcd60e51b815260040161068e90614788565b60607f00000000000000000000000000000000000000000000000000000000000000006001600160a01b031663d547cfb76040518163ffffffff1660e01b815260040160006040518083038186803b158015611aaf57600080fd5b505afa158015611ac3573d6000803e3d6000fd5b505050506040513d6000823e601f3d908101601f19168201604052610d7291908101906147da565b606081611b0f5750506040805180820190915260018152600360fc1b602082015290565b8160005b8115611b395780611b2381614851565b9150611b329050600a83614882565b9150611b13565b60008167ffffffffffffffff811115611b5457611b54613f11565b6040519080825280601f01601f191660200182016040528015611b7e576020820181803683370190505b5090505b841561115657611b93600183614625565b9150611ba0600a86614896565b611bab90603061463c565b60f81b818381518110611bc057611bc0614594565b60200101906001600160f81b031916908160001a905350611be2600a86614882565b9450611b82565b7f00000000000000000000000000000000000000000000000000000000000000006001600160a01b03166366227eb96040518163ffffffff1660e01b815260040160206040518083038186803b158015611c4257600080fd5b505afa158015611c56573d6000803e3d6000fd5b505050506040513d601f19601f82011682018060405250810190611c7a91906145aa565b611cc25760405162461bcd60e51b8152602060048201526019602482015278262ca725a7232a1d1031b0b73737ba1036b4b73a103cb2ba1760391b604482015260640161068e565b7f00000000000000000000000000000000000000000000000000000000000000006001600160a01b031663fa1785fe6040518163ffffffff1660e01b815260040160206040518083038186803b158015611d1b57600080fd5b505afa158015611d2f573d6000803e3d6000fd5b505050506040513d601f19601f82011682018060405250810190611d539190614536565b6001600160a01b031663f3c95c60336040516001600160e01b031960e084901b1681526001600160a01b03909116600482015260240160206040518083038186803b158015611da157600080fd5b505afa158015611db5573d6000803e3d6000fd5b505050506040513d601f19601f82011682018060405250810190611dd991906145aa565b611e255760405162461bcd60e51b815260206004820152601a60248201527f4c594e4b4e46543a206e6f7420612076616c696420757365722e000000000000604482015260640161068e565b60cc8282604051611e37929190614654565b9081526040519081900360200190205460ff1615611e975760405162461bcd60e51b815260206004820152601e60248201527f4c594e4b4e46543a206e616d6520616c726561647920696e20757365642e0000604482015260640161068e565b600160cc8383604051611eab929190614654565b908152604051908190036020019020805491151560ff19909216919091179055600060cb81611ed73390565b6001600160a01b03908116825260208083019390935260409182016000208251808401845290546001600160801b038082168352600160801b909104168185015282516303ed69ad60e21b815292519094507f000000000000000000000000000000000000000000000000000000000000000090911692630fb5a6b49260048082019391829003018186803b158015611f6f57600080fd5b505afa158015611f83573d6000803e3d6000fd5b505050506040513d601f19601f82011682018060405250810190611fa791906145c7565b8151611fbc906001600160801b031642614625565b10611ff0576000602082810182905233825260cb90526040902080546001600160801b031916426001600160801b03161790555b7f00000000000000000000000000000000000000000000000000000000000000006001600160a01b031663600a2f826040518163ffffffff1660e01b815260040160206040518083038186803b15801561204957600080fd5b505afa15801561205d573d6000803e3d6000fd5b505050506040513d601f19601f8201168201806040525081019061208191906145c7565b81602001516001600160801b0316106120e85760405162461bcd60e51b815260206004820152602360248201527f4c594e4b4e46543a2063616e6e6f74206d696e74206d6f726520696e2061206460448201526230bc9760e91b606482015260840161068e565b60208101516120f89060016148aa565b33600090815260cb6020526040812080546001600160801b03938416600160801b0293169290921790915561212d8686613239565b90506121398533611615565b60008061214533613645565b91509150604051806080016040528060008152602001838152602001828152602001600081525060ca60008a815260200190815260200160002090600461218d929190613d46565b506121983389613082565b877f43332af98367d01c3bc9be42717917c42e1bd0084f4cdad927e9b4c06471d35160ca60008b815260200190815260200160002088888b886040516121e29594939291906146b6565b60405180910390a25050505050505050565b7f00000000000000000000000000000000000000000000000000000000000000006001600160a01b031663fa1785fe6040518163ffffffff1660e01b815260040160206040518083038186803b15801561224d57600080fd5b505afa158015612261573d6000803e3d6000fd5b505050506040513d601f19601f820116820180604052508101906122859190614536565b6001600160a01b031663f3c95c60336040516001600160e01b031960e084901b1681526001600160a01b03909116600482015260240160206040518083038186803b1580156122d357600080fd5b505afa1580156122e7573d6000803e3d6000fd5b505050506040513d601f19601f8201168201806040525081019061230b91906145aa565b6123575760405162461bcd60e51b815260206004820152601a60248201527f4c594e4b4e46543a206e6f7420612076616c696420757365722e000000000000604482015260640161068e565b323314801561237657503361236b846109d5565b6001600160a01b0316145b6123bb5760405162461bcd60e51b8152602060048201526016602482015275262ca725a7232a1d103737ba103a34329037bbb732b960511b604482015260640161068e565b8360038111156123cd576123cd6148cc565b612543577f00000000000000000000000000000000000000000000000000000000000000006001600160a01b03166377b330c96040518163ffffffff1660e01b815260040160206040518083038186803b15801561242a57600080fd5b505afa15801561243e573d6000803e3d6000fd5b505050506040513d601f19601f820116820180604052508101906124629190614536565b6001600160a01b0316816001600160a01b0316148061252257507f00000000000000000000000000000000000000000000000000000000000000006001600160a01b0316633b87436b6040518163ffffffff1660e01b815260040160206040518083038186803b1580156124d557600080fd5b505afa1580156124e9573d6000803e3d6000fd5b505050506040513d601f19601f8201168201806040525081019061250d9190614536565b6001600160a01b0316816001600160a01b0316145b61253e5760405162461bcd60e51b815260040161068e906148e2565b612ad0565b836003811115612555576125556148cc565b600114156127bb57600083815260cd60209081526040918290208251808401845290546001600160801b038082168352600160801b909104168183015282516303ed69ad60e21b8152925190926001600160a01b037f00000000000000000000000000000000000000000000000000000000000000001692630fb5a6b492600480840193829003018186803b1580156125ed57600080fd5b505afa158015612601573d6000803e3d6000fd5b505050506040513d601f19601f8201168201806040525081019061262591906145c7565b815161263a906001600160801b031642614625565b1061266e576000602082810182905285825260cd90526040902080546001600160801b0319166001600160801b0342161790555b60405163317369c560e11b8152600481018590527f00000000000000000000000000000000000000000000000000000000000000006001600160a01b0316906362e6d38a9060240160206040518083038186803b1580156126ce57600080fd5b505afa1580156126e2573d6000803e3d6000fd5b505050506040513d601f19601f8201168201806040525081019061270691906145c7565b8382602001516001600160801b031661271f919061463c565b111561277c5760405162461bcd60e51b815260206004820152602660248201527f4c594e4b4e46543a2063616e6e6f742075706772616465206d6f726520696e2060448201526530903230bc9760d11b606482015260840161068e565b82816020015161278c91906148aa565b600085815260cd6020526040902080546001600160801b03928316600160801b02921691909117905550612a0f565b600060018560038111156127d1576127d16148cc565b6127db9190614625565b905060007f00000000000000000000000000000000000000000000000000000000000000006001600160a01b031663b2cd99af836003811115612820576128206148cc565b600088815260ca6020526040902080548690811061284057612840614594565b90600052602060002001546040518363ffffffff1660e01b8152600401612868929190614919565b604080518083038186803b15801561287f57600080fd5b505afa158015612893573d6000803e3d6000fd5b505050506040513d601f19601f820116820180604052508101906128b79190614664565b5090506000807f00000000000000000000000000000000000000000000000000000000000000006001600160a01b031663b2cd99af8960ca60008b81526020019081526020016000208b6003811115612912576129126148cc565b8154811061292257612922614594565b906000526020600020015489612938919061463c565b6040518363ffffffff1660e01b8152600401612955929190614919565b604080518083038186803b15801561296c57600080fd5b505afa158015612980573d6000803e3d6000fd5b505050506040513d601f19601f820116820180604052508101906129a49190614664565b91509150818311806129be575081831480156129be575080155b612a0a5760405162461bcd60e51b815260206004820152601860248201527f4c594e4b4e46543a206c6576656c206f766572666c6f772e0000000000000000604482015260640161068e565b505050505b7f00000000000000000000000000000000000000000000000000000000000000006001600160a01b031663c2e30dd06040518163ffffffff1660e01b815260040160206040518083038186803b158015612a6857600080fd5b505afa158015612a7c573d6000803e3d6000fd5b505050506040513d601f19601f82011682018060405250810190612aa09190614536565b6001600160a01b0316816001600160a01b031614612ad05760405162461bcd60e51b815260040161068e906148e2565b6000816001600160a01b031663313ce5676040518163ffffffff1660e01b815260040160206040518083038186803b158015612b0b57600080fd5b505afa158015612b1f573d6000803e3d6000fd5b505050506040513d601f19601f82011682018060405250810190612b439190614945565b60ff1690506000612b5582600a614a46565b612b5f9085614a52565b9050612b6b8333611615565b600085815260ca602052604090208490876003811115612b8d57612b8d6148cc565b81548110612b9d57612b9d614594565b906000526020600020016000828254612bb6919061463c565b92505081905550847f6a4348800167e375a04ba455a3563b96544c3d4a8662a4ca79307485fb6dbfc18786604051612bef929190614919565b60405180910390a27f00000000000000000000000000000000000000000000000000000000000000006001600160a01b031663fa1785fe6040518163ffffffff1660e01b815260040160206040518083038186803b158015612c5057600080fd5b505afa158015612c64573d6000803e3d6000fd5b505050506040513d601f19601f82011682018060405250810190612c889190614536565b6001600160a01b031663562afdf533886003811115612ca957612ca96148cc565b15612cb5576000612cb7565b865b6040516001600160e01b031960e085901b1681526001600160a01b0390921660048301526024820152604401600060405180830381600087803b158015612cfd57600080fd5b505af1158015612d11573d6000803e3d6000fd5b50505050505050505050565b6001600160a01b038316612d7857612d7381609980546000838152609a60205260408120829055600182018355919091527f72a152ddfb8e864297c917af52ea6c1c68aead0fee1a62673fcc7e0c94979d000155565b612d9b565b816001600160a01b0316836001600160a01b031614612d9b57612d9b83826136dc565b6001600160a01b038216612db25761072f81613779565b826001600160a01b0316826001600160a01b03161461072f5761072f8282613828565b6001600160a01b038316612e3e57803414612e325760405162461bcd60e51b815260206004820152601c60248201527f62617365436f6e74726163743a20696e76616c69642076616c75652e00000000604482015260640161068e565b61072f61dead8261386c565b604051636eb1769f60e11b81526001600160a01b03838116600483015230602483015282919085169063dd62ed3e9060440160206040518083038186803b158015612e8857600080fd5b505afa158015612e9c573d6000803e3d6000fd5b505050506040513d601f19601f82011682018060405250810190612ec091906145c7565b1015612f1a5760405162461bcd60e51b8152602060048201526024808201527f62617365436f6e74726163743a20696e73756666696369656e7420616c6c6f77604482015263616e636560e01b606482015260840161068e565b826001600160a01b03167f00000000000000000000000000000000000000000000000000000000000000006001600160a01b03166377b330c96040518163ffffffff1660e01b815260040160206040518083038186803b158015612f7d57600080fd5b505afa158015612f91573d6000803e3d6000fd5b505050506040513d601f19601f82011682018060405250810190612fb59190614536565b6001600160a01b0316141561306b5761072f827f00000000000000000000000000000000000000000000000000000000000000006001600160a01b0316630b00fd546040518163ffffffff1660e01b815260040160206040518083038186803b15801561302157600080fd5b505afa158015613035573d6000803e3d6000fd5b505050506040513d601f19601f820116820180604052508101906130599190614536565b6001600160a01b038616919084613985565b61072f6001600160a01b0384168361dead84613985565b610ad58282604051806020016040528060008152506139df565b60c954604080516020810192909252429082015244606082015260009060800160408051601f19818403018152919052805160209091012060c9819055919050565b600054610100900460ff166131055760405162461bcd60e51b815260040161068e9061473d565b8151613118906065906020850190613d91565b50805161072f906066906020840190613d91565b60006001600160a01b0384163b1561322e57604051630a85bd0160e11b81526001600160a01b0385169063150b7a0290613170903390899088908890600401614a71565b602060405180830381600087803b15801561318a57600080fd5b505af19250505080156131ba575060408051601f3d908101601f191682019092526131b791810190614aae565b60015b613214573d8080156131e8576040519150601f19603f3d011682016040523d82523d6000602084013e6131ed565b606091505b50805161320c5760405162461bcd60e51b815260040161068e90614788565b805181602001fd5b6001600160e01b031916630a85bd0160e11b149050611156565b506001949350505050565b6000816001600160a01b03167f00000000000000000000000000000000000000000000000000000000000000006001600160a01b0316633b87436b6040518163ffffffff1660e01b815260040160206040518083038186803b15801561329e57600080fd5b505afa1580156132b2573d6000803e3d6000fd5b505050506040513d601f19601f820116820180604052508101906132d69190614536565b6001600160a01b0316148061338c5750816001600160a01b03167f00000000000000000000000000000000000000000000000000000000000000006001600160a01b03166377b330c96040518163ffffffff1660e01b815260040160206040518083038186803b15801561334957600080fd5b505afa15801561335d573d6000803e3d6000fd5b505050506040513d601f19601f820116820180604052508101906133819190614536565b6001600160a01b0316145b6133a85760405162461bcd60e51b815260040161068e906148e2565b6000826001600160a01b031663313ce5676040518163ffffffff1660e01b815260040160206040518083038186803b1580156133e357600080fd5b505afa1580156133f7573d6000803e3d6000fd5b505050506040513d601f19601f8201168201806040525081019061341b9190614945565b60ff169050600062030d4085106134e15761343782600a614a46565b6040516330c3d99f60e11b8152600260048201527f00000000000000000000000000000000000000000000000000000000000000006001600160a01b031690636187b33e906024015b60206040518083038186803b15801561349857600080fd5b505afa1580156134ac573d6000803e3d6000fd5b505050506040513d601f19601f820116820180604052508101906134d091906145c7565b6134da9190614a52565b90506135f3565b620186a08510613543576134f682600a614a46565b6040516330c3d99f60e11b8152600160048201527f00000000000000000000000000000000000000000000000000000000000000006001600160a01b031690636187b33e90602401613480565b61354e82600a614a46565b6040516330c3d99f60e11b8152600060048201527f00000000000000000000000000000000000000000000000000000000000000006001600160a01b031690636187b33e9060240160206040518083038186803b1580156135ae57600080fd5b505afa1580156135c2573d6000803e3d6000fd5b505050506040513d601f19601f820116820180604052508101906135e691906145c7565b6135f09190614a52565b90505b620493e085106111565760405162461bcd60e51b815260206004820152601c60248201527f4c594e4b4e46543a20746f6b656e20696420746f6f206c617267652e00000000604482015260640161068e565b600080600061365261309c565b9050808460405160200161368292919091825260601b6bffffffffffffffffffffffff1916602082015260340190565b60408051601f19818403018152919052805160209091012090506136aa600560ff8316614896565b6136b590600161463c565b92506136c9600360ff608084901c16614896565b6136d490600161463c565b915050915091565b600060016136e984610a35565b6136f39190614625565b600083815260986020526040902054909150808214613746576001600160a01b03841660009081526097602090815260408083208584528252808320548484528184208190558352609890915290208190555b5060009182526098602090815260408084208490556001600160a01b039094168352609781528383209183525290812055565b60995460009061378b90600190614625565b6000838152609a6020526040812054609980549394509092849081106137b3576137b3614594565b9060005260206000200154905080609983815481106137d4576137d4614594565b6000918252602080832090910192909255828152609a9091526040808220849055858252812055609980548061380c5761380c614acb565b6001900381819060005260206000200160009055905550505050565b600061383383610a35565b6001600160a01b039093166000908152609760209081526040808320868452825280832085905593825260989052919091209190915550565b804710156138bc5760405162461bcd60e51b815260206004820152601d60248201527f416464726573733a20696e73756666696369656e742062616c616e6365000000604482015260640161068e565b6000826001600160a01b03168260405160006040518083038185875af1925050503d8060008114613909576040519150601f19603f3d011682016040523d82523d6000602084013e61390e565b606091505b505090508061072f5760405162461bcd60e51b815260206004820152603a60248201527f416464726573733a20756e61626c6520746f2073656e642076616c75652c207260448201527f6563697069656e74206d61792068617665207265766572746564000000000000606482015260840161068e565b604080516001600160a01b0385811660248301528416604482015260648082018490528251808303909101815260849091019091526020810180516001600160e01b03166323b872dd60e01b179052610da9908590613a12565b6139e98383613ae4565b6139f6600084848461312c565b61072f5760405162461bcd60e51b815260040161068e90614788565b6000613a67826040518060400160405280602081526020017f5361666545524332303a206c6f772d6c6576656c2063616c6c206661696c6564815250856001600160a01b0316613c329092919063ffffffff16565b80519091501561072f5780806020019051810190613a8591906145aa565b61072f5760405162461bcd60e51b815260206004820152602a60248201527f5361666545524332303a204552433230206f7065726174696f6e20646964206e6044820152691bdd081cdd58d8d9595960b21b606482015260840161068e565b6001600160a01b038216613b3a5760405162461bcd60e51b815260206004820181905260248201527f4552433732313a206d696e7420746f20746865207a65726f2061646472657373604482015260640161068e565b6000818152606760205260409020546001600160a01b031615613b9f5760405162461bcd60e51b815260206004820152601c60248201527f4552433732313a20746f6b656e20616c7265616479206d696e74656400000000604482015260640161068e565b613bab60008383612d1d565b6001600160a01b0382166000908152606860205260408120805460019290613bd490849061463c565b909155505060008181526067602052604080822080546001600160a01b0319166001600160a01b03861690811790915590518392907fddf252ad1be2c89b69c2b068fc378daa952ba7f163c4a11628f55a4df523b3ef908290a45050565b60606111568484600085856001600160a01b0385163b613c945760405162461bcd60e51b815260206004820152601d60248201527f416464726573733a2063616c6c20746f206e6f6e2d636f6e7472616374000000604482015260640161068e565b600080866001600160a01b03168587604051613cb09190614ae1565b60006040518083038185875af1925050503d8060008114613ced576040519150601f19603f3d011682016040523d82523d6000602084013e613cf2565b606091505b5091509150613d02828286613d0d565b979650505050505050565b60608315613d1c575081610e19565b825115613d2c5782518084602001fd5b8160405162461bcd60e51b815260040161068e9190613ea4565b828054828255906000526020600020908101928215613d81579160200282015b82811115613d81578251825591602001919060010190613d66565b50613d8d929150613e04565b5090565b828054613d9d906144ad565b90600052602060002090601f016020900481019282613dbf5760008555613d81565b82601f10613dd857805160ff1916838001178555613d81565b82800160010185558215613d815791820182811115613d81578251825591602001919060010190613d66565b5b80821115613d8d5760008155600101613e05565b6001600160e01b031981168114610c3f57600080fd5b600060208284031215613e4157600080fd5b8135610e1981613e19565b60005b83811015613e67578181015183820152602001613e4f565b83811115610da95750506000910152565b60008151808452613e90816020860160208601613e4c565b601f01601f19169290920160200192915050565b602081526000610e196020830184613e78565b600060208284031215613ec957600080fd5b5035919050565b6001600160a01b0381168114610c3f57600080fd5b60008060408385031215613ef857600080fd5b8235613f0381613ed0565b946020939093013593505050565b634e487b7160e01b600052604160045260246000fd5b604051601f8201601f1916810167ffffffffffffffff81118282101715613f5057613f50613f11565b604052919050565b600067ffffffffffffffff821115613f7257613f72613f11565b50601f01601f191660200190565b6000613f93613f8e84613f58565b613f27565b9050828152838383011115613fa757600080fd5b828260208301376000602084830101529392505050565b600060208284031215613fd057600080fd5b813567ffffffffffffffff811115613fe757600080fd5b8201601f81018413613ff857600080fd5b61115684823560208401613f80565b60008060006060848603121561401c57600080fd5b833561402781613ed0565b9250602084013561403781613ed0565b929592945050506040919091013590565b60008083601f84011261405a57600080fd5b50813567ffffffffffffffff81111561407257600080fd5b60208301915083602082850101111561408a57600080fd5b9250929050565b60ff81168114610c3f57600080fd5b600080600080600080600060c0888a0312156140bb57600080fd5b873567ffffffffffffffff8111156140d257600080fd5b6140de8a828b01614048565b9098509650506020880135945060408801359350606088013561410081614091565b969995985093969295946080840135945060a09093013592915050565b60006020828403121561412f57600080fd5b8135610e1981613ed0565b8015158114610c3f57600080fd5b6000806040838503121561415b57600080fd5b823561416681613ed0565b915060208301356141768161413a565b809150509250929050565b6000806000806080858703121561419757600080fd5b84356141a281613ed0565b935060208501356141b281613ed0565b925060408501359150606085013567ffffffffffffffff8111156141d557600080fd5b8501601f810187136141e657600080fd5b6141f587823560208401613f80565b91505092959194509250565b6000806020838503121561421457600080fd5b823567ffffffffffffffff81111561422b57600080fd5b61423785828601614048565b90969095509350505050565b60008060008060008060008060006101008a8c03121561426257600080fd5b8935985060208a013561427481613ed0565b975060408a013567ffffffffffffffff81111561429057600080fd5b61429c8c828d01614048565b90985096505060608a0135945060808a0135935060a08a01356142be81614091565b8093505060c08a0135915060e08a013590509295985092959850929598565b8035600481106142ec57600080fd5b919050565b60008060008060008060008060006101208a8c03121561431057600080fd5b6143198a6142dd565b985060208a0135975060408a0135965060608a013561433781613ed0565b955060808a0135945060a08a0135935060c08a013561435581614091565b8093505060e08a013591506101008a013590509295985092959850929598565b6000806000806080858703121561438b57600080fd5b614394856142dd565b9350602085013592506040850135915060608501356143b281613ed0565b939692955090935050565b6020808252825182820181905260009190848201906040850190845b818110156143f5578351835292840192918401916001016143d9565b50909695505050505050565b6000806040838503121561441457600080fd5b50508035926020909101359150565b6000806000806060858703121561443957600080fd5b84359350602085013561444b81613ed0565b9250604085013567ffffffffffffffff81111561446757600080fd5b61447387828801614048565b95989497509550505050565b6000806040838503121561449257600080fd5b823561449d81613ed0565b9150602083013561417681613ed0565b600181811c908216806144c157607f821691505b602082108114156144e257634e487b7160e01b600052602260045260246000fd5b50919050565b6020808252602e908201527f4552433732313a2063616c6c6572206973206e6f7420746f6b656e206f776e6560408201526d1c881b9bdc88185c1c1c9bdd995960921b606082015260800190565b60006020828403121561454857600080fd5b8151610e1981613ed0565b6001600160a01b0397881681529590961660208601526040850193909352606084019190915260ff16608083015260a082015260c081019190915260e00190565b634e487b7160e01b600052603260045260246000fd5b6000602082840312156145bc57600080fd5b8151610e198161413a565b6000602082840312156145d957600080fd5b5051919050565b600083516145f2818460208801613e4c565b835190830190614606818360208801613e4c565b01949350505050565b634e487b7160e01b600052601160045260246000fd5b6000828210156146375761463761460f565b500390565b6000821982111561464f5761464f61460f565b500190565b8183823760009101908152919050565b6000806040838503121561467757600080fd5b505080516020909101519092909150565b6000806040838503121561469b57600080fd5b82516146a681613ed0565b6020939093015192949293505050565b6000608082016080835280885480835260a08501915089600052602092508260002060005b828110156146f7578154845292840192600191820191016146db565b5050508381038285015286815286888383013760008782018301526001600160a01b0386166040850152601f19601f880116010190508260608301529695505050505050565b6020808252602b908201527f496e697469616c697a61626c653a20636f6e7472616374206973206e6f74206960408201526a6e697469616c697a696e6760a81b606082015260800190565b60208082526032908201527f4552433732313a207472616e7366657220746f206e6f6e20455243373231526560408201527131b2b4bb32b91034b6b83632b6b2b73a32b960711b606082015260800190565b6000602082840312156147ec57600080fd5b815167ffffffffffffffff81111561480357600080fd5b8201601f8101841361481457600080fd5b8051614822613f8e82613f58565b81815285602083850101111561483757600080fd5b614848826020830160208601613e4c565b95945050505050565b60006000198214156148655761486561460f565b5060010190565b634e487b7160e01b600052601260045260246000fd5b6000826148915761489161486c565b500490565b6000826148a5576148a561486c565b500690565b60006001600160801b038083168185168083038211156146065761460661460f565b634e487b7160e01b600052602160045260246000fd5b6020808252601d908201527f4c594e4b4e46543a20756e737570706f72746564207061796d656e742e000000604082015260600190565b604081016004841061493b57634e487b7160e01b600052602160045260246000fd5b9281526020015290565b60006020828403121561495757600080fd5b8151610e1981614091565b600181815b8085111561499d5781600019048211156149835761498361460f565b8085161561499057918102915b93841c9390800290614967565b509250929050565b6000826149b45750600161055a565b816149c15750600061055a565b81600181146149d757600281146149e1576149fd565b600191505061055a565b60ff8411156149f2576149f261460f565b50506001821b61055a565b5060208310610133831016604e8410600b8410161715614a20575081810a61055a565b614a2a8383614962565b8060001904821115614a3e57614a3e61460f565b029392505050565b6000610e1983836149a5565b6000816000190483118215151615614a6c57614a6c61460f565b500290565b6001600160a01b0385811682528416602082015260408101839052608060608201819052600090614aa490830184613e78565b9695505050505050565b600060208284031215614ac057600080fd5b8151610e1981613e19565b634e487b7160e01b600052603160045260246000fd5b60008251614af3818460208701613e4c565b919091019291505056fea264697066735822122068c53725cb6dd6cfd7fc0aa5d7f109ce70ee77ccb81e2d83b9f4e313c1c8213864736f6c63430008090033",
  "devdoc": {
    "kind": "dev",
    "methods": {
      "approve(address,uint256)": {
        "details": "See {IERC721-approve}."
      },
      "balanceOf(address)": {
        "details": "See {IERC721-balanceOf}."
      },
      "getApproved(uint256)": {
        "details": "See {IERC721-getApproved}."
      },
      "isApprovedForAll(address,address)": {
        "details": "See {IERC721-isApprovedForAll}."
      },
      "name()": {
        "details": "See {IERC721Metadata-name}."
      },
      "ownerOf(uint256)": {
        "details": "See {IERC721-ownerOf}."
      },
      "safeTransferFrom(address,address,uint256)": {
        "details": "See {IERC721-safeTransferFrom}."
      },
      "safeTransferFrom(address,address,uint256,bytes)": {
        "details": "See {IERC721-safeTransferFrom}."
      },
      "setApprovalForAll(address,bool)": {
        "details": "See {IERC721-setApprovalForAll}."
      },
      "supportsInterface(bytes4)": {
        "details": "See {IERC165-supportsInterface}."
      },
      "symbol()": {
        "details": "See {IERC721Metadata-symbol}."
      },
      "tokenByIndex(uint256)": {
        "details": "See {IERC721Enumerable-tokenByIndex}."
      },
      "tokenOfOwnerByIndex(address,uint256)": {
        "details": "See {IERC721Enumerable-tokenOfOwnerByIndex}."
      },
      "tokenURI(uint256)": {
        "details": "See {IERC721Metadata-tokenURI}."
      },
      "totalSupply()": {
        "details": "See {IERC721Enumerable-totalSupply}."
      },
      "transferFrom(address,address,uint256)": {
        "details": "See {IERC721-transferFrom}."
      }
    },
    "version": 1
  },
  "userdoc": {
    "kind": "user",
    "methods": {},
    "version": 1
  },
  "storageLayout": {
    "storage": [
      {
        "astId": 138,
        "contract": "contracts/token/LYNKNFT.sol:LYNKNFT",
        "label": "_initialized",
        "offset": 0,
        "slot": "0",
        "type": "t_uint8"
      },
      {
        "astId": 141,
        "contract": "contracts/token/LYNKNFT.sol:LYNKNFT",
        "label": "_initializing",
        "offset": 1,
        "slot": "0",
        "type": "t_bool"
      },
      {
        "astId": 2428,
        "contract": "contracts/token/LYNKNFT.sol:LYNKNFT",
        "label": "__gap",
        "offset": 0,
        "slot": "1",
        "type": "t_array(t_uint256)50_storage"
      },
      {
        "astId": 2698,
        "contract": "contracts/token/LYNKNFT.sol:LYNKNFT",
        "label": "__gap",
        "offset": 0,
        "slot": "51",
        "type": "t_array(t_uint256)50_storage"
      },
      {
        "astId": 731,
        "contract": "contracts/token/LYNKNFT.sol:LYNKNFT",
        "label": "_name",
        "offset": 0,
        "slot": "101",
        "type": "t_string_storage"
      },
      {
        "astId": 733,
        "contract": "contracts/token/LYNKNFT.sol:LYNKNFT",
        "label": "_symbol",
        "offset": 0,
        "slot": "102",
        "type": "t_string_storage"
      },
      {
        "astId": 737,
        "contract": "contracts/token/LYNKNFT.sol:LYNKNFT",
        "label": "_owners",
        "offset": 0,
        "slot": "103",
        "type": "t_mapping(t_uint256,t_address)"
      },
      {
        "astId": 741,
        "contract": "contracts/token/LYNKNFT.sol:LYNKNFT",
        "label": "_balances",
        "offset": 0,
        "slot": "104",
        "type": "t_mapping(t_address,t_uint256)"
      },
      {
        "astId": 745,
        "contract": "contracts/token/LYNKNFT.sol:LYNKNFT",
        "label": "_tokenApprovals",
        "offset": 0,
        "slot": "105",
        "type": "t_mapping(t_uint256,t_address)"
      },
      {
        "astId": 751,
        "contract": "contracts/token/LYNKNFT.sol:LYNKNFT",
        "label": "_operatorApprovals",
        "offset": 0,
        "slot": "106",
        "type": "t_mapping(t_address,t_mapping(t_address,t_bool))"
      },
      {
        "astId": 1593,
        "contract": "contracts/token/LYNKNFT.sol:LYNKNFT",
        "label": "__gap",
        "offset": 0,
        "slot": "107",
        "type": "t_array(t_uint256)44_storage"
      },
      {
        "astId": 1758,
        "contract": "contracts/token/LYNKNFT.sol:LYNKNFT",
        "label": "_ownedTokens",
        "offset": 0,
        "slot": "151",
        "type": "t_mapping(t_address,t_mapping(t_uint256,t_uint256))"
      },
      {
        "astId": 1762,
        "contract": "contracts/token/LYNKNFT.sol:LYNKNFT",
        "label": "_ownedTokensIndex",
        "offset": 0,
        "slot": "152",
        "type": "t_mapping(t_uint256,t_uint256)"
      },
      {
        "astId": 1765,
        "contract": "contracts/token/LYNKNFT.sol:LYNKNFT",
        "label": "_allTokens",
        "offset": 0,
        "slot": "153",
        "type": "t_array(t_uint256)dyn_storage"
      },
      {
        "astId": 1769,
        "contract": "contracts/token/LYNKNFT.sol:LYNKNFT",
        "label": "_allTokensIndex",
        "offset": 0,
        "slot": "154",
        "type": "t_mapping(t_uint256,t_uint256)"
      },
      {
        "astId": 2085,
        "contract": "contracts/token/LYNKNFT.sol:LYNKNFT",
        "label": "__gap",
        "offset": 0,
        "slot": "155",
        "type": "t_array(t_uint256)46_storage"
      },
      {
        "astId": 4404,
        "contract": "contracts/token/LYNKNFT.sol:LYNKNFT",
        "label": "randomSeed",
        "offset": 0,
        "slot": "201",
        "type": "t_uint256"
      },
      {
        "astId": 4409,
        "contract": "contracts/token/LYNKNFT.sol:LYNKNFT",
        "label": "nftInfo",
        "offset": 0,
        "slot": "202",
        "type": "t_mapping(t_uint256,t_array(t_uint256)dyn_storage)"
      },
      {
        "astId": 4414,
        "contract": "contracts/token/LYNKNFT.sol:LYNKNFT",
        "label": "mintInfoOf",
        "offset": 0,
        "slot": "203",
        "type": "t_mapping(t_address,t_struct(MintInfo)4452_storage)"
      },
      {
        "astId": 4418,
        "contract": "contracts/token/LYNKNFT.sol:LYNKNFT",
        "label": "nameUsed",
        "offset": 0,
        "slot": "204",
        "type": "t_mapping(t_string_memory_ptr,t_bool)"
      },
      {
        "astId": 4423,
        "contract": "contracts/token/LYNKNFT.sol:LYNKNFT",
        "label": "addedVAInfoOf",
        "offset": 0,
        "slot": "205",
        "type": "t_mapping(t_uint256,t_struct(AttributeAddedInfo)4457_storage)"
      },
      {
        "astId": 4425,
        "contract": "contracts/token/LYNKNFT.sol:LYNKNFT",
        "label": "earlyBirdNextId",
        "offset": 0,
        "slot": "206",
        "type": "t_uint256"
      }
    ],
    "types": {
      "t_address": {
        "encoding": "inplace",
        "label": "address",
        "numberOfBytes": "20"
      },
      "t_array(t_uint256)44_storage": {
        "base": "t_uint256",
        "encoding": "inplace",
        "label": "uint256[44]",
        "numberOfBytes": "1408"
      },
      "t_array(t_uint256)46_storage": {
        "base": "t_uint256",
        "encoding": "inplace",
        "label": "uint256[46]",
        "numberOfBytes": "1472"
      },
      "t_array(t_uint256)50_storage": {
        "base": "t_uint256",
        "encoding": "inplace",
        "label": "uint256[50]",
        "numberOfBytes": "1600"
      },
      "t_array(t_uint256)dyn_storage": {
        "base": "t_uint256",
        "encoding": "dynamic_array",
        "label": "uint256[]",
        "numberOfBytes": "32"
      },
      "t_bool": {
        "encoding": "inplace",
        "label": "bool",
        "numberOfBytes": "1"
      },
      "t_mapping(t_address,t_bool)": {
        "encoding": "mapping",
        "key": "t_address",
        "label": "mapping(address => bool)",
        "numberOfBytes": "32",
        "value": "t_bool"
      },
      "t_mapping(t_address,t_mapping(t_address,t_bool))": {
        "encoding": "mapping",
        "key": "t_address",
        "label": "mapping(address => mapping(address => bool))",
        "numberOfBytes": "32",
        "value": "t_mapping(t_address,t_bool)"
      },
      "t_mapping(t_address,t_mapping(t_uint256,t_uint256))": {
        "encoding": "mapping",
        "key": "t_address",
        "label": "mapping(address => mapping(uint256 => uint256))",
        "numberOfBytes": "32",
        "value": "t_mapping(t_uint256,t_uint256)"
      },
      "t_mapping(t_address,t_struct(MintInfo)4452_storage)": {
        "encoding": "mapping",
        "key": "t_address",
        "label": "mapping(address => struct LYNKNFT.MintInfo)",
        "numberOfBytes": "32",
        "value": "t_struct(MintInfo)4452_storage"
      },
      "t_mapping(t_address,t_uint256)": {
        "encoding": "mapping",
        "key": "t_address",
        "label": "mapping(address => uint256)",
        "numberOfBytes": "32",
        "value": "t_uint256"
      },
      "t_mapping(t_string_memory_ptr,t_bool)": {
        "encoding": "mapping",
        "key": "t_string_memory_ptr",
        "label": "mapping(string => bool)",
        "numberOfBytes": "32",
        "value": "t_bool"
      },
      "t_mapping(t_uint256,t_address)": {
        "encoding": "mapping",
        "key": "t_uint256",
        "label": "mapping(uint256 => address)",
        "numberOfBytes": "32",
        "value": "t_address"
      },
      "t_mapping(t_uint256,t_array(t_uint256)dyn_storage)": {
        "encoding": "mapping",
        "key": "t_uint256",
        "label": "mapping(uint256 => uint256[])",
        "numberOfBytes": "32",
        "value": "t_array(t_uint256)dyn_storage"
      },
      "t_mapping(t_uint256,t_struct(AttributeAddedInfo)4457_storage)": {
        "encoding": "mapping",
        "key": "t_uint256",
        "label": "mapping(uint256 => struct LYNKNFT.AttributeAddedInfo)",
        "numberOfBytes": "32",
        "value": "t_struct(AttributeAddedInfo)4457_storage"
      },
      "t_mapping(t_uint256,t_uint256)": {
        "encoding": "mapping",
        "key": "t_uint256",
        "label": "mapping(uint256 => uint256)",
        "numberOfBytes": "32",
        "value": "t_uint256"
      },
      "t_string_memory_ptr": {
        "encoding": "bytes",
        "label": "string",
        "numberOfBytes": "32"
      },
      "t_string_storage": {
        "encoding": "bytes",
        "label": "string",
        "numberOfBytes": "32"
      },
      "t_struct(AttributeAddedInfo)4457_storage": {
        "encoding": "inplace",
        "label": "struct LYNKNFT.AttributeAddedInfo",
        "members": [
          {
            "astId": 4454,
            "contract": "contracts/token/LYNKNFT.sol:LYNKNFT",
            "label": "lastAddedTime",
            "offset": 0,
            "slot": "0",
            "type": "t_uint128"
          },
          {
            "astId": 4456,
            "contract": "contracts/token/LYNKNFT.sol:LYNKNFT",
            "label": "addedInDuration",
            "offset": 16,
            "slot": "0",
            "type": "t_uint128"
          }
        ],
        "numberOfBytes": "32"
      },
      "t_struct(MintInfo)4452_storage": {
        "encoding": "inplace",
        "label": "struct LYNKNFT.MintInfo",
        "members": [
          {
            "astId": 4449,
            "contract": "contracts/token/LYNKNFT.sol:LYNKNFT",
            "label": "lastMintTime",
            "offset": 0,
            "slot": "0",
            "type": "t_uint128"
          },
          {
            "astId": 4451,
            "contract": "contracts/token/LYNKNFT.sol:LYNKNFT",
            "label": "mintNumInDuration",
            "offset": 16,
            "slot": "0",
            "type": "t_uint128"
          }
        ],
        "numberOfBytes": "32"
      },
      "t_uint128": {
        "encoding": "inplace",
        "label": "uint128",
        "numberOfBytes": "16"
      },
      "t_uint256": {
        "encoding": "inplace",
        "label": "uint256",
        "numberOfBytes": "32"
      },
      "t_uint8": {
        "encoding": "inplace",
        "label": "uint8",
        "numberOfBytes": "1"
      }
    }
  }
}