{
  "address": "0xE1D1AAf2249EE066D56eda25A04c47674966F7b3",
  "abi": [
    {
      "inputs": [
        {
          "internalType": "address",
          "name": "dbAddress",
          "type": "address"
        }
      ],
      "stateMutability": "nonpayable",
      "type": "constructor"
    },
    {
      "anonymous": false,
      "inputs": [
        {
          "indexed": true,
          "internalType": "address",
          "name": "owner",
          "type": "address"
        },
        {
          "indexed": true,
          "internalType": "address",
          "name": "approved",
          "type": "address"
        },
        {
          "indexed": true,
          "internalType": "uint256",
          "name": "tokenId",
          "type": "uint256"
        }
      ],
      "name": "Approval",
      "type": "event"
    },
    {
      "anonymous": false,
      "inputs": [
        {
          "indexed": true,
          "internalType": "address",
          "name": "owner",
          "type": "address"
        },
        {
          "indexed": true,
          "internalType": "address",
          "name": "operator",
          "type": "address"
        },
        {
          "indexed": false,
          "internalType": "bool",
          "name": "approved",
          "type": "bool"
        }
      ],
      "name": "ApprovalForAll",
      "type": "event"
    },
    {
      "anonymous": false,
      "inputs": [
        {
          "indexed": false,
          "internalType": "uint8",
          "name": "version",
          "type": "uint8"
        }
      ],
      "name": "Initialized",
      "type": "event"
    },
    {
      "anonymous": false,
      "inputs": [
        {
          "indexed": true,
          "internalType": "uint256",
          "name": "tokenId",
          "type": "uint256"
        },
        {
          "indexed": false,
          "internalType": "uint256[]",
          "name": "nftInfo",
          "type": "uint256[]"
        },
        {
          "indexed": false,
          "internalType": "string",
          "name": "name",
          "type": "string"
        },
        {
          "indexed": false,
          "internalType": "address",
          "name": "payment",
          "type": "address"
        },
        {
          "indexed": false,
          "internalType": "uint256",
          "name": "amount",
          "type": "uint256"
        }
      ],
      "name": "Mint",
      "type": "event"
    },
    {
      "anonymous": false,
      "inputs": [
        {
          "indexed": true,
          "internalType": "address",
          "name": "from",
          "type": "address"
        },
        {
          "indexed": true,
          "internalType": "address",
          "name": "to",
          "type": "address"
        },
        {
          "indexed": true,
          "internalType": "uint256",
          "name": "tokenId",
          "type": "uint256"
        }
      ],
      "name": "Transfer",
      "type": "event"
    },
    {
      "anonymous": false,
      "inputs": [
        {
          "indexed": true,
          "internalType": "uint256",
          "name": "tokenId",
          "type": "uint256"
        },
        {
          "indexed": false,
          "internalType": "enum ILYNKNFT.Attribute",
          "name": "attr",
          "type": "uint8"
        },
        {
          "indexed": false,
          "internalType": "uint256",
          "name": "point",
          "type": "uint256"
        }
      ],
      "name": "Upgrade",
      "type": "event"
    },
    {
      "inputs": [],
      "name": "BLACK_HOLE",
      "outputs": [
        {
          "internalType": "address",
          "name": "",
          "type": "address"
        }
      ],
      "stateMutability": "view",
      "type": "function"
    },
    {
      "inputs": [],
      "name": "DB_CONTRACT",
      "outputs": [
        {
          "internalType": "address",
          "name": "",
          "type": "address"
        }
      ],
      "stateMutability": "view",
      "type": "function"
    },
    {
      "inputs": [],
      "name": "__LYNKNFT_init",
      "outputs": [],
      "stateMutability": "nonpayable",
      "type": "function"
    },
    {
      "inputs": [
        {
          "internalType": "uint256",
          "name": "",
          "type": "uint256"
        }
      ],
      "name": "addedVAInfoOf",
      "outputs": [
        {
          "internalType": "uint128",
          "name": "lastAddedTime",
          "type": "uint128"
        },
        {
          "internalType": "uint128",
          "name": "addedInDuration",
          "type": "uint128"
        }
      ],
      "stateMutability": "view",
      "type": "function"
    },
    {
      "inputs": [
        {
          "internalType": "address",
          "name": "to",
          "type": "address"
        },
        {
          "internalType": "uint256",
          "name": "tokenId",
          "type": "uint256"
        }
      ],
      "name": "approve",
      "outputs": [],
      "stateMutability": "nonpayable",
      "type": "function"
    },
    {
      "inputs": [
        {
          "internalType": "address",
          "name": "owner",
          "type": "address"
        }
      ],
      "name": "balanceOf",
      "outputs": [
        {
          "internalType": "uint256",
          "name": "",
          "type": "uint256"
        }
      ],
      "stateMutability": "view",
      "type": "function"
    },
    {
      "inputs": [],
      "name": "earlyBirdCounter",
      "outputs": [
        {
          "internalType": "uint256",
          "name": "",
          "type": "uint256"
        }
      ],
      "stateMutability": "view",
      "type": "function"
    },
    {
      "inputs": [
        {
          "internalType": "string",
          "name": "_name",
          "type": "string"
        }
      ],
      "name": "earlyBirdMint",
      "outputs": [],
      "stateMutability": "nonpayable",
      "type": "function"
    },
    {
      "inputs": [
        {
          "internalType": "string",
          "name": "_name",
          "type": "string"
        },
        {
          "internalType": "uint256",
          "name": "_amount",
          "type": "uint256"
        },
        {
          "internalType": "uint256",
          "name": "deadline",
          "type": "uint256"
        },
        {
          "internalType": "uint8",
          "name": "v",
          "type": "uint8"
        },
        {
          "internalType": "bytes32",
          "name": "r",
          "type": "bytes32"
        },
        {
          "internalType": "bytes32",
          "name": "s",
          "type": "bytes32"
        }
      ],
      "name": "earlyBirdMintWIthPermit",
      "outputs": [],
      "stateMutability": "nonpayable",
      "type": "function"
    },
    {
      "inputs": [],
      "name": "earlyBirdWlCounter",
      "outputs": [
        {
          "internalType": "uint256",
          "name": "",
          "type": "uint256"
        }
      ],
      "stateMutability": "view",
      "type": "function"
    },
    {
      "inputs": [],
      "name": "earlyMintInfo",
      "outputs": [
        {
          "internalType": "uint256",
          "name": "_totalNum",
          "type": "uint256"
        },
        {
          "internalType": "uint256",
          "name": "_remainNum",
          "type": "uint256"
        },
        {
          "internalType": "uint256",
          "name": "_nextId",
          "type": "uint256"
        }
      ],
      "stateMutability": "view",
      "type": "function"
    },
    {
      "inputs": [
        {
          "internalType": "uint256",
          "name": "tokenId",
          "type": "uint256"
        }
      ],
      "name": "exists",
      "outputs": [
        {
          "internalType": "bool",
          "name": "",
          "type": "bool"
        }
      ],
      "stateMutability": "view",
      "type": "function"
    },
    {
      "inputs": [
        {
          "internalType": "uint256",
          "name": "tokenId",
          "type": "uint256"
        }
      ],
      "name": "getApproved",
      "outputs": [
        {
          "internalType": "address",
          "name": "",
          "type": "address"
        }
      ],
      "stateMutability": "view",
      "type": "function"
    },
    {
      "inputs": [
        {
          "internalType": "address",
          "name": "owner",
          "type": "address"
        },
        {
          "internalType": "address",
          "name": "operator",
          "type": "address"
        }
      ],
      "name": "isApprovedForAll",
      "outputs": [
        {
          "internalType": "bool",
          "name": "",
          "type": "bool"
        }
      ],
      "stateMutability": "view",
      "type": "function"
    },
    {
      "inputs": [
        {
          "internalType": "uint256",
          "name": "_tokenId",
          "type": "uint256"
        },
        {
          "internalType": "address",
          "name": "_payment",
          "type": "address"
        },
        {
          "internalType": "string",
          "name": "_name",
          "type": "string"
        }
      ],
      "name": "mint",
      "outputs": [],
      "stateMutability": "nonpayable",
      "type": "function"
    },
    {
      "inputs": [
        {
          "internalType": "address",
          "name": "",
          "type": "address"
        }
      ],
      "name": "mintInfoOf",
      "outputs": [
        {
          "internalType": "uint128",
          "name": "lastMintTime",
          "type": "uint128"
        },
        {
          "internalType": "uint128",
          "name": "mintNumInDuration",
          "type": "uint128"
        }
      ],
      "stateMutability": "view",
      "type": "function"
    },
    {
      "inputs": [
        {
          "internalType": "uint256",
          "name": "_tokenId",
          "type": "uint256"
        },
        {
          "internalType": "address",
          "name": "_payment",
          "type": "address"
        },
        {
          "internalType": "string",
          "name": "_name",
          "type": "string"
        },
        {
          "internalType": "uint256",
          "name": "_amount",
          "type": "uint256"
        },
        {
          "internalType": "uint256",
          "name": "deadline",
          "type": "uint256"
        },
        {
          "internalType": "uint8",
          "name": "v",
          "type": "uint8"
        },
        {
          "internalType": "bytes32",
          "name": "r",
          "type": "bytes32"
        },
        {
          "internalType": "bytes32",
          "name": "s",
          "type": "bytes32"
        }
      ],
      "name": "mintWithPermit",
      "outputs": [],
      "stateMutability": "nonpayable",
      "type": "function"
    },
    {
      "inputs": [],
      "name": "name",
      "outputs": [
        {
          "internalType": "string",
          "name": "",
          "type": "string"
        }
      ],
      "stateMutability": "view",
      "type": "function"
    },
    {
      "inputs": [
        {
          "internalType": "string",
          "name": "",
          "type": "string"
        }
      ],
      "name": "nameUsed",
      "outputs": [
        {
          "internalType": "bool",
          "name": "",
          "type": "bool"
        }
      ],
      "stateMutability": "view",
      "type": "function"
    },
    {
      "inputs": [
        {
          "internalType": "uint256",
          "name": "",
          "type": "uint256"
        },
        {
          "internalType": "uint256",
          "name": "",
          "type": "uint256"
        }
      ],
      "name": "nftInfo",
      "outputs": [
        {
          "internalType": "uint256",
          "name": "",
          "type": "uint256"
        }
      ],
      "stateMutability": "view",
      "type": "function"
    },
    {
      "inputs": [
        {
          "internalType": "uint256",
          "name": "_tokenId",
          "type": "uint256"
        }
      ],
      "name": "nftInfoOf",
      "outputs": [
        {
          "internalType": "uint256[]",
          "name": "_nftInfo",
          "type": "uint256[]"
        }
      ],
      "stateMutability": "view",
      "type": "function"
    },
    {
      "inputs": [
        {
          "internalType": "uint256",
          "name": "tokenId",
          "type": "uint256"
        }
      ],
      "name": "ownerOf",
      "outputs": [
        {
          "internalType": "address",
          "name": "",
          "type": "address"
        }
      ],
      "stateMutability": "view",
      "type": "function"
    },
    {
      "inputs": [
        {
          "internalType": "address",
          "name": "_refAddress",
          "type": "address"
        },
        {
          "internalType": "string",
          "name": "_name",
          "type": "string"
        }
      ],
      "name": "refEarlyBirdMint",
      "outputs": [],
      "stateMutability": "nonpayable",
      "type": "function"
    },
    {
      "inputs": [
        {
          "internalType": "address",
          "name": "_refAddress",
          "type": "address"
        },
        {
          "internalType": "string",
          "name": "_name",
          "type": "string"
        },
        {
          "internalType": "uint256",
          "name": "_amount",
          "type": "uint256"
        },
        {
          "internalType": "uint256",
          "name": "deadline",
          "type": "uint256"
        },
        {
          "internalType": "uint8",
          "name": "v",
          "type": "uint8"
        },
        {
          "internalType": "bytes32",
          "name": "r",
          "type": "bytes32"
        },
        {
          "internalType": "bytes32",
          "name": "s",
          "type": "bytes32"
        }
      ],
      "name": "refEarlyBirdMintWIthPermit",
      "outputs": [],
      "stateMutability": "nonpayable",
      "type": "function"
    },
    {
      "inputs": [
        {
          "internalType": "address",
          "name": "from",
          "type": "address"
        },
        {
          "internalType": "address",
          "name": "to",
          "type": "address"
        },
        {
          "internalType": "uint256",
          "name": "tokenId",
          "type": "uint256"
        }
      ],
      "name": "safeTransferFrom",
      "outputs": [],
      "stateMutability": "nonpayable",
      "type": "function"
    },
    {
      "inputs": [
        {
          "internalType": "address",
          "name": "from",
          "type": "address"
        },
        {
          "internalType": "address",
          "name": "to",
          "type": "address"
        },
        {
          "internalType": "uint256",
          "name": "tokenId",
          "type": "uint256"
        },
        {
          "internalType": "bytes",
          "name": "data",
          "type": "bytes"
        }
      ],
      "name": "safeTransferFrom",
      "outputs": [],
      "stateMutability": "nonpayable",
      "type": "function"
    },
    {
      "inputs": [
        {
          "internalType": "address",
          "name": "operator",
          "type": "address"
        },
        {
          "internalType": "bool",
          "name": "approved",
          "type": "bool"
        }
      ],
      "name": "setApprovalForAll",
      "outputs": [],
      "stateMutability": "nonpayable",
      "type": "function"
    },
    {
      "inputs": [
        {
          "internalType": "bytes4",
          "name": "interfaceId",
          "type": "bytes4"
        }
      ],
      "name": "supportsInterface",
      "outputs": [
        {
          "internalType": "bool",
          "name": "",
          "type": "bool"
        }
      ],
      "stateMutability": "view",
      "type": "function"
    },
    {
      "inputs": [],
      "name": "symbol",
      "outputs": [
        {
          "internalType": "string",
          "name": "",
          "type": "string"
        }
      ],
      "stateMutability": "view",
      "type": "function"
    },
    {
      "inputs": [
        {
          "internalType": "uint256",
          "name": "index",
          "type": "uint256"
        }
      ],
      "name": "tokenByIndex",
      "outputs": [
        {
          "internalType": "uint256",
          "name": "",
          "type": "uint256"
        }
      ],
      "stateMutability": "view",
      "type": "function"
    },
    {
      "inputs": [
        {
          "internalType": "address",
          "name": "owner",
          "type": "address"
        },
        {
          "internalType": "uint256",
          "name": "index",
          "type": "uint256"
        }
      ],
      "name": "tokenOfOwnerByIndex",
      "outputs": [
        {
          "internalType": "uint256",
          "name": "",
          "type": "uint256"
        }
      ],
      "stateMutability": "view",
      "type": "function"
    },
    {
      "inputs": [
        {
          "internalType": "uint256",
          "name": "tokenId",
          "type": "uint256"
        }
      ],
      "name": "tokenURI",
      "outputs": [
        {
          "internalType": "string",
          "name": "",
          "type": "string"
        }
      ],
      "stateMutability": "view",
      "type": "function"
    },
    {
      "inputs": [],
      "name": "totalSupply",
      "outputs": [
        {
          "internalType": "uint256",
          "name": "",
          "type": "uint256"
        }
      ],
      "stateMutability": "view",
      "type": "function"
    },
    {
      "inputs": [
        {
          "internalType": "address",
          "name": "from",
          "type": "address"
        },
        {
          "internalType": "address",
          "name": "to",
          "type": "address"
        },
        {
          "internalType": "uint256",
          "name": "tokenId",
          "type": "uint256"
        }
      ],
      "name": "transferFrom",
      "outputs": [],
      "stateMutability": "nonpayable",
      "type": "function"
    },
    {
      "inputs": [
        {
          "internalType": "enum ILYNKNFT.Attribute",
          "name": "_attr",
          "type": "uint8"
        },
        {
          "internalType": "uint256",
          "name": "_tokenId",
          "type": "uint256"
        },
        {
          "internalType": "uint256",
          "name": "_point",
          "type": "uint256"
        },
        {
          "internalType": "address",
          "name": "_payment",
          "type": "address"
        }
      ],
      "name": "upgrade",
      "outputs": [],
      "stateMutability": "nonpayable",
      "type": "function"
    },
    {
      "inputs": [
        {
          "internalType": "enum ILYNKNFT.Attribute",
          "name": "_attr",
          "type": "uint8"
        },
        {
          "internalType": "uint256",
          "name": "_tokenId",
          "type": "uint256"
        },
        {
          "internalType": "uint256",
          "name": "_point",
          "type": "uint256"
        },
        {
          "internalType": "address",
          "name": "_payment",
          "type": "address"
        },
        {
          "internalType": "uint256",
          "name": "_amount",
          "type": "uint256"
        },
        {
          "internalType": "uint256",
          "name": "deadline",
          "type": "uint256"
        },
        {
          "internalType": "uint8",
          "name": "v",
          "type": "uint8"
        },
        {
          "internalType": "bytes32",
          "name": "r",
          "type": "bytes32"
        },
        {
          "internalType": "bytes32",
          "name": "s",
          "type": "bytes32"
        }
      ],
      "name": "upgradeWithPermit",
      "outputs": [],
      "stateMutability": "nonpayable",
      "type": "function"
    }
  ],
  "transactionHash": "0x6ba88a105a01a93b8feebb2af60a4364a94dab16c92714aed7148539322b5014",
  "args": [
    "0x4023A2776c1CE7d174Ee3BDfa639C74faD47393F"
  ],
  "numDeployments": 10,
  "solcInputHash": "15ae9f560d62c3f1fc9d3a2094d55e55",
  "bytecode": "0x60a06040523480156200001157600080fd5b506040516200560d3803806200560d833981016040819052620000349162000046565b6001600160a01b031660805262000078565b6000602082840312156200005957600080fd5b81516001600160a01b03811681146200007157600080fd5b9392505050565b60805161546f6200019e60003960008181610432015281816107d20152818161095801528181610a1301528181610aed01528181610c0001528181610d5b01528181610f0901528181610fcb015281816112a10152818161135c0152818161144e01528181611a3201528181611b0d01528181611d9301528181611e3d01528181611f3c01528181611fec0152818161228201528181612419015281816124f2015281816127590152818161282001528181612a2401528181612c0101528181612cac01528181612dda01528181612eb20152818161300f015281816130ed0152818161323f0152818161342701528181613754015281816137f801528181613a7501528181613b2001528181613c7b01528181613d3a0152613d92015261546f6000f3fe608060405234801561001057600080fd5b506004361061021c5760003560e01c806370a0823111610125578063b990e358116100ad578063d49cf8e31161007c578063d49cf8e31461050b578063dcefcebc1461051e578063dfa2eec01461053e578063e67e402c14610551578063e985e9c51461056457600080fd5b8063b990e358146104bf578063c87b56dd146104d2578063cabaa177146104e5578063cb97200e146104f857600080fd5b8063a22cb465116100f4578063a22cb46514610454578063a70687ae14610467578063b6fc133a14610470578063b77c0555146104a4578063b88d4fde146104ac57600080fd5b806370a08231146103ff57806393dcda301461041257806395d89b41146104255780639ccea0cd1461042d57600080fd5b80633f8336e3116101a85780634f6ccce7116101775780634f6ccce7146103a457806355eda4e8146103b757806357e1f309146103c05780636352211e146103e35780636bc3d0a0146103f657600080fd5b80633f8336e31461031757806342842e0e1461036b578063435a2bdc1461037e5780634f558e791461039157600080fd5b80630b9b6e8b116101ef5780630b9b6e8b1461029e57806318160ddd146102cc57806323b872dd146102de57806329a38c33146102f15780632f745c591461030457600080fd5b806301ffc9a71461022157806306fdde0314610249578063081812fc1461025e578063095ea7b314610289575b600080fd5b61023461022f36600461465d565b6105a0565b60405190151581526020015b60405180910390f35b6102516105cb565b60405161024091906146d2565b61027161026c3660046146e5565b61065d565b6040516001600160a01b039091168152602001610240565b61029c610297366004614713565b610684565b005b6102346102ac3660046147ea565b805160208183018101805160cc8252928201919093012091525460ff1681565b6099545b604051908152602001610240565b61029c6102ec366004614832565b61079f565b61029c6102ff3660046148bb565b6107d0565b6102d0610312366004614713565b61089d565b61034b6103253660046146e5565b60cd602052600090815260409020546001600160801b0380821691600160801b90041682565b604080516001600160801b03938416815292909116602083015201610240565b61029c610379366004614832565b610933565b61029c61038c36600461491e565b61094e565b61023461039f3660046146e5565b610c9f565b6102d06103b23660046146e5565b610cbe565b61027161dead81565b6103c8610d51565b60408051938452602084019290925290820152606001610240565b6102716103f13660046146e5565b610e21565b6102d060ce5481565b6102d061040d36600461499a565b610e81565b61029c6104203660046149b7565b610f07565b6102516110d8565b6102717f000000000000000000000000000000000000000000000000000000000000000081565b61029c610462366004614a52565b6110e7565b6102d060cf5481565b61034b61047e36600461499a565b60cb602052600090815260409020546001600160801b0380821691600160801b90041682565b61029c6110f6565b61029c6104ba366004614a8b565b61125f565b61029c6104cd366004614b0a565b611297565b6102516104e03660046146e5565b6114e4565b61029c6104f3366004614b4b565b61154b565b61029c610506366004614bf8565b6115cc565b61029c610519366004614c7c565b611642565b61053161052c3660046146e5565b61164e565b6040516102409190614cc4565b6102d061054c366004614d08565b6116b0565b61029c61055f366004614d2a565b6116e1565b610234610572366004614d85565b6001600160a01b039182166000908152606a6020908152604080832093909416825291909152205460ff1690565b60006001600160e01b0319821663780e9d6360e01b14806105c557506105c5826116ed565b92915050565b6060606580546105da90614db3565b80601f016020809104026020016040519081016040528092919081815260200182805461060690614db3565b80156106535780601f1061062857610100808354040283529160200191610653565b820191906000526020600020905b81548152906001019060200180831161063657829003601f168201915b5050505050905090565b60006106688261173d565b506000908152606960205260409020546001600160a01b031690565b600061068f82610e21565b9050806001600160a01b0316836001600160a01b031614156107025760405162461bcd60e51b815260206004820152602160248201527f4552433732313a20617070726f76616c20746f2063757272656e74206f776e656044820152603960f91b60648201526084015b60405180910390fd5b336001600160a01b038216148061071e575061071e8133610572565b6107905760405162461bcd60e51b815260206004820152603e60248201527f4552433732313a20617070726f76652063616c6c6572206973206e6f7420746f60448201527f6b656e206f776e6572206e6f7220617070726f76656420666f7220616c6c000060648201526084016106f9565b61079a838361179c565b505050565b6107a9338261180a565b6107c55760405162461bcd60e51b81526004016106f990614dee565b61079a838383611889565b7f00000000000000000000000000000000000000000000000000000000000000006001600160a01b031663aaa2b8c86040518163ffffffff1660e01b815260040160206040518083038186803b15801561082957600080fd5b505afa15801561083d573d6000803e3d6000fd5b505050506040513d601f19601f820116820180604052508101906108619190614e3c565b6001600160a01b0316836001600160a01b031614156108925760405162461bcd60e51b81526004016106f990614e59565b61079a838383611a30565b60006108a883610e81565b821061090a5760405162461bcd60e51b815260206004820152602b60248201527f455243373231456e756d657261626c653a206f776e657220696e646578206f7560448201526a74206f6620626f756e647360a81b60648201526084016106f9565b506001600160a01b03919091166000908152609760209081526040808320938352929052205490565b61079a8383836040518060200160405280600081525061125f565b6001600160a01b037f0000000000000000000000000000000000000000000000000000000000000000166354c1498d336040516001600160e01b031960e084901b1681526001600160a01b03909116600482015260240160206040518083038186803b1580156109bd57600080fd5b505afa1580156109d1573d6000803e3d6000fd5b505050506040513d601f19601f820116820180604052508101906109f59190614e90565b610a115760405162461bcd60e51b81526004016106f990614e59565b7f00000000000000000000000000000000000000000000000000000000000000006001600160a01b031663ab2c86536040518163ffffffff1660e01b815260040160206040518083038186803b158015610a6a57600080fd5b505afa158015610a7e573d6000803e3d6000fd5b505050506040513d601f19601f82011682018060405250810190610aa29190614ead565b60cf5410610aeb5760405162461bcd60e51b8152602060048201526016602482015275262ca725a7232a1d103bb610373ab6903634b6b4ba1760511b60448201526064016106f9565b7f00000000000000000000000000000000000000000000000000000000000000006001600160a01b031663dfada9886040518163ffffffff1660e01b815260040160206040518083038186803b158015610b4457600080fd5b505afa158015610b58573d6000803e3d6000fd5b505050506040513d601f19601f82011682018060405250810190610b7c9190614e3c565b6001600160a01b031663d505accf333088888888886040518863ffffffff1660e01b8152600401610bb39796959493929190614ec6565b600060405180830381600087803b158015610bcd57600080fd5b505af1158015610be1573d6000803e3d6000fd5b505060cf8054925090506000610bf683614f1d565b9190505550610c967f00000000000000000000000000000000000000000000000000000000000000006001600160a01b031663aaa2b8c86040518163ffffffff1660e01b815260040160206040518083038186803b158015610c5757600080fd5b505afa158015610c6b573d6000803e3d6000fd5b505050506040513d601f19601f82011682018060405250810190610c8f9190614e3c565b8888611a30565b50505050505050565b6000818152606760205260408120546001600160a01b031615156105c5565b6000610cc960995490565b8210610d2c5760405162461bcd60e51b815260206004820152602c60248201527f455243373231456e756d657261626c653a20676c6f62616c20696e646578206f60448201526b7574206f6620626f756e647360a01b60648201526084016106f9565b60998281548110610d3f57610d3f614f38565b90600052602060002001549050919050565b60008060008060007f00000000000000000000000000000000000000000000000000000000000000006001600160a01b031663be1888116040518163ffffffff1660e01b8152600401604080518083038186803b158015610db157600080fd5b505afa158015610dc5573d6000803e3d6000fd5b505050506040513d601f19601f82011682018060405250810190610de99190614f4e565b9092509050610df88282614f72565b945060ce5485610e089190614f72565b935060ce5482610e189190614f89565b92505050909192565b6000818152606760205260408120546001600160a01b0316806105c55760405162461bcd60e51b8152602060048201526018602482015277115490cdcc8c4e881a5b9d985b1a59081d1bdad95b88125160421b60448201526064016106f9565b60006001600160a01b038216610eeb5760405162461bcd60e51b815260206004820152602960248201527f4552433732313a2061646472657373207a65726f206973206e6f7420612076616044820152683634b21037bbb732b960b91b60648201526084016106f9565b506001600160a01b031660009081526068602052604090205490565b7f00000000000000000000000000000000000000000000000000000000000000006001600160a01b031663aaa2b8c86040518163ffffffff1660e01b815260040160206040518083038186803b158015610f6057600080fd5b505afa158015610f74573d6000803e3d6000fd5b505050506040513d601f19601f82011682018060405250810190610f989190614e3c565b6001600160a01b0316886001600160a01b03161415610fc95760405162461bcd60e51b81526004016106f990614e59565b7f00000000000000000000000000000000000000000000000000000000000000006001600160a01b031663dfada9886040518163ffffffff1660e01b815260040160206040518083038186803b15801561102257600080fd5b505afa158015611036573d6000803e3d6000fd5b505050506040513d601f19601f8201168201806040525081019061105a9190614e3c565b6001600160a01b031663d505accf333088888888886040518863ffffffff1660e01b81526004016110919796959493929190614ec6565b600060405180830381600087803b1580156110ab57600080fd5b505af11580156110bf573d6000803e3d6000fd5b505050506110ce888888611a30565b5050505050505050565b6060606680546105da90614db3565b6110f2338383612112565b5050565b600054610100900460ff16158080156111165750600054600160ff909116105b806111305750303b158015611130575060005460ff166001145b6111935760405162461bcd60e51b815260206004820152602e60248201527f496e697469616c697a61626c653a20636f6e747261637420697320616c72656160448201526d191e481a5b9a5d1a585b1a5e995960921b60648201526084016106f9565b6000805460ff1916600117905580156111b6576000805461ff0019166101001790555b6111be6121e1565b6111c66121e9565b61120e6040518060400160405280600781526020016613165392d3919560ca1b8152506040518060400160405280600781526020016613165392d3919560ca1b815250612212565b611216612243565b801561125c576000805461ff0019169055604051600181527f7f26b83ff96e1f2b6a682f133852f6798a09c465da95921460cefb38474024989060200160405180910390a15b50565b611269338361180a565b6112855760405162461bcd60e51b81526004016106f990614dee565b6112918484848461224b565b50505050565b6001600160a01b037f0000000000000000000000000000000000000000000000000000000000000000166354c1498d336040516001600160e01b031960e084901b1681526001600160a01b03909116600482015260240160206040518083038186803b15801561130657600080fd5b505afa15801561131a573d6000803e3d6000fd5b505050506040513d601f19601f8201168201806040525081019061133e9190614e90565b61135a5760405162461bcd60e51b81526004016106f990614e59565b7f00000000000000000000000000000000000000000000000000000000000000006001600160a01b031663ab2c86536040518163ffffffff1660e01b815260040160206040518083038186803b1580156113b357600080fd5b505afa1580156113c7573d6000803e3d6000fd5b505050506040513d601f19601f820116820180604052508101906113eb9190614ead565b60cf54106114345760405162461bcd60e51b8152602060048201526016602482015275262ca725a7232a1d103bb610373ab6903634b6b4ba1760511b60448201526064016106f9565b60cf805490600061144483614f1d565b91905055506110f27f00000000000000000000000000000000000000000000000000000000000000006001600160a01b031663aaa2b8c86040518163ffffffff1660e01b815260040160206040518083038186803b1580156114a557600080fd5b505afa1580156114b9573d6000803e3d6000fd5b505050506040513d601f19601f820116820180604052508101906114dd9190614e3c565b8383611a30565b60606114ef8261173d565b60006114f961227e565b905060008151116115195760405180602001604052806000815250611544565b806115238461231a565b604051602001611534929190614fa1565b6040516020818303038152906040525b9392505050565b60405163d505accf60e01b81526001600160a01b0389169063d505accf9061158390339030908a908a908a908a908a90600401614ec6565b600060405180830381600087803b15801561159d57600080fd5b505af11580156115b1573d6000803e3d6000fd5b505050506115c189898989612417565b505050505050505050565b60405163d505accf60e01b81526001600160a01b0387169063d505accf9061160490339030908a908a908a908a908a90600401614ec6565b600060405180830381600087803b15801561161e57600080fd5b505af1158015611632573d6000803e3d6000fd5b505050506115c189898989612a22565b61129184848484612a22565b600081815260ca60209081526040918290208054835181840281018401909452808452606093928301828280156116a457602002820191906000526020600020905b815481526020019060010190808311611690575b50505050509050919050565b60ca60205281600052604060002081815481106116cc57600080fd5b90600052602060002001600091509150505481565b61129184848484612417565b60006001600160e01b031982166380ac58cd60e01b148061171e57506001600160e01b03198216635b5e139f60e01b145b806105c557506301ffc9a760e01b6001600160e01b03198316146105c5565b6000818152606760205260409020546001600160a01b031661125c5760405162461bcd60e51b8152602060048201526018602482015277115490cdcc8c4e881a5b9d985b1a59081d1bdad95b88125160421b60448201526064016106f9565b600081815260696020526040902080546001600160a01b0319166001600160a01b03841690811790915581906117d182610e21565b6001600160a01b03167f8c5be1e5ebec7d5bd14f71427d1e84f3dd0314c0f7b2291e5b200ac8c7c3b92560405160405180910390a45050565b60008061181683610e21565b9050806001600160a01b0316846001600160a01b0316148061185d57506001600160a01b038082166000908152606a602090815260408083209388168352929052205460ff165b806118815750836001600160a01b03166118768461065d565b6001600160a01b0316145b949350505050565b826001600160a01b031661189c82610e21565b6001600160a01b0316146119005760405162461bcd60e51b815260206004820152602560248201527f4552433732313a207472616e736665722066726f6d20696e636f72726563742060448201526437bbb732b960d91b60648201526084016106f9565b6001600160a01b0382166119625760405162461bcd60e51b8152602060048201526024808201527f4552433732313a207472616e7366657220746f20746865207a65726f206164646044820152637265737360e01b60648201526084016106f9565b61196d83838361354b565b61197860008261179c565b6001600160a01b03831660009081526068602052604081208054600192906119a1908490614f72565b90915550506001600160a01b03821660009081526068602052604081208054600192906119cf908490614f89565b909155505060008181526067602052604080822080546001600160a01b0319166001600160a01b0386811691821790925591518493918716917fddf252ad1be2c89b69c2b068fc378daa952ba7f163c4a11628f55a4df523b3ef91a4505050565b7f00000000000000000000000000000000000000000000000000000000000000006001600160a01b031663ea0d14656040518163ffffffff1660e01b815260040160206040518083038186803b158015611a8957600080fd5b505afa158015611a9d573d6000803e3d6000fd5b505050506040513d601f19601f82011682018060405250810190611ac19190614e90565b611b095760405162461bcd60e51b8152602060048201526019602482015278262ca725a7232a1d1031b0b73737ba1036b4b73a103cb2ba1760391b60448201526064016106f9565b60007f00000000000000000000000000000000000000000000000000000000000000006001600160a01b031663fa1785fe6040518163ffffffff1660e01b815260040160206040518083038186803b158015611b6457600080fd5b505afa158015611b78573d6000803e3d6000fd5b505050506040513d601f19601f82011682018060405250810190611b9c9190614e3c565b90506001600160a01b03811663f3c95c60336040516001600160e01b031960e084901b1681526001600160a01b03909116600482015260240160206040518083038186803b158015611bed57600080fd5b505afa158015611c01573d6000803e3d6000fd5b505050506040513d601f19601f82011682018060405250810190611c259190614e90565b15611c725760405162461bcd60e51b815260206004820152601860248201527f4c594e4b4e46543a20616c7265616479206d696e7465642e000000000000000060448201526064016106f9565b6001600160a01b0381166323b3f2a5336040516001600160e01b031960e084901b1681526001600160a01b0391821660048201529087166024820152604401600060405180830381600087803b158015611ccb57600080fd5b505af1158015611cdf573d6000803e3d6000fd5b5050505060cc8383604051611cf5929190614fd0565b9081526040519081900360200190205460ff1615611d555760405162461bcd60e51b815260206004820152601e60248201527f4c594e4b4e46543a206e616d6520616c726561647920696e20757365642e000060448201526064016106f9565b600160cc8484604051611d69929190614fd0565b908152602001604051809103902060006101000a81548160ff0219169083151502179055506000807f00000000000000000000000000000000000000000000000000000000000000006001600160a01b031663be1888116040518163ffffffff1660e01b8152600401604080518083038186803b158015611de957600080fd5b505afa158015611dfd573d6000803e3d6000fd5b505050506040513d601f19601f82011682018060405250810190611e219190614f4e565b91509150600060ce5483611e359190614f89565b90508160cf547f00000000000000000000000000000000000000000000000000000000000000006001600160a01b031663ab2c86536040518163ffffffff1660e01b815260040160206040518083038186803b158015611e9457600080fd5b505afa158015611ea8573d6000803e3d6000fd5b505050506040513d601f19601f82011682018060405250810190611ecc9190614ead565b611ed69190614f72565b611ee09083614f89565b10611f225760405162461bcd60e51b8152602060048201526012602482015271262ca725a7232a1d1039b7b6321037baba1760711b60448201526064016106f9565b60ce8054906000611f3283614f1d565b91905055506000807f00000000000000000000000000000000000000000000000000000000000000006001600160a01b0316637af0cac36040518163ffffffff1660e01b8152600401604080518083038186803b158015611f9257600080fd5b505afa158015611fa6573d6000803e3d6000fd5b505050506040513d601f19601f82011682018060405250810190611fca9190614fe0565b91509150611fdf82611fd93390565b83613603565b60405180608001604052807f00000000000000000000000000000000000000000000000000000000000000006001600160a01b03166364db03b86040518163ffffffff1660e01b815260040160206040518083038186803b15801561204357600080fd5b505afa158015612057573d6000803e3d6000fd5b505050506040513d601f19601f8201168201806040525081019061207b9190614ead565b8152600060208083018290526040808401839052606090930182905286825260ca9052206120aa916004614574565b506120b533846138b0565b827f43332af98367d01c3bc9be42717917c42e1bd0084f4cdad927e9b4c06471d35160ca60008681526020019081526020016000208a8a86866040516120ff95949392919061500e565b60405180910390a2505050505050505050565b816001600160a01b0316836001600160a01b031614156121745760405162461bcd60e51b815260206004820152601960248201527f4552433732313a20617070726f766520746f2063616c6c65720000000000000060448201526064016106f9565b6001600160a01b038381166000818152606a6020908152604080832094871680845294825291829020805460ff191686151590811790915591519182527f17307eab39ab6107e8899845ad3d59bd9653f200f220920489ca2b5937696c31910160405180910390a3505050565b61125c6138ca565b600054610100900460ff166122105760405162461bcd60e51b81526004016106f990615095565b565b600054610100900460ff166122395760405162461bcd60e51b81526004016106f990615095565b6110f2828261390c565b6122106121e9565b612256848484611889565b6122628484848461395a565b6112915760405162461bcd60e51b81526004016106f9906150e0565b60607f00000000000000000000000000000000000000000000000000000000000000006001600160a01b031663d547cfb76040518163ffffffff1660e01b815260040160006040518083038186803b1580156122d957600080fd5b505afa1580156122ed573d6000803e3d6000fd5b505050506040513d6000823e601f3d908101601f191682016040526123159190810190615132565b905090565b60608161233e5750506040805180820190915260018152600360fc1b602082015290565b8160005b8115612368578061235281614f1d565b91506123619050600a836151be565b9150612342565b6000816001600160401b038111156123825761238261473f565b6040519080825280601f01601f1916602001820160405280156123ac576020820181803683370190505b5090505b8415611881576123c1600183614f72565b91506123ce600a866151d2565b6123d9906030614f89565b60f81b8183815181106123ee576123ee614f38565b60200101906001600160f81b031916908160001a905350612410600a866151be565b94506123b0565b7f00000000000000000000000000000000000000000000000000000000000000006001600160a01b03166366227eb96040518163ffffffff1660e01b815260040160206040518083038186803b15801561247057600080fd5b505afa158015612484573d6000803e3d6000fd5b505050506040513d601f19601f820116820180604052508101906124a89190614e90565b6124f05760405162461bcd60e51b8152602060048201526019602482015278262ca725a7232a1d1031b0b73737ba1036b4b73a103cb2ba1760391b60448201526064016106f9565b7f00000000000000000000000000000000000000000000000000000000000000006001600160a01b031663fa1785fe6040518163ffffffff1660e01b815260040160206040518083038186803b15801561254957600080fd5b505afa15801561255d573d6000803e3d6000fd5b505050506040513d601f19601f820116820180604052508101906125819190614e3c565b6001600160a01b031663f3c95c60336040516001600160e01b031960e084901b1681526001600160a01b03909116600482015260240160206040518083038186803b1580156125cf57600080fd5b505afa1580156125e3573d6000803e3d6000fd5b505050506040513d601f19601f820116820180604052508101906126079190614e90565b6126535760405162461bcd60e51b815260206004820152601a60248201527f4c594e4b4e46543a206e6f7420612076616c696420757365722e00000000000060448201526064016106f9565b60cc8282604051612665929190614fd0565b9081526040519081900360200190205460ff16156126c55760405162461bcd60e51b815260206004820152601e60248201527f4c594e4b4e46543a206e616d6520616c726561647920696e20757365642e000060448201526064016106f9565b600160cc83836040516126d9929190614fd0565b908152604051908190036020019020805491151560ff19909216919091179055600060cb816127053390565b6001600160a01b03908116825260208083019390935260409182016000208251808401845290546001600160801b038082168352600160801b909104168185015282516303ed69ad60e21b815292519094507f000000000000000000000000000000000000000000000000000000000000000090911692630fb5a6b49260048082019391829003018186803b15801561279d57600080fd5b505afa1580156127b1573d6000803e3d6000fd5b505050506040513d601f19601f820116820180604052508101906127d59190614ead565b81516127ea906001600160801b031642614f72565b1061281e576000602082810182905233825260cb90526040902080546001600160801b031916426001600160801b03161790555b7f00000000000000000000000000000000000000000000000000000000000000006001600160a01b031663600a2f826040518163ffffffff1660e01b815260040160206040518083038186803b15801561287757600080fd5b505afa15801561288b573d6000803e3d6000fd5b505050506040513d601f19601f820116820180604052508101906128af9190614ead565b81602001516001600160801b0316106129165760405162461bcd60e51b815260206004820152602360248201527f4c594e4b4e46543a2063616e6e6f74206d696e74206d6f726520696e2061206460448201526230bc9760e91b60648201526084016106f9565b60208101516129269060016151e6565b33600090815260cb6020526040812080546001600160801b03938416600160801b0293169290921790915561295b8686613a67565b90506129678533611fd9565b60008061297333613e73565b91509150604051806080016040528060008152602001838152602001828152602001600081525060ca60008a81526020019081526020016000209060046129bb929190614574565b506129c633896138b0565b877f43332af98367d01c3bc9be42717917c42e1bd0084f4cdad927e9b4c06471d35160ca60008b815260200190815260200160002088888b88604051612a1095949392919061500e565b60405180910390a25050505050505050565b7f00000000000000000000000000000000000000000000000000000000000000006001600160a01b031663fa1785fe6040518163ffffffff1660e01b815260040160206040518083038186803b158015612a7b57600080fd5b505afa158015612a8f573d6000803e3d6000fd5b505050506040513d601f19601f82011682018060405250810190612ab39190614e3c565b6001600160a01b031663f3c95c60336040516001600160e01b031960e084901b1681526001600160a01b03909116600482015260240160206040518083038186803b158015612b0157600080fd5b505afa158015612b15573d6000803e3d6000fd5b505050506040513d601f19601f82011682018060405250810190612b399190614e90565b612b855760405162461bcd60e51b815260206004820152601a60248201527f4c594e4b4e46543a206e6f7420612076616c696420757365722e00000000000060448201526064016106f9565b3233148015612ba4575033612b9984610e21565b6001600160a01b0316145b612be95760405162461bcd60e51b8152602060048201526016602482015275262ca725a7232a1d103737ba103a34329037bbb732b960511b60448201526064016106f9565b836003811115612bfb57612bfb615208565b612d71577f00000000000000000000000000000000000000000000000000000000000000006001600160a01b03166377b330c96040518163ffffffff1660e01b815260040160206040518083038186803b158015612c5857600080fd5b505afa158015612c6c573d6000803e3d6000fd5b505050506040513d601f19601f82011682018060405250810190612c909190614e3c565b6001600160a01b0316816001600160a01b03161480612d5057507f00000000000000000000000000000000000000000000000000000000000000006001600160a01b0316633b87436b6040518163ffffffff1660e01b815260040160206040518083038186803b158015612d0357600080fd5b505afa158015612d17573d6000803e3d6000fd5b505050506040513d601f19601f82011682018060405250810190612d3b9190614e3c565b6001600160a01b0316816001600160a01b0316145b612d6c5760405162461bcd60e51b81526004016106f99061521e565b6132fe565b836003811115612d8357612d83615208565b60011415612fe957600083815260cd60209081526040918290208251808401845290546001600160801b038082168352600160801b909104168183015282516303ed69ad60e21b8152925190926001600160a01b037f00000000000000000000000000000000000000000000000000000000000000001692630fb5a6b492600480840193829003018186803b158015612e1b57600080fd5b505afa158015612e2f573d6000803e3d6000fd5b505050506040513d601f19601f82011682018060405250810190612e539190614ead565b8151612e68906001600160801b031642614f72565b10612e9c576000602082810182905285825260cd90526040902080546001600160801b0319166001600160801b0342161790555b60405163317369c560e11b8152600481018590527f00000000000000000000000000000000000000000000000000000000000000006001600160a01b0316906362e6d38a9060240160206040518083038186803b158015612efc57600080fd5b505afa158015612f10573d6000803e3d6000fd5b505050506040513d601f19601f82011682018060405250810190612f349190614ead565b8382602001516001600160801b0316612f4d9190614f89565b1115612faa5760405162461bcd60e51b815260206004820152602660248201527f4c594e4b4e46543a2063616e6e6f742075706772616465206d6f726520696e2060448201526530903230bc9760d11b60648201526084016106f9565b828160200151612fba91906151e6565b600085815260cd6020526040902080546001600160801b03928316600160801b0292169190911790555061323d565b60006001856003811115612fff57612fff615208565b6130099190614f72565b905060007f00000000000000000000000000000000000000000000000000000000000000006001600160a01b031663b2cd99af83600381111561304e5761304e615208565b600088815260ca6020526040902080548690811061306e5761306e614f38565b90600052602060002001546040518363ffffffff1660e01b8152600401613096929190615255565b604080518083038186803b1580156130ad57600080fd5b505afa1580156130c1573d6000803e3d6000fd5b505050506040513d601f19601f820116820180604052508101906130e59190614f4e565b5090506000807f00000000000000000000000000000000000000000000000000000000000000006001600160a01b031663b2cd99af8960ca60008b81526020019081526020016000208b600381111561314057613140615208565b8154811061315057613150614f38565b9060005260206000200154896131669190614f89565b6040518363ffffffff1660e01b8152600401613183929190615255565b604080518083038186803b15801561319a57600080fd5b505afa1580156131ae573d6000803e3d6000fd5b505050506040513d601f19601f820116820180604052508101906131d29190614f4e565b91509150818311806131ec575081831480156131ec575080155b6132385760405162461bcd60e51b815260206004820152601860248201527f4c594e4b4e46543a206c6576656c206f766572666c6f772e000000000000000060448201526064016106f9565b505050505b7f00000000000000000000000000000000000000000000000000000000000000006001600160a01b031663c2e30dd06040518163ffffffff1660e01b815260040160206040518083038186803b15801561329657600080fd5b505afa1580156132aa573d6000803e3d6000fd5b505050506040513d601f19601f820116820180604052508101906132ce9190614e3c565b6001600160a01b0316816001600160a01b0316146132fe5760405162461bcd60e51b81526004016106f99061521e565b6000816001600160a01b031663313ce5676040518163ffffffff1660e01b815260040160206040518083038186803b15801561333957600080fd5b505afa15801561334d573d6000803e3d6000fd5b505050506040513d601f19601f820116820180604052508101906133719190615281565b60ff169050600061338382600a615382565b61338d908561538e565b90506133998333611fd9565b600085815260ca6020526040902084908760038111156133bb576133bb615208565b815481106133cb576133cb614f38565b9060005260206000200160008282546133e49190614f89565b92505081905550847f6a4348800167e375a04ba455a3563b96544c3d4a8662a4ca79307485fb6dbfc1878660405161341d929190615255565b60405180910390a27f00000000000000000000000000000000000000000000000000000000000000006001600160a01b031663fa1785fe6040518163ffffffff1660e01b815260040160206040518083038186803b15801561347e57600080fd5b505afa158015613492573d6000803e3d6000fd5b505050506040513d601f19601f820116820180604052508101906134b69190614e3c565b6001600160a01b031663562afdf5338860038111156134d7576134d7615208565b156134e35760006134e5565b865b6040516001600160e01b031960e085901b1681526001600160a01b0390921660048301526024820152604401600060405180830381600087803b15801561352b57600080fd5b505af115801561353f573d6000803e3d6000fd5b50505050505050505050565b6001600160a01b0383166135a6576135a181609980546000838152609a60205260408120829055600182018355919091527f72a152ddfb8e864297c917af52ea6c1c68aead0fee1a62673fcc7e0c94979d000155565b6135c9565b816001600160a01b0316836001600160a01b0316146135c9576135c98382613f0a565b6001600160a01b0382166135e05761079a81613fa7565b826001600160a01b0316826001600160a01b03161461079a5761079a8282614056565b6001600160a01b03831661366c578034146136605760405162461bcd60e51b815260206004820152601c60248201527f62617365436f6e74726163743a20696e76616c69642076616c75652e0000000060448201526064016106f9565b61079a61dead8261409a565b604051636eb1769f60e11b81526001600160a01b03838116600483015230602483015282919085169063dd62ed3e9060440160206040518083038186803b1580156136b657600080fd5b505afa1580156136ca573d6000803e3d6000fd5b505050506040513d601f19601f820116820180604052508101906136ee9190614ead565b10156137485760405162461bcd60e51b8152602060048201526024808201527f62617365436f6e74726163743a20696e73756666696369656e7420616c6c6f77604482015263616e636560e01b60648201526084016106f9565b826001600160a01b03167f00000000000000000000000000000000000000000000000000000000000000006001600160a01b03166377b330c96040518163ffffffff1660e01b815260040160206040518083038186803b1580156137ab57600080fd5b505afa1580156137bf573d6000803e3d6000fd5b505050506040513d601f19601f820116820180604052508101906137e39190614e3c565b6001600160a01b031614156138995761079a827f00000000000000000000000000000000000000000000000000000000000000006001600160a01b0316630b00fd546040518163ffffffff1660e01b815260040160206040518083038186803b15801561384f57600080fd5b505afa158015613863573d6000803e3d6000fd5b505050506040513d601f19601f820116820180604052508101906138879190614e3c565b6001600160a01b0386169190846141b3565b61079a6001600160a01b0384168361dead846141b3565b6110f282826040518060200160405280600081525061420d565b60c954604080516020810192909252429082015244606082015260009060800160408051601f19818403018152919052805160209091012060c9819055919050565b600054610100900460ff166139335760405162461bcd60e51b81526004016106f990615095565b81516139469060659060208501906145bf565b50805161079a9060669060208401906145bf565b60006001600160a01b0384163b15613a5c57604051630a85bd0160e11b81526001600160a01b0385169063150b7a029061399e9033908990889088906004016153ad565b602060405180830381600087803b1580156139b857600080fd5b505af19250505080156139e8575060408051601f3d908101601f191682019092526139e5918101906153ea565b60015b613a42573d808015613a16576040519150601f19603f3d011682016040523d82523d6000602084013e613a1b565b606091505b508051613a3a5760405162461bcd60e51b81526004016106f9906150e0565b805181602001fd5b6001600160e01b031916630a85bd0160e11b149050611881565b506001949350505050565b6000816001600160a01b03167f00000000000000000000000000000000000000000000000000000000000000006001600160a01b0316633b87436b6040518163ffffffff1660e01b815260040160206040518083038186803b158015613acc57600080fd5b505afa158015613ae0573d6000803e3d6000fd5b505050506040513d601f19601f82011682018060405250810190613b049190614e3c565b6001600160a01b03161480613bba5750816001600160a01b03167f00000000000000000000000000000000000000000000000000000000000000006001600160a01b03166377b330c96040518163ffffffff1660e01b815260040160206040518083038186803b158015613b7757600080fd5b505afa158015613b8b573d6000803e3d6000fd5b505050506040513d601f19601f82011682018060405250810190613baf9190614e3c565b6001600160a01b0316145b613bd65760405162461bcd60e51b81526004016106f99061521e565b6000826001600160a01b031663313ce5676040518163ffffffff1660e01b815260040160206040518083038186803b158015613c1157600080fd5b505afa158015613c25573d6000803e3d6000fd5b505050506040513d601f19601f82011682018060405250810190613c499190615281565b60ff169050600062030d408510613d0f57613c6582600a615382565b6040516330c3d99f60e11b8152600260048201527f00000000000000000000000000000000000000000000000000000000000000006001600160a01b031690636187b33e906024015b60206040518083038186803b158015613cc657600080fd5b505afa158015613cda573d6000803e3d6000fd5b505050506040513d601f19601f82011682018060405250810190613cfe9190614ead565b613d08919061538e565b9050613e21565b620186a08510613d7157613d2482600a615382565b6040516330c3d99f60e11b8152600160048201527f00000000000000000000000000000000000000000000000000000000000000006001600160a01b031690636187b33e90602401613cae565b613d7c82600a615382565b6040516330c3d99f60e11b8152600060048201527f00000000000000000000000000000000000000000000000000000000000000006001600160a01b031690636187b33e9060240160206040518083038186803b158015613ddc57600080fd5b505afa158015613df0573d6000803e3d6000fd5b505050506040513d601f19601f82011682018060405250810190613e149190614ead565b613e1e919061538e565b90505b620493e085106118815760405162461bcd60e51b815260206004820152601c60248201527f4c594e4b4e46543a20746f6b656e20696420746f6f206c617267652e0000000060448201526064016106f9565b6000806000613e806138ca565b90508084604051602001613eb092919091825260601b6bffffffffffffffffffffffff1916602082015260340190565b60408051601f1981840301815291905280516020909101209050613ed8600560ff83166151d2565b613ee3906001614f89565b9250613ef7600360ff608084901c166151d2565b613f02906001614f89565b915050915091565b60006001613f1784610e81565b613f219190614f72565b600083815260986020526040902054909150808214613f74576001600160a01b03841660009081526097602090815260408083208584528252808320548484528184208190558352609890915290208190555b5060009182526098602090815260408084208490556001600160a01b039094168352609781528383209183525290812055565b609954600090613fb990600190614f72565b6000838152609a602052604081205460998054939450909284908110613fe157613fe1614f38565b90600052602060002001549050806099838154811061400257614002614f38565b6000918252602080832090910192909255828152609a9091526040808220849055858252812055609980548061403a5761403a615407565b6001900381819060005260206000200160009055905550505050565b600061406183610e81565b6001600160a01b039093166000908152609760209081526040808320868452825280832085905593825260989052919091209190915550565b804710156140ea5760405162461bcd60e51b815260206004820152601d60248201527f416464726573733a20696e73756666696369656e742062616c616e636500000060448201526064016106f9565b6000826001600160a01b03168260405160006040518083038185875af1925050503d8060008114614137576040519150601f19603f3d011682016040523d82523d6000602084013e61413c565b606091505b505090508061079a5760405162461bcd60e51b815260206004820152603a60248201527f416464726573733a20756e61626c6520746f2073656e642076616c75652c207260448201527f6563697069656e74206d6179206861766520726576657274656400000000000060648201526084016106f9565b604080516001600160a01b0385811660248301528416604482015260648082018490528251808303909101815260849091019091526020810180516001600160e01b03166323b872dd60e01b179052611291908590614240565b6142178383614312565b614224600084848461395a565b61079a5760405162461bcd60e51b81526004016106f9906150e0565b6000614295826040518060400160405280602081526020017f5361666545524332303a206c6f772d6c6576656c2063616c6c206661696c6564815250856001600160a01b03166144609092919063ffffffff16565b80519091501561079a57808060200190518101906142b39190614e90565b61079a5760405162461bcd60e51b815260206004820152602a60248201527f5361666545524332303a204552433230206f7065726174696f6e20646964206e6044820152691bdd081cdd58d8d9595960b21b60648201526084016106f9565b6001600160a01b0382166143685760405162461bcd60e51b815260206004820181905260248201527f4552433732313a206d696e7420746f20746865207a65726f206164647265737360448201526064016106f9565b6000818152606760205260409020546001600160a01b0316156143cd5760405162461bcd60e51b815260206004820152601c60248201527f4552433732313a20746f6b656e20616c7265616479206d696e7465640000000060448201526064016106f9565b6143d96000838361354b565b6001600160a01b0382166000908152606860205260408120805460019290614402908490614f89565b909155505060008181526067602052604080822080546001600160a01b0319166001600160a01b03861690811790915590518392907fddf252ad1be2c89b69c2b068fc378daa952ba7f163c4a11628f55a4df523b3ef908290a45050565b60606118818484600085856001600160a01b0385163b6144c25760405162461bcd60e51b815260206004820152601d60248201527f416464726573733a2063616c6c20746f206e6f6e2d636f6e747261637400000060448201526064016106f9565b600080866001600160a01b031685876040516144de919061541d565b60006040518083038185875af1925050503d806000811461451b576040519150601f19603f3d011682016040523d82523d6000602084013e614520565b606091505b509150915061453082828661453b565b979650505050505050565b6060831561454a575081611544565b82511561455a5782518084602001fd5b8160405162461bcd60e51b81526004016106f991906146d2565b8280548282559060005260206000209081019282156145af579160200282015b828111156145af578251825591602001919060010190614594565b506145bb929150614632565b5090565b8280546145cb90614db3565b90600052602060002090601f0160209004810192826145ed57600085556145af565b82601f1061460657805160ff19168380011785556145af565b828001600101855582156145af57918201828111156145af578251825591602001919060010190614594565b5b808211156145bb5760008155600101614633565b6001600160e01b03198116811461125c57600080fd5b60006020828403121561466f57600080fd5b813561154481614647565b60005b8381101561469557818101518382015260200161467d565b838111156112915750506000910152565b600081518084526146be81602086016020860161467a565b601f01601f19169290920160200192915050565b60208152600061154460208301846146a6565b6000602082840312156146f757600080fd5b5035919050565b6001600160a01b038116811461125c57600080fd5b6000806040838503121561472657600080fd5b8235614731816146fe565b946020939093013593505050565b634e487b7160e01b600052604160045260246000fd5b604051601f8201601f191681016001600160401b038111828210171561477d5761477d61473f565b604052919050565b60006001600160401b0382111561479e5761479e61473f565b50601f01601f191660200190565b60006147bf6147ba84614785565b614755565b90508281528383830111156147d357600080fd5b828260208301376000602084830101529392505050565b6000602082840312156147fc57600080fd5b81356001600160401b0381111561481257600080fd5b8201601f8101841361482357600080fd5b611881848235602084016147ac565b60008060006060848603121561484757600080fd5b8335614852816146fe565b92506020840135614862816146fe565b929592945050506040919091013590565b60008083601f84011261488557600080fd5b5081356001600160401b0381111561489c57600080fd5b6020830191508360208285010111156148b457600080fd5b9250929050565b6000806000604084860312156148d057600080fd5b83356148db816146fe565b925060208401356001600160401b038111156148f657600080fd5b61490286828701614873565b9497909650939450505050565b60ff8116811461125c57600080fd5b600080600080600080600060c0888a03121561493957600080fd5b87356001600160401b0381111561494f57600080fd5b61495b8a828b01614873565b9098509650506020880135945060408801359350606088013561497d8161490f565b969995985093969295946080840135945060a09093013592915050565b6000602082840312156149ac57600080fd5b8135611544816146fe565b60008060008060008060008060e0898b0312156149d357600080fd5b88356149de816146fe565b975060208901356001600160401b038111156149f957600080fd5b614a058b828c01614873565b90985096505060408901359450606089013593506080890135614a278161490f565b979a969950949793969295929450505060a08201359160c0013590565b801515811461125c57600080fd5b60008060408385031215614a6557600080fd5b8235614a70816146fe565b91506020830135614a8081614a44565b809150509250929050565b60008060008060808587031215614aa157600080fd5b8435614aac816146fe565b93506020850135614abc816146fe565b92506040850135915060608501356001600160401b03811115614ade57600080fd5b8501601f81018713614aef57600080fd5b614afe878235602084016147ac565b91505092959194509250565b60008060208385031215614b1d57600080fd5b82356001600160401b03811115614b3357600080fd5b614b3f85828601614873565b90969095509350505050565b60008060008060008060008060006101008a8c031215614b6a57600080fd5b8935985060208a0135614b7c816146fe565b975060408a01356001600160401b03811115614b9757600080fd5b614ba38c828d01614873565b90985096505060608a0135945060808a0135935060a08a0135614bc58161490f565b8093505060c08a0135915060e08a013590509295985092959850929598565b803560048110614bf357600080fd5b919050565b60008060008060008060008060006101208a8c031215614c1757600080fd5b614c208a614be4565b985060208a0135975060408a0135965060608a0135614c3e816146fe565b955060808a0135945060a08a0135935060c08a0135614c5c8161490f565b8093505060e08a013591506101008a013590509295985092959850929598565b60008060008060808587031215614c9257600080fd5b614c9b85614be4565b935060208501359250604085013591506060850135614cb9816146fe565b939692955090935050565b6020808252825182820181905260009190848201906040850190845b81811015614cfc57835183529284019291840191600101614ce0565b50909695505050505050565b60008060408385031215614d1b57600080fd5b50508035926020909101359150565b60008060008060608587031215614d4057600080fd5b843593506020850135614d52816146fe565b925060408501356001600160401b03811115614d6d57600080fd5b614d7987828801614873565b95989497509550505050565b60008060408385031215614d9857600080fd5b8235614da3816146fe565b91506020830135614a80816146fe565b600181811c90821680614dc757607f821691505b60208210811415614de857634e487b7160e01b600052602260045260246000fd5b50919050565b6020808252602e908201527f4552433732313a2063616c6c6572206973206e6f7420746f6b656e206f776e6560408201526d1c881b9bdc88185c1c1c9bdd995960921b606082015260800190565b600060208284031215614e4e57600080fd5b8151611544816146fe565b60208082526017908201527f4c594e4b4e46543a206e6f7420696e2074686520776c2e000000000000000000604082015260600190565b600060208284031215614ea257600080fd5b815161154481614a44565b600060208284031215614ebf57600080fd5b5051919050565b6001600160a01b0397881681529590961660208601526040850193909352606084019190915260ff16608083015260a082015260c081019190915260e00190565b634e487b7160e01b600052601160045260246000fd5b6000600019821415614f3157614f31614f07565b5060010190565b634e487b7160e01b600052603260045260246000fd5b60008060408385031215614f6157600080fd5b505080516020909101519092909150565b600082821015614f8457614f84614f07565b500390565b60008219821115614f9c57614f9c614f07565b500190565b60008351614fb381846020880161467a565b835190830190614fc781836020880161467a565b01949350505050565b8183823760009101908152919050565b60008060408385031215614ff357600080fd5b8251614ffe816146fe565b6020939093015192949293505050565b6000608082016080835280885480835260a08501915089600052602092508260002060005b8281101561504f57815484529284019260019182019101615033565b5050508381038285015286815286888383013760008782018301526001600160a01b0386166040850152601f19601f880116010190508260608301529695505050505050565b6020808252602b908201527f496e697469616c697a61626c653a20636f6e7472616374206973206e6f74206960408201526a6e697469616c697a696e6760a81b606082015260800190565b60208082526032908201527f4552433732313a207472616e7366657220746f206e6f6e20455243373231526560408201527131b2b4bb32b91034b6b83632b6b2b73a32b960711b606082015260800190565b60006020828403121561514457600080fd5b81516001600160401b0381111561515a57600080fd5b8201601f8101841361516b57600080fd5b80516151796147ba82614785565b81815285602083850101111561518e57600080fd5b61519f82602083016020860161467a565b95945050505050565b634e487b7160e01b600052601260045260246000fd5b6000826151cd576151cd6151a8565b500490565b6000826151e1576151e16151a8565b500690565b60006001600160801b03808316818516808303821115614fc757614fc7614f07565b634e487b7160e01b600052602160045260246000fd5b6020808252601d908201527f4c594e4b4e46543a20756e737570706f72746564207061796d656e742e000000604082015260600190565b604081016004841061527757634e487b7160e01b600052602160045260246000fd5b9281526020015290565b60006020828403121561529357600080fd5b81516115448161490f565b600181815b808511156152d95781600019048211156152bf576152bf614f07565b808516156152cc57918102915b93841c93908002906152a3565b509250929050565b6000826152f0575060016105c5565b816152fd575060006105c5565b8160018114615313576002811461531d57615339565b60019150506105c5565b60ff84111561532e5761532e614f07565b50506001821b6105c5565b5060208310610133831016604e8410600b841016171561535c575081810a6105c5565b615366838361529e565b806000190482111561537a5761537a614f07565b029392505050565b600061154483836152e1565b60008160001904831182151516156153a8576153a8614f07565b500290565b6001600160a01b03858116825284166020820152604081018390526080606082018190526000906153e0908301846146a6565b9695505050505050565b6000602082840312156153fc57600080fd5b815161154481614647565b634e487b7160e01b600052603160045260246000fd5b6000825161542f81846020870161467a565b919091019291505056fea26469706673582212201601142a70bc2f65422117bc3c5f2399dc2f10f939694df6be0d64f2149d0ae964736f6c63430008090033",
  "devdoc": {
    "kind": "dev",
    "methods": {
      "approve(address,uint256)": {
        "details": "See {IERC721-approve}."
      },
      "balanceOf(address)": {
        "details": "See {IERC721-balanceOf}."
      },
      "getApproved(uint256)": {
        "details": "See {IERC721-getApproved}."
      },
      "isApprovedForAll(address,address)": {
        "details": "See {IERC721-isApprovedForAll}."
      },
      "name()": {
        "details": "See {IERC721Metadata-name}."
      },
      "ownerOf(uint256)": {
        "details": "See {IERC721-ownerOf}."
      },
      "safeTransferFrom(address,address,uint256)": {
        "details": "See {IERC721-safeTransferFrom}."
      },
      "safeTransferFrom(address,address,uint256,bytes)": {
        "details": "See {IERC721-safeTransferFrom}."
      },
      "setApprovalForAll(address,bool)": {
        "details": "See {IERC721-setApprovalForAll}."
      },
      "supportsInterface(bytes4)": {
        "details": "See {IERC165-supportsInterface}."
      },
      "symbol()": {
        "details": "See {IERC721Metadata-symbol}."
      },
      "tokenByIndex(uint256)": {
        "details": "See {IERC721Enumerable-tokenByIndex}."
      },
      "tokenOfOwnerByIndex(address,uint256)": {
        "details": "See {IERC721Enumerable-tokenOfOwnerByIndex}."
      },
      "tokenURI(uint256)": {
        "details": "See {IERC721Metadata-tokenURI}."
      },
      "totalSupply()": {
        "details": "See {IERC721Enumerable-totalSupply}."
      },
      "transferFrom(address,address,uint256)": {
        "details": "See {IERC721-transferFrom}."
      }
    },
    "version": 1
  },
  "userdoc": {
    "kind": "user",
    "methods": {},
    "version": 1
  },
  "storageLayout": {
    "storage": [
      {
        "astId": 138,
        "contract": "contracts/token/LYNKNFT.sol:LYNKNFT",
        "label": "_initialized",
        "offset": 0,
        "slot": "0",
        "type": "t_uint8"
      },
      {
        "astId": 141,
        "contract": "contracts/token/LYNKNFT.sol:LYNKNFT",
        "label": "_initializing",
        "offset": 1,
        "slot": "0",
        "type": "t_bool"
      },
      {
        "astId": 2428,
        "contract": "contracts/token/LYNKNFT.sol:LYNKNFT",
        "label": "__gap",
        "offset": 0,
        "slot": "1",
        "type": "t_array(t_uint256)50_storage"
      },
      {
        "astId": 2698,
        "contract": "contracts/token/LYNKNFT.sol:LYNKNFT",
        "label": "__gap",
        "offset": 0,
        "slot": "51",
        "type": "t_array(t_uint256)50_storage"
      },
      {
        "astId": 731,
        "contract": "contracts/token/LYNKNFT.sol:LYNKNFT",
        "label": "_name",
        "offset": 0,
        "slot": "101",
        "type": "t_string_storage"
      },
      {
        "astId": 733,
        "contract": "contracts/token/LYNKNFT.sol:LYNKNFT",
        "label": "_symbol",
        "offset": 0,
        "slot": "102",
        "type": "t_string_storage"
      },
      {
        "astId": 737,
        "contract": "contracts/token/LYNKNFT.sol:LYNKNFT",
        "label": "_owners",
        "offset": 0,
        "slot": "103",
        "type": "t_mapping(t_uint256,t_address)"
      },
      {
        "astId": 741,
        "contract": "contracts/token/LYNKNFT.sol:LYNKNFT",
        "label": "_balances",
        "offset": 0,
        "slot": "104",
        "type": "t_mapping(t_address,t_uint256)"
      },
      {
        "astId": 745,
        "contract": "contracts/token/LYNKNFT.sol:LYNKNFT",
        "label": "_tokenApprovals",
        "offset": 0,
        "slot": "105",
        "type": "t_mapping(t_uint256,t_address)"
      },
      {
        "astId": 751,
        "contract": "contracts/token/LYNKNFT.sol:LYNKNFT",
        "label": "_operatorApprovals",
        "offset": 0,
        "slot": "106",
        "type": "t_mapping(t_address,t_mapping(t_address,t_bool))"
      },
      {
        "astId": 1593,
        "contract": "contracts/token/LYNKNFT.sol:LYNKNFT",
        "label": "__gap",
        "offset": 0,
        "slot": "107",
        "type": "t_array(t_uint256)44_storage"
      },
      {
        "astId": 1758,
        "contract": "contracts/token/LYNKNFT.sol:LYNKNFT",
        "label": "_ownedTokens",
        "offset": 0,
        "slot": "151",
        "type": "t_mapping(t_address,t_mapping(t_uint256,t_uint256))"
      },
      {
        "astId": 1762,
        "contract": "contracts/token/LYNKNFT.sol:LYNKNFT",
        "label": "_ownedTokensIndex",
        "offset": 0,
        "slot": "152",
        "type": "t_mapping(t_uint256,t_uint256)"
      },
      {
        "astId": 1765,
        "contract": "contracts/token/LYNKNFT.sol:LYNKNFT",
        "label": "_allTokens",
        "offset": 0,
        "slot": "153",
        "type": "t_array(t_uint256)dyn_storage"
      },
      {
        "astId": 1769,
        "contract": "contracts/token/LYNKNFT.sol:LYNKNFT",
        "label": "_allTokensIndex",
        "offset": 0,
        "slot": "154",
        "type": "t_mapping(t_uint256,t_uint256)"
      },
      {
        "astId": 2085,
        "contract": "contracts/token/LYNKNFT.sol:LYNKNFT",
        "label": "__gap",
        "offset": 0,
        "slot": "155",
        "type": "t_array(t_uint256)46_storage"
      },
      {
        "astId": 4454,
        "contract": "contracts/token/LYNKNFT.sol:LYNKNFT",
        "label": "randomSeed",
        "offset": 0,
        "slot": "201",
        "type": "t_uint256"
      },
      {
        "astId": 4459,
        "contract": "contracts/token/LYNKNFT.sol:LYNKNFT",
        "label": "nftInfo",
        "offset": 0,
        "slot": "202",
        "type": "t_mapping(t_uint256,t_array(t_uint256)dyn_storage)"
      },
      {
        "astId": 4464,
        "contract": "contracts/token/LYNKNFT.sol:LYNKNFT",
        "label": "mintInfoOf",
        "offset": 0,
        "slot": "203",
        "type": "t_mapping(t_address,t_struct(MintInfo)4504_storage)"
      },
      {
        "astId": 4468,
        "contract": "contracts/token/LYNKNFT.sol:LYNKNFT",
        "label": "nameUsed",
        "offset": 0,
        "slot": "204",
        "type": "t_mapping(t_string_memory_ptr,t_bool)"
      },
      {
        "astId": 4473,
        "contract": "contracts/token/LYNKNFT.sol:LYNKNFT",
        "label": "addedVAInfoOf",
        "offset": 0,
        "slot": "205",
        "type": "t_mapping(t_uint256,t_struct(AttributeAddedInfo)4509_storage)"
      },
      {
        "astId": 4475,
        "contract": "contracts/token/LYNKNFT.sol:LYNKNFT",
        "label": "earlyBirdCounter",
        "offset": 0,
        "slot": "206",
        "type": "t_uint256"
      },
      {
        "astId": 4477,
        "contract": "contracts/token/LYNKNFT.sol:LYNKNFT",
        "label": "earlyBirdWlCounter",
        "offset": 0,
        "slot": "207",
        "type": "t_uint256"
      }
    ],
    "types": {
      "t_address": {
        "encoding": "inplace",
        "label": "address",
        "numberOfBytes": "20"
      },
      "t_array(t_uint256)44_storage": {
        "base": "t_uint256",
        "encoding": "inplace",
        "label": "uint256[44]",
        "numberOfBytes": "1408"
      },
      "t_array(t_uint256)46_storage": {
        "base": "t_uint256",
        "encoding": "inplace",
        "label": "uint256[46]",
        "numberOfBytes": "1472"
      },
      "t_array(t_uint256)50_storage": {
        "base": "t_uint256",
        "encoding": "inplace",
        "label": "uint256[50]",
        "numberOfBytes": "1600"
      },
      "t_array(t_uint256)dyn_storage": {
        "base": "t_uint256",
        "encoding": "dynamic_array",
        "label": "uint256[]",
        "numberOfBytes": "32"
      },
      "t_bool": {
        "encoding": "inplace",
        "label": "bool",
        "numberOfBytes": "1"
      },
      "t_mapping(t_address,t_bool)": {
        "encoding": "mapping",
        "key": "t_address",
        "label": "mapping(address => bool)",
        "numberOfBytes": "32",
        "value": "t_bool"
      },
      "t_mapping(t_address,t_mapping(t_address,t_bool))": {
        "encoding": "mapping",
        "key": "t_address",
        "label": "mapping(address => mapping(address => bool))",
        "numberOfBytes": "32",
        "value": "t_mapping(t_address,t_bool)"
      },
      "t_mapping(t_address,t_mapping(t_uint256,t_uint256))": {
        "encoding": "mapping",
        "key": "t_address",
        "label": "mapping(address => mapping(uint256 => uint256))",
        "numberOfBytes": "32",
        "value": "t_mapping(t_uint256,t_uint256)"
      },
      "t_mapping(t_address,t_struct(MintInfo)4504_storage)": {
        "encoding": "mapping",
        "key": "t_address",
        "label": "mapping(address => struct LYNKNFT.MintInfo)",
        "numberOfBytes": "32",
        "value": "t_struct(MintInfo)4504_storage"
      },
      "t_mapping(t_address,t_uint256)": {
        "encoding": "mapping",
        "key": "t_address",
        "label": "mapping(address => uint256)",
        "numberOfBytes": "32",
        "value": "t_uint256"
      },
      "t_mapping(t_string_memory_ptr,t_bool)": {
        "encoding": "mapping",
        "key": "t_string_memory_ptr",
        "label": "mapping(string => bool)",
        "numberOfBytes": "32",
        "value": "t_bool"
      },
      "t_mapping(t_uint256,t_address)": {
        "encoding": "mapping",
        "key": "t_uint256",
        "label": "mapping(uint256 => address)",
        "numberOfBytes": "32",
        "value": "t_address"
      },
      "t_mapping(t_uint256,t_array(t_uint256)dyn_storage)": {
        "encoding": "mapping",
        "key": "t_uint256",
        "label": "mapping(uint256 => uint256[])",
        "numberOfBytes": "32",
        "value": "t_array(t_uint256)dyn_storage"
      },
      "t_mapping(t_uint256,t_struct(AttributeAddedInfo)4509_storage)": {
        "encoding": "mapping",
        "key": "t_uint256",
        "label": "mapping(uint256 => struct LYNKNFT.AttributeAddedInfo)",
        "numberOfBytes": "32",
        "value": "t_struct(AttributeAddedInfo)4509_storage"
      },
      "t_mapping(t_uint256,t_uint256)": {
        "encoding": "mapping",
        "key": "t_uint256",
        "label": "mapping(uint256 => uint256)",
        "numberOfBytes": "32",
        "value": "t_uint256"
      },
      "t_string_memory_ptr": {
        "encoding": "bytes",
        "label": "string",
        "numberOfBytes": "32"
      },
      "t_string_storage": {
        "encoding": "bytes",
        "label": "string",
        "numberOfBytes": "32"
      },
      "t_struct(AttributeAddedInfo)4509_storage": {
        "encoding": "inplace",
        "label": "struct LYNKNFT.AttributeAddedInfo",
        "members": [
          {
            "astId": 4506,
            "contract": "contracts/token/LYNKNFT.sol:LYNKNFT",
            "label": "lastAddedTime",
            "offset": 0,
            "slot": "0",
            "type": "t_uint128"
          },
          {
            "astId": 4508,
            "contract": "contracts/token/LYNKNFT.sol:LYNKNFT",
            "label": "addedInDuration",
            "offset": 16,
            "slot": "0",
            "type": "t_uint128"
          }
        ],
        "numberOfBytes": "32"
      },
      "t_struct(MintInfo)4504_storage": {
        "encoding": "inplace",
        "label": "struct LYNKNFT.MintInfo",
        "members": [
          {
            "astId": 4501,
            "contract": "contracts/token/LYNKNFT.sol:LYNKNFT",
            "label": "lastMintTime",
            "offset": 0,
            "slot": "0",
            "type": "t_uint128"
          },
          {
            "astId": 4503,
            "contract": "contracts/token/LYNKNFT.sol:LYNKNFT",
            "label": "mintNumInDuration",
            "offset": 16,
            "slot": "0",
            "type": "t_uint128"
          }
        ],
        "numberOfBytes": "32"
      },
      "t_uint128": {
        "encoding": "inplace",
        "label": "uint128",
        "numberOfBytes": "16"
      },
      "t_uint256": {
        "encoding": "inplace",
        "label": "uint256",
        "numberOfBytes": "32"
      },
      "t_uint8": {
        "encoding": "inplace",
        "label": "uint8",
        "numberOfBytes": "1"
      }
    }
  }
}