{
  "address": "0x6EF26c8DcE5E65990f0254b75C9619fCdbd3d89D",
  "abi": [
    {
      "inputs": [
        {
          "internalType": "address",
          "name": "dbAddress",
          "type": "address"
        }
      ],
      "stateMutability": "nonpayable",
      "type": "constructor"
    },
    {
      "anonymous": false,
      "inputs": [
        {
          "indexed": true,
          "internalType": "address",
          "name": "account",
          "type": "address"
        },
        {
          "indexed": true,
          "internalType": "uint256",
          "name": "nftId",
          "type": "uint256"
        },
        {
          "indexed": false,
          "internalType": "uint256",
          "name": "amount",
          "type": "uint256"
        }
      ],
      "name": "ClaimAchievementReward",
      "type": "event"
    },
    {
      "anonymous": false,
      "inputs": [
        {
          "indexed": true,
          "internalType": "address",
          "name": "account",
          "type": "address"
        },
        {
          "indexed": false,
          "internalType": "address",
          "name": "invitee",
          "type": "address"
        },
        {
          "indexed": false,
          "internalType": "uint256",
          "name": "amount",
          "type": "uint256"
        }
      ],
      "name": "CommunityRewardDistribute",
      "type": "event"
    },
    {
      "anonymous": false,
      "inputs": [
        {
          "indexed": true,
          "internalType": "address",
          "name": "account",
          "type": "address"
        },
        {
          "indexed": false,
          "internalType": "address",
          "name": "invitee",
          "type": "address"
        },
        {
          "indexed": false,
          "internalType": "uint256",
          "name": "amount",
          "type": "uint256"
        }
      ],
      "name": "ContributionRewardDistribute",
      "type": "event"
    },
    {
      "anonymous": false,
      "inputs": [
        {
          "indexed": false,
          "internalType": "uint8",
          "name": "version",
          "type": "uint8"
        }
      ],
      "name": "Initialized",
      "type": "event"
    },
    {
      "anonymous": false,
      "inputs": [
        {
          "indexed": true,
          "internalType": "address",
          "name": "account",
          "type": "address"
        },
        {
          "indexed": false,
          "internalType": "enum IUser.Level",
          "name": "level",
          "type": "uint8"
        }
      ],
      "name": "LevelUp",
      "type": "event"
    },
    {
      "anonymous": false,
      "inputs": [
        {
          "indexed": true,
          "internalType": "address",
          "name": "account",
          "type": "address"
        },
        {
          "indexed": false,
          "internalType": "address",
          "name": "ref",
          "type": "address"
        }
      ],
      "name": "Register",
      "type": "event"
    },
    {
      "anonymous": false,
      "inputs": [
        {
          "indexed": true,
          "internalType": "address",
          "name": "account",
          "type": "address"
        },
        {
          "indexed": false,
          "internalType": "address",
          "name": "invitee",
          "type": "address"
        },
        {
          "indexed": false,
          "internalType": "uint256",
          "name": "amount",
          "type": "uint256"
        }
      ],
      "name": "SocialRewardDistribute",
      "type": "event"
    },
    {
      "inputs": [],
      "name": "BLACK_HOLE",
      "outputs": [
        {
          "internalType": "address",
          "name": "",
          "type": "address"
        }
      ],
      "stateMutability": "view",
      "type": "function"
    },
    {
      "inputs": [],
      "name": "DB_CONTRACT",
      "outputs": [
        {
          "internalType": "address",
          "name": "",
          "type": "address"
        }
      ],
      "stateMutability": "view",
      "type": "function"
    },
    {
      "inputs": [],
      "name": "__User_init",
      "outputs": [],
      "stateMutability": "nonpayable",
      "type": "function"
    },
    {
      "inputs": [
        {
          "internalType": "address",
          "name": "_userAddr",
          "type": "address"
        }
      ],
      "name": "auditLevel",
      "outputs": [],
      "stateMutability": "nonpayable",
      "type": "function"
    },
    {
      "inputs": [
        {
          "internalType": "address",
          "name": "_userAddr",
          "type": "address"
        },
        {
          "internalType": "uint256",
          "name": "_nftId",
          "type": "uint256"
        }
      ],
      "name": "calcAchievementReward",
      "outputs": [
        {
          "internalType": "uint256",
          "name": "",
          "type": "uint256"
        }
      ],
      "stateMutability": "view",
      "type": "function"
    },
    {
      "inputs": [
        {
          "internalType": "uint256",
          "name": "_nftId",
          "type": "uint256"
        }
      ],
      "name": "claimAchievementReward",
      "outputs": [],
      "stateMutability": "nonpayable",
      "type": "function"
    },
    {
      "inputs": [
        {
          "internalType": "address",
          "name": "_userAddr",
          "type": "address"
        },
        {
          "internalType": "uint256",
          "name": "_rewardAmount",
          "type": "uint256"
        }
      ],
      "name": "hookByClaimReward",
      "outputs": [],
      "stateMutability": "nonpayable",
      "type": "function"
    },
    {
      "inputs": [
        {
          "internalType": "uint256",
          "name": "nftId",
          "type": "uint256"
        }
      ],
      "name": "hookByStake",
      "outputs": [],
      "stateMutability": "nonpayable",
      "type": "function"
    },
    {
      "inputs": [
        {
          "internalType": "uint256",
          "name": "nftId",
          "type": "uint256"
        }
      ],
      "name": "hookByUnStake",
      "outputs": [],
      "stateMutability": "nonpayable",
      "type": "function"
    },
    {
      "inputs": [
        {
          "internalType": "address",
          "name": "_userAddr",
          "type": "address"
        },
        {
          "internalType": "uint256",
          "name": "_performance",
          "type": "uint256"
        }
      ],
      "name": "hookByUpgrade",
      "outputs": [],
      "stateMutability": "nonpayable",
      "type": "function"
    },
    {
      "inputs": [
        {
          "internalType": "address",
          "name": "_userAddr",
          "type": "address"
        }
      ],
      "name": "isValidUser",
      "outputs": [
        {
          "internalType": "bool",
          "name": "",
          "type": "bool"
        }
      ],
      "stateMutability": "view",
      "type": "function"
    },
    {
      "inputs": [
        {
          "internalType": "address",
          "name": "_userAddr",
          "type": "address"
        }
      ],
      "name": "levelUpAble",
      "outputs": [
        {
          "internalType": "bool",
          "name": "",
          "type": "bool"
        }
      ],
      "stateMutability": "view",
      "type": "function"
    },
    {
      "inputs": [
        {
          "internalType": "address",
          "name": "_userAddr",
          "type": "address"
        },
        {
          "internalType": "enum IUser.Level",
          "name": "_level",
          "type": "uint8"
        }
      ],
      "name": "refCounterOf",
      "outputs": [
        {
          "internalType": "uint256",
          "name": "",
          "type": "uint256"
        }
      ],
      "stateMutability": "view",
      "type": "function"
    },
    {
      "inputs": [
        {
          "internalType": "address",
          "name": "_refAddr",
          "type": "address"
        }
      ],
      "name": "register",
      "outputs": [],
      "stateMutability": "nonpayable",
      "type": "function"
    },
    {
      "inputs": [
        {
          "internalType": "address",
          "name": "_userAddr",
          "type": "address"
        }
      ],
      "name": "registerByEarlyPlan",
      "outputs": [],
      "stateMutability": "nonpayable",
      "type": "function"
    },
    {
      "inputs": [
        {
          "internalType": "uint256",
          "name": "",
          "type": "uint256"
        }
      ],
      "name": "stakeNFTs",
      "outputs": [
        {
          "internalType": "uint256",
          "name": "lastUpdateTime",
          "type": "uint256"
        },
        {
          "internalType": "uint256",
          "name": "stakedDuration",
          "type": "uint256"
        }
      ],
      "stateMutability": "view",
      "type": "function"
    },
    {
      "inputs": [
        {
          "internalType": "address",
          "name": "",
          "type": "address"
        }
      ],
      "name": "userInfoOf",
      "outputs": [
        {
          "internalType": "enum IUser.Level",
          "name": "level",
          "type": "uint8"
        },
        {
          "internalType": "address",
          "name": "refAddress",
          "type": "address"
        },
        {
          "internalType": "uint256",
          "name": "stakeRev",
          "type": "uint256"
        },
        {
          "internalType": "uint256",
          "name": "socialRev",
          "type": "uint256"
        },
        {
          "internalType": "uint256",
          "name": "communityRev",
          "type": "uint256"
        },
        {
          "internalType": "uint256",
          "name": "contributionRev",
          "type": "uint256"
        },
        {
          "internalType": "uint256",
          "name": "achievementRev",
          "type": "uint256"
        },
        {
          "internalType": "uint256",
          "name": "performance",
          "type": "uint256"
        }
      ],
      "stateMutability": "view",
      "type": "function"
    }
  ],
  "transactionHash": "0x1afdc2b14727c0bc4b172e52577c2161933e10171e2888cd761edb80ab983794",
  "args": [
    "0x4023A2776c1CE7d174Ee3BDfa639C74faD47393F"
  ],
  "numDeployments": 8,
  "solcInputHash": "98a619904312fcaa4c5b9c3b85c7ca06",
  "bytecode": "0x60a06040523480156200001157600080fd5b5060405162002d0538038062002d05833981016040819052620000349162000046565b6001600160a01b031660805262000078565b6000602082840312156200005957600080fd5b81516001600160a01b03811681146200007157600080fd5b9392505050565b608051612b986200016d6000396000818161026b01528181610467015281816104fc0152818161077c015281816108cc015281816109cf01528181610ae401528181610c9301528181610d9c01528181610e4601528181610fa7015281816110e40152818161119101528181611282015281816113c5015281816114fc0152818161161c0152818161175c015281816118750152818161195501528181611a1c01528181611b0701528181611b8701528181611c6101528181611e7a01528181611f2901528181611fda0152818161206f01528181612122015281816122b50152818161255201526125f80152612b986000f3fe608060405234801561001057600080fd5b506004361061010b5760003560e01c80637fbb3029116100a2578063d5ea7e4311610071578063d5ea7e43146102a0578063e5693bb7146102b3578063f3c95c60146102c6578063faa6023c14610309578063fc07ff591461031c57600080fd5b80637fbb30291461021757806396fd3854146102535780639ccea0cd14610266578063c8b723f31461028d57600080fd5b8063441e6a44116100de578063441e6a44146101665780634420e486146101d057806355eda4e8146101e3578063562afdf51461020457600080fd5b806304aa9a1c14610110578063101c209d1461011a57806333110a6e1461014057806343db921814610153575b600080fd5b61011861032f565b005b61012d610128366004612762565b610445565b6040519081526020015b60405180910390f35b61011861014e36600461278e565b61045a565b6101186101613660046127b2565b610463565b6101bc61017436600461278e565b603360205260009081526040902080546001820154600283015460038401546004850154600586015460069096015460ff8616966101009096046001600160a01b0316959088565b604051610137989796959493929190612803565b6101186101de36600461278e565b6108ca565b6101ec61dead81565b6040516001600160a01b039091168152602001610137565b610118610212366004612762565b610c87565b61023e6102253660046127b2565b6034602052600090815260409020805460019091015482565b60408051928352602083019190915201610137565b61011861026136600461278e565b6114f0565b6101ec7f000000000000000000000000000000000000000000000000000000000000000081565b61011861029b3660046127b2565b611750565b61012d6102ae366004612850565b611824565b6101186102c13660046127b2565b611869565b6102f96102d436600461278e565b6001600160a01b03908116600090815260336020526040902054610100900416151590565b6040519015158152602001610137565b610118610317366004612762565b611a10565b6102f961032a36600461278e565b611e60565b600054610100900460ff161580801561034f5750600054600160ff909116105b806103695750303b158015610369575060005460ff166001145b6103d15760405162461bcd60e51b815260206004820152602e60248201527f496e697469616c697a61626c653a20636f6e747261637420697320616c72656160448201526d191e481a5b9a5d1a585b1a5e995960921b60648201526084015b60405180910390fd5b6000805460ff1916600117905580156103f4576000805461ff0019166101001790555b6103fc611e6b565b8015610442576000805461ff0019169055604051600181527f7f26b83ff96e1f2b6a682f133852f6798a09c465da95921460cefb38474024989060200160405180910390a15b50565b60006104518383611e75565b90505b92915050565b6104428161228b565b60007f00000000000000000000000000000000000000000000000000000000000000006001600160a01b031663663d2c4e6040518163ffffffff1660e01b815260040160206040518083038186803b1580156104be57600080fd5b505afa1580156104d2573d6000803e3d6000fd5b505050506040513d601f19601f820116820180604052508101906104f6919061288d565b905060007f00000000000000000000000000000000000000000000000000000000000000006001600160a01b0316635b487d9c6040518163ffffffff1660e01b815260040160206040518083038186803b15801561055357600080fd5b505afa158015610567573d6000803e3d6000fd5b505050506040513d601f19601f8201168201806040525081019061058b919061288d565b9050336040516331a9108f60e11b8152600481018590526001600160a01b0391821691841690636352211e9060240160206040518083038186803b1580156105d257600080fd5b505afa1580156105e6573d6000803e3d6000fd5b505050506040513d601f19601f8201168201806040525081019061060a919061288d565b6001600160a01b031614806106a25750336040516331a9108f60e11b8152600481018590526001600160a01b0391821691831690636352211e9060240160206040518083038186803b15801561065f57600080fd5b505afa158015610673573d6000803e3d6000fd5b505050506040513d601f19601f82011682018060405250810190610697919061288d565b6001600160a01b0316145b6106e55760405162461bcd60e51b81526020600482015260146024820152732ab9b2b91d103737ba103a34329037bbb732b91760611b60448201526064016103c8565b60006106f13385611e75565b90506000811161073b5760405162461bcd60e51b81526020600482015260156024820152742ab9b2b91d1031b0b73737ba1031b630b4b690181760591b60448201526064016103c8565b6000848152603460209081526040808320600181018490554290553383526033909152812060050180548392906107739084906128c0565b925050819055507f00000000000000000000000000000000000000000000000000000000000000006001600160a01b031663c2e30dd06040518163ffffffff1660e01b815260040160206040518083038186803b1580156107d357600080fd5b505afa1580156107e7573d6000803e3d6000fd5b505050506040513d601f19601f8201168201806040525081019061080b919061288d565b6001600160a01b03166340c10f19336040516001600160e01b031960e084901b1681526001600160a01b03909116600482015260248101849052604401600060405180830381600087803b15801561086257600080fd5b505af1158015610876573d6000803e3d6000fd5b50505050836108823390565b6001600160a01b03167f8fe8d97dec60f189295dbef3aa218ec7ba19a4be60cf0e06f7006eb938dd1720836040516108bc91815260200190565b60405180910390a350505050565b7f00000000000000000000000000000000000000000000000000000000000000006001600160a01b03166366227eb96040518163ffffffff1660e01b815260040160206040518083038186803b15801561092357600080fd5b505afa158015610937573d6000803e3d6000fd5b505050506040513d601f19601f8201168201806040525081019061095b91906128d8565b6109a75760405162461bcd60e51b815260206004820152601a60248201527f557365723a2063616e6e6f74207265676973746572207965742e00000000000060448201526064016103c8565b3360009081526033602052604090205461010090046001600160a01b0316158015610a7457507f00000000000000000000000000000000000000000000000000000000000000006001600160a01b031663aaa2b8c86040518163ffffffff1660e01b815260040160206040518083038186803b158015610a2657600080fd5b505afa158015610a3a573d6000803e3d6000fd5b505050506040513d601f19601f82011682018060405250810190610a5e919061288d565b6001600160a01b0316336001600160a01b031614155b610aba5760405162461bcd60e51b81526020600482015260176024820152762ab9b2b91d1030b63932b0b23c903932b3b4b9ba32b91760491b60448201526064016103c8565b6001600160a01b03818116600090815260336020526040902054610100900416151580610b8857507f00000000000000000000000000000000000000000000000000000000000000006001600160a01b031663aaa2b8c86040518163ffffffff1660e01b815260040160206040518083038186803b158015610b3b57600080fd5b505afa158015610b4f573d6000803e3d6000fd5b505050506040513d601f19601f82011682018060405250810190610b73919061288d565b6001600160a01b0316816001600160a01b0316145b610be35760405162461bcd60e51b815260206004820152602660248201527f557365723a2074686520726566206e6f7420612076616c696420726566206164604482015265323932b9b99760d11b60648201526084016103c8565b3360009081526033602090815260408083208054610100600160a81b0319166101006001600160a01b0387169081029190911790915583528083208380526007019091528120805460019290610c3a9084906128c0565b9091555050604080516001600160a01b0383168152905133917f98ada70a1cb506dc4591465e1ee9be3fd7a2b6c73ecf3b949009718c9a351519919081900360200190a26104428161228b565b336001600160a01b03167f00000000000000000000000000000000000000000000000000000000000000006001600160a01b031663663d2c4e6040518163ffffffff1660e01b815260040160206040518083038186803b158015610cea57600080fd5b505afa158015610cfe573d6000803e3d6000fd5b505050506040513d601f19601f82011682018060405250810190610d22919061288d565b6001600160a01b031614610d485760405162461bcd60e51b81526004016103c8906128fa565b80156114ec576001600160a01b038083166000908152603360205260408082205461010090049092168082529181206006810154905490919060ff166005811115610d9557610d956127cb565b90506000807f00000000000000000000000000000000000000000000000000000000000000006001600160a01b0316637a58a3f1846040518263ffffffff1660e01b8152600401610de891815260200190565b60206040518083038186803b158015610e0057600080fd5b505afa158015610e14573d6000803e3d6000fd5b505050506040513d601f19601f82011682018060405250810190610e389190612949565b9050670de0b6b3a7640000817f00000000000000000000000000000000000000000000000000000000000000006001600160a01b0316633b87436b6040518163ffffffff1660e01b815260040160206040518083038186803b158015610e9d57600080fd5b505afa158015610eb1573d6000803e3d6000fd5b505050506040513d601f19601f82011682018060405250810190610ed5919061288d565b6001600160a01b031663313ce5676040518163ffffffff1660e01b815260040160206040518083038186803b158015610f0d57600080fd5b505afa158015610f21573d6000803e3d6000fd5b505050506040513d601f19601f82011682018060405250810190610f459190612962565b610f5090600a612a69565b610f5a9089612a78565b610f649190612a78565b610f6e9190612a97565b6001600160a01b038616600090815260336020526040812060020180549294508492909190610f9e9084906128c0565b925050819055507f00000000000000000000000000000000000000000000000000000000000000006001600160a01b0316633b87436b6040518163ffffffff1660e01b815260040160206040518083038186803b158015610ffe57600080fd5b505afa158015611012573d6000803e3d6000fd5b505050506040513d601f19601f82011682018060405250810190611036919061288d565b6040516340c10f1960e01b81526001600160a01b0387811660048301526024820185905291909116906340c10f1990604401600060405180830381600087803b15801561108257600080fd5b505af1158015611096573d6000803e3d6000fd5b5050604080516001600160a01b038b8116825260208201879052891693507f6c750f31ea6981466139ece64283b2d992d3baf27e575cc20221a213e483f17292500160405180910390a260007f00000000000000000000000000000000000000000000000000000000000000006001600160a01b03166377b2fb8e6040518163ffffffff1660e01b815260040160206040518083038186803b15801561113b57600080fd5b505afa15801561114f573d6000803e3d6000fd5b505050506040513d601f19601f820116820180604052508101906111739190612949565b905080156113bc57604051637e71dc3760e11b8152600481018590527f00000000000000000000000000000000000000000000000000000000000000006001600160a01b03169063fce3b86e9060240160206040518083038186803b1580156111db57600080fd5b505afa1580156111ef573d6000803e3d6000fd5b505050506040513d601f19601f820116820180604052508101906112139190612949565b61121d8287612a97565b826112288a896128c0565b6112329190612a97565b61123c9190612ab9565b6112469190612a78565b925082156113bc576001600160a01b038616600090815260336020526040812060040180548592906112799084906128c0565b925050819055507f00000000000000000000000000000000000000000000000000000000000000006001600160a01b031663c2e30dd06040518163ffffffff1660e01b815260040160206040518083038186803b1580156112d957600080fd5b505afa1580156112ed573d6000803e3d6000fd5b505050506040513d601f19601f82011682018060405250810190611311919061288d565b6040516340c10f1960e01b81526001600160a01b0388811660048301526024820186905291909116906340c10f1990604401600060405180830381600087803b15801561135d57600080fd5b505af1158015611371573d6000803e3d6000fd5b5050604080516001600160a01b038c81168252602082018890528a1693507f40b213bec2f9c5b2f02409f019e5f1e258d851930fb1c83a495476a5e52f214392500160405180910390a25b600086905060007f00000000000000000000000000000000000000000000000000000000000000006001600160a01b031663bf5784036040518163ffffffff1660e01b815260040160206040518083038186803b15801561141c57600080fd5b505afa158015611430573d6000803e3d6000fd5b505050506040513d601f19601f820116820180604052508101906114549190612949565b905060005b818110156114d9576001600160a01b038316611474576114d9565b6001600160a01b038316600090815260336020526040812060060180548c929061149f9084906128c0565b90915550506001600160a01b03928316600090815260336020526040902054610100900490921691806114d181612ad0565b915050611459565b506114e38861228b565b50505050505050505b5050565b336001600160a01b03167f00000000000000000000000000000000000000000000000000000000000000006001600160a01b031663663d2c4e6040518163ffffffff1660e01b815260040160206040518083038186803b15801561155357600080fd5b505afa158015611567573d6000803e3d6000fd5b505050506040513d601f19601f8201168201806040525081019061158b919061288d565b6001600160a01b0316146115b15760405162461bcd60e51b81526004016103c8906128fa565b6001600160a01b03818116600090815260336020526040902054610100900416156116185760405162461bcd60e51b81526020600482015260176024820152762ab9b2b91d1030b63932b0b23c903932b3b4b9ba32b91760491b60448201526064016103c8565b60007f00000000000000000000000000000000000000000000000000000000000000006001600160a01b031663aaa2b8c86040518163ffffffff1660e01b815260040160206040518083038186803b15801561167357600080fd5b505afa158015611687573d6000803e3d6000fd5b505050506040513d601f19601f820116820180604052508101906116ab919061288d565b6001600160a01b0383811660009081526033602090815260408083208054610100600160a81b031916610100958716958602179055928252828220828052600701905290812080549293506001929091906117079084906128c0565b90915550506040516001600160a01b0382811682528316907f98ada70a1cb506dc4591465e1ee9be3fd7a2b6c73ecf3b949009718c9a3515199060200160405180910390a25050565b336001600160a01b03167f00000000000000000000000000000000000000000000000000000000000000006001600160a01b03166397610f306040518163ffffffff1660e01b815260040160206040518083038186803b1580156117b357600080fd5b505afa1580156117c7573d6000803e3d6000fd5b505050506040513d601f19601f820116820180604052508101906117eb919061288d565b6001600160a01b0316146118115760405162461bcd60e51b81526004016103c890612aeb565b6000908152603460205260409020429055565b6001600160a01b038216600090815260336020526040812060070181836005811115611852576118526127cb565b815260200190815260200160002054905092915050565b336001600160a01b03167f00000000000000000000000000000000000000000000000000000000000000006001600160a01b03166397610f306040518163ffffffff1660e01b815260040160206040518083038186803b1580156118cc57600080fd5b505afa1580156118e0573d6000803e3d6000fd5b505050506040513d601f19601f82011682018060405250810190611904919061288d565b6001600160a01b03161461192a5760405162461bcd60e51b81526004016103c890612aeb565b60008181526034602052604090819020805442909155905163d3f0f70d60e01b8152600481018390527f00000000000000000000000000000000000000000000000000000000000000006001600160a01b03169063d3f0f70d9060240160206040518083038186803b15801561199f57600080fd5b505afa1580156119b3573d6000803e3d6000fd5b505050506040513d601f19601f820116820180604052508101906119d791906128d8565b156114ec576119e68142612ab9565b60008381526034602052604081206001018054909190611a079084906128c0565b90915550505050565b336001600160a01b03167f00000000000000000000000000000000000000000000000000000000000000006001600160a01b03166397610f306040518163ffffffff1660e01b815260040160206040518083038186803b158015611a7357600080fd5b505afa158015611a87573d6000803e3d6000fd5b505050506040513d601f19601f82011682018060405250810190611aab919061288d565b6001600160a01b031614611ad15760405162461bcd60e51b81526004016103c890612aeb565b6001600160a01b038083166000908152603360209081526040808320548151633b87436b60e01b815291516101009091048516947f00000000000000000000000000000000000000000000000000000000000000001692633b87436b9260048082019391829003018186803b158015611b4957600080fd5b505afa158015611b5d573d6000803e3d6000fd5b505050506040513d601f19601f82011682018060405250810190611b81919061288d565b905060007f00000000000000000000000000000000000000000000000000000000000000006001600160a01b0316634eb66e836040518163ffffffff1660e01b815260040160206040518083038186803b158015611bde57600080fd5b505afa158015611bf2573d6000803e3d6000fd5b505050506040513d601f19601f82011682018060405250810190611c169190612949565b905060005b81811015611e28576001600160a01b038416611c3657611e28565b6001600160a01b03848116600090815260336020526040808220549051634d678f2960e01b815291927f00000000000000000000000000000000000000000000000000000000000000001691634d678f2991611c9c9160ff909116908690600401612b39565b60206040518083038186803b158015611cb457600080fd5b505afa158015611cc8573d6000803e3d6000fd5b505050506040513d601f19601f82011682018060405250810190611cec9190612949565b90508015611df2576000670de0b6b3a7640000611d098884612a78565b611d139190612a97565b6001600160a01b038716600090815260336020526040812060030180549293508392909190611d439084906128c0565b90915550506040516340c10f1960e01b81526001600160a01b038781166004830152602482018390528616906340c10f1990604401600060405180830381600087803b158015611d9257600080fd5b505af1158015611da6573d6000803e3d6000fd5b5050604080516001600160a01b038c81168252602082018690528a1693507f951581c5b66d2fff2d0b5f95efd12eda85f83f8998ca1dac23d0137dda6966f792500160405180910390a2505b506001600160a01b0393841660009081526033602052604090205461010090049093169280611e2081612ad0565b915050611c1b565b506001600160a01b03851660009081526033602052604081206001018054869290611e549084906128c0565b90915550505050505050565b6000610454826124ff565b611e736126e2565b565b6000807f00000000000000000000000000000000000000000000000000000000000000006001600160a01b0316637811dddd6040518163ffffffff1660e01b815260040160206040518083038186803b158015611ed157600080fd5b505afa158015611ee5573d6000803e3d6000fd5b505050506040513d601f19601f82011682018060405250810190611f099190612949565b6001600160a01b03858116600090815260336020526040812054929350917f00000000000000000000000000000000000000000000000000000000000000009091169063af4574c69060ff166005811115611f6657611f666127cb565b6040518263ffffffff1660e01b8152600401611f8491815260200190565b60206040518083038186803b158015611f9c57600080fd5b505afa158015611fb0573d6000803e3d6000fd5b505050506040513d601f19601f82011682018060405250810190611fd49190612949565b905060007f00000000000000000000000000000000000000000000000000000000000000006001600160a01b031663663d2c4e6040518163ffffffff1660e01b815260040160206040518083038186803b15801561203157600080fd5b505afa158015612045573d6000803e3d6000fd5b505050506040513d601f19601f82011682018060405250810190612069919061288d565b905060007f00000000000000000000000000000000000000000000000000000000000000006001600160a01b0316635b487d9c6040518163ffffffff1660e01b815260040160206040518083038186803b1580156120c657600080fd5b505afa1580156120da573d6000803e3d6000fd5b505050506040513d601f19601f820116820180604052508101906120fe919061288d565b60405163d3f0f70d60e01b8152600481018890529091506000906001600160a01b037f0000000000000000000000000000000000000000000000000000000000000000169063d3f0f70d9060240160206040518083038186803b15801561216457600080fd5b505afa158015612178573d6000803e3d6000fd5b505050506040513d601f19601f8201168201806040525081019061219c91906128d8565b15612280576000878152603460205260408120546121ba9042612ab9565b9050826001600160a01b0316846001600160a01b0316636352211e8a6040518263ffffffff1660e01b81526004016121f491815260200190565b60206040518083038186803b15801561220c57600080fd5b505afa158015612220573d6000803e3d6000fd5b505050506040513d601f19601f82011682018060405250810190612244919061288d565b6001600160a01b031614612256575060005b60008881526034602052604090206001015486906122759083906128c0565b1061227e578491505b505b979650505050505050565b6001600160a01b0381811660009081526033602052604090205461010090041615158061235957507f00000000000000000000000000000000000000000000000000000000000000006001600160a01b031663aaa2b8c86040518163ffffffff1660e01b815260040160206040518083038186803b15801561230c57600080fd5b505afa158015612320573d6000803e3d6000fd5b505050506040513d601f19601f82011682018060405250810190612344919061288d565b6001600160a01b0316816001600160a01b0316145b6123a55760405162461bcd60e51b815260206004820152601760248201527f557365723a206e6f7420612076616c696420757365722e00000000000000000060448201526064016103c8565b6001600160a01b03811660009081526033602052604081205460ff1660058111156123d2576123d26127cb565b90506123dd826124ff565b156114ec5760006123ef8260016128c0565b6005811115612400576124006127cb565b6001600160a01b03841660009081526033602052604090208054919250829160ff19166001836005811115612437576124376127cb565b0217905550826001600160a01b03167fa49b8576e012f713baa7dceadb7d709aaec8773b498ecfe582d8b9c0c8fd074f826040516124759190612b54565b60405180910390a26001600160a01b0380841660009081526033602052604090205461010090041680156124f9576001600160a01b03811660009081526033602052604081206001916007909101908460058111156124d6576124d66127cb565b815260200190815260200160002060008282546124f391906128c0565b90915550505b50505050565b6001600160a01b038116600090815260336020526040812054819060ff16600581111561252e5761252e6127cb565b905060058110156126d9576040516399bcfdd360e01b8152600481018290526000907f00000000000000000000000000000000000000000000000000000000000000006001600160a01b0316906399bcfdd39060240160206040518083038186803b15801561259c57600080fd5b505afa1580156125b0573d6000803e3d6000fd5b505050506040513d601f19601f820116820180604052508101906125d49190612949565b6040516334fd0adf60e21b8152600481018490529091506000906001600160a01b037f0000000000000000000000000000000000000000000000000000000000000000169063d3f42b7c9060240160206040518083038186803b15801561263a57600080fd5b505afa15801561264e573d6000803e3d6000fd5b505050506040513d601f19601f820116820180604052508101906126729190612949565b6001600160a01b03861660009081526033602052604090206006015490915081118015906126c657506001600160a01b03851660009081526033602090815260408083208684526007019091529020548211155b156126d657506001949350505050565b50505b50600092915050565b600054610100900460ff16611e735760405162461bcd60e51b815260206004820152602b60248201527f496e697469616c697a61626c653a20636f6e7472616374206973206e6f74206960448201526a6e697469616c697a696e6760a81b60648201526084016103c8565b6001600160a01b038116811461044257600080fd5b6000806040838503121561277557600080fd5b82356127808161274d565b946020939093013593505050565b6000602082840312156127a057600080fd5b81356127ab8161274d565b9392505050565b6000602082840312156127c457600080fd5b5035919050565b634e487b7160e01b600052602160045260246000fd5b600681106127ff57634e487b7160e01b600052602160045260246000fd5b9052565b6101008101612812828b6127e1565b6001600160a01b0398909816602082015260408101969096526060860194909452608085019290925260a084015260c083015260e090910152919050565b6000806040838503121561286357600080fd5b823561286e8161274d565b915060208301356006811061288257600080fd5b809150509250929050565b60006020828403121561289f57600080fd5b81516127ab8161274d565b634e487b7160e01b600052601160045260246000fd5b600082198211156128d3576128d36128aa565b500190565b6000602082840312156128ea57600080fd5b815180151581146127ab57600080fd5b6020808252602f908201527f62617365436f6e74726163743a2063616c6c6572206e6f7420746865204c594e60408201526e259027232a1031b7b73a3930b1ba1760891b606082015260800190565b60006020828403121561295b57600080fd5b5051919050565b60006020828403121561297457600080fd5b815160ff811681146127ab57600080fd5b600181815b808511156129c05781600019048211156129a6576129a66128aa565b808516156129b357918102915b93841c939080029061298a565b509250929050565b6000826129d757506001610454565b816129e457506000610454565b81600181146129fa5760028114612a0457612a20565b6001915050610454565b60ff841115612a1557612a156128aa565b50506001821b610454565b5060208310610133831016604e8410600b8410161715612a43575081810a610454565b612a4d8383612985565b8060001904821115612a6157612a616128aa565b029392505050565b600061045160ff8416836129c8565b6000816000190483118215151615612a9257612a926128aa565b500290565b600082612ab457634e487b7160e01b600052601260045260246000fd5b500490565b600082821015612acb57612acb6128aa565b500390565b6000600019821415612ae457612ae46128aa565b5060010190565b6020808252602e908201527f62617365436f6e74726163743a2063616c6c6572206e6f74207468652053746160408201526d35b4b7339031b7b73a3930b1ba1760911b606082015260800190565b60408101612b4782856127e1565b8260208301529392505050565b6020810161045482846127e156fea2646970667358221220c352ace5f8f3825feb53147b607e7cba984cb2089ea283a7d483942f088c586164736f6c63430008090033",
  "devdoc": {
    "kind": "dev",
    "methods": {},
    "version": 1
  },
  "userdoc": {
    "kind": "user",
    "methods": {},
    "version": 1
  },
  "storageLayout": {
    "storage": [
      {
        "astId": 138,
        "contract": "contracts/User.sol:User",
        "label": "_initialized",
        "offset": 0,
        "slot": "0",
        "type": "t_uint8"
      },
      {
        "astId": 141,
        "contract": "contracts/User.sol:User",
        "label": "_initializing",
        "offset": 1,
        "slot": "0",
        "type": "t_bool"
      },
      {
        "astId": 2428,
        "contract": "contracts/User.sol:User",
        "label": "__gap",
        "offset": 0,
        "slot": "1",
        "type": "t_array(t_uint256)50_storage"
      },
      {
        "astId": 4140,
        "contract": "contracts/User.sol:User",
        "label": "userInfoOf",
        "offset": 0,
        "slot": "51",
        "type": "t_mapping(t_address,t_struct(UserInfo)4212_storage)"
      },
      {
        "astId": 4145,
        "contract": "contracts/User.sol:User",
        "label": "stakeNFTs",
        "offset": 0,
        "slot": "52",
        "type": "t_mapping(t_uint256,t_struct(StakeInfo)4217_storage)"
      }
    ],
    "types": {
      "t_address": {
        "encoding": "inplace",
        "label": "address",
        "numberOfBytes": "20"
      },
      "t_array(t_uint256)50_storage": {
        "base": "t_uint256",
        "encoding": "inplace",
        "label": "uint256[50]",
        "numberOfBytes": "1600"
      },
      "t_bool": {
        "encoding": "inplace",
        "label": "bool",
        "numberOfBytes": "1"
      },
      "t_enum(Level)5525": {
        "encoding": "inplace",
        "label": "enum IUser.Level",
        "numberOfBytes": "1"
      },
      "t_mapping(t_address,t_struct(UserInfo)4212_storage)": {
        "encoding": "mapping",
        "key": "t_address",
        "label": "mapping(address => struct User.UserInfo)",
        "numberOfBytes": "32",
        "value": "t_struct(UserInfo)4212_storage"
      },
      "t_mapping(t_uint256,t_struct(StakeInfo)4217_storage)": {
        "encoding": "mapping",
        "key": "t_uint256",
        "label": "mapping(uint256 => struct User.StakeInfo)",
        "numberOfBytes": "32",
        "value": "t_struct(StakeInfo)4217_storage"
      },
      "t_mapping(t_uint256,t_uint256)": {
        "encoding": "mapping",
        "key": "t_uint256",
        "label": "mapping(uint256 => uint256)",
        "numberOfBytes": "32",
        "value": "t_uint256"
      },
      "t_struct(StakeInfo)4217_storage": {
        "encoding": "inplace",
        "label": "struct User.StakeInfo",
        "members": [
          {
            "astId": 4214,
            "contract": "contracts/User.sol:User",
            "label": "lastUpdateTime",
            "offset": 0,
            "slot": "0",
            "type": "t_uint256"
          },
          {
            "astId": 4216,
            "contract": "contracts/User.sol:User",
            "label": "stakedDuration",
            "offset": 0,
            "slot": "1",
            "type": "t_uint256"
          }
        ],
        "numberOfBytes": "64"
      },
      "t_struct(UserInfo)4212_storage": {
        "encoding": "inplace",
        "label": "struct User.UserInfo",
        "members": [
          {
            "astId": 4193,
            "contract": "contracts/User.sol:User",
            "label": "level",
            "offset": 0,
            "slot": "0",
            "type": "t_enum(Level)5525"
          },
          {
            "astId": 4195,
            "contract": "contracts/User.sol:User",
            "label": "refAddress",
            "offset": 1,
            "slot": "0",
            "type": "t_address"
          },
          {
            "astId": 4197,
            "contract": "contracts/User.sol:User",
            "label": "stakeRev",
            "offset": 0,
            "slot": "1",
            "type": "t_uint256"
          },
          {
            "astId": 4199,
            "contract": "contracts/User.sol:User",
            "label": "socialRev",
            "offset": 0,
            "slot": "2",
            "type": "t_uint256"
          },
          {
            "astId": 4201,
            "contract": "contracts/User.sol:User",
            "label": "communityRev",
            "offset": 0,
            "slot": "3",
            "type": "t_uint256"
          },
          {
            "astId": 4203,
            "contract": "contracts/User.sol:User",
            "label": "contributionRev",
            "offset": 0,
            "slot": "4",
            "type": "t_uint256"
          },
          {
            "astId": 4205,
            "contract": "contracts/User.sol:User",
            "label": "achievementRev",
            "offset": 0,
            "slot": "5",
            "type": "t_uint256"
          },
          {
            "astId": 4207,
            "contract": "contracts/User.sol:User",
            "label": "performance",
            "offset": 0,
            "slot": "6",
            "type": "t_uint256"
          },
          {
            "astId": 4211,
            "contract": "contracts/User.sol:User",
            "label": "refCounterOf",
            "offset": 0,
            "slot": "7",
            "type": "t_mapping(t_uint256,t_uint256)"
          }
        ],
        "numberOfBytes": "256"
      },
      "t_uint256": {
        "encoding": "inplace",
        "label": "uint256",
        "numberOfBytes": "32"
      },
      "t_uint8": {
        "encoding": "inplace",
        "label": "uint8",
        "numberOfBytes": "1"
      }
    }
  }
}