{
  "address": "0x53530b9c2C976326F8485bAeC2e0b20BD56520D3",
  "abi": [
    {
      "inputs": [
        {
          "internalType": "address",
          "name": "dbAddress",
          "type": "address"
        }
      ],
      "stateMutability": "nonpayable",
      "type": "constructor"
    },
    {
      "anonymous": false,
      "inputs": [
        {
          "indexed": true,
          "internalType": "address",
          "name": "owner",
          "type": "address"
        },
        {
          "indexed": true,
          "internalType": "address",
          "name": "spender",
          "type": "address"
        },
        {
          "indexed": false,
          "internalType": "uint256",
          "name": "value",
          "type": "uint256"
        }
      ],
      "name": "Approval",
      "type": "event"
    },
    {
      "anonymous": false,
      "inputs": [
        {
          "indexed": false,
          "internalType": "uint8",
          "name": "version",
          "type": "uint8"
        }
      ],
      "name": "Initialized",
      "type": "event"
    },
    {
      "anonymous": false,
      "inputs": [
        {
          "indexed": true,
          "internalType": "address",
          "name": "from",
          "type": "address"
        },
        {
          "indexed": true,
          "internalType": "address",
          "name": "to",
          "type": "address"
        },
        {
          "indexed": false,
          "internalType": "uint256",
          "name": "value",
          "type": "uint256"
        }
      ],
      "name": "Transfer",
      "type": "event"
    },
    {
      "inputs": [],
      "name": "BLACK_HOLE",
      "outputs": [
        {
          "internalType": "address",
          "name": "",
          "type": "address"
        }
      ],
      "stateMutability": "view",
      "type": "function"
    },
    {
      "inputs": [],
      "name": "DB_CONTRACT",
      "outputs": [
        {
          "internalType": "address",
          "name": "",
          "type": "address"
        }
      ],
      "stateMutability": "view",
      "type": "function"
    },
    {
      "inputs": [],
      "name": "DOMAIN_SEPARATOR",
      "outputs": [
        {
          "internalType": "bytes32",
          "name": "",
          "type": "bytes32"
        }
      ],
      "stateMutability": "view",
      "type": "function"
    },
    {
      "inputs": [],
      "name": "__LRTToken_init",
      "outputs": [],
      "stateMutability": "nonpayable",
      "type": "function"
    },
    {
      "inputs": [
        {
          "internalType": "address",
          "name": "owner",
          "type": "address"
        },
        {
          "internalType": "address",
          "name": "spender",
          "type": "address"
        }
      ],
      "name": "allowance",
      "outputs": [
        {
          "internalType": "uint256",
          "name": "",
          "type": "uint256"
        }
      ],
      "stateMutability": "view",
      "type": "function"
    },
    {
      "inputs": [
        {
          "internalType": "address",
          "name": "spender",
          "type": "address"
        },
        {
          "internalType": "uint256",
          "name": "amount",
          "type": "uint256"
        }
      ],
      "name": "approve",
      "outputs": [
        {
          "internalType": "bool",
          "name": "",
          "type": "bool"
        }
      ],
      "stateMutability": "nonpayable",
      "type": "function"
    },
    {
      "inputs": [
        {
          "internalType": "address",
          "name": "account",
          "type": "address"
        }
      ],
      "name": "balanceOf",
      "outputs": [
        {
          "internalType": "uint256",
          "name": "",
          "type": "uint256"
        }
      ],
      "stateMutability": "view",
      "type": "function"
    },
    {
      "inputs": [],
      "name": "decimals",
      "outputs": [
        {
          "internalType": "uint8",
          "name": "",
          "type": "uint8"
        }
      ],
      "stateMutability": "view",
      "type": "function"
    },
    {
      "inputs": [
        {
          "internalType": "address",
          "name": "spender",
          "type": "address"
        },
        {
          "internalType": "uint256",
          "name": "subtractedValue",
          "type": "uint256"
        }
      ],
      "name": "decreaseAllowance",
      "outputs": [
        {
          "internalType": "bool",
          "name": "",
          "type": "bool"
        }
      ],
      "stateMutability": "nonpayable",
      "type": "function"
    },
    {
      "inputs": [
        {
          "internalType": "address",
          "name": "spender",
          "type": "address"
        },
        {
          "internalType": "uint256",
          "name": "addedValue",
          "type": "uint256"
        }
      ],
      "name": "increaseAllowance",
      "outputs": [
        {
          "internalType": "bool",
          "name": "",
          "type": "bool"
        }
      ],
      "stateMutability": "nonpayable",
      "type": "function"
    },
    {
      "inputs": [
        {
          "internalType": "address",
          "name": "account",
          "type": "address"
        },
        {
          "internalType": "uint256",
          "name": "amount",
          "type": "uint256"
        }
      ],
      "name": "mint",
      "outputs": [],
      "stateMutability": "nonpayable",
      "type": "function"
    },
    {
      "inputs": [],
      "name": "name",
      "outputs": [
        {
          "internalType": "string",
          "name": "",
          "type": "string"
        }
      ],
      "stateMutability": "view",
      "type": "function"
    },
    {
      "inputs": [
        {
          "internalType": "address",
          "name": "owner",
          "type": "address"
        }
      ],
      "name": "nonces",
      "outputs": [
        {
          "internalType": "uint256",
          "name": "",
          "type": "uint256"
        }
      ],
      "stateMutability": "view",
      "type": "function"
    },
    {
      "inputs": [
        {
          "internalType": "address",
          "name": "owner",
          "type": "address"
        },
        {
          "internalType": "address",
          "name": "spender",
          "type": "address"
        },
        {
          "internalType": "uint256",
          "name": "value",
          "type": "uint256"
        },
        {
          "internalType": "uint256",
          "name": "deadline",
          "type": "uint256"
        },
        {
          "internalType": "uint8",
          "name": "v",
          "type": "uint8"
        },
        {
          "internalType": "bytes32",
          "name": "r",
          "type": "bytes32"
        },
        {
          "internalType": "bytes32",
          "name": "s",
          "type": "bytes32"
        }
      ],
      "name": "permit",
      "outputs": [],
      "stateMutability": "nonpayable",
      "type": "function"
    },
    {
      "inputs": [],
      "name": "symbol",
      "outputs": [
        {
          "internalType": "string",
          "name": "",
          "type": "string"
        }
      ],
      "stateMutability": "view",
      "type": "function"
    },
    {
      "inputs": [],
      "name": "totalSupply",
      "outputs": [
        {
          "internalType": "uint256",
          "name": "",
          "type": "uint256"
        }
      ],
      "stateMutability": "view",
      "type": "function"
    },
    {
      "inputs": [
        {
          "internalType": "address",
          "name": "to",
          "type": "address"
        },
        {
          "internalType": "uint256",
          "name": "amount",
          "type": "uint256"
        }
      ],
      "name": "transfer",
      "outputs": [
        {
          "internalType": "bool",
          "name": "",
          "type": "bool"
        }
      ],
      "stateMutability": "nonpayable",
      "type": "function"
    },
    {
      "inputs": [
        {
          "internalType": "address",
          "name": "from",
          "type": "address"
        },
        {
          "internalType": "address",
          "name": "to",
          "type": "address"
        },
        {
          "internalType": "uint256",
          "name": "amount",
          "type": "uint256"
        }
      ],
      "name": "transferFrom",
      "outputs": [
        {
          "internalType": "bool",
          "name": "",
          "type": "bool"
        }
      ],
      "stateMutability": "nonpayable",
      "type": "function"
    }
  ],
  "transactionHash": "0x8b69d926c2c6f1d79ca1672d4d6ca111c329b7f8c82536243804c06181662ec2",
  "args": [
    "0xffE23BF49b5de36BFF1604838e3376A41bA6f72D"
  ],
  "numDeployments": 2,
  "solcInputHash": "fd4cfc5c9461e2ed86605a558a33a7f7",
  "bytecode": "0x60a060405234801561001057600080fd5b506040516117c13803806117c183398101604081905261002f91610040565b6001600160a01b0316608052610070565b60006020828403121561005257600080fd5b81516001600160a01b038116811461006957600080fd5b9392505050565b6080516117216100a06000396000818161022a015281816103ab015281816104560152610f4f01526117216000f3fe608060405234801561001057600080fd5b50600436106101165760003560e01c806370a08231116100a2578063a457c2d711610071578063a457c2d71461024c578063a6bbc4031461025f578063a9059cbb14610267578063d505accf1461027a578063dd62ed3e1461028d57600080fd5b806370a08231146101e15780637ecebe001461020a57806395d89b411461021d5780639ccea0cd1461022557600080fd5b8063313ce567116100e9578063313ce567146101815780633644e51514610190578063395093511461019857806340c10f19146101ab57806355eda4e8146101c057600080fd5b806306fdde031461011b578063095ea7b31461013957806318160ddd1461015c57806323b872dd1461016e575b600080fd5b6101236102a0565b6040516101309190611467565b60405180910390f35b61014c6101473660046114d1565b610332565b6040519015158152602001610130565b6035545b604051908152602001610130565b61014c61017c3660046114fd565b61034a565b60405160128152602001610130565b61016061036e565b61014c6101a63660046114d1565b61037d565b6101be6101b93660046114d1565b61039f565b005b6101c961dead81565b6040516001600160a01b039091168152602001610130565b6101606101ef36600461153e565b6001600160a01b031660009081526033602052604090205490565b61016061021836600461153e565b61056e565b61012361058e565b6101c97f000000000000000000000000000000000000000000000000000000000000000081565b61014c61025a3660046114d1565b61059d565b6101be610618565b61014c6102753660046114d1565b610799565b6101be610288366004611562565b6107a7565b61016061029b3660046115d9565b61090b565b6060603680546102af90611612565b80601f01602080910402602001604051908101604052809291908181526020018280546102db90611612565b80156103285780601f106102fd57610100808354040283529160200191610328565b820191906000526020600020905b81548152906001019060200180831161030b57829003601f168201915b5050505050905090565b600033610340818585610936565b5060019392505050565b600033610358858285610a5a565b610363858585610ad4565b506001949350505050565b6000610378610cad565b905090565b600033610340818585610390838361090b565b61039a9190611647565b610936565b336001600160a01b03167f00000000000000000000000000000000000000000000000000000000000000006001600160a01b031663fa1785fe6040518163ffffffff1660e01b815260040160206040518083038186803b15801561040257600080fd5b505afa158015610416573d6000803e3d6000fd5b505050506040513d601f19601f8201168201806040525081019061043a919061166d565b6001600160a01b031614806104f05750336001600160a01b03167f00000000000000000000000000000000000000000000000000000000000000006001600160a01b03166397610f306040518163ffffffff1660e01b815260040160206040518083038186803b1580156104ad57600080fd5b505afa1580156104c1573d6000803e3d6000fd5b505050506040513d601f19601f820116820180604052508101906104e5919061166d565b6001600160a01b0316145b6105605760405162461bcd60e51b815260206004820152603660248201527f62617365436f6e74726163743a2063616c6c6572206e6f742074686520557365604482015275391027a91029ba30b5b4b7339031b7b73a3930b1ba1760511b60648201526084015b60405180910390fd5b61056a8282610d28565b5050565b6001600160a01b0381166000908152609960205260408120545b92915050565b6060603780546102af90611612565b600033816105ab828661090b565b90508381101561060b5760405162461bcd60e51b815260206004820152602560248201527f45524332303a2064656372656173656420616c6c6f77616e63652062656c6f77604482015264207a65726f60d81b6064820152608401610557565b6103638286868403610936565b600054610100900460ff16158080156106385750600054600160ff909116105b806106525750303b158015610652575060005460ff166001145b6106b55760405162461bcd60e51b815260206004820152602e60248201527f496e697469616c697a61626c653a20636f6e747261637420697320616c72656160448201526d191e481a5b9a5d1a585b1a5e995960921b6064820152608401610557565b6000805460ff1916600117905580156106d8576000805461ff0019166101001790555b6107026040518060400160405280600981526020016826292a102a37b5b2b760b91b815250610e15565b6107486040518060400160405280600981526020016826292a102a37b5b2b760b91b8152506040518060400160405280600381526020016213149560ea1b815250610e5f565b610750610e90565b8015610796576000805461ff0019169055604051600181527f7f26b83ff96e1f2b6a682f133852f6798a09c465da95921460cefb38474024989060200160405180910390a15b50565b600033610340818585610ad4565b834211156107f75760405162461bcd60e51b815260206004820152601d60248201527f45524332305065726d69743a206578706972656420646561646c696e650000006044820152606401610557565b60007f6e71edae12b1b97f4d1f60370fef10105fa2faae0126114a169c64845d6126c98888886108268c610e98565b6040805160208101969096526001600160a01b0394851690860152929091166060840152608083015260a082015260c0810186905260e001604051602081830303815290604052805190602001209050600061088182610ec0565b9050600061089182878787610f0e565b9050896001600160a01b0316816001600160a01b0316146108f45760405162461bcd60e51b815260206004820152601e60248201527f45524332305065726d69743a20696e76616c6964207369676e617475726500006044820152606401610557565b6108ff8a8a8a610936565b50505050505050505050565b6001600160a01b03918216600090815260346020908152604080832093909416825291909152205490565b6001600160a01b0383166109985760405162461bcd60e51b8152602060048201526024808201527f45524332303a20617070726f76652066726f6d20746865207a65726f206164646044820152637265737360e01b6064820152608401610557565b6001600160a01b0382166109f95760405162461bcd60e51b815260206004820152602260248201527f45524332303a20617070726f766520746f20746865207a65726f206164647265604482015261737360f01b6064820152608401610557565b6001600160a01b0383811660008181526034602090815260408083209487168084529482529182902085905590518481527f8c5be1e5ebec7d5bd14f71427d1e84f3dd0314c0f7b2291e5b200ac8c7c3b925910160405180910390a3505050565b6000610a66848461090b565b90506000198114610ace5781811015610ac15760405162461bcd60e51b815260206004820152601d60248201527f45524332303a20696e73756666696369656e7420616c6c6f77616e63650000006044820152606401610557565b610ace8484848403610936565b50505050565b6001600160a01b038316610b385760405162461bcd60e51b815260206004820152602560248201527f45524332303a207472616e736665722066726f6d20746865207a65726f206164604482015264647265737360d81b6064820152608401610557565b6001600160a01b038216610b9a5760405162461bcd60e51b815260206004820152602360248201527f45524332303a207472616e7366657220746f20746865207a65726f206164647260448201526265737360e81b6064820152608401610557565b610ba5838383610f36565b6001600160a01b03831660009081526033602052604090205481811015610c1d5760405162461bcd60e51b815260206004820152602660248201527f45524332303a207472616e7366657220616d6f756e7420657863656564732062604482015265616c616e636560d01b6064820152608401610557565b6001600160a01b03808516600090815260336020526040808220858503905591851681529081208054849290610c54908490611647565b92505081905550826001600160a01b0316846001600160a01b03167fddf252ad1be2c89b69c2b068fc378daa952ba7f163c4a11628f55a4df523b3ef84604051610ca091815260200190565b60405180910390a3610ace565b60006103787f8b73c3c69bb8fe3d512ecc4cf759cc79239f7b179b0ffacaa9a75d522b39400f610cdc60655490565b6066546040805160208101859052908101839052606081018290524660808201523060a082015260009060c0016040516020818303038152906040528051906020012090509392505050565b6001600160a01b038216610d7e5760405162461bcd60e51b815260206004820152601f60248201527f45524332303a206d696e7420746f20746865207a65726f2061646472657373006044820152606401610557565b610d8a60008383610f36565b8060356000828254610d9c9190611647565b90915550506001600160a01b03821660009081526033602052604081208054839290610dc9908490611647565b90915550506040518181526001600160a01b038316906000907fddf252ad1be2c89b69c2b068fc378daa952ba7f163c4a11628f55a4df523b3ef9060200160405180910390a35050565b565b600054610100900460ff16610e3c5760405162461bcd60e51b81526004016105579061168a565b61079681604051806040016040528060018152602001603160f81b815250611070565b600054610100900460ff16610e865760405162461bcd60e51b81526004016105579061168a565b61056a82826110b1565b610e136110ff565b6001600160a01b03811660009081526099602052604090208054600181018255905b50919050565b6000610588610ecd610cad565b8360405161190160f01b6020820152602281018390526042810182905260009060620160405160208183030381529060405280519060200120905092915050565b6000806000610f1f87878787611126565b91509150610f2c81611213565b5095945050505050565b60405163d769d48b60e01b8152600160048201526000907f00000000000000000000000000000000000000000000000000000000000000006001600160a01b03169063d769d48b9060240160206040518083038186803b158015610f9957600080fd5b505afa158015610fad573d6000803e3d6000fd5b505050506040513d601f19601f82011682018060405250810190610fd1919061166d565b9050806001600160a01b0316846001600160a01b031614806110045750806001600160a01b0316836001600160a01b0316145b1561100f5750505050565b6001600160a01b0384166110235750505050565b60405162461bcd60e51b815260206004820152601a60248201527f63616e20746f6b656e2063616e206e6f74207472616e736665720000000000006044820152606401610557565b505050565b600054610100900460ff166110975760405162461bcd60e51b81526004016105579061168a565b815160209283012081519190920120606591909155606655565b600054610100900460ff166110d85760405162461bcd60e51b81526004016105579061168a565b81516110eb9060369060208501906113ce565b50805161106b9060379060208401906113ce565b600054610100900460ff16610e135760405162461bcd60e51b81526004016105579061168a565b6000807f7fffffffffffffffffffffffffffffff5d576e7357a4501ddfe92f46681b20a083111561115d575060009050600361120a565b8460ff16601b1415801561117557508460ff16601c14155b15611186575060009050600461120a565b6040805160008082526020820180845289905260ff881692820192909252606081018690526080810185905260019060a0016020604051602081039080840390855afa1580156111da573d6000803e3d6000fd5b5050604051601f1901519150506001600160a01b0381166112035760006001925092505061120a565b9150600090505b94509492505050565b6000816004811115611227576112276116d5565b14156112305750565b6001816004811115611244576112446116d5565b14156112925760405162461bcd60e51b815260206004820152601860248201527f45434453413a20696e76616c6964207369676e617475726500000000000000006044820152606401610557565b60028160048111156112a6576112a66116d5565b14156112f45760405162461bcd60e51b815260206004820152601f60248201527f45434453413a20696e76616c6964207369676e6174757265206c656e677468006044820152606401610557565b6003816004811115611308576113086116d5565b14156113615760405162461bcd60e51b815260206004820152602260248201527f45434453413a20696e76616c6964207369676e6174757265202773272076616c604482015261756560f01b6064820152608401610557565b6004816004811115611375576113756116d5565b14156107965760405162461bcd60e51b815260206004820152602260248201527f45434453413a20696e76616c6964207369676e6174757265202776272076616c604482015261756560f01b6064820152608401610557565b8280546113da90611612565b90600052602060002090601f0160209004810192826113fc5760008555611442565b82601f1061141557805160ff1916838001178555611442565b82800160010185558215611442579182015b82811115611442578251825591602001919060010190611427565b5061144e929150611452565b5090565b5b8082111561144e5760008155600101611453565b600060208083528351808285015260005b8181101561149457858101830151858201604001528201611478565b818111156114a6576000604083870101525b50601f01601f1916929092016040019392505050565b6001600160a01b038116811461079657600080fd5b600080604083850312156114e457600080fd5b82356114ef816114bc565b946020939093013593505050565b60008060006060848603121561151257600080fd5b833561151d816114bc565b9250602084013561152d816114bc565b929592945050506040919091013590565b60006020828403121561155057600080fd5b813561155b816114bc565b9392505050565b600080600080600080600060e0888a03121561157d57600080fd5b8735611588816114bc565b96506020880135611598816114bc565b95506040880135945060608801359350608088013560ff811681146115bc57600080fd5b9699959850939692959460a0840135945060c09093013592915050565b600080604083850312156115ec57600080fd5b82356115f7816114bc565b91506020830135611607816114bc565b809150509250929050565b600181811c9082168061162657607f821691505b60208210811415610eba57634e487b7160e01b600052602260045260246000fd5b6000821982111561166857634e487b7160e01b600052601160045260246000fd5b500190565b60006020828403121561167f57600080fd5b815161155b816114bc565b6020808252602b908201527f496e697469616c697a61626c653a20636f6e7472616374206973206e6f74206960408201526a6e697469616c697a696e6760a81b606082015260800190565b634e487b7160e01b600052602160045260246000fdfea2646970667358221220103797e25d3a9fc2cb838e1d2edf9999251b56dc03b495c3b219744c3fce113564736f6c63430008090033",
  "devdoc": {
    "kind": "dev",
    "methods": {
      "DOMAIN_SEPARATOR()": {
        "details": "See {IERC20Permit-DOMAIN_SEPARATOR}."
      },
      "allowance(address,address)": {
        "details": "See {IERC20-allowance}."
      },
      "approve(address,uint256)": {
        "details": "See {IERC20-approve}. NOTE: If `amount` is the maximum `uint256`, the allowance is not updated on `transferFrom`. This is semantically equivalent to an infinite approval. Requirements: - `spender` cannot be the zero address."
      },
      "balanceOf(address)": {
        "details": "See {IERC20-balanceOf}."
      },
      "decimals()": {
        "details": "Returns the number of decimals used to get its user representation. For example, if `decimals` equals `2`, a balance of `505` tokens should be displayed to a user as `5.05` (`505 / 10 ** 2`). Tokens usually opt for a value of 18, imitating the relationship between Ether and Wei. This is the value {ERC20} uses, unless this function is overridden; NOTE: This information is only used for _display_ purposes: it in no way affects any of the arithmetic of the contract, including {IERC20-balanceOf} and {IERC20-transfer}."
      },
      "decreaseAllowance(address,uint256)": {
        "details": "Atomically decreases the allowance granted to `spender` by the caller. This is an alternative to {approve} that can be used as a mitigation for problems described in {IERC20-approve}. Emits an {Approval} event indicating the updated allowance. Requirements: - `spender` cannot be the zero address. - `spender` must have allowance for the caller of at least `subtractedValue`."
      },
      "increaseAllowance(address,uint256)": {
        "details": "Atomically increases the allowance granted to `spender` by the caller. This is an alternative to {approve} that can be used as a mitigation for problems described in {IERC20-approve}. Emits an {Approval} event indicating the updated allowance. Requirements: - `spender` cannot be the zero address."
      },
      "name()": {
        "details": "Returns the name of the token."
      },
      "nonces(address)": {
        "details": "See {IERC20Permit-nonces}."
      },
      "permit(address,address,uint256,uint256,uint8,bytes32,bytes32)": {
        "details": "See {IERC20Permit-permit}."
      },
      "symbol()": {
        "details": "Returns the symbol of the token, usually a shorter version of the name."
      },
      "totalSupply()": {
        "details": "See {IERC20-totalSupply}."
      },
      "transfer(address,uint256)": {
        "details": "See {IERC20-transfer}. Requirements: - `to` cannot be the zero address. - the caller must have a balance of at least `amount`."
      },
      "transferFrom(address,address,uint256)": {
        "details": "See {IERC20-transferFrom}. Emits an {Approval} event indicating the updated allowance. This is not required by the EIP. See the note at the beginning of {ERC20}. NOTE: Does not update the allowance if the current allowance is the maximum `uint256`. Requirements: - `from` and `to` cannot be the zero address. - `from` must have a balance of at least `amount`. - the caller must have allowance for ``from``'s tokens of at least `amount`."
      }
    },
    "version": 1
  },
  "userdoc": {
    "kind": "user",
    "methods": {},
    "version": 1
  },
  "storageLayout": {
    "storage": [
      {
        "astId": 138,
        "contract": "contracts/token/LRTToken.sol:LRTToken",
        "label": "_initialized",
        "offset": 0,
        "slot": "0",
        "type": "t_uint8"
      },
      {
        "astId": 141,
        "contract": "contracts/token/LRTToken.sol:LRTToken",
        "label": "_initializing",
        "offset": 1,
        "slot": "0",
        "type": "t_bool"
      },
      {
        "astId": 3289,
        "contract": "contracts/token/LRTToken.sol:LRTToken",
        "label": "__gap",
        "offset": 0,
        "slot": "1",
        "type": "t_array(t_uint256)50_storage"
      },
      {
        "astId": 360,
        "contract": "contracts/token/LRTToken.sol:LRTToken",
        "label": "_balances",
        "offset": 0,
        "slot": "51",
        "type": "t_mapping(t_address,t_uint256)"
      },
      {
        "astId": 366,
        "contract": "contracts/token/LRTToken.sol:LRTToken",
        "label": "_allowances",
        "offset": 0,
        "slot": "52",
        "type": "t_mapping(t_address,t_mapping(t_address,t_uint256))"
      },
      {
        "astId": 368,
        "contract": "contracts/token/LRTToken.sol:LRTToken",
        "label": "_totalSupply",
        "offset": 0,
        "slot": "53",
        "type": "t_uint256"
      },
      {
        "astId": 370,
        "contract": "contracts/token/LRTToken.sol:LRTToken",
        "label": "_name",
        "offset": 0,
        "slot": "54",
        "type": "t_string_storage"
      },
      {
        "astId": 372,
        "contract": "contracts/token/LRTToken.sol:LRTToken",
        "label": "_symbol",
        "offset": 0,
        "slot": "55",
        "type": "t_string_storage"
      },
      {
        "astId": 951,
        "contract": "contracts/token/LRTToken.sol:LRTToken",
        "label": "__gap",
        "offset": 0,
        "slot": "56",
        "type": "t_array(t_uint256)45_storage"
      },
      {
        "astId": 3987,
        "contract": "contracts/token/LRTToken.sol:LRTToken",
        "label": "_HASHED_NAME",
        "offset": 0,
        "slot": "101",
        "type": "t_bytes32"
      },
      {
        "astId": 3989,
        "contract": "contracts/token/LRTToken.sol:LRTToken",
        "label": "_HASHED_VERSION",
        "offset": 0,
        "slot": "102",
        "type": "t_bytes32"
      },
      {
        "astId": 4127,
        "contract": "contracts/token/LRTToken.sol:LRTToken",
        "label": "__gap",
        "offset": 0,
        "slot": "103",
        "type": "t_array(t_uint256)50_storage"
      },
      {
        "astId": 1081,
        "contract": "contracts/token/LRTToken.sol:LRTToken",
        "label": "_nonces",
        "offset": 0,
        "slot": "153",
        "type": "t_mapping(t_address,t_struct(Counter)3296_storage)"
      },
      {
        "astId": 1089,
        "contract": "contracts/token/LRTToken.sol:LRTToken",
        "label": "_PERMIT_TYPEHASH_DEPRECATED_SLOT",
        "offset": 0,
        "slot": "154",
        "type": "t_bytes32"
      },
      {
        "astId": 1245,
        "contract": "contracts/token/LRTToken.sol:LRTToken",
        "label": "__gap",
        "offset": 0,
        "slot": "155",
        "type": "t_array(t_uint256)49_storage"
      }
    ],
    "types": {
      "t_address": {
        "encoding": "inplace",
        "label": "address",
        "numberOfBytes": "20"
      },
      "t_array(t_uint256)45_storage": {
        "base": "t_uint256",
        "encoding": "inplace",
        "label": "uint256[45]",
        "numberOfBytes": "1440"
      },
      "t_array(t_uint256)49_storage": {
        "base": "t_uint256",
        "encoding": "inplace",
        "label": "uint256[49]",
        "numberOfBytes": "1568"
      },
      "t_array(t_uint256)50_storage": {
        "base": "t_uint256",
        "encoding": "inplace",
        "label": "uint256[50]",
        "numberOfBytes": "1600"
      },
      "t_bool": {
        "encoding": "inplace",
        "label": "bool",
        "numberOfBytes": "1"
      },
      "t_bytes32": {
        "encoding": "inplace",
        "label": "bytes32",
        "numberOfBytes": "32"
      },
      "t_mapping(t_address,t_mapping(t_address,t_uint256))": {
        "encoding": "mapping",
        "key": "t_address",
        "label": "mapping(address => mapping(address => uint256))",
        "numberOfBytes": "32",
        "value": "t_mapping(t_address,t_uint256)"
      },
      "t_mapping(t_address,t_struct(Counter)3296_storage)": {
        "encoding": "mapping",
        "key": "t_address",
        "label": "mapping(address => struct CountersUpgradeable.Counter)",
        "numberOfBytes": "32",
        "value": "t_struct(Counter)3296_storage"
      },
      "t_mapping(t_address,t_uint256)": {
        "encoding": "mapping",
        "key": "t_address",
        "label": "mapping(address => uint256)",
        "numberOfBytes": "32",
        "value": "t_uint256"
      },
      "t_string_storage": {
        "encoding": "bytes",
        "label": "string",
        "numberOfBytes": "32"
      },
      "t_struct(Counter)3296_storage": {
        "encoding": "inplace",
        "label": "struct CountersUpgradeable.Counter",
        "members": [
          {
            "astId": 3295,
            "contract": "contracts/token/LRTToken.sol:LRTToken",
            "label": "_value",
            "offset": 0,
            "slot": "0",
            "type": "t_uint256"
          }
        ],
        "numberOfBytes": "32"
      },
      "t_uint256": {
        "encoding": "inplace",
        "label": "uint256",
        "numberOfBytes": "32"
      },
      "t_uint8": {
        "encoding": "inplace",
        "label": "uint8",
        "numberOfBytes": "1"
      }
    }
  }
}