{
  "address": "0x8eE6D82DEaB48fDb98553c3F53819d8946a2b30e",
  "abi": [
    {
      "inputs": [
        {
          "internalType": "address",
          "name": "dbAddress",
          "type": "address"
        }
      ],
      "stateMutability": "nonpayable",
      "type": "constructor"
    },
    {
      "anonymous": false,
      "inputs": [
        {
          "indexed": true,
          "internalType": "address",
          "name": "owner",
          "type": "address"
        },
        {
          "indexed": true,
          "internalType": "address",
          "name": "approved",
          "type": "address"
        },
        {
          "indexed": true,
          "internalType": "uint256",
          "name": "tokenId",
          "type": "uint256"
        }
      ],
      "name": "Approval",
      "type": "event"
    },
    {
      "anonymous": false,
      "inputs": [
        {
          "indexed": true,
          "internalType": "address",
          "name": "owner",
          "type": "address"
        },
        {
          "indexed": true,
          "internalType": "address",
          "name": "operator",
          "type": "address"
        },
        {
          "indexed": false,
          "internalType": "bool",
          "name": "approved",
          "type": "bool"
        }
      ],
      "name": "ApprovalForAll",
      "type": "event"
    },
    {
      "anonymous": false,
      "inputs": [
        {
          "indexed": false,
          "internalType": "uint8",
          "name": "version",
          "type": "uint8"
        }
      ],
      "name": "Initialized",
      "type": "event"
    },
    {
      "anonymous": false,
      "inputs": [
        {
          "indexed": true,
          "internalType": "uint256",
          "name": "tokenId",
          "type": "uint256"
        },
        {
          "indexed": false,
          "internalType": "uint256[]",
          "name": "nftInfo",
          "type": "uint256[]"
        },
        {
          "indexed": false,
          "internalType": "string",
          "name": "name",
          "type": "string"
        },
        {
          "indexed": false,
          "internalType": "address",
          "name": "payment",
          "type": "address"
        },
        {
          "indexed": false,
          "internalType": "uint256",
          "name": "amount",
          "type": "uint256"
        }
      ],
      "name": "Mint",
      "type": "event"
    },
    {
      "anonymous": false,
      "inputs": [
        {
          "indexed": true,
          "internalType": "address",
          "name": "from",
          "type": "address"
        },
        {
          "indexed": true,
          "internalType": "address",
          "name": "to",
          "type": "address"
        },
        {
          "indexed": true,
          "internalType": "uint256",
          "name": "tokenId",
          "type": "uint256"
        }
      ],
      "name": "Transfer",
      "type": "event"
    },
    {
      "anonymous": false,
      "inputs": [
        {
          "indexed": true,
          "internalType": "uint256",
          "name": "tokenId",
          "type": "uint256"
        },
        {
          "indexed": false,
          "internalType": "enum ILYNKNFT.Attribute",
          "name": "attr",
          "type": "uint8"
        },
        {
          "indexed": false,
          "internalType": "uint256",
          "name": "point",
          "type": "uint256"
        }
      ],
      "name": "Upgrade",
      "type": "event"
    },
    {
      "inputs": [],
      "name": "BLACK_HOLE",
      "outputs": [
        {
          "internalType": "address",
          "name": "",
          "type": "address"
        }
      ],
      "stateMutability": "view",
      "type": "function"
    },
    {
      "inputs": [],
      "name": "DB_CONTRACT",
      "outputs": [
        {
          "internalType": "address",
          "name": "",
          "type": "address"
        }
      ],
      "stateMutability": "view",
      "type": "function"
    },
    {
      "inputs": [],
      "name": "__LYNKNFT_init",
      "outputs": [],
      "stateMutability": "nonpayable",
      "type": "function"
    },
    {
      "inputs": [
        {
          "internalType": "uint256",
          "name": "",
          "type": "uint256"
        }
      ],
      "name": "addedVAInfoOf",
      "outputs": [
        {
          "internalType": "uint128",
          "name": "lastAddedTime",
          "type": "uint128"
        },
        {
          "internalType": "uint128",
          "name": "addedInDuration",
          "type": "uint128"
        }
      ],
      "stateMutability": "view",
      "type": "function"
    },
    {
      "inputs": [
        {
          "internalType": "address",
          "name": "to",
          "type": "address"
        },
        {
          "internalType": "uint256",
          "name": "tokenId",
          "type": "uint256"
        }
      ],
      "name": "approve",
      "outputs": [],
      "stateMutability": "nonpayable",
      "type": "function"
    },
    {
      "inputs": [
        {
          "internalType": "address",
          "name": "owner",
          "type": "address"
        }
      ],
      "name": "balanceOf",
      "outputs": [
        {
          "internalType": "uint256",
          "name": "",
          "type": "uint256"
        }
      ],
      "stateMutability": "view",
      "type": "function"
    },
    {
      "inputs": [],
      "name": "earlyBirdCounter",
      "outputs": [
        {
          "internalType": "uint256",
          "name": "",
          "type": "uint256"
        }
      ],
      "stateMutability": "view",
      "type": "function"
    },
    {
      "inputs": [],
      "name": "earlyBirdMint",
      "outputs": [],
      "stateMutability": "nonpayable",
      "type": "function"
    },
    {
      "inputs": [
        {
          "internalType": "address",
          "name": "",
          "type": "address"
        }
      ],
      "name": "earlyBirdMintedOf",
      "outputs": [
        {
          "internalType": "bool",
          "name": "",
          "type": "bool"
        }
      ],
      "stateMutability": "view",
      "type": "function"
    },
    {
      "inputs": [],
      "name": "earlyBirdWlCounter",
      "outputs": [
        {
          "internalType": "uint256",
          "name": "",
          "type": "uint256"
        }
      ],
      "stateMutability": "view",
      "type": "function"
    },
    {
      "inputs": [],
      "name": "earlyMintInfo",
      "outputs": [
        {
          "internalType": "uint256",
          "name": "_totalNum",
          "type": "uint256"
        },
        {
          "internalType": "uint256",
          "name": "_remainNum",
          "type": "uint256"
        },
        {
          "internalType": "uint256",
          "name": "_nextId",
          "type": "uint256"
        }
      ],
      "stateMutability": "view",
      "type": "function"
    },
    {
      "inputs": [
        {
          "internalType": "uint256",
          "name": "tokenId",
          "type": "uint256"
        }
      ],
      "name": "exists",
      "outputs": [
        {
          "internalType": "bool",
          "name": "",
          "type": "bool"
        }
      ],
      "stateMutability": "view",
      "type": "function"
    },
    {
      "inputs": [
        {
          "internalType": "uint256",
          "name": "tokenId",
          "type": "uint256"
        }
      ],
      "name": "getApproved",
      "outputs": [
        {
          "internalType": "address",
          "name": "",
          "type": "address"
        }
      ],
      "stateMutability": "view",
      "type": "function"
    },
    {
      "inputs": [
        {
          "internalType": "address",
          "name": "owner",
          "type": "address"
        },
        {
          "internalType": "address",
          "name": "operator",
          "type": "address"
        }
      ],
      "name": "isApprovedForAll",
      "outputs": [
        {
          "internalType": "bool",
          "name": "",
          "type": "bool"
        }
      ],
      "stateMutability": "view",
      "type": "function"
    },
    {
      "inputs": [
        {
          "internalType": "string",
          "name": "_name",
          "type": "string"
        }
      ],
      "name": "isReverseName",
      "outputs": [
        {
          "internalType": "bool",
          "name": "",
          "type": "bool"
        }
      ],
      "stateMutability": "pure",
      "type": "function"
    },
    {
      "inputs": [
        {
          "internalType": "uint256",
          "name": "_tokenId",
          "type": "uint256"
        },
        {
          "internalType": "address",
          "name": "_payment",
          "type": "address"
        },
        {
          "internalType": "string",
          "name": "_name",
          "type": "string"
        }
      ],
      "name": "mint",
      "outputs": [],
      "stateMutability": "nonpayable",
      "type": "function"
    },
    {
      "inputs": [
        {
          "internalType": "address",
          "name": "",
          "type": "address"
        }
      ],
      "name": "mintInfoOf",
      "outputs": [
        {
          "internalType": "uint128",
          "name": "lastMintTime",
          "type": "uint128"
        },
        {
          "internalType": "uint128",
          "name": "mintNumInDuration",
          "type": "uint128"
        }
      ],
      "stateMutability": "view",
      "type": "function"
    },
    {
      "inputs": [
        {
          "internalType": "uint256",
          "name": "_tokenId",
          "type": "uint256"
        },
        {
          "internalType": "address",
          "name": "_payment",
          "type": "address"
        },
        {
          "internalType": "string",
          "name": "_name",
          "type": "string"
        },
        {
          "internalType": "uint256",
          "name": "_amount",
          "type": "uint256"
        },
        {
          "internalType": "uint256",
          "name": "deadline",
          "type": "uint256"
        },
        {
          "internalType": "uint8",
          "name": "v",
          "type": "uint8"
        },
        {
          "internalType": "bytes32",
          "name": "r",
          "type": "bytes32"
        },
        {
          "internalType": "bytes32",
          "name": "s",
          "type": "bytes32"
        }
      ],
      "name": "mintWithPermit",
      "outputs": [],
      "stateMutability": "nonpayable",
      "type": "function"
    },
    {
      "inputs": [],
      "name": "name",
      "outputs": [
        {
          "internalType": "string",
          "name": "",
          "type": "string"
        }
      ],
      "stateMutability": "view",
      "type": "function"
    },
    {
      "inputs": [
        {
          "internalType": "string",
          "name": "",
          "type": "string"
        }
      ],
      "name": "nameUsed",
      "outputs": [
        {
          "internalType": "bool",
          "name": "",
          "type": "bool"
        }
      ],
      "stateMutability": "view",
      "type": "function"
    },
    {
      "inputs": [
        {
          "internalType": "uint256",
          "name": "",
          "type": "uint256"
        },
        {
          "internalType": "uint256",
          "name": "",
          "type": "uint256"
        }
      ],
      "name": "nftInfo",
      "outputs": [
        {
          "internalType": "uint256",
          "name": "",
          "type": "uint256"
        }
      ],
      "stateMutability": "view",
      "type": "function"
    },
    {
      "inputs": [
        {
          "internalType": "uint256",
          "name": "_tokenId",
          "type": "uint256"
        }
      ],
      "name": "nftInfoOf",
      "outputs": [
        {
          "internalType": "uint256[]",
          "name": "_nftInfo",
          "type": "uint256[]"
        }
      ],
      "stateMutability": "view",
      "type": "function"
    },
    {
      "inputs": [
        {
          "internalType": "uint256",
          "name": "tokenId",
          "type": "uint256"
        }
      ],
      "name": "ownerOf",
      "outputs": [
        {
          "internalType": "address",
          "name": "",
          "type": "address"
        }
      ],
      "stateMutability": "view",
      "type": "function"
    },
    {
      "inputs": [
        {
          "internalType": "address",
          "name": "_refAddress",
          "type": "address"
        }
      ],
      "name": "refEarlyBirdMint",
      "outputs": [],
      "stateMutability": "nonpayable",
      "type": "function"
    },
    {
      "inputs": [
        {
          "internalType": "address",
          "name": "from",
          "type": "address"
        },
        {
          "internalType": "address",
          "name": "to",
          "type": "address"
        },
        {
          "internalType": "uint256",
          "name": "tokenId",
          "type": "uint256"
        }
      ],
      "name": "safeTransferFrom",
      "outputs": [],
      "stateMutability": "nonpayable",
      "type": "function"
    },
    {
      "inputs": [
        {
          "internalType": "address",
          "name": "from",
          "type": "address"
        },
        {
          "internalType": "address",
          "name": "to",
          "type": "address"
        },
        {
          "internalType": "uint256",
          "name": "tokenId",
          "type": "uint256"
        },
        {
          "internalType": "bytes",
          "name": "data",
          "type": "bytes"
        }
      ],
      "name": "safeTransferFrom",
      "outputs": [],
      "stateMutability": "nonpayable",
      "type": "function"
    },
    {
      "inputs": [
        {
          "internalType": "address",
          "name": "operator",
          "type": "address"
        },
        {
          "internalType": "bool",
          "name": "approved",
          "type": "bool"
        }
      ],
      "name": "setApprovalForAll",
      "outputs": [],
      "stateMutability": "nonpayable",
      "type": "function"
    },
    {
      "inputs": [
        {
          "internalType": "bytes4",
          "name": "interfaceId",
          "type": "bytes4"
        }
      ],
      "name": "supportsInterface",
      "outputs": [
        {
          "internalType": "bool",
          "name": "",
          "type": "bool"
        }
      ],
      "stateMutability": "view",
      "type": "function"
    },
    {
      "inputs": [],
      "name": "symbol",
      "outputs": [
        {
          "internalType": "string",
          "name": "",
          "type": "string"
        }
      ],
      "stateMutability": "view",
      "type": "function"
    },
    {
      "inputs": [
        {
          "internalType": "uint256",
          "name": "index",
          "type": "uint256"
        }
      ],
      "name": "tokenByIndex",
      "outputs": [
        {
          "internalType": "uint256",
          "name": "",
          "type": "uint256"
        }
      ],
      "stateMutability": "view",
      "type": "function"
    },
    {
      "inputs": [
        {
          "internalType": "address",
          "name": "owner",
          "type": "address"
        },
        {
          "internalType": "uint256",
          "name": "index",
          "type": "uint256"
        }
      ],
      "name": "tokenOfOwnerByIndex",
      "outputs": [
        {
          "internalType": "uint256",
          "name": "",
          "type": "uint256"
        }
      ],
      "stateMutability": "view",
      "type": "function"
    },
    {
      "inputs": [
        {
          "internalType": "uint256",
          "name": "tokenId",
          "type": "uint256"
        }
      ],
      "name": "tokenURI",
      "outputs": [
        {
          "internalType": "string",
          "name": "",
          "type": "string"
        }
      ],
      "stateMutability": "view",
      "type": "function"
    },
    {
      "inputs": [],
      "name": "totalSupply",
      "outputs": [
        {
          "internalType": "uint256",
          "name": "",
          "type": "uint256"
        }
      ],
      "stateMutability": "view",
      "type": "function"
    },
    {
      "inputs": [
        {
          "internalType": "address",
          "name": "from",
          "type": "address"
        },
        {
          "internalType": "address",
          "name": "to",
          "type": "address"
        },
        {
          "internalType": "uint256",
          "name": "tokenId",
          "type": "uint256"
        }
      ],
      "name": "transferFrom",
      "outputs": [],
      "stateMutability": "nonpayable",
      "type": "function"
    },
    {
      "inputs": [
        {
          "internalType": "enum ILYNKNFT.Attribute",
          "name": "_attr",
          "type": "uint8"
        },
        {
          "internalType": "uint256",
          "name": "_tokenId",
          "type": "uint256"
        },
        {
          "internalType": "uint256",
          "name": "_point",
          "type": "uint256"
        },
        {
          "internalType": "address",
          "name": "_payment",
          "type": "address"
        }
      ],
      "name": "upgrade",
      "outputs": [],
      "stateMutability": "nonpayable",
      "type": "function"
    },
    {
      "inputs": [
        {
          "internalType": "enum ILYNKNFT.Attribute",
          "name": "_attr",
          "type": "uint8"
        },
        {
          "internalType": "uint256",
          "name": "_tokenId",
          "type": "uint256"
        },
        {
          "internalType": "uint256",
          "name": "_point",
          "type": "uint256"
        },
        {
          "internalType": "address",
          "name": "_payment",
          "type": "address"
        },
        {
          "internalType": "uint256",
          "name": "_amount",
          "type": "uint256"
        },
        {
          "internalType": "uint256",
          "name": "deadline",
          "type": "uint256"
        },
        {
          "internalType": "uint8",
          "name": "v",
          "type": "uint8"
        },
        {
          "internalType": "bytes32",
          "name": "r",
          "type": "bytes32"
        },
        {
          "internalType": "bytes32",
          "name": "s",
          "type": "bytes32"
        }
      ],
      "name": "upgradeWithPermit",
      "outputs": [],
      "stateMutability": "nonpayable",
      "type": "function"
    }
  ],
  "transactionHash": "0xc6e46ec6b067a1e795de76295ce7aab878218ccc12148b1d16c9f21dcb9e3016",
  "args": [
    "0xffE23BF49b5de36BFF1604838e3376A41bA6f72D"
  ],
  "numDeployments": 2,
  "solcInputHash": "fd4cfc5c9461e2ed86605a558a33a7f7",
  "bytecode": "0x60a06040523480156200001157600080fd5b506040516200531d3803806200531d833981016040819052620000349162000046565b6001600160a01b031660805262000078565b6000602082840312156200005957600080fd5b81516001600160a01b03811681146200007157600080fd5b9392505050565b6080516151a96200017460003960008181610427015281816107a60152818161095201528181610bd901528181610d8f01528181610e3401528181610f9a015281816115160152818161167a015281816118000152818161192e015281816119e001528181611f9b015281816121330152818161220c015281816124ff015281816125c6015281816127d8015281816129b501528181612a6001528181612b8e01528181612c6601528181612dc301528181612ea101528181613019015281816131330152818161331e01528181613446015281816138d70152818161398201528181613add01528181613b9c0152613bf401526151a96000f3fe608060405234801561001057600080fd5b506004361061021c5760003560e01c806370a0823111610125578063c87b56dd116100ad578063dcefcebc1161007c578063dcefcebc14610500578063dfa2eec014610520578063e1621a0714610533578063e67e402c14610556578063e985e9c51461056957600080fd5b8063c87b56dd146104b4578063cabaa177146104c7578063cb97200e146104da578063d49cf8e3146104ed57600080fd5b8063a22cb465116100f4578063a22cb46514610449578063a70687ae1461045c578063b6fc133a14610465578063b77c055514610499578063b88d4fde146104a157600080fd5b806370a08231146103ff5780637f6c7bc71461041257806395d89b411461041a5780639ccea0cd1461042257600080fd5b80633f8336e3116101a85780634f6ccce7116101775780634f6ccce7146103a457806355eda4e8146103b757806357e1f309146103c05780636352211e146103e35780636bc3d0a0146103f657600080fd5b80633f8336e31461031757806342842e0e1461036b578063496680761461037e5780634f558e791461039157600080fd5b80630b9b6e8b116101ef5780630b9b6e8b1461029e57806312bf27b0146102cc57806318160ddd146102df57806323b872dd146102f15780632f745c591461030457600080fd5b806301ffc9a71461022157806306fdde0314610249578063081812fc1461025e578063095ea7b314610289575b600080fd5b61023461022f366004614512565b6105a5565b60405190151581526020015b60405180910390f35b6102516105d0565b6040516102409190614587565b61027161026c36600461459a565b610662565b6040516001600160a01b039091168152602001610240565b61029c6102973660046145c8565b610689565b005b6102346102ac3660046146a1565b805160208183018101805160cc8252928201919093012091525460ff1681565b61029c6102da3660046146ea565b6107a4565b6099545b604051908152602001610240565b61029c6102ff366004614707565b610a30565b6102e36103123660046145c8565b610a61565b61034b61032536600461459a565b60cd602052600090815260409020546001600160801b0380821691600160801b90041682565b604080516001600160801b03938416815292909116602083015201610240565b61029c610379366004614707565b610af7565b61023461038c3660046146a1565b610b12565b61023461039f36600461459a565b610b1d565b6102e36103b236600461459a565b610b3c565b61027161dead81565b6103c8610bcf565b60408051938452602084019290925290820152606001610240565b6102716103f136600461459a565b610c9f565b6102e360ce5481565b6102e361040d3660046146ea565b610cff565b61029c610d85565b610251611030565b6102717f000000000000000000000000000000000000000000000000000000000000000081565b61029c610457366004614756565b61103f565b6102e360cf5481565b61034b6104733660046146ea565b60cb602052600090815260409020546001600160801b0380821691600160801b90041682565b61029c61104e565b61029c6104af36600461478f565b6111b6565b6102516104c236600461459a565b6111ee565b61029c6104d5366004614867565b611255565b61029c6104e8366004614915565b6112d6565b61029c6104fb366004614999565b61134c565b61051361050e36600461459a565b611358565b60405161024091906149e1565b6102e361052e366004614a25565b6113ba565b6102346105413660046146ea565b60d06020526000908152604090205460ff1681565b61029c610564366004614a47565b6113eb565b610234610577366004614aa3565b6001600160a01b039182166000908152606a6020908152604080832093909416825291909152205460ff1690565b60006001600160e01b0319821663780e9d6360e01b14806105ca57506105ca826113f7565b92915050565b6060606580546105df90614ad1565b80601f016020809104026020016040519081016040528092919081815260200182805461060b90614ad1565b80156106585780601f1061062d57610100808354040283529160200191610658565b820191906000526020600020905b81548152906001019060200180831161063b57829003601f168201915b5050505050905090565b600061066d82611447565b506000908152606960205260409020546001600160a01b031690565b600061069482610c9f565b9050806001600160a01b0316836001600160a01b031614156107075760405162461bcd60e51b815260206004820152602160248201527f4552433732313a20617070726f76616c20746f2063757272656e74206f776e656044820152603960f91b60648201526084015b60405180910390fd5b336001600160a01b038216148061072357506107238133610577565b6107955760405162461bcd60e51b815260206004820152603e60248201527f4552433732313a20617070726f76652063616c6c6572206973206e6f7420746f60448201527f6b656e206f776e6572206e6f7220617070726f76656420666f7220616c6c000060648201526084016106fe565b61079f83836114a6565b505050565b7f00000000000000000000000000000000000000000000000000000000000000006001600160a01b031663fa1785fe6040518163ffffffff1660e01b815260040160206040518083038186803b1580156107fd57600080fd5b505afa158015610811573d6000803e3d6000fd5b505050506040513d601f19601f820116820180604052508101906108359190614b0c565b6001600160a01b031663f3c95c60336040516001600160e01b031960e084901b1681526001600160a01b03909116600482015260240160206040518083038186803b15801561088357600080fd5b505afa158015610897573d6000803e3d6000fd5b505050506040513d601f19601f820116820180604052508101906108bb9190614b29565b15806108d6575033600090815260d0602052604090205460ff165b6109335760405162461bcd60e51b815260206004820152602860248201527f4c594e4b4e46543a20706c656173652063616c6c2077697468206561726c794260448201526734b93226b4b73a1760c11b60648201526084016106fe565b6040516354c1498d60e01b81526001600160a01b0382811660048301527f000000000000000000000000000000000000000000000000000000000000000016906354c1498d9060240160206040518083038186803b15801561099457600080fd5b505afa1580156109a8573d6000803e3d6000fd5b505050506040513d601f19601f820116820180604052508101906109cc9190614b29565b610a245760405162461bcd60e51b815260206004820152602360248201527f4c594e4b4e46543a207265662061646472657373206e6f7420696e20746865206044820152623bb61760e91b60648201526084016106fe565b610a2d81611514565b50565b610a3a3382611b03565b610a565760405162461bcd60e51b81526004016106fe90614b46565b61079f838383611b82565b6000610a6c83610cff565b8210610ace5760405162461bcd60e51b815260206004820152602b60248201527f455243373231456e756d657261626c653a206f776e657220696e646578206f7560448201526a74206f6620626f756e647360a81b60648201526084016106fe565b506001600160a01b03919091166000908152609760209081526040808320938352929052205490565b61079f838383604051806020016040528060008152506111b6565b60006105ca82611d29565b6000818152606760205260408120546001600160a01b031615156105ca565b6000610b4760995490565b8210610baa5760405162461bcd60e51b815260206004820152602c60248201527f455243373231456e756d657261626c653a20676c6f62616c20696e646578206f60448201526b7574206f6620626f756e647360a01b60648201526084016106fe565b60998281548110610bbd57610bbd614b94565b90600052602060002001549050919050565b60008060008060007f00000000000000000000000000000000000000000000000000000000000000006001600160a01b031663be1888116040518163ffffffff1660e01b8152600401604080518083038186803b158015610c2f57600080fd5b505afa158015610c43573d6000803e3d6000fd5b505050506040513d601f19601f82011682018060405250810190610c679190614baa565b9092509050610c768282614be4565b945060ce5485610c869190614be4565b935060ce5482610c969190614bfb565b92505050909192565b6000818152606760205260408120546001600160a01b0316806105ca5760405162461bcd60e51b8152602060048201526018602482015277115490cdcc8c4e881a5b9d985b1a59081d1bdad95b88125160421b60448201526064016106fe565b60006001600160a01b038216610d695760405162461bcd60e51b815260206004820152602960248201527f4552433732313a2061646472657373207a65726f206973206e6f7420612076616044820152683634b21037bbb732b960b91b60648201526084016106fe565b506001600160a01b031660009081526068602052604090205490565b6001600160a01b037f0000000000000000000000000000000000000000000000000000000000000000166354c1498d336040516001600160e01b031960e084901b1681526001600160a01b03909116600482015260240160206040518083038186803b158015610df457600080fd5b505afa158015610e08573d6000803e3d6000fd5b505050506040513d601f19601f82011682018060405250810190610e2c9190614b29565b80610f4957507f00000000000000000000000000000000000000000000000000000000000000006001600160a01b031663fa1785fe6040518163ffffffff1660e01b815260040160206040518083038186803b158015610e8b57600080fd5b505afa158015610e9f573d6000803e3d6000fd5b505050506040513d601f19601f82011682018060405250810190610ec39190614b0c565b6001600160a01b031663f3c95c60336040516001600160e01b031960e084901b1681526001600160a01b03909116600482015260240160206040518083038186803b158015610f1157600080fd5b505afa158015610f25573d6000803e3d6000fd5b505050506040513d601f19601f82011682018060405250810190610f499190614b29565b610f955760405162461bcd60e51b815260206004820152601d60248201527f4c594e4b4e46543a206e6f7420612076616c696420616464726573732e00000060448201526064016106fe565b61102e7f00000000000000000000000000000000000000000000000000000000000000006001600160a01b031663aaa2b8c86040518163ffffffff1660e01b815260040160206040518083038186803b158015610ff157600080fd5b505afa158015611005573d6000803e3d6000fd5b505050506040513d601f19601f820116820180604052508101906110299190614b0c565b611514565b565b6060606680546105df90614ad1565b61104a338383611e2d565b5050565b600054610100900460ff161580801561106e5750600054600160ff909116105b806110885750303b158015611088575060005460ff166001145b6110eb5760405162461bcd60e51b815260206004820152602e60248201527f496e697469616c697a61626c653a20636f6e747261637420697320616c72656160448201526d191e481a5b9a5d1a585b1a5e995960921b60648201526084016106fe565b6000805460ff19166001179055801561110e576000805461ff0019166101001790555b611116611efc565b61111e611f04565b6111666040518060400160405280600781526020016613165392d3919560ca1b8152506040518060400160405280600781526020016613165392d3919560ca1b815250611f2b565b61116e611f5c565b8015610a2d576000805461ff0019169055604051600181527f7f26b83ff96e1f2b6a682f133852f6798a09c465da95921460cefb38474024989060200160405180910390a150565b6111c03383611b03565b6111dc5760405162461bcd60e51b81526004016106fe90614b46565b6111e884848484611f64565b50505050565b60606111f982611447565b6000611203611f97565b90506000815111611223576040518060200160405280600081525061124e565b8061122d84612033565b60405160200161123e929190614c13565b6040516020818303038152906040525b9392505050565b60405163d505accf60e01b81526001600160a01b0389169063d505accf9061128d90339030908a908a908a908a908a90600401614c42565b600060405180830381600087803b1580156112a757600080fd5b505af11580156112bb573d6000803e3d6000fd5b505050506112cb89898989612131565b505050505050505050565b60405163d505accf60e01b81526001600160a01b0387169063d505accf9061130e90339030908a908a908a908a908a90600401614c42565b600060405180830381600087803b15801561132857600080fd5b505af115801561133c573d6000803e3d6000fd5b505050506112cb898989896127d6565b6111e8848484846127d6565b600081815260ca60209081526040918290208054835181840281018401909452808452606093928301828280156113ae57602002820191906000526020600020905b81548152602001906001019080831161139a575b50505050509050919050565b60ca60205281600052604060002081815481106113d657600080fd5b90600052602060002001600091509150505481565b6111e884848484612131565b60006001600160e01b031982166380ac58cd60e01b148061142857506001600160e01b03198216635b5e139f60e01b145b806105ca57506301ffc9a760e01b6001600160e01b03198316146105ca565b6000818152606760205260409020546001600160a01b0316610a2d5760405162461bcd60e51b8152602060048201526018602482015277115490cdcc8c4e881a5b9d985b1a59081d1bdad95b88125160421b60448201526064016106fe565b600081815260696020526040902080546001600160a01b0319166001600160a01b03841690811790915581906114db82610c9f565b6001600160a01b03167f8c5be1e5ebec7d5bd14f71427d1e84f3dd0314c0f7b2291e5b200ac8c7c3b92560405160405180910390a45050565b7f00000000000000000000000000000000000000000000000000000000000000006001600160a01b031663ea0d14656040518163ffffffff1660e01b815260040160206040518083038186803b15801561156d57600080fd5b505afa158015611581573d6000803e3d6000fd5b505050506040513d601f19601f820116820180604052508101906115a59190614b29565b6115ed5760405162461bcd60e51b8152602060048201526019602482015278262ca725a7232a1d1031b0b73737ba1036b4b73a103cb2ba1760391b60448201526064016106fe565b33600090815260d0602052604090205460ff161561164d5760405162461bcd60e51b815260206004820152601860248201527f4c594e4b4e46543a20616c7265616479206d696e7465642e000000000000000060448201526064016106fe565b33600090815260d060209081526040808320805460ff191660011790558051637d0bc2ff60e11b815290517f00000000000000000000000000000000000000000000000000000000000000006001600160a01b03169263fa1785fe9260048082019391829003018186803b1580156116c457600080fd5b505afa1580156116d8573d6000803e3d6000fd5b505050506040513d601f19601f820116820180604052508101906116fc9190614b0c565b90506001600160a01b03811663f3c95c60336040516001600160e01b031960e084901b1681526001600160a01b03909116600482015260240160206040518083038186803b15801561174d57600080fd5b505afa158015611761573d6000803e3d6000fd5b505050506040513d601f19601f820116820180604052508101906117859190614b29565b6117fb576001600160a01b0381166323b3f2a5336040516001600160e01b031960e084901b1681526001600160a01b0391821660048201529085166024820152604401600060405180830381600087803b1580156117e257600080fd5b505af11580156117f6573d6000803e3d6000fd5b505050505b6000807f00000000000000000000000000000000000000000000000000000000000000006001600160a01b031663be1888116040518163ffffffff1660e01b8152600401604080518083038186803b15801561185657600080fd5b505afa15801561186a573d6000803e3d6000fd5b505050506040513d601f19601f8201168201806040525081019061188e9190614baa565b91509150600060ce54836118a29190614bfb565b90508181106118e85760405162461bcd60e51b8152602060048201526012602482015271262ca725a7232a1d1039b7b6321037baba1760711b60448201526064016106fe565b60ce80549060006118f883614c83565b9190505550600061190882612033565b6040516020016119189190614c9e565b60405160208183030381529060405290506000807f00000000000000000000000000000000000000000000000000000000000000006001600160a01b0316637af0cac36040518163ffffffff1660e01b8152600401604080518083038186803b15801561198457600080fd5b505afa158015611998573d6000803e3d6000fd5b505050506040513d601f19601f820116820180604052508101906119bc9190614cc7565b915091506119d3826119cb3390565b836006613442565b60405180608001604052807f00000000000000000000000000000000000000000000000000000000000000006001600160a01b03166364db03b86040518163ffffffff1660e01b815260040160206040518083038186803b158015611a3757600080fd5b505afa158015611a4b573d6000803e3d6000fd5b505050506040513d601f19601f82011682018060405250810190611a6f9190614cf5565b8152600060208083018290526040808401839052606090930182905287825260ca905220611a9e916004614429565b50611aa9338561365a565b837f43332af98367d01c3bc9be42717917c42e1bd0084f4cdad927e9b4c06471d35160ca6000878152602001908152602001600020858585604051611af19493929190614d0e565b60405180910390a25050505050505050565b600080611b0f83610c9f565b9050806001600160a01b0316846001600160a01b03161480611b5657506001600160a01b038082166000908152606a602090815260408083209388168352929052205460ff165b80611b7a5750836001600160a01b0316611b6f84610662565b6001600160a01b0316145b949350505050565b826001600160a01b0316611b9582610c9f565b6001600160a01b031614611bf95760405162461bcd60e51b815260206004820152602560248201527f4552433732313a207472616e736665722066726f6d20696e636f72726563742060448201526437bbb732b960d91b60648201526084016106fe565b6001600160a01b038216611c5b5760405162461bcd60e51b8152602060048201526024808201527f4552433732313a207472616e7366657220746f20746865207a65726f206164646044820152637265737360e01b60648201526084016106fe565b611c66838383613674565b611c716000826114a6565b6001600160a01b0383166000908152606860205260408120805460019290611c9a908490614be4565b90915550506001600160a01b0382166000908152606860205260408120805460019290611cc8908490614bfb565b909155505060008181526067602052604080822080546001600160a01b0319166001600160a01b0386811691821790925591518493918716917fddf252ad1be2c89b69c2b068fc378daa952ba7f163c4a11628f55a4df523b3ef91a4505050565b60008181805b8251811015611e205780158015611d605750828181518110611d5357611d53614b94565b60209101015160f81c6030145b8015611d6d575060008351115b15611d7d57506000949350505050565b6030838281518110611d9157611d91614b94565b016020015160f81c1080611dbe57506039838281518110611db457611db4614b94565b016020015160f81c115b15611dce57506000949350505050565b6030838281518110611de257611de2614b94565b0160200151611df4919060f81c614d81565b60ff16611e0283600a614da4565b611e0c9190614bfb565b915080611e1881614c83565b915050611d2f565b50620186a0119392505050565b816001600160a01b0316836001600160a01b03161415611e8f5760405162461bcd60e51b815260206004820152601960248201527f4552433732313a20617070726f766520746f2063616c6c65720000000000000060448201526064016106fe565b6001600160a01b038381166000818152606a6020908152604080832094871680845294825291829020805460ff191686151590811790915591519182527f17307eab39ab6107e8899845ad3d59bd9653f200f220920489ca2b5937696c31910160405180910390a3505050565b610a2d61372c565b600054610100900460ff1661102e5760405162461bcd60e51b81526004016106fe90614dc3565b600054610100900460ff16611f525760405162461bcd60e51b81526004016106fe90614dc3565b61104a828261376e565b61102e611f04565b611f6f848484611b82565b611f7b848484846137bc565b6111e85760405162461bcd60e51b81526004016106fe90614e0e565b60607f00000000000000000000000000000000000000000000000000000000000000006001600160a01b031663d547cfb76040518163ffffffff1660e01b815260040160006040518083038186803b158015611ff257600080fd5b505afa158015612006573d6000803e3d6000fd5b505050506040513d6000823e601f3d908101601f1916820160405261202e9190810190614e60565b905090565b6060816120575750506040805180820190915260018152600360fc1b602082015290565b8160005b8115612081578061206b81614c83565b915061207a9050600a83614eed565b915061205b565b60008167ffffffffffffffff81111561209c5761209c6145f4565b6040519080825280601f01601f1916602001820160405280156120c6576020820181803683370190505b5090505b8415611b7a576120db600183614be4565b91506120e8600a86614f01565b6120f3906030614bfb565b60f81b81838151811061210857612108614b94565b60200101906001600160f81b031916908160001a90535061212a600a86614eed565b94506120ca565b7f00000000000000000000000000000000000000000000000000000000000000006001600160a01b03166366227eb96040518163ffffffff1660e01b815260040160206040518083038186803b15801561218a57600080fd5b505afa15801561219e573d6000803e3d6000fd5b505050506040513d601f19601f820116820180604052508101906121c29190614b29565b61220a5760405162461bcd60e51b8152602060048201526019602482015278262ca725a7232a1d1031b0b73737ba1036b4b73a103cb2ba1760391b60448201526064016106fe565b7f00000000000000000000000000000000000000000000000000000000000000006001600160a01b031663fa1785fe6040518163ffffffff1660e01b815260040160206040518083038186803b15801561226357600080fd5b505afa158015612277573d6000803e3d6000fd5b505050506040513d601f19601f8201168201806040525081019061229b9190614b0c565b6001600160a01b031663f3c95c60336040516001600160e01b031960e084901b1681526001600160a01b03909116600482015260240160206040518083038186803b1580156122e957600080fd5b505afa1580156122fd573d6000803e3d6000fd5b505050506040513d601f19601f820116820180604052508101906123219190614b29565b61236d5760405162461bcd60e51b815260206004820152601a60248201527f4c594e4b4e46543a206e6f7420612076616c696420757365722e00000000000060448201526064016106fe565b60cc828260405161237f929190614f15565b9081526040519081900360200190205460ff16156123df5760405162461bcd60e51b815260206004820152601e60248201527f4c594e4b4e46543a206e616d6520616c726561647920696e20757365642e000060448201526064016106fe565b61241e82828080601f016020809104026020016040519081016040528093929190818152602001838380828437600092019190915250611d2992505050565b1561246b5760405162461bcd60e51b815260206004820152601760248201527f4c594e4b4e46543a207265766572736564206e616d652e00000000000000000060448201526064016106fe565b600160cc838360405161247f929190614f15565b908152604051908190036020019020805491151560ff19909216919091179055600060cb816124ab3390565b6001600160a01b03908116825260208083019390935260409182016000208251808401845290546001600160801b038082168352600160801b909104168185015282516303ed69ad60e21b815292519094507f000000000000000000000000000000000000000000000000000000000000000090911692630fb5a6b49260048082019391829003018186803b15801561254357600080fd5b505afa158015612557573d6000803e3d6000fd5b505050506040513d601f19601f8201168201806040525081019061257b9190614cf5565b8151612590906001600160801b031642614be4565b106125c4576000602082810182905233825260cb90526040902080546001600160801b031916426001600160801b03161790555b7f00000000000000000000000000000000000000000000000000000000000000006001600160a01b031663600a2f826040518163ffffffff1660e01b815260040160206040518083038186803b15801561261d57600080fd5b505afa158015612631573d6000803e3d6000fd5b505050506040513d601f19601f820116820180604052508101906126559190614cf5565b81602001516001600160801b0316106126bc5760405162461bcd60e51b815260206004820152602360248201527f4c594e4b4e46543a2063616e6e6f74206d696e74206d6f726520696e2061206460448201526230bc9760e91b60648201526084016106fe565b60208101516126cc906001614f25565b33600090815260cb6020526040812080546001600160801b03938416600160801b0293169290921790915561270186866138c9565b90506127108533836000613442565b60008061271c33613d28565b91509150604051806080016040528060008152602001838152602001828152602001600081525060ca60008a8152602001908152602001600020906004612764929190614429565b5061276f338961365a565b877f43332af98367d01c3bc9be42717917c42e1bd0084f4cdad927e9b4c06471d35160ca60008b815260200190815260200160002088886040516020016127b7929190614f47565b60408051601f1981840301815290829052611af192918c908990614d0e565b7f00000000000000000000000000000000000000000000000000000000000000006001600160a01b031663fa1785fe6040518163ffffffff1660e01b815260040160206040518083038186803b15801561282f57600080fd5b505afa158015612843573d6000803e3d6000fd5b505050506040513d601f19601f820116820180604052508101906128679190614b0c565b6001600160a01b031663f3c95c60336040516001600160e01b031960e084901b1681526001600160a01b03909116600482015260240160206040518083038186803b1580156128b557600080fd5b505afa1580156128c9573d6000803e3d6000fd5b505050506040513d601f19601f820116820180604052508101906128ed9190614b29565b6129395760405162461bcd60e51b815260206004820152601a60248201527f4c594e4b4e46543a206e6f7420612076616c696420757365722e00000000000060448201526064016106fe565b323314801561295857503361294d84610c9f565b6001600160a01b0316145b61299d5760405162461bcd60e51b8152602060048201526016602482015275262ca725a7232a1d103737ba103a34329037bbb732b960511b60448201526064016106fe565b8360038111156129af576129af614f61565b612b25577f00000000000000000000000000000000000000000000000000000000000000006001600160a01b03166377b330c96040518163ffffffff1660e01b815260040160206040518083038186803b158015612a0c57600080fd5b505afa158015612a20573d6000803e3d6000fd5b505050506040513d601f19601f82011682018060405250810190612a449190614b0c565b6001600160a01b0316816001600160a01b03161480612b0457507f00000000000000000000000000000000000000000000000000000000000000006001600160a01b03166319ca55ea6040518163ffffffff1660e01b815260040160206040518083038186803b158015612ab757600080fd5b505afa158015612acb573d6000803e3d6000fd5b505050506040513d601f19601f82011682018060405250810190612aef9190614b0c565b6001600160a01b0316816001600160a01b0316145b612b205760405162461bcd60e51b81526004016106fe90614f77565b6131f2565b836003811115612b3757612b37614f61565b60011415612d9d57600083815260cd60209081526040918290208251808401845290546001600160801b038082168352600160801b909104168183015282516303ed69ad60e21b8152925190926001600160a01b037f00000000000000000000000000000000000000000000000000000000000000001692630fb5a6b492600480840193829003018186803b158015612bcf57600080fd5b505afa158015612be3573d6000803e3d6000fd5b505050506040513d601f19601f82011682018060405250810190612c079190614cf5565b8151612c1c906001600160801b031642614be4565b10612c50576000602082810182905285825260cd90526040902080546001600160801b0319166001600160801b0342161790555b60405163317369c560e11b8152600481018590527f00000000000000000000000000000000000000000000000000000000000000006001600160a01b0316906362e6d38a9060240160206040518083038186803b158015612cb057600080fd5b505afa158015612cc4573d6000803e3d6000fd5b505050506040513d601f19601f82011682018060405250810190612ce89190614cf5565b8382602001516001600160801b0316612d019190614bfb565b1115612d5e5760405162461bcd60e51b815260206004820152602660248201527f4c594e4b4e46543a2063616e6e6f742075706772616465206d6f726520696e2060448201526530903230bc9760d11b60648201526084016106fe565b828160200151612d6e9190614f25565b600085815260cd6020526040902080546001600160801b03928316600160801b02921691909117905550613131565b60006001856003811115612db357612db3614f61565b612dbd9190614be4565b905060007f00000000000000000000000000000000000000000000000000000000000000006001600160a01b031663b2cd99af836003811115612e0257612e02614f61565b600088815260ca60205260409020805486908110612e2257612e22614b94565b90600052602060002001546040518363ffffffff1660e01b8152600401612e4a929190614fae565b604080518083038186803b158015612e6157600080fd5b505afa158015612e75573d6000803e3d6000fd5b505050506040513d601f19601f82011682018060405250810190612e999190614baa565b5090506000807f00000000000000000000000000000000000000000000000000000000000000006001600160a01b031663b2cd99af8960ca60008b81526020019081526020016000208b6003811115612ef457612ef4614f61565b81548110612f0457612f04614b94565b906000526020600020015489612f1a9190614bfb565b6040518363ffffffff1660e01b8152600401612f37929190614fae565b604080518083038186803b158015612f4e57600080fd5b505afa158015612f62573d6000803e3d6000fd5b505050506040513d601f19601f82011682018060405250810190612f869190614baa565b9150915081831180612fa057508183148015612fa0575080155b612fe75760405162461bcd60e51b8152602060048201526018602482015277262ca725a7232a1d103632bb32b61037bb32b9333637bb9760411b60448201526064016106fe565b876003811115612ff957612ff9614f61565b6002141561312c57600087815260ca602052604081206001600160a01b037f0000000000000000000000000000000000000000000000000000000000000000169063b2cd99af908390818154811061305357613053614b94565b90600052602060002001546040518363ffffffff1660e01b815260040161307b929190614fae565b604080518083038186803b15801561309257600080fd5b505afa1580156130a6573d6000803e3d6000fd5b505050506040513d601f19601f820116820180604052508101906130ca9190614baa565b509050828111806130e3575082811480156130e3575081155b61312a5760405162461bcd60e51b8152602060048201526018602482015277262ca725a7232a1d103632bb32b61037bb32b9333637bb9760411b60448201526064016106fe565b505b505050505b7f00000000000000000000000000000000000000000000000000000000000000006001600160a01b031663c2e30dd06040518163ffffffff1660e01b815260040160206040518083038186803b15801561318a57600080fd5b505afa15801561319e573d6000803e3d6000fd5b505050506040513d601f19601f820116820180604052508101906131c29190614b0c565b6001600160a01b0316816001600160a01b0316146131f25760405162461bcd60e51b81526004016106fe90614f77565b6000816001600160a01b031663313ce5676040518163ffffffff1660e01b815260040160206040518083038186803b15801561322d57600080fd5b505afa158015613241573d6000803e3d6000fd5b505050506040513d601f19601f820116820180604052508101906132659190614fda565b60ff169050600061327782600a6150db565b6132819085614da4565b90506132908333836004613442565b600085815260ca6020526040902084908760038111156132b2576132b2614f61565b815481106132c2576132c2614b94565b9060005260206000200160008282546132db9190614bfb565b92505081905550847f6a4348800167e375a04ba455a3563b96544c3d4a8662a4ca79307485fb6dbfc18786604051613314929190614fae565b60405180910390a27f00000000000000000000000000000000000000000000000000000000000000006001600160a01b031663fa1785fe6040518163ffffffff1660e01b815260040160206040518083038186803b15801561337557600080fd5b505afa158015613389573d6000803e3d6000fd5b505050506040513d601f19601f820116820180604052508101906133ad9190614b0c565b6001600160a01b031663562afdf5338860038111156133ce576133ce614f61565b156133da5760006133dc565b865b6040516001600160e01b031960e085901b1681526001600160a01b0390921660048301526024820152604401600060405180830381600087803b15801561342257600080fd5b505af1158015613436573d6000803e3d6000fd5b50505050505050505050565b60007f00000000000000000000000000000000000000000000000000000000000000006001600160a01b031663d769d48b83600681111561348557613485614f61565b6040518263ffffffff1660e01b81526004016134a391815260200190565b60206040518083038186803b1580156134bb57600080fd5b505afa1580156134cf573d6000803e3d6000fd5b505050506040513d601f19601f820116820180604052508101906134f39190614b0c565b90506001600160a01b038516613562578234146135525760405162461bcd60e51b815260206004820152601c60248201527f62617365436f6e74726163743a20696e76616c69642076616c75652e0000000060448201526064016106fe565b61355c8184613dbf565b506111e8565b604051636eb1769f60e11b81526001600160a01b03858116600483015230602483015284919087169063dd62ed3e9060440160206040518083038186803b1580156135ac57600080fd5b505afa1580156135c0573d6000803e3d6000fd5b505050506040513d601f19601f820116820180604052508101906135e49190614cf5565b101561363e5760405162461bcd60e51b8152602060048201526024808201527f62617365436f6e74726163743a20696e73756666696369656e7420616c6c6f77604482015263616e636560e01b60648201526084016106fe565b6136536001600160a01b038616858386613ed8565b5050505050565b61104a828260405180602001604052806000815250613f32565b6001600160a01b0383166136cf576136ca81609980546000838152609a60205260408120829055600182018355919091527f72a152ddfb8e864297c917af52ea6c1c68aead0fee1a62673fcc7e0c94979d000155565b6136f2565b816001600160a01b0316836001600160a01b0316146136f2576136f28382613f65565b6001600160a01b0382166137095761079f81614002565b826001600160a01b0316826001600160a01b03161461079f5761079f82826140b1565b60c954604080516020810192909252429082015244606082015260009060800160408051601f19818403018152919052805160209091012060c9819055919050565b600054610100900460ff166137955760405162461bcd60e51b81526004016106fe90614dc3565b81516137a8906065906020850190614474565b50805161079f906066906020840190614474565b60006001600160a01b0384163b156138be57604051630a85bd0160e11b81526001600160a01b0385169063150b7a02906138009033908990889088906004016150e7565b602060405180830381600087803b15801561381a57600080fd5b505af192505050801561384a575060408051601f3d908101601f1916820190925261384791810190615124565b60015b6138a4573d808015613878576040519150601f19603f3d011682016040523d82523d6000602084013e61387d565b606091505b50805161389c5760405162461bcd60e51b81526004016106fe90614e0e565b805181602001fd5b6001600160e01b031916630a85bd0160e11b149050611b7a565b506001949350505050565b6000816001600160a01b03167f00000000000000000000000000000000000000000000000000000000000000006001600160a01b03166319ca55ea6040518163ffffffff1660e01b815260040160206040518083038186803b15801561392e57600080fd5b505afa158015613942573d6000803e3d6000fd5b505050506040513d601f19601f820116820180604052508101906139669190614b0c565b6001600160a01b03161480613a1c5750816001600160a01b03167f00000000000000000000000000000000000000000000000000000000000000006001600160a01b03166377b330c96040518163ffffffff1660e01b815260040160206040518083038186803b1580156139d957600080fd5b505afa1580156139ed573d6000803e3d6000fd5b505050506040513d601f19601f82011682018060405250810190613a119190614b0c565b6001600160a01b0316145b613a385760405162461bcd60e51b81526004016106fe90614f77565b6000826001600160a01b031663313ce5676040518163ffffffff1660e01b815260040160206040518083038186803b158015613a7357600080fd5b505afa158015613a87573d6000803e3d6000fd5b505050506040513d601f19601f82011682018060405250810190613aab9190614fda565b60ff1690506000620493e08510613b7157613ac782600a6150db565b6040516330c3d99f60e11b8152600260048201527f00000000000000000000000000000000000000000000000000000000000000006001600160a01b031690636187b33e906024015b60206040518083038186803b158015613b2857600080fd5b505afa158015613b3c573d6000803e3d6000fd5b505050506040513d601f19601f82011682018060405250810190613b609190614cf5565b613b6a9190614da4565b9050613c83565b62030d408510613bd357613b8682600a6150db565b6040516330c3d99f60e11b8152600160048201527f00000000000000000000000000000000000000000000000000000000000000006001600160a01b031690636187b33e90602401613b10565b613bde82600a6150db565b6040516330c3d99f60e11b8152600060048201527f00000000000000000000000000000000000000000000000000000000000000006001600160a01b031690636187b33e9060240160206040518083038186803b158015613c3e57600080fd5b505afa158015613c52573d6000803e3d6000fd5b505050506040513d601f19601f82011682018060405250810190613c769190614cf5565b613c809190614da4565b90505b620186a0851015613cd65760405162461bcd60e51b815260206004820152601a60248201527f4c594e4b4e46543a207265766572736520746f6b656e2069642e00000000000060448201526064016106fe565b62061a808510611b7a5760405162461bcd60e51b815260206004820152601c60248201527f4c594e4b4e46543a20746f6b656e20696420746f6f206c617267652e0000000060448201526064016106fe565b6000806000613d3561372c565b90508084604051602001613d6592919091825260601b6bffffffffffffffffffffffff1916602082015260340190565b60408051601f1981840301815291905280516020909101209050613d8d600560ff8316614f01565b613d98906001614bfb565b9250613dac600360ff608084901c16614f01565b613db7906001614bfb565b915050915091565b80471015613e0f5760405162461bcd60e51b815260206004820152601d60248201527f416464726573733a20696e73756666696369656e742062616c616e636500000060448201526064016106fe565b6000826001600160a01b03168260405160006040518083038185875af1925050503d8060008114613e5c576040519150601f19603f3d011682016040523d82523d6000602084013e613e61565b606091505b505090508061079f5760405162461bcd60e51b815260206004820152603a60248201527f416464726573733a20756e61626c6520746f2073656e642076616c75652c207260448201527f6563697069656e74206d6179206861766520726576657274656400000000000060648201526084016106fe565b604080516001600160a01b0385811660248301528416604482015260648082018490528251808303909101815260849091019091526020810180516001600160e01b03166323b872dd60e01b1790526111e89085906140f5565b613f3c83836141c7565b613f4960008484846137bc565b61079f5760405162461bcd60e51b81526004016106fe90614e0e565b60006001613f7284610cff565b613f7c9190614be4565b600083815260986020526040902054909150808214613fcf576001600160a01b03841660009081526097602090815260408083208584528252808320548484528184208190558352609890915290208190555b5060009182526098602090815260408084208490556001600160a01b039094168352609781528383209183525290812055565b60995460009061401490600190614be4565b6000838152609a60205260408120546099805493945090928490811061403c5761403c614b94565b90600052602060002001549050806099838154811061405d5761405d614b94565b6000918252602080832090910192909255828152609a9091526040808220849055858252812055609980548061409557614095615141565b6001900381819060005260206000200160009055905550505050565b60006140bc83610cff565b6001600160a01b039093166000908152609760209081526040808320868452825280832085905593825260989052919091209190915550565b600061414a826040518060400160405280602081526020017f5361666545524332303a206c6f772d6c6576656c2063616c6c206661696c6564815250856001600160a01b03166143159092919063ffffffff16565b80519091501561079f57808060200190518101906141689190614b29565b61079f5760405162461bcd60e51b815260206004820152602a60248201527f5361666545524332303a204552433230206f7065726174696f6e20646964206e6044820152691bdd081cdd58d8d9595960b21b60648201526084016106fe565b6001600160a01b03821661421d5760405162461bcd60e51b815260206004820181905260248201527f4552433732313a206d696e7420746f20746865207a65726f206164647265737360448201526064016106fe565b6000818152606760205260409020546001600160a01b0316156142825760405162461bcd60e51b815260206004820152601c60248201527f4552433732313a20746f6b656e20616c7265616479206d696e7465640000000060448201526064016106fe565b61428e60008383613674565b6001600160a01b03821660009081526068602052604081208054600192906142b7908490614bfb565b909155505060008181526067602052604080822080546001600160a01b0319166001600160a01b03861690811790915590518392907fddf252ad1be2c89b69c2b068fc378daa952ba7f163c4a11628f55a4df523b3ef908290a45050565b6060611b7a8484600085856001600160a01b0385163b6143775760405162461bcd60e51b815260206004820152601d60248201527f416464726573733a2063616c6c20746f206e6f6e2d636f6e747261637400000060448201526064016106fe565b600080866001600160a01b031685876040516143939190615157565b60006040518083038185875af1925050503d80600081146143d0576040519150601f19603f3d011682016040523d82523d6000602084013e6143d5565b606091505b50915091506143e58282866143f0565b979650505050505050565b606083156143ff57508161124e565b82511561440f5782518084602001fd5b8160405162461bcd60e51b81526004016106fe9190614587565b828054828255906000526020600020908101928215614464579160200282015b82811115614464578251825591602001919060010190614449565b506144709291506144e7565b5090565b82805461448090614ad1565b90600052602060002090601f0160209004810192826144a25760008555614464565b82601f106144bb57805160ff1916838001178555614464565b828001600101855582156144645791820182811115614464578251825591602001919060010190614449565b5b8082111561447057600081556001016144e8565b6001600160e01b031981168114610a2d57600080fd5b60006020828403121561452457600080fd5b813561124e816144fc565b60005b8381101561454a578181015183820152602001614532565b838111156111e85750506000910152565b6000815180845261457381602086016020860161452f565b601f01601f19169290920160200192915050565b60208152600061124e602083018461455b565b6000602082840312156145ac57600080fd5b5035919050565b6001600160a01b0381168114610a2d57600080fd5b600080604083850312156145db57600080fd5b82356145e6816145b3565b946020939093013593505050565b634e487b7160e01b600052604160045260246000fd5b604051601f8201601f1916810167ffffffffffffffff81118282101715614633576146336145f4565b604052919050565b600067ffffffffffffffff821115614655576146556145f4565b50601f01601f191660200190565b60006146766146718461463b565b61460a565b905082815283838301111561468a57600080fd5b828260208301376000602084830101529392505050565b6000602082840312156146b357600080fd5b813567ffffffffffffffff8111156146ca57600080fd5b8201601f810184136146db57600080fd5b611b7a84823560208401614663565b6000602082840312156146fc57600080fd5b813561124e816145b3565b60008060006060848603121561471c57600080fd5b8335614727816145b3565b92506020840135614737816145b3565b929592945050506040919091013590565b8015158114610a2d57600080fd5b6000806040838503121561476957600080fd5b8235614774816145b3565b9150602083013561478481614748565b809150509250929050565b600080600080608085870312156147a557600080fd5b84356147b0816145b3565b935060208501356147c0816145b3565b925060408501359150606085013567ffffffffffffffff8111156147e357600080fd5b8501601f810187136147f457600080fd5b61480387823560208401614663565b91505092959194509250565b60008083601f84011261482157600080fd5b50813567ffffffffffffffff81111561483957600080fd5b60208301915083602082850101111561485157600080fd5b9250929050565b60ff81168114610a2d57600080fd5b60008060008060008060008060006101008a8c03121561488657600080fd5b8935985060208a0135614898816145b3565b975060408a013567ffffffffffffffff8111156148b457600080fd5b6148c08c828d0161480f565b90985096505060608a0135945060808a0135935060a08a01356148e281614858565b8093505060c08a0135915060e08a013590509295985092959850929598565b80356004811061491057600080fd5b919050565b60008060008060008060008060006101208a8c03121561493457600080fd5b61493d8a614901565b985060208a0135975060408a0135965060608a013561495b816145b3565b955060808a0135945060a08a0135935060c08a013561497981614858565b8093505060e08a013591506101008a013590509295985092959850929598565b600080600080608085870312156149af57600080fd5b6149b885614901565b9350602085013592506040850135915060608501356149d6816145b3565b939692955090935050565b6020808252825182820181905260009190848201906040850190845b81811015614a19578351835292840192918401916001016149fd565b50909695505050505050565b60008060408385031215614a3857600080fd5b50508035926020909101359150565b60008060008060608587031215614a5d57600080fd5b843593506020850135614a6f816145b3565b9250604085013567ffffffffffffffff811115614a8b57600080fd5b614a978782880161480f565b95989497509550505050565b60008060408385031215614ab657600080fd5b8235614ac1816145b3565b91506020830135614784816145b3565b600181811c90821680614ae557607f821691505b60208210811415614b0657634e487b7160e01b600052602260045260246000fd5b50919050565b600060208284031215614b1e57600080fd5b815161124e816145b3565b600060208284031215614b3b57600080fd5b815161124e81614748565b6020808252602e908201527f4552433732313a2063616c6c6572206973206e6f7420746f6b656e206f776e6560408201526d1c881b9bdc88185c1c1c9bdd995960921b606082015260800190565b634e487b7160e01b600052603260045260246000fd5b60008060408385031215614bbd57600080fd5b505080516020909101519092909150565b634e487b7160e01b600052601160045260246000fd5b600082821015614bf657614bf6614bce565b500390565b60008219821115614c0e57614c0e614bce565b500190565b60008351614c2581846020880161452f565b835190830190614c3981836020880161452f565b01949350505050565b6001600160a01b0397881681529590961660208601526040850193909352606084019190915260ff16608083015260a082015260c081019190915260e00190565b6000600019821415614c9757614c97614bce565b5060010190565b60008251614cb081846020870161452f565b642e6c796e6b60d81b920191825250600501919050565b60008060408385031215614cda57600080fd5b8251614ce5816145b3565b6020939093015192949293505050565b600060208284031215614d0757600080fd5b5051919050565b6000608082016080835280875480835260a08501915088600052602092508260002060005b82811015614d4f57815484529284019260019182019101614d33565b50505083810382850152614d63818861455b565b6001600160a01b039690961660408501525050506060015292915050565b600060ff821660ff841680821015614d9b57614d9b614bce565b90039392505050565b6000816000190483118215151615614dbe57614dbe614bce565b500290565b6020808252602b908201527f496e697469616c697a61626c653a20636f6e7472616374206973206e6f74206960408201526a6e697469616c697a696e6760a81b606082015260800190565b60208082526032908201527f4552433732313a207472616e7366657220746f206e6f6e20455243373231526560408201527131b2b4bb32b91034b6b83632b6b2b73a32b960711b606082015260800190565b600060208284031215614e7257600080fd5b815167ffffffffffffffff811115614e8957600080fd5b8201601f81018413614e9a57600080fd5b8051614ea86146718261463b565b818152856020838501011115614ebd57600080fd5b614ece82602083016020860161452f565b95945050505050565b634e487b7160e01b600052601260045260246000fd5b600082614efc57614efc614ed7565b500490565b600082614f1057614f10614ed7565b500690565b8183823760009101908152919050565b60006001600160801b03808316818516808303821115614c3957614c39614bce565b81838237642e6c796e6b60d81b9101908152600501919050565b634e487b7160e01b600052602160045260246000fd5b6020808252601d908201527f4c594e4b4e46543a20756e737570706f72746564207061796d656e742e000000604082015260600190565b6040810160048410614fd057634e487b7160e01b600052602160045260246000fd5b9281526020015290565b600060208284031215614fec57600080fd5b815161124e81614858565b600181815b8085111561503257816000190482111561501857615018614bce565b8085161561502557918102915b93841c9390800290614ffc565b509250929050565b600082615049575060016105ca565b81615056575060006105ca565b816001811461506c576002811461507657615092565b60019150506105ca565b60ff84111561508757615087614bce565b50506001821b6105ca565b5060208310610133831016604e8410600b84101617156150b5575081810a6105ca565b6150bf8383614ff7565b80600019048211156150d3576150d3614bce565b029392505050565b600061124e838361503a565b6001600160a01b038581168252841660208201526040810183905260806060820181905260009061511a9083018461455b565b9695505050505050565b60006020828403121561513657600080fd5b815161124e816144fc565b634e487b7160e01b600052603160045260246000fd5b6000825161516981846020870161452f565b919091019291505056fea26469706673582212208a322ad450aa1fc3e320a0fd70950d1dab6ac85d23e88efb6ced6011636379d164736f6c63430008090033",
  "devdoc": {
    "kind": "dev",
    "methods": {
      "approve(address,uint256)": {
        "details": "See {IERC721-approve}."
      },
      "balanceOf(address)": {
        "details": "See {IERC721-balanceOf}."
      },
      "getApproved(uint256)": {
        "details": "See {IERC721-getApproved}."
      },
      "isApprovedForAll(address,address)": {
        "details": "See {IERC721-isApprovedForAll}."
      },
      "name()": {
        "details": "See {IERC721Metadata-name}."
      },
      "ownerOf(uint256)": {
        "details": "See {IERC721-ownerOf}."
      },
      "safeTransferFrom(address,address,uint256)": {
        "details": "See {IERC721-safeTransferFrom}."
      },
      "safeTransferFrom(address,address,uint256,bytes)": {
        "details": "See {IERC721-safeTransferFrom}."
      },
      "setApprovalForAll(address,bool)": {
        "details": "See {IERC721-setApprovalForAll}."
      },
      "supportsInterface(bytes4)": {
        "details": "See {IERC165-supportsInterface}."
      },
      "symbol()": {
        "details": "See {IERC721Metadata-symbol}."
      },
      "tokenByIndex(uint256)": {
        "details": "See {IERC721Enumerable-tokenByIndex}."
      },
      "tokenOfOwnerByIndex(address,uint256)": {
        "details": "See {IERC721Enumerable-tokenOfOwnerByIndex}."
      },
      "tokenURI(uint256)": {
        "details": "See {IERC721Metadata-tokenURI}."
      },
      "totalSupply()": {
        "details": "See {IERC721Enumerable-totalSupply}."
      },
      "transferFrom(address,address,uint256)": {
        "details": "See {IERC721-transferFrom}."
      }
    },
    "version": 1
  },
  "userdoc": {
    "kind": "user",
    "methods": {},
    "version": 1
  },
  "storageLayout": {
    "storage": [
      {
        "astId": 138,
        "contract": "contracts/token/LYNKNFT.sol:LYNKNFT",
        "label": "_initialized",
        "offset": 0,
        "slot": "0",
        "type": "t_uint8"
      },
      {
        "astId": 141,
        "contract": "contracts/token/LYNKNFT.sol:LYNKNFT",
        "label": "_initializing",
        "offset": 1,
        "slot": "0",
        "type": "t_bool"
      },
      {
        "astId": 3289,
        "contract": "contracts/token/LYNKNFT.sol:LYNKNFT",
        "label": "__gap",
        "offset": 0,
        "slot": "1",
        "type": "t_array(t_uint256)50_storage"
      },
      {
        "astId": 4171,
        "contract": "contracts/token/LYNKNFT.sol:LYNKNFT",
        "label": "__gap",
        "offset": 0,
        "slot": "51",
        "type": "t_array(t_uint256)50_storage"
      },
      {
        "astId": 1592,
        "contract": "contracts/token/LYNKNFT.sol:LYNKNFT",
        "label": "_name",
        "offset": 0,
        "slot": "101",
        "type": "t_string_storage"
      },
      {
        "astId": 1594,
        "contract": "contracts/token/LYNKNFT.sol:LYNKNFT",
        "label": "_symbol",
        "offset": 0,
        "slot": "102",
        "type": "t_string_storage"
      },
      {
        "astId": 1598,
        "contract": "contracts/token/LYNKNFT.sol:LYNKNFT",
        "label": "_owners",
        "offset": 0,
        "slot": "103",
        "type": "t_mapping(t_uint256,t_address)"
      },
      {
        "astId": 1602,
        "contract": "contracts/token/LYNKNFT.sol:LYNKNFT",
        "label": "_balances",
        "offset": 0,
        "slot": "104",
        "type": "t_mapping(t_address,t_uint256)"
      },
      {
        "astId": 1606,
        "contract": "contracts/token/LYNKNFT.sol:LYNKNFT",
        "label": "_tokenApprovals",
        "offset": 0,
        "slot": "105",
        "type": "t_mapping(t_uint256,t_address)"
      },
      {
        "astId": 1612,
        "contract": "contracts/token/LYNKNFT.sol:LYNKNFT",
        "label": "_operatorApprovals",
        "offset": 0,
        "slot": "106",
        "type": "t_mapping(t_address,t_mapping(t_address,t_bool))"
      },
      {
        "astId": 2454,
        "contract": "contracts/token/LYNKNFT.sol:LYNKNFT",
        "label": "__gap",
        "offset": 0,
        "slot": "107",
        "type": "t_array(t_uint256)44_storage"
      },
      {
        "astId": 2619,
        "contract": "contracts/token/LYNKNFT.sol:LYNKNFT",
        "label": "_ownedTokens",
        "offset": 0,
        "slot": "151",
        "type": "t_mapping(t_address,t_mapping(t_uint256,t_uint256))"
      },
      {
        "astId": 2623,
        "contract": "contracts/token/LYNKNFT.sol:LYNKNFT",
        "label": "_ownedTokensIndex",
        "offset": 0,
        "slot": "152",
        "type": "t_mapping(t_uint256,t_uint256)"
      },
      {
        "astId": 2626,
        "contract": "contracts/token/LYNKNFT.sol:LYNKNFT",
        "label": "_allTokens",
        "offset": 0,
        "slot": "153",
        "type": "t_array(t_uint256)dyn_storage"
      },
      {
        "astId": 2630,
        "contract": "contracts/token/LYNKNFT.sol:LYNKNFT",
        "label": "_allTokensIndex",
        "offset": 0,
        "slot": "154",
        "type": "t_mapping(t_uint256,t_uint256)"
      },
      {
        "astId": 2946,
        "contract": "contracts/token/LYNKNFT.sol:LYNKNFT",
        "label": "__gap",
        "offset": 0,
        "slot": "155",
        "type": "t_array(t_uint256)46_storage"
      },
      {
        "astId": 9290,
        "contract": "contracts/token/LYNKNFT.sol:LYNKNFT",
        "label": "randomSeed",
        "offset": 0,
        "slot": "201",
        "type": "t_uint256"
      },
      {
        "astId": 9295,
        "contract": "contracts/token/LYNKNFT.sol:LYNKNFT",
        "label": "nftInfo",
        "offset": 0,
        "slot": "202",
        "type": "t_mapping(t_uint256,t_array(t_uint256)dyn_storage)"
      },
      {
        "astId": 9300,
        "contract": "contracts/token/LYNKNFT.sol:LYNKNFT",
        "label": "mintInfoOf",
        "offset": 0,
        "slot": "203",
        "type": "t_mapping(t_address,t_struct(MintInfo)9344_storage)"
      },
      {
        "astId": 9304,
        "contract": "contracts/token/LYNKNFT.sol:LYNKNFT",
        "label": "nameUsed",
        "offset": 0,
        "slot": "204",
        "type": "t_mapping(t_string_memory_ptr,t_bool)"
      },
      {
        "astId": 9309,
        "contract": "contracts/token/LYNKNFT.sol:LYNKNFT",
        "label": "addedVAInfoOf",
        "offset": 0,
        "slot": "205",
        "type": "t_mapping(t_uint256,t_struct(AttributeAddedInfo)9349_storage)"
      },
      {
        "astId": 9311,
        "contract": "contracts/token/LYNKNFT.sol:LYNKNFT",
        "label": "earlyBirdCounter",
        "offset": 0,
        "slot": "206",
        "type": "t_uint256"
      },
      {
        "astId": 9313,
        "contract": "contracts/token/LYNKNFT.sol:LYNKNFT",
        "label": "earlyBirdWlCounter",
        "offset": 0,
        "slot": "207",
        "type": "t_uint256"
      },
      {
        "astId": 9317,
        "contract": "contracts/token/LYNKNFT.sol:LYNKNFT",
        "label": "earlyBirdMintedOf",
        "offset": 0,
        "slot": "208",
        "type": "t_mapping(t_address,t_bool)"
      }
    ],
    "types": {
      "t_address": {
        "encoding": "inplace",
        "label": "address",
        "numberOfBytes": "20"
      },
      "t_array(t_uint256)44_storage": {
        "base": "t_uint256",
        "encoding": "inplace",
        "label": "uint256[44]",
        "numberOfBytes": "1408"
      },
      "t_array(t_uint256)46_storage": {
        "base": "t_uint256",
        "encoding": "inplace",
        "label": "uint256[46]",
        "numberOfBytes": "1472"
      },
      "t_array(t_uint256)50_storage": {
        "base": "t_uint256",
        "encoding": "inplace",
        "label": "uint256[50]",
        "numberOfBytes": "1600"
      },
      "t_array(t_uint256)dyn_storage": {
        "base": "t_uint256",
        "encoding": "dynamic_array",
        "label": "uint256[]",
        "numberOfBytes": "32"
      },
      "t_bool": {
        "encoding": "inplace",
        "label": "bool",
        "numberOfBytes": "1"
      },
      "t_mapping(t_address,t_bool)": {
        "encoding": "mapping",
        "key": "t_address",
        "label": "mapping(address => bool)",
        "numberOfBytes": "32",
        "value": "t_bool"
      },
      "t_mapping(t_address,t_mapping(t_address,t_bool))": {
        "encoding": "mapping",
        "key": "t_address",
        "label": "mapping(address => mapping(address => bool))",
        "numberOfBytes": "32",
        "value": "t_mapping(t_address,t_bool)"
      },
      "t_mapping(t_address,t_mapping(t_uint256,t_uint256))": {
        "encoding": "mapping",
        "key": "t_address",
        "label": "mapping(address => mapping(uint256 => uint256))",
        "numberOfBytes": "32",
        "value": "t_mapping(t_uint256,t_uint256)"
      },
      "t_mapping(t_address,t_struct(MintInfo)9344_storage)": {
        "encoding": "mapping",
        "key": "t_address",
        "label": "mapping(address => struct LYNKNFT.MintInfo)",
        "numberOfBytes": "32",
        "value": "t_struct(MintInfo)9344_storage"
      },
      "t_mapping(t_address,t_uint256)": {
        "encoding": "mapping",
        "key": "t_address",
        "label": "mapping(address => uint256)",
        "numberOfBytes": "32",
        "value": "t_uint256"
      },
      "t_mapping(t_string_memory_ptr,t_bool)": {
        "encoding": "mapping",
        "key": "t_string_memory_ptr",
        "label": "mapping(string => bool)",
        "numberOfBytes": "32",
        "value": "t_bool"
      },
      "t_mapping(t_uint256,t_address)": {
        "encoding": "mapping",
        "key": "t_uint256",
        "label": "mapping(uint256 => address)",
        "numberOfBytes": "32",
        "value": "t_address"
      },
      "t_mapping(t_uint256,t_array(t_uint256)dyn_storage)": {
        "encoding": "mapping",
        "key": "t_uint256",
        "label": "mapping(uint256 => uint256[])",
        "numberOfBytes": "32",
        "value": "t_array(t_uint256)dyn_storage"
      },
      "t_mapping(t_uint256,t_struct(AttributeAddedInfo)9349_storage)": {
        "encoding": "mapping",
        "key": "t_uint256",
        "label": "mapping(uint256 => struct LYNKNFT.AttributeAddedInfo)",
        "numberOfBytes": "32",
        "value": "t_struct(AttributeAddedInfo)9349_storage"
      },
      "t_mapping(t_uint256,t_uint256)": {
        "encoding": "mapping",
        "key": "t_uint256",
        "label": "mapping(uint256 => uint256)",
        "numberOfBytes": "32",
        "value": "t_uint256"
      },
      "t_string_memory_ptr": {
        "encoding": "bytes",
        "label": "string",
        "numberOfBytes": "32"
      },
      "t_string_storage": {
        "encoding": "bytes",
        "label": "string",
        "numberOfBytes": "32"
      },
      "t_struct(AttributeAddedInfo)9349_storage": {
        "encoding": "inplace",
        "label": "struct LYNKNFT.AttributeAddedInfo",
        "members": [
          {
            "astId": 9346,
            "contract": "contracts/token/LYNKNFT.sol:LYNKNFT",
            "label": "lastAddedTime",
            "offset": 0,
            "slot": "0",
            "type": "t_uint128"
          },
          {
            "astId": 9348,
            "contract": "contracts/token/LYNKNFT.sol:LYNKNFT",
            "label": "addedInDuration",
            "offset": 16,
            "slot": "0",
            "type": "t_uint128"
          }
        ],
        "numberOfBytes": "32"
      },
      "t_struct(MintInfo)9344_storage": {
        "encoding": "inplace",
        "label": "struct LYNKNFT.MintInfo",
        "members": [
          {
            "astId": 9341,
            "contract": "contracts/token/LYNKNFT.sol:LYNKNFT",
            "label": "lastMintTime",
            "offset": 0,
            "slot": "0",
            "type": "t_uint128"
          },
          {
            "astId": 9343,
            "contract": "contracts/token/LYNKNFT.sol:LYNKNFT",
            "label": "mintNumInDuration",
            "offset": 16,
            "slot": "0",
            "type": "t_uint128"
          }
        ],
        "numberOfBytes": "32"
      },
      "t_uint128": {
        "encoding": "inplace",
        "label": "uint128",
        "numberOfBytes": "16"
      },
      "t_uint256": {
        "encoding": "inplace",
        "label": "uint256",
        "numberOfBytes": "32"
      },
      "t_uint8": {
        "encoding": "inplace",
        "label": "uint8",
        "numberOfBytes": "1"
      }
    }
  }
}