{
  "address": "0x265F324050e05b8F499ce3f84Df37A323034ae87",
  "abi": [
    {
      "inputs": [
        {
          "internalType": "address",
          "name": "dbAddress",
          "type": "address"
        }
      ],
      "stateMutability": "nonpayable",
      "type": "constructor"
    },
    {
      "anonymous": false,
      "inputs": [
        {
          "indexed": true,
          "internalType": "uint256",
          "name": "tokenId",
          "type": "uint256"
        },
        {
          "indexed": false,
          "internalType": "uint256",
          "name": "index",
          "type": "uint256"
        }
      ],
      "name": "Cancel",
      "type": "event"
    },
    {
      "anonymous": false,
      "inputs": [
        {
          "indexed": false,
          "internalType": "uint8",
          "name": "version",
          "type": "uint8"
        }
      ],
      "name": "Initialized",
      "type": "event"
    },
    {
      "anonymous": false,
      "inputs": [
        {
          "indexed": true,
          "internalType": "address",
          "name": "seller",
          "type": "address"
        },
        {
          "indexed": true,
          "internalType": "uint256",
          "name": "tokenId",
          "type": "uint256"
        },
        {
          "indexed": false,
          "internalType": "uint256",
          "name": "index",
          "type": "uint256"
        },
        {
          "indexed": false,
          "internalType": "address",
          "name": "acceptToken",
          "type": "address"
        },
        {
          "indexed": false,
          "internalType": "uint256",
          "name": "priceInAcceptToken",
          "type": "uint256"
        }
      ],
      "name": "List",
      "type": "event"
    },
    {
      "anonymous": false,
      "inputs": [
        {
          "indexed": true,
          "internalType": "address",
          "name": "buyer",
          "type": "address"
        },
        {
          "indexed": true,
          "internalType": "uint256",
          "name": "tokenId",
          "type": "uint256"
        },
        {
          "indexed": false,
          "internalType": "uint256",
          "name": "index",
          "type": "uint256"
        }
      ],
      "name": "Take",
      "type": "event"
    },
    {
      "inputs": [],
      "name": "BLACK_HOLE",
      "outputs": [
        {
          "internalType": "address",
          "name": "",
          "type": "address"
        }
      ],
      "stateMutability": "view",
      "type": "function"
    },
    {
      "inputs": [],
      "name": "DB_CONTRACT",
      "outputs": [
        {
          "internalType": "address",
          "name": "",
          "type": "address"
        }
      ],
      "stateMutability": "view",
      "type": "function"
    },
    {
      "inputs": [],
      "name": "__Market_init",
      "outputs": [],
      "stateMutability": "nonpayable",
      "type": "function"
    },
    {
      "inputs": [
        {
          "internalType": "uint256",
          "name": "_tokenId",
          "type": "uint256"
        }
      ],
      "name": "cancelList",
      "outputs": [],
      "stateMutability": "nonpayable",
      "type": "function"
    },
    {
      "inputs": [
        {
          "internalType": "uint256",
          "name": "",
          "type": "uint256"
        }
      ],
      "name": "listIndexByTokenId",
      "outputs": [
        {
          "internalType": "uint256",
          "name": "",
          "type": "uint256"
        }
      ],
      "stateMutability": "view",
      "type": "function"
    },
    {
      "inputs": [
        {
          "internalType": "uint256",
          "name": "_tokenId",
          "type": "uint256"
        },
        {
          "internalType": "address",
          "name": "_acceptToken",
          "type": "address"
        },
        {
          "internalType": "uint256",
          "name": "_priceInAcceptToken",
          "type": "uint256"
        }
      ],
      "name": "listNFT",
      "outputs": [],
      "stateMutability": "nonpayable",
      "type": "function"
    },
    {
      "inputs": [
        {
          "internalType": "uint256",
          "name": "",
          "type": "uint256"
        }
      ],
      "name": "listNFTs",
      "outputs": [
        {
          "internalType": "address",
          "name": "seller",
          "type": "address"
        },
        {
          "internalType": "uint256",
          "name": "tokenId",
          "type": "uint256"
        },
        {
          "internalType": "address",
          "name": "acceptToken",
          "type": "address"
        },
        {
          "internalType": "uint256",
          "name": "priceInAcceptToken",
          "type": "uint256"
        }
      ],
      "stateMutability": "view",
      "type": "function"
    },
    {
      "inputs": [
        {
          "internalType": "address",
          "name": "",
          "type": "address"
        },
        {
          "internalType": "address",
          "name": "",
          "type": "address"
        },
        {
          "internalType": "uint256",
          "name": "",
          "type": "uint256"
        },
        {
          "internalType": "bytes",
          "name": "",
          "type": "bytes"
        }
      ],
      "name": "onERC721Received",
      "outputs": [
        {
          "internalType": "bytes4",
          "name": "",
          "type": "bytes4"
        }
      ],
      "stateMutability": "pure",
      "type": "function"
    },
    {
      "inputs": [],
      "name": "onSellNum",
      "outputs": [
        {
          "internalType": "uint256",
          "name": "",
          "type": "uint256"
        }
      ],
      "stateMutability": "view",
      "type": "function"
    },
    {
      "inputs": [
        {
          "internalType": "uint256",
          "name": "_tokenId",
          "type": "uint256"
        }
      ],
      "name": "takeNFT",
      "outputs": [],
      "stateMutability": "payable",
      "type": "function"
    }
  ],
  "transactionHash": "0x36a206b0b26935ed55259812c7e44d8b84f583bd5d540babf554ec46e3f195df",
  "args": [
    "0xffE23BF49b5de36BFF1604838e3376A41bA6f72D"
  ],
  "numDeployments": 2,
  "solcInputHash": "fd4cfc5c9461e2ed86605a558a33a7f7",
  "bytecode": "0x60a060405234801561001057600080fd5b50604051620021593803806200215983398101604081905261003191610042565b6001600160a01b0316608052610072565b60006020828403121561005457600080fd5b81516001600160a01b038116811461006b57600080fd5b9392505050565b608051612069620000f0600039600081816101610152818161024f015281816103b50152818161044a015281816105c6015281816106900152818161074201528181610b6601528181610be801528181610f900152818161135d015281816113f201528181611490015281816115ba015261167e01526120696000f3fe6080604052600436106100915760003560e01c8063a23b245811610059578063a23b245814610183578063c9c9d2d8146101d8578063e3270fbf146101f8578063fb2facc314610225578063fcc09b2a1461023857600080fd5b8063150b7a02146100965780631c2343a5146100e05780631cfb9fa1146100ff57806355eda4e8146101215780639ccea0cd1461014f575b600080fd5b3480156100a257600080fd5b506100c26100b1366004611db2565b630a85bd0160e11b95945050505050565b6040516001600160e01b031990911681526020015b60405180910390f35b3480156100ec57600080fd5b506033545b6040519081526020016100d7565b34801561010b57600080fd5b5061011f61011a366004611e51565b61024d565b005b34801561012d57600080fd5b5061013761dead81565b6040516001600160a01b0390911681526020016100d7565b34801561015b57600080fd5b506101377f000000000000000000000000000000000000000000000000000000000000000081565b34801561018f57600080fd5b506101a361019e366004611e89565b610a51565b6040516100d794939291906001600160a01b039485168152602081019390935292166040820152606081019190915260800190565b3480156101e457600080fd5b5061011f6101f3366004611e89565b610a99565b34801561020457600080fd5b506100f1610213366004611e89565b60346020526000908152604090205481565b61011f610233366004611e89565b610f8e565b34801561024457600080fd5b5061011f611846565b7f00000000000000000000000000000000000000000000000000000000000000006001600160a01b031663fa1785fe6040518163ffffffff1660e01b815260040160206040518083038186803b1580156102a657600080fd5b505afa1580156102ba573d6000803e3d6000fd5b505050506040513d601f19601f820116820180604052508101906102de9190611ea2565b6001600160a01b031663f3c95c60336040516001600160e01b031960e084901b1681526001600160a01b03909116600482015260240160206040518083038186803b15801561032c57600080fd5b505afa158015610340573d6000803e3d6000fd5b505050506040513d601f19601f820116820180604052508101906103649190611ebf565b6103b15760405162461bcd60e51b815260206004820152601960248201527826b0b935b2ba1d103737ba1030903b30b634b2103ab9b2b91760391b60448201526064015b60405180910390fd5b60007f00000000000000000000000000000000000000000000000000000000000000006001600160a01b031663663d2c4e6040518163ffffffff1660e01b815260040160206040518083038186803b15801561040c57600080fd5b505afa158015610420573d6000803e3d6000fd5b505050506040513d601f19601f820116820180604052508101906104449190611ea2565b905060007f00000000000000000000000000000000000000000000000000000000000000006001600160a01b03166356c15c396040518163ffffffff1660e01b815260040160206040518083038186803b1580156104a157600080fd5b505afa1580156104b5573d6000803e3d6000fd5b505050506040513d601f19601f820116820180604052508101906104d99190611ea2565b9050336040516331a9108f60e11b8152600481018790526001600160a01b0391821691841690636352211e9060240160206040518083038186803b15801561052057600080fd5b505afa158015610534573d6000803e3d6000fd5b505050506040513d601f19601f820116820180604052508101906105589190611ea2565b6001600160a01b0316146105a75760405162461bcd60e51b815260206004820152601660248201527526b0b935b2ba1d103737ba103a34329037bbb732b91760511b60448201526064016103a8565b604051632eed8a5960e01b81526001600160a01b0385811660048301527f00000000000000000000000000000000000000000000000000000000000000001690632eed8a599060240160206040518083038186803b15801561060857600080fd5b505afa15801561061c573d6000803e3d6000fd5b505050506040513d601f19601f820116820180604052508101906106409190611ebf565b61068c5760405162461bcd60e51b815260206004820152601a60248201527f4d61726b65743a20756e737570706f7274656420746f6b656e2e00000000000060448201526064016103a8565b60007f00000000000000000000000000000000000000000000000000000000000000006001600160a01b031663afe97ec16040518163ffffffff1660e01b815260040160206040518083038186803b1580156106e757600080fd5b505afa1580156106fb573d6000803e3d6000fd5b505050506040513d601f19601f8201168201806040525081019061071f9190611ee1565b604051638edcde7d60e01b81526004810188905290915081906001600160a01b037f00000000000000000000000000000000000000000000000000000000000000001690638edcde7d9060240160206040518083038186803b15801561078457600080fd5b505afa158015610798573d6000803e3d6000fd5b505050506040513d601f19601f820116820180604052508101906107bc9190611ee1565b101561080a5760405162461bcd60e51b815260206004820152601960248201527f4d61726b65743a2043616e6e6f74207472616465207965742e0000000000000060448201526064016103a8565b604051632142170760e11b81526001600160a01b038416906342842e0e9061083a90339030908b90600401611efa565b600060405180830381600087803b15801561085457600080fd5b505af1158015610868573d6000803e3d6000fd5b505060405163095ea7b360e01b81526001600160a01b038581166004830152602482018a90528616925063095ea7b39150604401600060405180830381600087803b1580156108b657600080fd5b505af11580156108ca573d6000803e3d6000fd5b50505050816001600160a01b03166340c10f196108e43390565b6040516001600160e01b031960e084901b1681526001600160a01b03909116600482015260248101899052604401600060405180830381600087803b15801561092c57600080fd5b505af1158015610940573d6000803e3d6000fd5b50505050603360405180608001604052806109583390565b6001600160a01b03908116825260208083018b905289821660408085019190915260609384018a90528554600181810188556000978852838820875160049093020180549286166001600160a01b03199384161781559387015184820155918601516002840180549190951691161790925592909101516003909201919091556033546109e59190611f34565b600088815260346020526040902081905590508633604080518481526001600160a01b038a811660208301529181018990529116907f2d53e07c07469493cfa9aa87fa64b49cba2d3e1ee228e141caadebdabaf55287906060015b60405180910390a350505050505050565b60338181548110610a6157600080fd5b600091825260209091206004909102018054600182015460028301546003909301546001600160a01b03928316945090929091169084565b600081815260346020526040902054603354818111610af45760405162461bcd60e51b815260206004820152601760248201527626b0b935b2ba1d1034b73232bc1037bb32b9333637bb9760491b60448201526064016103a8565b600060338381548110610b0957610b09611f4b565b6000918252602080832060408051608081018252600494850290920180546001600160a01b03908116845260018201548486015260028201548116848401526003909101546060840152815163331e962760e11b815291519296507f0000000000000000000000000000000000000000000000000000000000000000169363663d2c4e93828201939092909190829003018186803b158015610baa57600080fd5b505afa158015610bbe573d6000803e3d6000fd5b505050506040513d601f19601f82011682018060405250810190610be29190611ea2565b905060007f00000000000000000000000000000000000000000000000000000000000000006001600160a01b03166356c15c396040518163ffffffff1660e01b815260040160206040518083038186803b158015610c3f57600080fd5b505afa158015610c53573d6000803e3d6000fd5b505050506040513d601f19601f82011682018060405250810190610c779190611ea2565b905085836020015114610ccc5760405162461bcd60e51b815260206004820152601a60248201527f4d61726b65743a20746f6b656e206964206d69736d617463682e00000000000060448201526064016103a8565b82516001600160a01b03163314610d255760405162461bcd60e51b815260206004820152601860248201527f4d61726b65743a2073656c6c6572206d69736d617463682e000000000000000060448201526064016103a8565b610d30600185611f34565b851015610e0e576033610d44600186611f34565b81548110610d5457610d54611f4b565b906000526020600020906004020160338681548110610d7557610d75611f4b565b60009182526020822083546004929092020180546001600160a01b039283166001600160a01b031991821617825560018086015490830155600280860154908301805491909416911617909155600392830154920191909155603380548792603492909184908110610de957610de9611f4b565b9060005260206000209060040201600101548152602001908152602001600020819055505b6033805480610e1f57610e1f611f61565b60008281526020812060046000199093019283020180546001600160a01b03199081168255600182810184905560028301805490921690915560039091018290559190925560349190610e729087611f34565b815260200190815260200160002060009055806001600160a01b03166342966c68876040518263ffffffff1660e01b8152600401610eb291815260200190565b600060405180830381600087803b158015610ecc57600080fd5b505af1158015610ee0573d6000803e3d6000fd5b50505050816001600160a01b03166342842e0e30610efb3390565b896040518463ffffffff1660e01b8152600401610f1a93929190611efa565b600060405180830381600087803b158015610f3457600080fd5b505af1158015610f48573d6000803e3d6000fd5b50505050857fbd64c8171b8a9fa64199ba6431430909c75b0d5532737cd3c8e80d2b054fa3c786604051610f7e91815260200190565b60405180910390a2505050505050565b7f00000000000000000000000000000000000000000000000000000000000000006001600160a01b031663fa1785fe6040518163ffffffff1660e01b815260040160206040518083038186803b158015610fe757600080fd5b505afa158015610ffb573d6000803e3d6000fd5b505050506040513d601f19601f8201168201806040525081019061101f9190611ea2565b6001600160a01b031663f3c95c60336040516001600160e01b031960e084901b1681526001600160a01b03909116600482015260240160206040518083038186803b15801561106d57600080fd5b505afa158015611081573d6000803e3d6000fd5b505050506040513d601f19601f820116820180604052508101906110a59190611ebf565b6110ed5760405162461bcd60e51b815260206004820152601960248201527826b0b935b2ba1d103737ba1030903b30b634b2103ab9b2b91760391b60448201526064016103a8565b6000818152603460205260409020546033548181116111485760405162461bcd60e51b815260206004820152601760248201527626b0b935b2ba1d1034b73232bc1037bb32b9333637bb9760491b60448201526064016103a8565b60006033838154811061115d5761115d611f4b565b600091825260209182902060408051608081018252600490930290910180546001600160a01b039081168452600182015494840185905260028201541691830191909152600301546060820152915084146111fa5760405162461bcd60e51b815260206004820152601a60248201527f4d61726b65743a20746f6b656e206964206d69736d617463682e00000000000060448201526064016103a8565b611205600183611f34565b8310156112e3576033611219600184611f34565b8154811061122957611229611f4b565b90600052602060002090600402016033848154811061124a5761124a611f4b565b60009182526020822083546004929092020180546001600160a01b039283166001600160a01b0319918216178255600180860154908301556002808601549083018054919094169116179091556003928301549201919091556033805485926034929091849081106112be576112be611f4b565b9060005260206000209060040201600101548152602001908152602001600020819055505b60338054806112f4576112f4611f61565b60008281526020812060046000199093019283020180546001600160a01b031990811682556001828101849055600283018054909216909155600390910182905591909255603491906113479085611f34565b81526020019081526020016000206000905560007f00000000000000000000000000000000000000000000000000000000000000006001600160a01b031663663d2c4e6040518163ffffffff1660e01b815260040160206040518083038186803b1580156113b457600080fd5b505afa1580156113c8573d6000803e3d6000fd5b505050506040513d601f19601f820116820180604052508101906113ec9190611ea2565b905060007f00000000000000000000000000000000000000000000000000000000000000006001600160a01b03166356c15c396040518163ffffffff1660e01b815260040160206040518083038186803b15801561144957600080fd5b505afa15801561145d573d6000803e3d6000fd5b505050506040513d601f19601f820116820180604052508101906114819190611ea2565b90506000670de0b6b3a76400007f00000000000000000000000000000000000000000000000000000000000000006001600160a01b03166356f433526040518163ffffffff1660e01b815260040160206040518083038186803b1580156114e757600080fd5b505afa1580156114fb573d6000803e3d6000fd5b505050506040513d601f19601f8201168201806040525081019061151f9190611ee1565b856060015161152e9190611f77565b6115389190611f96565b60408501519091506001600160a01b031661166457836060015134146115a05760405162461bcd60e51b815260206004820152601760248201527f4d61726b65743a2076616c7565206d69736d617463682e00000000000000000060448201526064016103a8565b60405163d769d48b60e01b815260056004820152611642907f00000000000000000000000000000000000000000000000000000000000000006001600160a01b03169063d769d48b9060240160206040518083038186803b15801561160457600080fd5b505afa158015611618573d6000803e3d6000fd5b505050506040513d601f19601f8201168201806040525081019061163c9190611ea2565b82611957565b61165f846000015182866060015161165a9190611f34565b611957565b611742565b6117163360405163d769d48b60e01b8152600560048201527f00000000000000000000000000000000000000000000000000000000000000006001600160a01b03169063d769d48b9060240160206040518083038186803b1580156116c857600080fd5b505afa1580156116dc573d6000803e3d6000fd5b505050506040513d601f19601f820116820180604052508101906117009190611ea2565b60408701516001600160a01b0316919084611a75565b611742338551606087015161172c908590611f34565b60408801516001600160a01b0316929190611a75565b604051630852cd8d60e31b8152600481018890526001600160a01b038316906342966c6890602401600060405180830381600087803b15801561178457600080fd5b505af1158015611798573d6000803e3d6000fd5b50505050826001600160a01b03166342842e0e306117b33390565b8a6040518463ffffffff1660e01b81526004016117d293929190611efa565b600060405180830381600087803b1580156117ec57600080fd5b505af1158015611800573d6000803e3d6000fd5b505050508661180c3390565b6001600160a01b03167ff5613330dc61b3b3dfa6c4c8d2b6ab5bd5ae627e2792cdc5caf6ad26da362cf188604051610a4091815260200190565b600054610100900460ff16158080156118665750600054600160ff909116105b806118805750303b158015611880575060005460ff166001145b6118e35760405162461bcd60e51b815260206004820152602e60248201527f496e697469616c697a61626c653a20636f6e747261637420697320616c72656160448201526d191e481a5b9a5d1a585b1a5e995960921b60648201526084016103a8565b6000805460ff191660011790558015611906576000805461ff0019166101001790555b61190e611ad3565b8015611954576000805461ff0019169055604051600181527f7f26b83ff96e1f2b6a682f133852f6798a09c465da95921460cefb38474024989060200160405180910390a15b50565b804710156119a75760405162461bcd60e51b815260206004820152601d60248201527f416464726573733a20696e73756666696369656e742062616c616e636500000060448201526064016103a8565b6000826001600160a01b03168260405160006040518083038185875af1925050503d80600081146119f4576040519150601f19603f3d011682016040523d82523d6000602084013e6119f9565b606091505b5050905080611a705760405162461bcd60e51b815260206004820152603a60248201527f416464726573733a20756e61626c6520746f2073656e642076616c75652c207260448201527f6563697069656e74206d6179206861766520726576657274656400000000000060648201526084016103a8565b505050565b611acd846323b872dd60e01b858585604051602401611a9693929190611efa565b60408051601f198184030181529190526020810180516001600160e01b03166001600160e01b031990931692909217909152611add565b50505050565b611adb611baf565b565b6000611b32826040518060400160405280602081526020017f5361666545524332303a206c6f772d6c6576656c2063616c6c206661696c6564815250856001600160a01b0316611c1a9092919063ffffffff16565b805190915015611a705780806020019051810190611b509190611ebf565b611a705760405162461bcd60e51b815260206004820152602a60248201527f5361666545524332303a204552433230206f7065726174696f6e20646964206e6044820152691bdd081cdd58d8d9595960b21b60648201526084016103a8565b600054610100900460ff16611adb5760405162461bcd60e51b815260206004820152602b60248201527f496e697469616c697a61626c653a20636f6e7472616374206973206e6f74206960448201526a6e697469616c697a696e6760a81b60648201526084016103a8565b6060611c298484600085611c33565b90505b9392505050565b606082471015611c945760405162461bcd60e51b815260206004820152602660248201527f416464726573733a20696e73756666696369656e742062616c616e636520666f6044820152651c8818d85b1b60d21b60648201526084016103a8565b6001600160a01b0385163b611ceb5760405162461bcd60e51b815260206004820152601d60248201527f416464726573733a2063616c6c20746f206e6f6e2d636f6e747261637400000060448201526064016103a8565b600080866001600160a01b03168587604051611d079190611fe4565b60006040518083038185875af1925050503d8060008114611d44576040519150601f19603f3d011682016040523d82523d6000602084013e611d49565b606091505b5091509150611d59828286611d64565b979650505050505050565b60608315611d73575081611c2c565b825115611d835782518084602001fd5b8160405162461bcd60e51b81526004016103a89190612000565b6001600160a01b038116811461195457600080fd5b600080600080600060808688031215611dca57600080fd5b8535611dd581611d9d565b94506020860135611de581611d9d565b935060408601359250606086013567ffffffffffffffff80821115611e0957600080fd5b818801915088601f830112611e1d57600080fd5b813581811115611e2c57600080fd5b896020828501011115611e3e57600080fd5b9699959850939650602001949392505050565b600080600060608486031215611e6657600080fd5b833592506020840135611e7881611d9d565b929592945050506040919091013590565b600060208284031215611e9b57600080fd5b5035919050565b600060208284031215611eb457600080fd5b8151611c2c81611d9d565b600060208284031215611ed157600080fd5b81518015158114611c2c57600080fd5b600060208284031215611ef357600080fd5b5051919050565b6001600160a01b039384168152919092166020820152604081019190915260600190565b634e487b7160e01b600052601160045260246000fd5b600082821015611f4657611f46611f1e565b500390565b634e487b7160e01b600052603260045260246000fd5b634e487b7160e01b600052603160045260246000fd5b6000816000190483118215151615611f9157611f91611f1e565b500290565b600082611fb357634e487b7160e01b600052601260045260246000fd5b500490565b60005b83811015611fd3578181015183820152602001611fbb565b83811115611acd5750506000910152565b60008251611ff6818460208701611fb8565b9190910192915050565b602081526000825180602084015261201f816040850160208701611fb8565b601f01601f1916919091016040019291505056fea26469706673582212202d02b0f002fda0c946584f3b77e7099c23ad60796a909785708ff75226b79d2964736f6c63430008090033",
  "devdoc": {
    "kind": "dev",
    "methods": {},
    "version": 1
  },
  "userdoc": {
    "kind": "user",
    "methods": {},
    "version": 1
  },
  "storageLayout": {
    "storage": [
      {
        "astId": 138,
        "contract": "contracts/Market.sol:Market",
        "label": "_initialized",
        "offset": 0,
        "slot": "0",
        "type": "t_uint8"
      },
      {
        "astId": 141,
        "contract": "contracts/Market.sol:Market",
        "label": "_initializing",
        "offset": 1,
        "slot": "0",
        "type": "t_bool"
      },
      {
        "astId": 3289,
        "contract": "contracts/Market.sol:Market",
        "label": "__gap",
        "offset": 0,
        "slot": "1",
        "type": "t_array(t_uint256)50_storage"
      },
      {
        "astId": 6066,
        "contract": "contracts/Market.sol:Market",
        "label": "listNFTs",
        "offset": 0,
        "slot": "51",
        "type": "t_array(t_struct(ListInfo)6105_storage)dyn_storage"
      },
      {
        "astId": 6070,
        "contract": "contracts/Market.sol:Market",
        "label": "listIndexByTokenId",
        "offset": 0,
        "slot": "52",
        "type": "t_mapping(t_uint256,t_uint256)"
      }
    ],
    "types": {
      "t_address": {
        "encoding": "inplace",
        "label": "address",
        "numberOfBytes": "20"
      },
      "t_array(t_struct(ListInfo)6105_storage)dyn_storage": {
        "base": "t_struct(ListInfo)6105_storage",
        "encoding": "dynamic_array",
        "label": "struct Market.ListInfo[]",
        "numberOfBytes": "32"
      },
      "t_array(t_uint256)50_storage": {
        "base": "t_uint256",
        "encoding": "inplace",
        "label": "uint256[50]",
        "numberOfBytes": "1600"
      },
      "t_bool": {
        "encoding": "inplace",
        "label": "bool",
        "numberOfBytes": "1"
      },
      "t_mapping(t_uint256,t_uint256)": {
        "encoding": "mapping",
        "key": "t_uint256",
        "label": "mapping(uint256 => uint256)",
        "numberOfBytes": "32",
        "value": "t_uint256"
      },
      "t_struct(ListInfo)6105_storage": {
        "encoding": "inplace",
        "label": "struct Market.ListInfo",
        "members": [
          {
            "astId": 6098,
            "contract": "contracts/Market.sol:Market",
            "label": "seller",
            "offset": 0,
            "slot": "0",
            "type": "t_address"
          },
          {
            "astId": 6100,
            "contract": "contracts/Market.sol:Market",
            "label": "tokenId",
            "offset": 0,
            "slot": "1",
            "type": "t_uint256"
          },
          {
            "astId": 6102,
            "contract": "contracts/Market.sol:Market",
            "label": "acceptToken",
            "offset": 0,
            "slot": "2",
            "type": "t_address"
          },
          {
            "astId": 6104,
            "contract": "contracts/Market.sol:Market",
            "label": "priceInAcceptToken",
            "offset": 0,
            "slot": "3",
            "type": "t_uint256"
          }
        ],
        "numberOfBytes": "128"
      },
      "t_uint256": {
        "encoding": "inplace",
        "label": "uint256",
        "numberOfBytes": "32"
      },
      "t_uint8": {
        "encoding": "inplace",
        "label": "uint8",
        "numberOfBytes": "1"
      }
    }
  }
}