{
  "address": "0xd78c6A1c36B5cBDd993b54e98b6c6c285A911506",
  "abi": [
    {
      "inputs": [
        {
          "internalType": "address",
          "name": "dbAddress",
          "type": "address"
        }
      ],
      "stateMutability": "nonpayable",
      "type": "constructor"
    },
    {
      "anonymous": false,
      "inputs": [
        {
          "indexed": true,
          "internalType": "address",
          "name": "account",
          "type": "address"
        },
        {
          "indexed": false,
          "internalType": "uint256",
          "name": "amount",
          "type": "uint256"
        }
      ],
      "name": "Claim",
      "type": "event"
    },
    {
      "anonymous": false,
      "inputs": [
        {
          "indexed": false,
          "internalType": "uint8",
          "name": "version",
          "type": "uint8"
        }
      ],
      "name": "Initialized",
      "type": "event"
    },
    {
      "anonymous": false,
      "inputs": [
        {
          "indexed": true,
          "internalType": "address",
          "name": "account",
          "type": "address"
        },
        {
          "indexed": false,
          "internalType": "uint256",
          "name": "tokenId",
          "type": "uint256"
        }
      ],
      "name": "Stake",
      "type": "event"
    },
    {
      "anonymous": false,
      "inputs": [
        {
          "indexed": true,
          "internalType": "address",
          "name": "account",
          "type": "address"
        },
        {
          "indexed": false,
          "internalType": "uint256",
          "name": "tokenId",
          "type": "uint256"
        }
      ],
      "name": "UnStake",
      "type": "event"
    },
    {
      "inputs": [],
      "name": "BLACK_HOLE",
      "outputs": [
        {
          "internalType": "address",
          "name": "",
          "type": "address"
        }
      ],
      "stateMutability": "view",
      "type": "function"
    },
    {
      "inputs": [],
      "name": "DB_CONTRACT",
      "outputs": [
        {
          "internalType": "address",
          "name": "",
          "type": "address"
        }
      ],
      "stateMutability": "view",
      "type": "function"
    },
    {
      "inputs": [],
      "name": "__Staking_init",
      "outputs": [],
      "stateMutability": "nonpayable",
      "type": "function"
    },
    {
      "inputs": [],
      "name": "claimReward",
      "outputs": [],
      "stateMutability": "nonpayable",
      "type": "function"
    },
    {
      "inputs": [
        {
          "internalType": "address",
          "name": "account",
          "type": "address"
        }
      ],
      "name": "claimableOf",
      "outputs": [
        {
          "internalType": "uint256",
          "name": "",
          "type": "uint256"
        }
      ],
      "stateMutability": "view",
      "type": "function"
    },
    {
      "inputs": [
        {
          "internalType": "address",
          "name": "",
          "type": "address"
        }
      ],
      "name": "lastUpdateTimeOf",
      "outputs": [
        {
          "internalType": "uint256",
          "name": "",
          "type": "uint256"
        }
      ],
      "stateMutability": "view",
      "type": "function"
    },
    {
      "inputs": [
        {
          "internalType": "address",
          "name": "",
          "type": "address"
        }
      ],
      "name": "miningPowerOf",
      "outputs": [
        {
          "internalType": "uint256",
          "name": "charisma",
          "type": "uint256"
        },
        {
          "internalType": "uint256",
          "name": "dexterity",
          "type": "uint256"
        }
      ],
      "stateMutability": "view",
      "type": "function"
    },
    {
      "inputs": [
        {
          "internalType": "address",
          "name": "",
          "type": "address"
        },
        {
          "internalType": "address",
          "name": "",
          "type": "address"
        },
        {
          "internalType": "uint256",
          "name": "",
          "type": "uint256"
        },
        {
          "internalType": "bytes",
          "name": "",
          "type": "bytes"
        }
      ],
      "name": "onERC721Received",
      "outputs": [
        {
          "internalType": "bytes4",
          "name": "",
          "type": "bytes4"
        }
      ],
      "stateMutability": "pure",
      "type": "function"
    },
    {
      "inputs": [
        {
          "internalType": "address",
          "name": "",
          "type": "address"
        }
      ],
      "name": "rewardOf",
      "outputs": [
        {
          "internalType": "uint256",
          "name": "",
          "type": "uint256"
        }
      ],
      "stateMutability": "view",
      "type": "function"
    },
    {
      "inputs": [
        {
          "internalType": "uint256",
          "name": "nftId",
          "type": "uint256"
        }
      ],
      "name": "stake",
      "outputs": [],
      "stateMutability": "nonpayable",
      "type": "function"
    },
    {
      "inputs": [
        {
          "internalType": "uint256",
          "name": "nftId",
          "type": "uint256"
        }
      ],
      "name": "unstake",
      "outputs": [],
      "stateMutability": "nonpayable",
      "type": "function"
    }
  ],
  "transactionHash": "0x9947ca3419bbb092c2b2033f1537b8321c54be30fa1057af54e44859ca7cc0a0",
  "args": [
    "0x5f9BBb7bBFC56072ae37872eBB077E4a6cA8A1b7"
  ],
  "numDeployments": 3,
  "solcInputHash": "e13fb473571dc6928a15b9093c5dbaa0",
  "bytecode": "0x60a060405234801561001057600080fd5b506040516118d13803806118d183398101604081905261002f91610040565b6001600160a01b0316608052610070565b60006020828403121561005257600080fd5b81516001600160a01b038116811461006957600080fd5b9392505050565b6080516118076100ca6000396000818161018f0152818161039e01528181610433015281816107f401528181610aa901528181610c1101528181610ca601528181610ff101528181611260015261139d01526118076000f3fe608060405234801561001057600080fd5b50600436106100a95760003560e01c80637f506f59116100715780637f506f59146101575780638903ab9d146101775780639ccea0cd1461018a578063a694fc3a146101b1578063aae5c910146101c4578063b88a802f1461020057600080fd5b8063150b7a02146100ae5780631d62ebd9146100eb57806322dc5595146101195780632e17de781461012357806355eda4e814610136575b600080fd5b6100cd6100bc366004611517565b630a85bd0160e11b95945050505050565b6040516001600160e01b031990911681526020015b60405180910390f35b61010b6100f93660046115b6565b60346020526000908152604090205481565b6040519081526020016100e2565b610121610208565b005b6101216101313660046115da565b61031e565b61013f61dead81565b6040516001600160a01b0390911681526020016100e2565b61010b6101653660046115b6565b60356020526000908152604090205481565b61010b6101853660046115b6565b6109a4565b61013f7f000000000000000000000000000000000000000000000000000000000000000081565b6101216101bf3660046115da565b610a2b565b6101eb6101d23660046115b6565b6033602052600090815260409020805460019091015482565b604080519283526020830191909152016100e2565b6101216110ec565b600054610100900460ff16158080156102285750600054600160ff909116105b806102425750303b158015610242575060005460ff166001145b6102aa5760405162461bcd60e51b815260206004820152602e60248201527f496e697469616c697a61626c653a20636f6e747261637420697320616c72656160448201526d191e481a5b9a5d1a585b1a5e995960921b60648201526084015b60405180910390fd5b6000805460ff1916600117905580156102cd576000805461ff0019166101001790555b6102d5611176565b801561031b576000805461ff0019169055604051600181527f7f26b83ff96e1f2b6a682f133852f6798a09c465da95921460cefb38474024989060200160405180910390a15b50565b3360008181526035602090815260408083208054429091556033909252822080546001919091015491929091906103558383611180565b90506103618442611609565b61036b9082611620565b6001600160a01b0386166000908152603460205260408120805490919061039390849061163f565b9250508190555060007f00000000000000000000000000000000000000000000000000000000000000006001600160a01b031663663d2c4e6040518163ffffffff1660e01b815260040160206040518083038186803b1580156103f557600080fd5b505afa158015610409573d6000803e3d6000fd5b505050506040513d601f19601f8201168201806040525081019061042d9190611657565b905060007f00000000000000000000000000000000000000000000000000000000000000006001600160a01b0316635b487d9c6040518163ffffffff1660e01b815260040160206040518083038186803b15801561048a57600080fd5b505afa15801561049e573d6000803e3d6000fd5b505050506040513d601f19601f820116820180604052508101906104c29190611657565b9050336040516331a9108f60e11b8152600481018a90526001600160a01b0391821691831690636352211e9060240160206040518083038186803b15801561050957600080fd5b505afa15801561051d573d6000803e3d6000fd5b505050506040513d601f19601f820116820180604052508101906105419190611657565b6001600160a01b0316146105975760405162461bcd60e51b815260206004820152601760248201527f5374616b696e673a206e6f7420746865206f776e65722e00000000000000000060448201526064016102a1565b604051630852cd8d60e31b8152600481018990526001600160a01b038216906342966c6890602401600060405180830381600087803b1580156105d957600080fd5b505af11580156105ed573d6000803e3d6000fd5b50505050816001600160a01b03166342842e0e306106083390565b6040516001600160e01b031960e085901b1681526001600160a01b03928316600482015291166024820152604481018b9052606401600060405180830381600087803b15801561065757600080fd5b505af115801561066b573d6000803e3d6000fd5b505050506106763390565b6001600160a01b03167fb24546d975e2628748efc9aced80665e0fad66272033e5c0ea25fd3afac99795896040516106b091815260200190565b60405180910390a260405163373bf3af60e21b8152600481018990526000906001600160a01b0384169063dcefcebc9060240160006040518083038186803b1580156106fb57600080fd5b505afa15801561070f573d6000803e3d6000fd5b505050506040513d6000823e601f3d908101601f19168201604052610737919081019061168a565b9050600081818151811061074d5761074d61175e565b6020026020010151905060008260038081111561076c5761076c611748565b8151811061077c5761077c61175e565b6020026020010151905081603360006107923390565b6001600160a01b03166001600160a01b0316815260200190815260200160002060000160008282546107c49190611609565b909155505033600090815260336020526040812060010180548392906107eb908490611609565b925050819055507f00000000000000000000000000000000000000000000000000000000000000006001600160a01b031663fa1785fe6040518163ffffffff1660e01b815260040160206040518083038186803b15801561084b57600080fd5b505afa15801561085f573d6000803e3d6000fd5b505050506040513d601f19601f820116820180604052508101906108839190611657565b6001600160a01b031663e5693bb78c6040518263ffffffff1660e01b81526004016108b091815260200190565b600060405180830381600087803b1580156108ca57600080fd5b505af11580156108de573d6000803e3d6000fd5b50505050836001600160a01b03166370a082316108f83390565b6040516001600160e01b031960e084901b1681526001600160a01b03909116600482015260240160206040518083038186803b15801561093757600080fd5b505afa15801561094b573d6000803e3d6000fd5b505050506040513d601f19601f8201168201806040525081019061096f9190611774565b15801561098a57503360009081526034602052604090205415155b15610997576109976111dd565b5050505050505050505050565b6001600160a01b03811660009081526033602052604081208054600190910154826109cf8383611180565b6001600160a01b0386166000908152603560205260409020549091506109f59042611609565b6109ff9082611620565b6001600160a01b038616600090815260346020526040902054610a22919061163f565b95945050505050565b336000818152603560209081526040808320805442909155603390925282208054600191909101549192909190610a628383611180565b9050610a6e8442611609565b610a789082611620565b6001600160a01b03861660009081526034602052604081208054909190610aa090849061163f565b925050819055507f00000000000000000000000000000000000000000000000000000000000000006001600160a01b031663fa1785fe6040518163ffffffff1660e01b815260040160206040518083038186803b158015610b0057600080fd5b505afa158015610b14573d6000803e3d6000fd5b505050506040513d601f19601f82011682018060405250810190610b389190611657565b6001600160a01b031663f3c95c60336040516001600160e01b031960e084901b1681526001600160a01b03909116600482015260240160206040518083038186803b158015610b8657600080fd5b505afa158015610b9a573d6000803e3d6000fd5b505050506040513d601f19601f82011682018060405250810190610bbe919061178d565b610c0a5760405162461bcd60e51b815260206004820152601a60248201527f5374616b696e673a206e6f7420612076616c696420757365722e00000000000060448201526064016102a1565b60008060007f00000000000000000000000000000000000000000000000000000000000000006001600160a01b031663663d2c4e6040518163ffffffff1660e01b815260040160206040518083038186803b158015610c6857600080fd5b505afa158015610c7c573d6000803e3d6000fd5b505050506040513d601f19601f82011682018060405250810190610ca09190611657565b905060007f00000000000000000000000000000000000000000000000000000000000000006001600160a01b0316635b487d9c6040518163ffffffff1660e01b815260040160206040518083038186803b158015610cfd57600080fd5b505afa158015610d11573d6000803e3d6000fd5b505050506040513d601f19601f82011682018060405250810190610d359190611657565b90506001600160a01b0382166342842e0e336040516001600160e01b031960e084901b1681526001600160a01b039091166004820152306024820152604481018d9052606401600060405180830381600087803b158015610d9557600080fd5b505af1158015610da9573d6000803e3d6000fd5b505060405163095ea7b360e01b81526001600160a01b038481166004830152602482018e90528516925063095ea7b39150604401600060405180830381600087803b158015610df757600080fd5b505af1158015610e0b573d6000803e3d6000fd5b50505050806001600160a01b03166340c10f19610e253390565b6040516001600160e01b031960e084901b1681526001600160a01b039091166004820152602481018d9052604401600060405180830381600087803b158015610e6d57600080fd5b505af1158015610e81573d6000803e3d6000fd5b50505050610e8c3390565b6001600160a01b03167febedb8b3c678666e7f36970bc8f57abf6d8fa2e828c0da91ea5b75bf68ed101a8b604051610ec691815260200190565b60405180910390a260405163373bf3af60e21b8152600481018b90526000906001600160a01b0384169063dcefcebc9060240160006040518083038186803b158015610f1157600080fd5b505afa158015610f25573d6000803e3d6000fd5b505050506040513d6000823e601f3d908101601f19168201604052610f4d919081019061168a565b905080600081518110610f6257610f6261175e565b602002602001015185610f75919061163f565b945080600381518110610f8a57610f8a61175e565b602002602001015184610f9d919061163f565b33600090815260336020526040812080549296508792909190610fc190849061163f565b90915550503360009081526033602052604081206001018054869290610fe890849061163f565b925050819055507f00000000000000000000000000000000000000000000000000000000000000006001600160a01b031663fa1785fe6040518163ffffffff1660e01b815260040160206040518083038186803b15801561104857600080fd5b505afa15801561105c573d6000803e3d6000fd5b505050506040513d601f19601f820116820180604052508101906110809190611657565b6001600160a01b031663c8b723f38c6040518263ffffffff1660e01b81526004016110ad91815260200190565b600060405180830381600087803b1580156110c757600080fd5b505af11580156110db573d6000803e3d6000fd5b505050505050505050505050505050565b3360008181526035602090815260408083208054429091556033909252822080546001919091015491929091906111238383611180565b905061112f8442611609565b6111399082611620565b6001600160a01b0386166000908152603460205260408120805490919061116190849061163f565b9091555061116f90506111dd565b5050505050565b61117e611497565b565b600080606483611197866611c37937e08000611620565b6111a19190611620565b6111ab91906117af565b6111bc856618de76816d8000611620565b6111c6919061163f565b90506111d562015180826117af565b949350505050565b336000908152603460205260409020548061123a5760405162461bcd60e51b815260206004820152601860248201527f5374616b696e673a2063616e6e6f7420636c61696d20302e000000000000000060448201526064016102a1565b336000908152603460209081526040808320929092558151633b87436b60e01b815291517f00000000000000000000000000000000000000000000000000000000000000006001600160a01b031692633b87436b926004808301939192829003018186803b1580156112ab57600080fd5b505afa1580156112bf573d6000803e3d6000fd5b505050506040513d601f19601f820116820180604052508101906112e39190611657565b6001600160a01b03166340c10f19336040516001600160e01b031960e084901b1681526001600160a01b03909116600482015260248101849052604401600060405180830381600087803b15801561133a57600080fd5b505af115801561134e573d6000803e3d6000fd5b505050506113593390565b6001600160a01b03167f47cee97cb7acd717b3c0aa1435d004cd5b3c8c57d70dbceb4e4458bbd60e39d48260405161139391815260200190565b60405180910390a27f00000000000000000000000000000000000000000000000000000000000000006001600160a01b031663fa1785fe6040518163ffffffff1660e01b815260040160206040518083038186803b1580156113f457600080fd5b505afa158015611408573d6000803e3d6000fd5b505050506040513d601f19601f8201168201806040525081019061142c9190611657565b6001600160a01b031663faa6023c336040516001600160e01b031960e084901b1681526001600160a01b03909116600482015260248101849052604401600060405180830381600087803b15801561148357600080fd5b505af115801561116f573d6000803e3d6000fd5b600054610100900460ff1661117e5760405162461bcd60e51b815260206004820152602b60248201527f496e697469616c697a61626c653a20636f6e7472616374206973206e6f74206960448201526a6e697469616c697a696e6760a81b60648201526084016102a1565b6001600160a01b038116811461031b57600080fd5b60008060008060006080868803121561152f57600080fd5b853561153a81611502565b9450602086013561154a81611502565b935060408601359250606086013567ffffffffffffffff8082111561156e57600080fd5b818801915088601f83011261158257600080fd5b81358181111561159157600080fd5b8960208285010111156115a357600080fd5b9699959850939650602001949392505050565b6000602082840312156115c857600080fd5b81356115d381611502565b9392505050565b6000602082840312156115ec57600080fd5b5035919050565b634e487b7160e01b600052601160045260246000fd5b60008282101561161b5761161b6115f3565b500390565b600081600019048311821515161561163a5761163a6115f3565b500290565b60008219821115611652576116526115f3565b500190565b60006020828403121561166957600080fd5b81516115d381611502565b634e487b7160e01b600052604160045260246000fd5b6000602080838503121561169d57600080fd5b825167ffffffffffffffff808211156116b557600080fd5b818501915085601f8301126116c957600080fd5b8151818111156116db576116db611674565b8060051b604051601f19603f8301168101818110858211171561170057611700611674565b60405291825284820192508381018501918883111561171e57600080fd5b938501935b8285101561173c57845184529385019392850192611723565b98975050505050505050565b634e487b7160e01b600052602160045260246000fd5b634e487b7160e01b600052603260045260246000fd5b60006020828403121561178657600080fd5b5051919050565b60006020828403121561179f57600080fd5b815180151581146115d357600080fd5b6000826117cc57634e487b7160e01b600052601260045260246000fd5b50049056fea2646970667358221220352b251137ddadc1173d862ae31160c39c089f37a2be25e1f9c259af82ad385a64736f6c63430008090033",
  "devdoc": {
    "kind": "dev",
    "methods": {},
    "version": 1
  },
  "userdoc": {
    "kind": "user",
    "methods": {},
    "version": 1
  },
  "storageLayout": {
    "storage": [
      {
        "astId": 138,
        "contract": "contracts/Staking.sol:Staking",
        "label": "_initialized",
        "offset": 0,
        "slot": "0",
        "type": "t_uint8"
      },
      {
        "astId": 141,
        "contract": "contracts/Staking.sol:Staking",
        "label": "_initializing",
        "offset": 1,
        "slot": "0",
        "type": "t_bool"
      },
      {
        "astId": 3289,
        "contract": "contracts/Staking.sol:Staking",
        "label": "__gap",
        "offset": 0,
        "slot": "1",
        "type": "t_array(t_uint256)50_storage"
      },
      {
        "astId": 6312,
        "contract": "contracts/Staking.sol:Staking",
        "label": "miningPowerOf",
        "offset": 0,
        "slot": "51",
        "type": "t_mapping(t_address,t_struct(MiningPower)6343_storage)"
      },
      {
        "astId": 6316,
        "contract": "contracts/Staking.sol:Staking",
        "label": "rewardOf",
        "offset": 0,
        "slot": "52",
        "type": "t_mapping(t_address,t_uint256)"
      },
      {
        "astId": 6320,
        "contract": "contracts/Staking.sol:Staking",
        "label": "lastUpdateTimeOf",
        "offset": 0,
        "slot": "53",
        "type": "t_mapping(t_address,t_uint256)"
      }
    ],
    "types": {
      "t_address": {
        "encoding": "inplace",
        "label": "address",
        "numberOfBytes": "20"
      },
      "t_array(t_uint256)50_storage": {
        "base": "t_uint256",
        "encoding": "inplace",
        "label": "uint256[50]",
        "numberOfBytes": "1600"
      },
      "t_bool": {
        "encoding": "inplace",
        "label": "bool",
        "numberOfBytes": "1"
      },
      "t_mapping(t_address,t_struct(MiningPower)6343_storage)": {
        "encoding": "mapping",
        "key": "t_address",
        "label": "mapping(address => struct Staking.MiningPower)",
        "numberOfBytes": "32",
        "value": "t_struct(MiningPower)6343_storage"
      },
      "t_mapping(t_address,t_uint256)": {
        "encoding": "mapping",
        "key": "t_address",
        "label": "mapping(address => uint256)",
        "numberOfBytes": "32",
        "value": "t_uint256"
      },
      "t_struct(MiningPower)6343_storage": {
        "encoding": "inplace",
        "label": "struct Staking.MiningPower",
        "members": [
          {
            "astId": 6340,
            "contract": "contracts/Staking.sol:Staking",
            "label": "charisma",
            "offset": 0,
            "slot": "0",
            "type": "t_uint256"
          },
          {
            "astId": 6342,
            "contract": "contracts/Staking.sol:Staking",
            "label": "dexterity",
            "offset": 0,
            "slot": "1",
            "type": "t_uint256"
          }
        ],
        "numberOfBytes": "64"
      },
      "t_uint256": {
        "encoding": "inplace",
        "label": "uint256",
        "numberOfBytes": "32"
      },
      "t_uint8": {
        "encoding": "inplace",
        "label": "uint8",
        "numberOfBytes": "1"
      }
    }
  }
}