{
  "address": "0xF740218db443aD9f27BbdC38c111cb16789a7d68",
  "abi": [
    {
      "anonymous": false,
      "inputs": [
        {
          "indexed": true,
          "internalType": "address",
          "name": "owner",
          "type": "address"
        },
        {
          "indexed": true,
          "internalType": "address",
          "name": "approved",
          "type": "address"
        },
        {
          "indexed": true,
          "internalType": "uint256",
          "name": "tokenId",
          "type": "uint256"
        }
      ],
      "name": "Approval",
      "type": "event"
    },
    {
      "anonymous": false,
      "inputs": [
        {
          "indexed": true,
          "internalType": "address",
          "name": "owner",
          "type": "address"
        },
        {
          "indexed": true,
          "internalType": "address",
          "name": "operator",
          "type": "address"
        },
        {
          "indexed": false,
          "internalType": "bool",
          "name": "approved",
          "type": "bool"
        }
      ],
      "name": "ApprovalForAll",
      "type": "event"
    },
    {
      "anonymous": false,
      "inputs": [
        {
          "indexed": true,
          "internalType": "address",
          "name": "underlyingAsset",
          "type": "address"
        }
      ],
      "name": "BNFTInitialized",
      "type": "event"
    },
    {
      "anonymous": false,
      "inputs": [
        {
          "indexed": true,
          "internalType": "address",
          "name": "user",
          "type": "address"
        },
        {
          "indexed": true,
          "internalType": "address",
          "name": "nftAsset",
          "type": "address"
        },
        {
          "indexed": false,
          "internalType": "uint256",
          "name": "nftTokenId",
          "type": "uint256"
        },
        {
          "indexed": true,
          "internalType": "address",
          "name": "owner",
          "type": "address"
        }
      ],
      "name": "Burn",
      "type": "event"
    },
    {
      "anonymous": false,
      "inputs": [
        {
          "indexed": true,
          "internalType": "address",
          "name": "target",
          "type": "address"
        },
        {
          "indexed": true,
          "internalType": "address",
          "name": "initiator",
          "type": "address"
        },
        {
          "indexed": true,
          "internalType": "address",
          "name": "nftAsset",
          "type": "address"
        },
        {
          "indexed": false,
          "internalType": "uint256",
          "name": "tokenId",
          "type": "uint256"
        }
      ],
      "name": "FlashLoan",
      "type": "event"
    },
    {
      "anonymous": false,
      "inputs": [
        {
          "indexed": false,
          "internalType": "uint8",
          "name": "version",
          "type": "uint8"
        }
      ],
      "name": "Initialized",
      "type": "event"
    },
    {
      "anonymous": false,
      "inputs": [
        {
          "indexed": true,
          "internalType": "address",
          "name": "user",
          "type": "address"
        },
        {
          "indexed": true,
          "internalType": "address",
          "name": "nftAsset",
          "type": "address"
        },
        {
          "indexed": false,
          "internalType": "uint256",
          "name": "nftTokenId",
          "type": "uint256"
        },
        {
          "indexed": true,
          "internalType": "address",
          "name": "owner",
          "type": "address"
        }
      ],
      "name": "Mint",
      "type": "event"
    },
    {
      "anonymous": false,
      "inputs": [
        {
          "indexed": true,
          "internalType": "address",
          "name": "from",
          "type": "address"
        },
        {
          "indexed": true,
          "internalType": "address",
          "name": "to",
          "type": "address"
        },
        {
          "indexed": true,
          "internalType": "uint256",
          "name": "tokenId",
          "type": "uint256"
        }
      ],
      "name": "Transfer",
      "type": "event"
    },
    {
      "inputs": [
        {
          "internalType": "address",
          "name": "to",
          "type": "address"
        },
        {
          "internalType": "uint256",
          "name": "tokenId",
          "type": "uint256"
        }
      ],
      "name": "approve",
      "outputs": [],
      "stateMutability": "nonpayable",
      "type": "function"
    },
    {
      "inputs": [
        {
          "internalType": "address",
          "name": "owner",
          "type": "address"
        }
      ],
      "name": "balanceOf",
      "outputs": [
        {
          "internalType": "uint256",
          "name": "",
          "type": "uint256"
        }
      ],
      "stateMutability": "view",
      "type": "function"
    },
    {
      "inputs": [
        {
          "internalType": "uint256",
          "name": "tokenId",
          "type": "uint256"
        }
      ],
      "name": "burn",
      "outputs": [],
      "stateMutability": "nonpayable",
      "type": "function"
    },
    {
      "inputs": [
        {
          "internalType": "uint256",
          "name": "tokenId",
          "type": "uint256"
        }
      ],
      "name": "getApproved",
      "outputs": [
        {
          "internalType": "address",
          "name": "",
          "type": "address"
        }
      ],
      "stateMutability": "view",
      "type": "function"
    },
    {
      "inputs": [
        {
          "internalType": "address",
          "name": "underlyingAsset",
          "type": "address"
        },
        {
          "internalType": "string",
          "name": "bNftName",
          "type": "string"
        },
        {
          "internalType": "string",
          "name": "bNftSymbol",
          "type": "string"
        }
      ],
      "name": "initialize",
      "outputs": [],
      "stateMutability": "nonpayable",
      "type": "function"
    },
    {
      "inputs": [
        {
          "internalType": "address",
          "name": "owner",
          "type": "address"
        },
        {
          "internalType": "address",
          "name": "operator",
          "type": "address"
        }
      ],
      "name": "isApprovedForAll",
      "outputs": [
        {
          "internalType": "bool",
          "name": "",
          "type": "bool"
        }
      ],
      "stateMutability": "view",
      "type": "function"
    },
    {
      "inputs": [
        {
          "internalType": "address",
          "name": "to",
          "type": "address"
        },
        {
          "internalType": "uint256",
          "name": "tokenId",
          "type": "uint256"
        }
      ],
      "name": "mint",
      "outputs": [],
      "stateMutability": "nonpayable",
      "type": "function"
    },
    {
      "inputs": [
        {
          "internalType": "uint256",
          "name": "tokenId",
          "type": "uint256"
        }
      ],
      "name": "minterOf",
      "outputs": [
        {
          "internalType": "address",
          "name": "",
          "type": "address"
        }
      ],
      "stateMutability": "view",
      "type": "function"
    },
    {
      "inputs": [],
      "name": "name",
      "outputs": [
        {
          "internalType": "string",
          "name": "",
          "type": "string"
        }
      ],
      "stateMutability": "view",
      "type": "function"
    },
    {
      "inputs": [
        {
          "internalType": "address",
          "name": "operator",
          "type": "address"
        },
        {
          "internalType": "address",
          "name": "from",
          "type": "address"
        },
        {
          "internalType": "uint256",
          "name": "tokenId",
          "type": "uint256"
        },
        {
          "internalType": "bytes",
          "name": "data",
          "type": "bytes"
        }
      ],
      "name": "onERC721Received",
      "outputs": [
        {
          "internalType": "bytes4",
          "name": "",
          "type": "bytes4"
        }
      ],
      "stateMutability": "pure",
      "type": "function"
    },
    {
      "inputs": [
        {
          "internalType": "uint256",
          "name": "tokenId",
          "type": "uint256"
        }
      ],
      "name": "ownerOf",
      "outputs": [
        {
          "internalType": "address",
          "name": "",
          "type": "address"
        }
      ],
      "stateMutability": "view",
      "type": "function"
    },
    {
      "inputs": [
        {
          "internalType": "address",
          "name": "from",
          "type": "address"
        },
        {
          "internalType": "address",
          "name": "to",
          "type": "address"
        },
        {
          "internalType": "uint256",
          "name": "tokenId",
          "type": "uint256"
        }
      ],
      "name": "safeTransferFrom",
      "outputs": [],
      "stateMutability": "nonpayable",
      "type": "function"
    },
    {
      "inputs": [
        {
          "internalType": "address",
          "name": "from",
          "type": "address"
        },
        {
          "internalType": "address",
          "name": "to",
          "type": "address"
        },
        {
          "internalType": "uint256",
          "name": "tokenId",
          "type": "uint256"
        },
        {
          "internalType": "bytes",
          "name": "_data",
          "type": "bytes"
        }
      ],
      "name": "safeTransferFrom",
      "outputs": [],
      "stateMutability": "nonpayable",
      "type": "function"
    },
    {
      "inputs": [
        {
          "internalType": "address",
          "name": "operator",
          "type": "address"
        },
        {
          "internalType": "bool",
          "name": "approved",
          "type": "bool"
        }
      ],
      "name": "setApprovalForAll",
      "outputs": [],
      "stateMutability": "nonpayable",
      "type": "function"
    },
    {
      "inputs": [
        {
          "internalType": "bytes4",
          "name": "interfaceId",
          "type": "bytes4"
        }
      ],
      "name": "supportsInterface",
      "outputs": [
        {
          "internalType": "bool",
          "name": "",
          "type": "bool"
        }
      ],
      "stateMutability": "view",
      "type": "function"
    },
    {
      "inputs": [],
      "name": "symbol",
      "outputs": [
        {
          "internalType": "string",
          "name": "",
          "type": "string"
        }
      ],
      "stateMutability": "view",
      "type": "function"
    },
    {
      "inputs": [
        {
          "internalType": "uint256",
          "name": "index",
          "type": "uint256"
        }
      ],
      "name": "tokenByIndex",
      "outputs": [
        {
          "internalType": "uint256",
          "name": "",
          "type": "uint256"
        }
      ],
      "stateMutability": "view",
      "type": "function"
    },
    {
      "inputs": [
        {
          "internalType": "address",
          "name": "owner",
          "type": "address"
        },
        {
          "internalType": "uint256",
          "name": "index",
          "type": "uint256"
        }
      ],
      "name": "tokenOfOwnerByIndex",
      "outputs": [
        {
          "internalType": "uint256",
          "name": "",
          "type": "uint256"
        }
      ],
      "stateMutability": "view",
      "type": "function"
    },
    {
      "inputs": [
        {
          "internalType": "uint256",
          "name": "tokenId",
          "type": "uint256"
        }
      ],
      "name": "tokenURI",
      "outputs": [
        {
          "internalType": "string",
          "name": "",
          "type": "string"
        }
      ],
      "stateMutability": "view",
      "type": "function"
    },
    {
      "inputs": [],
      "name": "totalSupply",
      "outputs": [
        {
          "internalType": "uint256",
          "name": "",
          "type": "uint256"
        }
      ],
      "stateMutability": "view",
      "type": "function"
    },
    {
      "inputs": [
        {
          "internalType": "address",
          "name": "from",
          "type": "address"
        },
        {
          "internalType": "address",
          "name": "to",
          "type": "address"
        },
        {
          "internalType": "uint256",
          "name": "tokenId",
          "type": "uint256"
        }
      ],
      "name": "transferFrom",
      "outputs": [],
      "stateMutability": "nonpayable",
      "type": "function"
    }
  ],
  "transactionHash": "0x285ca256de7a375ee5df8242523d948fb598406d4438a5e46e1a387abb31a06f",
  "args": [],
  "numDeployments": 1,
  "solcInputHash": "525025893565bdb4b632bbdfd99a5c2c",
  "bytecode": "0x608060405234801561001057600080fd5b50611a41806100206000396000f3fe608060405234801561001057600080fd5b50600436106101375760003560e01c806342966c68116100b857806395d89b411161007c57806395d89b411461029b5780639e942ace146102a3578063a22cb465146102b6578063b88d4fde146102c4578063c87b56dd146102d2578063e985e9c5146102e557600080fd5b806342966c681461023c5780634f6ccce71461024f5780636352211e1461026257806370a0823114610275578063906571471461028857600080fd5b806318160ddd116100ff57806318160ddd146101f157806323b872dd146102035780632f745c591461021657806340c10f191461022957806342842e0e1461020357600080fd5b806301ffc9a71461013c57806306fdde0314610164578063081812fc14610179578063095ea7b3146101a4578063150b7a02146101b9575b600080fd5b61014f61014a36600461147c565b610321565b60405190151581526020015b60405180910390f35b61016c61034c565b60405161015b91906114dd565b61018c610187366004611510565b6103de565b6040516001600160a01b03909116815260200161015b565b6101b76101b236600461153e565b610405565b005b6101d86101c73660046115b3565b630a85bd0160e11b95945050505050565b6040516001600160e01b0319909116815260200161015b565b6099545b60405190815260200161015b565b6101b7610211366004611626565b61044b565b6101f561022436600461153e565b61048c565b6101b761023736600461153e565b610522565b6101b761024a366004611510565b6107ac565b6101f561025d366004611510565b6109ba565b61018c610270366004611510565b610a4d565b6101f5610283366004611667565b610aad565b6101b7610296366004611684565b610b33565b61016c610cfb565b61018c6102b1366004611510565b610d0a565b6101b76101b23660046116f6565b6101b76102113660046117a3565b61016c6102e0366004611510565b610d80565b61014f6102f3366004611852565b6001600160a01b039182166000908152606a6020908152604080832093909416825291909152205460ff1690565b60006001600160e01b0319821663780e9d6360e01b1480610346575061034682610e01565b92915050565b60606065805461035b90611880565b80601f016020809104026020016040519081016040528092919081815260200182805461038790611880565b80156103d45780601f106103a9576101008083540402835291602001916103d4565b820191906000526020600020905b8154815290600101906020018083116103b757829003601f168201915b5050505050905090565b60006103e982610e51565b506000908152606960205260409020546001600160a01b031690565b60405162461bcd60e51b81526020600482015260166024820152751054141493d5905317d393d517d4d5541413d495115160521b60448201526064015b60405180910390fd5b60405162461bcd60e51b81526020600482015260166024820152751514905394d1915497d393d517d4d5541413d495115160521b6044820152606401610442565b600061049783610aad565b82106104f95760405162461bcd60e51b815260206004820152602b60248201527f455243373231456e756d657261626c653a206f776e657220696e646578206f7560448201526a74206f6620626f756e647360a81b6064820152608401610442565b506001600160a01b03919091166000908152609760209081526040808320938352929052205490565b610536335b6001600160a01b03163b151590565b6105825760405162461bcd60e51b815260206004820152601c60248201527f424e46543a2063616c6c6572206973206e6f7420636f6e7472616374000000006044820152606401610442565b6000818152606760205260409020546001600160a01b0316156105db5760405162461bcd60e51b81526020600482015260116024820152702127232a1d1032bc34b9ba103a37b5b2b760791b6044820152606401610442565b3360c9546040516331a9108f60e11b8152600481018490526001600160a01b039283169290911690636352211e9060240160206040518083038186803b15801561062457600080fd5b505afa158015610638573d6000803e3d6000fd5b505050506040513d601f19601f8201168201806040525081019061065c91906118bb565b6001600160a01b0316146106b25760405162461bcd60e51b815260206004820152601960248201527f424e46543a2063616c6c6572206973206e6f74206f776e6572000000000000006044820152606401610442565b60c9546001600160a01b03166342842e0e336040516001600160e01b031960e084901b1681526001600160a01b03909116600482015230602482015260448101849052606401600060405180830381600087803b15801561071257600080fd5b505af1158015610726573d6000803e3d6000fd5b505050506107348282610eb3565b33600082815260ca6020526040902080546001600160a01b0319166001600160a01b0392831617905560c9548382169116336001600160a01b03167ff9403b28cc8805935e0ce6943ed646d5fde3d1e14f6b398e85bfa2851d1b85f7846040516107a091815260200190565b60405180910390a45050565b6107b533610527565b6108015760405162461bcd60e51b815260206004820152601c60248201527f424e46543a2063616c6c6572206973206e6f7420636f6e7472616374000000006044820152606401610442565b6000818152606760205260409020546001600160a01b031661085c5760405162461bcd60e51b81526020600482015260146024820152732127232a1d103737b732bc34b9ba103a37b5b2b760611b6044820152606401610442565b600081815260ca60205260409020546001600160a01b031633146108c25760405162461bcd60e51b815260206004820152601a60248201527f424e46543a2063616c6c6572206973206e6f74206d696e7465720000000000006044820152606401610442565b60006108cd82610a4d565b60c9549091506001600160a01b03166342842e0e30336040516001600160e01b031960e085901b1681526001600160a01b0392831660048201529116602482015260448101859052606401600060405180830381600087803b15801561093257600080fd5b505af1158015610946573d6000803e3d6000fd5b5050505061095382611002565b600082815260ca6020526040902080546001600160a01b031916905560c9546001600160a01b038281169116336001600160a01b03167f3dd1df88dc92e2788892542d81f999d720a44b4c127065d45c128f4f59fdc373856040516107a091815260200190565b60006109c560995490565b8210610a285760405162461bcd60e51b815260206004820152602c60248201527f455243373231456e756d657261626c653a20676c6f62616c20696e646578206f60448201526b7574206f6620626f756e647360a01b6064820152608401610442565b60998281548110610a3b57610a3b6118d8565b90600052602060002001549050919050565b6000818152606760205260408120546001600160a01b0316806103465760405162461bcd60e51b8152602060048201526018602482015277115490cdcc8c4e881a5b9d985b1a59081d1bdad95b88125160421b6044820152606401610442565b60006001600160a01b038216610b175760405162461bcd60e51b815260206004820152602960248201527f4552433732313a2061646472657373207a65726f206973206e6f7420612076616044820152683634b21037bbb732b960b91b6064820152608401610442565b506001600160a01b031660009081526068602052604090205490565b600054610100900460ff1615808015610b535750600054600160ff909116105b80610b6d5750303b158015610b6d575060005460ff166001145b610bd05760405162461bcd60e51b815260206004820152602e60248201527f496e697469616c697a61626c653a20636f6e747261637420697320616c72656160448201526d191e481a5b9a5d1a585b1a5e995960921b6064820152608401610442565b6000805460ff191660011790558015610bf3576000805461ff0019166101001790555b610c6685858080601f01602080910402602001604051908101604052809392919081815260200183838082843760009201919091525050604080516020601f890181900481028201810190925287815292508791508690819084018382808284376000920191909152506110a992505050565b60c980546001600160a01b0319166001600160a01b0388169081179091556040517f53aba077679c8c811c8f23a7e6140fb73842c13f99c75f66b8a322fc71f153ba90600090a28015610cf3576000805461ff0019169055604051600181527f7f26b83ff96e1f2b6a682f133852f6798a09c465da95921460cefb38474024989060200160405180910390a15b505050505050565b60606066805461035b90611880565b600081815260ca60205260408120546001600160a01b0316806103465760405162461bcd60e51b815260206004820152602860248201527f424e46543a206d696e74657220717565727920666f72206e6f6e657869737465604482015267373a103a37b5b2b760c11b6064820152608401610442565b60c95460405163c87b56dd60e01b8152600481018390526060916001600160a01b03169063c87b56dd9060240160006040518083038186803b158015610dc557600080fd5b505afa158015610dd9573d6000803e3d6000fd5b505050506040513d6000823e601f3d908101601f1916820160405261034691908101906118ee565b60006001600160e01b031982166380ac58cd60e01b1480610e3257506001600160e01b03198216635b5e139f60e01b145b8061034657506301ffc9a760e01b6001600160e01b0319831614610346565b6000818152606760205260409020546001600160a01b0316610eb05760405162461bcd60e51b8152602060048201526018602482015277115490cdcc8c4e881a5b9d985b1a59081d1bdad95b88125160421b6044820152606401610442565b50565b6001600160a01b038216610f095760405162461bcd60e51b815260206004820181905260248201527f4552433732313a206d696e7420746f20746865207a65726f20616464726573736044820152606401610442565b6000818152606760205260409020546001600160a01b031615610f6e5760405162461bcd60e51b815260206004820152601c60248201527f4552433732313a20746f6b656e20616c7265616479206d696e746564000000006044820152606401610442565b610f7a600083836110da565b6001600160a01b0382166000908152606860205260408120805460019290610fa390849061197b565b909155505060008181526067602052604080822080546001600160a01b0319166001600160a01b03861690811790915590518392907fddf252ad1be2c89b69c2b068fc378daa952ba7f163c4a11628f55a4df523b3ef908290a45b5050565b600061100d82610a4d565b905061101b816000846110da565b611026600083611197565b6001600160a01b038116600090815260686020526040812080546001929061104f908490611993565b909155505060008281526067602052604080822080546001600160a01b0319169055518391906001600160a01b038416907fddf252ad1be2c89b69c2b068fc378daa952ba7f163c4a11628f55a4df523b3ef908390a45050565b600054610100900460ff166110d05760405162461bcd60e51b8152600401610442906119aa565b610ffe8282611205565b6001600160a01b0383166111355761113081609980546000838152609a60205260408120829055600182018355919091527f72a152ddfb8e864297c917af52ea6c1c68aead0fee1a62673fcc7e0c94979d000155565b611158565b816001600160a01b0316836001600160a01b031614611158576111588382611253565b6001600160a01b0382166111745761116f816112f0565b505050565b826001600160a01b0316826001600160a01b03161461116f5761116f828261139f565b600081815260696020526040902080546001600160a01b0319166001600160a01b03841690811790915581906111cc82610a4d565b6001600160a01b03167f8c5be1e5ebec7d5bd14f71427d1e84f3dd0314c0f7b2291e5b200ac8c7c3b92560405160405180910390a45050565b600054610100900460ff1661122c5760405162461bcd60e51b8152600401610442906119aa565b815161123f9060659060208501906113e3565b50805161116f9060669060208401906113e3565b6000600161126084610aad565b61126a9190611993565b6000838152609860205260409020549091508082146112bd576001600160a01b03841660009081526097602090815260408083208584528252808320548484528184208190558352609890915290208190555b5060009182526098602090815260408084208490556001600160a01b039094168352609781528383209183525290812055565b60995460009061130290600190611993565b6000838152609a60205260408120546099805493945090928490811061132a5761132a6118d8565b90600052602060002001549050806099838154811061134b5761134b6118d8565b6000918252602080832090910192909255828152609a90915260408082208490558582528120556099805480611383576113836119f5565b6001900381819060005260206000200160009055905550505050565b60006113aa83610aad565b6001600160a01b039093166000908152609760209081526040808320868452825280832085905593825260989052919091209190915550565b8280546113ef90611880565b90600052602060002090601f0160209004810192826114115760008555611457565b82601f1061142a57805160ff1916838001178555611457565b82800160010185558215611457579182015b8281111561145757825182559160200191906001019061143c565b50611463929150611467565b5090565b5b808211156114635760008155600101611468565b60006020828403121561148e57600080fd5b81356001600160e01b0319811681146114a657600080fd5b9392505050565b60005b838110156114c85781810151838201526020016114b0565b838111156114d7576000848401525b50505050565b60208152600082518060208401526114fc8160408501602087016114ad565b601f01601f19169190910160400192915050565b60006020828403121561152257600080fd5b5035919050565b6001600160a01b0381168114610eb057600080fd5b6000806040838503121561155157600080fd5b823561155c81611529565b946020939093013593505050565b60008083601f84011261157c57600080fd5b50813567ffffffffffffffff81111561159457600080fd5b6020830191508360208285010111156115ac57600080fd5b9250929050565b6000806000806000608086880312156115cb57600080fd5b85356115d681611529565b945060208601356115e681611529565b935060408601359250606086013567ffffffffffffffff81111561160957600080fd5b6116158882890161156a565b969995985093965092949392505050565b60008060006060848603121561163b57600080fd5b833561164681611529565b9250602084013561165681611529565b929592945050506040919091013590565b60006020828403121561167957600080fd5b81356114a681611529565b60008060008060006060868803121561169c57600080fd5b85356116a781611529565b9450602086013567ffffffffffffffff808211156116c457600080fd5b6116d089838a0161156a565b909650945060408801359150808211156116e957600080fd5b506116158882890161156a565b6000806040838503121561170957600080fd5b823561171481611529565b91506020830135801515811461172957600080fd5b809150509250929050565b634e487b7160e01b600052604160045260246000fd5b604051601f8201601f1916810167ffffffffffffffff8111828210171561177357611773611734565b604052919050565b600067ffffffffffffffff82111561179557611795611734565b50601f01601f191660200190565b600080600080608085870312156117b957600080fd5b84356117c481611529565b935060208501356117d481611529565b925060408501359150606085013567ffffffffffffffff8111156117f757600080fd5b8501601f8101871361180857600080fd5b803561181b6118168261177b565b61174a565b81815288602083850101111561183057600080fd5b8160208401602083013760006020838301015280935050505092959194509250565b6000806040838503121561186557600080fd5b823561187081611529565b9150602083013561172981611529565b600181811c9082168061189457607f821691505b602082108114156118b557634e487b7160e01b600052602260045260246000fd5b50919050565b6000602082840312156118cd57600080fd5b81516114a681611529565b634e487b7160e01b600052603260045260246000fd5b60006020828403121561190057600080fd5b815167ffffffffffffffff81111561191757600080fd5b8201601f8101841361192857600080fd5b80516119366118168261177b565b81815285602083850101111561194b57600080fd5b61195c8260208301602086016114ad565b95945050505050565b634e487b7160e01b600052601160045260246000fd5b6000821982111561198e5761198e611965565b500190565b6000828210156119a5576119a5611965565b500390565b6020808252602b908201527f496e697469616c697a61626c653a20636f6e7472616374206973206e6f74206960408201526a6e697469616c697a696e6760a81b606082015260800190565b634e487b7160e01b600052603160045260246000fdfea264697066735822122025aeacc33990bd2ca445af7f3b064bd2490160d10aecc2407e88f8ff77260fa564736f6c63430008090033",
  "devdoc": {
    "details": "Implements the methods for the bNFT protocol*",
    "kind": "dev",
    "methods": {
      "approve(address,uint256)": {
        "details": "Being non transferrable, the bNFT token does not implement any of the standard ERC721 functions for transfer and allowance.*"
      },
      "balanceOf(address)": {
        "details": "See {IERC721-balanceOf}."
      },
      "burn(uint256)": {
        "details": "Burns user bNFT token Requirements:  - The caller must be contract address",
        "params": {
          "tokenId": "token id of the underlying asset of NFT*"
        }
      },
      "getApproved(uint256)": {
        "details": "See {IERC721-getApproved}."
      },
      "initialize(address,string,string)": {
        "details": "Initializes the bNFT",
        "params": {
          "underlyingAsset": "The address of the underlying asset of this bNFT (E.g. PUNK for bPUNK)"
        }
      },
      "isApprovedForAll(address,address)": {
        "details": "See {IERC721-isApprovedForAll}."
      },
      "mint(address,uint256)": {
        "details": "Mints bNFT token to the user address Requirements:  - The caller must be contract address",
        "params": {
          "to": "The owner address receive the bNFT token",
          "tokenId": "token id of the underlying asset of NFT*"
        }
      },
      "minterOf(uint256)": {
        "details": "See {IBNFT-minterOf}."
      },
      "name()": {
        "details": "See {IERC721Metadata-name}."
      },
      "onERC721Received(address,address,uint256,bytes)": {
        "details": "Whenever an {IERC721} `tokenId` token is transferred to this contract via {IERC721-safeTransferFrom} by `operator` from `from`, this function is called. It must return its Solidity selector to confirm the token transfer. If any other value is returned or the interface is not implemented by the recipient, the transfer will be reverted. The selector can be obtained in Solidity with `IERC721Receiver.onERC721Received.selector`."
      },
      "ownerOf(uint256)": {
        "details": "See {IERC721-ownerOf}."
      },
      "supportsInterface(bytes4)": {
        "details": "See {IERC165-supportsInterface}."
      },
      "symbol()": {
        "details": "See {IERC721Metadata-symbol}."
      },
      "tokenByIndex(uint256)": {
        "details": "See {IERC721Enumerable-tokenByIndex}."
      },
      "tokenOfOwnerByIndex(address,uint256)": {
        "details": "See {IERC721Enumerable-tokenOfOwnerByIndex}."
      },
      "tokenURI(uint256)": {
        "details": "See {IERC721Metadata-tokenURI}."
      },
      "totalSupply()": {
        "details": "See {IERC721Enumerable-totalSupply}."
      }
    },
    "title": "BNFT contract",
    "version": 1
  },
  "userdoc": {
    "kind": "user",
    "methods": {},
    "version": 1
  },
  "storageLayout": {
    "storage": [
      {
        "astId": 138,
        "contract": "contracts/token/BNFT.sol:BNFT",
        "label": "_initialized",
        "offset": 0,
        "slot": "0",
        "type": "t_uint8"
      },
      {
        "astId": 141,
        "contract": "contracts/token/BNFT.sol:BNFT",
        "label": "_initializing",
        "offset": 1,
        "slot": "0",
        "type": "t_bool"
      },
      {
        "astId": 3230,
        "contract": "contracts/token/BNFT.sol:BNFT",
        "label": "__gap",
        "offset": 0,
        "slot": "1",
        "type": "t_array(t_uint256)50_storage"
      },
      {
        "astId": 4112,
        "contract": "contracts/token/BNFT.sol:BNFT",
        "label": "__gap",
        "offset": 0,
        "slot": "51",
        "type": "t_array(t_uint256)50_storage"
      },
      {
        "astId": 1533,
        "contract": "contracts/token/BNFT.sol:BNFT",
        "label": "_name",
        "offset": 0,
        "slot": "101",
        "type": "t_string_storage"
      },
      {
        "astId": 1535,
        "contract": "contracts/token/BNFT.sol:BNFT",
        "label": "_symbol",
        "offset": 0,
        "slot": "102",
        "type": "t_string_storage"
      },
      {
        "astId": 1539,
        "contract": "contracts/token/BNFT.sol:BNFT",
        "label": "_owners",
        "offset": 0,
        "slot": "103",
        "type": "t_mapping(t_uint256,t_address)"
      },
      {
        "astId": 1543,
        "contract": "contracts/token/BNFT.sol:BNFT",
        "label": "_balances",
        "offset": 0,
        "slot": "104",
        "type": "t_mapping(t_address,t_uint256)"
      },
      {
        "astId": 1547,
        "contract": "contracts/token/BNFT.sol:BNFT",
        "label": "_tokenApprovals",
        "offset": 0,
        "slot": "105",
        "type": "t_mapping(t_uint256,t_address)"
      },
      {
        "astId": 1553,
        "contract": "contracts/token/BNFT.sol:BNFT",
        "label": "_operatorApprovals",
        "offset": 0,
        "slot": "106",
        "type": "t_mapping(t_address,t_mapping(t_address,t_bool))"
      },
      {
        "astId": 2395,
        "contract": "contracts/token/BNFT.sol:BNFT",
        "label": "__gap",
        "offset": 0,
        "slot": "107",
        "type": "t_array(t_uint256)44_storage"
      },
      {
        "astId": 2560,
        "contract": "contracts/token/BNFT.sol:BNFT",
        "label": "_ownedTokens",
        "offset": 0,
        "slot": "151",
        "type": "t_mapping(t_address,t_mapping(t_uint256,t_uint256))"
      },
      {
        "astId": 2564,
        "contract": "contracts/token/BNFT.sol:BNFT",
        "label": "_ownedTokensIndex",
        "offset": 0,
        "slot": "152",
        "type": "t_mapping(t_uint256,t_uint256)"
      },
      {
        "astId": 2567,
        "contract": "contracts/token/BNFT.sol:BNFT",
        "label": "_allTokens",
        "offset": 0,
        "slot": "153",
        "type": "t_array(t_uint256)dyn_storage"
      },
      {
        "astId": 2571,
        "contract": "contracts/token/BNFT.sol:BNFT",
        "label": "_allTokensIndex",
        "offset": 0,
        "slot": "154",
        "type": "t_mapping(t_uint256,t_uint256)"
      },
      {
        "astId": 2887,
        "contract": "contracts/token/BNFT.sol:BNFT",
        "label": "__gap",
        "offset": 0,
        "slot": "155",
        "type": "t_array(t_uint256)46_storage"
      },
      {
        "astId": 11345,
        "contract": "contracts/token/BNFT.sol:BNFT",
        "label": "_underlyingAsset",
        "offset": 0,
        "slot": "201",
        "type": "t_address"
      },
      {
        "astId": 11349,
        "contract": "contracts/token/BNFT.sol:BNFT",
        "label": "_minters",
        "offset": 0,
        "slot": "202",
        "type": "t_mapping(t_uint256,t_address)"
      }
    ],
    "types": {
      "t_address": {
        "encoding": "inplace",
        "label": "address",
        "numberOfBytes": "20"
      },
      "t_array(t_uint256)44_storage": {
        "base": "t_uint256",
        "encoding": "inplace",
        "label": "uint256[44]",
        "numberOfBytes": "1408"
      },
      "t_array(t_uint256)46_storage": {
        "base": "t_uint256",
        "encoding": "inplace",
        "label": "uint256[46]",
        "numberOfBytes": "1472"
      },
      "t_array(t_uint256)50_storage": {
        "base": "t_uint256",
        "encoding": "inplace",
        "label": "uint256[50]",
        "numberOfBytes": "1600"
      },
      "t_array(t_uint256)dyn_storage": {
        "base": "t_uint256",
        "encoding": "dynamic_array",
        "label": "uint256[]",
        "numberOfBytes": "32"
      },
      "t_bool": {
        "encoding": "inplace",
        "label": "bool",
        "numberOfBytes": "1"
      },
      "t_mapping(t_address,t_bool)": {
        "encoding": "mapping",
        "key": "t_address",
        "label": "mapping(address => bool)",
        "numberOfBytes": "32",
        "value": "t_bool"
      },
      "t_mapping(t_address,t_mapping(t_address,t_bool))": {
        "encoding": "mapping",
        "key": "t_address",
        "label": "mapping(address => mapping(address => bool))",
        "numberOfBytes": "32",
        "value": "t_mapping(t_address,t_bool)"
      },
      "t_mapping(t_address,t_mapping(t_uint256,t_uint256))": {
        "encoding": "mapping",
        "key": "t_address",
        "label": "mapping(address => mapping(uint256 => uint256))",
        "numberOfBytes": "32",
        "value": "t_mapping(t_uint256,t_uint256)"
      },
      "t_mapping(t_address,t_uint256)": {
        "encoding": "mapping",
        "key": "t_address",
        "label": "mapping(address => uint256)",
        "numberOfBytes": "32",
        "value": "t_uint256"
      },
      "t_mapping(t_uint256,t_address)": {
        "encoding": "mapping",
        "key": "t_uint256",
        "label": "mapping(uint256 => address)",
        "numberOfBytes": "32",
        "value": "t_address"
      },
      "t_mapping(t_uint256,t_uint256)": {
        "encoding": "mapping",
        "key": "t_uint256",
        "label": "mapping(uint256 => uint256)",
        "numberOfBytes": "32",
        "value": "t_uint256"
      },
      "t_string_storage": {
        "encoding": "bytes",
        "label": "string",
        "numberOfBytes": "32"
      },
      "t_uint256": {
        "encoding": "inplace",
        "label": "uint256",
        "numberOfBytes": "32"
      },
      "t_uint8": {
        "encoding": "inplace",
        "label": "uint8",
        "numberOfBytes": "1"
      }
    }
  }
}