{
  "address": "0x67AB9fd546b4FD2872027129c1Dc86BEE8AE3FbA",
  "abi": [
    {
      "inputs": [
        {
          "internalType": "address",
          "name": "dbAddress",
          "type": "address"
        }
      ],
      "stateMutability": "nonpayable",
      "type": "constructor"
    },
    {
      "anonymous": false,
      "inputs": [
        {
          "indexed": true,
          "internalType": "address",
          "name": "account",
          "type": "address"
        },
        {
          "indexed": true,
          "internalType": "uint256",
          "name": "nftId",
          "type": "uint256"
        },
        {
          "indexed": false,
          "internalType": "uint256",
          "name": "amount",
          "type": "uint256"
        }
      ],
      "name": "ClaimAchievementReward",
      "type": "event"
    },
    {
      "anonymous": false,
      "inputs": [
        {
          "indexed": true,
          "internalType": "address",
          "name": "account",
          "type": "address"
        },
        {
          "indexed": false,
          "internalType": "address",
          "name": "invitee",
          "type": "address"
        },
        {
          "indexed": false,
          "internalType": "uint256",
          "name": "amount",
          "type": "uint256"
        }
      ],
      "name": "CommunityRewardDistribute",
      "type": "event"
    },
    {
      "anonymous": false,
      "inputs": [
        {
          "indexed": true,
          "internalType": "address",
          "name": "account",
          "type": "address"
        },
        {
          "indexed": false,
          "internalType": "address",
          "name": "invitee",
          "type": "address"
        },
        {
          "indexed": false,
          "internalType": "uint256",
          "name": "amount",
          "type": "uint256"
        }
      ],
      "name": "ContributionRewardDistribute",
      "type": "event"
    },
    {
      "anonymous": false,
      "inputs": [
        {
          "indexed": false,
          "internalType": "uint8",
          "name": "version",
          "type": "uint8"
        }
      ],
      "name": "Initialized",
      "type": "event"
    },
    {
      "anonymous": false,
      "inputs": [
        {
          "indexed": true,
          "internalType": "address",
          "name": "account",
          "type": "address"
        },
        {
          "indexed": false,
          "internalType": "enum IUser.Level",
          "name": "level",
          "type": "uint8"
        }
      ],
      "name": "LevelUp",
      "type": "event"
    },
    {
      "anonymous": false,
      "inputs": [
        {
          "indexed": true,
          "internalType": "address",
          "name": "account",
          "type": "address"
        },
        {
          "indexed": false,
          "internalType": "address",
          "name": "ref",
          "type": "address"
        }
      ],
      "name": "Register",
      "type": "event"
    },
    {
      "anonymous": false,
      "inputs": [
        {
          "indexed": true,
          "internalType": "address",
          "name": "account",
          "type": "address"
        },
        {
          "indexed": false,
          "internalType": "address",
          "name": "invitee",
          "type": "address"
        },
        {
          "indexed": false,
          "internalType": "uint256",
          "name": "amount",
          "type": "uint256"
        }
      ],
      "name": "SocialRewardDistribute",
      "type": "event"
    },
    {
      "inputs": [],
      "name": "BLACK_HOLE",
      "outputs": [
        {
          "internalType": "address",
          "name": "",
          "type": "address"
        }
      ],
      "stateMutability": "view",
      "type": "function"
    },
    {
      "inputs": [],
      "name": "DB_CONTRACT",
      "outputs": [
        {
          "internalType": "address",
          "name": "",
          "type": "address"
        }
      ],
      "stateMutability": "view",
      "type": "function"
    },
    {
      "inputs": [],
      "name": "__User_init",
      "outputs": [],
      "stateMutability": "nonpayable",
      "type": "function"
    },
    {
      "inputs": [
        {
          "internalType": "address",
          "name": "_userAddr",
          "type": "address"
        }
      ],
      "name": "auditLevel",
      "outputs": [],
      "stateMutability": "nonpayable",
      "type": "function"
    },
    {
      "inputs": [
        {
          "internalType": "address",
          "name": "_userAddr",
          "type": "address"
        },
        {
          "internalType": "uint256",
          "name": "_nftId",
          "type": "uint256"
        }
      ],
      "name": "calcAchievementReward",
      "outputs": [
        {
          "internalType": "uint256",
          "name": "",
          "type": "uint256"
        }
      ],
      "stateMutability": "view",
      "type": "function"
    },
    {
      "inputs": [
        {
          "internalType": "uint256",
          "name": "_nftId",
          "type": "uint256"
        }
      ],
      "name": "claimAchievementReward",
      "outputs": [],
      "stateMutability": "nonpayable",
      "type": "function"
    },
    {
      "inputs": [
        {
          "internalType": "address",
          "name": "_userAddr",
          "type": "address"
        },
        {
          "internalType": "uint256",
          "name": "_rewardAmount",
          "type": "uint256"
        }
      ],
      "name": "hookByClaimReward",
      "outputs": [],
      "stateMutability": "nonpayable",
      "type": "function"
    },
    {
      "inputs": [
        {
          "internalType": "uint256",
          "name": "nftId",
          "type": "uint256"
        }
      ],
      "name": "hookByStake",
      "outputs": [],
      "stateMutability": "nonpayable",
      "type": "function"
    },
    {
      "inputs": [
        {
          "internalType": "uint256",
          "name": "nftId",
          "type": "uint256"
        }
      ],
      "name": "hookByUnStake",
      "outputs": [],
      "stateMutability": "nonpayable",
      "type": "function"
    },
    {
      "inputs": [
        {
          "internalType": "address",
          "name": "_userAddr",
          "type": "address"
        },
        {
          "internalType": "uint256",
          "name": "_performance",
          "type": "uint256"
        }
      ],
      "name": "hookByUpgrade",
      "outputs": [],
      "stateMutability": "nonpayable",
      "type": "function"
    },
    {
      "inputs": [
        {
          "internalType": "address",
          "name": "_userAddr",
          "type": "address"
        }
      ],
      "name": "isValidUser",
      "outputs": [
        {
          "internalType": "bool",
          "name": "",
          "type": "bool"
        }
      ],
      "stateMutability": "view",
      "type": "function"
    },
    {
      "inputs": [
        {
          "internalType": "address",
          "name": "_userAddr",
          "type": "address"
        }
      ],
      "name": "levelUpAble",
      "outputs": [
        {
          "internalType": "bool",
          "name": "",
          "type": "bool"
        }
      ],
      "stateMutability": "view",
      "type": "function"
    },
    {
      "inputs": [
        {
          "internalType": "address",
          "name": "_userAddr",
          "type": "address"
        },
        {
          "internalType": "enum IUser.Level",
          "name": "_level",
          "type": "uint8"
        }
      ],
      "name": "refCounterOf",
      "outputs": [
        {
          "internalType": "uint256",
          "name": "",
          "type": "uint256"
        }
      ],
      "stateMutability": "view",
      "type": "function"
    },
    {
      "inputs": [
        {
          "internalType": "address",
          "name": "_refAddr",
          "type": "address"
        }
      ],
      "name": "register",
      "outputs": [],
      "stateMutability": "nonpayable",
      "type": "function"
    },
    {
      "inputs": [
        {
          "internalType": "address",
          "name": "_userAddr",
          "type": "address"
        },
        {
          "internalType": "address",
          "name": "_refAddr",
          "type": "address"
        }
      ],
      "name": "registerByEarlyPlan",
      "outputs": [],
      "stateMutability": "nonpayable",
      "type": "function"
    },
    {
      "inputs": [
        {
          "internalType": "uint256",
          "name": "",
          "type": "uint256"
        }
      ],
      "name": "stakeNFTs",
      "outputs": [
        {
          "internalType": "uint256",
          "name": "lastUpdateTime",
          "type": "uint256"
        },
        {
          "internalType": "uint256",
          "name": "stakedDuration",
          "type": "uint256"
        }
      ],
      "stateMutability": "view",
      "type": "function"
    },
    {
      "inputs": [
        {
          "internalType": "address",
          "name": "",
          "type": "address"
        }
      ],
      "name": "userInfoOf",
      "outputs": [
        {
          "internalType": "enum IUser.Level",
          "name": "level",
          "type": "uint8"
        },
        {
          "internalType": "address",
          "name": "refAddress",
          "type": "address"
        },
        {
          "internalType": "uint256",
          "name": "stakeRev",
          "type": "uint256"
        },
        {
          "internalType": "uint256",
          "name": "socialRev",
          "type": "uint256"
        },
        {
          "internalType": "uint256",
          "name": "communityRev",
          "type": "uint256"
        },
        {
          "internalType": "uint256",
          "name": "contributionRev",
          "type": "uint256"
        },
        {
          "internalType": "uint256",
          "name": "achievementRev",
          "type": "uint256"
        },
        {
          "internalType": "uint256",
          "name": "performance",
          "type": "uint256"
        }
      ],
      "stateMutability": "view",
      "type": "function"
    }
  ],
  "transactionHash": "0x9df00fb248f4b801e4ff1ec40a20e737800b6e86c9b3dcd2621f11b5bb494d40",
  "args": [
    "0x4917581d5c7101Bae7af433E9e9F01DAD6F04b01"
  ],
  "numDeployments": 1,
  "solcInputHash": "9d7bca6848149a117a51973d2eedaebf",
  "bytecode": "0x60a06040523480156200001157600080fd5b5060405162002b6038038062002b60833981016040819052620000349162000046565b6001600160a01b031660805262000078565b6000602082840312156200005957600080fd5b81516001600160a01b03811681146200007157600080fd5b9392505050565b6080516129fa620001666000396000818161026b0152818161046601528181610507015281816105d001528181610665015281816108e501528181610a4901528181610b5201528181610bfc01528181610d5d01528181610e9a01528181610f47015281816110380152818161117b015281816112b1015281816113ca015281816114aa015281816115710152818161165c015281816116dc015281816117b6015281816119cf01528181611a7e01528181611b2f01528181611bc401528181611c7701528181611e0a01528181611f1f015281816120e901528181612386015261242c01526129fa6000f3fe608060405234801561001057600080fd5b506004361061010b5760003560e01c8063562afdf5116100a2578063d5ea7e4311610071578063d5ea7e43146102a0578063e5693bb7146102b3578063f3c95c60146102c6578063faa6023c14610309578063fc07ff591461031c57600080fd5b8063562afdf5146102175780637fbb30291461022a5780639ccea0cd14610266578063c8b723f31461028d57600080fd5b806343db9218116100de57806343db921814610166578063441e6a44146101795780634420e486146101e357806355eda4e8146101f657600080fd5b806304aa9a1c14610110578063101c209d1461011a57806323b3f2a51461014057806333110a6e14610153575b600080fd5b61011861032f565b005b61012d610128366004612596565b610445565b6040519081526020015b60405180910390f35b61011861014e3660046125c2565b61045a565b6101186101613660046125fb565b6105c3565b61011861017436600461261f565b6105cc565b6101cf6101873660046125fb565b603360205260009081526040902080546001820154600283015460038401546004850154600586015460069096015460ff8616966101009096046001600160a01b0316959088565b604051610137989796959493929190612670565b6101186101f13660046125fb565b610a33565b6101ff61dead81565b6040516001600160a01b039091168152602001610137565b610118610225366004612596565b610a3d565b61025161023836600461261f565b6034602052600090815260409020805460019091015482565b60408051928352602083019190915201610137565b6101ff7f000000000000000000000000000000000000000000000000000000000000000081565b61011861029b36600461261f565b6112a5565b61012d6102ae3660046126bd565b611379565b6101186102c136600461261f565b6113be565b6102f96102d43660046125fb565b6001600160a01b03908116600090815260336020526040902054610100900416151590565b6040519015158152602001610137565b610118610317366004612596565b611565565b6102f961032a3660046125fb565b6119b5565b600054610100900460ff161580801561034f5750600054600160ff909116105b806103695750303b158015610369575060005460ff166001145b6103d15760405162461bcd60e51b815260206004820152602e60248201527f496e697469616c697a61626c653a20636f6e747261637420697320616c72656160448201526d191e481a5b9a5d1a585b1a5e995960921b60648201526084015b60405180910390fd5b6000805460ff1916600117905580156103f4576000805461ff0019166101001790555b6103fc6119c0565b8015610442576000805461ff0019169055604051600181527f7f26b83ff96e1f2b6a682f133852f6798a09c465da95921460cefb38474024989060200160405180910390a15b50565b600061045183836119ca565b90505b92915050565b336001600160a01b03167f00000000000000000000000000000000000000000000000000000000000000006001600160a01b031663663d2c4e6040518163ffffffff1660e01b815260040160206040518083038186803b1580156104bd57600080fd5b505afa1580156104d1573d6000803e3d6000fd5b505050506040513d601f19601f820116820180604052508101906104f591906126ef565b6001600160a01b0316148061053257507f00000000000000000000000000000000000000000000000000000000000000006001600160a01b031633145b61054e5760405162461bcd60e51b81526004016103c89061270c565b6001600160a01b03828116600090815260336020526040902054610100900416156105b55760405162461bcd60e51b81526020600482015260176024820152762ab9b2b91d1030b63932b0b23c903932b3b4b9ba32b91760491b60448201526064016103c8565b6105bf8282611de0565b5050565b610442816120bf565b60007f00000000000000000000000000000000000000000000000000000000000000006001600160a01b031663663d2c4e6040518163ffffffff1660e01b815260040160206040518083038186803b15801561062757600080fd5b505afa15801561063b573d6000803e3d6000fd5b505050506040513d601f19601f8201168201806040525081019061065f91906126ef565b905060007f00000000000000000000000000000000000000000000000000000000000000006001600160a01b0316635b487d9c6040518163ffffffff1660e01b815260040160206040518083038186803b1580156106bc57600080fd5b505afa1580156106d0573d6000803e3d6000fd5b505050506040513d601f19601f820116820180604052508101906106f491906126ef565b9050336040516331a9108f60e11b8152600481018590526001600160a01b0391821691841690636352211e9060240160206040518083038186803b15801561073b57600080fd5b505afa15801561074f573d6000803e3d6000fd5b505050506040513d601f19601f8201168201806040525081019061077391906126ef565b6001600160a01b0316148061080b5750336040516331a9108f60e11b8152600481018590526001600160a01b0391821691831690636352211e9060240160206040518083038186803b1580156107c857600080fd5b505afa1580156107dc573d6000803e3d6000fd5b505050506040513d601f19601f8201168201806040525081019061080091906126ef565b6001600160a01b0316145b61084e5760405162461bcd60e51b81526020600482015260146024820152732ab9b2b91d103737ba103a34329037bbb732b91760611b60448201526064016103c8565b600061085a33856119ca565b9050600081116108a45760405162461bcd60e51b81526020600482015260156024820152742ab9b2b91d1031b0b73737ba1031b630b4b690181760591b60448201526064016103c8565b6000848152603460209081526040808320600181018490554290553383526033909152812060050180548392906108dc908490612771565b925050819055507f00000000000000000000000000000000000000000000000000000000000000006001600160a01b031663c2e30dd06040518163ffffffff1660e01b815260040160206040518083038186803b15801561093c57600080fd5b505afa158015610950573d6000803e3d6000fd5b505050506040513d601f19601f8201168201806040525081019061097491906126ef565b6001600160a01b03166340c10f19336040516001600160e01b031960e084901b1681526001600160a01b03909116600482015260248101849052604401600060405180830381600087803b1580156109cb57600080fd5b505af11580156109df573d6000803e3d6000fd5b50505050836109eb3390565b6001600160a01b03167f8fe8d97dec60f189295dbef3aa218ec7ba19a4be60cf0e06f7006eb938dd172083604051610a2591815260200190565b60405180910390a350505050565b6104423382611de0565b336001600160a01b03167f00000000000000000000000000000000000000000000000000000000000000006001600160a01b031663663d2c4e6040518163ffffffff1660e01b815260040160206040518083038186803b158015610aa057600080fd5b505afa158015610ab4573d6000803e3d6000fd5b505050506040513d601f19601f82011682018060405250810190610ad891906126ef565b6001600160a01b031614610afe5760405162461bcd60e51b81526004016103c89061270c565b80156105bf576001600160a01b038083166000908152603360205260408082205461010090049092168082529181206006810154905490919060ff166005811115610b4b57610b4b612638565b90506000807f00000000000000000000000000000000000000000000000000000000000000006001600160a01b0316637a58a3f1846040518263ffffffff1660e01b8152600401610b9e91815260200190565b60206040518083038186803b158015610bb657600080fd5b505afa158015610bca573d6000803e3d6000fd5b505050506040513d601f19601f82011682018060405250810190610bee9190612789565b9050670de0b6b3a7640000817f00000000000000000000000000000000000000000000000000000000000000006001600160a01b0316633b87436b6040518163ffffffff1660e01b815260040160206040518083038186803b158015610c5357600080fd5b505afa158015610c67573d6000803e3d6000fd5b505050506040513d601f19601f82011682018060405250810190610c8b91906126ef565b6001600160a01b031663313ce5676040518163ffffffff1660e01b815260040160206040518083038186803b158015610cc357600080fd5b505afa158015610cd7573d6000803e3d6000fd5b505050506040513d601f19601f82011682018060405250810190610cfb91906127a2565b610d0690600a6128a9565b610d1090896128b8565b610d1a91906128b8565b610d2491906128d7565b6001600160a01b038616600090815260336020526040812060020180549294508492909190610d54908490612771565b925050819055507f00000000000000000000000000000000000000000000000000000000000000006001600160a01b0316633b87436b6040518163ffffffff1660e01b815260040160206040518083038186803b158015610db457600080fd5b505afa158015610dc8573d6000803e3d6000fd5b505050506040513d601f19601f82011682018060405250810190610dec91906126ef565b6040516340c10f1960e01b81526001600160a01b0387811660048301526024820185905291909116906340c10f1990604401600060405180830381600087803b158015610e3857600080fd5b505af1158015610e4c573d6000803e3d6000fd5b5050604080516001600160a01b038b8116825260208201879052891693507f6c750f31ea6981466139ece64283b2d992d3baf27e575cc20221a213e483f17292500160405180910390a260007f00000000000000000000000000000000000000000000000000000000000000006001600160a01b03166377b2fb8e6040518163ffffffff1660e01b815260040160206040518083038186803b158015610ef157600080fd5b505afa158015610f05573d6000803e3d6000fd5b505050506040513d601f19601f82011682018060405250810190610f299190612789565b9050801561117257604051637e71dc3760e11b8152600481018590527f00000000000000000000000000000000000000000000000000000000000000006001600160a01b03169063fce3b86e9060240160206040518083038186803b158015610f9157600080fd5b505afa158015610fa5573d6000803e3d6000fd5b505050506040513d601f19601f82011682018060405250810190610fc99190612789565b610fd382876128d7565b82610fde8a89612771565b610fe891906128d7565b610ff291906128f9565b610ffc91906128b8565b92508215611172576001600160a01b0386166000908152603360205260408120600401805485929061102f908490612771565b925050819055507f00000000000000000000000000000000000000000000000000000000000000006001600160a01b031663c2e30dd06040518163ffffffff1660e01b815260040160206040518083038186803b15801561108f57600080fd5b505afa1580156110a3573d6000803e3d6000fd5b505050506040513d601f19601f820116820180604052508101906110c791906126ef565b6040516340c10f1960e01b81526001600160a01b0388811660048301526024820186905291909116906340c10f1990604401600060405180830381600087803b15801561111357600080fd5b505af1158015611127573d6000803e3d6000fd5b5050604080516001600160a01b038c81168252602082018890528a1693507f40b213bec2f9c5b2f02409f019e5f1e258d851930fb1c83a495476a5e52f214392500160405180910390a25b600086905060007f00000000000000000000000000000000000000000000000000000000000000006001600160a01b031663bf5784036040518163ffffffff1660e01b815260040160206040518083038186803b1580156111d257600080fd5b505afa1580156111e6573d6000803e3d6000fd5b505050506040513d601f19601f8201168201806040525081019061120a9190612789565b905060005b8181101561128f576001600160a01b03831661122a5761128f565b6001600160a01b038316600090815260336020526040812060060180548c9290611255908490612771565b90915550506001600160a01b039283166000908152603360205260409020546101009004909216918061128781612910565b91505061120f565b50611299886120bf565b50505050505050505050565b336001600160a01b03167f00000000000000000000000000000000000000000000000000000000000000006001600160a01b03166397610f306040518163ffffffff1660e01b815260040160206040518083038186803b15801561130857600080fd5b505afa15801561131c573d6000803e3d6000fd5b505050506040513d601f19601f8201168201806040525081019061134091906126ef565b6001600160a01b0316146113665760405162461bcd60e51b81526004016103c89061292b565b6000908152603460205260409020429055565b6001600160a01b0382166000908152603360205260408120600701818360058111156113a7576113a7612638565b815260200190815260200160002054905092915050565b336001600160a01b03167f00000000000000000000000000000000000000000000000000000000000000006001600160a01b03166397610f306040518163ffffffff1660e01b815260040160206040518083038186803b15801561142157600080fd5b505afa158015611435573d6000803e3d6000fd5b505050506040513d601f19601f8201168201806040525081019061145991906126ef565b6001600160a01b03161461147f5760405162461bcd60e51b81526004016103c89061292b565b60008181526034602052604090819020805442909155905163d3f0f70d60e01b8152600481018390527f00000000000000000000000000000000000000000000000000000000000000006001600160a01b03169063d3f0f70d9060240160206040518083038186803b1580156114f457600080fd5b505afa158015611508573d6000803e3d6000fd5b505050506040513d601f19601f8201168201806040525081019061152c9190612979565b156105bf5761153b81426128f9565b6000838152603460205260408120600101805490919061155c908490612771565b90915550505050565b336001600160a01b03167f00000000000000000000000000000000000000000000000000000000000000006001600160a01b03166397610f306040518163ffffffff1660e01b815260040160206040518083038186803b1580156115c857600080fd5b505afa1580156115dc573d6000803e3d6000fd5b505050506040513d601f19601f8201168201806040525081019061160091906126ef565b6001600160a01b0316146116265760405162461bcd60e51b81526004016103c89061292b565b6001600160a01b038083166000908152603360209081526040808320548151633b87436b60e01b815291516101009091048516947f00000000000000000000000000000000000000000000000000000000000000001692633b87436b9260048082019391829003018186803b15801561169e57600080fd5b505afa1580156116b2573d6000803e3d6000fd5b505050506040513d601f19601f820116820180604052508101906116d691906126ef565b905060007f00000000000000000000000000000000000000000000000000000000000000006001600160a01b0316634eb66e836040518163ffffffff1660e01b815260040160206040518083038186803b15801561173357600080fd5b505afa158015611747573d6000803e3d6000fd5b505050506040513d601f19601f8201168201806040525081019061176b9190612789565b905060005b8181101561197d576001600160a01b03841661178b5761197d565b6001600160a01b03848116600090815260336020526040808220549051634d678f2960e01b815291927f00000000000000000000000000000000000000000000000000000000000000001691634d678f29916117f19160ff90911690869060040161299b565b60206040518083038186803b15801561180957600080fd5b505afa15801561181d573d6000803e3d6000fd5b505050506040513d601f19601f820116820180604052508101906118419190612789565b90508015611947576000670de0b6b3a764000061185e88846128b8565b61186891906128d7565b6001600160a01b038716600090815260336020526040812060030180549293508392909190611898908490612771565b90915550506040516340c10f1960e01b81526001600160a01b038781166004830152602482018390528616906340c10f1990604401600060405180830381600087803b1580156118e757600080fd5b505af11580156118fb573d6000803e3d6000fd5b5050604080516001600160a01b038c81168252602082018690528a1693507f951581c5b66d2fff2d0b5f95efd12eda85f83f8998ca1dac23d0137dda6966f792500160405180910390a2505b506001600160a01b039384166000908152603360205260409020546101009004909316928061197581612910565b915050611770565b506001600160a01b038516600090815260336020526040812060010180548692906119a9908490612771565b90915550505050505050565b600061045482612333565b6119c8612516565b565b6000807f00000000000000000000000000000000000000000000000000000000000000006001600160a01b0316637811dddd6040518163ffffffff1660e01b815260040160206040518083038186803b158015611a2657600080fd5b505afa158015611a3a573d6000803e3d6000fd5b505050506040513d601f19601f82011682018060405250810190611a5e9190612789565b6001600160a01b03858116600090815260336020526040812054929350917f00000000000000000000000000000000000000000000000000000000000000009091169063af4574c69060ff166005811115611abb57611abb612638565b6040518263ffffffff1660e01b8152600401611ad991815260200190565b60206040518083038186803b158015611af157600080fd5b505afa158015611b05573d6000803e3d6000fd5b505050506040513d601f19601f82011682018060405250810190611b299190612789565b905060007f00000000000000000000000000000000000000000000000000000000000000006001600160a01b031663663d2c4e6040518163ffffffff1660e01b815260040160206040518083038186803b158015611b8657600080fd5b505afa158015611b9a573d6000803e3d6000fd5b505050506040513d601f19601f82011682018060405250810190611bbe91906126ef565b905060007f00000000000000000000000000000000000000000000000000000000000000006001600160a01b0316635b487d9c6040518163ffffffff1660e01b815260040160206040518083038186803b158015611c1b57600080fd5b505afa158015611c2f573d6000803e3d6000fd5b505050506040513d601f19601f82011682018060405250810190611c5391906126ef565b60405163d3f0f70d60e01b8152600481018890529091506000906001600160a01b037f0000000000000000000000000000000000000000000000000000000000000000169063d3f0f70d9060240160206040518083038186803b158015611cb957600080fd5b505afa158015611ccd573d6000803e3d6000fd5b505050506040513d601f19601f82011682018060405250810190611cf19190612979565b15611dd557600087815260346020526040812054611d0f90426128f9565b9050826001600160a01b0316846001600160a01b0316636352211e8a6040518263ffffffff1660e01b8152600401611d4991815260200190565b60206040518083038186803b158015611d6157600080fd5b505afa158015611d75573d6000803e3d6000fd5b505050506040513d601f19601f82011682018060405250810190611d9991906126ef565b6001600160a01b031614611dab575060005b6000888152603460205260409020600101548690611dca908390612771565b10611dd3578491505b505b979650505050505050565b6001600160a01b03828116600090815260336020526040902054610100900416158015611eaf57507f00000000000000000000000000000000000000000000000000000000000000006001600160a01b031663aaa2b8c86040518163ffffffff1660e01b815260040160206040518083038186803b158015611e6157600080fd5b505afa158015611e75573d6000803e3d6000fd5b505050506040513d601f19601f82011682018060405250810190611e9991906126ef565b6001600160a01b0316826001600160a01b031614155b611ef55760405162461bcd60e51b81526020600482015260176024820152762ab9b2b91d1030b63932b0b23c903932b3b4b9ba32b91760491b60448201526064016103c8565b6001600160a01b03818116600090815260336020526040902054610100900416151580611fc357507f00000000000000000000000000000000000000000000000000000000000000006001600160a01b031663aaa2b8c86040518163ffffffff1660e01b815260040160206040518083038186803b158015611f7657600080fd5b505afa158015611f8a573d6000803e3d6000fd5b505050506040513d601f19601f82011682018060405250810190611fae91906126ef565b6001600160a01b0316816001600160a01b0316145b61201e5760405162461bcd60e51b815260206004820152602660248201527f557365723a2074686520726566206e6f7420612076616c696420726566206164604482015265323932b9b99760d11b60648201526084016103c8565b6001600160a01b0382811660009081526033602090815260408083208054610100600160a81b0319166101009587169586021790559282528282208280526007019052908120805460019290612075908490612771565b90915550506040516001600160a01b0382811682528316907f98ada70a1cb506dc4591465e1ee9be3fd7a2b6c73ecf3b949009718c9a3515199060200160405180910390a26105bf815b6001600160a01b0381811660009081526033602052604090205461010090041615158061218d57507f00000000000000000000000000000000000000000000000000000000000000006001600160a01b031663aaa2b8c86040518163ffffffff1660e01b815260040160206040518083038186803b15801561214057600080fd5b505afa158015612154573d6000803e3d6000fd5b505050506040513d601f19601f8201168201806040525081019061217891906126ef565b6001600160a01b0316816001600160a01b0316145b6121d95760405162461bcd60e51b815260206004820152601760248201527f557365723a206e6f7420612076616c696420757365722e00000000000000000060448201526064016103c8565b6001600160a01b03811660009081526033602052604081205460ff16600581111561220657612206612638565b905061221182612333565b156105bf576000612223826001612771565b600581111561223457612234612638565b6001600160a01b03841660009081526033602052604090208054919250829160ff1916600183600581111561226b5761226b612638565b0217905550826001600160a01b03167fa49b8576e012f713baa7dceadb7d709aaec8773b498ecfe582d8b9c0c8fd074f826040516122a991906129b6565b60405180910390a26001600160a01b03808416600090815260336020526040902054610100900416801561232d576001600160a01b038116600090815260336020526040812060019160079091019084600581111561230a5761230a612638565b815260200190815260200160002060008282546123279190612771565b90915550505b50505050565b6001600160a01b038116600090815260336020526040812054819060ff16600581111561236257612362612638565b9050600581101561250d576040516399bcfdd360e01b8152600481018290526000907f00000000000000000000000000000000000000000000000000000000000000006001600160a01b0316906399bcfdd39060240160206040518083038186803b1580156123d057600080fd5b505afa1580156123e4573d6000803e3d6000fd5b505050506040513d601f19601f820116820180604052508101906124089190612789565b6040516334fd0adf60e21b8152600481018490529091506000906001600160a01b037f0000000000000000000000000000000000000000000000000000000000000000169063d3f42b7c9060240160206040518083038186803b15801561246e57600080fd5b505afa158015612482573d6000803e3d6000fd5b505050506040513d601f19601f820116820180604052508101906124a69190612789565b6001600160a01b03861660009081526033602052604090206006015490915081118015906124fa57506001600160a01b03851660009081526033602090815260408083208684526007019091529020548211155b1561250a57506001949350505050565b50505b50600092915050565b600054610100900460ff166119c85760405162461bcd60e51b815260206004820152602b60248201527f496e697469616c697a61626c653a20636f6e7472616374206973206e6f74206960448201526a6e697469616c697a696e6760a81b60648201526084016103c8565b6001600160a01b038116811461044257600080fd5b600080604083850312156125a957600080fd5b82356125b481612581565b946020939093013593505050565b600080604083850312156125d557600080fd5b82356125e081612581565b915060208301356125f081612581565b809150509250929050565b60006020828403121561260d57600080fd5b813561261881612581565b9392505050565b60006020828403121561263157600080fd5b5035919050565b634e487b7160e01b600052602160045260246000fd5b6006811061266c57634e487b7160e01b600052602160045260246000fd5b9052565b610100810161267f828b61264e565b6001600160a01b0398909816602082015260408101969096526060860194909452608085019290925260a084015260c083015260e090910152919050565b600080604083850312156126d057600080fd5b82356126db81612581565b91506020830135600681106125f057600080fd5b60006020828403121561270157600080fd5b815161261881612581565b6020808252602f908201527f62617365436f6e74726163743a2063616c6c6572206e6f7420746865204c594e60408201526e259027232a1031b7b73a3930b1ba1760891b606082015260800190565b634e487b7160e01b600052601160045260246000fd5b600082198211156127845761278461275b565b500190565b60006020828403121561279b57600080fd5b5051919050565b6000602082840312156127b457600080fd5b815160ff8116811461261857600080fd5b600181815b808511156128005781600019048211156127e6576127e661275b565b808516156127f357918102915b93841c93908002906127ca565b509250929050565b60008261281757506001610454565b8161282457506000610454565b816001811461283a576002811461284457612860565b6001915050610454565b60ff8411156128555761285561275b565b50506001821b610454565b5060208310610133831016604e8410600b8410161715612883575081810a610454565b61288d83836127c5565b80600019048211156128a1576128a161275b565b029392505050565b600061045160ff841683612808565b60008160001904831182151516156128d2576128d261275b565b500290565b6000826128f457634e487b7160e01b600052601260045260246000fd5b500490565b60008282101561290b5761290b61275b565b500390565b60006000198214156129245761292461275b565b5060010190565b6020808252602e908201527f62617365436f6e74726163743a2063616c6c6572206e6f74207468652053746160408201526d35b4b7339031b7b73a3930b1ba1760911b606082015260800190565b60006020828403121561298b57600080fd5b8151801515811461261857600080fd5b604081016129a9828561264e565b8260208301529392505050565b60208101610454828461264e56fea264697066735822122079d76641e601a4d7b0ebc4fcf7088fc742e485a5ab542c705b11dc4d10d8188664736f6c63430008090033",
  "devdoc": {
    "kind": "dev",
    "methods": {},
    "version": 1
  },
  "userdoc": {
    "kind": "user",
    "methods": {},
    "version": 1
  },
  "storageLayout": {
    "storage": [
      {
        "astId": 138,
        "contract": "contracts/User.sol:User",
        "label": "_initialized",
        "offset": 0,
        "slot": "0",
        "type": "t_uint8"
      },
      {
        "astId": 141,
        "contract": "contracts/User.sol:User",
        "label": "_initializing",
        "offset": 1,
        "slot": "0",
        "type": "t_bool"
      },
      {
        "astId": 3289,
        "contract": "contracts/User.sol:User",
        "label": "__gap",
        "offset": 0,
        "slot": "1",
        "type": "t_array(t_uint256)50_storage"
      },
      {
        "astId": 7013,
        "contract": "contracts/User.sol:User",
        "label": "userInfoOf",
        "offset": 0,
        "slot": "51",
        "type": "t_mapping(t_address,t_struct(UserInfo)7085_storage)"
      },
      {
        "astId": 7018,
        "contract": "contracts/User.sol:User",
        "label": "stakeNFTs",
        "offset": 0,
        "slot": "52",
        "type": "t_mapping(t_uint256,t_struct(StakeInfo)7090_storage)"
      }
    ],
    "types": {
      "t_address": {
        "encoding": "inplace",
        "label": "address",
        "numberOfBytes": "20"
      },
      "t_array(t_uint256)50_storage": {
        "base": "t_uint256",
        "encoding": "inplace",
        "label": "uint256[50]",
        "numberOfBytes": "1600"
      },
      "t_bool": {
        "encoding": "inplace",
        "label": "bool",
        "numberOfBytes": "1"
      },
      "t_enum(Level)8398": {
        "encoding": "inplace",
        "label": "enum IUser.Level",
        "numberOfBytes": "1"
      },
      "t_mapping(t_address,t_struct(UserInfo)7085_storage)": {
        "encoding": "mapping",
        "key": "t_address",
        "label": "mapping(address => struct User.UserInfo)",
        "numberOfBytes": "32",
        "value": "t_struct(UserInfo)7085_storage"
      },
      "t_mapping(t_uint256,t_struct(StakeInfo)7090_storage)": {
        "encoding": "mapping",
        "key": "t_uint256",
        "label": "mapping(uint256 => struct User.StakeInfo)",
        "numberOfBytes": "32",
        "value": "t_struct(StakeInfo)7090_storage"
      },
      "t_mapping(t_uint256,t_uint256)": {
        "encoding": "mapping",
        "key": "t_uint256",
        "label": "mapping(uint256 => uint256)",
        "numberOfBytes": "32",
        "value": "t_uint256"
      },
      "t_struct(StakeInfo)7090_storage": {
        "encoding": "inplace",
        "label": "struct User.StakeInfo",
        "members": [
          {
            "astId": 7087,
            "contract": "contracts/User.sol:User",
            "label": "lastUpdateTime",
            "offset": 0,
            "slot": "0",
            "type": "t_uint256"
          },
          {
            "astId": 7089,
            "contract": "contracts/User.sol:User",
            "label": "stakedDuration",
            "offset": 0,
            "slot": "1",
            "type": "t_uint256"
          }
        ],
        "numberOfBytes": "64"
      },
      "t_struct(UserInfo)7085_storage": {
        "encoding": "inplace",
        "label": "struct User.UserInfo",
        "members": [
          {
            "astId": 7066,
            "contract": "contracts/User.sol:User",
            "label": "level",
            "offset": 0,
            "slot": "0",
            "type": "t_enum(Level)8398"
          },
          {
            "astId": 7068,
            "contract": "contracts/User.sol:User",
            "label": "refAddress",
            "offset": 1,
            "slot": "0",
            "type": "t_address"
          },
          {
            "astId": 7070,
            "contract": "contracts/User.sol:User",
            "label": "stakeRev",
            "offset": 0,
            "slot": "1",
            "type": "t_uint256"
          },
          {
            "astId": 7072,
            "contract": "contracts/User.sol:User",
            "label": "socialRev",
            "offset": 0,
            "slot": "2",
            "type": "t_uint256"
          },
          {
            "astId": 7074,
            "contract": "contracts/User.sol:User",
            "label": "communityRev",
            "offset": 0,
            "slot": "3",
            "type": "t_uint256"
          },
          {
            "astId": 7076,
            "contract": "contracts/User.sol:User",
            "label": "contributionRev",
            "offset": 0,
            "slot": "4",
            "type": "t_uint256"
          },
          {
            "astId": 7078,
            "contract": "contracts/User.sol:User",
            "label": "achievementRev",
            "offset": 0,
            "slot": "5",
            "type": "t_uint256"
          },
          {
            "astId": 7080,
            "contract": "contracts/User.sol:User",
            "label": "performance",
            "offset": 0,
            "slot": "6",
            "type": "t_uint256"
          },
          {
            "astId": 7084,
            "contract": "contracts/User.sol:User",
            "label": "refCounterOf",
            "offset": 0,
            "slot": "7",
            "type": "t_mapping(t_uint256,t_uint256)"
          }
        ],
        "numberOfBytes": "256"
      },
      "t_uint256": {
        "encoding": "inplace",
        "label": "uint256",
        "numberOfBytes": "32"
      },
      "t_uint8": {
        "encoding": "inplace",
        "label": "uint8",
        "numberOfBytes": "1"
      }
    }
  }
}