{
  "address": "0x1d7bD9833A3d1f59da95bc1e4a57Bb94FB0310D1",
  "abi": [
    {
      "inputs": [
        {
          "internalType": "address",
          "name": "dbAddress",
          "type": "address"
        }
      ],
      "stateMutability": "nonpayable",
      "type": "constructor"
    },
    {
      "anonymous": false,
      "inputs": [
        {
          "indexed": true,
          "internalType": "address",
          "name": "owner",
          "type": "address"
        },
        {
          "indexed": true,
          "internalType": "address",
          "name": "spender",
          "type": "address"
        },
        {
          "indexed": false,
          "internalType": "uint256",
          "name": "value",
          "type": "uint256"
        }
      ],
      "name": "Approval",
      "type": "event"
    },
    {
      "anonymous": false,
      "inputs": [
        {
          "indexed": false,
          "internalType": "uint8",
          "name": "version",
          "type": "uint8"
        }
      ],
      "name": "Initialized",
      "type": "event"
    },
    {
      "anonymous": false,
      "inputs": [
        {
          "indexed": true,
          "internalType": "address",
          "name": "from",
          "type": "address"
        },
        {
          "indexed": true,
          "internalType": "address",
          "name": "to",
          "type": "address"
        },
        {
          "indexed": false,
          "internalType": "uint256",
          "name": "value",
          "type": "uint256"
        }
      ],
      "name": "Transfer",
      "type": "event"
    },
    {
      "inputs": [],
      "name": "BLACK_HOLE",
      "outputs": [
        {
          "internalType": "address",
          "name": "",
          "type": "address"
        }
      ],
      "stateMutability": "view",
      "type": "function"
    },
    {
      "inputs": [],
      "name": "DB_CONTRACT",
      "outputs": [
        {
          "internalType": "address",
          "name": "",
          "type": "address"
        }
      ],
      "stateMutability": "view",
      "type": "function"
    },
    {
      "inputs": [],
      "name": "DOMAIN_SEPARATOR",
      "outputs": [
        {
          "internalType": "bytes32",
          "name": "",
          "type": "bytes32"
        }
      ],
      "stateMutability": "view",
      "type": "function"
    },
    {
      "inputs": [],
      "name": "__APToken_init",
      "outputs": [],
      "stateMutability": "nonpayable",
      "type": "function"
    },
    {
      "inputs": [
        {
          "internalType": "address",
          "name": "owner",
          "type": "address"
        },
        {
          "internalType": "address",
          "name": "spender",
          "type": "address"
        }
      ],
      "name": "allowance",
      "outputs": [
        {
          "internalType": "uint256",
          "name": "",
          "type": "uint256"
        }
      ],
      "stateMutability": "view",
      "type": "function"
    },
    {
      "inputs": [
        {
          "internalType": "address",
          "name": "spender",
          "type": "address"
        },
        {
          "internalType": "uint256",
          "name": "amount",
          "type": "uint256"
        }
      ],
      "name": "approve",
      "outputs": [
        {
          "internalType": "bool",
          "name": "",
          "type": "bool"
        }
      ],
      "stateMutability": "nonpayable",
      "type": "function"
    },
    {
      "inputs": [
        {
          "internalType": "address",
          "name": "account",
          "type": "address"
        }
      ],
      "name": "balanceOf",
      "outputs": [
        {
          "internalType": "uint256",
          "name": "",
          "type": "uint256"
        }
      ],
      "stateMutability": "view",
      "type": "function"
    },
    {
      "inputs": [],
      "name": "decimals",
      "outputs": [
        {
          "internalType": "uint8",
          "name": "",
          "type": "uint8"
        }
      ],
      "stateMutability": "view",
      "type": "function"
    },
    {
      "inputs": [
        {
          "internalType": "address",
          "name": "spender",
          "type": "address"
        },
        {
          "internalType": "uint256",
          "name": "subtractedValue",
          "type": "uint256"
        }
      ],
      "name": "decreaseAllowance",
      "outputs": [
        {
          "internalType": "bool",
          "name": "",
          "type": "bool"
        }
      ],
      "stateMutability": "nonpayable",
      "type": "function"
    },
    {
      "inputs": [
        {
          "internalType": "address",
          "name": "spender",
          "type": "address"
        },
        {
          "internalType": "uint256",
          "name": "addedValue",
          "type": "uint256"
        }
      ],
      "name": "increaseAllowance",
      "outputs": [
        {
          "internalType": "bool",
          "name": "",
          "type": "bool"
        }
      ],
      "stateMutability": "nonpayable",
      "type": "function"
    },
    {
      "inputs": [
        {
          "internalType": "address",
          "name": "account",
          "type": "address"
        },
        {
          "internalType": "uint256",
          "name": "amount",
          "type": "uint256"
        }
      ],
      "name": "mint",
      "outputs": [],
      "stateMutability": "nonpayable",
      "type": "function"
    },
    {
      "inputs": [
        {
          "internalType": "uint256",
          "name": "_indexPackage",
          "type": "uint256"
        }
      ],
      "name": "mint",
      "outputs": [],
      "stateMutability": "payable",
      "type": "function"
    },
    {
      "inputs": [],
      "name": "name",
      "outputs": [
        {
          "internalType": "string",
          "name": "",
          "type": "string"
        }
      ],
      "stateMutability": "view",
      "type": "function"
    },
    {
      "inputs": [
        {
          "internalType": "address",
          "name": "owner",
          "type": "address"
        }
      ],
      "name": "nonces",
      "outputs": [
        {
          "internalType": "uint256",
          "name": "",
          "type": "uint256"
        }
      ],
      "stateMutability": "view",
      "type": "function"
    },
    {
      "inputs": [
        {
          "internalType": "address",
          "name": "owner",
          "type": "address"
        },
        {
          "internalType": "address",
          "name": "spender",
          "type": "address"
        },
        {
          "internalType": "uint256",
          "name": "value",
          "type": "uint256"
        },
        {
          "internalType": "uint256",
          "name": "deadline",
          "type": "uint256"
        },
        {
          "internalType": "uint8",
          "name": "v",
          "type": "uint8"
        },
        {
          "internalType": "bytes32",
          "name": "r",
          "type": "bytes32"
        },
        {
          "internalType": "bytes32",
          "name": "s",
          "type": "bytes32"
        }
      ],
      "name": "permit",
      "outputs": [],
      "stateMutability": "nonpayable",
      "type": "function"
    },
    {
      "inputs": [],
      "name": "symbol",
      "outputs": [
        {
          "internalType": "string",
          "name": "",
          "type": "string"
        }
      ],
      "stateMutability": "view",
      "type": "function"
    },
    {
      "inputs": [],
      "name": "totalSupply",
      "outputs": [
        {
          "internalType": "uint256",
          "name": "",
          "type": "uint256"
        }
      ],
      "stateMutability": "view",
      "type": "function"
    },
    {
      "inputs": [
        {
          "internalType": "address",
          "name": "to",
          "type": "address"
        },
        {
          "internalType": "uint256",
          "name": "amount",
          "type": "uint256"
        }
      ],
      "name": "transfer",
      "outputs": [
        {
          "internalType": "bool",
          "name": "",
          "type": "bool"
        }
      ],
      "stateMutability": "nonpayable",
      "type": "function"
    },
    {
      "inputs": [
        {
          "internalType": "address",
          "name": "from",
          "type": "address"
        },
        {
          "internalType": "address",
          "name": "to",
          "type": "address"
        },
        {
          "internalType": "uint256",
          "name": "amount",
          "type": "uint256"
        }
      ],
      "name": "transferFrom",
      "outputs": [
        {
          "internalType": "bool",
          "name": "",
          "type": "bool"
        }
      ],
      "stateMutability": "nonpayable",
      "type": "function"
    }
  ],
  "transactionHash": "0xbb0ad5d9ff74245c74bc5bd7c7d2091cdfe153d86b94e34477490b47518fe990",
  "args": [
    "0x49BB37B72Bc6Be7c36337FF787ab53E8196639C1"
  ],
  "numDeployments": 2,
  "solcInputHash": "9d7bca6848149a117a51973d2eedaebf",
  "bytecode": "0x60a060405234801561001057600080fd5b506040516200211f3803806200211f83398101604081905261003191610042565b6001600160a01b0316608052610072565b60006020828403121561005457600080fd5b81516001600160a01b038116811461006b57600080fd5b9392505050565b60805161206e620000b1600039600081816102d1015281816104a8015281816105e50152818161075f0152818161121b01526112bf015261206e6000f3fe6080604052600436106101145760003560e01c806370a08231116100a0578063a457c2d711610064578063a457c2d714610306578063a9059cbb14610326578063ccda155d14610346578063d505accf1461035b578063dd62ed3e1461037b57600080fd5b806370a08231146102545780637ecebe001461028a57806395d89b41146102aa5780639ccea0cd146102bf578063a0712d68146102f357600080fd5b8063313ce567116100e7578063313ce567146101b35780633644e515146101cf57806339509351146101e457806340c10f191461020457806355eda4e81461022657600080fd5b806306fdde0314610119578063095ea7b31461014457806318160ddd1461017457806323b872dd14610193575b600080fd5b34801561012557600080fd5b5061012e61039b565b60405161013b9190611c83565b60405180910390f35b34801561015057600080fd5b5061016461015f366004611ccb565b61042d565b604051901515815260200161013b565b34801561018057600080fd5b506035545b60405190815260200161013b565b34801561019f57600080fd5b506101646101ae366004611cf7565b610445565b3480156101bf57600080fd5b506040516012815260200161013b565b3480156101db57600080fd5b5061018561046b565b3480156101f057600080fd5b506101646101ff366004611ccb565b61047a565b34801561021057600080fd5b5061022461021f366004611ccb565b61049c565b005b34801561023257600080fd5b5061023c61dead81565b6040516001600160a01b03909116815260200161013b565b34801561026057600080fd5b5061018561026f366004611d38565b6001600160a01b031660009081526033602052604090205490565b34801561029657600080fd5b506101856102a5366004611d38565b6105b4565b3480156102b657600080fd5b5061012e6105d4565b3480156102cb57600080fd5b5061023c7f000000000000000000000000000000000000000000000000000000000000000081565b610224610301366004611d55565b6105e3565b34801561031257600080fd5b50610164610321366004611ccb565b610850565b34801561033257600080fd5b50610164610341366004611ccb565b6108d6565b34801561035257600080fd5b506102246108e4565b34801561036757600080fd5b50610224610376366004611d6e565b610a70565b34801561038757600080fd5b50610185610396366004611de5565b610bd4565b6060603680546103aa90611e1e565b80601f01602080910402602001604051908101604052809291908181526020018280546103d690611e1e565b80156104235780601f106103f857610100808354040283529160200191610423565b820191906000526020600020905b81548152906001019060200180831161040657829003601f168201915b5050505050905090565b60003361043b818585610bff565b5060019392505050565b600033610453858285610d23565b61045e858585610d9d565b60019150505b9392505050565b6000610475610f6b565b905090565b60003361043b81858561048d8383610bd4565b6104979190611e53565b610bff565b336001600160a01b03167f00000000000000000000000000000000000000000000000000000000000000006001600160a01b031663fa1785fe6040518163ffffffff1660e01b815260040160206040518083038186803b1580156104ff57600080fd5b505afa158015610513573d6000803e3d6000fd5b505050506040513d601f19601f820116820180604052508101906105379190611e79565b6001600160a01b0316146105a65760405162461bcd60e51b815260206004820152602b60248201527f62617365436f6e74726163743a2063616c6c6572206e6f74207468652055736560448201526a391031b7b73a3930b1ba1760a91b60648201526084015b60405180910390fd5b6105b08282610fe6565b5050565b6001600160a01b0381166000908152609960205260408120545b92915050565b6060603780546103aa90611e1e565b7f00000000000000000000000000000000000000000000000000000000000000006001600160a01b031663fa1785fe6040518163ffffffff1660e01b815260040160206040518083038186803b15801561063c57600080fd5b505afa158015610650573d6000803e3d6000fd5b505050506040513d601f19601f820116820180604052508101906106749190611e79565b6001600160a01b031663f3c95c60336040516001600160e01b031960e084901b1681526001600160a01b03909116600482015260240160206040518083038186803b1580156106c257600080fd5b505afa1580156106d6573d6000803e3d6000fd5b505050506040513d601f19601f820116820180604052508101906106fa9190611e96565b6107465760405162461bcd60e51b815260206004820152601a60248201527f4150546f6b656e3a206e6f7420612076616c696420757365722e000000000000604482015260640161059d565b6040516366850ba560e11b8152600481018290526000907f00000000000000000000000000000000000000000000000000000000000000006001600160a01b03169063cd0a174a9060240160006040518083038186803b1580156107a957600080fd5b505afa1580156107bd573d6000803e3d6000fd5b505050506040513d6000823e601f3d908101601f191682016040526107e59190810190611ece565b905061082c816000815181106107fd576107fd611f8c565b602002602001015161080c3390565b8360018151811061081f5761081f611f8c565b60200260200101516110c5565b6105b0338260028151811061084357610843611f8c565b6020026020010151610fe6565b6000338161085e8286610bd4565b9050838110156108be5760405162461bcd60e51b815260206004820152602560248201527f45524332303a2064656372656173656420616c6c6f77616e63652062656c6f77604482015264207a65726f60d81b606482015260840161059d565b6108cb8286868403610bff565b506001949350505050565b60003361043b818585610d9d565b600054610100900460ff16158080156109045750600054600160ff909116105b8061091e5750303b15801561091e575060005460ff166001145b6109815760405162461bcd60e51b815260206004820152602e60248201527f496e697469616c697a61626c653a20636f6e747261637420697320616c72656160448201526d191e481a5b9a5d1a585b1a5e995960921b606482015260840161059d565b6000805460ff1916600117905580156109a4576000805461ff0019166101001790555b6109d46040518060400160405280600f81526020016e105d1d1c9a589d5d1948141bda5b9d608a1b815250611379565b610a1f6040518060400160405280600f81526020016e105d1d1c9a589d5d1948141bda5b9d608a1b81525060405180604001604052806002815260200161041560f41b8152506113c3565b610a276113f4565b8015610a6d576000805461ff0019169055604051600181527f7f26b83ff96e1f2b6a682f133852f6798a09c465da95921460cefb38474024989060200160405180910390a15b50565b83421115610ac05760405162461bcd60e51b815260206004820152601d60248201527f45524332305065726d69743a206578706972656420646561646c696e65000000604482015260640161059d565b60007f6e71edae12b1b97f4d1f60370fef10105fa2faae0126114a169c64845d6126c9888888610aef8c6113fc565b6040805160208101969096526001600160a01b0394851690860152929091166060840152608083015260a082015260c0810186905260e0016040516020818303038152906040528051906020012090506000610b4a82611424565b90506000610b5a82878787611472565b9050896001600160a01b0316816001600160a01b031614610bbd5760405162461bcd60e51b815260206004820152601e60248201527f45524332305065726d69743a20696e76616c6964207369676e61747572650000604482015260640161059d565b610bc88a8a8a610bff565b50505050505050505050565b6001600160a01b03918216600090815260346020908152604080832093909416825291909152205490565b6001600160a01b038316610c615760405162461bcd60e51b8152602060048201526024808201527f45524332303a20617070726f76652066726f6d20746865207a65726f206164646044820152637265737360e01b606482015260840161059d565b6001600160a01b038216610cc25760405162461bcd60e51b815260206004820152602260248201527f45524332303a20617070726f766520746f20746865207a65726f206164647265604482015261737360f01b606482015260840161059d565b6001600160a01b0383811660008181526034602090815260408083209487168084529482529182902085905590518481527f8c5be1e5ebec7d5bd14f71427d1e84f3dd0314c0f7b2291e5b200ac8c7c3b925910160405180910390a3505050565b6000610d2f8484610bd4565b90506000198114610d975781811015610d8a5760405162461bcd60e51b815260206004820152601d60248201527f45524332303a20696e73756666696369656e7420616c6c6f77616e6365000000604482015260640161059d565b610d978484848403610bff565b50505050565b6001600160a01b038316610e015760405162461bcd60e51b815260206004820152602560248201527f45524332303a207472616e736665722066726f6d20746865207a65726f206164604482015264647265737360d81b606482015260840161059d565b6001600160a01b038216610e635760405162461bcd60e51b815260206004820152602360248201527f45524332303a207472616e7366657220746f20746865207a65726f206164647260448201526265737360e81b606482015260840161059d565b6001600160a01b03831660009081526033602052604090205481811015610edb5760405162461bcd60e51b815260206004820152602660248201527f45524332303a207472616e7366657220616d6f756e7420657863656564732062604482015265616c616e636560d01b606482015260840161059d565b6001600160a01b03808516600090815260336020526040808220858503905591851681529081208054849290610f12908490611e53565b92505081905550826001600160a01b0316846001600160a01b03167fddf252ad1be2c89b69c2b068fc378daa952ba7f163c4a11628f55a4df523b3ef84604051610f5e91815260200190565b60405180910390a3610d97565b60006104757f8b73c3c69bb8fe3d512ecc4cf759cc79239f7b179b0ffacaa9a75d522b39400f610f9a60655490565b6066546040805160208101859052908101839052606081018290524660808201523060a082015260009060c0016040516020818303038152906040528051906020012090509392505050565b6001600160a01b03821661103c5760405162461bcd60e51b815260206004820152601f60248201527f45524332303a206d696e7420746f20746865207a65726f206164647265737300604482015260640161059d565b806035600082825461104e9190611e53565b90915550506001600160a01b0382166000908152603360205260408120805483929061107b908490611e53565b90915550506040518181526001600160a01b038316906000907fddf252ad1be2c89b69c2b068fc378daa952ba7f163c4a11628f55a4df523b3ef9060200160405180910390a35050565b6001600160a01b038316611133578034146111225760405162461bcd60e51b815260206004820152601c60248201527f62617365436f6e74726163743a20696e76616c69642076616c75652e00000000604482015260640161059d565b61112e61dead8261149a565b505050565b604051636eb1769f60e11b81526001600160a01b03838116600483015230602483015282919085169063dd62ed3e9060440160206040518083038186803b15801561117d57600080fd5b505afa158015611191573d6000803e3d6000fd5b505050506040513d601f19601f820116820180604052508101906111b59190611fa2565b101561120f5760405162461bcd60e51b8152602060048201526024808201527f62617365436f6e74726163743a20696e73756666696369656e7420616c6c6f77604482015263616e636560e01b606482015260840161059d565b826001600160a01b03167f00000000000000000000000000000000000000000000000000000000000000006001600160a01b03166377b330c96040518163ffffffff1660e01b815260040160206040518083038186803b15801561127257600080fd5b505afa158015611286573d6000803e3d6000fd5b505050506040513d601f19601f820116820180604052508101906112aa9190611e79565b6001600160a01b031614156113605761112e827f00000000000000000000000000000000000000000000000000000000000000006001600160a01b0316630b00fd546040518163ffffffff1660e01b815260040160206040518083038186803b15801561131657600080fd5b505afa15801561132a573d6000803e3d6000fd5b505050506040513d601f19601f8201168201806040525081019061134e9190611e79565b6001600160a01b0386169190846115b3565b61112e6001600160a01b0384168361dead846115b3565b565b600054610100900460ff166113a05760405162461bcd60e51b815260040161059d90611fbb565b610a6d81604051806040016040528060018152602001603160f81b81525061160d565b600054610100900460ff166113ea5760405162461bcd60e51b815260040161059d90611fbb565b6105b0828261164e565b61137761169c565b6001600160a01b03811660009081526099602052604090208054600181018255905b50919050565b60006105ce611431610f6b565b8360405161190160f01b6020820152602281018390526042810182905260009060620160405160208183030381529060405280519060200120905092915050565b6000806000611483878787876116c3565b91509150611490816117b0565b5095945050505050565b804710156114ea5760405162461bcd60e51b815260206004820152601d60248201527f416464726573733a20696e73756666696369656e742062616c616e6365000000604482015260640161059d565b6000826001600160a01b03168260405160006040518083038185875af1925050503d8060008114611537576040519150601f19603f3d011682016040523d82523d6000602084013e61153c565b606091505b505090508061112e5760405162461bcd60e51b815260206004820152603a60248201527f416464726573733a20756e61626c6520746f2073656e642076616c75652c207260448201527f6563697069656e74206d61792068617665207265766572746564000000000000606482015260840161059d565b604080516001600160a01b0385811660248301528416604482015260648082018490528251808303909101815260849091019091526020810180516001600160e01b03166323b872dd60e01b179052610d9790859061196b565b600054610100900460ff166116345760405162461bcd60e51b815260040161059d90611fbb565b815160209283012081519190920120606591909155606655565b600054610100900460ff166116755760405162461bcd60e51b815260040161059d90611fbb565b8151611688906036906020850190611bbe565b50805161112e906037906020840190611bbe565b600054610100900460ff166113775760405162461bcd60e51b815260040161059d90611fbb565b6000807f7fffffffffffffffffffffffffffffff5d576e7357a4501ddfe92f46681b20a08311156116fa57506000905060036117a7565b8460ff16601b1415801561171257508460ff16601c14155b1561172357506000905060046117a7565b6040805160008082526020820180845289905260ff881692820192909252606081018690526080810185905260019060a0016020604051602081039080840390855afa158015611777573d6000803e3d6000fd5b5050604051601f1901519150506001600160a01b0381166117a0576000600192509250506117a7565b9150600090505b94509492505050565b60008160048111156117c4576117c4612006565b14156117cd5750565b60018160048111156117e1576117e1612006565b141561182f5760405162461bcd60e51b815260206004820152601860248201527f45434453413a20696e76616c6964207369676e61747572650000000000000000604482015260640161059d565b600281600481111561184357611843612006565b14156118915760405162461bcd60e51b815260206004820152601f60248201527f45434453413a20696e76616c6964207369676e6174757265206c656e67746800604482015260640161059d565b60038160048111156118a5576118a5612006565b14156118fe5760405162461bcd60e51b815260206004820152602260248201527f45434453413a20696e76616c6964207369676e6174757265202773272076616c604482015261756560f01b606482015260840161059d565b600481600481111561191257611912612006565b1415610a6d5760405162461bcd60e51b815260206004820152602260248201527f45434453413a20696e76616c6964207369676e6174757265202776272076616c604482015261756560f01b606482015260840161059d565b60006119c0826040518060400160405280602081526020017f5361666545524332303a206c6f772d6c6576656c2063616c6c206661696c6564815250856001600160a01b0316611a3d9092919063ffffffff16565b80519091501561112e57808060200190518101906119de9190611e96565b61112e5760405162461bcd60e51b815260206004820152602a60248201527f5361666545524332303a204552433230206f7065726174696f6e20646964206e6044820152691bdd081cdd58d8d9595960b21b606482015260840161059d565b6060611a4c8484600085611a54565b949350505050565b606082471015611ab55760405162461bcd60e51b815260206004820152602660248201527f416464726573733a20696e73756666696369656e742062616c616e636520666f6044820152651c8818d85b1b60d21b606482015260840161059d565b6001600160a01b0385163b611b0c5760405162461bcd60e51b815260206004820152601d60248201527f416464726573733a2063616c6c20746f206e6f6e2d636f6e7472616374000000604482015260640161059d565b600080866001600160a01b03168587604051611b28919061201c565b60006040518083038185875af1925050503d8060008114611b65576040519150601f19603f3d011682016040523d82523d6000602084013e611b6a565b606091505b5091509150611b7a828286611b85565b979650505050505050565b60608315611b94575081610464565b825115611ba45782518084602001fd5b8160405162461bcd60e51b815260040161059d9190611c83565b828054611bca90611e1e565b90600052602060002090601f016020900481019282611bec5760008555611c32565b82601f10611c0557805160ff1916838001178555611c32565b82800160010185558215611c32579182015b82811115611c32578251825591602001919060010190611c17565b50611c3e929150611c42565b5090565b5b80821115611c3e5760008155600101611c43565b60005b83811015611c72578181015183820152602001611c5a565b83811115610d975750506000910152565b6020815260008251806020840152611ca2816040850160208701611c57565b601f01601f19169190910160400192915050565b6001600160a01b0381168114610a6d57600080fd5b60008060408385031215611cde57600080fd5b8235611ce981611cb6565b946020939093013593505050565b600080600060608486031215611d0c57600080fd5b8335611d1781611cb6565b92506020840135611d2781611cb6565b929592945050506040919091013590565b600060208284031215611d4a57600080fd5b813561046481611cb6565b600060208284031215611d6757600080fd5b5035919050565b600080600080600080600060e0888a031215611d8957600080fd5b8735611d9481611cb6565b96506020880135611da481611cb6565b95506040880135945060608801359350608088013560ff81168114611dc857600080fd5b9699959850939692959460a0840135945060c09093013592915050565b60008060408385031215611df857600080fd5b8235611e0381611cb6565b91506020830135611e1381611cb6565b809150509250929050565b600181811c90821680611e3257607f821691505b6020821081141561141e57634e487b7160e01b600052602260045260246000fd5b60008219821115611e7457634e487b7160e01b600052601160045260246000fd5b500190565b600060208284031215611e8b57600080fd5b815161046481611cb6565b600060208284031215611ea857600080fd5b8151801515811461046457600080fd5b634e487b7160e01b600052604160045260246000fd5b60006020808385031215611ee157600080fd5b825167ffffffffffffffff80821115611ef957600080fd5b818501915085601f830112611f0d57600080fd5b815181811115611f1f57611f1f611eb8565b8060051b604051601f19603f83011681018181108582111715611f4457611f44611eb8565b604052918252848201925083810185019188831115611f6257600080fd5b938501935b82851015611f8057845184529385019392850192611f67565b98975050505050505050565b634e487b7160e01b600052603260045260246000fd5b600060208284031215611fb457600080fd5b5051919050565b6020808252602b908201527f496e697469616c697a61626c653a20636f6e7472616374206973206e6f74206960408201526a6e697469616c697a696e6760a81b606082015260800190565b634e487b7160e01b600052602160045260246000fd5b6000825161202e818460208701611c57565b919091019291505056fea26469706673582212204a3fcdac6626fa2f92c259f8ab97c748eec0c79f7b861040164f221f4f2bbdcf64736f6c63430008090033",
  "devdoc": {
    "kind": "dev",
    "methods": {
      "DOMAIN_SEPARATOR()": {
        "details": "See {IERC20Permit-DOMAIN_SEPARATOR}."
      },
      "allowance(address,address)": {
        "details": "See {IERC20-allowance}."
      },
      "approve(address,uint256)": {
        "details": "See {IERC20-approve}. NOTE: If `amount` is the maximum `uint256`, the allowance is not updated on `transferFrom`. This is semantically equivalent to an infinite approval. Requirements: - `spender` cannot be the zero address."
      },
      "balanceOf(address)": {
        "details": "See {IERC20-balanceOf}."
      },
      "decimals()": {
        "details": "Returns the number of decimals used to get its user representation. For example, if `decimals` equals `2`, a balance of `505` tokens should be displayed to a user as `5.05` (`505 / 10 ** 2`). Tokens usually opt for a value of 18, imitating the relationship between Ether and Wei. This is the value {ERC20} uses, unless this function is overridden; NOTE: This information is only used for _display_ purposes: it in no way affects any of the arithmetic of the contract, including {IERC20-balanceOf} and {IERC20-transfer}."
      },
      "decreaseAllowance(address,uint256)": {
        "details": "Atomically decreases the allowance granted to `spender` by the caller. This is an alternative to {approve} that can be used as a mitigation for problems described in {IERC20-approve}. Emits an {Approval} event indicating the updated allowance. Requirements: - `spender` cannot be the zero address. - `spender` must have allowance for the caller of at least `subtractedValue`."
      },
      "increaseAllowance(address,uint256)": {
        "details": "Atomically increases the allowance granted to `spender` by the caller. This is an alternative to {approve} that can be used as a mitigation for problems described in {IERC20-approve}. Emits an {Approval} event indicating the updated allowance. Requirements: - `spender` cannot be the zero address."
      },
      "name()": {
        "details": "Returns the name of the token."
      },
      "nonces(address)": {
        "details": "See {IERC20Permit-nonces}."
      },
      "permit(address,address,uint256,uint256,uint8,bytes32,bytes32)": {
        "details": "See {IERC20Permit-permit}."
      },
      "symbol()": {
        "details": "Returns the symbol of the token, usually a shorter version of the name."
      },
      "totalSupply()": {
        "details": "See {IERC20-totalSupply}."
      },
      "transfer(address,uint256)": {
        "details": "See {IERC20-transfer}. Requirements: - `to` cannot be the zero address. - the caller must have a balance of at least `amount`."
      },
      "transferFrom(address,address,uint256)": {
        "details": "See {IERC20-transferFrom}. Emits an {Approval} event indicating the updated allowance. This is not required by the EIP. See the note at the beginning of {ERC20}. NOTE: Does not update the allowance if the current allowance is the maximum `uint256`. Requirements: - `from` and `to` cannot be the zero address. - `from` must have a balance of at least `amount`. - the caller must have allowance for ``from``'s tokens of at least `amount`."
      }
    },
    "version": 1
  },
  "userdoc": {
    "kind": "user",
    "methods": {},
    "version": 1
  },
  "storageLayout": {
    "storage": [
      {
        "astId": 138,
        "contract": "contracts/token/APToken.sol:APToken",
        "label": "_initialized",
        "offset": 0,
        "slot": "0",
        "type": "t_uint8"
      },
      {
        "astId": 141,
        "contract": "contracts/token/APToken.sol:APToken",
        "label": "_initializing",
        "offset": 1,
        "slot": "0",
        "type": "t_bool"
      },
      {
        "astId": 3289,
        "contract": "contracts/token/APToken.sol:APToken",
        "label": "__gap",
        "offset": 0,
        "slot": "1",
        "type": "t_array(t_uint256)50_storage"
      },
      {
        "astId": 360,
        "contract": "contracts/token/APToken.sol:APToken",
        "label": "_balances",
        "offset": 0,
        "slot": "51",
        "type": "t_mapping(t_address,t_uint256)"
      },
      {
        "astId": 366,
        "contract": "contracts/token/APToken.sol:APToken",
        "label": "_allowances",
        "offset": 0,
        "slot": "52",
        "type": "t_mapping(t_address,t_mapping(t_address,t_uint256))"
      },
      {
        "astId": 368,
        "contract": "contracts/token/APToken.sol:APToken",
        "label": "_totalSupply",
        "offset": 0,
        "slot": "53",
        "type": "t_uint256"
      },
      {
        "astId": 370,
        "contract": "contracts/token/APToken.sol:APToken",
        "label": "_name",
        "offset": 0,
        "slot": "54",
        "type": "t_string_storage"
      },
      {
        "astId": 372,
        "contract": "contracts/token/APToken.sol:APToken",
        "label": "_symbol",
        "offset": 0,
        "slot": "55",
        "type": "t_string_storage"
      },
      {
        "astId": 951,
        "contract": "contracts/token/APToken.sol:APToken",
        "label": "__gap",
        "offset": 0,
        "slot": "56",
        "type": "t_array(t_uint256)45_storage"
      },
      {
        "astId": 3987,
        "contract": "contracts/token/APToken.sol:APToken",
        "label": "_HASHED_NAME",
        "offset": 0,
        "slot": "101",
        "type": "t_bytes32"
      },
      {
        "astId": 3989,
        "contract": "contracts/token/APToken.sol:APToken",
        "label": "_HASHED_VERSION",
        "offset": 0,
        "slot": "102",
        "type": "t_bytes32"
      },
      {
        "astId": 4127,
        "contract": "contracts/token/APToken.sol:APToken",
        "label": "__gap",
        "offset": 0,
        "slot": "103",
        "type": "t_array(t_uint256)50_storage"
      },
      {
        "astId": 1081,
        "contract": "contracts/token/APToken.sol:APToken",
        "label": "_nonces",
        "offset": 0,
        "slot": "153",
        "type": "t_mapping(t_address,t_struct(Counter)3296_storage)"
      },
      {
        "astId": 1089,
        "contract": "contracts/token/APToken.sol:APToken",
        "label": "_PERMIT_TYPEHASH_DEPRECATED_SLOT",
        "offset": 0,
        "slot": "154",
        "type": "t_bytes32"
      },
      {
        "astId": 1245,
        "contract": "contracts/token/APToken.sol:APToken",
        "label": "__gap",
        "offset": 0,
        "slot": "155",
        "type": "t_array(t_uint256)49_storage"
      }
    ],
    "types": {
      "t_address": {
        "encoding": "inplace",
        "label": "address",
        "numberOfBytes": "20"
      },
      "t_array(t_uint256)45_storage": {
        "base": "t_uint256",
        "encoding": "inplace",
        "label": "uint256[45]",
        "numberOfBytes": "1440"
      },
      "t_array(t_uint256)49_storage": {
        "base": "t_uint256",
        "encoding": "inplace",
        "label": "uint256[49]",
        "numberOfBytes": "1568"
      },
      "t_array(t_uint256)50_storage": {
        "base": "t_uint256",
        "encoding": "inplace",
        "label": "uint256[50]",
        "numberOfBytes": "1600"
      },
      "t_bool": {
        "encoding": "inplace",
        "label": "bool",
        "numberOfBytes": "1"
      },
      "t_bytes32": {
        "encoding": "inplace",
        "label": "bytes32",
        "numberOfBytes": "32"
      },
      "t_mapping(t_address,t_mapping(t_address,t_uint256))": {
        "encoding": "mapping",
        "key": "t_address",
        "label": "mapping(address => mapping(address => uint256))",
        "numberOfBytes": "32",
        "value": "t_mapping(t_address,t_uint256)"
      },
      "t_mapping(t_address,t_struct(Counter)3296_storage)": {
        "encoding": "mapping",
        "key": "t_address",
        "label": "mapping(address => struct CountersUpgradeable.Counter)",
        "numberOfBytes": "32",
        "value": "t_struct(Counter)3296_storage"
      },
      "t_mapping(t_address,t_uint256)": {
        "encoding": "mapping",
        "key": "t_address",
        "label": "mapping(address => uint256)",
        "numberOfBytes": "32",
        "value": "t_uint256"
      },
      "t_string_storage": {
        "encoding": "bytes",
        "label": "string",
        "numberOfBytes": "32"
      },
      "t_struct(Counter)3296_storage": {
        "encoding": "inplace",
        "label": "struct CountersUpgradeable.Counter",
        "members": [
          {
            "astId": 3295,
            "contract": "contracts/token/APToken.sol:APToken",
            "label": "_value",
            "offset": 0,
            "slot": "0",
            "type": "t_uint256"
          }
        ],
        "numberOfBytes": "32"
      },
      "t_uint256": {
        "encoding": "inplace",
        "label": "uint256",
        "numberOfBytes": "32"
      },
      "t_uint8": {
        "encoding": "inplace",
        "label": "uint8",
        "numberOfBytes": "1"
      }
    }
  }
}