{
  "address": "0xFd7e079ed9012905094450be8963abe2265a3ae2",
  "abi": [
    {
      "inputs": [
        {
          "internalType": "address",
          "name": "_usdtToken",
          "type": "address"
        }
      ],
      "stateMutability": "nonpayable",
      "type": "constructor"
    },
    {
      "anonymous": false,
      "inputs": [
        {
          "indexed": false,
          "internalType": "uint8",
          "name": "version",
          "type": "uint8"
        }
      ],
      "name": "Initialized",
      "type": "event"
    },
    {
      "anonymous": false,
      "inputs": [
        {
          "indexed": true,
          "internalType": "address",
          "name": "previousOwner",
          "type": "address"
        },
        {
          "indexed": true,
          "internalType": "address",
          "name": "newOwner",
          "type": "address"
        }
      ],
      "name": "OwnershipTransferred",
      "type": "event"
    },
    {
      "inputs": [],
      "name": "AP_TOKEN",
      "outputs": [
        {
          "internalType": "address",
          "name": "",
          "type": "address"
        }
      ],
      "stateMutability": "view",
      "type": "function"
    },
    {
      "inputs": [],
      "name": "LISTED_LYNKNFT",
      "outputs": [
        {
          "internalType": "address",
          "name": "",
          "type": "address"
        }
      ],
      "stateMutability": "view",
      "type": "function"
    },
    {
      "inputs": [],
      "name": "LYNKNFT",
      "outputs": [
        {
          "internalType": "address",
          "name": "",
          "type": "address"
        }
      ],
      "stateMutability": "view",
      "type": "function"
    },
    {
      "inputs": [],
      "name": "LYNK_TOKEN",
      "outputs": [
        {
          "internalType": "address",
          "name": "",
          "type": "address"
        }
      ],
      "stateMutability": "view",
      "type": "function"
    },
    {
      "inputs": [],
      "name": "MARKET",
      "outputs": [
        {
          "internalType": "address",
          "name": "",
          "type": "address"
        }
      ],
      "stateMutability": "view",
      "type": "function"
    },
    {
      "inputs": [],
      "name": "STAKING",
      "outputs": [
        {
          "internalType": "address",
          "name": "",
          "type": "address"
        }
      ],
      "stateMutability": "view",
      "type": "function"
    },
    {
      "inputs": [],
      "name": "STAKING_LYNKNFT",
      "outputs": [
        {
          "internalType": "address",
          "name": "",
          "type": "address"
        }
      ],
      "stateMutability": "view",
      "type": "function"
    },
    {
      "inputs": [],
      "name": "TEAM_ADDR",
      "outputs": [
        {
          "internalType": "address",
          "name": "",
          "type": "address"
        }
      ],
      "stateMutability": "view",
      "type": "function"
    },
    {
      "inputs": [],
      "name": "USDT_TOKEN",
      "outputs": [
        {
          "internalType": "address",
          "name": "",
          "type": "address"
        }
      ],
      "stateMutability": "view",
      "type": "function"
    },
    {
      "inputs": [],
      "name": "USER_INFO",
      "outputs": [
        {
          "internalType": "address",
          "name": "",
          "type": "address"
        }
      ],
      "stateMutability": "view",
      "type": "function"
    },
    {
      "inputs": [
        {
          "internalType": "address[]",
          "name": "_addresses",
          "type": "address[]"
        }
      ],
      "name": "__DBContract_init",
      "outputs": [],
      "stateMutability": "nonpayable",
      "type": "function"
    },
    {
      "inputs": [],
      "name": "acceptTokenLength",
      "outputs": [
        {
          "internalType": "uint256",
          "name": "",
          "type": "uint256"
        }
      ],
      "stateMutability": "view",
      "type": "function"
    },
    {
      "inputs": [
        {
          "internalType": "uint256",
          "name": "",
          "type": "uint256"
        }
      ],
      "name": "acceptTokens",
      "outputs": [
        {
          "internalType": "address",
          "name": "",
          "type": "address"
        }
      ],
      "stateMutability": "view",
      "type": "function"
    },
    {
      "inputs": [
        {
          "internalType": "uint256",
          "name": "",
          "type": "uint256"
        }
      ],
      "name": "achievementRewardAmounts",
      "outputs": [
        {
          "internalType": "uint256",
          "name": "",
          "type": "uint256"
        }
      ],
      "stateMutability": "view",
      "type": "function"
    },
    {
      "inputs": [],
      "name": "achievementRewardAmountsNum",
      "outputs": [
        {
          "internalType": "uint256",
          "name": "",
          "type": "uint256"
        }
      ],
      "stateMutability": "view",
      "type": "function"
    },
    {
      "inputs": [],
      "name": "achievementRewardDurationThreshold",
      "outputs": [
        {
          "internalType": "uint256",
          "name": "",
          "type": "uint256"
        }
      ],
      "stateMutability": "view",
      "type": "function"
    },
    {
      "inputs": [],
      "name": "achievementRewardLevelThreshold",
      "outputs": [
        {
          "internalType": "uint256",
          "name": "",
          "type": "uint256"
        }
      ],
      "stateMutability": "view",
      "type": "function"
    },
    {
      "inputs": [
        {
          "internalType": "uint256",
          "name": "",
          "type": "uint256"
        },
        {
          "internalType": "uint256",
          "name": "",
          "type": "uint256"
        }
      ],
      "name": "attributeLevelThreshold",
      "outputs": [
        {
          "internalType": "uint256",
          "name": "",
          "type": "uint256"
        }
      ],
      "stateMutability": "view",
      "type": "function"
    },
    {
      "inputs": [],
      "name": "attributeLevelThresholdNum",
      "outputs": [
        {
          "internalType": "uint256",
          "name": "",
          "type": "uint256"
        }
      ],
      "stateMutability": "view",
      "type": "function"
    },
    {
      "inputs": [
        {
          "internalType": "uint256",
          "name": "index",
          "type": "uint256"
        }
      ],
      "name": "attributeLevelThresholdNumByIndex",
      "outputs": [
        {
          "internalType": "uint256",
          "name": "",
          "type": "uint256"
        }
      ],
      "stateMutability": "view",
      "type": "function"
    },
    {
      "inputs": [],
      "name": "baseTokenURI",
      "outputs": [
        {
          "internalType": "string",
          "name": "",
          "type": "string"
        }
      ],
      "stateMutability": "view",
      "type": "function"
    },
    {
      "inputs": [
        {
          "internalType": "enum ILYNKNFT.Attribute",
          "name": "_attr",
          "type": "uint8"
        },
        {
          "internalType": "uint256",
          "name": "_point",
          "type": "uint256"
        }
      ],
      "name": "calcLevel",
      "outputs": [
        {
          "internalType": "uint256",
          "name": "level",
          "type": "uint256"
        },
        {
          "internalType": "uint256",
          "name": "overflow",
          "type": "uint256"
        }
      ],
      "stateMutability": "view",
      "type": "function"
    },
    {
      "inputs": [
        {
          "internalType": "uint256",
          "name": "_tokenId",
          "type": "uint256"
        }
      ],
      "name": "calcTokenLevel",
      "outputs": [
        {
          "internalType": "uint256",
          "name": "level",
          "type": "uint256"
        }
      ],
      "stateMutability": "view",
      "type": "function"
    },
    {
      "inputs": [],
      "name": "commonMintEnable",
      "outputs": [
        {
          "internalType": "bool",
          "name": "",
          "type": "bool"
        }
      ],
      "stateMutability": "view",
      "type": "function"
    },
    {
      "inputs": [
        {
          "internalType": "enum IUser.Level",
          "name": "_level",
          "type": "uint8"
        },
        {
          "internalType": "uint256",
          "name": "_invitationLevel",
          "type": "uint256"
        }
      ],
      "name": "communityRewardRate",
      "outputs": [
        {
          "internalType": "uint256",
          "name": "",
          "type": "uint256"
        }
      ],
      "stateMutability": "view",
      "type": "function"
    },
    {
      "inputs": [
        {
          "internalType": "uint256",
          "name": "",
          "type": "uint256"
        },
        {
          "internalType": "uint256",
          "name": "",
          "type": "uint256"
        }
      ],
      "name": "communityRewardRates",
      "outputs": [
        {
          "internalType": "uint256",
          "name": "",
          "type": "uint256"
        }
      ],
      "stateMutability": "view",
      "type": "function"
    },
    {
      "inputs": [
        {
          "internalType": "enum IUser.Level",
          "name": "_level",
          "type": "uint8"
        }
      ],
      "name": "communityRewardRatesNumByLevel",
      "outputs": [
        {
          "internalType": "uint256",
          "name": "",
          "type": "uint256"
        }
      ],
      "stateMutability": "view",
      "type": "function"
    },
    {
      "inputs": [
        {
          "internalType": "uint256",
          "name": "",
          "type": "uint256"
        }
      ],
      "name": "contributionRewardAmounts",
      "outputs": [
        {
          "internalType": "uint256",
          "name": "",
          "type": "uint256"
        }
      ],
      "stateMutability": "view",
      "type": "function"
    },
    {
      "inputs": [],
      "name": "contributionRewardAmountsNum",
      "outputs": [
        {
          "internalType": "uint256",
          "name": "",
          "type": "uint256"
        }
      ],
      "stateMutability": "view",
      "type": "function"
    },
    {
      "inputs": [],
      "name": "contributionRewardThreshold",
      "outputs": [
        {
          "internalType": "uint256",
          "name": "",
          "type": "uint256"
        }
      ],
      "stateMutability": "view",
      "type": "function"
    },
    {
      "inputs": [
        {
          "internalType": "uint256",
          "name": "",
          "type": "uint256"
        }
      ],
      "name": "directRequirements",
      "outputs": [
        {
          "internalType": "uint256",
          "name": "",
          "type": "uint256"
        }
      ],
      "stateMutability": "view",
      "type": "function"
    },
    {
      "inputs": [],
      "name": "directRequirementsNum",
      "outputs": [
        {
          "internalType": "uint256",
          "name": "",
          "type": "uint256"
        }
      ],
      "stateMutability": "view",
      "type": "function"
    },
    {
      "inputs": [],
      "name": "duration",
      "outputs": [
        {
          "internalType": "uint256",
          "name": "",
          "type": "uint256"
        }
      ],
      "stateMutability": "view",
      "type": "function"
    },
    {
      "inputs": [],
      "name": "earlyBirdInitCA",
      "outputs": [
        {
          "internalType": "uint256",
          "name": "",
          "type": "uint256"
        }
      ],
      "stateMutability": "view",
      "type": "function"
    },
    {
      "inputs": [],
      "name": "earlyBirdMintEnable",
      "outputs": [
        {
          "internalType": "bool",
          "name": "",
          "type": "bool"
        }
      ],
      "stateMutability": "view",
      "type": "function"
    },
    {
      "inputs": [],
      "name": "earlyBirdMintEndId",
      "outputs": [
        {
          "internalType": "uint256",
          "name": "",
          "type": "uint256"
        }
      ],
      "stateMutability": "view",
      "type": "function"
    },
    {
      "inputs": [],
      "name": "earlyBirdMintIdRange",
      "outputs": [
        {
          "internalType": "uint256",
          "name": "",
          "type": "uint256"
        },
        {
          "internalType": "uint256",
          "name": "",
          "type": "uint256"
        }
      ],
      "stateMutability": "view",
      "type": "function"
    },
    {
      "inputs": [],
      "name": "earlyBirdMintPayment",
      "outputs": [
        {
          "internalType": "address",
          "name": "",
          "type": "address"
        }
      ],
      "stateMutability": "view",
      "type": "function"
    },
    {
      "inputs": [],
      "name": "earlyBirdMintPrice",
      "outputs": [
        {
          "internalType": "address",
          "name": "",
          "type": "address"
        },
        {
          "internalType": "uint256",
          "name": "",
          "type": "uint256"
        }
      ],
      "stateMutability": "view",
      "type": "function"
    },
    {
      "inputs": [],
      "name": "earlyBirdMintPriceInPayment",
      "outputs": [
        {
          "internalType": "uint256",
          "name": "",
          "type": "uint256"
        }
      ],
      "stateMutability": "view",
      "type": "function"
    },
    {
      "inputs": [],
      "name": "earlyBirdMintStartId",
      "outputs": [
        {
          "internalType": "uint256",
          "name": "",
          "type": "uint256"
        }
      ],
      "stateMutability": "view",
      "type": "function"
    },
    {
      "inputs": [
        {
          "internalType": "address",
          "name": "",
          "type": "address"
        }
      ],
      "name": "earlyBirdMintWlOf",
      "outputs": [
        {
          "internalType": "bool",
          "name": "",
          "type": "bool"
        }
      ],
      "stateMutability": "view",
      "type": "function"
    },
    {
      "inputs": [
        {
          "internalType": "uint256",
          "name": "_nftId",
          "type": "uint256"
        }
      ],
      "name": "hasAchievementReward",
      "outputs": [
        {
          "internalType": "bool",
          "name": "",
          "type": "bool"
        }
      ],
      "stateMutability": "view",
      "type": "function"
    },
    {
      "inputs": [
        {
          "internalType": "address",
          "name": "_token",
          "type": "address"
        }
      ],
      "name": "isAcceptToken",
      "outputs": [
        {
          "internalType": "bool",
          "name": "",
          "type": "bool"
        }
      ],
      "stateMutability": "view",
      "type": "function"
    },
    {
      "inputs": [],
      "name": "lynkPriceInALYX",
      "outputs": [
        {
          "internalType": "uint256",
          "name": "",
          "type": "uint256"
        }
      ],
      "stateMutability": "view",
      "type": "function"
    },
    {
      "inputs": [],
      "name": "maxInvitationLevel",
      "outputs": [
        {
          "internalType": "uint256",
          "name": "",
          "type": "uint256"
        }
      ],
      "stateMutability": "view",
      "type": "function"
    },
    {
      "inputs": [],
      "name": "maxMintPerDayPerAddress",
      "outputs": [
        {
          "internalType": "uint256",
          "name": "",
          "type": "uint256"
        }
      ],
      "stateMutability": "view",
      "type": "function"
    },
    {
      "inputs": [
        {
          "internalType": "uint256",
          "name": "_tokenId",
          "type": "uint256"
        }
      ],
      "name": "maxVAAddPerDayByTokenId",
      "outputs": [
        {
          "internalType": "uint256",
          "name": "",
          "type": "uint256"
        }
      ],
      "stateMutability": "view",
      "type": "function"
    },
    {
      "inputs": [],
      "name": "maxVAAddPerDayPerToken",
      "outputs": [
        {
          "internalType": "uint256",
          "name": "",
          "type": "uint256"
        }
      ],
      "stateMutability": "view",
      "type": "function"
    },
    {
      "inputs": [
        {
          "internalType": "uint256",
          "name": "",
          "type": "uint256"
        }
      ],
      "name": "maxVAAddPerDayPerTokens",
      "outputs": [
        {
          "internalType": "uint256",
          "name": "",
          "type": "uint256"
        }
      ],
      "stateMutability": "view",
      "type": "function"
    },
    {
      "inputs": [],
      "name": "maxVAAddPerDayPerTokensNum",
      "outputs": [
        {
          "internalType": "uint256",
          "name": "",
          "type": "uint256"
        }
      ],
      "stateMutability": "view",
      "type": "function"
    },
    {
      "inputs": [
        {
          "internalType": "uint256",
          "name": "",
          "type": "uint256"
        }
      ],
      "name": "mintPrices",
      "outputs": [
        {
          "internalType": "uint256",
          "name": "",
          "type": "uint256"
        }
      ],
      "stateMutability": "view",
      "type": "function"
    },
    {
      "inputs": [],
      "name": "mintPricesNum",
      "outputs": [
        {
          "internalType": "uint256",
          "name": "",
          "type": "uint256"
        }
      ],
      "stateMutability": "view",
      "type": "function"
    },
    {
      "inputs": [],
      "name": "operator",
      "outputs": [
        {
          "internalType": "address",
          "name": "",
          "type": "address"
        }
      ],
      "stateMutability": "view",
      "type": "function"
    },
    {
      "inputs": [],
      "name": "owner",
      "outputs": [
        {
          "internalType": "address",
          "name": "",
          "type": "address"
        }
      ],
      "stateMutability": "view",
      "type": "function"
    },
    {
      "inputs": [
        {
          "internalType": "uint256",
          "name": "_index",
          "type": "uint256"
        }
      ],
      "name": "packageByIndex",
      "outputs": [
        {
          "internalType": "uint256[]",
          "name": "",
          "type": "uint256[]"
        }
      ],
      "stateMutability": "view",
      "type": "function"
    },
    {
      "inputs": [],
      "name": "packageLength",
      "outputs": [
        {
          "internalType": "uint256",
          "name": "",
          "type": "uint256"
        }
      ],
      "stateMutability": "view",
      "type": "function"
    },
    {
      "inputs": [
        {
          "internalType": "uint256",
          "name": "",
          "type": "uint256"
        }
      ],
      "name": "performanceRequirements",
      "outputs": [
        {
          "internalType": "uint256",
          "name": "",
          "type": "uint256"
        }
      ],
      "stateMutability": "view",
      "type": "function"
    },
    {
      "inputs": [],
      "name": "performanceRequirementsNum",
      "outputs": [
        {
          "internalType": "uint256",
          "name": "",
          "type": "uint256"
        }
      ],
      "stateMutability": "view",
      "type": "function"
    },
    {
      "inputs": [],
      "name": "performanceThreshold",
      "outputs": [
        {
          "internalType": "uint256",
          "name": "",
          "type": "uint256"
        }
      ],
      "stateMutability": "view",
      "type": "function"
    },
    {
      "inputs": [
        {
          "internalType": "uint256",
          "name": "_index",
          "type": "uint256"
        }
      ],
      "name": "removeAcceptToken",
      "outputs": [],
      "stateMutability": "nonpayable",
      "type": "function"
    },
    {
      "inputs": [],
      "name": "renounceOwnership",
      "outputs": [],
      "stateMutability": "nonpayable",
      "type": "function"
    },
    {
      "inputs": [],
      "name": "rootAddress",
      "outputs": [
        {
          "internalType": "address",
          "name": "",
          "type": "address"
        }
      ],
      "stateMutability": "view",
      "type": "function"
    },
    {
      "inputs": [],
      "name": "sellingLevelLimit",
      "outputs": [
        {
          "internalType": "uint256",
          "name": "",
          "type": "uint256"
        }
      ],
      "stateMutability": "view",
      "type": "function"
    },
    {
      "inputs": [
        {
          "internalType": "uint256",
          "name": "",
          "type": "uint256"
        },
        {
          "internalType": "uint256",
          "name": "",
          "type": "uint256"
        }
      ],
      "name": "sellingPackages",
      "outputs": [
        {
          "internalType": "uint256",
          "name": "",
          "type": "uint256"
        }
      ],
      "stateMutability": "view",
      "type": "function"
    },
    {
      "inputs": [
        {
          "internalType": "address",
          "name": "_acceptToken",
          "type": "address"
        }
      ],
      "name": "setAcceptToken",
      "outputs": [],
      "stateMutability": "nonpayable",
      "type": "function"
    },
    {
      "inputs": [
        {
          "internalType": "uint256[]",
          "name": "_amounts",
          "type": "uint256[]"
        }
      ],
      "name": "setAchievementRewardAmounts",
      "outputs": [],
      "stateMutability": "nonpayable",
      "type": "function"
    },
    {
      "inputs": [
        {
          "internalType": "uint256",
          "name": "_achievementRewardDurationThreshold",
          "type": "uint256"
        }
      ],
      "name": "setAchievementRewardDurationThreshold",
      "outputs": [],
      "stateMutability": "nonpayable",
      "type": "function"
    },
    {
      "inputs": [
        {
          "internalType": "uint256",
          "name": "_achievementRewardLevelThreshold",
          "type": "uint256"
        }
      ],
      "name": "setAchievementRewardLevelThreshold",
      "outputs": [],
      "stateMutability": "nonpayable",
      "type": "function"
    },
    {
      "inputs": [
        {
          "internalType": "address[]",
          "name": "_addresses",
          "type": "address[]"
        }
      ],
      "name": "setAddresses",
      "outputs": [],
      "stateMutability": "nonpayable",
      "type": "function"
    },
    {
      "inputs": [
        {
          "internalType": "enum ILYNKNFT.Attribute",
          "name": "_attr",
          "type": "uint8"
        },
        {
          "internalType": "uint256[]",
          "name": "_thresholds",
          "type": "uint256[]"
        }
      ],
      "name": "setAttributeLevelThreshold",
      "outputs": [],
      "stateMutability": "nonpayable",
      "type": "function"
    },
    {
      "inputs": [
        {
          "internalType": "string",
          "name": "_baseTokenURI",
          "type": "string"
        }
      ],
      "name": "setBaseTokenURI",
      "outputs": [],
      "stateMutability": "nonpayable",
      "type": "function"
    },
    {
      "inputs": [
        {
          "internalType": "enum IUser.Level",
          "name": "_level",
          "type": "uint8"
        },
        {
          "internalType": "uint256[]",
          "name": "_rates",
          "type": "uint256[]"
        }
      ],
      "name": "setCommunityRewardRates",
      "outputs": [],
      "stateMutability": "nonpayable",
      "type": "function"
    },
    {
      "inputs": [
        {
          "internalType": "uint256[]",
          "name": "_amounts",
          "type": "uint256[]"
        }
      ],
      "name": "setContributionRewardAmounts",
      "outputs": [],
      "stateMutability": "nonpayable",
      "type": "function"
    },
    {
      "inputs": [
        {
          "internalType": "uint256",
          "name": "_contributionRewardThreshold",
          "type": "uint256"
        }
      ],
      "name": "setContributionRewardThreshold",
      "outputs": [],
      "stateMutability": "nonpayable",
      "type": "function"
    },
    {
      "inputs": [
        {
          "internalType": "uint256[]",
          "name": "_requirements",
          "type": "uint256[]"
        }
      ],
      "name": "setDirectRequirements",
      "outputs": [],
      "stateMutability": "nonpayable",
      "type": "function"
    },
    {
      "inputs": [
        {
          "internalType": "uint256",
          "name": "_duration",
          "type": "uint256"
        }
      ],
      "name": "setDuration",
      "outputs": [],
      "stateMutability": "nonpayable",
      "type": "function"
    },
    {
      "inputs": [
        {
          "internalType": "uint256",
          "name": "_earlyBirdInitCA",
          "type": "uint256"
        }
      ],
      "name": "setEarlyBirdInitCA",
      "outputs": [],
      "stateMutability": "nonpayable",
      "type": "function"
    },
    {
      "inputs": [
        {
          "internalType": "uint256",
          "name": "_earlyBirdMintStartId",
          "type": "uint256"
        },
        {
          "internalType": "uint256",
          "name": "_earlyBirdMintEndId",
          "type": "uint256"
        }
      ],
      "name": "setEarlyBirdMintIdRange",
      "outputs": [],
      "stateMutability": "nonpayable",
      "type": "function"
    },
    {
      "inputs": [
        {
          "internalType": "address",
          "name": "_earlyBirdMintPayment",
          "type": "address"
        },
        {
          "internalType": "uint256",
          "name": "_earlyBirdMintPriceInPayment",
          "type": "uint256"
        }
      ],
      "name": "setEarlyBirdMintPrice",
      "outputs": [],
      "stateMutability": "nonpayable",
      "type": "function"
    },
    {
      "inputs": [
        {
          "internalType": "uint256",
          "name": "_lynkPriceInALYX",
          "type": "uint256"
        }
      ],
      "name": "setLynkPriceInALYX",
      "outputs": [],
      "stateMutability": "nonpayable",
      "type": "function"
    },
    {
      "inputs": [
        {
          "internalType": "uint256",
          "name": "_maxMintPerDayPerAddress",
          "type": "uint256"
        }
      ],
      "name": "setMaxMintPerDayPerAddress",
      "outputs": [],
      "stateMutability": "nonpayable",
      "type": "function"
    },
    {
      "inputs": [
        {
          "internalType": "uint256",
          "name": "_maxVAAddPerDayPerToken",
          "type": "uint256"
        }
      ],
      "name": "setMaxVAAddPerDayPerToken",
      "outputs": [],
      "stateMutability": "nonpayable",
      "type": "function"
    },
    {
      "inputs": [
        {
          "internalType": "uint256[]",
          "name": "_maxVAAddPerDayPerTokens",
          "type": "uint256[]"
        }
      ],
      "name": "setMaxVAAddPerDayPerTokens",
      "outputs": [],
      "stateMutability": "nonpayable",
      "type": "function"
    },
    {
      "inputs": [
        {
          "internalType": "uint256[]",
          "name": "_mintPrices",
          "type": "uint256[]"
        }
      ],
      "name": "setMintPrices",
      "outputs": [],
      "stateMutability": "nonpayable",
      "type": "function"
    },
    {
      "inputs": [
        {
          "internalType": "address",
          "name": "_operator",
          "type": "address"
        }
      ],
      "name": "setOperator",
      "outputs": [],
      "stateMutability": "nonpayable",
      "type": "function"
    },
    {
      "inputs": [
        {
          "internalType": "uint256[]",
          "name": "_requirements",
          "type": "uint256[]"
        }
      ],
      "name": "setPerformanceRequirements",
      "outputs": [],
      "stateMutability": "nonpayable",
      "type": "function"
    },
    {
      "inputs": [
        {
          "internalType": "uint256",
          "name": "_performanceThreshold",
          "type": "uint256"
        }
      ],
      "name": "setPerformanceThreshold",
      "outputs": [],
      "stateMutability": "nonpayable",
      "type": "function"
    },
    {
      "inputs": [
        {
          "internalType": "address",
          "name": "_rootAddress",
          "type": "address"
        }
      ],
      "name": "setRootAddress",
      "outputs": [],
      "stateMutability": "nonpayable",
      "type": "function"
    },
    {
      "inputs": [
        {
          "internalType": "uint256",
          "name": "_sellingLevelLimit",
          "type": "uint256"
        }
      ],
      "name": "setSellingLevelLimit",
      "outputs": [],
      "stateMutability": "nonpayable",
      "type": "function"
    },
    {
      "inputs": [
        {
          "internalType": "uint256[][]",
          "name": "_packages",
          "type": "uint256[][]"
        }
      ],
      "name": "setSellingPackage",
      "outputs": [],
      "stateMutability": "nonpayable",
      "type": "function"
    },
    {
      "inputs": [
        {
          "internalType": "uint256[]",
          "name": "_rates",
          "type": "uint256[]"
        }
      ],
      "name": "setSocialRewardRates",
      "outputs": [],
      "stateMutability": "nonpayable",
      "type": "function"
    },
    {
      "inputs": [
        {
          "internalType": "bool",
          "name": "_earlyBirdMintEnable",
          "type": "bool"
        },
        {
          "internalType": "bool",
          "name": "_commonMintEnable",
          "type": "bool"
        }
      ],
      "name": "setSwitch",
      "outputs": [],
      "stateMutability": "nonpayable",
      "type": "function"
    },
    {
      "inputs": [
        {
          "internalType": "uint256",
          "name": "_tradingFee",
          "type": "uint256"
        }
      ],
      "name": "setTradingFee",
      "outputs": [],
      "stateMutability": "nonpayable",
      "type": "function"
    },
    {
      "inputs": [
        {
          "internalType": "uint256",
          "name": "_wlNum",
          "type": "uint256"
        }
      ],
      "name": "setWlNum",
      "outputs": [],
      "stateMutability": "nonpayable",
      "type": "function"
    },
    {
      "inputs": [
        {
          "internalType": "address[]",
          "name": "_wls",
          "type": "address[]"
        }
      ],
      "name": "setWls",
      "outputs": [],
      "stateMutability": "nonpayable",
      "type": "function"
    },
    {
      "inputs": [
        {
          "internalType": "uint256",
          "name": "",
          "type": "uint256"
        }
      ],
      "name": "socialRewardRates",
      "outputs": [
        {
          "internalType": "uint256",
          "name": "",
          "type": "uint256"
        }
      ],
      "stateMutability": "view",
      "type": "function"
    },
    {
      "inputs": [],
      "name": "socialRewardRatesNum",
      "outputs": [
        {
          "internalType": "uint256",
          "name": "",
          "type": "uint256"
        }
      ],
      "stateMutability": "view",
      "type": "function"
    },
    {
      "inputs": [],
      "name": "tradingFee",
      "outputs": [
        {
          "internalType": "uint256",
          "name": "",
          "type": "uint256"
        }
      ],
      "stateMutability": "view",
      "type": "function"
    },
    {
      "inputs": [
        {
          "internalType": "address",
          "name": "newOwner",
          "type": "address"
        }
      ],
      "name": "transferOwnership",
      "outputs": [],
      "stateMutability": "nonpayable",
      "type": "function"
    },
    {
      "inputs": [],
      "name": "wlNum",
      "outputs": [
        {
          "internalType": "uint256",
          "name": "",
          "type": "uint256"
        }
      ],
      "stateMutability": "view",
      "type": "function"
    }
  ],
  "transactionHash": "0x2b42c1efbd73b91e2e53345df0484be79ad3ac181c94d85e79503d9fb80edfc7",
  "args": [
    "0x38B7CA6eD821bEf464Aa1BF080bf563efc0DEc1a"
  ],
  "numDeployments": 2,
  "solcInputHash": "9d7bca6848149a117a51973d2eedaebf",
  "bytecode": "0x60a06040523480156200001157600080fd5b506040516200312638038062003126833981016040819052620000349162000046565b6001600160a01b031660805262000078565b6000602082840312156200005957600080fd5b81516001600160a01b03811681146200007157600080fd5b9392505050565b6080516130926200009460003960006108a001526130926000f3fe608060405234801561001057600080fd5b50600436106105b75760003560e01c80638136673f11610300578063b9571721116101a8578063d42ecfc0116100f4578063f046bded116100ad578063f6be71d111610087578063f6be71d114610c78578063fa1785fe14610c8b578063fce3b86e14610c9e578063fd02f81f14610cb157600080fd5b8063f046bded14610c4a578063f2fde38b14610c52578063f46f16c214610c6557600080fd5b8063d42ecfc014610bdc578063d547cfb714610bef578063dfada98814610c04578063e707379014610c17578063ea0d146514610c2a578063ec214bbf14610c3757600080fd5b8063c8aca9d011610161578063d09586ac1161013b578063d09586ac14610ba6578063d2110a0914610bae578063d3f0f70d14610bb6578063d3f42b7c14610bc957600080fd5b8063c8aca9d014610b60578063c96928f714610b73578063cd0a174a14610b8657600080fd5b8063b957172114610b00578063be18881114610b13578063bf57840314610b1e578063c2e30dd014610b27578063c6c0891614610b3a578063c7650dd814610b4d57600080fd5b8063a4c15a1311610267578063afe97ec111610220578063b35e1a0a116101fa578063b35e1a0a14610ab4578063b3a8f2a914610ac7578063b3ab15fb14610ada578063b589e51e14610aed57600080fd5b8063afe97ec114610a70578063b0d54bcf14610a79578063b2cd99af14610a8c57600080fd5b8063a4c15a1314610a08578063a5c158e314610a1b578063aaa2b8c814610a2e578063ab2c865314610a41578063af4574c614610a4a578063af718c5514610a5d57600080fd5b806396579456116102b957806396579456146109a057806397610f30146109b357806399bcfdd3146109c65780639ba544ed146109d95780639d51193e146109ec5780639e77de27146109f557600080fd5b80638136673f1461093a5780638cd6ab811461094d5780638da5cb5b146109565780638edcde7d146109675780639180db471461097a578063950144331461098d57600080fd5b806356c15c3911610463578063663d2c4e116103ca57806377b2fb8e116103835780637a58a3f11161035d5780637a58a3f1146108cb5780637af0cac3146108de5780637af35899146109145780637bbbdc2e1461092757600080fd5b806377b2fb8e1461089257806377b330c91461089b5780637811dddd146108c257600080fd5b8063663d2c4e146108355780636b81ffdb146108485780636fda06521461085b578063705064fd1461086e57806370c802fb14610881578063715018a61461088a57600080fd5b8063600a2f821161041c578063600a2f82146107e35780636187b33e146107ec5780636241c200146107ff57806362e6d38a1461080757806364db03b81461081a57806366227eb91461082357600080fd5b806356c15c391461078557806356f4335214610798578063570ca735146107a15780635b487d9c146107b45780635ce58dd4146107c75780635f7d59c4146107da57600080fd5b80633b87436b116105225780634b89f9f7116104db5780634eb66e83116104b55780634eb66e831461073e578063530009641461074757806354af93201461074f57806354c1498d1461076257600080fd5b80634b89f9f7146107055780634c09df04146107185780634d678f291461072b57600080fd5b80633b87436b146106a75780633d902c80146106ba578063405a0aa8146106cd57806341d0992b146106d657806341e33d38146106e957806343e573b1146106f257600080fd5b80632eed8a59116105745780632eed8a591461063b57806330176e131461065e5780633256e7d414610671578063331163ce146106795780633323ff8a1461068157806334456ae11461069457600080fd5b80630b00fd54146105bc5780630fb5a6b4146105ec5780631451952b146106035780631b56c29c146106185780631edd6e871461062b5780631faee86814610633575b600080fd5b606d546105cf906001600160a01b031681565b6040516001600160a01b0390911681526020015b60405180910390f35b6105f560835481565b6040519081526020016105e3565b610616610611366004612a3a565b610cb9565b005b6105cf610626366004612a5c565b610d75565b6074546105f5565b6082546105f5565b61064e610649366004612a3a565b610d9f565b60405190151581526020016105e3565b61061661066c366004612a75565b610e07565b607a546105f5565b606f546105f5565b61061661068f366004612a5c565b610e42565b6106166106a2366004612ae7565b610e71565b6065546105cf906001600160a01b031681565b6106166106c8366004612b56565b610f17565b6105f560885481565b6106166106e4366004612b56565b610f59565b6105f5608a5481565b610616610700366004612a3a565b610fc5565b610616610713366004612ba7565b611097565b6105f5610726366004612a5c565b611277565b6105f5610739366004612c09565b611298565b6105f5607d5481565b6078546105f5565b61061661075d366004612b56565b611319565b61064e610770366004612a3a565b608d6020526000908152604090205460ff1681565b606b546105cf906001600160a01b031681565b6105f560765481565b606e546105cf906001600160a01b031681565b606a546105cf906001600160a01b031681565b6106166107d5366004612b56565b61137b565b6105f560735481565b6105f560705481565b6105f56107fa366004612a5c565b61146e565b6079546105f5565b6105f5610815366004612a5c565b61147e565b6105f560865481565b608b5461064e90610100900460ff1681565b6069546105cf906001600160a01b031681565b610616610856366004612a5c565b6114d2565b6105f5610869366004612a5c565b611501565b61061661087c366004612a5c565b611539565b6105f5608e5481565b610616611627565b6105f5607b5481565b6105cf7f000000000000000000000000000000000000000000000000000000000000000081565b6105f560805481565b6105f56108d9366004612a5c565b61163b565b6108f5608954608a546001600160a01b0390911691565b604080516001600160a01b0390931683526020830191909152016105e3565b610616610922366004612b56565b61164b565b610616610935366004612b56565b6116b7565b6105f5610948366004612c25565b6117d3565b6105f560875481565b6033546001600160a01b03166105cf565b6105f5610975366004612a5c565b611810565b610616610988366004612a5c565b61181b565b61061661099b366004612c55565b61184a565b6106166109ae366004612b56565b611898565b6067546105cf906001600160a01b031681565b6105f56109d4366004612a5c565b611a7e565b6106166109e7366004612a5c565b611a8e565b6105f5607f5481565b610616610a03366004612b56565b611abd565b610616610a16366004612c25565b611b1f565b610616610a29366004612a5c565b611ba3565b6077546105cf906001600160a01b031681565b6105f5608c5481565b6105f5610a58366004612a5c565b611bd2565b6105f5610a6b366004612c25565b611be2565b6105f560755481565b610616610a87366004612a5c565b611bf2565b610a9f610a9a366004612c8e565b611c72565b604080519283526020830191909152016105e3565b610616610ac2366004612a5c565b611c8b565b610616610ad5366004612a5c565b611cba565b610616610ae8366004612a3a565b611ce9565b610616610afb366004612b56565b611d13565b610616610b0e366004612b56565b611d75565b608754608854610a9f565b6105f560855481565b6066546105cf906001600160a01b031681565b610616610b48366004612a5c565b611dad565b610616610b5b366004612b56565b611ddc565b6105f5610b6e366004612c25565b611eb9565b610616610b81366004612a5c565b611ed5565b610b99610b94366004612a5c565b611f04565b6040516105e39190612caa565b6084546105f5565b607c546105f5565b61064e610bc4366004612a5c565b611fcb565b6105f5610bd7366004612a5c565b611fe1565b610616610bea366004612a5c565b611ff1565b610bf7612020565b6040516105e39190612cee565b6089546105cf906001600160a01b031681565b610616610c25366004612d43565b6120ae565b608b5461064e9060ff1681565b6105f5610c45366004612d61565b612137565b6072546105f5565b610616610c60366004612a3a565b612166565b606c546105cf906001600160a01b031681565b610616610c86366004612a5c565b6121dc565b6068546105cf906001600160a01b031681565b6105f5610cac366004612a5c565b61220b565b6081546105f5565b606e546001600160a01b03163314610cec5760405162461bcd60e51b8152600401610ce390612d7c565b60405180910390fd5b6001600160a01b038116610d535760405162461bcd60e51b815260206004820152602860248201527f4442436f6e74726163743a20726f6f742063616e6e6f74206265207a65726f2060448201526730b2323932b9b99760c11b6064820152608401610ce3565b607780546001600160a01b0319166001600160a01b0392909216919091179055565b60748181548110610d8557600080fd5b6000918252602090912001546001600160a01b0316905081565b607454600090815b81811015610dfd5760748181548110610dc257610dc2612dc2565b6000918252602090912001546001600160a01b0385811691161415610deb575060019392505050565b80610df581612dee565b915050610da7565b5060009392505050565b606e546001600160a01b03163314610e315760405162461bcd60e51b8152600401610ce390612d7c565b610e3d607183836128f2565b505050565b606e546001600160a01b03163314610e6c5760405162461bcd60e51b8152600401610ce390612d7c565b608655565b606e546001600160a01b03163314610e9b5760405162461bcd60e51b8152600401610ce390612d7c565b6001600160a01b038216610ef15760405162461bcd60e51b815260206004820181905260248201527f4442436f6e74726163743a207061796d656e742063616e6e6f7420626520302e6044820152606401610ce3565b608980546001600160a01b0319166001600160a01b039390931692909217909155608a55565b606e546001600160a01b03163314610f415760405162461bcd60e51b8152600401610ce390612d7c565b610f4d60846000612976565b610e3d60848383612994565b606e546001600160a01b03163314610f835760405162461bcd60e51b8152600401610ce390612d7c565b610f8f60056001612e1f565b8114610fad5760405162461bcd60e51b8152600401610ce390612e37565b610fb9607c6000612976565b610e3d607c8383612994565b606e546001600160a01b03163314610fef5760405162461bcd60e51b8152600401610ce390612d7c565b60745460005b81811015611046576074818154811061101057611010612dc2565b6000918252602090912001546001600160a01b038481169116141561103457505050565b8061103e81612dee565b915050610ff5565b5050607480546001810182556000919091527f19a0b39aa25ac793b5f6e9a0534364cc0b3fd1ea9b651e79c7f50a59d48ef8130180546001600160a01b0319166001600160a01b0383161790555b50565b606e546001600160a01b031633146110c15760405162461bcd60e51b8152600401610ce390612d7c565b6072548360038111156110d6576110d6612e09565b11156110f45760405162461bcd60e51b8152600401610ce390612e37565b60005b818110156111a157801561118f578282611112600184612e6e565b81811061112157611121612dc2565b9050602002013583838381811061113a5761113a612dc2565b90506020020135101561118f5760405162461bcd60e51b815260206004820152601f60248201527f4442436f6e74726163743a20696e76616c6964207468726573686f6c64732e006044820152606401610ce3565b8061119981612dee565b9150506110f7565b508260038111156111b4576111b4612e09565b607254141561120057607280546001810182556000919091526111fa907fdffbd64cc7c1a7eb27984335d9416d51137a03d3fabec7141025c62663253fe1018383612994565b50505050565b607283600381111561121457611214612e09565b8154811061122457611224612dc2565b90600052602060002001600061123a9190612976565b8181607285600381111561125057611250612e09565b8154811061126057611260612dc2565b9060005260206000200191906111fa929190612994565b6084818154811061128757600080fd5b600091825260209091200154905081565b600081607e60008560058111156112b1576112b1612e09565b8152602081019190915260400160002054111561130f57607e60008460058111156112de576112de612e09565b815260200190815260200160002082815481106112fd576112fd612dc2565b90600052602060002001549050611313565b5060005b92915050565b606e546001600160a01b031633146113435760405162461bcd60e51b8152600401610ce390612d7c565b600581146113635760405162461bcd60e51b8152600401610ce390612e37565b61136f60796000612976565b610e3d60798383612994565b606e546001600160a01b031633146113a55760405162461bcd60e51b8152600401610ce390612d7c565b6113b160056001612e1f565b81146113cf5760405162461bcd60e51b8152600401610ce390612e37565b6113db607a6000612976565b60005b8181101561146157670de0b6b3a764000083838381811061140157611401612dc2565b90506020020135111561144f5760405162461bcd60e51b8152602060048201526016602482015275222121b7b73a3930b1ba1d103a37b7903630b933b29760511b6044820152606401610ce3565b8061145981612dee565b9150506113de565b50610e3d607a8383612994565b606f818154811061128757600080fd5b60008061148a8361221b565b60845490915061149c90600190612e6e565b8111156114ac5750600092915050565b608481815481106114bf576114bf612dc2565b9060005260206000200154915050919050565b606e546001600160a01b031633146114fc5760405162461bcd60e51b8152600401610ce390612d7c565b607b55565b6072546000908210611514576000611313565b6072828154811061152757611527612dc2565b60009182526020909120015492915050565b606e546001600160a01b031633146115635760405162461bcd60e51b8152600401610ce390612d7c565b607454611571600182612e6e565b8210156115f0576074611585600183612e6e565b8154811061159557611595612dc2565b600091825260209091200154607480546001600160a01b0390921691849081106115c1576115c1612dc2565b9060005260206000200160006101000a8154816001600160a01b0302191690836001600160a01b031602179055505b607480548061160157611601612e85565b600082815260209020810160001990810180546001600160a01b03191690550190555050565b61162f6123e5565b611639600061243f565b565b607a818154811061128757600080fd5b606e546001600160a01b031633146116755760405162461bcd60e51b8152600401610ce390612d7c565b61168160056001612e1f565b811461169f5760405162461bcd60e51b8152600401610ce390612e37565b6116ab60816000612976565b610e3d60818383612994565b600054610100900460ff16158080156116d75750600054600160ff909116105b806116f15750303b1580156116f1575060005460ff166001145b6117545760405162461bcd60e51b815260206004820152602e60248201527f496e697469616c697a61626c653a20636f6e747261637420697320616c72656160448201526d191e481a5b9a5d1a585b1a5e995960921b6064820152608401610ce3565b6000805460ff191660011790558015611777576000805461ff0019166101001790555b6117818383611d9f565b611789612491565b8015610e3d576000805461ff0019169055604051600181527f7f26b83ff96e1f2b6a682f133852f6798a09c465da95921460cefb38474024989060200160405180910390a1505050565b607282815481106117e357600080fd5b9060005260206000200181815481106117fb57600080fd5b90600052602060002001600091509150505481565b60006113138261221b565b606e546001600160a01b031633146118455760405162461bcd60e51b8152600401610ce390612d7c565b608e55565b606e546001600160a01b031633146118745760405162461bcd60e51b8152600401610ce390612d7c565b608b805461ffff191692151561ff0019169290921761010091151591909102179055565b606e546001600160a01b031633146118c25760405162461bcd60e51b8152600401610ce390612d7c565b60005b81811015610e3d576001608d60008585858181106118e5576118e5612dc2565b90506020020160208101906118fa9190612a3a565b6001600160a01b0390811682526020820192909252604001600020805460ff1916921515929092179091556068541663f3c95c6084848481811061194057611940612dc2565b90506020020160208101906119559190612a3a565b6040516001600160e01b031960e084901b1681526001600160a01b03909116600482015260240160206040518083038186803b15801561199457600080fd5b505afa1580156119a8573d6000803e3d6000fd5b505050506040513d601f19601f820116820180604052508101906119cc9190612e9b565b611a6c576068546001600160a01b03166323b3f2a58484848181106119f3576119f3612dc2565b9050602002016020810190611a089190612a3a565b60775460405160e084901b6001600160e01b03191681526001600160a01b03928316600482015291166024820152604401600060405180830381600087803b158015611a5357600080fd5b505af1158015611a67573d6000803e3d6000fd5b505050505b80611a7681612dee565b9150506118c5565b6078818154811061128757600080fd5b606e546001600160a01b03163314611ab85760405162461bcd60e51b8152600401610ce390612d7c565b607f55565b606e546001600160a01b03163314611ae75760405162461bcd60e51b8152600401610ce390612d7c565b60058114611b075760405162461bcd60e51b8152600401610ce390612e37565b611b1360786000612976565b610e3d60788383612994565b606e546001600160a01b03163314611b495760405162461bcd60e51b8152600401610ce390612d7c565b818111611b985760405162461bcd60e51b815260206004820152601d60248201527f4442436f6e74726163743a20696e76616c69642069642072616e67652e0000006044820152606401610ce3565b608791909155608855565b606e546001600160a01b03163314611bcd5760405162461bcd60e51b8152600401610ce390612d7c565b607555565b6081818154811061128757600080fd5b608282815481106117e357600080fd5b606e546001600160a01b03163314611c1c5760405162461bcd60e51b8152600401610ce390612d7c565b670de0b6b3a7640000811115611c6d5760405162461bcd60e51b8152602060048201526016602482015275222121b7b73a3930b1ba1d103a37b7903630b933b29760511b6044820152606401610ce3565b607655565b600080611c7f84846124c0565b915091505b9250929050565b606e546001600160a01b03163314611cb55760405162461bcd60e51b8152600401610ce390612d7c565b608555565b606e546001600160a01b03163314611ce45760405162461bcd60e51b8152600401610ce390612d7c565b607055565b611cf16123e5565b606e80546001600160a01b0319166001600160a01b0392909216919091179055565b606e546001600160a01b03163314611d3d5760405162461bcd60e51b8152600401610ce390612d7c565b60038114611d5d5760405162461bcd60e51b8152600401610ce390612e37565b611d69606f6000612976565b610e3d606f8383612994565b606e546001600160a01b03163314611d9f5760405162461bcd60e51b8152600401610ce390612d7c565b611da982826125d7565b5050565b606e546001600160a01b03163314611dd75760405162461bcd60e51b8152600401610ce390612d7c565b607355565b606e546001600160a01b03163314611e065760405162461bcd60e51b8152600401610ce390612d7c565b611e12608260006129ce565b60005b81811015610e3d57828282818110611e2f57611e2f612dc2565b9050602002810190611e419190612eb8565b9050600314611e625760405162461bcd60e51b8152600401610ce390612e37565b6082838383818110611e7657611e76612dc2565b9050602002810190611e889190612eb8565b825460018101845560009384526020909320611ea693019190612994565b5080611eb181612dee565b915050611e15565b607e60205281600052604060002081815481106117fb57600080fd5b606e546001600160a01b03163314611eff5760405162461bcd60e51b8152600401610ce390612d7c565b608c55565b6082546060908210611f585760405162461bcd60e51b815260206004820181905260248201527f4442436f6e74726163743a20696e646578206f7574206f6620626f756e64732e6044820152606401610ce3565b60828281548110611f6b57611f6b612dc2565b90600052602060002001805480602002602001604051908101604052809291908181526020018280548015611fbf57602002820191906000526020600020905b815481526020019060010190808311611fab575b50505050509050919050565b6000607f54611fd98361221b565b101592915050565b6079818154811061128757600080fd5b606e546001600160a01b0316331461201b5760405162461bcd60e51b8152600401610ce390612d7c565b608055565b6071805461202d90612f02565b80601f016020809104026020016040519081016040528092919081815260200182805461205990612f02565b80156120a65780601f1061207b576101008083540402835291602001916120a6565b820191906000526020600020905b81548152906001019060200180831161208957829003601f168201915b505050505081565b606e546001600160a01b031633146120d85760405162461bcd60e51b8152600401610ce390612d7c565b60008360058111156120ec576120ec612e09565b6000818152607e602052604081209192506121079190612976565b607d5482111561211757607d8290555b6000818152607e60205260409020612130908484612994565b5050505050565b6000607e600083600581111561214f5761214f612e09565b815260208101919091526040016000205492915050565b61216e6123e5565b6001600160a01b0381166121d35760405162461bcd60e51b815260206004820152602660248201527f4f776e61626c653a206e6577206f776e657220697320746865207a65726f206160448201526564647265737360d01b6064820152608401610ce3565b6110948161243f565b606e546001600160a01b031633146122065760405162461bcd60e51b8152600401610ce390612d7c565b608355565b607c818154811061128757600080fd5b606954604051634f558e7960e01b8152600481018390526000916001600160a01b031690634f558e799060240160206040518083038186803b15801561226057600080fd5b505afa158015612274573d6000803e3d6000fd5b505050506040513d601f19601f820116820180604052508101906122989190612e9b565b6122e45760405162461bcd60e51b815260206004820152601d60248201527f4442436f6e74726163743a20696e76616c696420746f6b656e2049442e0000006044820152606401610ce3565b60695460405163373bf3af60e21b8152600481018490526000916001600160a01b03169063dcefcebc9060240160006040518083038186803b15801561232957600080fd5b505afa15801561233d573d6000803e3d6000fd5b505050506040513d6000823e601f3d908101601f191682016040526123659190810190612f53565b905060005b61237660036001612e1f565b8110156123de5760006123b382600381111561239457612394612e09565b8484815181106123a6576123a6612dc2565b60200260200101516124c0565b5090508115806123c257508381105b156123cb578093505b50806123d681612dee565b91505061236a565b5050919050565b6033546001600160a01b031633146116395760405162461bcd60e51b815260206004820181905260248201527f4f776e61626c653a2063616c6c6572206973206e6f7420746865206f776e65726044820152606401610ce3565b603380546001600160a01b038381166001600160a01b0319831681179093556040519116919082907f8be0079c531659141344cd1fd0a4f28419497f9722a3daafe3b4186f6b6457e090600090a35050565b600054610100900460ff166124b85760405162461bcd60e51b8152600401610ce390613011565b6116396128c2565b6000818160728560038111156124d8576124d8612e09565b815481106124e8576124e8612dc2565b600091825260208220015491505b818110156125ce57607286600381111561251257612512612e09565b8154811061252257612522612dc2565b90600052602060002001818154811061253d5761253d612dc2565b906000526020600020015485106125b757612559816001612e1f565b9350607286600381111561256f5761256f612e09565b8154811061257f5761257f612dc2565b90600052602060002001818154811061259a5761259a612dc2565b9060005260206000200154856125b09190612e6e565b92506125bc565b6125ce565b806125c681612dee565b9150506124f6565b50509250929050565b600981146126365760405162461bcd60e51b815260206004820152602660248201527f4442436f6e74726163743a20616464726573736573206c656e677468206d697360448201526536b0ba31b41760d11b6064820152608401610ce3565b8181600081811061264957612649612dc2565b905060200201602081019061265e9190612a3a565b606580546001600160a01b0319166001600160a01b03929092169190911790558181600181811061269157612691612dc2565b90506020020160208101906126a69190612a3a565b606680546001600160a01b0319166001600160a01b0392909216919091179055818160028181106126d9576126d9612dc2565b90506020020160208101906126ee9190612a3a565b606780546001600160a01b0319166001600160a01b03929092169190911790558181600381811061272157612721612dc2565b90506020020160208101906127369190612a3a565b606980546001600160a01b0319166001600160a01b03929092169190911790558181600481811061276957612769612dc2565b905060200201602081019061277e9190612a3a565b606a80546001600160a01b0319166001600160a01b0392909216919091179055818160058181106127b1576127b1612dc2565b90506020020160208101906127c69190612a3a565b606b80546001600160a01b0319166001600160a01b0392909216919091179055818160068181106127f9576127f9612dc2565b905060200201602081019061280e9190612a3a565b606c80546001600160a01b0319166001600160a01b03929092169190911790558181600781811061284157612841612dc2565b90506020020160208101906128569190612a3a565b606880546001600160a01b0319166001600160a01b03929092169190911790558181600881811061288957612889612dc2565b905060200201602081019061289e9190612a3a565b606d80546001600160a01b0319166001600160a01b03929092169190911790555050565b600054610100900460ff166128e95760405162461bcd60e51b8152600401610ce390613011565b6116393361243f565b8280546128fe90612f02565b90600052602060002090601f0160209004810192826129205760008555612966565b82601f106129395782800160ff19823516178555612966565b82800160010185558215612966579182015b8281111561296657823582559160200191906001019061294b565b506129729291506129ec565b5090565b508054600082559060005260206000209081019061109491906129ec565b828054828255906000526020600020908101928215612966579160200282018281111561296657823582559160200191906001019061294b565b50805460008255906000526020600020908101906110949190612a01565b5b8082111561297257600081556001016129ed565b80821115612972576000612a158282612976565b50600101612a01565b80356001600160a01b0381168114612a3557600080fd5b919050565b600060208284031215612a4c57600080fd5b612a5582612a1e565b9392505050565b600060208284031215612a6e57600080fd5b5035919050565b60008060208385031215612a8857600080fd5b823567ffffffffffffffff80821115612aa057600080fd5b818501915085601f830112612ab457600080fd5b813581811115612ac357600080fd5b866020828501011115612ad557600080fd5b60209290920196919550909350505050565b60008060408385031215612afa57600080fd5b612b0383612a1e565b946020939093013593505050565b60008083601f840112612b2357600080fd5b50813567ffffffffffffffff811115612b3b57600080fd5b6020830191508360208260051b8501011115611c8457600080fd5b60008060208385031215612b6957600080fd5b823567ffffffffffffffff811115612b8057600080fd5b612b8c85828601612b11565b90969095509350505050565b803560048110612a3557600080fd5b600080600060408486031215612bbc57600080fd5b612bc584612b98565b9250602084013567ffffffffffffffff811115612be157600080fd5b612bed86828701612b11565b9497909650939450505050565b803560068110612a3557600080fd5b60008060408385031215612c1c57600080fd5b612b0383612bfa565b60008060408385031215612c3857600080fd5b50508035926020909101359150565b801515811461109457600080fd5b60008060408385031215612c6857600080fd5b8235612c7381612c47565b91506020830135612c8381612c47565b809150509250929050565b60008060408385031215612ca157600080fd5b612b0383612b98565b6020808252825182820181905260009190848201906040850190845b81811015612ce257835183529284019291840191600101612cc6565b50909695505050505050565b600060208083528351808285015260005b81811015612d1b57858101830151858201604001528201612cff565b81811115612d2d576000604083870101525b50601f01601f1916929092016040019392505050565b600080600060408486031215612d5857600080fd5b612bc584612bfa565b600060208284031215612d7357600080fd5b612a5582612bfa565b60208082526026908201527f4442436f6e74726163743a2063616c6c6572206973206e6f7420746865206f7060408201526532b930ba37b960d11b606082015260800190565b634e487b7160e01b600052603260045260246000fd5b634e487b7160e01b600052601160045260246000fd5b6000600019821415612e0257612e02612dd8565b5060010190565b634e487b7160e01b600052602160045260246000fd5b60008219821115612e3257612e32612dd8565b500190565b6020808252601c908201527f4442436f6e74726163743a206c656e677468206d69736d617463682e00000000604082015260600190565b600082821015612e8057612e80612dd8565b500390565b634e487b7160e01b600052603160045260246000fd5b600060208284031215612ead57600080fd5b8151612a5581612c47565b6000808335601e19843603018112612ecf57600080fd5b83018035915067ffffffffffffffff821115612eea57600080fd5b6020019150600581901b3603821315611c8457600080fd5b600181811c90821680612f1657607f821691505b60208210811415612f3757634e487b7160e01b600052602260045260246000fd5b50919050565b634e487b7160e01b600052604160045260246000fd5b60006020808385031215612f6657600080fd5b825167ffffffffffffffff80821115612f7e57600080fd5b818501915085601f830112612f9257600080fd5b815181811115612fa457612fa4612f3d565b8060051b604051601f19603f83011681018181108582111715612fc957612fc9612f3d565b604052918252848201925083810185019188831115612fe757600080fd5b938501935b8285101561300557845184529385019392850192612fec565b98975050505050505050565b6020808252602b908201527f496e697469616c697a61626c653a20636f6e7472616374206973206e6f74206960408201526a6e697469616c697a696e6760a81b60608201526080019056fea26469706673582212206ec86ccbf2dd06418381fc0c11e2c91d53469d27d05dbdd5b94c590bc7c2cb1c64736f6c63430008090033",
  "devdoc": {
    "kind": "dev",
    "methods": {
      "owner()": {
        "details": "Returns the address of the current owner."
      },
      "renounceOwnership()": {
        "details": "Leaves the contract without owner. It will not be possible to call `onlyOwner` functions anymore. Can only be called by the current owner. NOTE: Renouncing ownership will leave the contract without an owner, thereby removing any functionality that is only available to the owner."
      },
      "transferOwnership(address)": {
        "details": "Transfers ownership of the contract to a new account (`newOwner`). Can only be called by the current owner."
      }
    },
    "version": 1
  },
  "userdoc": {
    "kind": "user",
    "methods": {
      "setAttributeLevelThreshold(uint8,uint256[])": {
        "notice": "CA: [100, 500, 1000 ... ]"
      }
    },
    "version": 1
  },
  "storageLayout": {
    "storage": [
      {
        "astId": 138,
        "contract": "contracts/DBContract.sol:DBContract",
        "label": "_initialized",
        "offset": 0,
        "slot": "0",
        "type": "t_uint8"
      },
      {
        "astId": 141,
        "contract": "contracts/DBContract.sol:DBContract",
        "label": "_initializing",
        "offset": 1,
        "slot": "0",
        "type": "t_bool"
      },
      {
        "astId": 3289,
        "contract": "contracts/DBContract.sol:DBContract",
        "label": "__gap",
        "offset": 0,
        "slot": "1",
        "type": "t_array(t_uint256)50_storage"
      },
      {
        "astId": 10,
        "contract": "contracts/DBContract.sol:DBContract",
        "label": "_owner",
        "offset": 0,
        "slot": "51",
        "type": "t_address"
      },
      {
        "astId": 130,
        "contract": "contracts/DBContract.sol:DBContract",
        "label": "__gap",
        "offset": 0,
        "slot": "52",
        "type": "t_array(t_uint256)49_storage"
      },
      {
        "astId": 4195,
        "contract": "contracts/DBContract.sol:DBContract",
        "label": "LYNK_TOKEN",
        "offset": 0,
        "slot": "101",
        "type": "t_address"
      },
      {
        "astId": 4197,
        "contract": "contracts/DBContract.sol:DBContract",
        "label": "AP_TOKEN",
        "offset": 0,
        "slot": "102",
        "type": "t_address"
      },
      {
        "astId": 4199,
        "contract": "contracts/DBContract.sol:DBContract",
        "label": "STAKING",
        "offset": 0,
        "slot": "103",
        "type": "t_address"
      },
      {
        "astId": 4201,
        "contract": "contracts/DBContract.sol:DBContract",
        "label": "USER_INFO",
        "offset": 0,
        "slot": "104",
        "type": "t_address"
      },
      {
        "astId": 4203,
        "contract": "contracts/DBContract.sol:DBContract",
        "label": "LYNKNFT",
        "offset": 0,
        "slot": "105",
        "type": "t_address"
      },
      {
        "astId": 4205,
        "contract": "contracts/DBContract.sol:DBContract",
        "label": "STAKING_LYNKNFT",
        "offset": 0,
        "slot": "106",
        "type": "t_address"
      },
      {
        "astId": 4207,
        "contract": "contracts/DBContract.sol:DBContract",
        "label": "LISTED_LYNKNFT",
        "offset": 0,
        "slot": "107",
        "type": "t_address"
      },
      {
        "astId": 4209,
        "contract": "contracts/DBContract.sol:DBContract",
        "label": "MARKET",
        "offset": 0,
        "slot": "108",
        "type": "t_address"
      },
      {
        "astId": 4211,
        "contract": "contracts/DBContract.sol:DBContract",
        "label": "TEAM_ADDR",
        "offset": 0,
        "slot": "109",
        "type": "t_address"
      },
      {
        "astId": 4213,
        "contract": "contracts/DBContract.sol:DBContract",
        "label": "operator",
        "offset": 0,
        "slot": "110",
        "type": "t_address"
      },
      {
        "astId": 4216,
        "contract": "contracts/DBContract.sol:DBContract",
        "label": "mintPrices",
        "offset": 0,
        "slot": "111",
        "type": "t_array(t_uint256)dyn_storage"
      },
      {
        "astId": 4218,
        "contract": "contracts/DBContract.sol:DBContract",
        "label": "maxMintPerDayPerAddress",
        "offset": 0,
        "slot": "112",
        "type": "t_uint256"
      },
      {
        "astId": 4220,
        "contract": "contracts/DBContract.sol:DBContract",
        "label": "baseTokenURI",
        "offset": 0,
        "slot": "113",
        "type": "t_string_storage"
      },
      {
        "astId": 4224,
        "contract": "contracts/DBContract.sol:DBContract",
        "label": "attributeLevelThreshold",
        "offset": 0,
        "slot": "114",
        "type": "t_array(t_array(t_uint256)dyn_storage)dyn_storage"
      },
      {
        "astId": 4226,
        "contract": "contracts/DBContract.sol:DBContract",
        "label": "maxVAAddPerDayPerToken",
        "offset": 0,
        "slot": "115",
        "type": "t_uint256"
      },
      {
        "astId": 4229,
        "contract": "contracts/DBContract.sol:DBContract",
        "label": "acceptTokens",
        "offset": 0,
        "slot": "116",
        "type": "t_array(t_address)dyn_storage"
      },
      {
        "astId": 4231,
        "contract": "contracts/DBContract.sol:DBContract",
        "label": "sellingLevelLimit",
        "offset": 0,
        "slot": "117",
        "type": "t_uint256"
      },
      {
        "astId": 4233,
        "contract": "contracts/DBContract.sol:DBContract",
        "label": "tradingFee",
        "offset": 0,
        "slot": "118",
        "type": "t_uint256"
      },
      {
        "astId": 4235,
        "contract": "contracts/DBContract.sol:DBContract",
        "label": "rootAddress",
        "offset": 0,
        "slot": "119",
        "type": "t_address"
      },
      {
        "astId": 4238,
        "contract": "contracts/DBContract.sol:DBContract",
        "label": "directRequirements",
        "offset": 0,
        "slot": "120",
        "type": "t_array(t_uint256)dyn_storage"
      },
      {
        "astId": 4241,
        "contract": "contracts/DBContract.sol:DBContract",
        "label": "performanceRequirements",
        "offset": 0,
        "slot": "121",
        "type": "t_array(t_uint256)dyn_storage"
      },
      {
        "astId": 4244,
        "contract": "contracts/DBContract.sol:DBContract",
        "label": "socialRewardRates",
        "offset": 0,
        "slot": "122",
        "type": "t_array(t_uint256)dyn_storage"
      },
      {
        "astId": 4246,
        "contract": "contracts/DBContract.sol:DBContract",
        "label": "contributionRewardThreshold",
        "offset": 0,
        "slot": "123",
        "type": "t_uint256"
      },
      {
        "astId": 4249,
        "contract": "contracts/DBContract.sol:DBContract",
        "label": "contributionRewardAmounts",
        "offset": 0,
        "slot": "124",
        "type": "t_array(t_uint256)dyn_storage"
      },
      {
        "astId": 4251,
        "contract": "contracts/DBContract.sol:DBContract",
        "label": "maxInvitationLevel",
        "offset": 0,
        "slot": "125",
        "type": "t_uint256"
      },
      {
        "astId": 4256,
        "contract": "contracts/DBContract.sol:DBContract",
        "label": "communityRewardRates",
        "offset": 0,
        "slot": "126",
        "type": "t_mapping(t_uint256,t_array(t_uint256)dyn_storage)"
      },
      {
        "astId": 4258,
        "contract": "contracts/DBContract.sol:DBContract",
        "label": "achievementRewardLevelThreshold",
        "offset": 0,
        "slot": "127",
        "type": "t_uint256"
      },
      {
        "astId": 4260,
        "contract": "contracts/DBContract.sol:DBContract",
        "label": "achievementRewardDurationThreshold",
        "offset": 0,
        "slot": "128",
        "type": "t_uint256"
      },
      {
        "astId": 4263,
        "contract": "contracts/DBContract.sol:DBContract",
        "label": "achievementRewardAmounts",
        "offset": 0,
        "slot": "129",
        "type": "t_array(t_uint256)dyn_storage"
      },
      {
        "astId": 4267,
        "contract": "contracts/DBContract.sol:DBContract",
        "label": "sellingPackages",
        "offset": 0,
        "slot": "130",
        "type": "t_array(t_array(t_uint256)dyn_storage)dyn_storage"
      },
      {
        "astId": 4269,
        "contract": "contracts/DBContract.sol:DBContract",
        "label": "duration",
        "offset": 0,
        "slot": "131",
        "type": "t_uint256"
      },
      {
        "astId": 4272,
        "contract": "contracts/DBContract.sol:DBContract",
        "label": "maxVAAddPerDayPerTokens",
        "offset": 0,
        "slot": "132",
        "type": "t_array(t_uint256)dyn_storage"
      },
      {
        "astId": 4274,
        "contract": "contracts/DBContract.sol:DBContract",
        "label": "performanceThreshold",
        "offset": 0,
        "slot": "133",
        "type": "t_uint256"
      },
      {
        "astId": 4276,
        "contract": "contracts/DBContract.sol:DBContract",
        "label": "earlyBirdInitCA",
        "offset": 0,
        "slot": "134",
        "type": "t_uint256"
      },
      {
        "astId": 4278,
        "contract": "contracts/DBContract.sol:DBContract",
        "label": "earlyBirdMintStartId",
        "offset": 0,
        "slot": "135",
        "type": "t_uint256"
      },
      {
        "astId": 4280,
        "contract": "contracts/DBContract.sol:DBContract",
        "label": "earlyBirdMintEndId",
        "offset": 0,
        "slot": "136",
        "type": "t_uint256"
      },
      {
        "astId": 4282,
        "contract": "contracts/DBContract.sol:DBContract",
        "label": "earlyBirdMintPayment",
        "offset": 0,
        "slot": "137",
        "type": "t_address"
      },
      {
        "astId": 4284,
        "contract": "contracts/DBContract.sol:DBContract",
        "label": "earlyBirdMintPriceInPayment",
        "offset": 0,
        "slot": "138",
        "type": "t_uint256"
      },
      {
        "astId": 4286,
        "contract": "contracts/DBContract.sol:DBContract",
        "label": "earlyBirdMintEnable",
        "offset": 0,
        "slot": "139",
        "type": "t_bool"
      },
      {
        "astId": 4288,
        "contract": "contracts/DBContract.sol:DBContract",
        "label": "commonMintEnable",
        "offset": 1,
        "slot": "139",
        "type": "t_bool"
      },
      {
        "astId": 4290,
        "contract": "contracts/DBContract.sol:DBContract",
        "label": "wlNum",
        "offset": 0,
        "slot": "140",
        "type": "t_uint256"
      },
      {
        "astId": 4294,
        "contract": "contracts/DBContract.sol:DBContract",
        "label": "earlyBirdMintWlOf",
        "offset": 0,
        "slot": "141",
        "type": "t_mapping(t_address,t_bool)"
      },
      {
        "astId": 4296,
        "contract": "contracts/DBContract.sol:DBContract",
        "label": "lynkPriceInALYX",
        "offset": 0,
        "slot": "142",
        "type": "t_uint256"
      }
    ],
    "types": {
      "t_address": {
        "encoding": "inplace",
        "label": "address",
        "numberOfBytes": "20"
      },
      "t_array(t_address)dyn_storage": {
        "base": "t_address",
        "encoding": "dynamic_array",
        "label": "address[]",
        "numberOfBytes": "32"
      },
      "t_array(t_array(t_uint256)dyn_storage)dyn_storage": {
        "base": "t_array(t_uint256)dyn_storage",
        "encoding": "dynamic_array",
        "label": "uint256[][]",
        "numberOfBytes": "32"
      },
      "t_array(t_uint256)49_storage": {
        "base": "t_uint256",
        "encoding": "inplace",
        "label": "uint256[49]",
        "numberOfBytes": "1568"
      },
      "t_array(t_uint256)50_storage": {
        "base": "t_uint256",
        "encoding": "inplace",
        "label": "uint256[50]",
        "numberOfBytes": "1600"
      },
      "t_array(t_uint256)dyn_storage": {
        "base": "t_uint256",
        "encoding": "dynamic_array",
        "label": "uint256[]",
        "numberOfBytes": "32"
      },
      "t_bool": {
        "encoding": "inplace",
        "label": "bool",
        "numberOfBytes": "1"
      },
      "t_mapping(t_address,t_bool)": {
        "encoding": "mapping",
        "key": "t_address",
        "label": "mapping(address => bool)",
        "numberOfBytes": "32",
        "value": "t_bool"
      },
      "t_mapping(t_uint256,t_array(t_uint256)dyn_storage)": {
        "encoding": "mapping",
        "key": "t_uint256",
        "label": "mapping(uint256 => uint256[])",
        "numberOfBytes": "32",
        "value": "t_array(t_uint256)dyn_storage"
      },
      "t_string_storage": {
        "encoding": "bytes",
        "label": "string",
        "numberOfBytes": "32"
      },
      "t_uint256": {
        "encoding": "inplace",
        "label": "uint256",
        "numberOfBytes": "32"
      },
      "t_uint8": {
        "encoding": "inplace",
        "label": "uint8",
        "numberOfBytes": "1"
      }
    }
  }
}