{
  "address": "0xD57F1bd04029Cc0ea0aEce087D04d2b97aC4F586",
  "abi": [
    {
      "inputs": [
        {
          "internalType": "address",
          "name": "_usdtToken",
          "type": "address"
        }
      ],
      "stateMutability": "nonpayable",
      "type": "constructor"
    },
    {
      "anonymous": false,
      "inputs": [
        {
          "indexed": false,
          "internalType": "uint8",
          "name": "version",
          "type": "uint8"
        }
      ],
      "name": "Initialized",
      "type": "event"
    },
    {
      "anonymous": false,
      "inputs": [
        {
          "indexed": true,
          "internalType": "address",
          "name": "previousOwner",
          "type": "address"
        },
        {
          "indexed": true,
          "internalType": "address",
          "name": "newOwner",
          "type": "address"
        }
      ],
      "name": "OwnershipTransferred",
      "type": "event"
    },
    {
      "inputs": [],
      "name": "AP_TOKEN",
      "outputs": [
        {
          "internalType": "address",
          "name": "",
          "type": "address"
        }
      ],
      "stateMutability": "view",
      "type": "function"
    },
    {
      "inputs": [],
      "name": "LISTED_LYNKNFT",
      "outputs": [
        {
          "internalType": "address",
          "name": "",
          "type": "address"
        }
      ],
      "stateMutability": "view",
      "type": "function"
    },
    {
      "inputs": [],
      "name": "LYNKNFT",
      "outputs": [
        {
          "internalType": "address",
          "name": "",
          "type": "address"
        }
      ],
      "stateMutability": "view",
      "type": "function"
    },
    {
      "inputs": [],
      "name": "LYNK_TOKEN",
      "outputs": [
        {
          "internalType": "address",
          "name": "",
          "type": "address"
        }
      ],
      "stateMutability": "view",
      "type": "function"
    },
    {
      "inputs": [],
      "name": "MARKET",
      "outputs": [
        {
          "internalType": "address",
          "name": "",
          "type": "address"
        }
      ],
      "stateMutability": "view",
      "type": "function"
    },
    {
      "inputs": [],
      "name": "STAKING",
      "outputs": [
        {
          "internalType": "address",
          "name": "",
          "type": "address"
        }
      ],
      "stateMutability": "view",
      "type": "function"
    },
    {
      "inputs": [],
      "name": "STAKING_LYNKNFT",
      "outputs": [
        {
          "internalType": "address",
          "name": "",
          "type": "address"
        }
      ],
      "stateMutability": "view",
      "type": "function"
    },
    {
      "inputs": [],
      "name": "TEAM_ADDR",
      "outputs": [
        {
          "internalType": "address",
          "name": "",
          "type": "address"
        }
      ],
      "stateMutability": "view",
      "type": "function"
    },
    {
      "inputs": [],
      "name": "USDT_TOKEN",
      "outputs": [
        {
          "internalType": "address",
          "name": "",
          "type": "address"
        }
      ],
      "stateMutability": "view",
      "type": "function"
    },
    {
      "inputs": [],
      "name": "USER_INFO",
      "outputs": [
        {
          "internalType": "address",
          "name": "",
          "type": "address"
        }
      ],
      "stateMutability": "view",
      "type": "function"
    },
    {
      "inputs": [
        {
          "internalType": "address[]",
          "name": "_addresses",
          "type": "address[]"
        }
      ],
      "name": "__DBContract_init",
      "outputs": [],
      "stateMutability": "nonpayable",
      "type": "function"
    },
    {
      "inputs": [],
      "name": "acceptTokenLength",
      "outputs": [
        {
          "internalType": "uint256",
          "name": "",
          "type": "uint256"
        }
      ],
      "stateMutability": "view",
      "type": "function"
    },
    {
      "inputs": [
        {
          "internalType": "uint256",
          "name": "",
          "type": "uint256"
        }
      ],
      "name": "acceptTokens",
      "outputs": [
        {
          "internalType": "address",
          "name": "",
          "type": "address"
        }
      ],
      "stateMutability": "view",
      "type": "function"
    },
    {
      "inputs": [
        {
          "internalType": "uint256",
          "name": "",
          "type": "uint256"
        }
      ],
      "name": "achievementRewardAmounts",
      "outputs": [
        {
          "internalType": "uint256",
          "name": "",
          "type": "uint256"
        }
      ],
      "stateMutability": "view",
      "type": "function"
    },
    {
      "inputs": [],
      "name": "achievementRewardAmountsNum",
      "outputs": [
        {
          "internalType": "uint256",
          "name": "",
          "type": "uint256"
        }
      ],
      "stateMutability": "view",
      "type": "function"
    },
    {
      "inputs": [],
      "name": "achievementRewardDurationThreshold",
      "outputs": [
        {
          "internalType": "uint256",
          "name": "",
          "type": "uint256"
        }
      ],
      "stateMutability": "view",
      "type": "function"
    },
    {
      "inputs": [],
      "name": "achievementRewardLevelThreshold",
      "outputs": [
        {
          "internalType": "uint256",
          "name": "",
          "type": "uint256"
        }
      ],
      "stateMutability": "view",
      "type": "function"
    },
    {
      "inputs": [
        {
          "internalType": "uint256",
          "name": "",
          "type": "uint256"
        },
        {
          "internalType": "uint256",
          "name": "",
          "type": "uint256"
        }
      ],
      "name": "attributeLevelThreshold",
      "outputs": [
        {
          "internalType": "uint256",
          "name": "",
          "type": "uint256"
        }
      ],
      "stateMutability": "view",
      "type": "function"
    },
    {
      "inputs": [],
      "name": "attributeLevelThresholdNum",
      "outputs": [
        {
          "internalType": "uint256",
          "name": "",
          "type": "uint256"
        }
      ],
      "stateMutability": "view",
      "type": "function"
    },
    {
      "inputs": [
        {
          "internalType": "uint256",
          "name": "index",
          "type": "uint256"
        }
      ],
      "name": "attributeLevelThresholdNumByIndex",
      "outputs": [
        {
          "internalType": "uint256",
          "name": "",
          "type": "uint256"
        }
      ],
      "stateMutability": "view",
      "type": "function"
    },
    {
      "inputs": [],
      "name": "baseTokenURI",
      "outputs": [
        {
          "internalType": "string",
          "name": "",
          "type": "string"
        }
      ],
      "stateMutability": "view",
      "type": "function"
    },
    {
      "inputs": [
        {
          "internalType": "enum ILYNKNFT.Attribute",
          "name": "_attr",
          "type": "uint8"
        },
        {
          "internalType": "uint256",
          "name": "_point",
          "type": "uint256"
        }
      ],
      "name": "calcLevel",
      "outputs": [
        {
          "internalType": "uint256",
          "name": "level",
          "type": "uint256"
        },
        {
          "internalType": "uint256",
          "name": "overflow",
          "type": "uint256"
        }
      ],
      "stateMutability": "view",
      "type": "function"
    },
    {
      "inputs": [
        {
          "internalType": "uint256",
          "name": "_tokenId",
          "type": "uint256"
        }
      ],
      "name": "calcTokenLevel",
      "outputs": [
        {
          "internalType": "uint256",
          "name": "level",
          "type": "uint256"
        }
      ],
      "stateMutability": "view",
      "type": "function"
    },
    {
      "inputs": [],
      "name": "commonMintEnable",
      "outputs": [
        {
          "internalType": "bool",
          "name": "",
          "type": "bool"
        }
      ],
      "stateMutability": "view",
      "type": "function"
    },
    {
      "inputs": [
        {
          "internalType": "enum IUser.Level",
          "name": "_level",
          "type": "uint8"
        },
        {
          "internalType": "uint256",
          "name": "_invitationLevel",
          "type": "uint256"
        }
      ],
      "name": "communityRewardRate",
      "outputs": [
        {
          "internalType": "uint256",
          "name": "",
          "type": "uint256"
        }
      ],
      "stateMutability": "view",
      "type": "function"
    },
    {
      "inputs": [
        {
          "internalType": "uint256",
          "name": "",
          "type": "uint256"
        },
        {
          "internalType": "uint256",
          "name": "",
          "type": "uint256"
        }
      ],
      "name": "communityRewardRates",
      "outputs": [
        {
          "internalType": "uint256",
          "name": "",
          "type": "uint256"
        }
      ],
      "stateMutability": "view",
      "type": "function"
    },
    {
      "inputs": [
        {
          "internalType": "enum IUser.Level",
          "name": "_level",
          "type": "uint8"
        }
      ],
      "name": "communityRewardRatesNumByLevel",
      "outputs": [
        {
          "internalType": "uint256",
          "name": "",
          "type": "uint256"
        }
      ],
      "stateMutability": "view",
      "type": "function"
    },
    {
      "inputs": [
        {
          "internalType": "uint256",
          "name": "",
          "type": "uint256"
        }
      ],
      "name": "contributionRewardAmounts",
      "outputs": [
        {
          "internalType": "uint256",
          "name": "",
          "type": "uint256"
        }
      ],
      "stateMutability": "view",
      "type": "function"
    },
    {
      "inputs": [],
      "name": "contributionRewardAmountsNum",
      "outputs": [
        {
          "internalType": "uint256",
          "name": "",
          "type": "uint256"
        }
      ],
      "stateMutability": "view",
      "type": "function"
    },
    {
      "inputs": [],
      "name": "contributionRewardThreshold",
      "outputs": [
        {
          "internalType": "uint256",
          "name": "",
          "type": "uint256"
        }
      ],
      "stateMutability": "view",
      "type": "function"
    },
    {
      "inputs": [
        {
          "internalType": "uint256",
          "name": "",
          "type": "uint256"
        }
      ],
      "name": "directRequirements",
      "outputs": [
        {
          "internalType": "uint256",
          "name": "",
          "type": "uint256"
        }
      ],
      "stateMutability": "view",
      "type": "function"
    },
    {
      "inputs": [],
      "name": "directRequirementsNum",
      "outputs": [
        {
          "internalType": "uint256",
          "name": "",
          "type": "uint256"
        }
      ],
      "stateMutability": "view",
      "type": "function"
    },
    {
      "inputs": [],
      "name": "duration",
      "outputs": [
        {
          "internalType": "uint256",
          "name": "",
          "type": "uint256"
        }
      ],
      "stateMutability": "view",
      "type": "function"
    },
    {
      "inputs": [],
      "name": "earlyBirdInitCA",
      "outputs": [
        {
          "internalType": "uint256",
          "name": "",
          "type": "uint256"
        }
      ],
      "stateMutability": "view",
      "type": "function"
    },
    {
      "inputs": [],
      "name": "earlyBirdMintEnable",
      "outputs": [
        {
          "internalType": "bool",
          "name": "",
          "type": "bool"
        }
      ],
      "stateMutability": "view",
      "type": "function"
    },
    {
      "inputs": [],
      "name": "earlyBirdMintEndId",
      "outputs": [
        {
          "internalType": "uint256",
          "name": "",
          "type": "uint256"
        }
      ],
      "stateMutability": "view",
      "type": "function"
    },
    {
      "inputs": [],
      "name": "earlyBirdMintIdRange",
      "outputs": [
        {
          "internalType": "uint256",
          "name": "",
          "type": "uint256"
        },
        {
          "internalType": "uint256",
          "name": "",
          "type": "uint256"
        }
      ],
      "stateMutability": "view",
      "type": "function"
    },
    {
      "inputs": [],
      "name": "earlyBirdMintPayment",
      "outputs": [
        {
          "internalType": "address",
          "name": "",
          "type": "address"
        }
      ],
      "stateMutability": "view",
      "type": "function"
    },
    {
      "inputs": [],
      "name": "earlyBirdMintPrice",
      "outputs": [
        {
          "internalType": "address",
          "name": "",
          "type": "address"
        },
        {
          "internalType": "uint256",
          "name": "",
          "type": "uint256"
        }
      ],
      "stateMutability": "view",
      "type": "function"
    },
    {
      "inputs": [],
      "name": "earlyBirdMintPriceInPayment",
      "outputs": [
        {
          "internalType": "uint256",
          "name": "",
          "type": "uint256"
        }
      ],
      "stateMutability": "view",
      "type": "function"
    },
    {
      "inputs": [],
      "name": "earlyBirdMintStartId",
      "outputs": [
        {
          "internalType": "uint256",
          "name": "",
          "type": "uint256"
        }
      ],
      "stateMutability": "view",
      "type": "function"
    },
    {
      "inputs": [
        {
          "internalType": "address",
          "name": "",
          "type": "address"
        }
      ],
      "name": "earlyBirdMintWlOf",
      "outputs": [
        {
          "internalType": "bool",
          "name": "",
          "type": "bool"
        }
      ],
      "stateMutability": "view",
      "type": "function"
    },
    {
      "inputs": [
        {
          "internalType": "uint256",
          "name": "_nftId",
          "type": "uint256"
        }
      ],
      "name": "hasAchievementReward",
      "outputs": [
        {
          "internalType": "bool",
          "name": "",
          "type": "bool"
        }
      ],
      "stateMutability": "view",
      "type": "function"
    },
    {
      "inputs": [
        {
          "internalType": "address",
          "name": "_token",
          "type": "address"
        }
      ],
      "name": "isAcceptToken",
      "outputs": [
        {
          "internalType": "bool",
          "name": "",
          "type": "bool"
        }
      ],
      "stateMutability": "view",
      "type": "function"
    },
    {
      "inputs": [],
      "name": "maxInvitationLevel",
      "outputs": [
        {
          "internalType": "uint256",
          "name": "",
          "type": "uint256"
        }
      ],
      "stateMutability": "view",
      "type": "function"
    },
    {
      "inputs": [],
      "name": "maxMintPerDayPerAddress",
      "outputs": [
        {
          "internalType": "uint256",
          "name": "",
          "type": "uint256"
        }
      ],
      "stateMutability": "view",
      "type": "function"
    },
    {
      "inputs": [
        {
          "internalType": "uint256",
          "name": "_tokenId",
          "type": "uint256"
        }
      ],
      "name": "maxVAAddPerDayByTokenId",
      "outputs": [
        {
          "internalType": "uint256",
          "name": "",
          "type": "uint256"
        }
      ],
      "stateMutability": "view",
      "type": "function"
    },
    {
      "inputs": [],
      "name": "maxVAAddPerDayPerToken",
      "outputs": [
        {
          "internalType": "uint256",
          "name": "",
          "type": "uint256"
        }
      ],
      "stateMutability": "view",
      "type": "function"
    },
    {
      "inputs": [
        {
          "internalType": "uint256",
          "name": "",
          "type": "uint256"
        }
      ],
      "name": "maxVAAddPerDayPerTokens",
      "outputs": [
        {
          "internalType": "uint256",
          "name": "",
          "type": "uint256"
        }
      ],
      "stateMutability": "view",
      "type": "function"
    },
    {
      "inputs": [],
      "name": "maxVAAddPerDayPerTokensNum",
      "outputs": [
        {
          "internalType": "uint256",
          "name": "",
          "type": "uint256"
        }
      ],
      "stateMutability": "view",
      "type": "function"
    },
    {
      "inputs": [
        {
          "internalType": "uint256",
          "name": "",
          "type": "uint256"
        }
      ],
      "name": "mintPrices",
      "outputs": [
        {
          "internalType": "uint256",
          "name": "",
          "type": "uint256"
        }
      ],
      "stateMutability": "view",
      "type": "function"
    },
    {
      "inputs": [],
      "name": "mintPricesNum",
      "outputs": [
        {
          "internalType": "uint256",
          "name": "",
          "type": "uint256"
        }
      ],
      "stateMutability": "view",
      "type": "function"
    },
    {
      "inputs": [],
      "name": "operator",
      "outputs": [
        {
          "internalType": "address",
          "name": "",
          "type": "address"
        }
      ],
      "stateMutability": "view",
      "type": "function"
    },
    {
      "inputs": [],
      "name": "owner",
      "outputs": [
        {
          "internalType": "address",
          "name": "",
          "type": "address"
        }
      ],
      "stateMutability": "view",
      "type": "function"
    },
    {
      "inputs": [
        {
          "internalType": "uint256",
          "name": "_index",
          "type": "uint256"
        }
      ],
      "name": "packageByIndex",
      "outputs": [
        {
          "internalType": "uint256[]",
          "name": "",
          "type": "uint256[]"
        }
      ],
      "stateMutability": "view",
      "type": "function"
    },
    {
      "inputs": [],
      "name": "packageLength",
      "outputs": [
        {
          "internalType": "uint256",
          "name": "",
          "type": "uint256"
        }
      ],
      "stateMutability": "view",
      "type": "function"
    },
    {
      "inputs": [
        {
          "internalType": "uint256",
          "name": "",
          "type": "uint256"
        }
      ],
      "name": "performanceRequirements",
      "outputs": [
        {
          "internalType": "uint256",
          "name": "",
          "type": "uint256"
        }
      ],
      "stateMutability": "view",
      "type": "function"
    },
    {
      "inputs": [],
      "name": "performanceRequirementsNum",
      "outputs": [
        {
          "internalType": "uint256",
          "name": "",
          "type": "uint256"
        }
      ],
      "stateMutability": "view",
      "type": "function"
    },
    {
      "inputs": [],
      "name": "performanceThreshold",
      "outputs": [
        {
          "internalType": "uint256",
          "name": "",
          "type": "uint256"
        }
      ],
      "stateMutability": "view",
      "type": "function"
    },
    {
      "inputs": [
        {
          "internalType": "uint256",
          "name": "_index",
          "type": "uint256"
        }
      ],
      "name": "removeAcceptToken",
      "outputs": [],
      "stateMutability": "nonpayable",
      "type": "function"
    },
    {
      "inputs": [],
      "name": "renounceOwnership",
      "outputs": [],
      "stateMutability": "nonpayable",
      "type": "function"
    },
    {
      "inputs": [],
      "name": "rootAddress",
      "outputs": [
        {
          "internalType": "address",
          "name": "",
          "type": "address"
        }
      ],
      "stateMutability": "view",
      "type": "function"
    },
    {
      "inputs": [],
      "name": "sellingLevelLimit",
      "outputs": [
        {
          "internalType": "uint256",
          "name": "",
          "type": "uint256"
        }
      ],
      "stateMutability": "view",
      "type": "function"
    },
    {
      "inputs": [
        {
          "internalType": "uint256",
          "name": "",
          "type": "uint256"
        },
        {
          "internalType": "uint256",
          "name": "",
          "type": "uint256"
        }
      ],
      "name": "sellingPackages",
      "outputs": [
        {
          "internalType": "uint256",
          "name": "",
          "type": "uint256"
        }
      ],
      "stateMutability": "view",
      "type": "function"
    },
    {
      "inputs": [
        {
          "internalType": "address",
          "name": "_acceptToken",
          "type": "address"
        }
      ],
      "name": "setAcceptToken",
      "outputs": [],
      "stateMutability": "nonpayable",
      "type": "function"
    },
    {
      "inputs": [
        {
          "internalType": "uint256[]",
          "name": "_amounts",
          "type": "uint256[]"
        }
      ],
      "name": "setAchievementRewardAmounts",
      "outputs": [],
      "stateMutability": "nonpayable",
      "type": "function"
    },
    {
      "inputs": [
        {
          "internalType": "uint256",
          "name": "_achievementRewardDurationThreshold",
          "type": "uint256"
        }
      ],
      "name": "setAchievementRewardDurationThreshold",
      "outputs": [],
      "stateMutability": "nonpayable",
      "type": "function"
    },
    {
      "inputs": [
        {
          "internalType": "uint256",
          "name": "_achievementRewardLevelThreshold",
          "type": "uint256"
        }
      ],
      "name": "setAchievementRewardLevelThreshold",
      "outputs": [],
      "stateMutability": "nonpayable",
      "type": "function"
    },
    {
      "inputs": [
        {
          "internalType": "address[]",
          "name": "_addresses",
          "type": "address[]"
        }
      ],
      "name": "setAddresses",
      "outputs": [],
      "stateMutability": "nonpayable",
      "type": "function"
    },
    {
      "inputs": [
        {
          "internalType": "enum ILYNKNFT.Attribute",
          "name": "_attr",
          "type": "uint8"
        },
        {
          "internalType": "uint256[]",
          "name": "_thresholds",
          "type": "uint256[]"
        }
      ],
      "name": "setAttributeLevelThreshold",
      "outputs": [],
      "stateMutability": "nonpayable",
      "type": "function"
    },
    {
      "inputs": [
        {
          "internalType": "string",
          "name": "_baseTokenURI",
          "type": "string"
        }
      ],
      "name": "setBaseTokenURI",
      "outputs": [],
      "stateMutability": "nonpayable",
      "type": "function"
    },
    {
      "inputs": [
        {
          "internalType": "enum IUser.Level",
          "name": "_level",
          "type": "uint8"
        },
        {
          "internalType": "uint256[]",
          "name": "_rates",
          "type": "uint256[]"
        }
      ],
      "name": "setCommunityRewardRates",
      "outputs": [],
      "stateMutability": "nonpayable",
      "type": "function"
    },
    {
      "inputs": [
        {
          "internalType": "uint256[]",
          "name": "_amounts",
          "type": "uint256[]"
        }
      ],
      "name": "setContributionRewardAmounts",
      "outputs": [],
      "stateMutability": "nonpayable",
      "type": "function"
    },
    {
      "inputs": [
        {
          "internalType": "uint256",
          "name": "_contributionRewardThreshold",
          "type": "uint256"
        }
      ],
      "name": "setContributionRewardThreshold",
      "outputs": [],
      "stateMutability": "nonpayable",
      "type": "function"
    },
    {
      "inputs": [
        {
          "internalType": "uint256[]",
          "name": "_requirements",
          "type": "uint256[]"
        }
      ],
      "name": "setDirectRequirements",
      "outputs": [],
      "stateMutability": "nonpayable",
      "type": "function"
    },
    {
      "inputs": [
        {
          "internalType": "uint256",
          "name": "_duration",
          "type": "uint256"
        }
      ],
      "name": "setDuration",
      "outputs": [],
      "stateMutability": "nonpayable",
      "type": "function"
    },
    {
      "inputs": [
        {
          "internalType": "uint256",
          "name": "_earlyBirdInitCA",
          "type": "uint256"
        }
      ],
      "name": "setEarlyBirdInitCA",
      "outputs": [],
      "stateMutability": "nonpayable",
      "type": "function"
    },
    {
      "inputs": [
        {
          "internalType": "uint256",
          "name": "_earlyBirdMintStartId",
          "type": "uint256"
        },
        {
          "internalType": "uint256",
          "name": "_earlyBirdMintEndId",
          "type": "uint256"
        }
      ],
      "name": "setEarlyBirdMintIdRange",
      "outputs": [],
      "stateMutability": "nonpayable",
      "type": "function"
    },
    {
      "inputs": [
        {
          "internalType": "address",
          "name": "_earlyBirdMintPayment",
          "type": "address"
        },
        {
          "internalType": "uint256",
          "name": "_earlyBirdMintPriceInPayment",
          "type": "uint256"
        }
      ],
      "name": "setEarlyBirdMintPrice",
      "outputs": [],
      "stateMutability": "nonpayable",
      "type": "function"
    },
    {
      "inputs": [
        {
          "internalType": "uint256",
          "name": "_maxMintPerDayPerAddress",
          "type": "uint256"
        }
      ],
      "name": "setMaxMintPerDayPerAddress",
      "outputs": [],
      "stateMutability": "nonpayable",
      "type": "function"
    },
    {
      "inputs": [
        {
          "internalType": "uint256",
          "name": "_maxVAAddPerDayPerToken",
          "type": "uint256"
        }
      ],
      "name": "setMaxVAAddPerDayPerToken",
      "outputs": [],
      "stateMutability": "nonpayable",
      "type": "function"
    },
    {
      "inputs": [
        {
          "internalType": "uint256[]",
          "name": "_maxVAAddPerDayPerTokens",
          "type": "uint256[]"
        }
      ],
      "name": "setMaxVAAddPerDayPerTokens",
      "outputs": [],
      "stateMutability": "nonpayable",
      "type": "function"
    },
    {
      "inputs": [
        {
          "internalType": "uint256[]",
          "name": "_mintPrices",
          "type": "uint256[]"
        }
      ],
      "name": "setMintPrices",
      "outputs": [],
      "stateMutability": "nonpayable",
      "type": "function"
    },
    {
      "inputs": [
        {
          "internalType": "address",
          "name": "_operator",
          "type": "address"
        }
      ],
      "name": "setOperator",
      "outputs": [],
      "stateMutability": "nonpayable",
      "type": "function"
    },
    {
      "inputs": [
        {
          "internalType": "uint256[]",
          "name": "_requirements",
          "type": "uint256[]"
        }
      ],
      "name": "setPerformanceRequirements",
      "outputs": [],
      "stateMutability": "nonpayable",
      "type": "function"
    },
    {
      "inputs": [
        {
          "internalType": "uint256",
          "name": "_performanceThreshold",
          "type": "uint256"
        }
      ],
      "name": "setPerformanceThreshold",
      "outputs": [],
      "stateMutability": "nonpayable",
      "type": "function"
    },
    {
      "inputs": [
        {
          "internalType": "address",
          "name": "_rootAddress",
          "type": "address"
        }
      ],
      "name": "setRootAddress",
      "outputs": [],
      "stateMutability": "nonpayable",
      "type": "function"
    },
    {
      "inputs": [
        {
          "internalType": "uint256",
          "name": "_sellingLevelLimit",
          "type": "uint256"
        }
      ],
      "name": "setSellingLevelLimit",
      "outputs": [],
      "stateMutability": "nonpayable",
      "type": "function"
    },
    {
      "inputs": [
        {
          "internalType": "uint256[][]",
          "name": "_packages",
          "type": "uint256[][]"
        }
      ],
      "name": "setSellingPackage",
      "outputs": [],
      "stateMutability": "nonpayable",
      "type": "function"
    },
    {
      "inputs": [
        {
          "internalType": "uint256[]",
          "name": "_rates",
          "type": "uint256[]"
        }
      ],
      "name": "setSocialRewardRates",
      "outputs": [],
      "stateMutability": "nonpayable",
      "type": "function"
    },
    {
      "inputs": [
        {
          "internalType": "bool",
          "name": "_earlyBirdMintEnable",
          "type": "bool"
        },
        {
          "internalType": "bool",
          "name": "_commonMintEnable",
          "type": "bool"
        }
      ],
      "name": "setSwitch",
      "outputs": [],
      "stateMutability": "nonpayable",
      "type": "function"
    },
    {
      "inputs": [
        {
          "internalType": "uint256",
          "name": "_tradingFee",
          "type": "uint256"
        }
      ],
      "name": "setTradingFee",
      "outputs": [],
      "stateMutability": "nonpayable",
      "type": "function"
    },
    {
      "inputs": [
        {
          "internalType": "uint256",
          "name": "_wlNum",
          "type": "uint256"
        }
      ],
      "name": "setWlNum",
      "outputs": [],
      "stateMutability": "nonpayable",
      "type": "function"
    },
    {
      "inputs": [
        {
          "internalType": "address[]",
          "name": "_wls",
          "type": "address[]"
        }
      ],
      "name": "setWls",
      "outputs": [],
      "stateMutability": "nonpayable",
      "type": "function"
    },
    {
      "inputs": [
        {
          "internalType": "uint256",
          "name": "",
          "type": "uint256"
        }
      ],
      "name": "socialRewardRates",
      "outputs": [
        {
          "internalType": "uint256",
          "name": "",
          "type": "uint256"
        }
      ],
      "stateMutability": "view",
      "type": "function"
    },
    {
      "inputs": [],
      "name": "socialRewardRatesNum",
      "outputs": [
        {
          "internalType": "uint256",
          "name": "",
          "type": "uint256"
        }
      ],
      "stateMutability": "view",
      "type": "function"
    },
    {
      "inputs": [],
      "name": "tradingFee",
      "outputs": [
        {
          "internalType": "uint256",
          "name": "",
          "type": "uint256"
        }
      ],
      "stateMutability": "view",
      "type": "function"
    },
    {
      "inputs": [
        {
          "internalType": "address",
          "name": "newOwner",
          "type": "address"
        }
      ],
      "name": "transferOwnership",
      "outputs": [],
      "stateMutability": "nonpayable",
      "type": "function"
    },
    {
      "inputs": [],
      "name": "wlNum",
      "outputs": [
        {
          "internalType": "uint256",
          "name": "",
          "type": "uint256"
        }
      ],
      "stateMutability": "view",
      "type": "function"
    }
  ],
  "transactionHash": "0x6efcee15529c343d1a0117cd1fd01da7d97171f6b28e2794583e4e74b0fb3576",
  "args": [
    "0x38B7CA6eD821bEf464Aa1BF080bf563efc0DEc1a"
  ],
  "numDeployments": 1,
  "solcInputHash": "525025893565bdb4b632bbdfd99a5c2c",
  "bytecode": "0x60a06040523480156200001157600080fd5b50604051620030a5380380620030a5833981016040819052620000349162000046565b6001600160a01b031660805262000078565b6000602082840312156200005957600080fd5b81516001600160a01b03811681146200007157600080fd5b9392505050565b60805161301162000094600039600061086101526130116000f3fe608060405234801561001057600080fd5b50600436106105815760003560e01c80638136673f116102e5578063be1888111161018d578063d42ecfc0116100f4578063f046bded116100ad578063f6be71d111610087578063f6be71d114610c26578063fa1785fe14610c39578063fce3b86e14610c4c578063fd02f81f14610c5f57600080fd5b8063f046bded14610bf8578063f2fde38b14610c00578063f46f16c214610c1357600080fd5b8063d42ecfc014610b8a578063d547cfb714610b9d578063dfada98814610bb2578063e707379014610bc5578063ea0d146514610bd8578063ec214bbf14610be557600080fd5b8063c96928f711610146578063c96928f714610b21578063cd0a174a14610b34578063d09586ac14610b54578063d2110a0914610b5c578063d3f0f70d14610b64578063d3f42b7c14610b7757600080fd5b8063be18881114610ac1578063bf57840314610acc578063c2e30dd014610ad5578063c6c0891614610ae8578063c7650dd814610afb578063c8aca9d014610b0e57600080fd5b8063a5c158e31161024c578063b0d54bcf11610205578063b3a8f2a9116101df578063b3a8f2a914610a75578063b3ab15fb14610a88578063b589e51e14610a9b578063b957172114610aae57600080fd5b8063b0d54bcf14610a27578063b2cd99af14610a3a578063b35e1a0a14610a6257600080fd5b8063a5c158e3146109c9578063aaa2b8c8146109dc578063ab2c8653146109ef578063af4574c6146109f8578063af718c5514610a0b578063afe97ec114610a1e57600080fd5b806397610f301161029e57806397610f301461096157806399bcfdd3146109745780639ba544ed146109875780639d51193e1461099a5780639e77de27146109a3578063a4c15a13146109b657600080fd5b80638136673f146108fb5780638cd6ab811461090e5780638da5cb5b146109175780638edcde7d14610928578063950144331461093b578063965794561461094e57600080fd5b806354c1498d1161044857806366227eb9116103af57806377b2fb8e116103685780637a58a3f1116103425780637a58a3f11461088c5780637af0cac31461089f5780637af35899146108d55780637bbbdc2e146108e857600080fd5b806377b2fb8e1461085357806377b330c91461085c5780637811dddd1461088357600080fd5b806366227eb9146107ed578063663d2c4e146107ff5780636b81ffdb146108125780636fda065214610825578063705064fd14610838578063715018a61461084b57600080fd5b80635f7d59c4116104015780635f7d59c4146107a4578063600a2f82146107ad5780636187b33e146107b65780636241c200146107c957806362e6d38a146107d157806364db03b8146107e457600080fd5b806354c1498d1461072c57806356c15c391461074f57806356f4335214610762578063570ca7351461076b5780635b487d9c1461077e5780635ce58dd41461079157600080fd5b80633b87436b116104ec5780634b89f9f7116104a55780634b89f9f7146106cf5780634c09df04146106e25780634d678f29146106f55780634eb66e8314610708578063530009641461071157806354af93201461071957600080fd5b80633b87436b146106715780633d902c8014610684578063405a0aa81461069757806341d0992b146106a057806341e33d38146106b357806343e573b1146106bc57600080fd5b80632eed8a591161053e5780632eed8a591461060557806330176e13146106285780633256e7d41461063b578063331163ce146106435780633323ff8a1461064b57806334456ae11461065e57600080fd5b80630b00fd54146105865780630fb5a6b4146105b65780631451952b146105cd5780631b56c29c146105e25780631edd6e87146105f55780631faee868146105fd575b600080fd5b606d54610599906001600160a01b031681565b6040516001600160a01b0390911681526020015b60405180910390f35b6105bf60835481565b6040519081526020016105ad565b6105e06105db3660046129b9565b610c67565b005b6105996105f03660046129db565b610d23565b6074546105bf565b6082546105bf565b6106186106133660046129b9565b610d4d565b60405190151581526020016105ad565b6105e06106363660046129f4565b610db5565b607a546105bf565b606f546105bf565b6105e06106593660046129db565b610df0565b6105e061066c366004612a66565b610e1f565b606554610599906001600160a01b031681565b6105e0610692366004612ad5565b610ec5565b6105bf60885481565b6105e06106ae366004612ad5565b610f07565b6105bf608a5481565b6105e06106ca3660046129b9565b610f73565b6105e06106dd366004612b26565b611045565b6105bf6106f03660046129db565b611225565b6105bf610703366004612b88565b611246565b6105bf607d5481565b6078546105bf565b6105e0610727366004612ad5565b6112c7565b61061861073a3660046129b9565b608d6020526000908152604090205460ff1681565b606b54610599906001600160a01b031681565b6105bf60765481565b606e54610599906001600160a01b031681565b606a54610599906001600160a01b031681565b6105e061079f366004612ad5565b611329565b6105bf60735481565b6105bf60705481565b6105bf6107c43660046129db565b61141c565b6079546105bf565b6105bf6107df3660046129db565b61142c565b6105bf60865481565b608b5461061890610100900460ff1681565b606954610599906001600160a01b031681565b6105e06108203660046129db565b611480565b6105bf6108333660046129db565b6114af565b6105e06108463660046129db565b6114e7565b6105e06115d5565b6105bf607b5481565b6105997f000000000000000000000000000000000000000000000000000000000000000081565b6105bf60805481565b6105bf61089a3660046129db565b6115e9565b6108b6608954608a546001600160a01b0390911691565b604080516001600160a01b0390931683526020830191909152016105ad565b6105e06108e3366004612ad5565b6115f9565b6105e06108f6366004612ad5565b611665565b6105bf610909366004612ba4565b611781565b6105bf60875481565b6033546001600160a01b0316610599565b6105bf6109363660046129db565b6117be565b6105e0610949366004612bd4565b6117c9565b6105e061095c366004612ad5565b611817565b606754610599906001600160a01b031681565b6105bf6109823660046129db565b6119fd565b6105e06109953660046129db565b611a0d565b6105bf607f5481565b6105e06109b1366004612ad5565b611a3c565b6105e06109c4366004612ba4565b611a9e565b6105e06109d73660046129db565b611b22565b607754610599906001600160a01b031681565b6105bf608c5481565b6105bf610a063660046129db565b611b51565b6105bf610a19366004612ba4565b611b61565b6105bf60755481565b6105e0610a353660046129db565b611b71565b610a4d610a48366004612c0d565b611bf1565b604080519283526020830191909152016105ad565b6105e0610a703660046129db565b611c0a565b6105e0610a833660046129db565b611c39565b6105e0610a963660046129b9565b611c68565b6105e0610aa9366004612ad5565b611c92565b6105e0610abc366004612ad5565b611cf4565b608754608854610a4d565b6105bf60855481565b606654610599906001600160a01b031681565b6105e0610af63660046129db565b611d2c565b6105e0610b09366004612ad5565b611d5b565b6105bf610b1c366004612ba4565b611e38565b6105e0610b2f3660046129db565b611e54565b610b47610b423660046129db565b611e83565b6040516105ad9190612c29565b6084546105bf565b607c546105bf565b610618610b723660046129db565b611f4a565b6105bf610b853660046129db565b611f60565b6105e0610b983660046129db565b611f70565b610ba5611f9f565b6040516105ad9190612c6d565b608954610599906001600160a01b031681565b6105e0610bd3366004612cc2565b61202d565b608b546106189060ff1681565b6105bf610bf3366004612ce0565b6120b6565b6072546105bf565b6105e0610c0e3660046129b9565b6120e5565b606c54610599906001600160a01b031681565b6105e0610c343660046129db565b61215b565b606854610599906001600160a01b031681565b6105bf610c5a3660046129db565b61218a565b6081546105bf565b606e546001600160a01b03163314610c9a5760405162461bcd60e51b8152600401610c9190612cfb565b60405180910390fd5b6001600160a01b038116610d015760405162461bcd60e51b815260206004820152602860248201527f4442436f6e74726163743a20726f6f742063616e6e6f74206265207a65726f2060448201526730b2323932b9b99760c11b6064820152608401610c91565b607780546001600160a01b0319166001600160a01b0392909216919091179055565b60748181548110610d3357600080fd5b6000918252602090912001546001600160a01b0316905081565b607454600090815b81811015610dab5760748181548110610d7057610d70612d41565b6000918252602090912001546001600160a01b0385811691161415610d99575060019392505050565b80610da381612d6d565b915050610d55565b5060009392505050565b606e546001600160a01b03163314610ddf5760405162461bcd60e51b8152600401610c9190612cfb565b610deb60718383612871565b505050565b606e546001600160a01b03163314610e1a5760405162461bcd60e51b8152600401610c9190612cfb565b608655565b606e546001600160a01b03163314610e495760405162461bcd60e51b8152600401610c9190612cfb565b6001600160a01b038216610e9f5760405162461bcd60e51b815260206004820181905260248201527f4442436f6e74726163743a207061796d656e742063616e6e6f7420626520302e6044820152606401610c91565b608980546001600160a01b0319166001600160a01b039390931692909217909155608a55565b606e546001600160a01b03163314610eef5760405162461bcd60e51b8152600401610c9190612cfb565b610efb608460006128f5565b610deb60848383612913565b606e546001600160a01b03163314610f315760405162461bcd60e51b8152600401610c9190612cfb565b610f3d60056001612d9e565b8114610f5b5760405162461bcd60e51b8152600401610c9190612db6565b610f67607c60006128f5565b610deb607c8383612913565b606e546001600160a01b03163314610f9d5760405162461bcd60e51b8152600401610c9190612cfb565b60745460005b81811015610ff45760748181548110610fbe57610fbe612d41565b6000918252602090912001546001600160a01b0384811691161415610fe257505050565b80610fec81612d6d565b915050610fa3565b5050607480546001810182556000919091527f19a0b39aa25ac793b5f6e9a0534364cc0b3fd1ea9b651e79c7f50a59d48ef8130180546001600160a01b0319166001600160a01b0383161790555b50565b606e546001600160a01b0316331461106f5760405162461bcd60e51b8152600401610c9190612cfb565b60725483600381111561108457611084612d88565b11156110a25760405162461bcd60e51b8152600401610c9190612db6565b60005b8181101561114f57801561113d5782826110c0600184612ded565b8181106110cf576110cf612d41565b905060200201358383838181106110e8576110e8612d41565b90506020020135101561113d5760405162461bcd60e51b815260206004820152601f60248201527f4442436f6e74726163743a20696e76616c6964207468726573686f6c64732e006044820152606401610c91565b8061114781612d6d565b9150506110a5565b5082600381111561116257611162612d88565b60725414156111ae57607280546001810182556000919091526111a8907fdffbd64cc7c1a7eb27984335d9416d51137a03d3fabec7141025c62663253fe1018383612913565b50505050565b60728360038111156111c2576111c2612d88565b815481106111d2576111d2612d41565b9060005260206000200160006111e891906128f5565b818160728560038111156111fe576111fe612d88565b8154811061120e5761120e612d41565b9060005260206000200191906111a8929190612913565b6084818154811061123557600080fd5b600091825260209091200154905081565b600081607e600085600581111561125f5761125f612d88565b815260208101919091526040016000205411156112bd57607e600084600581111561128c5761128c612d88565b815260200190815260200160002082815481106112ab576112ab612d41565b906000526020600020015490506112c1565b5060005b92915050565b606e546001600160a01b031633146112f15760405162461bcd60e51b8152600401610c9190612cfb565b600581146113115760405162461bcd60e51b8152600401610c9190612db6565b61131d607960006128f5565b610deb60798383612913565b606e546001600160a01b031633146113535760405162461bcd60e51b8152600401610c9190612cfb565b61135f60056001612d9e565b811461137d5760405162461bcd60e51b8152600401610c9190612db6565b611389607a60006128f5565b60005b8181101561140f57670de0b6b3a76400008383838181106113af576113af612d41565b9050602002013511156113fd5760405162461bcd60e51b8152602060048201526016602482015275222121b7b73a3930b1ba1d103a37b7903630b933b29760511b6044820152606401610c91565b8061140781612d6d565b91505061138c565b50610deb607a8383612913565b606f818154811061123557600080fd5b6000806114388361219a565b60845490915061144a90600190612ded565b81111561145a5750600092915050565b6084818154811061146d5761146d612d41565b9060005260206000200154915050919050565b606e546001600160a01b031633146114aa5760405162461bcd60e51b8152600401610c9190612cfb565b607b55565b60725460009082106114c25760006112c1565b607282815481106114d5576114d5612d41565b60009182526020909120015492915050565b606e546001600160a01b031633146115115760405162461bcd60e51b8152600401610c9190612cfb565b60745461151f600182612ded565b82101561159e576074611533600183612ded565b8154811061154357611543612d41565b600091825260209091200154607480546001600160a01b03909216918490811061156f5761156f612d41565b9060005260206000200160006101000a8154816001600160a01b0302191690836001600160a01b031602179055505b60748054806115af576115af612e04565b600082815260209020810160001990810180546001600160a01b03191690550190555050565b6115dd612364565b6115e760006123be565b565b607a818154811061123557600080fd5b606e546001600160a01b031633146116235760405162461bcd60e51b8152600401610c9190612cfb565b61162f60056001612d9e565b811461164d5760405162461bcd60e51b8152600401610c9190612db6565b611659608160006128f5565b610deb60818383612913565b600054610100900460ff16158080156116855750600054600160ff909116105b8061169f5750303b15801561169f575060005460ff166001145b6117025760405162461bcd60e51b815260206004820152602e60248201527f496e697469616c697a61626c653a20636f6e747261637420697320616c72656160448201526d191e481a5b9a5d1a585b1a5e995960921b6064820152608401610c91565b6000805460ff191660011790558015611725576000805461ff0019166101001790555b61172f8383611d1e565b611737612410565b8015610deb576000805461ff0019169055604051600181527f7f26b83ff96e1f2b6a682f133852f6798a09c465da95921460cefb38474024989060200160405180910390a1505050565b6072828154811061179157600080fd5b9060005260206000200181815481106117a957600080fd5b90600052602060002001600091509150505481565b60006112c18261219a565b606e546001600160a01b031633146117f35760405162461bcd60e51b8152600401610c9190612cfb565b608b805461ffff191692151561ff0019169290921761010091151591909102179055565b606e546001600160a01b031633146118415760405162461bcd60e51b8152600401610c9190612cfb565b60005b81811015610deb576001608d600085858581811061186457611864612d41565b905060200201602081019061187991906129b9565b6001600160a01b0390811682526020820192909252604001600020805460ff1916921515929092179091556068541663f3c95c608484848181106118bf576118bf612d41565b90506020020160208101906118d491906129b9565b6040516001600160e01b031960e084901b1681526001600160a01b03909116600482015260240160206040518083038186803b15801561191357600080fd5b505afa158015611927573d6000803e3d6000fd5b505050506040513d601f19601f8201168201806040525081019061194b9190612e1a565b6119eb576068546001600160a01b03166323b3f2a584848481811061197257611972612d41565b905060200201602081019061198791906129b9565b60775460405160e084901b6001600160e01b03191681526001600160a01b03928316600482015291166024820152604401600060405180830381600087803b1580156119d257600080fd5b505af11580156119e6573d6000803e3d6000fd5b505050505b806119f581612d6d565b915050611844565b6078818154811061123557600080fd5b606e546001600160a01b03163314611a375760405162461bcd60e51b8152600401610c9190612cfb565b607f55565b606e546001600160a01b03163314611a665760405162461bcd60e51b8152600401610c9190612cfb565b60058114611a865760405162461bcd60e51b8152600401610c9190612db6565b611a92607860006128f5565b610deb60788383612913565b606e546001600160a01b03163314611ac85760405162461bcd60e51b8152600401610c9190612cfb565b818111611b175760405162461bcd60e51b815260206004820152601d60248201527f4442436f6e74726163743a20696e76616c69642069642072616e67652e0000006044820152606401610c91565b608791909155608855565b606e546001600160a01b03163314611b4c5760405162461bcd60e51b8152600401610c9190612cfb565b607555565b6081818154811061123557600080fd5b6082828154811061179157600080fd5b606e546001600160a01b03163314611b9b5760405162461bcd60e51b8152600401610c9190612cfb565b670de0b6b3a7640000811115611bec5760405162461bcd60e51b8152602060048201526016602482015275222121b7b73a3930b1ba1d103a37b7903630b933b29760511b6044820152606401610c91565b607655565b600080611bfe848461243f565b915091505b9250929050565b606e546001600160a01b03163314611c345760405162461bcd60e51b8152600401610c9190612cfb565b608555565b606e546001600160a01b03163314611c635760405162461bcd60e51b8152600401610c9190612cfb565b607055565b611c70612364565b606e80546001600160a01b0319166001600160a01b0392909216919091179055565b606e546001600160a01b03163314611cbc5760405162461bcd60e51b8152600401610c9190612cfb565b60038114611cdc5760405162461bcd60e51b8152600401610c9190612db6565b611ce8606f60006128f5565b610deb606f8383612913565b606e546001600160a01b03163314611d1e5760405162461bcd60e51b8152600401610c9190612cfb565b611d288282612556565b5050565b606e546001600160a01b03163314611d565760405162461bcd60e51b8152600401610c9190612cfb565b607355565b606e546001600160a01b03163314611d855760405162461bcd60e51b8152600401610c9190612cfb565b611d916082600061294d565b60005b81811015610deb57828282818110611dae57611dae612d41565b9050602002810190611dc09190612e37565b9050600314611de15760405162461bcd60e51b8152600401610c9190612db6565b6082838383818110611df557611df5612d41565b9050602002810190611e079190612e37565b825460018101845560009384526020909320611e2593019190612913565b5080611e3081612d6d565b915050611d94565b607e60205281600052604060002081815481106117a957600080fd5b606e546001600160a01b03163314611e7e5760405162461bcd60e51b8152600401610c9190612cfb565b608c55565b6082546060908210611ed75760405162461bcd60e51b815260206004820181905260248201527f4442436f6e74726163743a20696e646578206f7574206f6620626f756e64732e6044820152606401610c91565b60828281548110611eea57611eea612d41565b90600052602060002001805480602002602001604051908101604052809291908181526020018280548015611f3e57602002820191906000526020600020905b815481526020019060010190808311611f2a575b50505050509050919050565b6000607f54611f588361219a565b101592915050565b6079818154811061123557600080fd5b606e546001600160a01b03163314611f9a5760405162461bcd60e51b8152600401610c9190612cfb565b608055565b60718054611fac90612e81565b80601f0160208091040260200160405190810160405280929190818152602001828054611fd890612e81565b80156120255780601f10611ffa57610100808354040283529160200191612025565b820191906000526020600020905b81548152906001019060200180831161200857829003601f168201915b505050505081565b606e546001600160a01b031633146120575760405162461bcd60e51b8152600401610c9190612cfb565b600083600581111561206b5761206b612d88565b6000818152607e6020526040812091925061208691906128f5565b607d5482111561209657607d8290555b6000818152607e602052604090206120af908484612913565b5050505050565b6000607e60008360058111156120ce576120ce612d88565b815260208101919091526040016000205492915050565b6120ed612364565b6001600160a01b0381166121525760405162461bcd60e51b815260206004820152602660248201527f4f776e61626c653a206e6577206f776e657220697320746865207a65726f206160448201526564647265737360d01b6064820152608401610c91565b611042816123be565b606e546001600160a01b031633146121855760405162461bcd60e51b8152600401610c9190612cfb565b608355565b607c818154811061123557600080fd5b606954604051634f558e7960e01b8152600481018390526000916001600160a01b031690634f558e799060240160206040518083038186803b1580156121df57600080fd5b505afa1580156121f3573d6000803e3d6000fd5b505050506040513d601f19601f820116820180604052508101906122179190612e1a565b6122635760405162461bcd60e51b815260206004820152601d60248201527f4442436f6e74726163743a20696e76616c696420746f6b656e2049442e0000006044820152606401610c91565b60695460405163373bf3af60e21b8152600481018490526000916001600160a01b03169063dcefcebc9060240160006040518083038186803b1580156122a857600080fd5b505afa1580156122bc573d6000803e3d6000fd5b505050506040513d6000823e601f3d908101601f191682016040526122e49190810190612ed2565b905060005b6122f560036001612d9e565b81101561235d57600061233282600381111561231357612313612d88565b84848151811061232557612325612d41565b602002602001015161243f565b50905081158061234157508381105b1561234a578093505b508061235581612d6d565b9150506122e9565b5050919050565b6033546001600160a01b031633146115e75760405162461bcd60e51b815260206004820181905260248201527f4f776e61626c653a2063616c6c6572206973206e6f7420746865206f776e65726044820152606401610c91565b603380546001600160a01b038381166001600160a01b0319831681179093556040519116919082907f8be0079c531659141344cd1fd0a4f28419497f9722a3daafe3b4186f6b6457e090600090a35050565b600054610100900460ff166124375760405162461bcd60e51b8152600401610c9190612f90565b6115e7612841565b60008181607285600381111561245757612457612d88565b8154811061246757612467612d41565b600091825260208220015491505b8181101561254d57607286600381111561249157612491612d88565b815481106124a1576124a1612d41565b9060005260206000200181815481106124bc576124bc612d41565b90600052602060002001548510612536576124d8816001612d9e565b935060728660038111156124ee576124ee612d88565b815481106124fe576124fe612d41565b90600052602060002001818154811061251957612519612d41565b90600052602060002001548561252f9190612ded565b925061253b565b61254d565b8061254581612d6d565b915050612475565b50509250929050565b600981146125b55760405162461bcd60e51b815260206004820152602660248201527f4442436f6e74726163743a20616464726573736573206c656e677468206d697360448201526536b0ba31b41760d11b6064820152608401610c91565b818160008181106125c8576125c8612d41565b90506020020160208101906125dd91906129b9565b606580546001600160a01b0319166001600160a01b03929092169190911790558181600181811061261057612610612d41565b905060200201602081019061262591906129b9565b606680546001600160a01b0319166001600160a01b03929092169190911790558181600281811061265857612658612d41565b905060200201602081019061266d91906129b9565b606780546001600160a01b0319166001600160a01b0392909216919091179055818160038181106126a0576126a0612d41565b90506020020160208101906126b591906129b9565b606980546001600160a01b0319166001600160a01b0392909216919091179055818160048181106126e8576126e8612d41565b90506020020160208101906126fd91906129b9565b606a80546001600160a01b0319166001600160a01b03929092169190911790558181600581811061273057612730612d41565b905060200201602081019061274591906129b9565b606b80546001600160a01b0319166001600160a01b03929092169190911790558181600681811061277857612778612d41565b905060200201602081019061278d91906129b9565b606c80546001600160a01b0319166001600160a01b0392909216919091179055818160078181106127c0576127c0612d41565b90506020020160208101906127d591906129b9565b606880546001600160a01b0319166001600160a01b03929092169190911790558181600881811061280857612808612d41565b905060200201602081019061281d91906129b9565b606d80546001600160a01b0319166001600160a01b03929092169190911790555050565b600054610100900460ff166128685760405162461bcd60e51b8152600401610c9190612f90565b6115e7336123be565b82805461287d90612e81565b90600052602060002090601f01602090048101928261289f57600085556128e5565b82601f106128b85782800160ff198235161785556128e5565b828001600101855582156128e5579182015b828111156128e55782358255916020019190600101906128ca565b506128f192915061296b565b5090565b5080546000825590600052602060002090810190611042919061296b565b8280548282559060005260206000209081019282156128e557916020028201828111156128e55782358255916020019190600101906128ca565b50805460008255906000526020600020908101906110429190612980565b5b808211156128f1576000815560010161296c565b808211156128f157600061299482826128f5565b50600101612980565b80356001600160a01b03811681146129b457600080fd5b919050565b6000602082840312156129cb57600080fd5b6129d48261299d565b9392505050565b6000602082840312156129ed57600080fd5b5035919050565b60008060208385031215612a0757600080fd5b823567ffffffffffffffff80821115612a1f57600080fd5b818501915085601f830112612a3357600080fd5b813581811115612a4257600080fd5b866020828501011115612a5457600080fd5b60209290920196919550909350505050565b60008060408385031215612a7957600080fd5b612a828361299d565b946020939093013593505050565b60008083601f840112612aa257600080fd5b50813567ffffffffffffffff811115612aba57600080fd5b6020830191508360208260051b8501011115611c0357600080fd5b60008060208385031215612ae857600080fd5b823567ffffffffffffffff811115612aff57600080fd5b612b0b85828601612a90565b90969095509350505050565b8035600481106129b457600080fd5b600080600060408486031215612b3b57600080fd5b612b4484612b17565b9250602084013567ffffffffffffffff811115612b6057600080fd5b612b6c86828701612a90565b9497909650939450505050565b8035600681106129b457600080fd5b60008060408385031215612b9b57600080fd5b612a8283612b79565b60008060408385031215612bb757600080fd5b50508035926020909101359150565b801515811461104257600080fd5b60008060408385031215612be757600080fd5b8235612bf281612bc6565b91506020830135612c0281612bc6565b809150509250929050565b60008060408385031215612c2057600080fd5b612a8283612b17565b6020808252825182820181905260009190848201906040850190845b81811015612c6157835183529284019291840191600101612c45565b50909695505050505050565b600060208083528351808285015260005b81811015612c9a57858101830151858201604001528201612c7e565b81811115612cac576000604083870101525b50601f01601f1916929092016040019392505050565b600080600060408486031215612cd757600080fd5b612b4484612b79565b600060208284031215612cf257600080fd5b6129d482612b79565b60208082526026908201527f4442436f6e74726163743a2063616c6c6572206973206e6f7420746865206f7060408201526532b930ba37b960d11b606082015260800190565b634e487b7160e01b600052603260045260246000fd5b634e487b7160e01b600052601160045260246000fd5b6000600019821415612d8157612d81612d57565b5060010190565b634e487b7160e01b600052602160045260246000fd5b60008219821115612db157612db1612d57565b500190565b6020808252601c908201527f4442436f6e74726163743a206c656e677468206d69736d617463682e00000000604082015260600190565b600082821015612dff57612dff612d57565b500390565b634e487b7160e01b600052603160045260246000fd5b600060208284031215612e2c57600080fd5b81516129d481612bc6565b6000808335601e19843603018112612e4e57600080fd5b83018035915067ffffffffffffffff821115612e6957600080fd5b6020019150600581901b3603821315611c0357600080fd5b600181811c90821680612e9557607f821691505b60208210811415612eb657634e487b7160e01b600052602260045260246000fd5b50919050565b634e487b7160e01b600052604160045260246000fd5b60006020808385031215612ee557600080fd5b825167ffffffffffffffff80821115612efd57600080fd5b818501915085601f830112612f1157600080fd5b815181811115612f2357612f23612ebc565b8060051b604051601f19603f83011681018181108582111715612f4857612f48612ebc565b604052918252848201925083810185019188831115612f6657600080fd5b938501935b82851015612f8457845184529385019392850192612f6b565b98975050505050505050565b6020808252602b908201527f496e697469616c697a61626c653a20636f6e7472616374206973206e6f74206960408201526a6e697469616c697a696e6760a81b60608201526080019056fea264697066735822122022eefc159d208ace77b7cf67449941a7bb32b699c5571b3491a6e36f4efdf5d364736f6c63430008090033",
  "devdoc": {
    "kind": "dev",
    "methods": {
      "owner()": {
        "details": "Returns the address of the current owner."
      },
      "renounceOwnership()": {
        "details": "Leaves the contract without owner. It will not be possible to call `onlyOwner` functions anymore. Can only be called by the current owner. NOTE: Renouncing ownership will leave the contract without an owner, thereby removing any functionality that is only available to the owner."
      },
      "transferOwnership(address)": {
        "details": "Transfers ownership of the contract to a new account (`newOwner`). Can only be called by the current owner."
      }
    },
    "version": 1
  },
  "userdoc": {
    "kind": "user",
    "methods": {
      "setAttributeLevelThreshold(uint8,uint256[])": {
        "notice": "CA: [100, 500, 1000 ... ]"
      }
    },
    "version": 1
  },
  "storageLayout": {
    "storage": [
      {
        "astId": 138,
        "contract": "contracts/DBContract.sol:DBContract",
        "label": "_initialized",
        "offset": 0,
        "slot": "0",
        "type": "t_uint8"
      },
      {
        "astId": 141,
        "contract": "contracts/DBContract.sol:DBContract",
        "label": "_initializing",
        "offset": 1,
        "slot": "0",
        "type": "t_bool"
      },
      {
        "astId": 3230,
        "contract": "contracts/DBContract.sol:DBContract",
        "label": "__gap",
        "offset": 0,
        "slot": "1",
        "type": "t_array(t_uint256)50_storage"
      },
      {
        "astId": 10,
        "contract": "contracts/DBContract.sol:DBContract",
        "label": "_owner",
        "offset": 0,
        "slot": "51",
        "type": "t_address"
      },
      {
        "astId": 130,
        "contract": "contracts/DBContract.sol:DBContract",
        "label": "__gap",
        "offset": 0,
        "slot": "52",
        "type": "t_array(t_uint256)49_storage"
      },
      {
        "astId": 6827,
        "contract": "contracts/DBContract.sol:DBContract",
        "label": "LYNK_TOKEN",
        "offset": 0,
        "slot": "101",
        "type": "t_address"
      },
      {
        "astId": 6829,
        "contract": "contracts/DBContract.sol:DBContract",
        "label": "AP_TOKEN",
        "offset": 0,
        "slot": "102",
        "type": "t_address"
      },
      {
        "astId": 6831,
        "contract": "contracts/DBContract.sol:DBContract",
        "label": "STAKING",
        "offset": 0,
        "slot": "103",
        "type": "t_address"
      },
      {
        "astId": 6833,
        "contract": "contracts/DBContract.sol:DBContract",
        "label": "USER_INFO",
        "offset": 0,
        "slot": "104",
        "type": "t_address"
      },
      {
        "astId": 6835,
        "contract": "contracts/DBContract.sol:DBContract",
        "label": "LYNKNFT",
        "offset": 0,
        "slot": "105",
        "type": "t_address"
      },
      {
        "astId": 6837,
        "contract": "contracts/DBContract.sol:DBContract",
        "label": "STAKING_LYNKNFT",
        "offset": 0,
        "slot": "106",
        "type": "t_address"
      },
      {
        "astId": 6839,
        "contract": "contracts/DBContract.sol:DBContract",
        "label": "LISTED_LYNKNFT",
        "offset": 0,
        "slot": "107",
        "type": "t_address"
      },
      {
        "astId": 6841,
        "contract": "contracts/DBContract.sol:DBContract",
        "label": "MARKET",
        "offset": 0,
        "slot": "108",
        "type": "t_address"
      },
      {
        "astId": 6843,
        "contract": "contracts/DBContract.sol:DBContract",
        "label": "TEAM_ADDR",
        "offset": 0,
        "slot": "109",
        "type": "t_address"
      },
      {
        "astId": 6845,
        "contract": "contracts/DBContract.sol:DBContract",
        "label": "operator",
        "offset": 0,
        "slot": "110",
        "type": "t_address"
      },
      {
        "astId": 6848,
        "contract": "contracts/DBContract.sol:DBContract",
        "label": "mintPrices",
        "offset": 0,
        "slot": "111",
        "type": "t_array(t_uint256)dyn_storage"
      },
      {
        "astId": 6850,
        "contract": "contracts/DBContract.sol:DBContract",
        "label": "maxMintPerDayPerAddress",
        "offset": 0,
        "slot": "112",
        "type": "t_uint256"
      },
      {
        "astId": 6852,
        "contract": "contracts/DBContract.sol:DBContract",
        "label": "baseTokenURI",
        "offset": 0,
        "slot": "113",
        "type": "t_string_storage"
      },
      {
        "astId": 6856,
        "contract": "contracts/DBContract.sol:DBContract",
        "label": "attributeLevelThreshold",
        "offset": 0,
        "slot": "114",
        "type": "t_array(t_array(t_uint256)dyn_storage)dyn_storage"
      },
      {
        "astId": 6858,
        "contract": "contracts/DBContract.sol:DBContract",
        "label": "maxVAAddPerDayPerToken",
        "offset": 0,
        "slot": "115",
        "type": "t_uint256"
      },
      {
        "astId": 6861,
        "contract": "contracts/DBContract.sol:DBContract",
        "label": "acceptTokens",
        "offset": 0,
        "slot": "116",
        "type": "t_array(t_address)dyn_storage"
      },
      {
        "astId": 6863,
        "contract": "contracts/DBContract.sol:DBContract",
        "label": "sellingLevelLimit",
        "offset": 0,
        "slot": "117",
        "type": "t_uint256"
      },
      {
        "astId": 6865,
        "contract": "contracts/DBContract.sol:DBContract",
        "label": "tradingFee",
        "offset": 0,
        "slot": "118",
        "type": "t_uint256"
      },
      {
        "astId": 6867,
        "contract": "contracts/DBContract.sol:DBContract",
        "label": "rootAddress",
        "offset": 0,
        "slot": "119",
        "type": "t_address"
      },
      {
        "astId": 6870,
        "contract": "contracts/DBContract.sol:DBContract",
        "label": "directRequirements",
        "offset": 0,
        "slot": "120",
        "type": "t_array(t_uint256)dyn_storage"
      },
      {
        "astId": 6873,
        "contract": "contracts/DBContract.sol:DBContract",
        "label": "performanceRequirements",
        "offset": 0,
        "slot": "121",
        "type": "t_array(t_uint256)dyn_storage"
      },
      {
        "astId": 6876,
        "contract": "contracts/DBContract.sol:DBContract",
        "label": "socialRewardRates",
        "offset": 0,
        "slot": "122",
        "type": "t_array(t_uint256)dyn_storage"
      },
      {
        "astId": 6878,
        "contract": "contracts/DBContract.sol:DBContract",
        "label": "contributionRewardThreshold",
        "offset": 0,
        "slot": "123",
        "type": "t_uint256"
      },
      {
        "astId": 6881,
        "contract": "contracts/DBContract.sol:DBContract",
        "label": "contributionRewardAmounts",
        "offset": 0,
        "slot": "124",
        "type": "t_array(t_uint256)dyn_storage"
      },
      {
        "astId": 6883,
        "contract": "contracts/DBContract.sol:DBContract",
        "label": "maxInvitationLevel",
        "offset": 0,
        "slot": "125",
        "type": "t_uint256"
      },
      {
        "astId": 6888,
        "contract": "contracts/DBContract.sol:DBContract",
        "label": "communityRewardRates",
        "offset": 0,
        "slot": "126",
        "type": "t_mapping(t_uint256,t_array(t_uint256)dyn_storage)"
      },
      {
        "astId": 6890,
        "contract": "contracts/DBContract.sol:DBContract",
        "label": "achievementRewardLevelThreshold",
        "offset": 0,
        "slot": "127",
        "type": "t_uint256"
      },
      {
        "astId": 6892,
        "contract": "contracts/DBContract.sol:DBContract",
        "label": "achievementRewardDurationThreshold",
        "offset": 0,
        "slot": "128",
        "type": "t_uint256"
      },
      {
        "astId": 6895,
        "contract": "contracts/DBContract.sol:DBContract",
        "label": "achievementRewardAmounts",
        "offset": 0,
        "slot": "129",
        "type": "t_array(t_uint256)dyn_storage"
      },
      {
        "astId": 6899,
        "contract": "contracts/DBContract.sol:DBContract",
        "label": "sellingPackages",
        "offset": 0,
        "slot": "130",
        "type": "t_array(t_array(t_uint256)dyn_storage)dyn_storage"
      },
      {
        "astId": 6901,
        "contract": "contracts/DBContract.sol:DBContract",
        "label": "duration",
        "offset": 0,
        "slot": "131",
        "type": "t_uint256"
      },
      {
        "astId": 6904,
        "contract": "contracts/DBContract.sol:DBContract",
        "label": "maxVAAddPerDayPerTokens",
        "offset": 0,
        "slot": "132",
        "type": "t_array(t_uint256)dyn_storage"
      },
      {
        "astId": 6906,
        "contract": "contracts/DBContract.sol:DBContract",
        "label": "performanceThreshold",
        "offset": 0,
        "slot": "133",
        "type": "t_uint256"
      },
      {
        "astId": 6908,
        "contract": "contracts/DBContract.sol:DBContract",
        "label": "earlyBirdInitCA",
        "offset": 0,
        "slot": "134",
        "type": "t_uint256"
      },
      {
        "astId": 6910,
        "contract": "contracts/DBContract.sol:DBContract",
        "label": "earlyBirdMintStartId",
        "offset": 0,
        "slot": "135",
        "type": "t_uint256"
      },
      {
        "astId": 6912,
        "contract": "contracts/DBContract.sol:DBContract",
        "label": "earlyBirdMintEndId",
        "offset": 0,
        "slot": "136",
        "type": "t_uint256"
      },
      {
        "astId": 6914,
        "contract": "contracts/DBContract.sol:DBContract",
        "label": "earlyBirdMintPayment",
        "offset": 0,
        "slot": "137",
        "type": "t_address"
      },
      {
        "astId": 6916,
        "contract": "contracts/DBContract.sol:DBContract",
        "label": "earlyBirdMintPriceInPayment",
        "offset": 0,
        "slot": "138",
        "type": "t_uint256"
      },
      {
        "astId": 6918,
        "contract": "contracts/DBContract.sol:DBContract",
        "label": "earlyBirdMintEnable",
        "offset": 0,
        "slot": "139",
        "type": "t_bool"
      },
      {
        "astId": 6920,
        "contract": "contracts/DBContract.sol:DBContract",
        "label": "commonMintEnable",
        "offset": 1,
        "slot": "139",
        "type": "t_bool"
      },
      {
        "astId": 6922,
        "contract": "contracts/DBContract.sol:DBContract",
        "label": "wlNum",
        "offset": 0,
        "slot": "140",
        "type": "t_uint256"
      },
      {
        "astId": 6926,
        "contract": "contracts/DBContract.sol:DBContract",
        "label": "earlyBirdMintWlOf",
        "offset": 0,
        "slot": "141",
        "type": "t_mapping(t_address,t_bool)"
      }
    ],
    "types": {
      "t_address": {
        "encoding": "inplace",
        "label": "address",
        "numberOfBytes": "20"
      },
      "t_array(t_address)dyn_storage": {
        "base": "t_address",
        "encoding": "dynamic_array",
        "label": "address[]",
        "numberOfBytes": "32"
      },
      "t_array(t_array(t_uint256)dyn_storage)dyn_storage": {
        "base": "t_array(t_uint256)dyn_storage",
        "encoding": "dynamic_array",
        "label": "uint256[][]",
        "numberOfBytes": "32"
      },
      "t_array(t_uint256)49_storage": {
        "base": "t_uint256",
        "encoding": "inplace",
        "label": "uint256[49]",
        "numberOfBytes": "1568"
      },
      "t_array(t_uint256)50_storage": {
        "base": "t_uint256",
        "encoding": "inplace",
        "label": "uint256[50]",
        "numberOfBytes": "1600"
      },
      "t_array(t_uint256)dyn_storage": {
        "base": "t_uint256",
        "encoding": "dynamic_array",
        "label": "uint256[]",
        "numberOfBytes": "32"
      },
      "t_bool": {
        "encoding": "inplace",
        "label": "bool",
        "numberOfBytes": "1"
      },
      "t_mapping(t_address,t_bool)": {
        "encoding": "mapping",
        "key": "t_address",
        "label": "mapping(address => bool)",
        "numberOfBytes": "32",
        "value": "t_bool"
      },
      "t_mapping(t_uint256,t_array(t_uint256)dyn_storage)": {
        "encoding": "mapping",
        "key": "t_uint256",
        "label": "mapping(uint256 => uint256[])",
        "numberOfBytes": "32",
        "value": "t_array(t_uint256)dyn_storage"
      },
      "t_string_storage": {
        "encoding": "bytes",
        "label": "string",
        "numberOfBytes": "32"
      },
      "t_uint256": {
        "encoding": "inplace",
        "label": "uint256",
        "numberOfBytes": "32"
      },
      "t_uint8": {
        "encoding": "inplace",
        "label": "uint8",
        "numberOfBytes": "1"
      }
    }
  }
}