{
  "address": "0x02BbCBD1680740d9f0D06758Aa0B4c7FEAA63f78",
  "abi": [
    {
      "inputs": [
        {
          "internalType": "address",
          "name": "dbAddress",
          "type": "address"
        }
      ],
      "stateMutability": "nonpayable",
      "type": "constructor"
    },
    {
      "anonymous": false,
      "inputs": [
        {
          "indexed": true,
          "internalType": "address",
          "name": "owner",
          "type": "address"
        },
        {
          "indexed": true,
          "internalType": "address",
          "name": "approved",
          "type": "address"
        },
        {
          "indexed": true,
          "internalType": "uint256",
          "name": "tokenId",
          "type": "uint256"
        }
      ],
      "name": "Approval",
      "type": "event"
    },
    {
      "anonymous": false,
      "inputs": [
        {
          "indexed": true,
          "internalType": "address",
          "name": "owner",
          "type": "address"
        },
        {
          "indexed": true,
          "internalType": "address",
          "name": "operator",
          "type": "address"
        },
        {
          "indexed": false,
          "internalType": "bool",
          "name": "approved",
          "type": "bool"
        }
      ],
      "name": "ApprovalForAll",
      "type": "event"
    },
    {
      "anonymous": false,
      "inputs": [
        {
          "indexed": false,
          "internalType": "uint8",
          "name": "version",
          "type": "uint8"
        }
      ],
      "name": "Initialized",
      "type": "event"
    },
    {
      "anonymous": false,
      "inputs": [
        {
          "indexed": true,
          "internalType": "uint256",
          "name": "tokenId",
          "type": "uint256"
        },
        {
          "indexed": false,
          "internalType": "uint256[]",
          "name": "nftInfo",
          "type": "uint256[]"
        },
        {
          "indexed": false,
          "internalType": "string",
          "name": "name",
          "type": "string"
        },
        {
          "indexed": false,
          "internalType": "address",
          "name": "payment",
          "type": "address"
        },
        {
          "indexed": false,
          "internalType": "uint256",
          "name": "amount",
          "type": "uint256"
        }
      ],
      "name": "Mint",
      "type": "event"
    },
    {
      "anonymous": false,
      "inputs": [
        {
          "indexed": true,
          "internalType": "address",
          "name": "from",
          "type": "address"
        },
        {
          "indexed": true,
          "internalType": "address",
          "name": "to",
          "type": "address"
        },
        {
          "indexed": true,
          "internalType": "uint256",
          "name": "tokenId",
          "type": "uint256"
        }
      ],
      "name": "Transfer",
      "type": "event"
    },
    {
      "anonymous": false,
      "inputs": [
        {
          "indexed": true,
          "internalType": "uint256",
          "name": "tokenId",
          "type": "uint256"
        },
        {
          "indexed": false,
          "internalType": "enum ILYNKNFT.Attribute",
          "name": "attr",
          "type": "uint8"
        },
        {
          "indexed": false,
          "internalType": "uint256",
          "name": "point",
          "type": "uint256"
        }
      ],
      "name": "Upgrade",
      "type": "event"
    },
    {
      "inputs": [],
      "name": "BLACK_HOLE",
      "outputs": [
        {
          "internalType": "address",
          "name": "",
          "type": "address"
        }
      ],
      "stateMutability": "view",
      "type": "function"
    },
    {
      "inputs": [],
      "name": "DB_CONTRACT",
      "outputs": [
        {
          "internalType": "address",
          "name": "",
          "type": "address"
        }
      ],
      "stateMutability": "view",
      "type": "function"
    },
    {
      "inputs": [],
      "name": "__LYNKNFT_init",
      "outputs": [],
      "stateMutability": "nonpayable",
      "type": "function"
    },
    {
      "inputs": [
        {
          "internalType": "uint256",
          "name": "",
          "type": "uint256"
        }
      ],
      "name": "addedVAInfoOf",
      "outputs": [
        {
          "internalType": "uint128",
          "name": "lastAddedTime",
          "type": "uint128"
        },
        {
          "internalType": "uint128",
          "name": "addedInDuration",
          "type": "uint128"
        }
      ],
      "stateMutability": "view",
      "type": "function"
    },
    {
      "inputs": [
        {
          "internalType": "address",
          "name": "to",
          "type": "address"
        },
        {
          "internalType": "uint256",
          "name": "tokenId",
          "type": "uint256"
        }
      ],
      "name": "approve",
      "outputs": [],
      "stateMutability": "nonpayable",
      "type": "function"
    },
    {
      "inputs": [
        {
          "internalType": "address",
          "name": "owner",
          "type": "address"
        }
      ],
      "name": "balanceOf",
      "outputs": [
        {
          "internalType": "uint256",
          "name": "",
          "type": "uint256"
        }
      ],
      "stateMutability": "view",
      "type": "function"
    },
    {
      "inputs": [],
      "name": "earlyBirdCounter",
      "outputs": [
        {
          "internalType": "uint256",
          "name": "",
          "type": "uint256"
        }
      ],
      "stateMutability": "view",
      "type": "function"
    },
    {
      "inputs": [],
      "name": "earlyBirdMint",
      "outputs": [],
      "stateMutability": "nonpayable",
      "type": "function"
    },
    {
      "inputs": [
        {
          "internalType": "address",
          "name": "",
          "type": "address"
        }
      ],
      "name": "earlyBirdMintedOf",
      "outputs": [
        {
          "internalType": "bool",
          "name": "",
          "type": "bool"
        }
      ],
      "stateMutability": "view",
      "type": "function"
    },
    {
      "inputs": [],
      "name": "earlyBirdWlCounter",
      "outputs": [
        {
          "internalType": "uint256",
          "name": "",
          "type": "uint256"
        }
      ],
      "stateMutability": "view",
      "type": "function"
    },
    {
      "inputs": [],
      "name": "earlyMintInfo",
      "outputs": [
        {
          "internalType": "uint256",
          "name": "_totalNum",
          "type": "uint256"
        },
        {
          "internalType": "uint256",
          "name": "_remainNum",
          "type": "uint256"
        },
        {
          "internalType": "uint256",
          "name": "_nextId",
          "type": "uint256"
        }
      ],
      "stateMutability": "view",
      "type": "function"
    },
    {
      "inputs": [
        {
          "internalType": "uint256",
          "name": "tokenId",
          "type": "uint256"
        }
      ],
      "name": "exists",
      "outputs": [
        {
          "internalType": "bool",
          "name": "",
          "type": "bool"
        }
      ],
      "stateMutability": "view",
      "type": "function"
    },
    {
      "inputs": [
        {
          "internalType": "uint256",
          "name": "tokenId",
          "type": "uint256"
        }
      ],
      "name": "getApproved",
      "outputs": [
        {
          "internalType": "address",
          "name": "",
          "type": "address"
        }
      ],
      "stateMutability": "view",
      "type": "function"
    },
    {
      "inputs": [
        {
          "internalType": "address",
          "name": "owner",
          "type": "address"
        },
        {
          "internalType": "address",
          "name": "operator",
          "type": "address"
        }
      ],
      "name": "isApprovedForAll",
      "outputs": [
        {
          "internalType": "bool",
          "name": "",
          "type": "bool"
        }
      ],
      "stateMutability": "view",
      "type": "function"
    },
    {
      "inputs": [
        {
          "internalType": "uint256",
          "name": "_tokenId",
          "type": "uint256"
        },
        {
          "internalType": "address",
          "name": "_payment",
          "type": "address"
        },
        {
          "internalType": "string",
          "name": "_name",
          "type": "string"
        }
      ],
      "name": "mint",
      "outputs": [],
      "stateMutability": "nonpayable",
      "type": "function"
    },
    {
      "inputs": [
        {
          "internalType": "address",
          "name": "",
          "type": "address"
        }
      ],
      "name": "mintInfoOf",
      "outputs": [
        {
          "internalType": "uint128",
          "name": "lastMintTime",
          "type": "uint128"
        },
        {
          "internalType": "uint128",
          "name": "mintNumInDuration",
          "type": "uint128"
        }
      ],
      "stateMutability": "view",
      "type": "function"
    },
    {
      "inputs": [
        {
          "internalType": "uint256",
          "name": "_tokenId",
          "type": "uint256"
        },
        {
          "internalType": "address",
          "name": "_payment",
          "type": "address"
        },
        {
          "internalType": "string",
          "name": "_name",
          "type": "string"
        },
        {
          "internalType": "uint256",
          "name": "_amount",
          "type": "uint256"
        },
        {
          "internalType": "uint256",
          "name": "deadline",
          "type": "uint256"
        },
        {
          "internalType": "uint8",
          "name": "v",
          "type": "uint8"
        },
        {
          "internalType": "bytes32",
          "name": "r",
          "type": "bytes32"
        },
        {
          "internalType": "bytes32",
          "name": "s",
          "type": "bytes32"
        }
      ],
      "name": "mintWithPermit",
      "outputs": [],
      "stateMutability": "nonpayable",
      "type": "function"
    },
    {
      "inputs": [],
      "name": "name",
      "outputs": [
        {
          "internalType": "string",
          "name": "",
          "type": "string"
        }
      ],
      "stateMutability": "view",
      "type": "function"
    },
    {
      "inputs": [
        {
          "internalType": "string",
          "name": "",
          "type": "string"
        }
      ],
      "name": "nameUsed",
      "outputs": [
        {
          "internalType": "bool",
          "name": "",
          "type": "bool"
        }
      ],
      "stateMutability": "view",
      "type": "function"
    },
    {
      "inputs": [
        {
          "internalType": "uint256",
          "name": "",
          "type": "uint256"
        },
        {
          "internalType": "uint256",
          "name": "",
          "type": "uint256"
        }
      ],
      "name": "nftInfo",
      "outputs": [
        {
          "internalType": "uint256",
          "name": "",
          "type": "uint256"
        }
      ],
      "stateMutability": "view",
      "type": "function"
    },
    {
      "inputs": [
        {
          "internalType": "uint256",
          "name": "_tokenId",
          "type": "uint256"
        }
      ],
      "name": "nftInfoOf",
      "outputs": [
        {
          "internalType": "uint256[]",
          "name": "_nftInfo",
          "type": "uint256[]"
        }
      ],
      "stateMutability": "view",
      "type": "function"
    },
    {
      "inputs": [
        {
          "internalType": "uint256",
          "name": "tokenId",
          "type": "uint256"
        }
      ],
      "name": "ownerOf",
      "outputs": [
        {
          "internalType": "address",
          "name": "",
          "type": "address"
        }
      ],
      "stateMutability": "view",
      "type": "function"
    },
    {
      "inputs": [
        {
          "internalType": "address",
          "name": "_refAddress",
          "type": "address"
        }
      ],
      "name": "refEarlyBirdMint",
      "outputs": [],
      "stateMutability": "nonpayable",
      "type": "function"
    },
    {
      "inputs": [
        {
          "internalType": "address",
          "name": "from",
          "type": "address"
        },
        {
          "internalType": "address",
          "name": "to",
          "type": "address"
        },
        {
          "internalType": "uint256",
          "name": "tokenId",
          "type": "uint256"
        }
      ],
      "name": "safeTransferFrom",
      "outputs": [],
      "stateMutability": "nonpayable",
      "type": "function"
    },
    {
      "inputs": [
        {
          "internalType": "address",
          "name": "from",
          "type": "address"
        },
        {
          "internalType": "address",
          "name": "to",
          "type": "address"
        },
        {
          "internalType": "uint256",
          "name": "tokenId",
          "type": "uint256"
        },
        {
          "internalType": "bytes",
          "name": "data",
          "type": "bytes"
        }
      ],
      "name": "safeTransferFrom",
      "outputs": [],
      "stateMutability": "nonpayable",
      "type": "function"
    },
    {
      "inputs": [
        {
          "internalType": "address",
          "name": "operator",
          "type": "address"
        },
        {
          "internalType": "bool",
          "name": "approved",
          "type": "bool"
        }
      ],
      "name": "setApprovalForAll",
      "outputs": [],
      "stateMutability": "nonpayable",
      "type": "function"
    },
    {
      "inputs": [
        {
          "internalType": "bytes4",
          "name": "interfaceId",
          "type": "bytes4"
        }
      ],
      "name": "supportsInterface",
      "outputs": [
        {
          "internalType": "bool",
          "name": "",
          "type": "bool"
        }
      ],
      "stateMutability": "view",
      "type": "function"
    },
    {
      "inputs": [],
      "name": "symbol",
      "outputs": [
        {
          "internalType": "string",
          "name": "",
          "type": "string"
        }
      ],
      "stateMutability": "view",
      "type": "function"
    },
    {
      "inputs": [
        {
          "internalType": "uint256",
          "name": "index",
          "type": "uint256"
        }
      ],
      "name": "tokenByIndex",
      "outputs": [
        {
          "internalType": "uint256",
          "name": "",
          "type": "uint256"
        }
      ],
      "stateMutability": "view",
      "type": "function"
    },
    {
      "inputs": [
        {
          "internalType": "address",
          "name": "owner",
          "type": "address"
        },
        {
          "internalType": "uint256",
          "name": "index",
          "type": "uint256"
        }
      ],
      "name": "tokenOfOwnerByIndex",
      "outputs": [
        {
          "internalType": "uint256",
          "name": "",
          "type": "uint256"
        }
      ],
      "stateMutability": "view",
      "type": "function"
    },
    {
      "inputs": [
        {
          "internalType": "uint256",
          "name": "tokenId",
          "type": "uint256"
        }
      ],
      "name": "tokenURI",
      "outputs": [
        {
          "internalType": "string",
          "name": "",
          "type": "string"
        }
      ],
      "stateMutability": "view",
      "type": "function"
    },
    {
      "inputs": [],
      "name": "totalSupply",
      "outputs": [
        {
          "internalType": "uint256",
          "name": "",
          "type": "uint256"
        }
      ],
      "stateMutability": "view",
      "type": "function"
    },
    {
      "inputs": [
        {
          "internalType": "address",
          "name": "from",
          "type": "address"
        },
        {
          "internalType": "address",
          "name": "to",
          "type": "address"
        },
        {
          "internalType": "uint256",
          "name": "tokenId",
          "type": "uint256"
        }
      ],
      "name": "transferFrom",
      "outputs": [],
      "stateMutability": "nonpayable",
      "type": "function"
    },
    {
      "inputs": [
        {
          "internalType": "enum ILYNKNFT.Attribute",
          "name": "_attr",
          "type": "uint8"
        },
        {
          "internalType": "uint256",
          "name": "_tokenId",
          "type": "uint256"
        },
        {
          "internalType": "uint256",
          "name": "_point",
          "type": "uint256"
        },
        {
          "internalType": "address",
          "name": "_payment",
          "type": "address"
        }
      ],
      "name": "upgrade",
      "outputs": [],
      "stateMutability": "nonpayable",
      "type": "function"
    },
    {
      "inputs": [
        {
          "internalType": "enum ILYNKNFT.Attribute",
          "name": "_attr",
          "type": "uint8"
        },
        {
          "internalType": "uint256",
          "name": "_tokenId",
          "type": "uint256"
        },
        {
          "internalType": "uint256",
          "name": "_point",
          "type": "uint256"
        },
        {
          "internalType": "address",
          "name": "_payment",
          "type": "address"
        },
        {
          "internalType": "uint256",
          "name": "_amount",
          "type": "uint256"
        },
        {
          "internalType": "uint256",
          "name": "deadline",
          "type": "uint256"
        },
        {
          "internalType": "uint8",
          "name": "v",
          "type": "uint8"
        },
        {
          "internalType": "bytes32",
          "name": "r",
          "type": "bytes32"
        },
        {
          "internalType": "bytes32",
          "name": "s",
          "type": "bytes32"
        }
      ],
      "name": "upgradeWithPermit",
      "outputs": [],
      "stateMutability": "nonpayable",
      "type": "function"
    }
  ],
  "transactionHash": "0xc4267207ae1784d437620f1dc53db5b701aeda147b6f972e5f11e87336fbd458",
  "args": [
    "0x49BB37B72Bc6Be7c36337FF787ab53E8196639C1"
  ],
  "numDeployments": 1,
  "solcInputHash": "525025893565bdb4b632bbdfd99a5c2c",
  "bytecode": "0x60a06040523480156200001157600080fd5b50604051620051fc380380620051fc833981016040819052620000349162000046565b6001600160a01b031660805262000078565b6000602082840312156200005957600080fd5b81516001600160a01b03811681146200007157600080fd5b9392505050565b6080516150886200017460003960008181610409015281816107880152818161093401528181610bb001528181610d6601528181610e0b01528181610f71015281816114ed01528181611651015281816117d701528181611905015281816119b501528181611e6c01528181612004015281816120dd015281816123d001528181612497015281816126a6015281816128830152818161292e01528181612a5c01528181612b3401528181612c9101528181612d6f01528181612ec1015281816130a90152818161331e015281816133c2015281816137b601528181613861015281816139bc01528181613a7b0152613ad301526150886000f3fe608060405234801561001057600080fd5b50600436106102115760003560e01c806370a0823111610125578063c87b56dd116100ad578063dcefcebc1161007c578063dcefcebc146104e2578063dfa2eec014610502578063e1621a0714610515578063e67e402c14610538578063e985e9c51461054b57600080fd5b8063c87b56dd14610496578063cabaa177146104a9578063cb97200e146104bc578063d49cf8e3146104cf57600080fd5b8063a22cb465116100f4578063a22cb4651461042b578063a70687ae1461043e578063b6fc133a14610447578063b77c05551461047b578063b88d4fde1461048357600080fd5b806370a08231146103e15780637f6c7bc7146103f457806395d89b41146103fc5780639ccea0cd1461040457600080fd5b80632f745c59116101a85780634f6ccce7116101775780634f6ccce71461038657806355eda4e81461039957806357e1f309146103a25780636352211e146103c55780636bc3d0a0146103d857600080fd5b80632f745c59146102f95780633f8336e31461030c57806342842e0e146103605780634f558e791461037357600080fd5b80630b9b6e8b116101e45780630b9b6e8b1461029357806312bf27b0146102c157806318160ddd146102d457806323b872dd146102e657600080fd5b806301ffc9a71461021657806306fdde031461023e578063081812fc14610253578063095ea7b31461027e575b600080fd5b6102296102243660046143f1565b610587565b60405190151581526020015b60405180910390f35b6102466105b2565b6040516102359190614466565b610266610261366004614479565b610644565b6040516001600160a01b039091168152602001610235565b61029161028c3660046144a7565b61066b565b005b6102296102a1366004614580565b805160208183018101805160cc8252928201919093012091525460ff1681565b6102916102cf3660046145c9565b610786565b6099545b604051908152602001610235565b6102916102f43660046145e6565b610a12565b6102d86103073660046144a7565b610a43565b61034061031a366004614479565b60cd602052600090815260409020546001600160801b0380821691600160801b90041682565b604080516001600160801b03938416815292909116602083015201610235565b61029161036e3660046145e6565b610ad9565b610229610381366004614479565b610af4565b6102d8610394366004614479565b610b13565b61026661dead81565b6103aa610ba6565b60408051938452602084019290925290820152606001610235565b6102666103d3366004614479565b610c76565b6102d860ce5481565b6102d86103ef3660046145c9565b610cd6565b610291610d5c565b610246611007565b6102667f000000000000000000000000000000000000000000000000000000000000000081565b610291610439366004614635565b611016565b6102d860cf5481565b6103406104553660046145c9565b60cb602052600090815260409020546001600160801b0380821691600160801b90041682565b610291611025565b61029161049136600461466e565b61118d565b6102466104a4366004614479565b6111c5565b6102916104b7366004614746565b61122c565b6102916104ca3660046147f4565b6112ad565b6102916104dd366004614878565b611323565b6104f56104f0366004614479565b61132f565b60405161023591906148c0565b6102d8610510366004614904565b611391565b6102296105233660046145c9565b60d06020526000908152604090205460ff1681565b610291610546366004614926565b6113c2565b610229610559366004614982565b6001600160a01b039182166000908152606a6020908152604080832093909416825291909152205460ff1690565b60006001600160e01b0319821663780e9d6360e01b14806105ac57506105ac826113ce565b92915050565b6060606580546105c1906149b0565b80601f01602080910402602001604051908101604052809291908181526020018280546105ed906149b0565b801561063a5780601f1061060f5761010080835404028352916020019161063a565b820191906000526020600020905b81548152906001019060200180831161061d57829003601f168201915b5050505050905090565b600061064f8261141e565b506000908152606960205260409020546001600160a01b031690565b600061067682610c76565b9050806001600160a01b0316836001600160a01b031614156106e95760405162461bcd60e51b815260206004820152602160248201527f4552433732313a20617070726f76616c20746f2063757272656e74206f776e656044820152603960f91b60648201526084015b60405180910390fd5b336001600160a01b038216148061070557506107058133610559565b6107775760405162461bcd60e51b815260206004820152603e60248201527f4552433732313a20617070726f76652063616c6c6572206973206e6f7420746f60448201527f6b656e206f776e6572206e6f7220617070726f76656420666f7220616c6c000060648201526084016106e0565b610781838361147d565b505050565b7f00000000000000000000000000000000000000000000000000000000000000006001600160a01b031663fa1785fe6040518163ffffffff1660e01b815260040160206040518083038186803b1580156107df57600080fd5b505afa1580156107f3573d6000803e3d6000fd5b505050506040513d601f19601f8201168201806040525081019061081791906149eb565b6001600160a01b031663f3c95c60336040516001600160e01b031960e084901b1681526001600160a01b03909116600482015260240160206040518083038186803b15801561086557600080fd5b505afa158015610879573d6000803e3d6000fd5b505050506040513d601f19601f8201168201806040525081019061089d9190614a08565b15806108b8575033600090815260d0602052604090205460ff165b6109155760405162461bcd60e51b815260206004820152602860248201527f4c594e4b4e46543a20706c656173652063616c6c2077697468206561726c794260448201526734b93226b4b73a1760c11b60648201526084016106e0565b6040516354c1498d60e01b81526001600160a01b0382811660048301527f000000000000000000000000000000000000000000000000000000000000000016906354c1498d9060240160206040518083038186803b15801561097657600080fd5b505afa15801561098a573d6000803e3d6000fd5b505050506040513d601f19601f820116820180604052508101906109ae9190614a08565b610a065760405162461bcd60e51b815260206004820152602360248201527f4c594e4b4e46543a207265662061646472657373206e6f7420696e20746865206044820152623bb61760e91b60648201526084016106e0565b610a0f816114eb565b50565b610a1c3382611ad8565b610a385760405162461bcd60e51b81526004016106e090614a25565b610781838383611b57565b6000610a4e83610cd6565b8210610ab05760405162461bcd60e51b815260206004820152602b60248201527f455243373231456e756d657261626c653a206f776e657220696e646578206f7560448201526a74206f6620626f756e647360a81b60648201526084016106e0565b506001600160a01b03919091166000908152609760209081526040808320938352929052205490565b6107818383836040518060200160405280600081525061118d565b6000818152606760205260408120546001600160a01b031615156105ac565b6000610b1e60995490565b8210610b815760405162461bcd60e51b815260206004820152602c60248201527f455243373231456e756d657261626c653a20676c6f62616c20696e646578206f60448201526b7574206f6620626f756e647360a01b60648201526084016106e0565b60998281548110610b9457610b94614a73565b90600052602060002001549050919050565b60008060008060007f00000000000000000000000000000000000000000000000000000000000000006001600160a01b031663be1888116040518163ffffffff1660e01b8152600401604080518083038186803b158015610c0657600080fd5b505afa158015610c1a573d6000803e3d6000fd5b505050506040513d601f19601f82011682018060405250810190610c3e9190614a89565b9092509050610c4d8282614ac3565b945060ce5485610c5d9190614ac3565b935060ce5482610c6d9190614ada565b92505050909192565b6000818152606760205260408120546001600160a01b0316806105ac5760405162461bcd60e51b8152602060048201526018602482015277115490cdcc8c4e881a5b9d985b1a59081d1bdad95b88125160421b60448201526064016106e0565b60006001600160a01b038216610d405760405162461bcd60e51b815260206004820152602960248201527f4552433732313a2061646472657373207a65726f206973206e6f7420612076616044820152683634b21037bbb732b960b91b60648201526084016106e0565b506001600160a01b031660009081526068602052604090205490565b6001600160a01b037f0000000000000000000000000000000000000000000000000000000000000000166354c1498d336040516001600160e01b031960e084901b1681526001600160a01b03909116600482015260240160206040518083038186803b158015610dcb57600080fd5b505afa158015610ddf573d6000803e3d6000fd5b505050506040513d601f19601f82011682018060405250810190610e039190614a08565b80610f2057507f00000000000000000000000000000000000000000000000000000000000000006001600160a01b031663fa1785fe6040518163ffffffff1660e01b815260040160206040518083038186803b158015610e6257600080fd5b505afa158015610e76573d6000803e3d6000fd5b505050506040513d601f19601f82011682018060405250810190610e9a91906149eb565b6001600160a01b031663f3c95c60336040516001600160e01b031960e084901b1681526001600160a01b03909116600482015260240160206040518083038186803b158015610ee857600080fd5b505afa158015610efc573d6000803e3d6000fd5b505050506040513d601f19601f82011682018060405250810190610f209190614a08565b610f6c5760405162461bcd60e51b815260206004820152601d60248201527f4c594e4b4e46543a206e6f7420612076616c696420616464726573732e00000060448201526064016106e0565b6110057f00000000000000000000000000000000000000000000000000000000000000006001600160a01b031663aaa2b8c86040518163ffffffff1660e01b815260040160206040518083038186803b158015610fc857600080fd5b505afa158015610fdc573d6000803e3d6000fd5b505050506040513d601f19601f8201168201806040525081019061100091906149eb565b6114eb565b565b6060606680546105c1906149b0565b611021338383611cfe565b5050565b600054610100900460ff16158080156110455750600054600160ff909116105b8061105f5750303b15801561105f575060005460ff166001145b6110c25760405162461bcd60e51b815260206004820152602e60248201527f496e697469616c697a61626c653a20636f6e747261637420697320616c72656160448201526d191e481a5b9a5d1a585b1a5e995960921b60648201526084016106e0565b6000805460ff1916600117905580156110e5576000805461ff0019166101001790555b6110ed611dcd565b6110f5611dd5565b61113d6040518060400160405280600781526020016613165392d3919560ca1b8152506040518060400160405280600781526020016613165392d3919560ca1b815250611dfc565b611145611e2d565b8015610a0f576000805461ff0019169055604051600181527f7f26b83ff96e1f2b6a682f133852f6798a09c465da95921460cefb38474024989060200160405180910390a150565b6111973383611ad8565b6111b35760405162461bcd60e51b81526004016106e090614a25565b6111bf84848484611e35565b50505050565b60606111d08261141e565b60006111da611e68565b905060008151116111fa5760405180602001604052806000815250611225565b8061120484611f04565b604051602001611215929190614af2565b6040516020818303038152906040525b9392505050565b60405163d505accf60e01b81526001600160a01b0389169063d505accf9061126490339030908a908a908a908a908a90600401614b21565b600060405180830381600087803b15801561127e57600080fd5b505af1158015611292573d6000803e3d6000fd5b505050506112a289898989612002565b505050505050505050565b60405163d505accf60e01b81526001600160a01b0387169063d505accf906112e590339030908a908a908a908a908a90600401614b21565b600060405180830381600087803b1580156112ff57600080fd5b505af1158015611313573d6000803e3d6000fd5b505050506112a2898989896126a4565b6111bf848484846126a4565b600081815260ca602090815260409182902080548351818402810184019094528084526060939283018282801561138557602002820191906000526020600020905b815481526020019060010190808311611371575b50505050509050919050565b60ca60205281600052604060002081815481106113ad57600080fd5b90600052602060002001600091509150505481565b6111bf84848484612002565b60006001600160e01b031982166380ac58cd60e01b14806113ff57506001600160e01b03198216635b5e139f60e01b145b806105ac57506301ffc9a760e01b6001600160e01b03198316146105ac565b6000818152606760205260409020546001600160a01b0316610a0f5760405162461bcd60e51b8152602060048201526018602482015277115490cdcc8c4e881a5b9d985b1a59081d1bdad95b88125160421b60448201526064016106e0565b600081815260696020526040902080546001600160a01b0319166001600160a01b03841690811790915581906114b282610c76565b6001600160a01b03167f8c5be1e5ebec7d5bd14f71427d1e84f3dd0314c0f7b2291e5b200ac8c7c3b92560405160405180910390a45050565b7f00000000000000000000000000000000000000000000000000000000000000006001600160a01b031663ea0d14656040518163ffffffff1660e01b815260040160206040518083038186803b15801561154457600080fd5b505afa158015611558573d6000803e3d6000fd5b505050506040513d601f19601f8201168201806040525081019061157c9190614a08565b6115c45760405162461bcd60e51b8152602060048201526019602482015278262ca725a7232a1d1031b0b73737ba1036b4b73a103cb2ba1760391b60448201526064016106e0565b33600090815260d0602052604090205460ff16156116245760405162461bcd60e51b815260206004820152601860248201527f4c594e4b4e46543a20616c7265616479206d696e7465642e000000000000000060448201526064016106e0565b33600090815260d060209081526040808320805460ff191660011790558051637d0bc2ff60e11b815290517f00000000000000000000000000000000000000000000000000000000000000006001600160a01b03169263fa1785fe9260048082019391829003018186803b15801561169b57600080fd5b505afa1580156116af573d6000803e3d6000fd5b505050506040513d601f19601f820116820180604052508101906116d391906149eb565b90506001600160a01b03811663f3c95c60336040516001600160e01b031960e084901b1681526001600160a01b03909116600482015260240160206040518083038186803b15801561172457600080fd5b505afa158015611738573d6000803e3d6000fd5b505050506040513d601f19601f8201168201806040525081019061175c9190614a08565b6117d2576001600160a01b0381166323b3f2a5336040516001600160e01b031960e084901b1681526001600160a01b0391821660048201529085166024820152604401600060405180830381600087803b1580156117b957600080fd5b505af11580156117cd573d6000803e3d6000fd5b505050505b6000807f00000000000000000000000000000000000000000000000000000000000000006001600160a01b031663be1888116040518163ffffffff1660e01b8152600401604080518083038186803b15801561182d57600080fd5b505afa158015611841573d6000803e3d6000fd5b505050506040513d601f19601f820116820180604052508101906118659190614a89565b91509150600060ce54836118799190614ada565b90508181106118bf5760405162461bcd60e51b8152602060048201526012602482015271262ca725a7232a1d1039b7b6321037baba1760711b60448201526064016106e0565b60ce80549060006118cf83614b62565b919050555060006118df82611f04565b6040516020016118ef9190614b7d565b60405160208183030381529060405290506000807f00000000000000000000000000000000000000000000000000000000000000006001600160a01b0316637af0cac36040518163ffffffff1660e01b8152600401604080518083038186803b15801561195b57600080fd5b505afa15801561196f573d6000803e3d6000fd5b505050506040513d601f19601f820116820180604052508101906119939190614ba6565b915091506119a8826119a23390565b836131cd565b60405180608001604052807f00000000000000000000000000000000000000000000000000000000000000006001600160a01b03166364db03b86040518163ffffffff1660e01b815260040160206040518083038186803b158015611a0c57600080fd5b505afa158015611a20573d6000803e3d6000fd5b505050506040513d601f19601f82011682018060405250810190611a449190614bd4565b8152600060208083018290526040808401839052606090930182905287825260ca905220611a73916004614308565b50611a7e338561347a565b837f43332af98367d01c3bc9be42717917c42e1bd0084f4cdad927e9b4c06471d35160ca6000878152602001908152602001600020858585604051611ac69493929190614bed565b60405180910390a25050505050505050565b600080611ae483610c76565b9050806001600160a01b0316846001600160a01b03161480611b2b57506001600160a01b038082166000908152606a602090815260408083209388168352929052205460ff165b80611b4f5750836001600160a01b0316611b4484610644565b6001600160a01b0316145b949350505050565b826001600160a01b0316611b6a82610c76565b6001600160a01b031614611bce5760405162461bcd60e51b815260206004820152602560248201527f4552433732313a207472616e736665722066726f6d20696e636f72726563742060448201526437bbb732b960d91b60648201526084016106e0565b6001600160a01b038216611c305760405162461bcd60e51b8152602060048201526024808201527f4552433732313a207472616e7366657220746f20746865207a65726f206164646044820152637265737360e01b60648201526084016106e0565b611c3b838383613494565b611c4660008261147d565b6001600160a01b0383166000908152606860205260408120805460019290611c6f908490614ac3565b90915550506001600160a01b0382166000908152606860205260408120805460019290611c9d908490614ada565b909155505060008181526067602052604080822080546001600160a01b0319166001600160a01b0386811691821790925591518493918716917fddf252ad1be2c89b69c2b068fc378daa952ba7f163c4a11628f55a4df523b3ef91a4505050565b816001600160a01b0316836001600160a01b03161415611d605760405162461bcd60e51b815260206004820152601960248201527f4552433732313a20617070726f766520746f2063616c6c65720000000000000060448201526064016106e0565b6001600160a01b038381166000818152606a6020908152604080832094871680845294825291829020805460ff191686151590811790915591519182527f17307eab39ab6107e8899845ad3d59bd9653f200f220920489ca2b5937696c31910160405180910390a3505050565b610a0f61354c565b600054610100900460ff166110055760405162461bcd60e51b81526004016106e090614c60565b600054610100900460ff16611e235760405162461bcd60e51b81526004016106e090614c60565b611021828261358e565b611005611dd5565b611e40848484611b57565b611e4c848484846135dc565b6111bf5760405162461bcd60e51b81526004016106e090614cab565b60607f00000000000000000000000000000000000000000000000000000000000000006001600160a01b031663d547cfb76040518163ffffffff1660e01b815260040160006040518083038186803b158015611ec357600080fd5b505afa158015611ed7573d6000803e3d6000fd5b505050506040513d6000823e601f3d908101601f19168201604052611eff9190810190614cfd565b905090565b606081611f285750506040805180820190915260018152600360fc1b602082015290565b8160005b8115611f525780611f3c81614b62565b9150611f4b9050600a83614d8a565b9150611f2c565b60008167ffffffffffffffff811115611f6d57611f6d6144d3565b6040519080825280601f01601f191660200182016040528015611f97576020820181803683370190505b5090505b8415611b4f57611fac600183614ac3565b9150611fb9600a86614d9e565b611fc4906030614ada565b60f81b818381518110611fd957611fd9614a73565b60200101906001600160f81b031916908160001a905350611ffb600a86614d8a565b9450611f9b565b7f00000000000000000000000000000000000000000000000000000000000000006001600160a01b03166366227eb96040518163ffffffff1660e01b815260040160206040518083038186803b15801561205b57600080fd5b505afa15801561206f573d6000803e3d6000fd5b505050506040513d601f19601f820116820180604052508101906120939190614a08565b6120db5760405162461bcd60e51b8152602060048201526019602482015278262ca725a7232a1d1031b0b73737ba1036b4b73a103cb2ba1760391b60448201526064016106e0565b7f00000000000000000000000000000000000000000000000000000000000000006001600160a01b031663fa1785fe6040518163ffffffff1660e01b815260040160206040518083038186803b15801561213457600080fd5b505afa158015612148573d6000803e3d6000fd5b505050506040513d601f19601f8201168201806040525081019061216c91906149eb565b6001600160a01b031663f3c95c60336040516001600160e01b031960e084901b1681526001600160a01b03909116600482015260240160206040518083038186803b1580156121ba57600080fd5b505afa1580156121ce573d6000803e3d6000fd5b505050506040513d601f19601f820116820180604052508101906121f29190614a08565b61223e5760405162461bcd60e51b815260206004820152601a60248201527f4c594e4b4e46543a206e6f7420612076616c696420757365722e00000000000060448201526064016106e0565b60cc8282604051612250929190614db2565b9081526040519081900360200190205460ff16156122b05760405162461bcd60e51b815260206004820152601e60248201527f4c594e4b4e46543a206e616d6520616c726561647920696e20757365642e000060448201526064016106e0565b6122ef82828080601f0160208091040260200160405190810160405280939291908181526020018383808284376000920191909152506136e992505050565b1561233c5760405162461bcd60e51b815260206004820152601760248201527f4c594e4b4e46543a207265766572736564206e616d652e00000000000000000060448201526064016106e0565b600160cc8383604051612350929190614db2565b908152604051908190036020019020805491151560ff19909216919091179055600060cb8161237c3390565b6001600160a01b03908116825260208083019390935260409182016000208251808401845290546001600160801b038082168352600160801b909104168185015282516303ed69ad60e21b815292519094507f000000000000000000000000000000000000000000000000000000000000000090911692630fb5a6b49260048082019391829003018186803b15801561241457600080fd5b505afa158015612428573d6000803e3d6000fd5b505050506040513d601f19601f8201168201806040525081019061244c9190614bd4565b8151612461906001600160801b031642614ac3565b10612495576000602082810182905233825260cb90526040902080546001600160801b031916426001600160801b03161790555b7f00000000000000000000000000000000000000000000000000000000000000006001600160a01b031663600a2f826040518163ffffffff1660e01b815260040160206040518083038186803b1580156124ee57600080fd5b505afa158015612502573d6000803e3d6000fd5b505050506040513d601f19601f820116820180604052508101906125269190614bd4565b81602001516001600160801b03161061258d5760405162461bcd60e51b815260206004820152602360248201527f4c594e4b4e46543a2063616e6e6f74206d696e74206d6f726520696e2061206460448201526230bc9760e91b60648201526084016106e0565b602081015161259d906001614dc2565b33600090815260cb6020526040812080546001600160801b03938416600160801b029316929092179091556125d286866137a8565b90506125de85336119a2565b6000806125ea33613c07565b91509150604051806080016040528060008152602001838152602001828152602001600081525060ca60008a8152602001908152602001600020906004612632929190614308565b5061263d338961347a565b877f43332af98367d01c3bc9be42717917c42e1bd0084f4cdad927e9b4c06471d35160ca60008b81526020019081526020016000208888604051602001612685929190614de4565b60408051601f1981840301815290829052611ac692918c908990614bed565b7f00000000000000000000000000000000000000000000000000000000000000006001600160a01b031663fa1785fe6040518163ffffffff1660e01b815260040160206040518083038186803b1580156126fd57600080fd5b505afa158015612711573d6000803e3d6000fd5b505050506040513d601f19601f8201168201806040525081019061273591906149eb565b6001600160a01b031663f3c95c60336040516001600160e01b031960e084901b1681526001600160a01b03909116600482015260240160206040518083038186803b15801561278357600080fd5b505afa158015612797573d6000803e3d6000fd5b505050506040513d601f19601f820116820180604052508101906127bb9190614a08565b6128075760405162461bcd60e51b815260206004820152601a60248201527f4c594e4b4e46543a206e6f7420612076616c696420757365722e00000000000060448201526064016106e0565b323314801561282657503361281b84610c76565b6001600160a01b0316145b61286b5760405162461bcd60e51b8152602060048201526016602482015275262ca725a7232a1d103737ba103a34329037bbb732b960511b60448201526064016106e0565b83600381111561287d5761287d614dfe565b6129f3577f00000000000000000000000000000000000000000000000000000000000000006001600160a01b03166377b330c96040518163ffffffff1660e01b815260040160206040518083038186803b1580156128da57600080fd5b505afa1580156128ee573d6000803e3d6000fd5b505050506040513d601f19601f8201168201806040525081019061291291906149eb565b6001600160a01b0316816001600160a01b031614806129d257507f00000000000000000000000000000000000000000000000000000000000000006001600160a01b0316633b87436b6040518163ffffffff1660e01b815260040160206040518083038186803b15801561298557600080fd5b505afa158015612999573d6000803e3d6000fd5b505050506040513d601f19601f820116820180604052508101906129bd91906149eb565b6001600160a01b0316816001600160a01b0316145b6129ee5760405162461bcd60e51b81526004016106e090614e14565b612f80565b836003811115612a0557612a05614dfe565b60011415612c6b57600083815260cd60209081526040918290208251808401845290546001600160801b038082168352600160801b909104168183015282516303ed69ad60e21b8152925190926001600160a01b037f00000000000000000000000000000000000000000000000000000000000000001692630fb5a6b492600480840193829003018186803b158015612a9d57600080fd5b505afa158015612ab1573d6000803e3d6000fd5b505050506040513d601f19601f82011682018060405250810190612ad59190614bd4565b8151612aea906001600160801b031642614ac3565b10612b1e576000602082810182905285825260cd90526040902080546001600160801b0319166001600160801b0342161790555b60405163317369c560e11b8152600481018590527f00000000000000000000000000000000000000000000000000000000000000006001600160a01b0316906362e6d38a9060240160206040518083038186803b158015612b7e57600080fd5b505afa158015612b92573d6000803e3d6000fd5b505050506040513d601f19601f82011682018060405250810190612bb69190614bd4565b8382602001516001600160801b0316612bcf9190614ada565b1115612c2c5760405162461bcd60e51b815260206004820152602660248201527f4c594e4b4e46543a2063616e6e6f742075706772616465206d6f726520696e2060448201526530903230bc9760d11b60648201526084016106e0565b828160200151612c3c9190614dc2565b600085815260cd6020526040902080546001600160801b03928316600160801b02921691909117905550612ebf565b60006001856003811115612c8157612c81614dfe565b612c8b9190614ac3565b905060007f00000000000000000000000000000000000000000000000000000000000000006001600160a01b031663b2cd99af836003811115612cd057612cd0614dfe565b600088815260ca60205260409020805486908110612cf057612cf0614a73565b90600052602060002001546040518363ffffffff1660e01b8152600401612d18929190614e4b565b604080518083038186803b158015612d2f57600080fd5b505afa158015612d43573d6000803e3d6000fd5b505050506040513d601f19601f82011682018060405250810190612d679190614a89565b5090506000807f00000000000000000000000000000000000000000000000000000000000000006001600160a01b031663b2cd99af8960ca60008b81526020019081526020016000208b6003811115612dc257612dc2614dfe565b81548110612dd257612dd2614a73565b906000526020600020015489612de89190614ada565b6040518363ffffffff1660e01b8152600401612e05929190614e4b565b604080518083038186803b158015612e1c57600080fd5b505afa158015612e30573d6000803e3d6000fd5b505050506040513d601f19601f82011682018060405250810190612e549190614a89565b9150915081831180612e6e57508183148015612e6e575080155b612eba5760405162461bcd60e51b815260206004820152601860248201527f4c594e4b4e46543a206c6576656c206f766572666c6f772e000000000000000060448201526064016106e0565b505050505b7f00000000000000000000000000000000000000000000000000000000000000006001600160a01b031663c2e30dd06040518163ffffffff1660e01b815260040160206040518083038186803b158015612f1857600080fd5b505afa158015612f2c573d6000803e3d6000fd5b505050506040513d601f19601f82011682018060405250810190612f5091906149eb565b6001600160a01b0316816001600160a01b031614612f805760405162461bcd60e51b81526004016106e090614e14565b6000816001600160a01b031663313ce5676040518163ffffffff1660e01b815260040160206040518083038186803b158015612fbb57600080fd5b505afa158015612fcf573d6000803e3d6000fd5b505050506040513d601f19601f82011682018060405250810190612ff39190614e77565b60ff169050600061300582600a614f78565b61300f9085614f84565b905061301b83336119a2565b600085815260ca60205260409020849087600381111561303d5761303d614dfe565b8154811061304d5761304d614a73565b9060005260206000200160008282546130669190614ada565b92505081905550847f6a4348800167e375a04ba455a3563b96544c3d4a8662a4ca79307485fb6dbfc1878660405161309f929190614e4b565b60405180910390a27f00000000000000000000000000000000000000000000000000000000000000006001600160a01b031663fa1785fe6040518163ffffffff1660e01b815260040160206040518083038186803b15801561310057600080fd5b505afa158015613114573d6000803e3d6000fd5b505050506040513d601f19601f8201168201806040525081019061313891906149eb565b6001600160a01b031663562afdf53388600381111561315957613159614dfe565b15613165576000613167565b865b6040516001600160e01b031960e085901b1681526001600160a01b0390921660048301526024820152604401600060405180830381600087803b1580156131ad57600080fd5b505af11580156131c1573d6000803e3d6000fd5b50505050505050505050565b6001600160a01b0383166132365780341461322a5760405162461bcd60e51b815260206004820152601c60248201527f62617365436f6e74726163743a20696e76616c69642076616c75652e0000000060448201526064016106e0565b61078161dead82613c9e565b604051636eb1769f60e11b81526001600160a01b03838116600483015230602483015282919085169063dd62ed3e9060440160206040518083038186803b15801561328057600080fd5b505afa158015613294573d6000803e3d6000fd5b505050506040513d601f19601f820116820180604052508101906132b89190614bd4565b10156133125760405162461bcd60e51b8152602060048201526024808201527f62617365436f6e74726163743a20696e73756666696369656e7420616c6c6f77604482015263616e636560e01b60648201526084016106e0565b826001600160a01b03167f00000000000000000000000000000000000000000000000000000000000000006001600160a01b03166377b330c96040518163ffffffff1660e01b815260040160206040518083038186803b15801561337557600080fd5b505afa158015613389573d6000803e3d6000fd5b505050506040513d601f19601f820116820180604052508101906133ad91906149eb565b6001600160a01b0316141561346357610781827f00000000000000000000000000000000000000000000000000000000000000006001600160a01b0316630b00fd546040518163ffffffff1660e01b815260040160206040518083038186803b15801561341957600080fd5b505afa15801561342d573d6000803e3d6000fd5b505050506040513d601f19601f8201168201806040525081019061345191906149eb565b6001600160a01b038616919084613db7565b6107816001600160a01b0384168361dead84613db7565b611021828260405180602001604052806000815250613e11565b6001600160a01b0383166134ef576134ea81609980546000838152609a60205260408120829055600182018355919091527f72a152ddfb8e864297c917af52ea6c1c68aead0fee1a62673fcc7e0c94979d000155565b613512565b816001600160a01b0316836001600160a01b031614613512576135128382613e44565b6001600160a01b0382166135295761078181613ee1565b826001600160a01b0316826001600160a01b031614610781576107818282613f90565b60c954604080516020810192909252429082015244606082015260009060800160408051601f19818403018152919052805160209091012060c9819055919050565b600054610100900460ff166135b55760405162461bcd60e51b81526004016106e090614c60565b81516135c8906065906020850190614353565b508051610781906066906020840190614353565b60006001600160a01b0384163b156136de57604051630a85bd0160e11b81526001600160a01b0385169063150b7a0290613620903390899088908890600401614fa3565b602060405180830381600087803b15801561363a57600080fd5b505af192505050801561366a575060408051601f3d908101601f1916820190925261366791810190614fe0565b60015b6136c4573d808015613698576040519150601f19603f3d011682016040523d82523d6000602084013e61369d565b606091505b5080516136bc5760405162461bcd60e51b81526004016106e090614cab565b805181602001fd5b6001600160e01b031916630a85bd0160e11b149050611b4f565b506001949350505050565b60008181805b825181101561379b57603083828151811061370c5761370c614a73565b016020015160f81c10806137395750603983828151811061372f5761372f614a73565b016020015160f81c115b1561374957506000949350505050565b603083828151811061375d5761375d614a73565b016020015161376f919060f81c614ffd565b60ff1661377d83600a614f84565b6137879190614ada565b91508061379381614b62565b9150506136ef565b50620186a0119392505050565b6000816001600160a01b03167f00000000000000000000000000000000000000000000000000000000000000006001600160a01b0316633b87436b6040518163ffffffff1660e01b815260040160206040518083038186803b15801561380d57600080fd5b505afa158015613821573d6000803e3d6000fd5b505050506040513d601f19601f8201168201806040525081019061384591906149eb565b6001600160a01b031614806138fb5750816001600160a01b03167f00000000000000000000000000000000000000000000000000000000000000006001600160a01b03166377b330c96040518163ffffffff1660e01b815260040160206040518083038186803b1580156138b857600080fd5b505afa1580156138cc573d6000803e3d6000fd5b505050506040513d601f19601f820116820180604052508101906138f091906149eb565b6001600160a01b0316145b6139175760405162461bcd60e51b81526004016106e090614e14565b6000826001600160a01b031663313ce5676040518163ffffffff1660e01b815260040160206040518083038186803b15801561395257600080fd5b505afa158015613966573d6000803e3d6000fd5b505050506040513d601f19601f8201168201806040525081019061398a9190614e77565b60ff1690506000620493e08510613a50576139a682600a614f78565b6040516330c3d99f60e11b8152600260048201527f00000000000000000000000000000000000000000000000000000000000000006001600160a01b031690636187b33e906024015b60206040518083038186803b158015613a0757600080fd5b505afa158015613a1b573d6000803e3d6000fd5b505050506040513d601f19601f82011682018060405250810190613a3f9190614bd4565b613a499190614f84565b9050613b62565b62030d408510613ab257613a6582600a614f78565b6040516330c3d99f60e11b8152600160048201527f00000000000000000000000000000000000000000000000000000000000000006001600160a01b031690636187b33e906024016139ef565b613abd82600a614f78565b6040516330c3d99f60e11b8152600060048201527f00000000000000000000000000000000000000000000000000000000000000006001600160a01b031690636187b33e9060240160206040518083038186803b158015613b1d57600080fd5b505afa158015613b31573d6000803e3d6000fd5b505050506040513d601f19601f82011682018060405250810190613b559190614bd4565b613b5f9190614f84565b90505b620186a0851015613bb55760405162461bcd60e51b815260206004820152601a60248201527f4c594e4b4e46543a207265766572736520746f6b656e2069642e00000000000060448201526064016106e0565b62061a808510611b4f5760405162461bcd60e51b815260206004820152601c60248201527f4c594e4b4e46543a20746f6b656e20696420746f6f206c617267652e0000000060448201526064016106e0565b6000806000613c1461354c565b90508084604051602001613c4492919091825260601b6bffffffffffffffffffffffff1916602082015260340190565b60408051601f1981840301815291905280516020909101209050613c6c600560ff8316614d9e565b613c77906001614ada565b9250613c8b600360ff608084901c16614d9e565b613c96906001614ada565b915050915091565b80471015613cee5760405162461bcd60e51b815260206004820152601d60248201527f416464726573733a20696e73756666696369656e742062616c616e636500000060448201526064016106e0565b6000826001600160a01b03168260405160006040518083038185875af1925050503d8060008114613d3b576040519150601f19603f3d011682016040523d82523d6000602084013e613d40565b606091505b50509050806107815760405162461bcd60e51b815260206004820152603a60248201527f416464726573733a20756e61626c6520746f2073656e642076616c75652c207260448201527f6563697069656e74206d6179206861766520726576657274656400000000000060648201526084016106e0565b604080516001600160a01b0385811660248301528416604482015260648082018490528251808303909101815260849091019091526020810180516001600160e01b03166323b872dd60e01b1790526111bf908590613fd4565b613e1b83836140a6565b613e2860008484846135dc565b6107815760405162461bcd60e51b81526004016106e090614cab565b60006001613e5184610cd6565b613e5b9190614ac3565b600083815260986020526040902054909150808214613eae576001600160a01b03841660009081526097602090815260408083208584528252808320548484528184208190558352609890915290208190555b5060009182526098602090815260408084208490556001600160a01b039094168352609781528383209183525290812055565b609954600090613ef390600190614ac3565b6000838152609a602052604081205460998054939450909284908110613f1b57613f1b614a73565b906000526020600020015490508060998381548110613f3c57613f3c614a73565b6000918252602080832090910192909255828152609a90915260408082208490558582528120556099805480613f7457613f74615020565b6001900381819060005260206000200160009055905550505050565b6000613f9b83610cd6565b6001600160a01b039093166000908152609760209081526040808320868452825280832085905593825260989052919091209190915550565b6000614029826040518060400160405280602081526020017f5361666545524332303a206c6f772d6c6576656c2063616c6c206661696c6564815250856001600160a01b03166141f49092919063ffffffff16565b80519091501561078157808060200190518101906140479190614a08565b6107815760405162461bcd60e51b815260206004820152602a60248201527f5361666545524332303a204552433230206f7065726174696f6e20646964206e6044820152691bdd081cdd58d8d9595960b21b60648201526084016106e0565b6001600160a01b0382166140fc5760405162461bcd60e51b815260206004820181905260248201527f4552433732313a206d696e7420746f20746865207a65726f206164647265737360448201526064016106e0565b6000818152606760205260409020546001600160a01b0316156141615760405162461bcd60e51b815260206004820152601c60248201527f4552433732313a20746f6b656e20616c7265616479206d696e7465640000000060448201526064016106e0565b61416d60008383613494565b6001600160a01b0382166000908152606860205260408120805460019290614196908490614ada565b909155505060008181526067602052604080822080546001600160a01b0319166001600160a01b03861690811790915590518392907fddf252ad1be2c89b69c2b068fc378daa952ba7f163c4a11628f55a4df523b3ef908290a45050565b6060611b4f8484600085856001600160a01b0385163b6142565760405162461bcd60e51b815260206004820152601d60248201527f416464726573733a2063616c6c20746f206e6f6e2d636f6e747261637400000060448201526064016106e0565b600080866001600160a01b031685876040516142729190615036565b60006040518083038185875af1925050503d80600081146142af576040519150601f19603f3d011682016040523d82523d6000602084013e6142b4565b606091505b50915091506142c48282866142cf565b979650505050505050565b606083156142de575081611225565b8251156142ee5782518084602001fd5b8160405162461bcd60e51b81526004016106e09190614466565b828054828255906000526020600020908101928215614343579160200282015b82811115614343578251825591602001919060010190614328565b5061434f9291506143c6565b5090565b82805461435f906149b0565b90600052602060002090601f0160209004810192826143815760008555614343565b82601f1061439a57805160ff1916838001178555614343565b828001600101855582156143435791820182811115614343578251825591602001919060010190614328565b5b8082111561434f57600081556001016143c7565b6001600160e01b031981168114610a0f57600080fd5b60006020828403121561440357600080fd5b8135611225816143db565b60005b83811015614429578181015183820152602001614411565b838111156111bf5750506000910152565b6000815180845261445281602086016020860161440e565b601f01601f19169290920160200192915050565b602081526000611225602083018461443a565b60006020828403121561448b57600080fd5b5035919050565b6001600160a01b0381168114610a0f57600080fd5b600080604083850312156144ba57600080fd5b82356144c581614492565b946020939093013593505050565b634e487b7160e01b600052604160045260246000fd5b604051601f8201601f1916810167ffffffffffffffff81118282101715614512576145126144d3565b604052919050565b600067ffffffffffffffff821115614534576145346144d3565b50601f01601f191660200190565b60006145556145508461451a565b6144e9565b905082815283838301111561456957600080fd5b828260208301376000602084830101529392505050565b60006020828403121561459257600080fd5b813567ffffffffffffffff8111156145a957600080fd5b8201601f810184136145ba57600080fd5b611b4f84823560208401614542565b6000602082840312156145db57600080fd5b813561122581614492565b6000806000606084860312156145fb57600080fd5b833561460681614492565b9250602084013561461681614492565b929592945050506040919091013590565b8015158114610a0f57600080fd5b6000806040838503121561464857600080fd5b823561465381614492565b9150602083013561466381614627565b809150509250929050565b6000806000806080858703121561468457600080fd5b843561468f81614492565b9350602085013561469f81614492565b925060408501359150606085013567ffffffffffffffff8111156146c257600080fd5b8501601f810187136146d357600080fd5b6146e287823560208401614542565b91505092959194509250565b60008083601f84011261470057600080fd5b50813567ffffffffffffffff81111561471857600080fd5b60208301915083602082850101111561473057600080fd5b9250929050565b60ff81168114610a0f57600080fd5b60008060008060008060008060006101008a8c03121561476557600080fd5b8935985060208a013561477781614492565b975060408a013567ffffffffffffffff81111561479357600080fd5b61479f8c828d016146ee565b90985096505060608a0135945060808a0135935060a08a01356147c181614737565b8093505060c08a0135915060e08a013590509295985092959850929598565b8035600481106147ef57600080fd5b919050565b60008060008060008060008060006101208a8c03121561481357600080fd5b61481c8a6147e0565b985060208a0135975060408a0135965060608a013561483a81614492565b955060808a0135945060a08a0135935060c08a013561485881614737565b8093505060e08a013591506101008a013590509295985092959850929598565b6000806000806080858703121561488e57600080fd5b614897856147e0565b9350602085013592506040850135915060608501356148b581614492565b939692955090935050565b6020808252825182820181905260009190848201906040850190845b818110156148f8578351835292840192918401916001016148dc565b50909695505050505050565b6000806040838503121561491757600080fd5b50508035926020909101359150565b6000806000806060858703121561493c57600080fd5b84359350602085013561494e81614492565b9250604085013567ffffffffffffffff81111561496a57600080fd5b614976878288016146ee565b95989497509550505050565b6000806040838503121561499557600080fd5b82356149a081614492565b9150602083013561466381614492565b600181811c908216806149c457607f821691505b602082108114156149e557634e487b7160e01b600052602260045260246000fd5b50919050565b6000602082840312156149fd57600080fd5b815161122581614492565b600060208284031215614a1a57600080fd5b815161122581614627565b6020808252602e908201527f4552433732313a2063616c6c6572206973206e6f7420746f6b656e206f776e6560408201526d1c881b9bdc88185c1c1c9bdd995960921b606082015260800190565b634e487b7160e01b600052603260045260246000fd5b60008060408385031215614a9c57600080fd5b505080516020909101519092909150565b634e487b7160e01b600052601160045260246000fd5b600082821015614ad557614ad5614aad565b500390565b60008219821115614aed57614aed614aad565b500190565b60008351614b0481846020880161440e565b835190830190614b1881836020880161440e565b01949350505050565b6001600160a01b0397881681529590961660208601526040850193909352606084019190915260ff16608083015260a082015260c081019190915260e00190565b6000600019821415614b7657614b76614aad565b5060010190565b60008251614b8f81846020870161440e565b642e6c796e6b60d81b920191825250600501919050565b60008060408385031215614bb957600080fd5b8251614bc481614492565b6020939093015192949293505050565b600060208284031215614be657600080fd5b5051919050565b6000608082016080835280875480835260a08501915088600052602092508260002060005b82811015614c2e57815484529284019260019182019101614c12565b50505083810382850152614c42818861443a565b6001600160a01b039690961660408501525050506060015292915050565b6020808252602b908201527f496e697469616c697a61626c653a20636f6e7472616374206973206e6f74206960408201526a6e697469616c697a696e6760a81b606082015260800190565b60208082526032908201527f4552433732313a207472616e7366657220746f206e6f6e20455243373231526560408201527131b2b4bb32b91034b6b83632b6b2b73a32b960711b606082015260800190565b600060208284031215614d0f57600080fd5b815167ffffffffffffffff811115614d2657600080fd5b8201601f81018413614d3757600080fd5b8051614d456145508261451a565b818152856020838501011115614d5a57600080fd5b614d6b82602083016020860161440e565b95945050505050565b634e487b7160e01b600052601260045260246000fd5b600082614d9957614d99614d74565b500490565b600082614dad57614dad614d74565b500690565b8183823760009101908152919050565b60006001600160801b03808316818516808303821115614b1857614b18614aad565b81838237642e6c796e6b60d81b9101908152600501919050565b634e487b7160e01b600052602160045260246000fd5b6020808252601d908201527f4c594e4b4e46543a20756e737570706f72746564207061796d656e742e000000604082015260600190565b6040810160048410614e6d57634e487b7160e01b600052602160045260246000fd5b9281526020015290565b600060208284031215614e8957600080fd5b815161122581614737565b600181815b80851115614ecf578160001904821115614eb557614eb5614aad565b80851615614ec257918102915b93841c9390800290614e99565b509250929050565b600082614ee6575060016105ac565b81614ef3575060006105ac565b8160018114614f095760028114614f1357614f2f565b60019150506105ac565b60ff841115614f2457614f24614aad565b50506001821b6105ac565b5060208310610133831016604e8410600b8410161715614f52575081810a6105ac565b614f5c8383614e94565b8060001904821115614f7057614f70614aad565b029392505050565b60006112258383614ed7565b6000816000190483118215151615614f9e57614f9e614aad565b500290565b6001600160a01b0385811682528416602082015260408101839052608060608201819052600090614fd69083018461443a565b9695505050505050565b600060208284031215614ff257600080fd5b8151611225816143db565b600060ff821660ff84168082101561501757615017614aad565b90039392505050565b634e487b7160e01b600052603160045260246000fd5b6000825161504881846020870161440e565b919091019291505056fea264697066735822122064b02686249a79b6d14097d715190965b45d9ff41e8494a5af6bc2706939623a64736f6c63430008090033",
  "devdoc": {
    "kind": "dev",
    "methods": {
      "approve(address,uint256)": {
        "details": "See {IERC721-approve}."
      },
      "balanceOf(address)": {
        "details": "See {IERC721-balanceOf}."
      },
      "getApproved(uint256)": {
        "details": "See {IERC721-getApproved}."
      },
      "isApprovedForAll(address,address)": {
        "details": "See {IERC721-isApprovedForAll}."
      },
      "name()": {
        "details": "See {IERC721Metadata-name}."
      },
      "ownerOf(uint256)": {
        "details": "See {IERC721-ownerOf}."
      },
      "safeTransferFrom(address,address,uint256)": {
        "details": "See {IERC721-safeTransferFrom}."
      },
      "safeTransferFrom(address,address,uint256,bytes)": {
        "details": "See {IERC721-safeTransferFrom}."
      },
      "setApprovalForAll(address,bool)": {
        "details": "See {IERC721-setApprovalForAll}."
      },
      "supportsInterface(bytes4)": {
        "details": "See {IERC165-supportsInterface}."
      },
      "symbol()": {
        "details": "See {IERC721Metadata-symbol}."
      },
      "tokenByIndex(uint256)": {
        "details": "See {IERC721Enumerable-tokenByIndex}."
      },
      "tokenOfOwnerByIndex(address,uint256)": {
        "details": "See {IERC721Enumerable-tokenOfOwnerByIndex}."
      },
      "tokenURI(uint256)": {
        "details": "See {IERC721Metadata-tokenURI}."
      },
      "totalSupply()": {
        "details": "See {IERC721Enumerable-totalSupply}."
      },
      "transferFrom(address,address,uint256)": {
        "details": "See {IERC721-transferFrom}."
      }
    },
    "version": 1
  },
  "userdoc": {
    "kind": "user",
    "methods": {},
    "version": 1
  },
  "storageLayout": {
    "storage": [
      {
        "astId": 138,
        "contract": "contracts/token/LYNKNFT.sol:LYNKNFT",
        "label": "_initialized",
        "offset": 0,
        "slot": "0",
        "type": "t_uint8"
      },
      {
        "astId": 141,
        "contract": "contracts/token/LYNKNFT.sol:LYNKNFT",
        "label": "_initializing",
        "offset": 1,
        "slot": "0",
        "type": "t_bool"
      },
      {
        "astId": 3230,
        "contract": "contracts/token/LYNKNFT.sol:LYNKNFT",
        "label": "__gap",
        "offset": 0,
        "slot": "1",
        "type": "t_array(t_uint256)50_storage"
      },
      {
        "astId": 4112,
        "contract": "contracts/token/LYNKNFT.sol:LYNKNFT",
        "label": "__gap",
        "offset": 0,
        "slot": "51",
        "type": "t_array(t_uint256)50_storage"
      },
      {
        "astId": 1533,
        "contract": "contracts/token/LYNKNFT.sol:LYNKNFT",
        "label": "_name",
        "offset": 0,
        "slot": "101",
        "type": "t_string_storage"
      },
      {
        "astId": 1535,
        "contract": "contracts/token/LYNKNFT.sol:LYNKNFT",
        "label": "_symbol",
        "offset": 0,
        "slot": "102",
        "type": "t_string_storage"
      },
      {
        "astId": 1539,
        "contract": "contracts/token/LYNKNFT.sol:LYNKNFT",
        "label": "_owners",
        "offset": 0,
        "slot": "103",
        "type": "t_mapping(t_uint256,t_address)"
      },
      {
        "astId": 1543,
        "contract": "contracts/token/LYNKNFT.sol:LYNKNFT",
        "label": "_balances",
        "offset": 0,
        "slot": "104",
        "type": "t_mapping(t_address,t_uint256)"
      },
      {
        "astId": 1547,
        "contract": "contracts/token/LYNKNFT.sol:LYNKNFT",
        "label": "_tokenApprovals",
        "offset": 0,
        "slot": "105",
        "type": "t_mapping(t_uint256,t_address)"
      },
      {
        "astId": 1553,
        "contract": "contracts/token/LYNKNFT.sol:LYNKNFT",
        "label": "_operatorApprovals",
        "offset": 0,
        "slot": "106",
        "type": "t_mapping(t_address,t_mapping(t_address,t_bool))"
      },
      {
        "astId": 2395,
        "contract": "contracts/token/LYNKNFT.sol:LYNKNFT",
        "label": "__gap",
        "offset": 0,
        "slot": "107",
        "type": "t_array(t_uint256)44_storage"
      },
      {
        "astId": 2560,
        "contract": "contracts/token/LYNKNFT.sol:LYNKNFT",
        "label": "_ownedTokens",
        "offset": 0,
        "slot": "151",
        "type": "t_mapping(t_address,t_mapping(t_uint256,t_uint256))"
      },
      {
        "astId": 2564,
        "contract": "contracts/token/LYNKNFT.sol:LYNKNFT",
        "label": "_ownedTokensIndex",
        "offset": 0,
        "slot": "152",
        "type": "t_mapping(t_uint256,t_uint256)"
      },
      {
        "astId": 2567,
        "contract": "contracts/token/LYNKNFT.sol:LYNKNFT",
        "label": "_allTokens",
        "offset": 0,
        "slot": "153",
        "type": "t_array(t_uint256)dyn_storage"
      },
      {
        "astId": 2571,
        "contract": "contracts/token/LYNKNFT.sol:LYNKNFT",
        "label": "_allTokensIndex",
        "offset": 0,
        "slot": "154",
        "type": "t_mapping(t_uint256,t_uint256)"
      },
      {
        "astId": 2887,
        "contract": "contracts/token/LYNKNFT.sol:LYNKNFT",
        "label": "__gap",
        "offset": 0,
        "slot": "155",
        "type": "t_array(t_uint256)46_storage"
      },
      {
        "astId": 11723,
        "contract": "contracts/token/LYNKNFT.sol:LYNKNFT",
        "label": "randomSeed",
        "offset": 0,
        "slot": "201",
        "type": "t_uint256"
      },
      {
        "astId": 11728,
        "contract": "contracts/token/LYNKNFT.sol:LYNKNFT",
        "label": "nftInfo",
        "offset": 0,
        "slot": "202",
        "type": "t_mapping(t_uint256,t_array(t_uint256)dyn_storage)"
      },
      {
        "astId": 11733,
        "contract": "contracts/token/LYNKNFT.sol:LYNKNFT",
        "label": "mintInfoOf",
        "offset": 0,
        "slot": "203",
        "type": "t_mapping(t_address,t_struct(MintInfo)11777_storage)"
      },
      {
        "astId": 11737,
        "contract": "contracts/token/LYNKNFT.sol:LYNKNFT",
        "label": "nameUsed",
        "offset": 0,
        "slot": "204",
        "type": "t_mapping(t_string_memory_ptr,t_bool)"
      },
      {
        "astId": 11742,
        "contract": "contracts/token/LYNKNFT.sol:LYNKNFT",
        "label": "addedVAInfoOf",
        "offset": 0,
        "slot": "205",
        "type": "t_mapping(t_uint256,t_struct(AttributeAddedInfo)11782_storage)"
      },
      {
        "astId": 11744,
        "contract": "contracts/token/LYNKNFT.sol:LYNKNFT",
        "label": "earlyBirdCounter",
        "offset": 0,
        "slot": "206",
        "type": "t_uint256"
      },
      {
        "astId": 11746,
        "contract": "contracts/token/LYNKNFT.sol:LYNKNFT",
        "label": "earlyBirdWlCounter",
        "offset": 0,
        "slot": "207",
        "type": "t_uint256"
      },
      {
        "astId": 11750,
        "contract": "contracts/token/LYNKNFT.sol:LYNKNFT",
        "label": "earlyBirdMintedOf",
        "offset": 0,
        "slot": "208",
        "type": "t_mapping(t_address,t_bool)"
      }
    ],
    "types": {
      "t_address": {
        "encoding": "inplace",
        "label": "address",
        "numberOfBytes": "20"
      },
      "t_array(t_uint256)44_storage": {
        "base": "t_uint256",
        "encoding": "inplace",
        "label": "uint256[44]",
        "numberOfBytes": "1408"
      },
      "t_array(t_uint256)46_storage": {
        "base": "t_uint256",
        "encoding": "inplace",
        "label": "uint256[46]",
        "numberOfBytes": "1472"
      },
      "t_array(t_uint256)50_storage": {
        "base": "t_uint256",
        "encoding": "inplace",
        "label": "uint256[50]",
        "numberOfBytes": "1600"
      },
      "t_array(t_uint256)dyn_storage": {
        "base": "t_uint256",
        "encoding": "dynamic_array",
        "label": "uint256[]",
        "numberOfBytes": "32"
      },
      "t_bool": {
        "encoding": "inplace",
        "label": "bool",
        "numberOfBytes": "1"
      },
      "t_mapping(t_address,t_bool)": {
        "encoding": "mapping",
        "key": "t_address",
        "label": "mapping(address => bool)",
        "numberOfBytes": "32",
        "value": "t_bool"
      },
      "t_mapping(t_address,t_mapping(t_address,t_bool))": {
        "encoding": "mapping",
        "key": "t_address",
        "label": "mapping(address => mapping(address => bool))",
        "numberOfBytes": "32",
        "value": "t_mapping(t_address,t_bool)"
      },
      "t_mapping(t_address,t_mapping(t_uint256,t_uint256))": {
        "encoding": "mapping",
        "key": "t_address",
        "label": "mapping(address => mapping(uint256 => uint256))",
        "numberOfBytes": "32",
        "value": "t_mapping(t_uint256,t_uint256)"
      },
      "t_mapping(t_address,t_struct(MintInfo)11777_storage)": {
        "encoding": "mapping",
        "key": "t_address",
        "label": "mapping(address => struct LYNKNFT.MintInfo)",
        "numberOfBytes": "32",
        "value": "t_struct(MintInfo)11777_storage"
      },
      "t_mapping(t_address,t_uint256)": {
        "encoding": "mapping",
        "key": "t_address",
        "label": "mapping(address => uint256)",
        "numberOfBytes": "32",
        "value": "t_uint256"
      },
      "t_mapping(t_string_memory_ptr,t_bool)": {
        "encoding": "mapping",
        "key": "t_string_memory_ptr",
        "label": "mapping(string => bool)",
        "numberOfBytes": "32",
        "value": "t_bool"
      },
      "t_mapping(t_uint256,t_address)": {
        "encoding": "mapping",
        "key": "t_uint256",
        "label": "mapping(uint256 => address)",
        "numberOfBytes": "32",
        "value": "t_address"
      },
      "t_mapping(t_uint256,t_array(t_uint256)dyn_storage)": {
        "encoding": "mapping",
        "key": "t_uint256",
        "label": "mapping(uint256 => uint256[])",
        "numberOfBytes": "32",
        "value": "t_array(t_uint256)dyn_storage"
      },
      "t_mapping(t_uint256,t_struct(AttributeAddedInfo)11782_storage)": {
        "encoding": "mapping",
        "key": "t_uint256",
        "label": "mapping(uint256 => struct LYNKNFT.AttributeAddedInfo)",
        "numberOfBytes": "32",
        "value": "t_struct(AttributeAddedInfo)11782_storage"
      },
      "t_mapping(t_uint256,t_uint256)": {
        "encoding": "mapping",
        "key": "t_uint256",
        "label": "mapping(uint256 => uint256)",
        "numberOfBytes": "32",
        "value": "t_uint256"
      },
      "t_string_memory_ptr": {
        "encoding": "bytes",
        "label": "string",
        "numberOfBytes": "32"
      },
      "t_string_storage": {
        "encoding": "bytes",
        "label": "string",
        "numberOfBytes": "32"
      },
      "t_struct(AttributeAddedInfo)11782_storage": {
        "encoding": "inplace",
        "label": "struct LYNKNFT.AttributeAddedInfo",
        "members": [
          {
            "astId": 11779,
            "contract": "contracts/token/LYNKNFT.sol:LYNKNFT",
            "label": "lastAddedTime",
            "offset": 0,
            "slot": "0",
            "type": "t_uint128"
          },
          {
            "astId": 11781,
            "contract": "contracts/token/LYNKNFT.sol:LYNKNFT",
            "label": "addedInDuration",
            "offset": 16,
            "slot": "0",
            "type": "t_uint128"
          }
        ],
        "numberOfBytes": "32"
      },
      "t_struct(MintInfo)11777_storage": {
        "encoding": "inplace",
        "label": "struct LYNKNFT.MintInfo",
        "members": [
          {
            "astId": 11774,
            "contract": "contracts/token/LYNKNFT.sol:LYNKNFT",
            "label": "lastMintTime",
            "offset": 0,
            "slot": "0",
            "type": "t_uint128"
          },
          {
            "astId": 11776,
            "contract": "contracts/token/LYNKNFT.sol:LYNKNFT",
            "label": "mintNumInDuration",
            "offset": 16,
            "slot": "0",
            "type": "t_uint128"
          }
        ],
        "numberOfBytes": "32"
      },
      "t_uint128": {
        "encoding": "inplace",
        "label": "uint128",
        "numberOfBytes": "16"
      },
      "t_uint256": {
        "encoding": "inplace",
        "label": "uint256",
        "numberOfBytes": "32"
      },
      "t_uint8": {
        "encoding": "inplace",
        "label": "uint8",
        "numberOfBytes": "1"
      }
    }
  }
}