{
  "address": "0x6AcdFDf5E4eE3b48b44ccf69Dd93199E0c53cb68",
  "abi": [
    {
      "inputs": [
        {
          "internalType": "address",
          "name": "dbContract",
          "type": "address"
        }
      ],
      "stateMutability": "nonpayable",
      "type": "constructor"
    },
    {
      "anonymous": false,
      "inputs": [
        {
          "indexed": false,
          "internalType": "uint8",
          "name": "version",
          "type": "uint8"
        }
      ],
      "name": "Initialized",
      "type": "event"
    },
    {
      "inputs": [],
      "name": "BLACK_HOLE",
      "outputs": [
        {
          "internalType": "address",
          "name": "",
          "type": "address"
        }
      ],
      "stateMutability": "view",
      "type": "function"
    },
    {
      "inputs": [],
      "name": "DB_CONTRACT",
      "outputs": [
        {
          "internalType": "address",
          "name": "",
          "type": "address"
        }
      ],
      "stateMutability": "view",
      "type": "function"
    },
    {
      "inputs": [],
      "name": "__Swap_init",
      "outputs": [],
      "stateMutability": "nonpayable",
      "type": "function"
    },
    {
      "inputs": [
        {
          "internalType": "uint256",
          "name": "_amountIn",
          "type": "uint256"
        }
      ],
      "name": "swap",
      "outputs": [],
      "stateMutability": "nonpayable",
      "type": "function"
    }
  ],
  "transactionHash": "0x39a667d8eddcc5f7d384cff7869ed8483bba3ab516e2334992a8320e1dee1570",
  "args": [
    "0x49BB37B72Bc6Be7c36337FF787ab53E8196639C1"
  ],
  "numDeployments": 1,
  "solcInputHash": "9d7bca6848149a117a51973d2eedaebf",
  "bytecode": "0x60a060405234801561001057600080fd5b50604051610e6d380380610e6d83398101604081905261002f91610040565b6001600160a01b0316608052610070565b60006020828403121561005257600080fd5b81516001600160a01b038116811461006957600080fd5b9392505050565b608051610dc76100a660003960008181609801528181610237015281816103970152818161068001526107240152610dc76000f3fe608060405234801561001057600080fd5b506004361061004c5760003560e01c806339cda63a1461005157806355eda4e81461005b57806394b918de146100805780639ccea0cd14610093575b600080fd5b6100596100ba565b005b61006461dead81565b6040516001600160a01b03909116815260200160405180910390f35b61005961008e366004610bff565b6101d8565b6100647f000000000000000000000000000000000000000000000000000000000000000081565b600054610100900460ff16158080156100da5750600054600160ff909116105b806100f45750303b1580156100f4575060005460ff166001145b61015c5760405162461bcd60e51b815260206004820152602e60248201527f496e697469616c697a61626c653a20636f6e747261637420697320616c72656160448201526d191e481a5b9a5d1a585b1a5e995960921b60648201526084015b60405180910390fd5b6000805460ff19166001179055801561017f576000805461ff0019166101001790555b6101876104f1565b61018f6104fb565b80156101d5576000805461ff0019169055604051600181527f7f26b83ff96e1f2b6a682f133852f6798a09c465da95921460cefb38474024989060200160405180910390a15b50565b6002603354141561022b5760405162461bcd60e51b815260206004820152601f60248201527f5265656e7472616e637947756172643a207265656e7472616e742063616c6c006044820152606401610153565b600260338190555060007f00000000000000000000000000000000000000000000000000000000000000006001600160a01b0316633b87436b6040518163ffffffff1660e01b815260040160206040518083038186803b15801561028e57600080fd5b505afa1580156102a2573d6000803e3d6000fd5b505050506040513d601f19601f820116820180604052508101906102c69190610c18565b9050816001600160a01b0382166370a08231336040516001600160e01b031960e084901b1681526001600160a01b03909116600482015260240160206040518083038186803b15801561031857600080fd5b505afa15801561032c573d6000803e3d6000fd5b505050506040513d601f19601f820116820180604052508101906103509190610c41565b10156103935760405162461bcd60e51b815260206004820152601260248201527134b739bab33334b1b4b2b73a10262ca7259760711b6044820152606401610153565b60007f00000000000000000000000000000000000000000000000000000000000000006001600160a01b03166370c802fb6040518163ffffffff1660e01b815260040160206040518083038186803b1580156103ee57600080fd5b505afa158015610402573d6000803e3d6000fd5b505050506040513d601f19601f820116820180604052508101906104269190610c41565b90506000811161046b5760405162461bcd60e51b815260206004820152601060248201526f36bab9ba1034b734ba103334b939ba1760811b6044820152606401610153565b6000670de0b6b3a76400006104808386610c5a565b61048a9190610c87565b9050804710156104d15760405162461bcd60e51b815260206004820152601260248201527134b739bab33334b1b4b2b73a1020a62cac1760711b6044820152606401610153565b6104dc83338661052a565b6104e633826107dc565b505060016033555050565b6104f96108f5565b565b600054610100900460ff166105225760405162461bcd60e51b815260040161015390610ca9565b6104f961091c565b6001600160a01b038316610598578034146105875760405162461bcd60e51b815260206004820152601c60248201527f62617365436f6e74726163743a20696e76616c69642076616c75652e000000006044820152606401610153565b61059361dead826107dc565b505050565b604051636eb1769f60e11b81526001600160a01b03838116600483015230602483015282919085169063dd62ed3e9060440160206040518083038186803b1580156105e257600080fd5b505afa1580156105f6573d6000803e3d6000fd5b505050506040513d601f19601f8201168201806040525081019061061a9190610c41565b10156106745760405162461bcd60e51b8152602060048201526024808201527f62617365436f6e74726163743a20696e73756666696369656e7420616c6c6f77604482015263616e636560e01b6064820152608401610153565b826001600160a01b03167f00000000000000000000000000000000000000000000000000000000000000006001600160a01b03166377b330c96040518163ffffffff1660e01b815260040160206040518083038186803b1580156106d757600080fd5b505afa1580156106eb573d6000803e3d6000fd5b505050506040513d601f19601f8201168201806040525081019061070f9190610c18565b6001600160a01b031614156107c557610593827f00000000000000000000000000000000000000000000000000000000000000006001600160a01b0316630b00fd546040518163ffffffff1660e01b815260040160206040518083038186803b15801561077b57600080fd5b505afa15801561078f573d6000803e3d6000fd5b505050506040513d601f19601f820116820180604052508101906107b39190610c18565b6001600160a01b03861691908461094a565b6105936001600160a01b0384168361dead8461094a565b8047101561082c5760405162461bcd60e51b815260206004820152601d60248201527f416464726573733a20696e73756666696369656e742062616c616e63650000006044820152606401610153565b6000826001600160a01b03168260405160006040518083038185875af1925050503d8060008114610879576040519150601f19603f3d011682016040523d82523d6000602084013e61087e565b606091505b50509050806105935760405162461bcd60e51b815260206004820152603a60248201527f416464726573733a20756e61626c6520746f2073656e642076616c75652c207260448201527f6563697069656e74206d617920686176652072657665727465640000000000006064820152608401610153565b600054610100900460ff166104f95760405162461bcd60e51b815260040161015390610ca9565b600054610100900460ff166109435760405162461bcd60e51b815260040161015390610ca9565b6001603355565b604080516001600160a01b0385811660248301528416604482015260648082018490528251808303909101815260849091019091526020810180516001600160e01b03166323b872dd60e01b1790526109a49085906109aa565b50505050565b60006109ff826040518060400160405280602081526020017f5361666545524332303a206c6f772d6c6576656c2063616c6c206661696c6564815250856001600160a01b0316610a7c9092919063ffffffff16565b8051909150156105935780806020019051810190610a1d9190610cf4565b6105935760405162461bcd60e51b815260206004820152602a60248201527f5361666545524332303a204552433230206f7065726174696f6e20646964206e6044820152691bdd081cdd58d8d9595960b21b6064820152608401610153565b6060610a8b8484600085610a95565b90505b9392505050565b606082471015610af65760405162461bcd60e51b815260206004820152602660248201527f416464726573733a20696e73756666696369656e742062616c616e636520666f6044820152651c8818d85b1b60d21b6064820152608401610153565b6001600160a01b0385163b610b4d5760405162461bcd60e51b815260206004820152601d60248201527f416464726573733a2063616c6c20746f206e6f6e2d636f6e74726163740000006044820152606401610153565b600080866001600160a01b03168587604051610b699190610d42565b60006040518083038185875af1925050503d8060008114610ba6576040519150601f19603f3d011682016040523d82523d6000602084013e610bab565b606091505b5091509150610bbb828286610bc6565b979650505050505050565b60608315610bd5575081610a8e565b825115610be55782518084602001fd5b8160405162461bcd60e51b81526004016101539190610d5e565b600060208284031215610c1157600080fd5b5035919050565b600060208284031215610c2a57600080fd5b81516001600160a01b0381168114610a8e57600080fd5b600060208284031215610c5357600080fd5b5051919050565b6000816000190483118215151615610c8257634e487b7160e01b600052601160045260246000fd5b500290565b600082610ca457634e487b7160e01b600052601260045260246000fd5b500490565b6020808252602b908201527f496e697469616c697a61626c653a20636f6e7472616374206973206e6f74206960408201526a6e697469616c697a696e6760a81b606082015260800190565b600060208284031215610d0657600080fd5b81518015158114610a8e57600080fd5b60005b83811015610d31578181015183820152602001610d19565b838111156109a45750506000910152565b60008251610d54818460208701610d16565b9190910192915050565b6020815260008251806020840152610d7d816040850160208701610d16565b601f01601f1916919091016040019291505056fea2646970667358221220917bc8d228c42a812ad8f14e6cd9d60f6bc08708c3204528f85733a6390362f264736f6c63430008090033",
  "devdoc": {
    "kind": "dev",
    "methods": {},
    "version": 1
  },
  "userdoc": {
    "kind": "user",
    "methods": {},
    "version": 1
  },
  "storageLayout": {
    "storage": [
      {
        "astId": 138,
        "contract": "contracts/Swap.sol:Swap",
        "label": "_initialized",
        "offset": 0,
        "slot": "0",
        "type": "t_uint8"
      },
      {
        "astId": 141,
        "contract": "contracts/Swap.sol:Swap",
        "label": "_initializing",
        "offset": 1,
        "slot": "0",
        "type": "t_bool"
      },
      {
        "astId": 3289,
        "contract": "contracts/Swap.sol:Swap",
        "label": "__gap",
        "offset": 0,
        "slot": "1",
        "type": "t_array(t_uint256)50_storage"
      },
      {
        "astId": 296,
        "contract": "contracts/Swap.sol:Swap",
        "label": "_status",
        "offset": 0,
        "slot": "51",
        "type": "t_uint256"
      },
      {
        "astId": 340,
        "contract": "contracts/Swap.sol:Swap",
        "label": "__gap",
        "offset": 0,
        "slot": "52",
        "type": "t_array(t_uint256)49_storage"
      }
    ],
    "types": {
      "t_array(t_uint256)49_storage": {
        "base": "t_uint256",
        "encoding": "inplace",
        "label": "uint256[49]",
        "numberOfBytes": "1568"
      },
      "t_array(t_uint256)50_storage": {
        "base": "t_uint256",
        "encoding": "inplace",
        "label": "uint256[50]",
        "numberOfBytes": "1600"
      },
      "t_bool": {
        "encoding": "inplace",
        "label": "bool",
        "numberOfBytes": "1"
      },
      "t_uint256": {
        "encoding": "inplace",
        "label": "uint256",
        "numberOfBytes": "32"
      },
      "t_uint8": {
        "encoding": "inplace",
        "label": "uint8",
        "numberOfBytes": "1"
      }
    }
  }
}