{
  "address": "0x02a47EA6feDbb8dED56190184101b920B7137fd3",
  "abi": [
    {
      "inputs": [
        {
          "internalType": "address",
          "name": "dbAddress",
          "type": "address"
        }
      ],
      "stateMutability": "nonpayable",
      "type": "constructor"
    },
    {
      "anonymous": false,
      "inputs": [
        {
          "indexed": true,
          "internalType": "address",
          "name": "account",
          "type": "address"
        },
        {
          "indexed": true,
          "internalType": "uint256",
          "name": "nftId",
          "type": "uint256"
        },
        {
          "indexed": false,
          "internalType": "uint256",
          "name": "amount",
          "type": "uint256"
        }
      ],
      "name": "ClaimAchievementReward",
      "type": "event"
    },
    {
      "anonymous": false,
      "inputs": [
        {
          "indexed": true,
          "internalType": "address",
          "name": "account",
          "type": "address"
        },
        {
          "indexed": false,
          "internalType": "address",
          "name": "invitee",
          "type": "address"
        },
        {
          "indexed": false,
          "internalType": "uint256",
          "name": "amount",
          "type": "uint256"
        }
      ],
      "name": "CommunityRewardDistribute",
      "type": "event"
    },
    {
      "anonymous": false,
      "inputs": [
        {
          "indexed": true,
          "internalType": "address",
          "name": "account",
          "type": "address"
        },
        {
          "indexed": false,
          "internalType": "address",
          "name": "invitee",
          "type": "address"
        },
        {
          "indexed": false,
          "internalType": "uint256",
          "name": "amount",
          "type": "uint256"
        }
      ],
      "name": "ContributionRewardDistribute",
      "type": "event"
    },
    {
      "anonymous": false,
      "inputs": [
        {
          "indexed": false,
          "internalType": "uint8",
          "name": "version",
          "type": "uint8"
        }
      ],
      "name": "Initialized",
      "type": "event"
    },
    {
      "anonymous": false,
      "inputs": [
        {
          "indexed": true,
          "internalType": "address",
          "name": "account",
          "type": "address"
        },
        {
          "indexed": false,
          "internalType": "enum IUser.Level",
          "name": "level",
          "type": "uint8"
        }
      ],
      "name": "LevelUp",
      "type": "event"
    },
    {
      "anonymous": false,
      "inputs": [
        {
          "indexed": true,
          "internalType": "address",
          "name": "account",
          "type": "address"
        },
        {
          "indexed": false,
          "internalType": "address",
          "name": "ref",
          "type": "address"
        }
      ],
      "name": "Register",
      "type": "event"
    },
    {
      "anonymous": false,
      "inputs": [
        {
          "indexed": true,
          "internalType": "address",
          "name": "account",
          "type": "address"
        },
        {
          "indexed": false,
          "internalType": "address",
          "name": "invitee",
          "type": "address"
        },
        {
          "indexed": false,
          "internalType": "uint256",
          "name": "amount",
          "type": "uint256"
        }
      ],
      "name": "SocialRewardDistribute",
      "type": "event"
    },
    {
      "inputs": [],
      "name": "BLACK_HOLE",
      "outputs": [
        {
          "internalType": "address",
          "name": "",
          "type": "address"
        }
      ],
      "stateMutability": "view",
      "type": "function"
    },
    {
      "inputs": [],
      "name": "DB_CONTRACT",
      "outputs": [
        {
          "internalType": "address",
          "name": "",
          "type": "address"
        }
      ],
      "stateMutability": "view",
      "type": "function"
    },
    {
      "inputs": [],
      "name": "__User_init",
      "outputs": [],
      "stateMutability": "nonpayable",
      "type": "function"
    },
    {
      "inputs": [
        {
          "internalType": "address",
          "name": "",
          "type": "address"
        }
      ],
      "name": "achievementCounter",
      "outputs": [
        {
          "internalType": "uint256",
          "name": "",
          "type": "uint256"
        }
      ],
      "stateMutability": "view",
      "type": "function"
    },
    {
      "inputs": [
        {
          "internalType": "address",
          "name": "_userAddr",
          "type": "address"
        }
      ],
      "name": "auditLevel",
      "outputs": [],
      "stateMutability": "nonpayable",
      "type": "function"
    },
    {
      "inputs": [
        {
          "internalType": "address",
          "name": "_userAddr",
          "type": "address"
        },
        {
          "internalType": "uint256",
          "name": "_nftId",
          "type": "uint256"
        }
      ],
      "name": "calcAchievementReward",
      "outputs": [
        {
          "internalType": "uint256",
          "name": "",
          "type": "uint256"
        }
      ],
      "stateMutability": "view",
      "type": "function"
    },
    {
      "inputs": [
        {
          "internalType": "uint256",
          "name": "_nftId",
          "type": "uint256"
        }
      ],
      "name": "claimAchievementReward",
      "outputs": [],
      "stateMutability": "nonpayable",
      "type": "function"
    },
    {
      "inputs": [
        {
          "internalType": "address",
          "name": "",
          "type": "address"
        }
      ],
      "name": "contributionOf",
      "outputs": [
        {
          "internalType": "uint256",
          "name": "",
          "type": "uint256"
        }
      ],
      "stateMutability": "view",
      "type": "function"
    },
    {
      "inputs": [
        {
          "internalType": "address",
          "name": "_userAddr",
          "type": "address"
        },
        {
          "internalType": "uint256",
          "name": "_rewardAmount",
          "type": "uint256"
        }
      ],
      "name": "hookByClaimReward",
      "outputs": [],
      "stateMutability": "nonpayable",
      "type": "function"
    },
    {
      "inputs": [
        {
          "internalType": "uint256",
          "name": "nftId",
          "type": "uint256"
        }
      ],
      "name": "hookByStake",
      "outputs": [],
      "stateMutability": "nonpayable",
      "type": "function"
    },
    {
      "inputs": [
        {
          "internalType": "uint256",
          "name": "nftId",
          "type": "uint256"
        }
      ],
      "name": "hookByUnStake",
      "outputs": [],
      "stateMutability": "nonpayable",
      "type": "function"
    },
    {
      "inputs": [
        {
          "internalType": "address",
          "name": "_userAddr",
          "type": "address"
        },
        {
          "internalType": "uint256",
          "name": "_performance",
          "type": "uint256"
        }
      ],
      "name": "hookByUpgrade",
      "outputs": [],
      "stateMutability": "nonpayable",
      "type": "function"
    },
    {
      "inputs": [
        {
          "internalType": "address",
          "name": "_userAddr",
          "type": "address"
        }
      ],
      "name": "isValidUser",
      "outputs": [
        {
          "internalType": "bool",
          "name": "",
          "type": "bool"
        }
      ],
      "stateMutability": "view",
      "type": "function"
    },
    {
      "inputs": [
        {
          "internalType": "address",
          "name": "_userAddr",
          "type": "address"
        }
      ],
      "name": "levelUpAble",
      "outputs": [
        {
          "internalType": "bool",
          "name": "",
          "type": "bool"
        }
      ],
      "stateMutability": "view",
      "type": "function"
    },
    {
      "inputs": [
        {
          "internalType": "address",
          "name": "_userAddr",
          "type": "address"
        },
        {
          "internalType": "enum IUser.Level",
          "name": "_level",
          "type": "uint8"
        }
      ],
      "name": "refCounterOf",
      "outputs": [
        {
          "internalType": "uint256",
          "name": "",
          "type": "uint256"
        }
      ],
      "stateMutability": "view",
      "type": "function"
    },
    {
      "inputs": [
        {
          "internalType": "address",
          "name": "_refAddr",
          "type": "address"
        }
      ],
      "name": "register",
      "outputs": [],
      "stateMutability": "nonpayable",
      "type": "function"
    },
    {
      "inputs": [
        {
          "internalType": "address",
          "name": "_userAddr",
          "type": "address"
        },
        {
          "internalType": "address",
          "name": "_refAddr",
          "type": "address"
        }
      ],
      "name": "registerByEarlyPlan",
      "outputs": [],
      "stateMutability": "nonpayable",
      "type": "function"
    },
    {
      "inputs": [
        {
          "internalType": "uint256",
          "name": "",
          "type": "uint256"
        }
      ],
      "name": "stakeNFTs",
      "outputs": [
        {
          "internalType": "uint256",
          "name": "lastUpdateTime",
          "type": "uint256"
        },
        {
          "internalType": "uint256",
          "name": "stakedDuration",
          "type": "uint256"
        }
      ],
      "stateMutability": "view",
      "type": "function"
    },
    {
      "inputs": [
        {
          "internalType": "address",
          "name": "",
          "type": "address"
        }
      ],
      "name": "userInfoOf",
      "outputs": [
        {
          "internalType": "enum IUser.Level",
          "name": "level",
          "type": "uint8"
        },
        {
          "internalType": "address",
          "name": "refAddress",
          "type": "address"
        },
        {
          "internalType": "uint256",
          "name": "stakeRev",
          "type": "uint256"
        },
        {
          "internalType": "uint256",
          "name": "socialRev",
          "type": "uint256"
        },
        {
          "internalType": "uint256",
          "name": "communityRev",
          "type": "uint256"
        },
        {
          "internalType": "uint256",
          "name": "contributionRev",
          "type": "uint256"
        },
        {
          "internalType": "uint256",
          "name": "achievementRev",
          "type": "uint256"
        },
        {
          "internalType": "uint256",
          "name": "performance",
          "type": "uint256"
        }
      ],
      "stateMutability": "view",
      "type": "function"
    }
  ],
  "transactionHash": "0x7ee433bd86c434d1da9f9a0895b22923c890f0704b8ab8ca2b777581cc4533e0",
  "args": [
    "0x49BB37B72Bc6Be7c36337FF787ab53E8196639C1"
  ],
  "numDeployments": 5,
  "solcInputHash": "4063336c735dd09d931c6568ab60e70d",
  "bytecode": "0x60a06040523480156200001157600080fd5b5060405162002c2e38038062002c2e833981016040819052620000349162000046565b6001600160a01b031660805262000078565b6000602082840312156200005957600080fd5b81516001600160a01b03811681146200007157600080fd5b9392505050565b608051612ac86200016660003960008181610281015281816104bc0152818161055d01528181610626015281816106bb0152818161097701528181610adb01528181610bdb01528181610c8501528181610de601528181610f2301528181610fed015281816110d60152818161124a0152818161137f01528181611498015281816115780152818161163f0152818161172a015281816117aa0152818161188401528181611a9d01528181611b4c01528181611bfd01528181611c9201528181611d4501528181611ed801528181611fed015281816121b70152818161245401526124fa0152612ac86000f3fe608060405234801561001057600080fd5b50600436106101215760003560e01c80637fbb3029116100ad578063d7805ece11610071578063d7805ece146102e9578063e5693bb714610309578063f3c95c601461031c578063faa6023c1461035f578063fc07ff591461037257600080fd5b80637fbb3029146102405780639ccea0cd1461027c578063a222de6a146102a3578063c8b723f3146102c3578063d5ea7e43146102d657600080fd5b806343db9218116100f457806343db92181461017c578063441e6a441461018f5780634420e486146101f957806355eda4e81461020c578063562afdf51461022d57600080fd5b806304aa9a1c14610126578063101c209d1461013057806323b3f2a51461015657806333110a6e14610169575b600080fd5b61012e610385565b005b61014361013e366004612664565b61049b565b6040519081526020015b60405180910390f35b61012e610164366004612690565b6104b0565b61012e6101773660046126c9565b610619565b61012e61018a3660046126ed565b610622565b6101e561019d3660046126c9565b603360205260009081526040902080546001820154600283015460038401546004850154600586015460069096015460ff8616966101009096046001600160a01b0316959088565b60405161014d98979695949392919061273e565b61012e6102073660046126c9565b610ac5565b61021561dead81565b6040516001600160a01b03909116815260200161014d565b61012e61023b366004612664565b610acf565b61026761024e3660046126ed565b6034602052600090815260409020805460019091015482565b6040805192835260208301919091520161014d565b6102157f000000000000000000000000000000000000000000000000000000000000000081565b6101436102b13660046126c9565b60366020526000908152604090205481565b61012e6102d13660046126ed565b611373565b6101436102e436600461278b565b611447565b6101436102f73660046126c9565b60356020526000908152604090205481565b61012e6103173660046126ed565b61148c565b61034f61032a3660046126c9565b6001600160a01b03908116600090815260336020526040902054610100900416151590565b604051901515815260200161014d565b61012e61036d366004612664565b611633565b61034f6103803660046126c9565b611a83565b600054610100900460ff16158080156103a55750600054600160ff909116105b806103bf5750303b1580156103bf575060005460ff166001145b6104275760405162461bcd60e51b815260206004820152602e60248201527f496e697469616c697a61626c653a20636f6e747261637420697320616c72656160448201526d191e481a5b9a5d1a585b1a5e995960921b60648201526084015b60405180910390fd5b6000805460ff19166001179055801561044a576000805461ff0019166101001790555b610452611a8e565b8015610498576000805461ff0019169055604051600181527f7f26b83ff96e1f2b6a682f133852f6798a09c465da95921460cefb38474024989060200160405180910390a15b50565b60006104a78383611a98565b90505b92915050565b336001600160a01b03167f00000000000000000000000000000000000000000000000000000000000000006001600160a01b031663663d2c4e6040518163ffffffff1660e01b815260040160206040518083038186803b15801561051357600080fd5b505afa158015610527573d6000803e3d6000fd5b505050506040513d601f19601f8201168201806040525081019061054b91906127bd565b6001600160a01b0316148061058857507f00000000000000000000000000000000000000000000000000000000000000006001600160a01b031633145b6105a45760405162461bcd60e51b815260040161041e906127da565b6001600160a01b038281166000908152603360205260409020546101009004161561060b5760405162461bcd60e51b81526020600482015260176024820152762ab9b2b91d1030b63932b0b23c903932b3b4b9ba32b91760491b604482015260640161041e565b6106158282611eae565b5050565b6104988161218d565b60007f00000000000000000000000000000000000000000000000000000000000000006001600160a01b031663663d2c4e6040518163ffffffff1660e01b815260040160206040518083038186803b15801561067d57600080fd5b505afa158015610691573d6000803e3d6000fd5b505050506040513d601f19601f820116820180604052508101906106b591906127bd565b905060007f00000000000000000000000000000000000000000000000000000000000000006001600160a01b0316635b487d9c6040518163ffffffff1660e01b815260040160206040518083038186803b15801561071257600080fd5b505afa158015610726573d6000803e3d6000fd5b505050506040513d601f19601f8201168201806040525081019061074a91906127bd565b9050336040516331a9108f60e11b8152600481018590526001600160a01b0391821691841690636352211e9060240160206040518083038186803b15801561079157600080fd5b505afa1580156107a5573d6000803e3d6000fd5b505050506040513d601f19601f820116820180604052508101906107c991906127bd565b6001600160a01b031614806108615750336040516331a9108f60e11b8152600481018590526001600160a01b0391821691831690636352211e9060240160206040518083038186803b15801561081e57600080fd5b505afa158015610832573d6000803e3d6000fd5b505050506040513d601f19601f8201168201806040525081019061085691906127bd565b6001600160a01b0316145b6108a45760405162461bcd60e51b81526020600482015260146024820152732ab9b2b91d103737ba103a34329037bbb732b91760611b604482015260640161041e565b60006108b03385611a98565b9050600081116108fa5760405162461bcd60e51b81526020600482015260156024820152742ab9b2b91d1031b0b73737ba1031b630b4b690181760591b604482015260640161041e565b6000848152603460209081526040808320600181018490554290553383526036909152812080549161092b8361283f565b9190505550806033600061093c3390565b6001600160a01b03166001600160a01b03168152602001908152602001600020600501600082825461096e919061285a565b925050819055507f00000000000000000000000000000000000000000000000000000000000000006001600160a01b031663c2e30dd06040518163ffffffff1660e01b815260040160206040518083038186803b1580156109ce57600080fd5b505afa1580156109e2573d6000803e3d6000fd5b505050506040513d601f19601f82011682018060405250810190610a0691906127bd565b6001600160a01b03166340c10f19336040516001600160e01b031960e084901b1681526001600160a01b03909116600482015260248101849052604401600060405180830381600087803b158015610a5d57600080fd5b505af1158015610a71573d6000803e3d6000fd5b5050505083610a7d3390565b6001600160a01b03167f8fe8d97dec60f189295dbef3aa218ec7ba19a4be60cf0e06f7006eb938dd172083604051610ab791815260200190565b60405180910390a350505050565b6104983382611eae565b336001600160a01b03167f00000000000000000000000000000000000000000000000000000000000000006001600160a01b031663663d2c4e6040518163ffffffff1660e01b815260040160206040518083038186803b158015610b3257600080fd5b505afa158015610b46573d6000803e3d6000fd5b505050506040513d601f19601f82011682018060405250810190610b6a91906127bd565b6001600160a01b031614610b905760405162461bcd60e51b815260040161041e906127da565b8015610615576001600160a01b038083166000908152603360205260408082205461010090049092168082529181205460ff166005811115610bd457610bd4612706565b90506000807f00000000000000000000000000000000000000000000000000000000000000006001600160a01b0316637a58a3f1846040518263ffffffff1660e01b8152600401610c2791815260200190565b60206040518083038186803b158015610c3f57600080fd5b505afa158015610c53573d6000803e3d6000fd5b505050506040513d601f19601f82011682018060405250810190610c779190612872565b9050670de0b6b3a7640000817f00000000000000000000000000000000000000000000000000000000000000006001600160a01b0316633b87436b6040518163ffffffff1660e01b815260040160206040518083038186803b158015610cdc57600080fd5b505afa158015610cf0573d6000803e3d6000fd5b505050506040513d601f19601f82011682018060405250810190610d1491906127bd565b6001600160a01b031663313ce5676040518163ffffffff1660e01b815260040160206040518083038186803b158015610d4c57600080fd5b505afa158015610d60573d6000803e3d6000fd5b505050506040513d601f19601f82011682018060405250810190610d84919061288b565b610d8f90600a612992565b610d9990886129a1565b610da391906129a1565b610dad91906129c0565b6001600160a01b038516600090815260336020526040812060020180549294508492909190610ddd90849061285a565b925050819055507f00000000000000000000000000000000000000000000000000000000000000006001600160a01b0316633b87436b6040518163ffffffff1660e01b815260040160206040518083038186803b158015610e3d57600080fd5b505afa158015610e51573d6000803e3d6000fd5b505050506040513d601f19601f82011682018060405250810190610e7591906127bd565b6040516340c10f1960e01b81526001600160a01b0386811660048301526024820185905291909116906340c10f1990604401600060405180830381600087803b158015610ec157600080fd5b505af1158015610ed5573d6000803e3d6000fd5b5050604080516001600160a01b038a8116825260208201879052881693507f6c750f31ea6981466139ece64283b2d992d3baf27e575cc20221a213e483f17292500160405180910390a260007f00000000000000000000000000000000000000000000000000000000000000006001600160a01b03166377b2fb8e6040518163ffffffff1660e01b815260040160206040518083038186803b158015610f7a57600080fd5b505afa158015610f8e573d6000803e3d6000fd5b505050506040513d601f19601f82011682018060405250810190610fb29190612872565b90508015611212576001600160a01b0385811660009081526035602052604090819020549051637e71dc3760e11b81526004810187905290917f0000000000000000000000000000000000000000000000000000000000000000169063fce3b86e9060240160206040518083038186803b15801561102f57600080fd5b505afa158015611043573d6000803e3d6000fd5b505050506040513d601f19601f820116820180604052508101906110679190612872565b61107183836129c0565b8361107c8a8561285a565b61108691906129c0565b61109091906129e2565b61109a91906129a1565b93508315611210576001600160a01b038616600090815260336020526040812060040180548692906110cd90849061285a565b925050819055507f00000000000000000000000000000000000000000000000000000000000000006001600160a01b031663c2e30dd06040518163ffffffff1660e01b815260040160206040518083038186803b15801561112d57600080fd5b505afa158015611141573d6000803e3d6000fd5b505050506040513d601f19601f8201168201806040525081019061116591906127bd565b6040516340c10f1960e01b81526001600160a01b0388811660048301526024820187905291909116906340c10f1990604401600060405180830381600087803b1580156111b157600080fd5b505af11580156111c5573d6000803e3d6000fd5b5050604080516001600160a01b038c81168252602082018990528a1693507f40b213bec2f9c5b2f02409f019e5f1e258d851930fb1c83a495476a5e52f214392500160405180910390a25b505b6001600160a01b0385166000908152603560205260408120805488929061123a90849061285a565b92505081905550600085905060007f00000000000000000000000000000000000000000000000000000000000000006001600160a01b031663bf5784036040518163ffffffff1660e01b815260040160206040518083038186803b1580156112a157600080fd5b505afa1580156112b5573d6000803e3d6000fd5b505050506040513d601f19601f820116820180604052508101906112d99190612872565b905060005b8181101561135e576001600160a01b0383166112f95761135e565b6001600160a01b038316600090815260336020526040812060060180548b929061132490849061285a565b90915550506001600160a01b03928316600090815260336020526040902054610100900490921691806113568161283f565b9150506112de565b506113688761218d565b505050505050505050565b336001600160a01b03167f00000000000000000000000000000000000000000000000000000000000000006001600160a01b03166397610f306040518163ffffffff1660e01b815260040160206040518083038186803b1580156113d657600080fd5b505afa1580156113ea573d6000803e3d6000fd5b505050506040513d601f19601f8201168201806040525081019061140e91906127bd565b6001600160a01b0316146114345760405162461bcd60e51b815260040161041e906129f9565b6000908152603460205260409020429055565b6001600160a01b03821660009081526033602052604081206007018183600581111561147557611475612706565b815260200190815260200160002054905092915050565b336001600160a01b03167f00000000000000000000000000000000000000000000000000000000000000006001600160a01b03166397610f306040518163ffffffff1660e01b815260040160206040518083038186803b1580156114ef57600080fd5b505afa158015611503573d6000803e3d6000fd5b505050506040513d601f19601f8201168201806040525081019061152791906127bd565b6001600160a01b03161461154d5760405162461bcd60e51b815260040161041e906129f9565b60008181526034602052604090819020805442909155905163d3f0f70d60e01b8152600481018390527f00000000000000000000000000000000000000000000000000000000000000006001600160a01b03169063d3f0f70d9060240160206040518083038186803b1580156115c257600080fd5b505afa1580156115d6573d6000803e3d6000fd5b505050506040513d601f19601f820116820180604052508101906115fa9190612a47565b156106155761160981426129e2565b6000838152603460205260408120600101805490919061162a90849061285a565b90915550505050565b336001600160a01b03167f00000000000000000000000000000000000000000000000000000000000000006001600160a01b03166397610f306040518163ffffffff1660e01b815260040160206040518083038186803b15801561169657600080fd5b505afa1580156116aa573d6000803e3d6000fd5b505050506040513d601f19601f820116820180604052508101906116ce91906127bd565b6001600160a01b0316146116f45760405162461bcd60e51b815260040161041e906129f9565b6001600160a01b038083166000908152603360209081526040808320548151633b87436b60e01b815291516101009091048516947f00000000000000000000000000000000000000000000000000000000000000001692633b87436b9260048082019391829003018186803b15801561176c57600080fd5b505afa158015611780573d6000803e3d6000fd5b505050506040513d601f19601f820116820180604052508101906117a491906127bd565b905060007f00000000000000000000000000000000000000000000000000000000000000006001600160a01b0316634eb66e836040518163ffffffff1660e01b815260040160206040518083038186803b15801561180157600080fd5b505afa158015611815573d6000803e3d6000fd5b505050506040513d601f19601f820116820180604052508101906118399190612872565b905060005b81811015611a4b576001600160a01b03841661185957611a4b565b6001600160a01b03848116600090815260336020526040808220549051634d678f2960e01b815291927f00000000000000000000000000000000000000000000000000000000000000001691634d678f29916118bf9160ff909116908690600401612a69565b60206040518083038186803b1580156118d757600080fd5b505afa1580156118eb573d6000803e3d6000fd5b505050506040513d601f19601f8201168201806040525081019061190f9190612872565b90508015611a15576000670de0b6b3a764000061192c88846129a1565b61193691906129c0565b6001600160a01b03871660009081526033602052604081206003018054929350839290919061196690849061285a565b90915550506040516340c10f1960e01b81526001600160a01b038781166004830152602482018390528616906340c10f1990604401600060405180830381600087803b1580156119b557600080fd5b505af11580156119c9573d6000803e3d6000fd5b5050604080516001600160a01b038c81168252602082018690528a1693507f951581c5b66d2fff2d0b5f95efd12eda85f83f8998ca1dac23d0137dda6966f792500160405180910390a2505b506001600160a01b0393841660009081526033602052604090205461010090049093169280611a438161283f565b91505061183e565b506001600160a01b03851660009081526033602052604081206001018054869290611a7790849061285a565b90915550505050505050565b60006104aa82612401565b611a966125e4565b565b6000807f00000000000000000000000000000000000000000000000000000000000000006001600160a01b0316637811dddd6040518163ffffffff1660e01b815260040160206040518083038186803b158015611af457600080fd5b505afa158015611b08573d6000803e3d6000fd5b505050506040513d601f19601f82011682018060405250810190611b2c9190612872565b6001600160a01b03858116600090815260336020526040812054929350917f00000000000000000000000000000000000000000000000000000000000000009091169063af4574c69060ff166005811115611b8957611b89612706565b6040518263ffffffff1660e01b8152600401611ba791815260200190565b60206040518083038186803b158015611bbf57600080fd5b505afa158015611bd3573d6000803e3d6000fd5b505050506040513d601f19601f82011682018060405250810190611bf79190612872565b905060007f00000000000000000000000000000000000000000000000000000000000000006001600160a01b031663663d2c4e6040518163ffffffff1660e01b815260040160206040518083038186803b158015611c5457600080fd5b505afa158015611c68573d6000803e3d6000fd5b505050506040513d601f19601f82011682018060405250810190611c8c91906127bd565b905060007f00000000000000000000000000000000000000000000000000000000000000006001600160a01b0316635b487d9c6040518163ffffffff1660e01b815260040160206040518083038186803b158015611ce957600080fd5b505afa158015611cfd573d6000803e3d6000fd5b505050506040513d601f19601f82011682018060405250810190611d2191906127bd565b60405163d3f0f70d60e01b8152600481018890529091506000906001600160a01b037f0000000000000000000000000000000000000000000000000000000000000000169063d3f0f70d9060240160206040518083038186803b158015611d8757600080fd5b505afa158015611d9b573d6000803e3d6000fd5b505050506040513d601f19601f82011682018060405250810190611dbf9190612a47565b15611ea357600087815260346020526040812054611ddd90426129e2565b9050826001600160a01b0316846001600160a01b0316636352211e8a6040518263ffffffff1660e01b8152600401611e1791815260200190565b60206040518083038186803b158015611e2f57600080fd5b505afa158015611e43573d6000803e3d6000fd5b505050506040513d601f19601f82011682018060405250810190611e6791906127bd565b6001600160a01b031614611e79575060005b6000888152603460205260409020600101548690611e9890839061285a565b10611ea1578491505b505b979650505050505050565b6001600160a01b03828116600090815260336020526040902054610100900416158015611f7d57507f00000000000000000000000000000000000000000000000000000000000000006001600160a01b031663aaa2b8c86040518163ffffffff1660e01b815260040160206040518083038186803b158015611f2f57600080fd5b505afa158015611f43573d6000803e3d6000fd5b505050506040513d601f19601f82011682018060405250810190611f6791906127bd565b6001600160a01b0316826001600160a01b031614155b611fc35760405162461bcd60e51b81526020600482015260176024820152762ab9b2b91d1030b63932b0b23c903932b3b4b9ba32b91760491b604482015260640161041e565b6001600160a01b0381811660009081526033602052604090205461010090041615158061209157507f00000000000000000000000000000000000000000000000000000000000000006001600160a01b031663aaa2b8c86040518163ffffffff1660e01b815260040160206040518083038186803b15801561204457600080fd5b505afa158015612058573d6000803e3d6000fd5b505050506040513d601f19601f8201168201806040525081019061207c91906127bd565b6001600160a01b0316816001600160a01b0316145b6120ec5760405162461bcd60e51b815260206004820152602660248201527f557365723a2074686520726566206e6f7420612076616c696420726566206164604482015265323932b9b99760d11b606482015260840161041e565b6001600160a01b0382811660009081526033602090815260408083208054610100600160a81b031916610100958716958602179055928252828220828052600701905290812080546001929061214390849061285a565b90915550506040516001600160a01b0382811682528316907f98ada70a1cb506dc4591465e1ee9be3fd7a2b6c73ecf3b949009718c9a3515199060200160405180910390a2610615815b6001600160a01b0381811660009081526033602052604090205461010090041615158061225b57507f00000000000000000000000000000000000000000000000000000000000000006001600160a01b031663aaa2b8c86040518163ffffffff1660e01b815260040160206040518083038186803b15801561220e57600080fd5b505afa158015612222573d6000803e3d6000fd5b505050506040513d601f19601f8201168201806040525081019061224691906127bd565b6001600160a01b0316816001600160a01b0316145b6122a75760405162461bcd60e51b815260206004820152601760248201527f557365723a206e6f7420612076616c696420757365722e000000000000000000604482015260640161041e565b6001600160a01b03811660009081526033602052604081205460ff1660058111156122d4576122d4612706565b90506122df82612401565b156106155760006122f182600161285a565b600581111561230257612302612706565b6001600160a01b03841660009081526033602052604090208054919250829160ff1916600183600581111561233957612339612706565b0217905550826001600160a01b03167fa49b8576e012f713baa7dceadb7d709aaec8773b498ecfe582d8b9c0c8fd074f826040516123779190612a84565b60405180910390a26001600160a01b0380841660009081526033602052604090205461010090041680156123fb576001600160a01b03811660009081526033602052604081206001916007909101908460058111156123d8576123d8612706565b815260200190815260200160002060008282546123f5919061285a565b90915550505b50505050565b6001600160a01b038116600090815260336020526040812054819060ff16600581111561243057612430612706565b905060058110156125db576040516399bcfdd360e01b8152600481018290526000907f00000000000000000000000000000000000000000000000000000000000000006001600160a01b0316906399bcfdd39060240160206040518083038186803b15801561249e57600080fd5b505afa1580156124b2573d6000803e3d6000fd5b505050506040513d601f19601f820116820180604052508101906124d69190612872565b6040516334fd0adf60e21b8152600481018490529091506000906001600160a01b037f0000000000000000000000000000000000000000000000000000000000000000169063d3f42b7c9060240160206040518083038186803b15801561253c57600080fd5b505afa158015612550573d6000803e3d6000fd5b505050506040513d601f19601f820116820180604052508101906125749190612872565b6001600160a01b03861660009081526033602052604090206006015490915081118015906125c857506001600160a01b03851660009081526033602090815260408083208684526007019091529020548211155b156125d857506001949350505050565b50505b50600092915050565b600054610100900460ff16611a965760405162461bcd60e51b815260206004820152602b60248201527f496e697469616c697a61626c653a20636f6e7472616374206973206e6f74206960448201526a6e697469616c697a696e6760a81b606482015260840161041e565b6001600160a01b038116811461049857600080fd5b6000806040838503121561267757600080fd5b82356126828161264f565b946020939093013593505050565b600080604083850312156126a357600080fd5b82356126ae8161264f565b915060208301356126be8161264f565b809150509250929050565b6000602082840312156126db57600080fd5b81356126e68161264f565b9392505050565b6000602082840312156126ff57600080fd5b5035919050565b634e487b7160e01b600052602160045260246000fd5b6006811061273a57634e487b7160e01b600052602160045260246000fd5b9052565b610100810161274d828b61271c565b6001600160a01b0398909816602082015260408101969096526060860194909452608085019290925260a084015260c083015260e090910152919050565b6000806040838503121561279e57600080fd5b82356127a98161264f565b91506020830135600681106126be57600080fd5b6000602082840312156127cf57600080fd5b81516126e68161264f565b6020808252602f908201527f62617365436f6e74726163743a2063616c6c6572206e6f7420746865204c594e60408201526e259027232a1031b7b73a3930b1ba1760891b606082015260800190565b634e487b7160e01b600052601160045260246000fd5b600060001982141561285357612853612829565b5060010190565b6000821982111561286d5761286d612829565b500190565b60006020828403121561288457600080fd5b5051919050565b60006020828403121561289d57600080fd5b815160ff811681146126e657600080fd5b600181815b808511156128e95781600019048211156128cf576128cf612829565b808516156128dc57918102915b93841c93908002906128b3565b509250929050565b600082612900575060016104aa565b8161290d575060006104aa565b8160018114612923576002811461292d57612949565b60019150506104aa565b60ff84111561293e5761293e612829565b50506001821b6104aa565b5060208310610133831016604e8410600b841016171561296c575081810a6104aa565b61297683836128ae565b806000190482111561298a5761298a612829565b029392505050565b60006104a760ff8416836128f1565b60008160001904831182151516156129bb576129bb612829565b500290565b6000826129dd57634e487b7160e01b600052601260045260246000fd5b500490565b6000828210156129f4576129f4612829565b500390565b6020808252602e908201527f62617365436f6e74726163743a2063616c6c6572206e6f74207468652053746160408201526d35b4b7339031b7b73a3930b1ba1760911b606082015260800190565b600060208284031215612a5957600080fd5b815180151581146126e657600080fd5b60408101612a77828561271c565b8260208301529392505050565b602081016104aa828461271c56fea2646970667358221220f13cf0a72c1c5359b6a0a5c34efaab790e7954dfd6a9f9979661dffb49a5a57164736f6c63430008090033",
  "devdoc": {
    "kind": "dev",
    "methods": {},
    "version": 1
  },
  "userdoc": {
    "kind": "user",
    "methods": {},
    "version": 1
  },
  "storageLayout": {
    "storage": [
      {
        "astId": 138,
        "contract": "contracts/User.sol:User",
        "label": "_initialized",
        "offset": 0,
        "slot": "0",
        "type": "t_uint8"
      },
      {
        "astId": 141,
        "contract": "contracts/User.sol:User",
        "label": "_initializing",
        "offset": 1,
        "slot": "0",
        "type": "t_bool"
      },
      {
        "astId": 2428,
        "contract": "contracts/User.sol:User",
        "label": "__gap",
        "offset": 0,
        "slot": "1",
        "type": "t_array(t_uint256)50_storage"
      },
      {
        "astId": 4223,
        "contract": "contracts/User.sol:User",
        "label": "userInfoOf",
        "offset": 0,
        "slot": "51",
        "type": "t_mapping(t_address,t_struct(UserInfo)4303_storage)"
      },
      {
        "astId": 4228,
        "contract": "contracts/User.sol:User",
        "label": "stakeNFTs",
        "offset": 0,
        "slot": "52",
        "type": "t_mapping(t_uint256,t_struct(StakeInfo)4308_storage)"
      },
      {
        "astId": 4232,
        "contract": "contracts/User.sol:User",
        "label": "contributionOf",
        "offset": 0,
        "slot": "53",
        "type": "t_mapping(t_address,t_uint256)"
      },
      {
        "astId": 4236,
        "contract": "contracts/User.sol:User",
        "label": "achievementCounter",
        "offset": 0,
        "slot": "54",
        "type": "t_mapping(t_address,t_uint256)"
      }
    ],
    "types": {
      "t_address": {
        "encoding": "inplace",
        "label": "address",
        "numberOfBytes": "20"
      },
      "t_array(t_uint256)50_storage": {
        "base": "t_uint256",
        "encoding": "inplace",
        "label": "uint256[50]",
        "numberOfBytes": "1600"
      },
      "t_bool": {
        "encoding": "inplace",
        "label": "bool",
        "numberOfBytes": "1"
      },
      "t_enum(Level)5627": {
        "encoding": "inplace",
        "label": "enum IUser.Level",
        "numberOfBytes": "1"
      },
      "t_mapping(t_address,t_struct(UserInfo)4303_storage)": {
        "encoding": "mapping",
        "key": "t_address",
        "label": "mapping(address => struct User.UserInfo)",
        "numberOfBytes": "32",
        "value": "t_struct(UserInfo)4303_storage"
      },
      "t_mapping(t_address,t_uint256)": {
        "encoding": "mapping",
        "key": "t_address",
        "label": "mapping(address => uint256)",
        "numberOfBytes": "32",
        "value": "t_uint256"
      },
      "t_mapping(t_uint256,t_struct(StakeInfo)4308_storage)": {
        "encoding": "mapping",
        "key": "t_uint256",
        "label": "mapping(uint256 => struct User.StakeInfo)",
        "numberOfBytes": "32",
        "value": "t_struct(StakeInfo)4308_storage"
      },
      "t_mapping(t_uint256,t_uint256)": {
        "encoding": "mapping",
        "key": "t_uint256",
        "label": "mapping(uint256 => uint256)",
        "numberOfBytes": "32",
        "value": "t_uint256"
      },
      "t_struct(StakeInfo)4308_storage": {
        "encoding": "inplace",
        "label": "struct User.StakeInfo",
        "members": [
          {
            "astId": 4305,
            "contract": "contracts/User.sol:User",
            "label": "lastUpdateTime",
            "offset": 0,
            "slot": "0",
            "type": "t_uint256"
          },
          {
            "astId": 4307,
            "contract": "contracts/User.sol:User",
            "label": "stakedDuration",
            "offset": 0,
            "slot": "1",
            "type": "t_uint256"
          }
        ],
        "numberOfBytes": "64"
      },
      "t_struct(UserInfo)4303_storage": {
        "encoding": "inplace",
        "label": "struct User.UserInfo",
        "members": [
          {
            "astId": 4284,
            "contract": "contracts/User.sol:User",
            "label": "level",
            "offset": 0,
            "slot": "0",
            "type": "t_enum(Level)5627"
          },
          {
            "astId": 4286,
            "contract": "contracts/User.sol:User",
            "label": "refAddress",
            "offset": 1,
            "slot": "0",
            "type": "t_address"
          },
          {
            "astId": 4288,
            "contract": "contracts/User.sol:User",
            "label": "stakeRev",
            "offset": 0,
            "slot": "1",
            "type": "t_uint256"
          },
          {
            "astId": 4290,
            "contract": "contracts/User.sol:User",
            "label": "socialRev",
            "offset": 0,
            "slot": "2",
            "type": "t_uint256"
          },
          {
            "astId": 4292,
            "contract": "contracts/User.sol:User",
            "label": "communityRev",
            "offset": 0,
            "slot": "3",
            "type": "t_uint256"
          },
          {
            "astId": 4294,
            "contract": "contracts/User.sol:User",
            "label": "contributionRev",
            "offset": 0,
            "slot": "4",
            "type": "t_uint256"
          },
          {
            "astId": 4296,
            "contract": "contracts/User.sol:User",
            "label": "achievementRev",
            "offset": 0,
            "slot": "5",
            "type": "t_uint256"
          },
          {
            "astId": 4298,
            "contract": "contracts/User.sol:User",
            "label": "performance",
            "offset": 0,
            "slot": "6",
            "type": "t_uint256"
          },
          {
            "astId": 4302,
            "contract": "contracts/User.sol:User",
            "label": "refCounterOf",
            "offset": 0,
            "slot": "7",
            "type": "t_mapping(t_uint256,t_uint256)"
          }
        ],
        "numberOfBytes": "256"
      },
      "t_uint256": {
        "encoding": "inplace",
        "label": "uint256",
        "numberOfBytes": "32"
      },
      "t_uint8": {
        "encoding": "inplace",
        "label": "uint8",
        "numberOfBytes": "1"
      }
    }
  }
}